{"contracts/InterludePlatform.sol":{"InterludePlatform":{"abi":[{"inputs":[{"internalType":"address payable","name":"_ownerWallet","type":"address"},{"internalType":"address","name":"tokenAddress","type":"address"}],"stateMutability":"nonpayable","type":"constructor"},{"inputs":[{"internalType":"address","name":"owner","type":"address"}],"name":"OwnableInvalidOwner","type":"error"},{"inputs":[{"internalType":"address","name":"account","type":"address"}],"name":"OwnableUnauthorizedAccount","type":"error"},{"anonymous":false,"inputs":[{"indexed":true,"internalType":"address","name":"owner","type":"address"},{"indexed":false,"internalType":"uint256","name":"amount","type":"uint256"}],"name":"EarningsClaim","type":"event"},{"anonymous":false,"inputs":[{"indexed":true,"internalType":"address","name":"owner","type":"address"},{"indexed":false,"internalType":"uint256","name":"energyAmount","type":"uint256"}],"name":"EnergyCollected","type":"event"},{"anonymous":false,"inputs":[{"indexed":true,"internalType":"address","name":"previousOwner","type":"address"},{"indexed":true,"internalType":"address","name":"newOwner","type":"address"}],"name":"OwnershipTransferred","type":"event"},{"anonymous":false,"inputs":[{"indexed":true,"internalType":"address","name":"owner","type":"address"},{"indexed":false,"internalType":"uint256","name":"croAmount","type":"uint256"},{"indexed":false,"internalType":"uint256","name":"intAmount","type":"uint256"}],"name":"ReferralBonusClaim","type":"event"},{"anonymous":false,"inputs":[{"indexed":true,"internalType":"address","name":"from","type":"address"},{"indexed":true,"internalType":"address","name":"to","type":"address"},{"indexed":false,"internalType":"uint256","name":"value","type":"uint256"},{"indexed":false,"internalType":"uint256","name":"referrerCroBonus","type":"uint256"},{"indexed":false,"internalType":"uint256","name":"referrerIntBonus","type":"uint256"},{"indexed":false,"internalType":"uint256","name":"referredIntBonus","type":"uint256"}],"name":"TokenPurchase","type":"event"},{"inputs":[],"name":"accumulatedCro","outputs":[{"internalType":"uint256","name":"","type":"uint256"}],"stateMutability":"view","type":"function"},{"inputs":[{"internalType":"string","name":"assetName","type":"string"},{"internalType":"uint256","name":"power","type":"uint256"},{"internalType":"uint256","name":"unscaledPrice","type":"uint256"},{"internalType":"bool","name":"isCrystal","type":"bool"}],"name":"addAsset","outputs":[],"stateMutability":"nonpayable","type":"function"},{"inputs":[],"name":"adminWhitelist","outputs":[{"internalType":"contract IWhitelist","name":"","type":"address"}],"stateMutability":"view","type":"function"},{"inputs":[{"internalType":"uint256","name":"","type":"uint256"}],"name":"allUsers","outputs":[{"internalType":"address","name":"","type":"address"}],"stateMutability":"view","type":"function"},{"inputs":[{"internalType":"uint256","name":"crystalType","type":"uint256"},{"internalType":"uint256","name":"amount","type":"uint256"}],"name":"buyCrystal","outputs":[],"stateMutability":"nonpayable","type":"function"},{"inputs":[{"internalType":"uint256","name":"gemType","type":"uint256"},{"internalType":"uint256","name":"amount","type":"uint256"}],"name":"buyGem","outputs":[],"stateMutability":"nonpayable","type":"function"},{"inputs":[{"internalType":"address","name":"referralAddress","type":"address"}],"name":"buyToken","outputs":[],"stateMutability":"payable","type":"function"},{"inputs":[{"internalType":"address","name":"user","type":"address"}],"name":"calculateUserEarnings","outputs":[{"internalType":"uint256","name":"","type":"uint256"}],"stateMutability":"view","type":"function"},{"inputs":[],"name":"claimEarnings","outputs":[],"stateMutability":"nonpayable","type":"function"},{"inputs":[],"name":"claimReferralBonus","outputs":[],"stateMutability":"nonpayable","type":"function"},{"inputs":[{"internalType":"address","name":"user","type":"address"}],"name":"collectEnergy","outputs":[{"internalType":"uint256","name":"","type":"uint256"}],"stateMutability":"nonpayable","type":"function"},{"inputs":[{"internalType":"address","name":"","type":"address"}],"name":"collectedEnergy","outputs":[{"internalType":"uint256","name":"","type":"uint256"}],"stateMutability":"view","type":"function"},{"inputs":[],"name":"crystalBonusPercentage","outputs":[{"internalType":"uint256","name":"","type":"uint256"}],"stateMutability":"view","type":"function"},{"inputs":[{"internalType":"uint256","name":"","type":"uint256"}],"name":"crystals","outputs":[{"internalType":"string","name":"name","type":"string"},{"internalType":"uint256","name":"power","type":"uint256"},{"internalType":"uint256","name":"unscaledPrice","type":"uint256"}],"stateMutability":"view","type":"function"},{"inputs":[{"internalType":"address","name":"","type":"address"}],"name":"currentCrystalPower","outputs":[{"internalType":"uint256","name":"","type":"uint256"}],"stateMutability":"view","type":"function"},{"inputs":[{"internalType":"address","name":"","type":"address"}],"name":"currentGemPower","outputs":[{"internalType":"uint256","name":"","type":"uint256"}],"stateMutability":"view","type":"function"},{"inputs":[],"name":"currentPhase","outputs":[{"internalType":"uint256","name":"","type":"uint256"}],"stateMutability":"view","type":"function"},{"inputs":[],"name":"distributionInProgress","outputs":[{"internalType":"bool","name":"","type":"bool"}],"stateMutability":"view","type":"function"},{"inputs":[{"internalType":"address","name":"user","type":"address"}],"name":"eligibleForReferral","outputs":[{"internalType":"bool","name":"","type":"bool"}],"stateMutability":"view","type":"function"},{"inputs":[{"internalType":"address","name":"","type":"address"}],"name":"firstPurchasePhase","outputs":[{"internalType":"uint256","name":"","type":"uint256"}],"stateMutability":"view","type":"function"},{"inputs":[],"name":"flush","outputs":[],"stateMutability":"nonpayable","type":"function"},{"inputs":[{"internalType":"uint256","name":"","type":"uint256"}],"name":"gems","outputs":[{"internalType":"string","name":"name","type":"string"},{"internalType":"uint256","name":"power","type":"uint256"},{"internalType":"uint256","name":"unscaledPrice","type":"uint256"}],"stateMutability":"view","type":"function"},{"inputs":[],"name":"generalWhitelist","outputs":[{"internalType":"contract IWhitelist","name":"","type":"address"}],"stateMutability":"view","type":"function"},{"inputs":[{"internalType":"address","name":"","type":"address"}],"name":"generatedEnergy","outputs":[{"internalType":"uint256","name":"","type":"uint256"}],"stateMutability":"view","type":"function"},{"inputs":[{"internalType":"address","name":"user","type":"address"}],"name":"getCrystals","outputs":[{"internalType":"uint256[]","name":"","type":"uint256[]"}],"stateMutability":"view","type":"function"},{"inputs":[{"internalType":"address","name":"user","type":"address"}],"name":"getGems","outputs":[{"internalType":"uint256[]","name":"","type":"uint256[]"}],"stateMutability":"view","type":"function"},{"inputs":[{"internalType":"address","name":"user","type":"address"},{"internalType":"uint256","name":"amount","type":"uint256"}],"name":"giveTokenTo","outputs":[],"stateMutability":"nonpayable","type":"function"},{"inputs":[],"name":"initializeUsersEarningsUpdate","outputs":[],"stateMutability":"nonpayable","type":"function"},{"inputs":[{"internalType":"address","name":"","type":"address"}],"name":"investmentAllowance","outputs":[{"internalType":"uint256","name":"","type":"uint256"}],"stateMutability":"view","type":"function"},{"inputs":[{"internalType":"address","name":"","type":"address"}],"name":"lastTimeEnergyComputed","outputs":[{"internalType":"uint256","name":"","type":"uint256"}],"stateMutability":"view","type":"function"},{"inputs":[{"internalType":"address","name":"user","type":"address"},{"internalType":"uint256","name":"crystalType","type":"uint256"},{"internalType":"uint256","name":"amount","type":"uint256"}],"name":"mintCrystal","outputs":[],"stateMutability":"nonpayable","type":"function"},{"inputs":[],"name":"nbUserUpdated","outputs":[{"internalType":"uint256","name":"","type":"uint256"}],"stateMutability":"view","type":"function"},{"inputs":[],"name":"onlyAllowWhitelisted","outputs":[{"internalType":"bool","name":"","type":"bool"}],"stateMutability":"view","type":"function"},{"inputs":[],"name":"owner","outputs":[{"internalType":"address","name":"","type":"address"}],"stateMutability":"view","type":"function"},{"inputs":[],"name":"ownerWallet","outputs":[{"internalType":"address payable","name":"","type":"address"}],"stateMutability":"view","type":"function"},{"inputs":[],"name":"partnersWhitelist","outputs":[{"internalType":"contract IWhitelist","name":"","type":"address"}],"stateMutability":"view","type":"function"},{"inputs":[],"name":"referredIntBonusPercentage","outputs":[{"internalType":"uint256","name":"","type":"uint256"}],"stateMutability":"view","type":"function"},{"inputs":[],"name":"referrerCroBonusPercentage","outputs":[{"internalType":"uint256","name":"","type":"uint256"}],"stateMutability":"view","type":"function"},{"inputs":[],"name":"referrerIntBonusPercentage","outputs":[{"internalType":"uint256","name":"","type":"uint256"}],"stateMutability":"view","type":"function"},{"inputs":[],"name":"renounceOwnership","outputs":[],"stateMutability":"nonpayable","type":"function"},{"inputs":[{"internalType":"bool","name":"_restricted","type":"bool"}],"name":"restrictReferralProgram","outputs":[],"stateMutability":"nonpayable","type":"function"},{"inputs":[],"name":"restrictReferralProgramToPartners","outputs":[{"internalType":"bool","name":"","type":"bool"}],"stateMutability":"view","type":"function"},{"inputs":[{"internalType":"uint256","name":"crystalType","type":"uint256"},{"internalType":"uint256","name":"amount","type":"uint256"}],"name":"sellCrystal","outputs":[],"stateMutability":"nonpayable","type":"function"},{"inputs":[{"internalType":"uint256","name":"gemType","type":"uint256"},{"internalType":"uint256","name":"amount","type":"uint256"}],"name":"sellGem","outputs":[],"stateMutability":"nonpayable","type":"function"},{"inputs":[{"internalType":"address","name":"_adminWhitelist","type":"address"}],"name":"setAdminWhitelist","outputs":[],"stateMutability":"nonpayable","type":"function"},{"inputs":[{"internalType":"uint256","name":"_crystalBonusPercentage","type":"uint256"}],"name":"setCrystalBonusPercentage","outputs":[],"stateMutability":"nonpayable","type":"function"},{"inputs":[{"internalType":"address","name":"_generalWhitelist","type":"address"}],"name":"setGeneralWhitelist","outputs":[],"stateMutability":"nonpayable","type":"function"},{"inputs":[{"internalType":"bool","name":"_onlyAllowWhitelisted","type":"bool"}],"name":"setOnlyWhitelist","outputs":[],"stateMutability":"nonpayable","type":"function"},{"inputs":[{"internalType":"address","name":"_partnersWhitelist","type":"address"}],"name":"setPartnersWhitelist","outputs":[],"stateMutability":"nonpayable","type":"function"},{"inputs":[{"internalType":"uint256","name":"_referrerCroBonusPercentage","type":"uint256"},{"internalType":"uint256","name":"_referrerIntBonusPercentage","type":"uint256"},{"internalType":"uint256","name":"_referredIntBonusPercentage","type":"uint256"}],"name":"setReferralBonusesPercentages","outputs":[],"stateMutability":"nonpayable","type":"function"},{"inputs":[{"internalType":"uint256","name":"_startDate","type":"uint256"}],"name":"setStartDate","outputs":[],"stateMutability":"nonpayable","type":"function"},{"inputs":[{"components":[{"internalType":"uint256","name":"size","type":"uint256"},{"internalType":"uint256","name":"price","type":"uint256"}],"internalType":"struct InterludePlatform.Step[]","name":"_steps","type":"tuple[]"}],"name":"setSteps","outputs":[],"stateMutability":"nonpayable","type":"function"},{"inputs":[{"internalType":"address","name":"user","type":"address"},{"internalType":"uint256","name":"amountInCro","type":"uint256"}],"name":"setUserAllowance","outputs":[],"stateMutability":"nonpayable","type":"function"},{"inputs":[{"internalType":"address","name":"","type":"address"}],"name":"spendableTokens","outputs":[{"internalType":"uint256","name":"","type":"uint256"}],"stateMutability":"view","type":"function"},{"inputs":[],"name":"startDate","outputs":[{"internalType":"uint256","name":"","type":"uint256"}],"stateMutability":"view","type":"function"},{"inputs":[{"internalType":"uint256","name":"","type":"uint256"}],"name":"steps","outputs":[{"internalType":"uint256","name":"size","type":"uint256"},{"internalType":"uint256","name":"price","type":"uint256"}],"stateMutability":"view","type":"function"},{"inputs":[],"name":"token","outputs":[{"internalType":"contract MyPausableToken","name":"","type":"address"}],"stateMutability":"view","type":"function"},{"inputs":[{"internalType":"address","name":"","type":"address"}],"name":"totalClaimed","outputs":[{"internalType":"uint256","name":"","type":"uint256"}],"stateMutability":"view","type":"function"},{"inputs":[{"internalType":"address","name":"","type":"address"}],"name":"totalClaimedCroReferralBonus","outputs":[{"internalType":"uint256","name":"","type":"uint256"}],"stateMutability":"view","type":"function"},{"inputs":[{"internalType":"address","name":"","type":"address"}],"name":"totalClaimedIntReferralBonus","outputs":[{"internalType":"uint256","name":"","type":"uint256"}],"stateMutability":"view","type":"function"},{"inputs":[],"name":"totalCroToDistribute","outputs":[{"internalType":"uint256","name":"","type":"uint256"}],"stateMutability":"view","type":"function"},{"inputs":[],"name":"totalCrystalPower","outputs":[{"internalType":"uint256","name":"","type":"uint256"}],"stateMutability":"view","type":"function"},{"inputs":[],"name":"totalGemPower","outputs":[{"internalType":"uint256","name":"","type":"uint256"}],"stateMutability":"view","type":"function"},{"inputs":[],"name":"totalIntInCrystals","outputs":[{"internalType":"uint256","name":"","type":"uint256"}],"stateMutability":"view","type":"function"},{"inputs":[],"name":"totalIntInGems","outputs":[{"internalType":"uint256","name":"","type":"uint256"}],"stateMutability":"view","type":"function"},{"inputs":[{"internalType":"address","name":"","type":"address"}],"name":"totalInvested","outputs":[{"internalType":"uint256","name":"","type":"uint256"}],"stateMutability":"view","type":"function"},{"inputs":[],"name":"totalPriceUnitsInCrystals","outputs":[{"internalType":"uint256","name":"","type":"uint256"}],"stateMutability":"view","type":"function"},{"inputs":[],"name":"totalSold","outputs":[{"internalType":"uint256","name":"","type":"uint256"}],"stateMutability":"view","type":"function"},{"inputs":[{"internalType":"address","name":"newOwner","type":"address"}],"name":"transferOwnership","outputs":[],"stateMutability":"nonpayable","type":"function"},{"inputs":[{"internalType":"address","name":"","type":"address"}],"name":"unclaimedCroReferralBonus","outputs":[{"internalType":"uint256","name":"","type":"uint256"}],"stateMutability":"view","type":"function"},{"inputs":[{"internalType":"address","name":"","type":"address"}],"name":"unclaimedEarnings","outputs":[{"internalType":"uint256","name":"","type":"uint256"}],"stateMutability":"view","type":"function"},{"inputs":[{"internalType":"address","name":"","type":"address"}],"name":"unclaimedIntReferralBonus","outputs":[{"internalType":"uint256","name":"","type":"uint256"}],"stateMutability":"view","type":"function"},{"inputs":[],"name":"updateAllUsersEarnings","outputs":[],"stateMutability":"nonpayable","type":"function"},{"inputs":[{"internalType":"uint256","name":"index","type":"uint256"},{"internalType":"uint256","name":"_power","type":"uint256"},{"internalType":"uint256","name":"_unscaledPrice","type":"uint256"},{"internalType":"bool","name":"isCrystal","type":"bool"}],"name":"updateAsset","outputs":[],"stateMutability":"nonpayable","type":"function"},{"inputs":[],"name":"updateBatchSize","outputs":[{"internalType":"uint256","name":"","type":"uint256"}],"stateMutability":"view","type":"function"},{"inputs":[{"internalType":"address","name":"","type":"address"},{"internalType":"uint256","name":"","type":"uint256"}],"name":"userCrystals","outputs":[{"internalType":"uint256","name":"","type":"uint256"}],"stateMutability":"view","type":"function"},{"inputs":[{"internalType":"address","name":"","type":"address"},{"internalType":"uint256","name":"","type":"uint256"}],"name":"userGems","outputs":[{"internalType":"uint256","name":"","type":"uint256"}],"stateMutability":"view","type":"function"},{"stateMutability":"payable","type":"receive"}],"evm":{"bytecode":{"linkReferences":{},"object":"60806040526000600e556001600f5560016010556001601155600160125560016013556000601455600a601f55600a602055600f6021556000602660006101000a81548160ff0219169083151502179055506000602760146101000a81548160ff021916908315150217905550600060285534801561007d57600080fd5b50604051616202380380616202833981810160405281019061009f9190610310565b81600073ffffffffffffffffffffffffffffffffffffffff168173ffffffffffffffffffffffffffffffffffffffff16036101125760006040517f1e4fbdf7000000000000000000000000000000000000000000000000000000008152600401610109919061035f565b60405180910390fd5b610121816101ab60201b60201c565b5081600160006101000a81548173ffffffffffffffffffffffffffffffffffffffff021916908373ffffffffffffffffffffffffffffffffffffffff16021790555080600360006101000a81548173ffffffffffffffffffffffffffffffffffffffff021916908373ffffffffffffffffffffffffffffffffffffffff160217905550505061037a565b60008060009054906101000a900473ffffffffffffffffffffffffffffffffffffffff169050816000806101000a81548173ffffffffffffffffffffffffffffffffffffffff021916908373ffffffffffffffffffffffffffffffffffffffff1602179055508173ffffffffffffffffffffffffffffffffffffffff168173ffffffffffffffffffffffffffffffffffffffff167f8be0079c531659141344cd1fd0a4f28419497f9722a3daafe3b4186f6b6457e060405160405180910390a35050565b600080fd5b600073ffffffffffffffffffffffffffffffffffffffff82169050919050565b600061029f82610274565b9050919050565b6102af81610294565b81146102ba57600080fd5b50565b6000815190506102cc816102a6565b92915050565b60006102dd82610274565b9050919050565b6102ed816102d2565b81146102f857600080fd5b50565b60008151905061030a816102e4565b92915050565b600080604083850312156103275761032661026f565b5b6000610335858286016102bd565b9250506020610346858286016102fb565b9150509250929050565b610359816102d2565b82525050565b60006020820190506103746000830184610350565b92915050565b615e79806103896000396000f3fe6080604052600436106104565760003560e01c80638da5cb5b1161023f578063c7a1834711610139578063ef49968a116100b6578063fb0fc0761161007a578063fb0fc07614611198578063fc0c546a146111c1578063fcb966d7146111ec578063fd239fd914611217578063ff5133cd146112545761045d565b8063ef49968a146110a3578063ef5d9ae8146110e0578063f226de971461111d578063f2fde38b14611146578063f9d702001461116f5761045d565b8063d9ceab13116100fd578063d9ceab1314610fd2578063dc0c6a2a14610fe9578063de473f8d14611014578063df13c9ca14611051578063e1dc75d21461107a5761045d565b8063c7a1834714610ed9578063c8da5ef514610f16578063ce54d6e114610f41578063d4a444b414610f6a578063d7e14e1314610fa75761045d565b80639c20097a116101c7578063b9e66a791161018b578063b9e66a7914610e06578063ba51cf0714610e31578063bbaa117714610e48578063bc3de74914610e73578063c70e12cb14610e9c5761045d565b80639c20097a14610d0b578063a1f0406d14610d22578063a2bdedf414610d61578063a54dfaad14610d9e578063af28728c14610ddb5761045d565b80639106d7ba1161020e5780639106d7ba14610c265780639198631614610c515780639335dcb714610c7a57806393dbc75714610ca557806395ae847814610cce5761045d565b80638da5cb5b14610b565780638e84a0d814610b8157806390838e0914610bac57806390c757eb14610be95761045d565b80634ed9b7f6116103505780636de62ea7116102d857806382d95df51161029c57806382d95df514610a5f578063868b91ac14610a88578063869c865e14610ab3578063876cf0ef14610adc57806388185e0314610b195761045d565b80636de62ea714610988578063715018a6146109c55780637217e0b9146109dc5780637d848db214610a1a5780637e72fb5214610a435761045d565b80636143440c1161031f5780636143440c146108c75780636182a57d146108f057806362476bed1461091b57806366d74c80146109465780636b9f96ea146109715761045d565b80634ed9b7f61461080957806350614c561461083457806350a3eaf01461085f57806351484a191461088a5761045d565b806321622c63116103de57806333298463116103a257806333298463146106d8578063376f96711461071557806347315ec4146107525780634a5f58c71461078f5780634e358662146107cc5761045d565b806321622c63146105df57806323ada7171461060857806329e0f88d146106455780632b4c73e51461066e57806331b3ab3f146106995761045d565b8063109d75d511610425578063109d75d51461050c5780631dd02b4b146105495780631e375ab9146105725780631ff9e2b214610589578063206a5dbc146105b45761045d565b8063055ad42e1461046257806308d317dd1461048d5780630ae19ba8146104b65780630b97bc86146104e15761045d565b3661045d57005b600080fd5b34801561046e57600080fd5b5061047761127d565b60405161048491906149c7565b60405180910390f35b34801561049957600080fd5b506104b460048036038101906104af9190614a22565b611319565b005b3480156104c257600080fd5b506104cb6115d9565b6040516104d891906149c7565b60405180910390f35b3480156104ed57600080fd5b506104f66115df565b60405161050391906149c7565b60405180910390f35b34801561051857600080fd5b50610533600480360381019061052e9190614ac0565b6115e5565b60405161054091906149c7565b60405180910390f35b34801561055557600080fd5b50610570600480360381019061056b9190614b25565b611756565b005b34801561057e57600080fd5b5061058761177b565b005b34801561059557600080fd5b5061059e6119de565b6040516105ab9190614bb1565b60405180910390f35b3480156105c057600080fd5b506105c9611a04565b6040516105d691906149c7565b60405180910390f35b3480156105eb57600080fd5b5061060660048036038101906106019190614d7a565b611a0a565b005b34801561061457600080fd5b5061062f600480360381019061062a9190614ac0565b611acf565b60405161063c91906149c7565b60405180910390f35b34801561065157600080fd5b5061066c60048036038101906106679190614ac0565b611ae7565b005b34801561067a57600080fd5b50610683611b33565b60405161069091906149c7565b60405180910390f35b3480156106a557600080fd5b506106c060048036038101906106bb9190614dc3565b611b39565b6040516106cf93929190614e6f565b60405180910390f35b3480156106e457600080fd5b506106ff60048036038101906106fa9190614ac0565b611bfb565b60405161070c91906149c7565b60405180910390f35b34801561072157600080fd5b5061073c60048036038101906107379190614ac0565b611c13565b60405161074991906149c7565b60405180910390f35b34801561075e57600080fd5b5061077960048036038101906107749190614ac0565b611c2b565b60405161078691906149c7565b60405180910390f35b34801561079b57600080fd5b506107b660048036038101906107b19190614ac0565b611c43565b6040516107c391906149c7565b60405180910390f35b3480156107d857600080fd5b506107f360048036038101906107ee9190614ac0565b611c5b565b60405161080091906149c7565b60405180910390f35b34801561081557600080fd5b5061081e611c73565b60405161082b9190614ebc565b60405180910390f35b34801561084057600080fd5b50610849611c86565b6040516108569190614ebc565b60405180910390f35b34801561086b57600080fd5b50610874611c99565b60405161088191906149c7565b60405180910390f35b34801561089657600080fd5b506108b160048036038101906108ac9190614ac0565b611c9f565b6040516108be91906149c7565b60405180910390f35b3480156108d357600080fd5b506108ee60048036038101906108e99190614ac0565b611cb7565b005b3480156108fc57600080fd5b50610905611d03565b60405161091291906149c7565b60405180910390f35b34801561092757600080fd5b50610930611d09565b60405161093d91906149c7565b60405180910390f35b34801561095257600080fd5b5061095b611d0e565b6040516109689190614bb1565b60405180910390f35b34801561097d57600080fd5b50610986611d34565b005b34801561099457600080fd5b506109af60048036038101906109aa9190614ac0565b611da7565b6040516109bc91906149c7565b60405180910390f35b3480156109d157600080fd5b506109da611dbf565b005b3480156109e857600080fd5b50610a0360048036038101906109fe9190614dc3565b611dd3565b604051610a11929190614ed7565b60405180910390f35b348015610a2657600080fd5b50610a416004803603810190610a3c9190614f00565b611e07565b005b610a5d6004803603810190610a589190614ac0565b611ec9565b005b348015610a6b57600080fd5b50610a866004803603810190610a819190614dc3565b6124d8565b005b348015610a9457600080fd5b50610a9d6124ea565b604051610aaa91906149c7565b60405180910390f35b348015610abf57600080fd5b50610ada6004803603810190610ad5919061501c565b6124f0565b005b348015610ae857600080fd5b50610b036004803603810190610afe9190614ac0565b6125ee565b604051610b10919061515d565b60405180910390f35b348015610b2557600080fd5b50610b406004803603810190610b3b9190614ac0565b6126d9565b604051610b4d919061515d565b60405180910390f35b348015610b6257600080fd5b50610b6b6127c4565b604051610b78919061518e565b60405180910390f35b348015610b8d57600080fd5b50610b966127ed565b604051610ba39190614ebc565b60405180910390f35b348015610bb857600080fd5b50610bd36004803603810190610bce9190614ac0565b612800565b604051610be091906149c7565b60405180910390f35b348015610bf557600080fd5b50610c106004803603810190610c0b91906151a9565b612818565b604051610c1d91906149c7565b60405180910390f35b348015610c3257600080fd5b50610c3b61283d565b604051610c4891906149c7565b60405180910390f35b348015610c5d57600080fd5b50610c786004803603810190610c739190614dc3565b612843565b005b348015610c8657600080fd5b50610c8f612855565b604051610c9c919061520a565b60405180910390f35b348015610cb157600080fd5b50610ccc6004803603810190610cc79190614ac0565b61287b565b005b348015610cda57600080fd5b50610cf56004803603810190610cf09190614ac0565b6128c7565b604051610d0291906149c7565b60405180910390f35b348015610d1757600080fd5b50610d206128df565b005b348015610d2e57600080fd5b50610d496004803603810190610d449190614dc3565b612915565b604051610d5893929190614e6f565b60405180910390f35b348015610d6d57600080fd5b50610d886004803603810190610d839190614dc3565b6129d7565b604051610d95919061518e565b60405180910390f35b348015610daa57600080fd5b50610dc56004803603810190610dc09190614ac0565b612a16565b604051610dd291906149c7565b60405180910390f35b348015610de757600080fd5b50610df0612a2e565b604051610dfd9190614bb1565b60405180910390f35b348015610e1257600080fd5b50610e1b612a54565b604051610e2891906149c7565b60405180910390f35b348015610e3d57600080fd5b50610e46612a5a565b005b348015610e5457600080fd5b50610e5d612bf0565b604051610e6a91906149c7565b60405180910390f35b348015610e7f57600080fd5b50610e9a6004803603810190610e959190615225565b612bf6565b005b348015610ea857600080fd5b50610ec36004803603810190610ebe91906151a9565b612d0b565b604051610ed091906149c7565b60405180910390f35b348015610ee557600080fd5b50610f006004803603810190610efb9190614ac0565b612d30565b604051610f0d91906149c7565b60405180910390f35b348015610f2257600080fd5b50610f2b612d48565b604051610f3891906149c7565b60405180910390f35b348015610f4d57600080fd5b50610f686004803603810190610f6391906151a9565b612d4e565b005b348015610f7657600080fd5b50610f916004803603810190610f8c9190614ac0565b612e88565b604051610f9e91906149c7565b60405180910390f35b348015610fb357600080fd5b50610fbc612ea0565b604051610fc991906149c7565b60405180910390f35b348015610fde57600080fd5b50610fe7612ea6565b005b348015610ff557600080fd5b50610ffe613060565b60405161100b91906149c7565b60405180910390f35b34801561102057600080fd5b5061103b60048036038101906110369190614ac0565b613066565b6040516110489190614ebc565b60405180910390f35b34801561105d57600080fd5b5061107860048036038101906110739190614b25565b613315565b005b34801561108657600080fd5b506110a1600480360381019061109c9190614a22565b61333a565b005b3480156110af57600080fd5b506110ca60048036038101906110c59190614ac0565b613564565b6040516110d791906149c7565b60405180910390f35b3480156110ec57600080fd5b5061110760048036038101906111029190614ac0565b61357c565b60405161111491906149c7565b60405180910390f35b34801561112957600080fd5b50611144600480360381019061113f9190614a22565b613594565b005b34801561115257600080fd5b5061116d60048036038101906111689190614ac0565b61381b565b005b34801561117b57600080fd5b5061119660048036038101906111919190614a22565b6138a1565b005b3480156111a457600080fd5b506111bf60048036038101906111ba91906151a9565b613ace565b005b3480156111cd57600080fd5b506111d6613b31565b6040516111e39190615299565b60405180910390f35b3480156111f857600080fd5b50611201613b57565b60405161120e91906149c7565b60405180910390f35b34801561122357600080fd5b5061123e60048036038101906112399190614ac0565b613b5d565b60405161124b91906149c7565b60405180910390f35b34801561126057600080fd5b5061127b600480360381019061127691906152b4565b613f0d565b005b6000806000905060005b6004805490508110156112f457600481815481106112a8576112a7615307565b5b906000526020600020906002020160000154826112c59190615365565b91508160065410156112e7576001816112de9190615365565b92505050611316565b8080600101915050611287565b506001806004805490506113089190615399565b6113129190615365565b9150505b90565b6000600c838154811061132f5761132e615307565b5b9060005260206000209060030201600101541161134b57600080fd5b80600d60003373ffffffffffffffffffffffffffffffffffffffff1673ffffffffffffffffffffffffffffffffffffffff16815260200190815260200160002060008481526020019081526020016000205410156113de576040517f08c379a00000000000000000000000000000000000000000000000000000000081526004016113d590615419565b60405180910390fd5b602760149054906101000a900460ff161561142e576040517f08c379a0000000000000000000000000000000000000000000000000000000008152600401611425906154ab565b60405180910390fd5b61143733614274565b600081600c848154811061144e5761144d615307565b5b90600052602060002090600302016001015461146a91906154cb565b9050600082600c858154811061148357611482615307565b5b90600052602060002090600302016002015461149f91906154cb565b90506000601354826012546114b491906154cb565b6114be919061553c565b905081601360008282546114d29190615399565b9250508190555080601260008282546114eb9190615399565b9250508190555082601060008282546115049190615399565b9250508190555061151533826143a5565b83600d60003373ffffffffffffffffffffffffffffffffffffffff1673ffffffffffffffffffffffffffffffffffffffff168152602001908152602001600020600087815260200190815260200160002060008282546115759190615399565b9250508190555082601660003373ffffffffffffffffffffffffffffffffffffffff1673ffffffffffffffffffffffffffffffffffffffff16815260200190815260200160002060008282546115cb9190615399565b925050819055505050505050565b60135481565b60055481565b6000806014546127106115f891906154cb565b6011546012546116089190615365565b601154620f424061161991906154cb565b611623919061553c565b61162d9190615399565b9050600060145461271061164191906154cb565b6011546012546116519190615365565b601254620f424061166291906154cb565b61166c919061553c565b6116769190615365565b9050620f4240601054601660008773ffffffffffffffffffffffffffffffffffffffff1673ffffffffffffffffffffffffffffffffffffffff16815260200190815260200160002054836116ca91906154cb565b6116d4919061553c565b600f54601560008873ffffffffffffffffffffffffffffffffffffffff1673ffffffffffffffffffffffffffffffffffffffff168152602001908152602001600020548561172291906154cb565b61172c919061553c565b6117369190615365565b60295461174391906154cb565b61174d919061553c565b92505050919050565b61175e6144d7565b80600760006101000a81548160ff02191690831515021790555050565b6000602260003373ffffffffffffffffffffffffffffffffffffffff1673ffffffffffffffffffffffffffffffffffffffff1681526020019081526020016000205490506000602260003373ffffffffffffffffffffffffffffffffffffffff1673ffffffffffffffffffffffffffffffffffffffff1681526020019081526020016000208190555061180e33826143a5565b80602460003373ffffffffffffffffffffffffffffffffffffffff1673ffffffffffffffffffffffffffffffffffffffff168152602001908152602001600020600082825461185d9190615365565b925050819055506000602360003373ffffffffffffffffffffffffffffffffffffffff1673ffffffffffffffffffffffffffffffffffffffff1681526020019081526020016000205490506000602360003373ffffffffffffffffffffffffffffffffffffffff1673ffffffffffffffffffffffffffffffffffffffff1681526020019081526020016000208190555080602560003373ffffffffffffffffffffffffffffffffffffffff1673ffffffffffffffffffffffffffffffffffffffff168152602001908152602001600020600082825461193c9190615365565b925050819055503373ffffffffffffffffffffffffffffffffffffffff166108fc829081150290604051600060405180830381858888f19350505050158015611989573d6000803e3d6000fd5b503373ffffffffffffffffffffffffffffffffffffffff167f454211b099b54298804b6b35092d2a4bcbf8e5ea525a50b79b542ba2d4bc6a2482846040516119d2929190614ed7565b60405180910390a25050565b602760009054906101000a900473ffffffffffffffffffffffffffffffffffffffff1681565b60125481565b611a126144d7565b60046000611a209190614963565b60005b8151811015611acb5760046040518060400160405280848481518110611a4c57611a4b615307565b5b6020026020010151600001518152602001848481518110611a7057611a6f615307565b5b6020026020010151602001518152509080600181540180825580915050600190039060005260206000209060020201600090919091909150600082015181600001556020820151816001015550508080600101915050611a23565b5050565b60166020528060005260406000206000915090505481565b611aef6144d7565b80602760006101000a81548173ffffffffffffffffffffffffffffffffffffffff021916908373ffffffffffffffffffffffffffffffffffffffff16021790555050565b600f5481565b600c8181548110611b4957600080fd5b9060005260206000209060030201600091509050806000018054611b6c9061559c565b80601f0160208091040260200160405190810160405280929190818152602001828054611b989061559c565b8015611be55780601f10611bba57610100808354040283529160200191611be5565b820191906000526020600020905b815481529060010190602001808311611bc857829003601f168201915b5050505050908060010154908060020154905083565b60226020528060005260406000206000915090505481565b60096020528060005260406000206000915090505481565b60196020528060005260406000206000915090505481565b601b6020528060005260406000206000915090505481565b601c6020528060005260406000206000915090505481565b602660009054906101000a900460ff1681565b602760149054906101000a900460ff1681565b60115481565b601e6020528060005260406000206000915090505481565b611cbf6144d7565b80602660016101000a81548173ffffffffffffffffffffffffffffffffffffffff021916908373ffffffffffffffffffffffffffffffffffffffff16021790555050565b60285481565b606481565b600260009054906101000a900473ffffffffffffffffffffffffffffffffffffffff1681565b611d3c6144d7565b600160009054906101000a900473ffffffffffffffffffffffffffffffffffffffff1673ffffffffffffffffffffffffffffffffffffffff166108fc479081150290604051600060405180830381858888f19350505050158015611da4573d6000803e3d6000fd5b50565b60156020528060005260406000206000915090505481565b611dc76144d7565b611dd1600061455e565b565b60048181548110611de357600080fd5b90600052602060002090600202016000915090508060000154908060010154905082565b611e0f6144d7565b8015611e6e5782600c8581548110611e2a57611e29615307565b5b90600052602060002090600302016001018190555081600c8581548110611e5457611e53615307565b5b906000526020600020906003020160020181905550611ec3565b82600a8581548110611e8357611e82615307565b5b90600052602060002090600302016001018190555081600a8581548110611ead57611eac615307565b5b9060005260206000209060030201600201819055505b50505050565b60003411611f0c576040517f08c379a0000000000000000000000000000000000000000000000000000000008152600401611f0390615619565b60405180910390fd5b600760009054906101000a900460ff161580611fc05750602760009054906101000a900473ffffffffffffffffffffffffffffffffffffffff1673ffffffffffffffffffffffffffffffffffffffff16633af32abf336040518263ffffffff1660e01b8152600401611f7e919061518e565b602060405180830381865afa158015611f9b573d6000803e3d6000fd5b505050506040513d601f19601f82011682018060405250810190611fbf919061564e565b5b611fff576040517f08c379a0000000000000000000000000000000000000000000000000000000008152600401611ff6906156c7565b60405180910390fd5b6005544211612043576040517f08c379a000000000000000000000000000000000000000000000000000000000815260040161203a90615733565b60405180910390fd5b602760149054906101000a900460ff1615612093576040517f08c379a000000000000000000000000000000000000000000000000000000000815260040161208a906154ab565b60405180910390fd5b600061209e34614622565b9050600081116120e3576040517f08c379a00000000000000000000000000000000000000000000000000000000081526004016120da9061579f565b60405180910390fd5b6000601e60003373ffffffffffffffffffffffffffffffffffffffff1673ffffffffffffffffffffffffffffffffffffffff16815260200190815260200160002054036121d9576008339080600181540180825580915050600190039060005260206000200160009091909190916101000a81548173ffffffffffffffffffffffffffffffffffffffff021916908373ffffffffffffffffffffffffffffffffffffffff16021790555061219561127d565b601e60003373ffffffffffffffffffffffffffffffffffffffff1673ffffffffffffffffffffffffffffffffffffffff168152602001908152602001600020819055505b600073ffffffffffffffffffffffffffffffffffffffff168273ffffffffffffffffffffffffffffffffffffffff1603612211573391505b600061221c83613066565b905081600660008282546122309190615365565b925050819055506000600234612246919061553c565b9050600080600084156123545760646021548761226391906154cb565b61226d919061553c565b925060646020548761227f91906154cb565b612289919061553c565b90506064601f543461229b91906154cb565b6122a5919061553c565b915081602360008973ffffffffffffffffffffffffffffffffffffffff1673ffffffffffffffffffffffffffffffffffffffff16815260200190815260200160002060008282546122f69190615365565b9250508190555080602260008973ffffffffffffffffffffffffffffffffffffffff1673ffffffffffffffffffffffffffffffffffffffff168152602001908152602001600020600082825461234c9190615365565b925050819055505b600083876123629190615365565b905061236e33826143a5565b3373ffffffffffffffffffffffffffffffffffffffff16600073ffffffffffffffffffffffffffffffffffffffff167fc29b8032387f267ddc010037627574acbf3b1a65a6022ca8ba6c25f0ba85ee75898686896040516123d294939291906157bf565b60405180910390a3600083866123e89190615365565b346123f39190615399565b9050600160009054906101000a900473ffffffffffffffffffffffffffffffffffffffff1673ffffffffffffffffffffffffffffffffffffffff166108fc829081150290604051600060405180830381858888f1935050505015801561245d573d6000803e3d6000fd5b5034601760003373ffffffffffffffffffffffffffffffffffffffff1673ffffffffffffffffffffffffffffffffffffffff16815260200190815260200160002060008282546124ad9190615365565b9250508190555085600e60008282546124c69190615365565b92505081905550505050505050505050565b6124e06144d7565b8060058190555050565b60295481565b6124f86144d7565b801561257557600c6040518060600160405280868152602001858152602001848152509080600181540180825580915050600190039060005260206000209060030201600090919091909150600082015181600001908161255991906159a6565b50602082015181600101556040820151816002015550506125e8565b600a604051806060016040528086815260200185815260200184815250908060018154018082558091505060019003906000526020600020906003020160009091909190915060008201518160000190816125d091906159a6565b50602082015181600101556040820151816002015550505b50505050565b60606000600c8054905067ffffffffffffffff81111561261157612610614be2565b5b60405190808252806020026020018201604052801561263f5781602001602082028036833780820191505090505b50905060005b600c805490508110156126cf57600d60008573ffffffffffffffffffffffffffffffffffffffff1673ffffffffffffffffffffffffffffffffffffffff1681526020019081526020016000206000828152602001908152602001600020548282815181106126b6576126b5615307565b5b6020026020010181815250508080600101915050612645565b5080915050919050565b60606000600a8054905067ffffffffffffffff8111156126fc576126fb614be2565b5b60405190808252806020026020018201604052801561272a5781602001602082028036833780820191505090505b50905060005b600a805490508110156127ba57600b60008573ffffffffffffffffffffffffffffffffffffffff1673ffffffffffffffffffffffffffffffffffffffff1681526020019081526020016000206000828152602001908152602001600020548282815181106127a1576127a0615307565b5b6020026020010181815250508080600101915050612730565b5080915050919050565b60008060009054906101000a900473ffffffffffffffffffffffffffffffffffffffff16905090565b600760009054906101000a900460ff1681565b60176020528060005260406000206000915090505481565b600d602052816000526040600020602052806000526040600020600091509150505481565b60065481565b61284b6144d7565b8060148190555050565b600160009054906101000a900473ffffffffffffffffffffffffffffffffffffffff1681565b6128836144d7565b80600260006101000a81548173ffffffffffffffffffffffffffffffffffffffff021916908373ffffffffffffffffffffffffffffffffffffffff16021790555050565b60236020528060005260406000206000915090505481565b6128e76144d7565b6001602760146101000a81548160ff0219169083151502179055506000602881905550600e54602981905550565b600a818154811061292557600080fd5b90600052602060002090600302016000915090508060000180546129489061559c565b80601f01602080910402602001604051908101604052809291908181526020018280546129749061559c565b80156129c15780601f10612996576101008083540402835291602001916129c1565b820191906000526020600020905b8154815290600101906020018083116129a457829003601f168201915b5050505050908060010154908060020154905083565b600881815481106129e757600080fd5b906000526020600020016000915054906101000a900473ffffffffffffffffffffffffffffffffffffffff1681565b60246020528060005260406000206000915090505481565b602660019054906101000a900473ffffffffffffffffffffffffffffffffffffffff1681565b60145481565b612a626144d7565b602760149054906101000a900460ff16612ab1576040517f08c379a0000000000000000000000000000000000000000000000000000000008152600401612aa890615ac4565b60405180910390fd5b60006008805490506064602854612ac89190615365565b10612af55760088054905090506000602760146101000a81548160ff021916908315150217905550612b07565b6064602854612b049190615365565b90505b600060285490505b81811015612be557600060088281548110612b2d57612b2c615307565b5b9060005260206000200160009054906101000a900473ffffffffffffffffffffffffffffffffffffffff1690506000612b65826115e5565b905080600e6000828254612b799190615399565b9250508190555080601960008473ffffffffffffffffffffffffffffffffffffffff1673ffffffffffffffffffffffffffffffffffffffff1681526020019081526020016000206000828254612bcf9190615365565b9250508190555050508080600101915050612b0f565b508060288190555050565b60215481565b612bfe6144d7565b60008310158015612c10575060148311155b612c4f576040517f08c379a0000000000000000000000000000000000000000000000000000000008152600401612c4690615b30565b60405180910390fd5b82601f8190555060008210158015612c68575060148211155b612ca7576040517f08c379a0000000000000000000000000000000000000000000000000000000008152600401612c9e90615b30565b60405180910390fd5b8160208190555060008110158015612cc0575060148111155b612cff576040517f08c379a0000000000000000000000000000000000000000000000000000000008152600401612cf690615b30565b60405180910390fd5b80602181905550505050565b600b602052816000526040600020602052806000526040600020600091509150505481565b601d6020528060005260406000206000915090505481565b60105481565b612d566144d7565b600360009054906101000a900473ffffffffffffffffffffffffffffffffffffffff1673ffffffffffffffffffffffffffffffffffffffff166323b872dd600160009054906101000a900473ffffffffffffffffffffffffffffffffffffffff1684670de0b6b3a764000085612dcc91906154cb565b6040518463ffffffff1660e01b8152600401612dea93929190615b71565b6020604051808303816000875af1158015612e09573d6000803e3d6000fd5b505050506040513d601f19601f82011682018060405250810190612e2d919061564e565b5080600960008473ffffffffffffffffffffffffffffffffffffffff1673ffffffffffffffffffffffffffffffffffffffff1681526020019081526020016000206000828254612e7d9190615365565b925050819055505050565b60256020528060005260406000206000915090505481565b601f5481565b6000601960003373ffffffffffffffffffffffffffffffffffffffff1673ffffffffffffffffffffffffffffffffffffffff16815260200190815260200160002054905060008111612f2d576040517f08c379a0000000000000000000000000000000000000000000000000000000008152600401612f2490615bf4565b60405180910390fd5b6000601960003373ffffffffffffffffffffffffffffffffffffffff1673ffffffffffffffffffffffffffffffffffffffff1681526020019081526020016000208190555080601a60003373ffffffffffffffffffffffffffffffffffffffff1673ffffffffffffffffffffffffffffffffffffffff1681526020019081526020016000206000828254612fc19190615365565b925050819055503373ffffffffffffffffffffffffffffffffffffffff166108fc829081150290604051600060405180830381858888f1935050505015801561300e573d6000803e3d6000fd5b503373ffffffffffffffffffffffffffffffffffffffff167f7bcfb0598e7cd0b03e8472440b7e292b4767743ddeb0579a65be466b40c8b0f38260405161305591906149c7565b60405180910390a250565b600e5481565b6000602660009054906101000a900460ff161561317b57600073ffffffffffffffffffffffffffffffffffffffff16602660019054906101000a900473ffffffffffffffffffffffffffffffffffffffff1673ffffffffffffffffffffffffffffffffffffffff16141580156131745750602660019054906101000a900473ffffffffffffffffffffffffffffffffffffffff1673ffffffffffffffffffffffffffffffffffffffff16633af32abf836040518263ffffffff1660e01b8152600401613132919061518e565b602060405180830381865afa15801561314f573d6000803e3d6000fd5b505050506040513d601f19601f82011682018060405250810190613173919061564e565b5b9050613310565b600073ffffffffffffffffffffffffffffffffffffffff16602760009054906101000a900473ffffffffffffffffffffffffffffffffffffffff1673ffffffffffffffffffffffffffffffffffffffff16141580156132725750602760009054906101000a900473ffffffffffffffffffffffffffffffffffffffff1673ffffffffffffffffffffffffffffffffffffffff16633af32abf836040518263ffffffff1660e01b8152600401613230919061518e565b602060405180830381865afa15801561324d573d6000803e3d6000fd5b505050506040513d601f19601f82011682018060405250810190613271919061564e565b5b8061330d57506000601e60008473ffffffffffffffffffffffffffffffffffffffff1673ffffffffffffffffffffffffffffffffffffffff1681526020019081526020016000205411801561330c57506132ca61127d565b601e60008473ffffffffffffffffffffffffffffffffffffffff1673ffffffffffffffffffffffffffffffffffffffff16815260200190815260200160002054105b5b90505b919050565b61331d6144d7565b80602660006101000a81548160ff02191690831515021790555050565b6000600a83815481106133505761334f615307565b5b906000526020600020906003020160010154116133a2576040517f08c379a000000000000000000000000000000000000000000000000000000000815260040161339990615c60565b60405180910390fd5b602760149054906101000a900460ff16156133f2576040517f08c379a00000000000000000000000000000000000000000000000000000000081526004016133e9906154ab565b60405180910390fd5b600081600a848154811061340957613408615307565b5b90600052602060002090600302016002015461342591906154cb565b9050600082600a858154811061343e5761343d615307565b5b90600052602060002090600302016001015461345a91906154cb565b905061346533614274565b81601160008282546134779190615365565b9250508190555080600f60008282546134909190615365565b925050819055506134a133836147a7565b82600b60003373ffffffffffffffffffffffffffffffffffffffff1673ffffffffffffffffffffffffffffffffffffffff168152602001908152602001600020600086815260200190815260200160002060008282546135019190615365565b9250508190555080601560003373ffffffffffffffffffffffffffffffffffffffff1673ffffffffffffffffffffffffffffffffffffffff16815260200190815260200160002060008282546135579190615365565b9250508190555050505050565b60186020528060005260406000206000915090505481565b601a6020528060005260406000206000915090505481565b6000600a83815481106135aa576135a9615307565b5b906000526020600020906003020160010154116135c657600080fd5b80600b60003373ffffffffffffffffffffffffffffffffffffffff1673ffffffffffffffffffffffffffffffffffffffff1681526020019081526020016000206000848152602001908152602001600020541015613659576040517f08c379a000000000000000000000000000000000000000000000000000000000815260040161365090615ccc565b60405180910390fd5b602760149054906101000a900460ff16156136a9576040517f08c379a00000000000000000000000000000000000000000000000000000000081526004016136a0906154ab565b60405180910390fd5b600081600a84815481106136c0576136bf615307565b5b9060005260206000209060030201600201546136dc91906154cb565b9050600082600a85815481106136f5576136f4615307565b5b90600052602060002090600302016001015461371191906154cb565b905061371c33614274565b80600f600082825461372e9190615399565b9250508190555081601160008282546137479190615399565b9250508190555061375833836143a5565b82600b60003373ffffffffffffffffffffffffffffffffffffffff1673ffffffffffffffffffffffffffffffffffffffff168152602001908152602001600020600086815260200190815260200160002060008282546137b89190615399565b9250508190555080601560003373ffffffffffffffffffffffffffffffffffffffff1673ffffffffffffffffffffffffffffffffffffffff168152602001908152602001600020600082825461380e9190615399565b9250508190555050505050565b6138236144d7565b600073ffffffffffffffffffffffffffffffffffffffff168173ffffffffffffffffffffffffffffffffffffffff16036138955760006040517f1e4fbdf700000000000000000000000000000000000000000000000000000000815260040161388c919061518e565b60405180910390fd5b61389e8161455e565b50565b6000600c83815481106138b7576138b6615307565b5b906000526020600020906003020160010154116138d357600080fd5b602760149054906101000a900460ff1615613923576040517f08c379a000000000000000000000000000000000000000000000000000000000815260040161391a906154ab565b60405180910390fd5b61392c33614274565b600081600c848154811061394357613942615307565b5b90600052602060002090600302016001015461395f91906154cb565b9050600082600c858154811061397857613977615307565b5b90600052602060002090600302016002015461399491906154cb565b90506000601354826012546139a991906154cb565b6139b3919061553c565b905081601360008282546139c79190615365565b9250508190555080601260008282546139e09190615365565b9250508190555082601060008282546139f99190615365565b92505081905550613a0a33826147a7565b83600d60003373ffffffffffffffffffffffffffffffffffffffff1673ffffffffffffffffffffffffffffffffffffffff16815260200190815260200160002060008781526020019081526020016000206000828254613a6a9190615365565b9250508190555082601660003373ffffffffffffffffffffffffffffffffffffffff1673ffffffffffffffffffffffffffffffffffffffff1681526020019081526020016000206000828254613ac09190615365565b925050819055505050505050565b613ad66144d7565b670de0b6b3a764000081613aea91906154cb565b601860008473ffffffffffffffffffffffffffffffffffffffff1673ffffffffffffffffffffffffffffffffffffffff168152602001908152602001600020819055505050565b600360009054906101000a900473ffffffffffffffffffffffffffffffffffffffff1681565b60205481565b6000600260009054906101000a900473ffffffffffffffffffffffffffffffffffffffff1673ffffffffffffffffffffffffffffffffffffffff16633af32abf336040518263ffffffff1660e01b8152600401613bba919061518e565b602060405180830381865afa158015613bd7573d6000803e3d6000fd5b505050506040513d601f19601f82011682018060405250810190613bfb919061564e565b80613c385750613c096127c4565b73ffffffffffffffffffffffffffffffffffffffff163373ffffffffffffffffffffffffffffffffffffffff16145b613c77576040517f08c379a0000000000000000000000000000000000000000000000000000000008152600401613c6e90615d38565b60405180910390fd5b601b60008373ffffffffffffffffffffffffffffffffffffffff1673ffffffffffffffffffffffffffffffffffffffff1681526020019081526020016000205442613cc29190615399565b601660008473ffffffffffffffffffffffffffffffffffffffff1673ffffffffffffffffffffffffffffffffffffffff16815260200190815260200160002054613d0c91906154cb565b601c60008473ffffffffffffffffffffffffffffffffffffffff1673ffffffffffffffffffffffffffffffffffffffff1681526020019081526020016000206000828254613d5a9190615365565b9250508190555042601b60008473ffffffffffffffffffffffffffffffffffffffff1673ffffffffffffffffffffffffffffffffffffffff168152602001908152602001600020819055506000601d60008473ffffffffffffffffffffffffffffffffffffffff1673ffffffffffffffffffffffffffffffffffffffff16815260200190815260200160002054601c60008573ffffffffffffffffffffffffffffffffffffffff1673ffffffffffffffffffffffffffffffffffffffff16815260200190815260200160002054613e319190615399565b9050601c60008473ffffffffffffffffffffffffffffffffffffffff1673ffffffffffffffffffffffffffffffffffffffff16815260200190815260200160002054601d60008573ffffffffffffffffffffffffffffffffffffffff1673ffffffffffffffffffffffffffffffffffffffff168152602001908152602001600020819055508273ffffffffffffffffffffffffffffffffffffffff167f1e6f5eaef61555b8bf4c1ef79dd15630c9612b652f0c442b66151f134650742c82604051613efc91906149c7565b60405180910390a280915050919050565b600260009054906101000a900473ffffffffffffffffffffffffffffffffffffffff1673ffffffffffffffffffffffffffffffffffffffff16633af32abf336040518263ffffffff1660e01b8152600401613f68919061518e565b602060405180830381865afa158015613f85573d6000803e3d6000fd5b505050506040513d601f19601f82011682018060405250810190613fa9919061564e565b806140015750600160009054906101000a900473ffffffffffffffffffffffffffffffffffffffff1673ffffffffffffffffffffffffffffffffffffffff163373ffffffffffffffffffffffffffffffffffffffff16145b614040576040517f08c379a000000000000000000000000000000000000000000000000000000000815260040161403790615d38565b60405180910390fd5b6000600c838154811061405657614055615307565b5b9060005260206000209060030201600101541161407257600080fd5b602760149054906101000a900460ff16156140c2576040517f08c379a00000000000000000000000000000000000000000000000000000000081526004016140b9906154ab565b60405180910390fd5b6140cb83614274565b600081600c84815481106140e2576140e1615307565b5b9060005260206000209060030201600101546140fe91906154cb565b9050600082600c858154811061411757614116615307565b5b90600052602060002090600302016002015461413391906154cb565b905080601360008282546141479190615365565b9250508190555081601060008282546141609190615365565b9250508190555082600d60008773ffffffffffffffffffffffffffffffffffffffff1673ffffffffffffffffffffffffffffffffffffffff1681526020019081526020016000206000868152602001908152602001600020546141c39190615365565b600d60008773ffffffffffffffffffffffffffffffffffffffff1673ffffffffffffffffffffffffffffffffffffffff16815260200190815260200160002060008681526020019081526020016000208190555081601660008773ffffffffffffffffffffffffffffffffffffffff1673ffffffffffffffffffffffffffffffffffffffff16815260200190815260200160002060008282546142669190615365565b925050819055505050505050565b601b60008273ffffffffffffffffffffffffffffffffffffffff1673ffffffffffffffffffffffffffffffffffffffff16815260200190815260200160002054426142bf9190615399565b601660008373ffffffffffffffffffffffffffffffffffffffff1673ffffffffffffffffffffffffffffffffffffffff1681526020019081526020016000205461430991906154cb565b601c60008373ffffffffffffffffffffffffffffffffffffffff1673ffffffffffffffffffffffffffffffffffffffff16815260200190815260200160002060008282546143579190615365565b9250508190555042601b60008373ffffffffffffffffffffffffffffffffffffffff1673ffffffffffffffffffffffffffffffffffffffff1681526020019081526020016000208190555050565b600360009054906101000a900473ffffffffffffffffffffffffffffffffffffffff1673ffffffffffffffffffffffffffffffffffffffff166323b872dd600160009054906101000a900473ffffffffffffffffffffffffffffffffffffffff1684670de0b6b3a76400008561441b91906154cb565b6040518463ffffffff1660e01b815260040161443993929190615b71565b6020604051808303816000875af1158015614458573d6000803e3d6000fd5b505050506040513d601f19601f8201168201806040525081019061447c919061564e565b5080600960008473ffffffffffffffffffffffffffffffffffffffff1673ffffffffffffffffffffffffffffffffffffffff16815260200190815260200160002060008282546144cc9190615365565b925050819055505050565b6144df61495b565b73ffffffffffffffffffffffffffffffffffffffff166144fd6127c4565b73ffffffffffffffffffffffffffffffffffffffff161461455c5761452061495b565b6040517f118cdaa7000000000000000000000000000000000000000000000000000000008152600401614553919061518e565b60405180910390fd5b565b60008060009054906101000a900473ffffffffffffffffffffffffffffffffffffffff169050816000806101000a81548173ffffffffffffffffffffffffffffffffffffffff021916908373ffffffffffffffffffffffffffffffffffffffff1602179055508173ffffffffffffffffffffffffffffffffffffffff168173ffffffffffffffffffffffffffffffffffffffff167f8be0079c531659141344cd1fd0a4f28419497f9722a3daafe3b4186f6b6457e060405160405180910390a35050565b6000806000905060008390506000600654905060005b6004805490508110801561464c5750600083115b1561479b5760006004828154811061466757614666615307565b5b90600052602060002090600202016040518060400160405290816000820154815260200160018201548152505090506000805b8381116146e757600481815481106146b5576146b4615307565b5b906000526020600020906002020160000154826146d29190615365565b915080806146df90615d58565b91505061469a565b5060008482116146f8576000614705565b84826147049190615399565b5b90506000810361471757505050614788565b600083602001518261472991906154cb565b905080871061476157818861473e9190615365565b9750808761474c9190615399565b9650818661475a9190615365565b9550614783565b836020015187614771919061553c565b8861477c9190615365565b9750600096505b505050505b808061479390615d58565b915050614638565b50829350505050919050565b600360009054906101000a900473ffffffffffffffffffffffffffffffffffffffff1673ffffffffffffffffffffffffffffffffffffffff166323b872dd83600160009054906101000a900473ffffffffffffffffffffffffffffffffffffffff16670de0b6b3a76400008561481d91906154cb565b6040518463ffffffff1660e01b815260040161483b93929190615da0565b6020604051808303816000875af115801561485a573d6000803e3d6000fd5b505050506040513d601f19601f8201168201806040525081019061487e919061564e565b5080600960008473ffffffffffffffffffffffffffffffffffffffff1673ffffffffffffffffffffffffffffffffffffffff168152602001908152602001600020541015614901576040517f08c379a00000000000000000000000000000000000000000000000000000000081526004016148f890615e23565b60405180910390fd5b80600960008473ffffffffffffffffffffffffffffffffffffffff1673ffffffffffffffffffffffffffffffffffffffff16815260200190815260200160002060008282546149509190615399565b925050819055505050565b600033905090565b50805460008255600202906000526020600020908101906149849190614987565b50565b5b808211156149aa57600080820160009055600182016000905550600201614988565b5090565b6000819050919050565b6149c1816149ae565b82525050565b60006020820190506149dc60008301846149b8565b92915050565b6000604051905090565b600080fd5b600080fd5b6149ff816149ae565b8114614a0a57600080fd5b50565b600081359050614a1c816149f6565b92915050565b60008060408385031215614a3957614a386149ec565b5b6000614a4785828601614a0d565b9250506020614a5885828601614a0d565b9150509250929050565b600073ffffffffffffffffffffffffffffffffffffffff82169050919050565b6000614a8d82614a62565b9050919050565b614a9d81614a82565b8114614aa857600080fd5b50565b600081359050614aba81614a94565b92915050565b600060208284031215614ad657614ad56149ec565b5b6000614ae484828501614aab565b91505092915050565b60008115159050919050565b614b0281614aed565b8114614b0d57600080fd5b50565b600081359050614b1f81614af9565b92915050565b600060208284031215614b3b57614b3a6149ec565b5b6000614b4984828501614b10565b91505092915050565b6000819050919050565b6000614b77614b72614b6d84614a62565b614b52565b614a62565b9050919050565b6000614b8982614b5c565b9050919050565b6000614b9b82614b7e565b9050919050565b614bab81614b90565b82525050565b6000602082019050614bc66000830184614ba2565b92915050565b600080fd5b6000601f19601f8301169050919050565b7f4e487b7100000000000000000000000000000000000000000000000000000000600052604160045260246000fd5b614c1a82614bd1565b810181811067ffffffffffffffff82111715614c3957614c38614be2565b5b80604052505050565b6000614c4c6149e2565b9050614c588282614c11565b919050565b600067ffffffffffffffff821115614c7857614c77614be2565b5b602082029050602081019050919050565b600080fd5b600080fd5b600060408284031215614ca957614ca8614c8e565b5b614cb36040614c42565b90506000614cc384828501614a0d565b6000830152506020614cd784828501614a0d565b60208301525092915050565b6000614cf6614cf184614c5d565b614c42565b90508083825260208201905060408402830185811115614d1957614d18614c89565b5b835b81811015614d425780614d2e8882614c93565b845260208401935050604081019050614d1b565b5050509392505050565b600082601f830112614d6157614d60614bcc565b5b8135614d71848260208601614ce3565b91505092915050565b600060208284031215614d9057614d8f6149ec565b5b600082013567ffffffffffffffff811115614dae57614dad6149f1565b5b614dba84828501614d4c565b91505092915050565b600060208284031215614dd957614dd86149ec565b5b6000614de784828501614a0d565b91505092915050565b600081519050919050565b600082825260208201905092915050565b60005b83811015614e2a578082015181840152602081019050614e0f565b60008484015250505050565b6000614e4182614df0565b614e4b8185614dfb565b9350614e5b818560208601614e0c565b614e6481614bd1565b840191505092915050565b60006060820190508181036000830152614e898186614e36565b9050614e9860208301856149b8565b614ea560408301846149b8565b949350505050565b614eb681614aed565b82525050565b6000602082019050614ed16000830184614ead565b92915050565b6000604082019050614eec60008301856149b8565b614ef960208301846149b8565b9392505050565b60008060008060808587031215614f1a57614f196149ec565b5b6000614f2887828801614a0d565b9450506020614f3987828801614a0d565b9350506040614f4a87828801614a0d565b9250506060614f5b87828801614b10565b91505092959194509250565b600080fd5b600067ffffffffffffffff821115614f8757614f86614be2565b5b614f9082614bd1565b9050602081019050919050565b82818337600083830152505050565b6000614fbf614fba84614f6c565b614c42565b905082815260208101848484011115614fdb57614fda614f67565b5b614fe6848285614f9d565b509392505050565b600082601f83011261500357615002614bcc565b5b8135615013848260208601614fac565b91505092915050565b60008060008060808587031215615036576150356149ec565b5b600085013567ffffffffffffffff811115615054576150536149f1565b5b61506087828801614fee565b945050602061507187828801614a0d565b935050604061508287828801614a0d565b925050606061509387828801614b10565b91505092959194509250565b600081519050919050565b600082825260208201905092915050565b6000819050602082019050919050565b6150d4816149ae565b82525050565b60006150e683836150cb565b60208301905092915050565b6000602082019050919050565b600061510a8261509f565b61511481856150aa565b935061511f836150bb565b8060005b8381101561515057815161513788826150da565b9750615142836150f2565b925050600181019050615123565b5085935050505092915050565b6000602082019050818103600083015261517781846150ff565b905092915050565b61518881614a82565b82525050565b60006020820190506151a3600083018461517f565b92915050565b600080604083850312156151c0576151bf6149ec565b5b60006151ce85828601614aab565b92505060206151df85828601614a0d565b9150509250929050565b60006151f482614a62565b9050919050565b615204816151e9565b82525050565b600060208201905061521f60008301846151fb565b92915050565b60008060006060848603121561523e5761523d6149ec565b5b600061524c86828701614a0d565b935050602061525d86828701614a0d565b925050604061526e86828701614a0d565b9150509250925092565b600061528382614b7e565b9050919050565b61529381615278565b82525050565b60006020820190506152ae600083018461528a565b92915050565b6000806000606084860312156152cd576152cc6149ec565b5b60006152db86828701614aab565b93505060206152ec86828701614a0d565b92505060406152fd86828701614a0d565b9150509250925092565b7f4e487b7100000000000000000000000000000000000000000000000000000000600052603260045260246000fd5b7f4e487b7100000000000000000000000000000000000000000000000000000000600052601160045260246000fd5b6000615370826149ae565b915061537b836149ae565b925082820190508082111561539357615392615336565b5b92915050565b60006153a4826149ae565b91506153af836149ae565b92508282039050818111156153c7576153c6615336565b5b92915050565b7f4e6f7420656e6f756768206372797374616c7320746f2073656c6c0000000000600082015250565b6000615403601b83614dfb565b915061540e826153cd565b602082019050919050565b60006020820190508181036000830152615432816153f6565b9050919050565b7f52657761726420646973747269627574696f6e20696e2070726f67726573732e60008201527f20506c656173652074727920616761696e206c617465722e0000000000000000602082015250565b6000615495603883614dfb565b91506154a082615439565b604082019050919050565b600060208201905081810360008301526154c481615488565b9050919050565b60006154d6826149ae565b91506154e1836149ae565b92508282026154ef816149ae565b9150828204841483151761550657615505615336565b5b5092915050565b7f4e487b7100000000000000000000000000000000000000000000000000000000600052601260045260246000fd5b6000615547826149ae565b9150615552836149ae565b9250826155625761556161550d565b5b828204905092915050565b7f4e487b7100000000000000000000000000000000000000000000000000000000600052602260045260246000fd5b600060028204905060018216806155b457607f821691505b6020821081036155c7576155c661556d565b5b50919050565b7f4d7573742073656e642043524f20746f2062757920746f6b656e730000000000600082015250565b6000615603601b83614dfb565b915061560e826155cd565b602082019050919050565b60006020820190508181036000830152615632816155f6565b9050919050565b60008151905061564881614af9565b92915050565b600060208284031215615664576156636149ec565b5b600061567284828501615639565b91505092915050565b7f4e6f74206f6e207468652077686974656c697374210000000000000000000000600082015250565b60006156b1601583614dfb565b91506156bc8261567b565b602082019050919050565b600060208201905081810360008301526156e0816156a4565b9050919050565b7f53616c65206973206e6f7420796574206f70656e210000000000000000000000600082015250565b600061571d601583614dfb565b9150615728826156e7565b602082019050919050565b6000602082019050818103600083015261574c81615710565b9050919050565b7f4e6f7420656e6f7567682043524f20746f2062757920746f6b656e7300000000600082015250565b6000615789601c83614dfb565b915061579482615753565b602082019050919050565b600060208201905081810360008301526157b88161577c565b9050919050565b60006080820190506157d460008301876149b8565b6157e160208301866149b8565b6157ee60408301856149b8565b6157fb60608301846149b8565b95945050505050565b60008190508160005260206000209050919050565b60006020601f8301049050919050565b600082821b905092915050565b6000600883026158667fffffffffffffffffffffffffffffffffffffffffffffffffffffffffffffffff82615829565b6158708683615829565b95508019841693508086168417925050509392505050565b60006158a361589e615899846149ae565b614b52565b6149ae565b9050919050565b6000819050919050565b6158bd83615888565b6158d16158c9826158aa565b848454615836565b825550505050565b600090565b6158e66158d9565b6158f18184846158b4565b505050565b5b818110156159155761590a6000826158de565b6001810190506158f7565b5050565b601f82111561595a5761592b81615804565b61593484615819565b81016020851015615943578190505b61595761594f85615819565b8301826158f6565b50505b505050565b600082821c905092915050565b600061597d6000198460080261595f565b1980831691505092915050565b6000615996838361596c565b9150826002028217905092915050565b6159af82614df0565b67ffffffffffffffff8111156159c8576159c7614be2565b5b6159d2825461559c565b6159dd828285615919565b600060209050601f831160018114615a1057600084156159fe578287015190505b615a08858261598a565b865550615a70565b601f198416615a1e86615804565b60005b82811015615a4657848901518255600182019150602085019450602081019050615a21565b86831015615a635784890151615a5f601f89168261596c565b8355505b6001600288020188555050505b505050505050565b7f446973747269627574696f6e206e6f7420696e697469616c697a656421000000600082015250565b6000615aae601d83614dfb565b9150615ab982615a78565b602082019050919050565b60006020820190508181036000830152615add81615aa1565b9050919050565b7f56616c7565206d757374206265206265747765656e203020616e642032300000600082015250565b6000615b1a601e83614dfb565b9150615b2582615ae4565b602082019050919050565b60006020820190508181036000830152615b4981615b0d565b9050919050565b6000615b5b82614b7e565b9050919050565b615b6b81615b50565b82525050565b6000606082019050615b866000830186615b62565b615b93602083018561517f565b615ba060408301846149b8565b949350505050565b7f4e6f2043524f206f776564000000000000000000000000000000000000000000600082015250565b6000615bde600b83614dfb565b9150615be982615ba8565b602082019050919050565b60006020820190508181036000830152615c0d81615bd1565b9050919050565b7f47656d207479706520646f6573206e6f74206578697374000000000000000000600082015250565b6000615c4a601783614dfb565b9150615c5582615c14565b602082019050919050565b60006020820190508181036000830152615c7981615c3d565b9050919050565b7f4e6f7420656e6f7567682067656d7320746f2073656c6c000000000000000000600082015250565b6000615cb6601783614dfb565b9150615cc182615c80565b602082019050919050565b60006020820190508181036000830152615ce581615ca9565b9050919050565b7f43616c6c6572206973206e6f7420616e2061646d696e00000000000000000000600082015250565b6000615d22601683614dfb565b9150615d2d82615cec565b602082019050919050565b60006020820190508181036000830152615d5181615d15565b9050919050565b6000615d63826149ae565b91507fffffffffffffffffffffffffffffffffffffffffffffffffffffffffffffffff8203615d9557615d94615336565b5b600182019050919050565b6000606082019050615db5600083018661517f565b615dc26020830185615b62565b615dcf60408301846149b8565b949350505050565b7f4e6f7420656e6f756768207370656e6461626c6520746f6b656e2e0000000000600082015250565b6000615e0d601b83614dfb565b9150615e1882615dd7565b602082019050919050565b60006020820190508181036000830152615e3c81615e00565b905091905056fea264697066735822122078108b733b69be26a4a62bc1aa329b3965e816b072ddd2c9d5248621c6bd035364736f6c634300081c0033","opcodes":"PUSH1 0x80 PUSH1 0x40 MSTORE PUSH1 0x0 PUSH1 0xE SSTORE PUSH1 0x1 PUSH1 0xF SSTORE PUSH1 0x1 PUSH1 0x10 SSTORE PUSH1 0x1 PUSH1 0x11 SSTORE PUSH1 0x1 PUSH1 0x12 SSTORE PUSH1 0x1 PUSH1 0x13 SSTORE PUSH1 0x0 PUSH1 0x14 SSTORE PUSH1 0xA PUSH1 0x1F SSTORE PUSH1 0xA PUSH1 0x20 SSTORE PUSH1 0xF PUSH1 0x21 SSTORE PUSH1 0x0 PUSH1 0x26 PUSH1 0x0 PUSH2 0x100 EXP DUP2 SLOAD DUP2 PUSH1 0xFF MUL NOT AND SWAP1 DUP4 ISZERO ISZERO MUL OR SWAP1 SSTORE POP PUSH1 0x0 PUSH1 0x27 PUSH1 0x14 PUSH2 0x100 EXP DUP2 SLOAD DUP2 PUSH1 0xFF MUL NOT AND SWAP1 DUP4 ISZERO ISZERO MUL OR SWAP1 SSTORE POP PUSH1 0x0 PUSH1 0x28 SSTORE CALLVALUE DUP1 ISZERO PUSH2 0x7D JUMPI PUSH1 0x0 DUP1 REVERT JUMPDEST POP PUSH1 0x40 MLOAD PUSH2 0x6202 CODESIZE SUB DUP1 PUSH2 0x6202 DUP4 CODECOPY DUP2 DUP2 ADD PUSH1 0x40 MSTORE DUP2 ADD SWAP1 PUSH2 0x9F SWAP2 SWAP1 PUSH2 0x310 JUMP JUMPDEST DUP2 PUSH1 0x0 PUSH20 0xFFFFFFFFFFFFFFFFFFFFFFFFFFFFFFFFFFFFFFFF AND DUP2 PUSH20 0xFFFFFFFFFFFFFFFFFFFFFFFFFFFFFFFFFFFFFFFF AND SUB PUSH2 0x112 JUMPI PUSH1 0x0 PUSH1 0x40 MLOAD PUSH32 0x1E4FBDF700000000000000000000000000000000000000000000000000000000 DUP2 MSTORE PUSH1 0x4 ADD PUSH2 0x109 SWAP2 SWAP1 PUSH2 0x35F JUMP JUMPDEST PUSH1 0x40 MLOAD DUP1 SWAP2 SUB SWAP1 REVERT JUMPDEST PUSH2 0x121 DUP2 PUSH2 0x1AB PUSH1 0x20 SHL PUSH1 0x20 SHR JUMP JUMPDEST POP DUP2 PUSH1 0x1 PUSH1 0x0 PUSH2 0x100 EXP DUP2 SLOAD DUP2 PUSH20 0xFFFFFFFFFFFFFFFFFFFFFFFFFFFFFFFFFFFFFFFF MUL NOT AND SWAP1 DUP4 PUSH20 0xFFFFFFFFFFFFFFFFFFFFFFFFFFFFFFFFFFFFFFFF AND MUL OR SWAP1 SSTORE POP DUP1 PUSH1 0x3 PUSH1 0x0 PUSH2 0x100 EXP DUP2 SLOAD DUP2 PUSH20 0xFFFFFFFFFFFFFFFFFFFFFFFFFFFFFFFFFFFFFFFF MUL NOT AND SWAP1 DUP4 PUSH20 0xFFFFFFFFFFFFFFFFFFFFFFFFFFFFFFFFFFFFFFFF AND MUL OR SWAP1 SSTORE POP POP POP PUSH2 0x37A JUMP JUMPDEST PUSH1 0x0 DUP1 PUSH1 0x0 SWAP1 SLOAD SWAP1 PUSH2 0x100 EXP SWAP1 DIV PUSH20 0xFFFFFFFFFFFFFFFFFFFFFFFFFFFFFFFFFFFFFFFF AND SWAP1 POP DUP2 PUSH1 0x0 DUP1 PUSH2 0x100 EXP DUP2 SLOAD DUP2 PUSH20 0xFFFFFFFFFFFFFFFFFFFFFFFFFFFFFFFFFFFFFFFF MUL NOT AND SWAP1 DUP4 PUSH20 0xFFFFFFFFFFFFFFFFFFFFFFFFFFFFFFFFFFFFFFFF AND MUL OR SWAP1 SSTORE POP DUP2 PUSH20 0xFFFFFFFFFFFFFFFFFFFFFFFFFFFFFFFFFFFFFFFF AND DUP2 PUSH20 0xFFFFFFFFFFFFFFFFFFFFFFFFFFFFFFFFFFFFFFFF AND PUSH32 0x8BE0079C531659141344CD1FD0A4F28419497F9722A3DAAFE3B4186F6B6457E0 PUSH1 0x40 MLOAD PUSH1 0x40 MLOAD DUP1 SWAP2 SUB SWAP1 LOG3 POP POP JUMP JUMPDEST PUSH1 0x0 DUP1 REVERT JUMPDEST PUSH1 0x0 PUSH20 0xFFFFFFFFFFFFFFFFFFFFFFFFFFFFFFFFFFFFFFFF DUP3 AND SWAP1 POP SWAP2 SWAP1 POP JUMP JUMPDEST PUSH1 0x0 PUSH2 0x29F DUP3 PUSH2 0x274 JUMP JUMPDEST SWAP1 POP SWAP2 SWAP1 POP JUMP JUMPDEST PUSH2 0x2AF DUP2 PUSH2 0x294 JUMP JUMPDEST DUP2 EQ PUSH2 0x2BA JUMPI PUSH1 0x0 DUP1 REVERT JUMPDEST POP JUMP JUMPDEST PUSH1 0x0 DUP2 MLOAD SWAP1 POP PUSH2 0x2CC DUP2 PUSH2 0x2A6 JUMP JUMPDEST SWAP3 SWAP2 POP POP JUMP JUMPDEST PUSH1 0x0 PUSH2 0x2DD DUP3 PUSH2 0x274 JUMP JUMPDEST SWAP1 POP SWAP2 SWAP1 POP JUMP JUMPDEST PUSH2 0x2ED DUP2 PUSH2 0x2D2 JUMP JUMPDEST DUP2 EQ PUSH2 0x2F8 JUMPI PUSH1 0x0 DUP1 REVERT JUMPDEST POP JUMP JUMPDEST PUSH1 0x0 DUP2 MLOAD SWAP1 POP PUSH2 0x30A DUP2 PUSH2 0x2E4 JUMP JUMPDEST SWAP3 SWAP2 POP POP JUMP JUMPDEST PUSH1 0x0 DUP1 PUSH1 0x40 DUP4 DUP6 SUB SLT ISZERO PUSH2 0x327 JUMPI PUSH2 0x326 PUSH2 0x26F JUMP JUMPDEST JUMPDEST PUSH1 0x0 PUSH2 0x335 DUP6 DUP3 DUP7 ADD PUSH2 0x2BD JUMP JUMPDEST SWAP3 POP POP PUSH1 0x20 PUSH2 0x346 DUP6 DUP3 DUP7 ADD PUSH2 0x2FB JUMP JUMPDEST SWAP2 POP POP SWAP3 POP SWAP3 SWAP1 POP JUMP JUMPDEST PUSH2 0x359 DUP2 PUSH2 0x2D2 JUMP JUMPDEST DUP3 MSTORE POP POP JUMP JUMPDEST PUSH1 0x0 PUSH1 0x20 DUP3 ADD SWAP1 POP PUSH2 0x374 PUSH1 0x0 DUP4 ADD DUP5 PUSH2 0x350 JUMP JUMPDEST SWAP3 SWAP2 POP POP JUMP JUMPDEST PUSH2 0x5E79 DUP1 PUSH2 0x389 PUSH1 0x0 CODECOPY PUSH1 0x0 RETURN INVALID PUSH1 0x80 PUSH1 0x40 MSTORE PUSH1 0x4 CALLDATASIZE LT PUSH2 0x456 JUMPI PUSH1 0x0 CALLDATALOAD PUSH1 0xE0 SHR DUP1 PUSH4 0x8DA5CB5B GT PUSH2 0x23F JUMPI DUP1 PUSH4 0xC7A18347 GT PUSH2 0x139 JUMPI DUP1 PUSH4 0xEF49968A GT PUSH2 0xB6 JUMPI DUP1 PUSH4 0xFB0FC076 GT PUSH2 0x7A JUMPI DUP1 PUSH4 0xFB0FC076 EQ PUSH2 0x1198 JUMPI DUP1 PUSH4 0xFC0C546A EQ PUSH2 0x11C1 JUMPI DUP1 PUSH4 0xFCB966D7 EQ PUSH2 0x11EC JUMPI DUP1 PUSH4 0xFD239FD9 EQ PUSH2 0x1217 JUMPI DUP1 PUSH4 0xFF5133CD EQ PUSH2 0x1254 JUMPI PUSH2 0x45D JUMP JUMPDEST DUP1 PUSH4 0xEF49968A EQ PUSH2 0x10A3 JUMPI DUP1 PUSH4 0xEF5D9AE8 EQ PUSH2 0x10E0 JUMPI DUP1 PUSH4 0xF226DE97 EQ PUSH2 0x111D JUMPI DUP1 PUSH4 0xF2FDE38B EQ PUSH2 0x1146 JUMPI DUP1 PUSH4 0xF9D70200 EQ PUSH2 0x116F JUMPI PUSH2 0x45D JUMP JUMPDEST DUP1 PUSH4 0xD9CEAB13 GT PUSH2 0xFD JUMPI DUP1 PUSH4 0xD9CEAB13 EQ PUSH2 0xFD2 JUMPI DUP1 PUSH4 0xDC0C6A2A EQ PUSH2 0xFE9 JUMPI DUP1 PUSH4 0xDE473F8D EQ PUSH2 0x1014 JUMPI DUP1 PUSH4 0xDF13C9CA EQ PUSH2 0x1051 JUMPI DUP1 PUSH4 0xE1DC75D2 EQ PUSH2 0x107A JUMPI PUSH2 0x45D JUMP JUMPDEST DUP1 PUSH4 0xC7A18347 EQ PUSH2 0xED9 JUMPI DUP1 PUSH4 0xC8DA5EF5 EQ PUSH2 0xF16 JUMPI DUP1 PUSH4 0xCE54D6E1 EQ PUSH2 0xF41 JUMPI DUP1 PUSH4 0xD4A444B4 EQ PUSH2 0xF6A JUMPI DUP1 PUSH4 0xD7E14E13 EQ PUSH2 0xFA7 JUMPI PUSH2 0x45D JUMP JUMPDEST DUP1 PUSH4 0x9C20097A GT PUSH2 0x1C7 JUMPI DUP1 PUSH4 0xB9E66A79 GT PUSH2 0x18B JUMPI DUP1 PUSH4 0xB9E66A79 EQ PUSH2 0xE06 JUMPI DUP1 PUSH4 0xBA51CF07 EQ PUSH2 0xE31 JUMPI DUP1 PUSH4 0xBBAA1177 EQ PUSH2 0xE48 JUMPI DUP1 PUSH4 0xBC3DE749 EQ PUSH2 0xE73 JUMPI DUP1 PUSH4 0xC70E12CB EQ PUSH2 0xE9C JUMPI PUSH2 0x45D JUMP JUMPDEST DUP1 PUSH4 0x9C20097A EQ PUSH2 0xD0B JUMPI DUP1 PUSH4 0xA1F0406D EQ PUSH2 0xD22 JUMPI DUP1 PUSH4 0xA2BDEDF4 EQ PUSH2 0xD61 JUMPI DUP1 PUSH4 0xA54DFAAD EQ PUSH2 0xD9E JUMPI DUP1 PUSH4 0xAF28728C EQ PUSH2 0xDDB JUMPI PUSH2 0x45D JUMP JUMPDEST DUP1 PUSH4 0x9106D7BA GT PUSH2 0x20E JUMPI DUP1 PUSH4 0x9106D7BA EQ PUSH2 0xC26 JUMPI DUP1 PUSH4 0x91986316 EQ PUSH2 0xC51 JUMPI DUP1 PUSH4 0x9335DCB7 EQ PUSH2 0xC7A JUMPI DUP1 PUSH4 0x93DBC757 EQ PUSH2 0xCA5 JUMPI DUP1 PUSH4 0x95AE8478 EQ PUSH2 0xCCE JUMPI PUSH2 0x45D JUMP JUMPDEST DUP1 PUSH4 0x8DA5CB5B EQ PUSH2 0xB56 JUMPI DUP1 PUSH4 0x8E84A0D8 EQ PUSH2 0xB81 JUMPI DUP1 PUSH4 0x90838E09 EQ PUSH2 0xBAC JUMPI DUP1 PUSH4 0x90C757EB EQ PUSH2 0xBE9 JUMPI PUSH2 0x45D JUMP JUMPDEST DUP1 PUSH4 0x4ED9B7F6 GT PUSH2 0x350 JUMPI DUP1 PUSH4 0x6DE62EA7 GT PUSH2 0x2D8 JUMPI DUP1 PUSH4 0x82D95DF5 GT PUSH2 0x29C JUMPI DUP1 PUSH4 0x82D95DF5 EQ PUSH2 0xA5F JUMPI DUP1 PUSH4 0x868B91AC EQ PUSH2 0xA88 JUMPI DUP1 PUSH4 0x869C865E EQ PUSH2 0xAB3 JUMPI DUP1 PUSH4 0x876CF0EF EQ PUSH2 0xADC JUMPI DUP1 PUSH4 0x88185E03 EQ PUSH2 0xB19 JUMPI PUSH2 0x45D JUMP JUMPDEST DUP1 PUSH4 0x6DE62EA7 EQ PUSH2 0x988 JUMPI DUP1 PUSH4 0x715018A6 EQ PUSH2 0x9C5 JUMPI DUP1 PUSH4 0x7217E0B9 EQ PUSH2 0x9DC JUMPI DUP1 PUSH4 0x7D848DB2 EQ PUSH2 0xA1A JUMPI DUP1 PUSH4 0x7E72FB52 EQ PUSH2 0xA43 JUMPI PUSH2 0x45D JUMP JUMPDEST DUP1 PUSH4 0x6143440C GT PUSH2 0x31F JUMPI DUP1 PUSH4 0x6143440C EQ PUSH2 0x8C7 JUMPI DUP1 PUSH4 0x6182A57D EQ PUSH2 0x8F0 JUMPI DUP1 PUSH4 0x62476BED EQ PUSH2 0x91B JUMPI DUP1 PUSH4 0x66D74C80 EQ PUSH2 0x946 JUMPI DUP1 PUSH4 0x6B9F96EA EQ PUSH2 0x971 JUMPI PUSH2 0x45D JUMP JUMPDEST DUP1 PUSH4 0x4ED9B7F6 EQ PUSH2 0x809 JUMPI DUP1 PUSH4 0x50614C56 EQ PUSH2 0x834 JUMPI DUP1 PUSH4 0x50A3EAF0 EQ PUSH2 0x85F JUMPI DUP1 PUSH4 0x51484A19 EQ PUSH2 0x88A JUMPI PUSH2 0x45D JUMP JUMPDEST DUP1 PUSH4 0x21622C63 GT PUSH2 0x3DE JUMPI DUP1 PUSH4 0x33298463 GT PUSH2 0x3A2 JUMPI DUP1 PUSH4 0x33298463 EQ PUSH2 0x6D8 JUMPI DUP1 PUSH4 0x376F9671 EQ PUSH2 0x715 JUMPI DUP1 PUSH4 0x47315EC4 EQ PUSH2 0x752 JUMPI DUP1 PUSH4 0x4A5F58C7 EQ PUSH2 0x78F JUMPI DUP1 PUSH4 0x4E358662 EQ PUSH2 0x7CC JUMPI PUSH2 0x45D JUMP JUMPDEST DUP1 PUSH4 0x21622C63 EQ PUSH2 0x5DF JUMPI DUP1 PUSH4 0x23ADA717 EQ PUSH2 0x608 JUMPI DUP1 PUSH4 0x29E0F88D EQ PUSH2 0x645 JUMPI DUP1 PUSH4 0x2B4C73E5 EQ PUSH2 0x66E JUMPI DUP1 PUSH4 0x31B3AB3F EQ PUSH2 0x699 JUMPI PUSH2 0x45D JUMP JUMPDEST DUP1 PUSH4 0x109D75D5 GT PUSH2 0x425 JUMPI DUP1 PUSH4 0x109D75D5 EQ PUSH2 0x50C JUMPI DUP1 PUSH4 0x1DD02B4B EQ PUSH2 0x549 JUMPI DUP1 PUSH4 0x1E375AB9 EQ PUSH2 0x572 JUMPI DUP1 PUSH4 0x1FF9E2B2 EQ PUSH2 0x589 JUMPI DUP1 PUSH4 0x206A5DBC EQ PUSH2 0x5B4 JUMPI PUSH2 0x45D JUMP JUMPDEST DUP1 PUSH4 0x55AD42E EQ PUSH2 0x462 JUMPI DUP1 PUSH4 0x8D317DD EQ PUSH2 0x48D JUMPI DUP1 PUSH4 0xAE19BA8 EQ PUSH2 0x4B6 JUMPI DUP1 PUSH4 0xB97BC86 EQ PUSH2 0x4E1 JUMPI PUSH2 0x45D JUMP JUMPDEST CALLDATASIZE PUSH2 0x45D JUMPI STOP JUMPDEST PUSH1 0x0 DUP1 REVERT JUMPDEST CALLVALUE DUP1 ISZERO PUSH2 0x46E JUMPI PUSH1 0x0 DUP1 REVERT JUMPDEST POP PUSH2 0x477 PUSH2 0x127D JUMP JUMPDEST PUSH1 0x40 MLOAD PUSH2 0x484 SWAP2 SWAP1 PUSH2 0x49C7 JUMP JUMPDEST PUSH1 0x40 MLOAD DUP1 SWAP2 SUB SWAP1 RETURN JUMPDEST CALLVALUE DUP1 ISZERO PUSH2 0x499 JUMPI PUSH1 0x0 DUP1 REVERT JUMPDEST POP PUSH2 0x4B4 PUSH1 0x4 DUP1 CALLDATASIZE SUB DUP2 ADD SWAP1 PUSH2 0x4AF SWAP2 SWAP1 PUSH2 0x4A22 JUMP JUMPDEST PUSH2 0x1319 JUMP JUMPDEST STOP JUMPDEST CALLVALUE DUP1 ISZERO PUSH2 0x4C2 JUMPI PUSH1 0x0 DUP1 REVERT JUMPDEST POP PUSH2 0x4CB PUSH2 0x15D9 JUMP JUMPDEST PUSH1 0x40 MLOAD PUSH2 0x4D8 SWAP2 SWAP1 PUSH2 0x49C7 JUMP JUMPDEST PUSH1 0x40 MLOAD DUP1 SWAP2 SUB SWAP1 RETURN JUMPDEST CALLVALUE DUP1 ISZERO PUSH2 0x4ED JUMPI PUSH1 0x0 DUP1 REVERT JUMPDEST POP PUSH2 0x4F6 PUSH2 0x15DF JUMP JUMPDEST PUSH1 0x40 MLOAD PUSH2 0x503 SWAP2 SWAP1 PUSH2 0x49C7 JUMP JUMPDEST PUSH1 0x40 MLOAD DUP1 SWAP2 SUB SWAP1 RETURN JUMPDEST CALLVALUE DUP1 ISZERO PUSH2 0x518 JUMPI PUSH1 0x0 DUP1 REVERT JUMPDEST POP PUSH2 0x533 PUSH1 0x4 DUP1 CALLDATASIZE SUB DUP2 ADD SWAP1 PUSH2 0x52E SWAP2 SWAP1 PUSH2 0x4AC0 JUMP JUMPDEST PUSH2 0x15E5 JUMP JUMPDEST PUSH1 0x40 MLOAD PUSH2 0x540 SWAP2 SWAP1 PUSH2 0x49C7 JUMP JUMPDEST PUSH1 0x40 MLOAD DUP1 SWAP2 SUB SWAP1 RETURN JUMPDEST CALLVALUE DUP1 ISZERO PUSH2 0x555 JUMPI PUSH1 0x0 DUP1 REVERT JUMPDEST POP PUSH2 0x570 PUSH1 0x4 DUP1 CALLDATASIZE SUB DUP2 ADD SWAP1 PUSH2 0x56B SWAP2 SWAP1 PUSH2 0x4B25 JUMP JUMPDEST PUSH2 0x1756 JUMP JUMPDEST STOP JUMPDEST CALLVALUE DUP1 ISZERO PUSH2 0x57E JUMPI PUSH1 0x0 DUP1 REVERT JUMPDEST POP PUSH2 0x587 PUSH2 0x177B JUMP JUMPDEST STOP JUMPDEST CALLVALUE DUP1 ISZERO PUSH2 0x595 JUMPI PUSH1 0x0 DUP1 REVERT JUMPDEST POP PUSH2 0x59E PUSH2 0x19DE JUMP JUMPDEST PUSH1 0x40 MLOAD PUSH2 0x5AB SWAP2 SWAP1 PUSH2 0x4BB1 JUMP JUMPDEST PUSH1 0x40 MLOAD DUP1 SWAP2 SUB SWAP1 RETURN JUMPDEST CALLVALUE DUP1 ISZERO PUSH2 0x5C0 JUMPI PUSH1 0x0 DUP1 REVERT JUMPDEST POP PUSH2 0x5C9 PUSH2 0x1A04 JUMP JUMPDEST PUSH1 0x40 MLOAD PUSH2 0x5D6 SWAP2 SWAP1 PUSH2 0x49C7 JUMP JUMPDEST PUSH1 0x40 MLOAD DUP1 SWAP2 SUB SWAP1 RETURN JUMPDEST CALLVALUE DUP1 ISZERO PUSH2 0x5EB JUMPI PUSH1 0x0 DUP1 REVERT JUMPDEST POP PUSH2 0x606 PUSH1 0x4 DUP1 CALLDATASIZE SUB DUP2 ADD SWAP1 PUSH2 0x601 SWAP2 SWAP1 PUSH2 0x4D7A JUMP JUMPDEST PUSH2 0x1A0A JUMP JUMPDEST STOP JUMPDEST CALLVALUE DUP1 ISZERO PUSH2 0x614 JUMPI PUSH1 0x0 DUP1 REVERT JUMPDEST POP PUSH2 0x62F PUSH1 0x4 DUP1 CALLDATASIZE SUB DUP2 ADD SWAP1 PUSH2 0x62A SWAP2 SWAP1 PUSH2 0x4AC0 JUMP JUMPDEST PUSH2 0x1ACF JUMP JUMPDEST PUSH1 0x40 MLOAD PUSH2 0x63C SWAP2 SWAP1 PUSH2 0x49C7 JUMP JUMPDEST PUSH1 0x40 MLOAD DUP1 SWAP2 SUB SWAP1 RETURN JUMPDEST CALLVALUE DUP1 ISZERO PUSH2 0x651 JUMPI PUSH1 0x0 DUP1 REVERT JUMPDEST POP PUSH2 0x66C PUSH1 0x4 DUP1 CALLDATASIZE SUB DUP2 ADD SWAP1 PUSH2 0x667 SWAP2 SWAP1 PUSH2 0x4AC0 JUMP JUMPDEST PUSH2 0x1AE7 JUMP JUMPDEST STOP JUMPDEST CALLVALUE DUP1 ISZERO PUSH2 0x67A JUMPI PUSH1 0x0 DUP1 REVERT JUMPDEST POP PUSH2 0x683 PUSH2 0x1B33 JUMP JUMPDEST PUSH1 0x40 MLOAD PUSH2 0x690 SWAP2 SWAP1 PUSH2 0x49C7 JUMP JUMPDEST PUSH1 0x40 MLOAD DUP1 SWAP2 SUB SWAP1 RETURN JUMPDEST CALLVALUE DUP1 ISZERO PUSH2 0x6A5 JUMPI PUSH1 0x0 DUP1 REVERT JUMPDEST POP PUSH2 0x6C0 PUSH1 0x4 DUP1 CALLDATASIZE SUB DUP2 ADD SWAP1 PUSH2 0x6BB SWAP2 SWAP1 PUSH2 0x4DC3 JUMP JUMPDEST PUSH2 0x1B39 JUMP JUMPDEST PUSH1 0x40 MLOAD PUSH2 0x6CF SWAP4 SWAP3 SWAP2 SWAP1 PUSH2 0x4E6F JUMP JUMPDEST PUSH1 0x40 MLOAD DUP1 SWAP2 SUB SWAP1 RETURN JUMPDEST CALLVALUE DUP1 ISZERO PUSH2 0x6E4 JUMPI PUSH1 0x0 DUP1 REVERT JUMPDEST POP PUSH2 0x6FF PUSH1 0x4 DUP1 CALLDATASIZE SUB DUP2 ADD SWAP1 PUSH2 0x6FA SWAP2 SWAP1 PUSH2 0x4AC0 JUMP JUMPDEST PUSH2 0x1BFB JUMP JUMPDEST PUSH1 0x40 MLOAD PUSH2 0x70C SWAP2 SWAP1 PUSH2 0x49C7 JUMP JUMPDEST PUSH1 0x40 MLOAD DUP1 SWAP2 SUB SWAP1 RETURN JUMPDEST CALLVALUE DUP1 ISZERO PUSH2 0x721 JUMPI PUSH1 0x0 DUP1 REVERT JUMPDEST POP PUSH2 0x73C PUSH1 0x4 DUP1 CALLDATASIZE SUB DUP2 ADD SWAP1 PUSH2 0x737 SWAP2 SWAP1 PUSH2 0x4AC0 JUMP JUMPDEST PUSH2 0x1C13 JUMP JUMPDEST PUSH1 0x40 MLOAD PUSH2 0x749 SWAP2 SWAP1 PUSH2 0x49C7 JUMP JUMPDEST PUSH1 0x40 MLOAD DUP1 SWAP2 SUB SWAP1 RETURN JUMPDEST CALLVALUE DUP1 ISZERO PUSH2 0x75E JUMPI PUSH1 0x0 DUP1 REVERT JUMPDEST POP PUSH2 0x779 PUSH1 0x4 DUP1 CALLDATASIZE SUB DUP2 ADD SWAP1 PUSH2 0x774 SWAP2 SWAP1 PUSH2 0x4AC0 JUMP JUMPDEST PUSH2 0x1C2B JUMP JUMPDEST PUSH1 0x40 MLOAD PUSH2 0x786 SWAP2 SWAP1 PUSH2 0x49C7 JUMP JUMPDEST PUSH1 0x40 MLOAD DUP1 SWAP2 SUB SWAP1 RETURN JUMPDEST CALLVALUE DUP1 ISZERO PUSH2 0x79B JUMPI PUSH1 0x0 DUP1 REVERT JUMPDEST POP PUSH2 0x7B6 PUSH1 0x4 DUP1 CALLDATASIZE SUB DUP2 ADD SWAP1 PUSH2 0x7B1 SWAP2 SWAP1 PUSH2 0x4AC0 JUMP JUMPDEST PUSH2 0x1C43 JUMP JUMPDEST PUSH1 0x40 MLOAD PUSH2 0x7C3 SWAP2 SWAP1 PUSH2 0x49C7 JUMP JUMPDEST PUSH1 0x40 MLOAD DUP1 SWAP2 SUB SWAP1 RETURN JUMPDEST CALLVALUE DUP1 ISZERO PUSH2 0x7D8 JUMPI PUSH1 0x0 DUP1 REVERT JUMPDEST POP PUSH2 0x7F3 PUSH1 0x4 DUP1 CALLDATASIZE SUB DUP2 ADD SWAP1 PUSH2 0x7EE SWAP2 SWAP1 PUSH2 0x4AC0 JUMP JUMPDEST PUSH2 0x1C5B JUMP JUMPDEST PUSH1 0x40 MLOAD PUSH2 0x800 SWAP2 SWAP1 PUSH2 0x49C7 JUMP JUMPDEST PUSH1 0x40 MLOAD DUP1 SWAP2 SUB SWAP1 RETURN JUMPDEST CALLVALUE DUP1 ISZERO PUSH2 0x815 JUMPI PUSH1 0x0 DUP1 REVERT JUMPDEST POP PUSH2 0x81E PUSH2 0x1C73 JUMP JUMPDEST PUSH1 0x40 MLOAD PUSH2 0x82B SWAP2 SWAP1 PUSH2 0x4EBC JUMP JUMPDEST PUSH1 0x40 MLOAD DUP1 SWAP2 SUB SWAP1 RETURN JUMPDEST CALLVALUE DUP1 ISZERO PUSH2 0x840 JUMPI PUSH1 0x0 DUP1 REVERT JUMPDEST POP PUSH2 0x849 PUSH2 0x1C86 JUMP JUMPDEST PUSH1 0x40 MLOAD PUSH2 0x856 SWAP2 SWAP1 PUSH2 0x4EBC JUMP JUMPDEST PUSH1 0x40 MLOAD DUP1 SWAP2 SUB SWAP1 RETURN JUMPDEST CALLVALUE DUP1 ISZERO PUSH2 0x86B JUMPI PUSH1 0x0 DUP1 REVERT JUMPDEST POP PUSH2 0x874 PUSH2 0x1C99 JUMP JUMPDEST PUSH1 0x40 MLOAD PUSH2 0x881 SWAP2 SWAP1 PUSH2 0x49C7 JUMP JUMPDEST PUSH1 0x40 MLOAD DUP1 SWAP2 SUB SWAP1 RETURN JUMPDEST CALLVALUE DUP1 ISZERO PUSH2 0x896 JUMPI PUSH1 0x0 DUP1 REVERT JUMPDEST POP PUSH2 0x8B1 PUSH1 0x4 DUP1 CALLDATASIZE SUB DUP2 ADD SWAP1 PUSH2 0x8AC SWAP2 SWAP1 PUSH2 0x4AC0 JUMP JUMPDEST PUSH2 0x1C9F JUMP JUMPDEST PUSH1 0x40 MLOAD PUSH2 0x8BE SWAP2 SWAP1 PUSH2 0x49C7 JUMP JUMPDEST PUSH1 0x40 MLOAD DUP1 SWAP2 SUB SWAP1 RETURN JUMPDEST CALLVALUE DUP1 ISZERO PUSH2 0x8D3 JUMPI PUSH1 0x0 DUP1 REVERT JUMPDEST POP PUSH2 0x8EE PUSH1 0x4 DUP1 CALLDATASIZE SUB DUP2 ADD SWAP1 PUSH2 0x8E9 SWAP2 SWAP1 PUSH2 0x4AC0 JUMP JUMPDEST PUSH2 0x1CB7 JUMP JUMPDEST STOP JUMPDEST CALLVALUE DUP1 ISZERO PUSH2 0x8FC JUMPI PUSH1 0x0 DUP1 REVERT JUMPDEST POP PUSH2 0x905 PUSH2 0x1D03 JUMP JUMPDEST PUSH1 0x40 MLOAD PUSH2 0x912 SWAP2 SWAP1 PUSH2 0x49C7 JUMP JUMPDEST PUSH1 0x40 MLOAD DUP1 SWAP2 SUB SWAP1 RETURN JUMPDEST CALLVALUE DUP1 ISZERO PUSH2 0x927 JUMPI PUSH1 0x0 DUP1 REVERT JUMPDEST POP PUSH2 0x930 PUSH2 0x1D09 JUMP JUMPDEST PUSH1 0x40 MLOAD PUSH2 0x93D SWAP2 SWAP1 PUSH2 0x49C7 JUMP JUMPDEST PUSH1 0x40 MLOAD DUP1 SWAP2 SUB SWAP1 RETURN JUMPDEST CALLVALUE DUP1 ISZERO PUSH2 0x952 JUMPI PUSH1 0x0 DUP1 REVERT JUMPDEST POP PUSH2 0x95B PUSH2 0x1D0E JUMP JUMPDEST PUSH1 0x40 MLOAD PUSH2 0x968 SWAP2 SWAP1 PUSH2 0x4BB1 JUMP JUMPDEST PUSH1 0x40 MLOAD DUP1 SWAP2 SUB SWAP1 RETURN JUMPDEST CALLVALUE DUP1 ISZERO PUSH2 0x97D JUMPI PUSH1 0x0 DUP1 REVERT JUMPDEST POP PUSH2 0x986 PUSH2 0x1D34 JUMP JUMPDEST STOP JUMPDEST CALLVALUE DUP1 ISZERO PUSH2 0x994 JUMPI PUSH1 0x0 DUP1 REVERT JUMPDEST POP PUSH2 0x9AF PUSH1 0x4 DUP1 CALLDATASIZE SUB DUP2 ADD SWAP1 PUSH2 0x9AA SWAP2 SWAP1 PUSH2 0x4AC0 JUMP JUMPDEST PUSH2 0x1DA7 JUMP JUMPDEST PUSH1 0x40 MLOAD PUSH2 0x9BC SWAP2 SWAP1 PUSH2 0x49C7 JUMP JUMPDEST PUSH1 0x40 MLOAD DUP1 SWAP2 SUB SWAP1 RETURN JUMPDEST CALLVALUE DUP1 ISZERO PUSH2 0x9D1 JUMPI PUSH1 0x0 DUP1 REVERT JUMPDEST POP PUSH2 0x9DA PUSH2 0x1DBF JUMP JUMPDEST STOP JUMPDEST CALLVALUE DUP1 ISZERO PUSH2 0x9E8 JUMPI PUSH1 0x0 DUP1 REVERT JUMPDEST POP PUSH2 0xA03 PUSH1 0x4 DUP1 CALLDATASIZE SUB DUP2 ADD SWAP1 PUSH2 0x9FE SWAP2 SWAP1 PUSH2 0x4DC3 JUMP JUMPDEST PUSH2 0x1DD3 JUMP JUMPDEST PUSH1 0x40 MLOAD PUSH2 0xA11 SWAP3 SWAP2 SWAP1 PUSH2 0x4ED7 JUMP JUMPDEST PUSH1 0x40 MLOAD DUP1 SWAP2 SUB SWAP1 RETURN JUMPDEST CALLVALUE DUP1 ISZERO PUSH2 0xA26 JUMPI PUSH1 0x0 DUP1 REVERT JUMPDEST POP PUSH2 0xA41 PUSH1 0x4 DUP1 CALLDATASIZE SUB DUP2 ADD SWAP1 PUSH2 0xA3C SWAP2 SWAP1 PUSH2 0x4F00 JUMP JUMPDEST PUSH2 0x1E07 JUMP JUMPDEST STOP JUMPDEST PUSH2 0xA5D PUSH1 0x4 DUP1 CALLDATASIZE SUB DUP2 ADD SWAP1 PUSH2 0xA58 SWAP2 SWAP1 PUSH2 0x4AC0 JUMP JUMPDEST PUSH2 0x1EC9 JUMP JUMPDEST STOP JUMPDEST CALLVALUE DUP1 ISZERO PUSH2 0xA6B JUMPI PUSH1 0x0 DUP1 REVERT JUMPDEST POP PUSH2 0xA86 PUSH1 0x4 DUP1 CALLDATASIZE SUB DUP2 ADD SWAP1 PUSH2 0xA81 SWAP2 SWAP1 PUSH2 0x4DC3 JUMP JUMPDEST PUSH2 0x24D8 JUMP JUMPDEST STOP JUMPDEST CALLVALUE DUP1 ISZERO PUSH2 0xA94 JUMPI PUSH1 0x0 DUP1 REVERT JUMPDEST POP PUSH2 0xA9D PUSH2 0x24EA JUMP JUMPDEST PUSH1 0x40 MLOAD PUSH2 0xAAA SWAP2 SWAP1 PUSH2 0x49C7 JUMP JUMPDEST PUSH1 0x40 MLOAD DUP1 SWAP2 SUB SWAP1 RETURN JUMPDEST CALLVALUE DUP1 ISZERO PUSH2 0xABF JUMPI PUSH1 0x0 DUP1 REVERT JUMPDEST POP PUSH2 0xADA PUSH1 0x4 DUP1 CALLDATASIZE SUB DUP2 ADD SWAP1 PUSH2 0xAD5 SWAP2 SWAP1 PUSH2 0x501C JUMP JUMPDEST PUSH2 0x24F0 JUMP JUMPDEST STOP JUMPDEST CALLVALUE DUP1 ISZERO PUSH2 0xAE8 JUMPI PUSH1 0x0 DUP1 REVERT JUMPDEST POP PUSH2 0xB03 PUSH1 0x4 DUP1 CALLDATASIZE SUB DUP2 ADD SWAP1 PUSH2 0xAFE SWAP2 SWAP1 PUSH2 0x4AC0 JUMP JUMPDEST PUSH2 0x25EE JUMP JUMPDEST PUSH1 0x40 MLOAD PUSH2 0xB10 SWAP2 SWAP1 PUSH2 0x515D JUMP JUMPDEST PUSH1 0x40 MLOAD DUP1 SWAP2 SUB SWAP1 RETURN JUMPDEST CALLVALUE DUP1 ISZERO PUSH2 0xB25 JUMPI PUSH1 0x0 DUP1 REVERT JUMPDEST POP PUSH2 0xB40 PUSH1 0x4 DUP1 CALLDATASIZE SUB DUP2 ADD SWAP1 PUSH2 0xB3B SWAP2 SWAP1 PUSH2 0x4AC0 JUMP JUMPDEST PUSH2 0x26D9 JUMP JUMPDEST PUSH1 0x40 MLOAD PUSH2 0xB4D SWAP2 SWAP1 PUSH2 0x515D JUMP JUMPDEST PUSH1 0x40 MLOAD DUP1 SWAP2 SUB SWAP1 RETURN JUMPDEST CALLVALUE DUP1 ISZERO PUSH2 0xB62 JUMPI PUSH1 0x0 DUP1 REVERT JUMPDEST POP PUSH2 0xB6B PUSH2 0x27C4 JUMP JUMPDEST PUSH1 0x40 MLOAD PUSH2 0xB78 SWAP2 SWAP1 PUSH2 0x518E JUMP JUMPDEST PUSH1 0x40 MLOAD DUP1 SWAP2 SUB SWAP1 RETURN JUMPDEST CALLVALUE DUP1 ISZERO PUSH2 0xB8D JUMPI PUSH1 0x0 DUP1 REVERT JUMPDEST POP PUSH2 0xB96 PUSH2 0x27ED JUMP JUMPDEST PUSH1 0x40 MLOAD PUSH2 0xBA3 SWAP2 SWAP1 PUSH2 0x4EBC JUMP JUMPDEST PUSH1 0x40 MLOAD DUP1 SWAP2 SUB SWAP1 RETURN JUMPDEST CALLVALUE DUP1 ISZERO PUSH2 0xBB8 JUMPI PUSH1 0x0 DUP1 REVERT JUMPDEST POP PUSH2 0xBD3 PUSH1 0x4 DUP1 CALLDATASIZE SUB DUP2 ADD SWAP1 PUSH2 0xBCE SWAP2 SWAP1 PUSH2 0x4AC0 JUMP JUMPDEST PUSH2 0x2800 JUMP JUMPDEST PUSH1 0x40 MLOAD PUSH2 0xBE0 SWAP2 SWAP1 PUSH2 0x49C7 JUMP JUMPDEST PUSH1 0x40 MLOAD DUP1 SWAP2 SUB SWAP1 RETURN JUMPDEST CALLVALUE DUP1 ISZERO PUSH2 0xBF5 JUMPI PUSH1 0x0 DUP1 REVERT JUMPDEST POP PUSH2 0xC10 PUSH1 0x4 DUP1 CALLDATASIZE SUB DUP2 ADD SWAP1 PUSH2 0xC0B SWAP2 SWAP1 PUSH2 0x51A9 JUMP JUMPDEST PUSH2 0x2818 JUMP JUMPDEST PUSH1 0x40 MLOAD PUSH2 0xC1D SWAP2 SWAP1 PUSH2 0x49C7 JUMP JUMPDEST PUSH1 0x40 MLOAD DUP1 SWAP2 SUB SWAP1 RETURN JUMPDEST CALLVALUE DUP1 ISZERO PUSH2 0xC32 JUMPI PUSH1 0x0 DUP1 REVERT JUMPDEST POP PUSH2 0xC3B PUSH2 0x283D JUMP JUMPDEST PUSH1 0x40 MLOAD PUSH2 0xC48 SWAP2 SWAP1 PUSH2 0x49C7 JUMP JUMPDEST PUSH1 0x40 MLOAD DUP1 SWAP2 SUB SWAP1 RETURN JUMPDEST CALLVALUE DUP1 ISZERO PUSH2 0xC5D JUMPI PUSH1 0x0 DUP1 REVERT JUMPDEST POP PUSH2 0xC78 PUSH1 0x4 DUP1 CALLDATASIZE SUB DUP2 ADD SWAP1 PUSH2 0xC73 SWAP2 SWAP1 PUSH2 0x4DC3 JUMP JUMPDEST PUSH2 0x2843 JUMP JUMPDEST STOP JUMPDEST CALLVALUE DUP1 ISZERO PUSH2 0xC86 JUMPI PUSH1 0x0 DUP1 REVERT JUMPDEST POP PUSH2 0xC8F PUSH2 0x2855 JUMP JUMPDEST PUSH1 0x40 MLOAD PUSH2 0xC9C SWAP2 SWAP1 PUSH2 0x520A JUMP JUMPDEST PUSH1 0x40 MLOAD DUP1 SWAP2 SUB SWAP1 RETURN JUMPDEST CALLVALUE DUP1 ISZERO PUSH2 0xCB1 JUMPI PUSH1 0x0 DUP1 REVERT JUMPDEST POP PUSH2 0xCCC PUSH1 0x4 DUP1 CALLDATASIZE SUB DUP2 ADD SWAP1 PUSH2 0xCC7 SWAP2 SWAP1 PUSH2 0x4AC0 JUMP JUMPDEST PUSH2 0x287B JUMP JUMPDEST STOP JUMPDEST CALLVALUE DUP1 ISZERO PUSH2 0xCDA JUMPI PUSH1 0x0 DUP1 REVERT JUMPDEST POP PUSH2 0xCF5 PUSH1 0x4 DUP1 CALLDATASIZE SUB DUP2 ADD SWAP1 PUSH2 0xCF0 SWAP2 SWAP1 PUSH2 0x4AC0 JUMP JUMPDEST PUSH2 0x28C7 JUMP JUMPDEST PUSH1 0x40 MLOAD PUSH2 0xD02 SWAP2 SWAP1 PUSH2 0x49C7 JUMP JUMPDEST PUSH1 0x40 MLOAD DUP1 SWAP2 SUB SWAP1 RETURN JUMPDEST CALLVALUE DUP1 ISZERO PUSH2 0xD17 JUMPI PUSH1 0x0 DUP1 REVERT JUMPDEST POP PUSH2 0xD20 PUSH2 0x28DF JUMP JUMPDEST STOP JUMPDEST CALLVALUE DUP1 ISZERO PUSH2 0xD2E JUMPI PUSH1 0x0 DUP1 REVERT JUMPDEST POP PUSH2 0xD49 PUSH1 0x4 DUP1 CALLDATASIZE SUB DUP2 ADD SWAP1 PUSH2 0xD44 SWAP2 SWAP1 PUSH2 0x4DC3 JUMP JUMPDEST PUSH2 0x2915 JUMP JUMPDEST PUSH1 0x40 MLOAD PUSH2 0xD58 SWAP4 SWAP3 SWAP2 SWAP1 PUSH2 0x4E6F JUMP JUMPDEST PUSH1 0x40 MLOAD DUP1 SWAP2 SUB SWAP1 RETURN JUMPDEST CALLVALUE DUP1 ISZERO PUSH2 0xD6D JUMPI PUSH1 0x0 DUP1 REVERT JUMPDEST POP PUSH2 0xD88 PUSH1 0x4 DUP1 CALLDATASIZE SUB DUP2 ADD SWAP1 PUSH2 0xD83 SWAP2 SWAP1 PUSH2 0x4DC3 JUMP JUMPDEST PUSH2 0x29D7 JUMP JUMPDEST PUSH1 0x40 MLOAD PUSH2 0xD95 SWAP2 SWAP1 PUSH2 0x518E JUMP JUMPDEST PUSH1 0x40 MLOAD DUP1 SWAP2 SUB SWAP1 RETURN JUMPDEST CALLVALUE DUP1 ISZERO PUSH2 0xDAA JUMPI PUSH1 0x0 DUP1 REVERT JUMPDEST POP PUSH2 0xDC5 PUSH1 0x4 DUP1 CALLDATASIZE SUB DUP2 ADD SWAP1 PUSH2 0xDC0 SWAP2 SWAP1 PUSH2 0x4AC0 JUMP JUMPDEST PUSH2 0x2A16 JUMP JUMPDEST PUSH1 0x40 MLOAD PUSH2 0xDD2 SWAP2 SWAP1 PUSH2 0x49C7 JUMP JUMPDEST PUSH1 0x40 MLOAD DUP1 SWAP2 SUB SWAP1 RETURN JUMPDEST CALLVALUE DUP1 ISZERO PUSH2 0xDE7 JUMPI PUSH1 0x0 DUP1 REVERT JUMPDEST POP PUSH2 0xDF0 PUSH2 0x2A2E JUMP JUMPDEST PUSH1 0x40 MLOAD PUSH2 0xDFD SWAP2 SWAP1 PUSH2 0x4BB1 JUMP JUMPDEST PUSH1 0x40 MLOAD DUP1 SWAP2 SUB SWAP1 RETURN JUMPDEST CALLVALUE DUP1 ISZERO PUSH2 0xE12 JUMPI PUSH1 0x0 DUP1 REVERT JUMPDEST POP PUSH2 0xE1B PUSH2 0x2A54 JUMP JUMPDEST PUSH1 0x40 MLOAD PUSH2 0xE28 SWAP2 SWAP1 PUSH2 0x49C7 JUMP JUMPDEST PUSH1 0x40 MLOAD DUP1 SWAP2 SUB SWAP1 RETURN JUMPDEST CALLVALUE DUP1 ISZERO PUSH2 0xE3D JUMPI PUSH1 0x0 DUP1 REVERT JUMPDEST POP PUSH2 0xE46 PUSH2 0x2A5A JUMP JUMPDEST STOP JUMPDEST CALLVALUE DUP1 ISZERO PUSH2 0xE54 JUMPI PUSH1 0x0 DUP1 REVERT JUMPDEST POP PUSH2 0xE5D PUSH2 0x2BF0 JUMP JUMPDEST PUSH1 0x40 MLOAD PUSH2 0xE6A SWAP2 SWAP1 PUSH2 0x49C7 JUMP JUMPDEST PUSH1 0x40 MLOAD DUP1 SWAP2 SUB SWAP1 RETURN JUMPDEST CALLVALUE DUP1 ISZERO PUSH2 0xE7F JUMPI PUSH1 0x0 DUP1 REVERT JUMPDEST POP PUSH2 0xE9A PUSH1 0x4 DUP1 CALLDATASIZE SUB DUP2 ADD SWAP1 PUSH2 0xE95 SWAP2 SWAP1 PUSH2 0x5225 JUMP JUMPDEST PUSH2 0x2BF6 JUMP JUMPDEST STOP JUMPDEST CALLVALUE DUP1 ISZERO PUSH2 0xEA8 JUMPI PUSH1 0x0 DUP1 REVERT JUMPDEST POP PUSH2 0xEC3 PUSH1 0x4 DUP1 CALLDATASIZE SUB DUP2 ADD SWAP1 PUSH2 0xEBE SWAP2 SWAP1 PUSH2 0x51A9 JUMP JUMPDEST PUSH2 0x2D0B JUMP JUMPDEST PUSH1 0x40 MLOAD PUSH2 0xED0 SWAP2 SWAP1 PUSH2 0x49C7 JUMP JUMPDEST PUSH1 0x40 MLOAD DUP1 SWAP2 SUB SWAP1 RETURN JUMPDEST CALLVALUE DUP1 ISZERO PUSH2 0xEE5 JUMPI PUSH1 0x0 DUP1 REVERT JUMPDEST POP PUSH2 0xF00 PUSH1 0x4 DUP1 CALLDATASIZE SUB DUP2 ADD SWAP1 PUSH2 0xEFB SWAP2 SWAP1 PUSH2 0x4AC0 JUMP JUMPDEST PUSH2 0x2D30 JUMP JUMPDEST PUSH1 0x40 MLOAD PUSH2 0xF0D SWAP2 SWAP1 PUSH2 0x49C7 JUMP JUMPDEST PUSH1 0x40 MLOAD DUP1 SWAP2 SUB SWAP1 RETURN JUMPDEST CALLVALUE DUP1 ISZERO PUSH2 0xF22 JUMPI PUSH1 0x0 DUP1 REVERT JUMPDEST POP PUSH2 0xF2B PUSH2 0x2D48 JUMP JUMPDEST PUSH1 0x40 MLOAD PUSH2 0xF38 SWAP2 SWAP1 PUSH2 0x49C7 JUMP JUMPDEST PUSH1 0x40 MLOAD DUP1 SWAP2 SUB SWAP1 RETURN JUMPDEST CALLVALUE DUP1 ISZERO PUSH2 0xF4D JUMPI PUSH1 0x0 DUP1 REVERT JUMPDEST POP PUSH2 0xF68 PUSH1 0x4 DUP1 CALLDATASIZE SUB DUP2 ADD SWAP1 PUSH2 0xF63 SWAP2 SWAP1 PUSH2 0x51A9 JUMP JUMPDEST PUSH2 0x2D4E JUMP JUMPDEST STOP JUMPDEST CALLVALUE DUP1 ISZERO PUSH2 0xF76 JUMPI PUSH1 0x0 DUP1 REVERT JUMPDEST POP PUSH2 0xF91 PUSH1 0x4 DUP1 CALLDATASIZE SUB DUP2 ADD SWAP1 PUSH2 0xF8C SWAP2 SWAP1 PUSH2 0x4AC0 JUMP JUMPDEST PUSH2 0x2E88 JUMP JUMPDEST PUSH1 0x40 MLOAD PUSH2 0xF9E SWAP2 SWAP1 PUSH2 0x49C7 JUMP JUMPDEST PUSH1 0x40 MLOAD DUP1 SWAP2 SUB SWAP1 RETURN JUMPDEST CALLVALUE DUP1 ISZERO PUSH2 0xFB3 JUMPI PUSH1 0x0 DUP1 REVERT JUMPDEST POP PUSH2 0xFBC PUSH2 0x2EA0 JUMP JUMPDEST PUSH1 0x40 MLOAD PUSH2 0xFC9 SWAP2 SWAP1 PUSH2 0x49C7 JUMP JUMPDEST PUSH1 0x40 MLOAD DUP1 SWAP2 SUB SWAP1 RETURN JUMPDEST CALLVALUE DUP1 ISZERO PUSH2 0xFDE JUMPI PUSH1 0x0 DUP1 REVERT JUMPDEST POP PUSH2 0xFE7 PUSH2 0x2EA6 JUMP JUMPDEST STOP JUMPDEST CALLVALUE DUP1 ISZERO PUSH2 0xFF5 JUMPI PUSH1 0x0 DUP1 REVERT JUMPDEST POP PUSH2 0xFFE PUSH2 0x3060 JUMP JUMPDEST PUSH1 0x40 MLOAD PUSH2 0x100B SWAP2 SWAP1 PUSH2 0x49C7 JUMP JUMPDEST PUSH1 0x40 MLOAD DUP1 SWAP2 SUB SWAP1 RETURN JUMPDEST CALLVALUE DUP1 ISZERO PUSH2 0x1020 JUMPI PUSH1 0x0 DUP1 REVERT JUMPDEST POP PUSH2 0x103B PUSH1 0x4 DUP1 CALLDATASIZE SUB DUP2 ADD SWAP1 PUSH2 0x1036 SWAP2 SWAP1 PUSH2 0x4AC0 JUMP JUMPDEST PUSH2 0x3066 JUMP JUMPDEST PUSH1 0x40 MLOAD PUSH2 0x1048 SWAP2 SWAP1 PUSH2 0x4EBC JUMP JUMPDEST PUSH1 0x40 MLOAD DUP1 SWAP2 SUB SWAP1 RETURN JUMPDEST CALLVALUE DUP1 ISZERO PUSH2 0x105D JUMPI PUSH1 0x0 DUP1 REVERT JUMPDEST POP PUSH2 0x1078 PUSH1 0x4 DUP1 CALLDATASIZE SUB DUP2 ADD SWAP1 PUSH2 0x1073 SWAP2 SWAP1 PUSH2 0x4B25 JUMP JUMPDEST PUSH2 0x3315 JUMP JUMPDEST STOP JUMPDEST CALLVALUE DUP1 ISZERO PUSH2 0x1086 JUMPI PUSH1 0x0 DUP1 REVERT JUMPDEST POP PUSH2 0x10A1 PUSH1 0x4 DUP1 CALLDATASIZE SUB DUP2 ADD SWAP1 PUSH2 0x109C SWAP2 SWAP1 PUSH2 0x4A22 JUMP JUMPDEST PUSH2 0x333A JUMP JUMPDEST STOP JUMPDEST CALLVALUE DUP1 ISZERO PUSH2 0x10AF JUMPI PUSH1 0x0 DUP1 REVERT JUMPDEST POP PUSH2 0x10CA PUSH1 0x4 DUP1 CALLDATASIZE SUB DUP2 ADD SWAP1 PUSH2 0x10C5 SWAP2 SWAP1 PUSH2 0x4AC0 JUMP JUMPDEST PUSH2 0x3564 JUMP JUMPDEST PUSH1 0x40 MLOAD PUSH2 0x10D7 SWAP2 SWAP1 PUSH2 0x49C7 JUMP JUMPDEST PUSH1 0x40 MLOAD DUP1 SWAP2 SUB SWAP1 RETURN JUMPDEST CALLVALUE DUP1 ISZERO PUSH2 0x10EC JUMPI PUSH1 0x0 DUP1 REVERT JUMPDEST POP PUSH2 0x1107 PUSH1 0x4 DUP1 CALLDATASIZE SUB DUP2 ADD SWAP1 PUSH2 0x1102 SWAP2 SWAP1 PUSH2 0x4AC0 JUMP JUMPDEST PUSH2 0x357C JUMP JUMPDEST PUSH1 0x40 MLOAD PUSH2 0x1114 SWAP2 SWAP1 PUSH2 0x49C7 JUMP JUMPDEST PUSH1 0x40 MLOAD DUP1 SWAP2 SUB SWAP1 RETURN JUMPDEST CALLVALUE DUP1 ISZERO PUSH2 0x1129 JUMPI PUSH1 0x0 DUP1 REVERT JUMPDEST POP PUSH2 0x1144 PUSH1 0x4 DUP1 CALLDATASIZE SUB DUP2 ADD SWAP1 PUSH2 0x113F SWAP2 SWAP1 PUSH2 0x4A22 JUMP JUMPDEST PUSH2 0x3594 JUMP JUMPDEST STOP JUMPDEST CALLVALUE DUP1 ISZERO PUSH2 0x1152 JUMPI PUSH1 0x0 DUP1 REVERT JUMPDEST POP PUSH2 0x116D PUSH1 0x4 DUP1 CALLDATASIZE SUB DUP2 ADD SWAP1 PUSH2 0x1168 SWAP2 SWAP1 PUSH2 0x4AC0 JUMP JUMPDEST PUSH2 0x381B JUMP JUMPDEST STOP JUMPDEST CALLVALUE DUP1 ISZERO PUSH2 0x117B JUMPI PUSH1 0x0 DUP1 REVERT JUMPDEST POP PUSH2 0x1196 PUSH1 0x4 DUP1 CALLDATASIZE SUB DUP2 ADD SWAP1 PUSH2 0x1191 SWAP2 SWAP1 PUSH2 0x4A22 JUMP JUMPDEST PUSH2 0x38A1 JUMP JUMPDEST STOP JUMPDEST CALLVALUE DUP1 ISZERO PUSH2 0x11A4 JUMPI PUSH1 0x0 DUP1 REVERT JUMPDEST POP PUSH2 0x11BF PUSH1 0x4 DUP1 CALLDATASIZE SUB DUP2 ADD SWAP1 PUSH2 0x11BA SWAP2 SWAP1 PUSH2 0x51A9 JUMP JUMPDEST PUSH2 0x3ACE JUMP JUMPDEST STOP JUMPDEST CALLVALUE DUP1 ISZERO PUSH2 0x11CD JUMPI PUSH1 0x0 DUP1 REVERT JUMPDEST POP PUSH2 0x11D6 PUSH2 0x3B31 JUMP JUMPDEST PUSH1 0x40 MLOAD PUSH2 0x11E3 SWAP2 SWAP1 PUSH2 0x5299 JUMP JUMPDEST PUSH1 0x40 MLOAD DUP1 SWAP2 SUB SWAP1 RETURN JUMPDEST CALLVALUE DUP1 ISZERO PUSH2 0x11F8 JUMPI PUSH1 0x0 DUP1 REVERT JUMPDEST POP PUSH2 0x1201 PUSH2 0x3B57 JUMP JUMPDEST PUSH1 0x40 MLOAD PUSH2 0x120E SWAP2 SWAP1 PUSH2 0x49C7 JUMP JUMPDEST PUSH1 0x40 MLOAD DUP1 SWAP2 SUB SWAP1 RETURN JUMPDEST CALLVALUE DUP1 ISZERO PUSH2 0x1223 JUMPI PUSH1 0x0 DUP1 REVERT JUMPDEST POP PUSH2 0x123E PUSH1 0x4 DUP1 CALLDATASIZE SUB DUP2 ADD SWAP1 PUSH2 0x1239 SWAP2 SWAP1 PUSH2 0x4AC0 JUMP JUMPDEST PUSH2 0x3B5D JUMP JUMPDEST PUSH1 0x40 MLOAD PUSH2 0x124B SWAP2 SWAP1 PUSH2 0x49C7 JUMP JUMPDEST PUSH1 0x40 MLOAD DUP1 SWAP2 SUB SWAP1 RETURN JUMPDEST CALLVALUE DUP1 ISZERO PUSH2 0x1260 JUMPI PUSH1 0x0 DUP1 REVERT JUMPDEST POP PUSH2 0x127B PUSH1 0x4 DUP1 CALLDATASIZE SUB DUP2 ADD SWAP1 PUSH2 0x1276 SWAP2 SWAP1 PUSH2 0x52B4 JUMP JUMPDEST PUSH2 0x3F0D JUMP JUMPDEST STOP JUMPDEST PUSH1 0x0 DUP1 PUSH1 0x0 SWAP1 POP PUSH1 0x0 JUMPDEST PUSH1 0x4 DUP1 SLOAD SWAP1 POP DUP2 LT ISZERO PUSH2 0x12F4 JUMPI PUSH1 0x4 DUP2 DUP2 SLOAD DUP2 LT PUSH2 0x12A8 JUMPI PUSH2 0x12A7 PUSH2 0x5307 JUMP JUMPDEST JUMPDEST SWAP1 PUSH1 0x0 MSTORE PUSH1 0x20 PUSH1 0x0 KECCAK256 SWAP1 PUSH1 0x2 MUL ADD PUSH1 0x0 ADD SLOAD DUP3 PUSH2 0x12C5 SWAP2 SWAP1 PUSH2 0x5365 JUMP JUMPDEST SWAP2 POP DUP2 PUSH1 0x6 SLOAD LT ISZERO PUSH2 0x12E7 JUMPI PUSH1 0x1 DUP2 PUSH2 0x12DE SWAP2 SWAP1 PUSH2 0x5365 JUMP JUMPDEST SWAP3 POP POP POP PUSH2 0x1316 JUMP JUMPDEST DUP1 DUP1 PUSH1 0x1 ADD SWAP2 POP POP PUSH2 0x1287 JUMP JUMPDEST POP PUSH1 0x1 DUP1 PUSH1 0x4 DUP1 SLOAD SWAP1 POP PUSH2 0x1308 SWAP2 SWAP1 PUSH2 0x5399 JUMP JUMPDEST PUSH2 0x1312 SWAP2 SWAP1 PUSH2 0x5365 JUMP JUMPDEST SWAP2 POP POP JUMPDEST SWAP1 JUMP JUMPDEST PUSH1 0x0 PUSH1 0xC DUP4 DUP2 SLOAD DUP2 LT PUSH2 0x132F JUMPI PUSH2 0x132E PUSH2 0x5307 JUMP JUMPDEST JUMPDEST SWAP1 PUSH1 0x0 MSTORE PUSH1 0x20 PUSH1 0x0 KECCAK256 SWAP1 PUSH1 0x3 MUL ADD PUSH1 0x1 ADD SLOAD GT PUSH2 0x134B JUMPI PUSH1 0x0 DUP1 REVERT JUMPDEST DUP1 PUSH1 0xD PUSH1 0x0 CALLER PUSH20 0xFFFFFFFFFFFFFFFFFFFFFFFFFFFFFFFFFFFFFFFF AND PUSH20 0xFFFFFFFFFFFFFFFFFFFFFFFFFFFFFFFFFFFFFFFF AND DUP2 MSTORE PUSH1 0x20 ADD SWAP1 DUP2 MSTORE PUSH1 0x20 ADD PUSH1 0x0 KECCAK256 PUSH1 0x0 DUP5 DUP2 MSTORE PUSH1 0x20 ADD SWAP1 DUP2 MSTORE PUSH1 0x20 ADD PUSH1 0x0 KECCAK256 SLOAD LT ISZERO PUSH2 0x13DE JUMPI PUSH1 0x40 MLOAD PUSH32 0x8C379A000000000000000000000000000000000000000000000000000000000 DUP2 MSTORE PUSH1 0x4 ADD PUSH2 0x13D5 SWAP1 PUSH2 0x5419 JUMP JUMPDEST PUSH1 0x40 MLOAD DUP1 SWAP2 SUB SWAP1 REVERT JUMPDEST PUSH1 0x27 PUSH1 0x14 SWAP1 SLOAD SWAP1 PUSH2 0x100 EXP SWAP1 DIV PUSH1 0xFF AND ISZERO PUSH2 0x142E JUMPI PUSH1 0x40 MLOAD PUSH32 0x8C379A000000000000000000000000000000000000000000000000000000000 DUP2 MSTORE PUSH1 0x4 ADD PUSH2 0x1425 SWAP1 PUSH2 0x54AB JUMP JUMPDEST PUSH1 0x40 MLOAD DUP1 SWAP2 SUB SWAP1 REVERT JUMPDEST PUSH2 0x1437 CALLER PUSH2 0x4274 JUMP JUMPDEST PUSH1 0x0 DUP2 PUSH1 0xC DUP5 DUP2 SLOAD DUP2 LT PUSH2 0x144E JUMPI PUSH2 0x144D PUSH2 0x5307 JUMP JUMPDEST JUMPDEST SWAP1 PUSH1 0x0 MSTORE PUSH1 0x20 PUSH1 0x0 KECCAK256 SWAP1 PUSH1 0x3 MUL ADD PUSH1 0x1 ADD SLOAD PUSH2 0x146A SWAP2 SWAP1 PUSH2 0x54CB JUMP JUMPDEST SWAP1 POP PUSH1 0x0 DUP3 PUSH1 0xC DUP6 DUP2 SLOAD DUP2 LT PUSH2 0x1483 JUMPI PUSH2 0x1482 PUSH2 0x5307 JUMP JUMPDEST JUMPDEST SWAP1 PUSH1 0x0 MSTORE PUSH1 0x20 PUSH1 0x0 KECCAK256 SWAP1 PUSH1 0x3 MUL ADD PUSH1 0x2 ADD SLOAD PUSH2 0x149F SWAP2 SWAP1 PUSH2 0x54CB JUMP JUMPDEST SWAP1 POP PUSH1 0x0 PUSH1 0x13 SLOAD DUP3 PUSH1 0x12 SLOAD PUSH2 0x14B4 SWAP2 SWAP1 PUSH2 0x54CB JUMP JUMPDEST PUSH2 0x14BE SWAP2 SWAP1 PUSH2 0x553C JUMP JUMPDEST SWAP1 POP DUP2 PUSH1 0x13 PUSH1 0x0 DUP3 DUP3 SLOAD PUSH2 0x14D2 SWAP2 SWAP1 PUSH2 0x5399 JUMP JUMPDEST SWAP3 POP POP DUP2 SWAP1 SSTORE POP DUP1 PUSH1 0x12 PUSH1 0x0 DUP3 DUP3 SLOAD PUSH2 0x14EB SWAP2 SWAP1 PUSH2 0x5399 JUMP JUMPDEST SWAP3 POP POP DUP2 SWAP1 SSTORE POP DUP3 PUSH1 0x10 PUSH1 0x0 DUP3 DUP3 SLOAD PUSH2 0x1504 SWAP2 SWAP1 PUSH2 0x5399 JUMP JUMPDEST SWAP3 POP POP DUP2 SWAP1 SSTORE POP PUSH2 0x1515 CALLER DUP3 PUSH2 0x43A5 JUMP JUMPDEST DUP4 PUSH1 0xD PUSH1 0x0 CALLER PUSH20 0xFFFFFFFFFFFFFFFFFFFFFFFFFFFFFFFFFFFFFFFF AND PUSH20 0xFFFFFFFFFFFFFFFFFFFFFFFFFFFFFFFFFFFFFFFF AND DUP2 MSTORE PUSH1 0x20 ADD SWAP1 DUP2 MSTORE PUSH1 0x20 ADD PUSH1 0x0 KECCAK256 PUSH1 0x0 DUP8 DUP2 MSTORE PUSH1 0x20 ADD SWAP1 DUP2 MSTORE PUSH1 0x20 ADD PUSH1 0x0 KECCAK256 PUSH1 0x0 DUP3 DUP3 SLOAD PUSH2 0x1575 SWAP2 SWAP1 PUSH2 0x5399 JUMP JUMPDEST SWAP3 POP POP DUP2 SWAP1 SSTORE POP DUP3 PUSH1 0x16 PUSH1 0x0 CALLER PUSH20 0xFFFFFFFFFFFFFFFFFFFFFFFFFFFFFFFFFFFFFFFF AND PUSH20 0xFFFFFFFFFFFFFFFFFFFFFFFFFFFFFFFFFFFFFFFF AND DUP2 MSTORE PUSH1 0x20 ADD SWAP1 DUP2 MSTORE PUSH1 0x20 ADD PUSH1 0x0 KECCAK256 PUSH1 0x0 DUP3 DUP3 SLOAD PUSH2 0x15CB SWAP2 SWAP1 PUSH2 0x5399 JUMP JUMPDEST SWAP3 POP POP DUP2 SWAP1 SSTORE POP POP POP POP POP POP JUMP JUMPDEST PUSH1 0x13 SLOAD DUP2 JUMP JUMPDEST PUSH1 0x5 SLOAD DUP2 JUMP JUMPDEST PUSH1 0x0 DUP1 PUSH1 0x14 SLOAD PUSH2 0x2710 PUSH2 0x15F8 SWAP2 SWAP1 PUSH2 0x54CB JUMP JUMPDEST PUSH1 0x11 SLOAD PUSH1 0x12 SLOAD PUSH2 0x1608 SWAP2 SWAP1 PUSH2 0x5365 JUMP JUMPDEST PUSH1 0x11 SLOAD PUSH3 0xF4240 PUSH2 0x1619 SWAP2 SWAP1 PUSH2 0x54CB JUMP JUMPDEST PUSH2 0x1623 SWAP2 SWAP1 PUSH2 0x553C JUMP JUMPDEST PUSH2 0x162D SWAP2 SWAP1 PUSH2 0x5399 JUMP JUMPDEST SWAP1 POP PUSH1 0x0 PUSH1 0x14 SLOAD PUSH2 0x2710 PUSH2 0x1641 SWAP2 SWAP1 PUSH2 0x54CB JUMP JUMPDEST PUSH1 0x11 SLOAD PUSH1 0x12 SLOAD PUSH2 0x1651 SWAP2 SWAP1 PUSH2 0x5365 JUMP JUMPDEST PUSH1 0x12 SLOAD PUSH3 0xF4240 PUSH2 0x1662 SWAP2 SWAP1 PUSH2 0x54CB JUMP JUMPDEST PUSH2 0x166C SWAP2 SWAP1 PUSH2 0x553C JUMP JUMPDEST PUSH2 0x1676 SWAP2 SWAP1 PUSH2 0x5365 JUMP JUMPDEST SWAP1 POP PUSH3 0xF4240 PUSH1 0x10 SLOAD PUSH1 0x16 PUSH1 0x0 DUP8 PUSH20 0xFFFFFFFFFFFFFFFFFFFFFFFFFFFFFFFFFFFFFFFF AND PUSH20 0xFFFFFFFFFFFFFFFFFFFFFFFFFFFFFFFFFFFFFFFF AND DUP2 MSTORE PUSH1 0x20 ADD SWAP1 DUP2 MSTORE PUSH1 0x20 ADD PUSH1 0x0 KECCAK256 SLOAD DUP4 PUSH2 0x16CA SWAP2 SWAP1 PUSH2 0x54CB JUMP JUMPDEST PUSH2 0x16D4 SWAP2 SWAP1 PUSH2 0x553C JUMP JUMPDEST PUSH1 0xF SLOAD PUSH1 0x15 PUSH1 0x0 DUP9 PUSH20 0xFFFFFFFFFFFFFFFFFFFFFFFFFFFFFFFFFFFFFFFF AND PUSH20 0xFFFFFFFFFFFFFFFFFFFFFFFFFFFFFFFFFFFFFFFF AND DUP2 MSTORE PUSH1 0x20 ADD SWAP1 DUP2 MSTORE PUSH1 0x20 ADD PUSH1 0x0 KECCAK256 SLOAD DUP6 PUSH2 0x1722 SWAP2 SWAP1 PUSH2 0x54CB JUMP JUMPDEST PUSH2 0x172C SWAP2 SWAP1 PUSH2 0x553C JUMP JUMPDEST PUSH2 0x1736 SWAP2 SWAP1 PUSH2 0x5365 JUMP JUMPDEST PUSH1 0x29 SLOAD PUSH2 0x1743 SWAP2 SWAP1 PUSH2 0x54CB JUMP JUMPDEST PUSH2 0x174D SWAP2 SWAP1 PUSH2 0x553C JUMP JUMPDEST SWAP3 POP POP POP SWAP2 SWAP1 POP JUMP JUMPDEST PUSH2 0x175E PUSH2 0x44D7 JUMP JUMPDEST DUP1 PUSH1 0x7 PUSH1 0x0 PUSH2 0x100 EXP DUP2 SLOAD DUP2 PUSH1 0xFF MUL NOT AND SWAP1 DUP4 ISZERO ISZERO MUL OR SWAP1 SSTORE POP POP JUMP JUMPDEST PUSH1 0x0 PUSH1 0x22 PUSH1 0x0 CALLER PUSH20 0xFFFFFFFFFFFFFFFFFFFFFFFFFFFFFFFFFFFFFFFF AND PUSH20 0xFFFFFFFFFFFFFFFFFFFFFFFFFFFFFFFFFFFFFFFF AND DUP2 MSTORE PUSH1 0x20 ADD SWAP1 DUP2 MSTORE PUSH1 0x20 ADD PUSH1 0x0 KECCAK256 SLOAD SWAP1 POP PUSH1 0x0 PUSH1 0x22 PUSH1 0x0 CALLER PUSH20 0xFFFFFFFFFFFFFFFFFFFFFFFFFFFFFFFFFFFFFFFF AND PUSH20 0xFFFFFFFFFFFFFFFFFFFFFFFFFFFFFFFFFFFFFFFF AND DUP2 MSTORE PUSH1 0x20 ADD SWAP1 DUP2 MSTORE PUSH1 0x20 ADD PUSH1 0x0 KECCAK256 DUP2 SWAP1 SSTORE POP PUSH2 0x180E CALLER DUP3 PUSH2 0x43A5 JUMP JUMPDEST DUP1 PUSH1 0x24 PUSH1 0x0 CALLER PUSH20 0xFFFFFFFFFFFFFFFFFFFFFFFFFFFFFFFFFFFFFFFF AND PUSH20 0xFFFFFFFFFFFFFFFFFFFFFFFFFFFFFFFFFFFFFFFF AND DUP2 MSTORE PUSH1 0x20 ADD SWAP1 DUP2 MSTORE PUSH1 0x20 ADD PUSH1 0x0 KECCAK256 PUSH1 0x0 DUP3 DUP3 SLOAD PUSH2 0x185D SWAP2 SWAP1 PUSH2 0x5365 JUMP JUMPDEST SWAP3 POP POP DUP2 SWAP1 SSTORE POP PUSH1 0x0 PUSH1 0x23 PUSH1 0x0 CALLER PUSH20 0xFFFFFFFFFFFFFFFFFFFFFFFFFFFFFFFFFFFFFFFF AND PUSH20 0xFFFFFFFFFFFFFFFFFFFFFFFFFFFFFFFFFFFFFFFF AND DUP2 MSTORE PUSH1 0x20 ADD SWAP1 DUP2 MSTORE PUSH1 0x20 ADD PUSH1 0x0 KECCAK256 SLOAD SWAP1 POP PUSH1 0x0 PUSH1 0x23 PUSH1 0x0 CALLER PUSH20 0xFFFFFFFFFFFFFFFFFFFFFFFFFFFFFFFFFFFFFFFF AND PUSH20 0xFFFFFFFFFFFFFFFFFFFFFFFFFFFFFFFFFFFFFFFF AND DUP2 MSTORE PUSH1 0x20 ADD SWAP1 DUP2 MSTORE PUSH1 0x20 ADD PUSH1 0x0 KECCAK256 DUP2 SWAP1 SSTORE POP DUP1 PUSH1 0x25 PUSH1 0x0 CALLER PUSH20 0xFFFFFFFFFFFFFFFFFFFFFFFFFFFFFFFFFFFFFFFF AND PUSH20 0xFFFFFFFFFFFFFFFFFFFFFFFFFFFFFFFFFFFFFFFF AND DUP2 MSTORE PUSH1 0x20 ADD SWAP1 DUP2 MSTORE PUSH1 0x20 ADD PUSH1 0x0 KECCAK256 PUSH1 0x0 DUP3 DUP3 SLOAD PUSH2 0x193C SWAP2 SWAP1 PUSH2 0x5365 JUMP JUMPDEST SWAP3 POP POP DUP2 SWAP1 SSTORE POP CALLER PUSH20 0xFFFFFFFFFFFFFFFFFFFFFFFFFFFFFFFFFFFFFFFF AND PUSH2 0x8FC DUP3 SWAP1 DUP2 ISZERO MUL SWAP1 PUSH1 0x40 MLOAD PUSH1 0x0 PUSH1 0x40 MLOAD DUP1 DUP4 SUB DUP2 DUP6 DUP9 DUP9 CALL SWAP4 POP POP POP POP ISZERO DUP1 ISZERO PUSH2 0x1989 JUMPI RETURNDATASIZE PUSH1 0x0 DUP1 RETURNDATACOPY RETURNDATASIZE PUSH1 0x0 REVERT JUMPDEST POP CALLER PUSH20 0xFFFFFFFFFFFFFFFFFFFFFFFFFFFFFFFFFFFFFFFF AND PUSH32 0x454211B099B54298804B6B35092D2A4BCBF8E5EA525A50B79B542BA2D4BC6A24 DUP3 DUP5 PUSH1 0x40 MLOAD PUSH2 0x19D2 SWAP3 SWAP2 SWAP1 PUSH2 0x4ED7 JUMP JUMPDEST PUSH1 0x40 MLOAD DUP1 SWAP2 SUB SWAP1 LOG2 POP POP JUMP JUMPDEST PUSH1 0x27 PUSH1 0x0 SWAP1 SLOAD SWAP1 PUSH2 0x100 EXP SWAP1 DIV PUSH20 0xFFFFFFFFFFFFFFFFFFFFFFFFFFFFFFFFFFFFFFFF AND DUP2 JUMP JUMPDEST PUSH1 0x12 SLOAD DUP2 JUMP JUMPDEST PUSH2 0x1A12 PUSH2 0x44D7 JUMP JUMPDEST PUSH1 0x4 PUSH1 0x0 PUSH2 0x1A20 SWAP2 SWAP1 PUSH2 0x4963 JUMP JUMPDEST PUSH1 0x0 JUMPDEST DUP2 MLOAD DUP2 LT ISZERO PUSH2 0x1ACB JUMPI PUSH1 0x4 PUSH1 0x40 MLOAD DUP1 PUSH1 0x40 ADD PUSH1 0x40 MSTORE DUP1 DUP5 DUP5 DUP2 MLOAD DUP2 LT PUSH2 0x1A4C JUMPI PUSH2 0x1A4B PUSH2 0x5307 JUMP JUMPDEST JUMPDEST PUSH1 0x20 MUL PUSH1 0x20 ADD ADD MLOAD PUSH1 0x0 ADD MLOAD DUP2 MSTORE PUSH1 0x20 ADD DUP5 DUP5 DUP2 MLOAD DUP2 LT PUSH2 0x1A70 JUMPI PUSH2 0x1A6F PUSH2 0x5307 JUMP JUMPDEST JUMPDEST PUSH1 0x20 MUL PUSH1 0x20 ADD ADD MLOAD PUSH1 0x20 ADD MLOAD DUP2 MSTORE POP SWAP1 DUP1 PUSH1 0x1 DUP2 SLOAD ADD DUP1 DUP3 SSTORE DUP1 SWAP2 POP POP PUSH1 0x1 SWAP1 SUB SWAP1 PUSH1 0x0 MSTORE PUSH1 0x20 PUSH1 0x0 KECCAK256 SWAP1 PUSH1 0x2 MUL ADD PUSH1 0x0 SWAP1 SWAP2 SWAP1 SWAP2 SWAP1 SWAP2 POP PUSH1 0x0 DUP3 ADD MLOAD DUP2 PUSH1 0x0 ADD SSTORE PUSH1 0x20 DUP3 ADD MLOAD DUP2 PUSH1 0x1 ADD SSTORE POP POP DUP1 DUP1 PUSH1 0x1 ADD SWAP2 POP POP PUSH2 0x1A23 JUMP JUMPDEST POP POP JUMP JUMPDEST PUSH1 0x16 PUSH1 0x20 MSTORE DUP1 PUSH1 0x0 MSTORE PUSH1 0x40 PUSH1 0x0 KECCAK256 PUSH1 0x0 SWAP2 POP SWAP1 POP SLOAD DUP2 JUMP JUMPDEST PUSH2 0x1AEF PUSH2 0x44D7 JUMP JUMPDEST DUP1 PUSH1 0x27 PUSH1 0x0 PUSH2 0x100 EXP DUP2 SLOAD DUP2 PUSH20 0xFFFFFFFFFFFFFFFFFFFFFFFFFFFFFFFFFFFFFFFF MUL NOT AND SWAP1 DUP4 PUSH20 0xFFFFFFFFFFFFFFFFFFFFFFFFFFFFFFFFFFFFFFFF AND MUL OR SWAP1 SSTORE POP POP JUMP JUMPDEST PUSH1 0xF SLOAD DUP2 JUMP JUMPDEST PUSH1 0xC DUP2 DUP2 SLOAD DUP2 LT PUSH2 0x1B49 JUMPI PUSH1 0x0 DUP1 REVERT JUMPDEST SWAP1 PUSH1 0x0 MSTORE PUSH1 0x20 PUSH1 0x0 KECCAK256 SWAP1 PUSH1 0x3 MUL ADD PUSH1 0x0 SWAP2 POP SWAP1 POP DUP1 PUSH1 0x0 ADD DUP1 SLOAD PUSH2 0x1B6C SWAP1 PUSH2 0x559C JUMP JUMPDEST DUP1 PUSH1 0x1F ADD PUSH1 0x20 DUP1 SWAP2 DIV MUL PUSH1 0x20 ADD PUSH1 0x40 MLOAD SWAP1 DUP2 ADD PUSH1 0x40 MSTORE DUP1 SWAP3 SWAP2 SWAP1 DUP2 DUP2 MSTORE PUSH1 0x20 ADD DUP3 DUP1 SLOAD PUSH2 0x1B98 SWAP1 PUSH2 0x559C JUMP JUMPDEST DUP1 ISZERO PUSH2 0x1BE5 JUMPI DUP1 PUSH1 0x1F LT PUSH2 0x1BBA JUMPI PUSH2 0x100 DUP1 DUP4 SLOAD DIV MUL DUP4 MSTORE SWAP2 PUSH1 0x20 ADD SWAP2 PUSH2 0x1BE5 JUMP JUMPDEST DUP3 ADD SWAP2 SWAP1 PUSH1 0x0 MSTORE PUSH1 0x20 PUSH1 0x0 KECCAK256 SWAP1 JUMPDEST DUP2 SLOAD DUP2 MSTORE SWAP1 PUSH1 0x1 ADD SWAP1 PUSH1 0x20 ADD DUP1 DUP4 GT PUSH2 0x1BC8 JUMPI DUP3 SWAP1 SUB PUSH1 0x1F AND DUP3 ADD SWAP2 JUMPDEST POP POP POP POP POP SWAP1 DUP1 PUSH1 0x1 ADD SLOAD SWAP1 DUP1 PUSH1 0x2 ADD SLOAD SWAP1 POP DUP4 JUMP JUMPDEST PUSH1 0x22 PUSH1 0x20 MSTORE DUP1 PUSH1 0x0 MSTORE PUSH1 0x40 PUSH1 0x0 KECCAK256 PUSH1 0x0 SWAP2 POP SWAP1 POP SLOAD DUP2 JUMP JUMPDEST PUSH1 0x9 PUSH1 0x20 MSTORE DUP1 PUSH1 0x0 MSTORE PUSH1 0x40 PUSH1 0x0 KECCAK256 PUSH1 0x0 SWAP2 POP SWAP1 POP SLOAD DUP2 JUMP JUMPDEST PUSH1 0x19 PUSH1 0x20 MSTORE DUP1 PUSH1 0x0 MSTORE PUSH1 0x40 PUSH1 0x0 KECCAK256 PUSH1 0x0 SWAP2 POP SWAP1 POP SLOAD DUP2 JUMP JUMPDEST PUSH1 0x1B PUSH1 0x20 MSTORE DUP1 PUSH1 0x0 MSTORE PUSH1 0x40 PUSH1 0x0 KECCAK256 PUSH1 0x0 SWAP2 POP SWAP1 POP SLOAD DUP2 JUMP JUMPDEST PUSH1 0x1C PUSH1 0x20 MSTORE DUP1 PUSH1 0x0 MSTORE PUSH1 0x40 PUSH1 0x0 KECCAK256 PUSH1 0x0 SWAP2 POP SWAP1 POP SLOAD DUP2 JUMP JUMPDEST PUSH1 0x26 PUSH1 0x0 SWAP1 SLOAD SWAP1 PUSH2 0x100 EXP SWAP1 DIV PUSH1 0xFF AND DUP2 JUMP JUMPDEST PUSH1 0x27 PUSH1 0x14 SWAP1 SLOAD SWAP1 PUSH2 0x100 EXP SWAP1 DIV PUSH1 0xFF AND DUP2 JUMP JUMPDEST PUSH1 0x11 SLOAD DUP2 JUMP JUMPDEST PUSH1 0x1E PUSH1 0x20 MSTORE DUP1 PUSH1 0x0 MSTORE PUSH1 0x40 PUSH1 0x0 KECCAK256 PUSH1 0x0 SWAP2 POP SWAP1 POP SLOAD DUP2 JUMP JUMPDEST PUSH2 0x1CBF PUSH2 0x44D7 JUMP JUMPDEST DUP1 PUSH1 0x26 PUSH1 0x1 PUSH2 0x100 EXP DUP2 SLOAD DUP2 PUSH20 0xFFFFFFFFFFFFFFFFFFFFFFFFFFFFFFFFFFFFFFFF MUL NOT AND SWAP1 DUP4 PUSH20 0xFFFFFFFFFFFFFFFFFFFFFFFFFFFFFFFFFFFFFFFF AND MUL OR SWAP1 SSTORE POP POP JUMP JUMPDEST PUSH1 0x28 SLOAD DUP2 JUMP JUMPDEST PUSH1 0x64 DUP2 JUMP JUMPDEST PUSH1 0x2 PUSH1 0x0 SWAP1 SLOAD SWAP1 PUSH2 0x100 EXP SWAP1 DIV PUSH20 0xFFFFFFFFFFFFFFFFFFFFFFFFFFFFFFFFFFFFFFFF AND DUP2 JUMP JUMPDEST PUSH2 0x1D3C PUSH2 0x44D7 JUMP JUMPDEST PUSH1 0x1 PUSH1 0x0 SWAP1 SLOAD SWAP1 PUSH2 0x100 EXP SWAP1 DIV PUSH20 0xFFFFFFFFFFFFFFFFFFFFFFFFFFFFFFFFFFFFFFFF AND PUSH20 0xFFFFFFFFFFFFFFFFFFFFFFFFFFFFFFFFFFFFFFFF AND PUSH2 0x8FC SELFBALANCE SWAP1 DUP2 ISZERO MUL SWAP1 PUSH1 0x40 MLOAD PUSH1 0x0 PUSH1 0x40 MLOAD DUP1 DUP4 SUB DUP2 DUP6 DUP9 DUP9 CALL SWAP4 POP POP POP POP ISZERO DUP1 ISZERO PUSH2 0x1DA4 JUMPI RETURNDATASIZE PUSH1 0x0 DUP1 RETURNDATACOPY RETURNDATASIZE PUSH1 0x0 REVERT JUMPDEST POP JUMP JUMPDEST PUSH1 0x15 PUSH1 0x20 MSTORE DUP1 PUSH1 0x0 MSTORE PUSH1 0x40 PUSH1 0x0 KECCAK256 PUSH1 0x0 SWAP2 POP SWAP1 POP SLOAD DUP2 JUMP JUMPDEST PUSH2 0x1DC7 PUSH2 0x44D7 JUMP JUMPDEST PUSH2 0x1DD1 PUSH1 0x0 PUSH2 0x455E JUMP JUMPDEST JUMP JUMPDEST PUSH1 0x4 DUP2 DUP2 SLOAD DUP2 LT PUSH2 0x1DE3 JUMPI PUSH1 0x0 DUP1 REVERT JUMPDEST SWAP1 PUSH1 0x0 MSTORE PUSH1 0x20 PUSH1 0x0 KECCAK256 SWAP1 PUSH1 0x2 MUL ADD PUSH1 0x0 SWAP2 POP SWAP1 POP DUP1 PUSH1 0x0 ADD SLOAD SWAP1 DUP1 PUSH1 0x1 ADD SLOAD SWAP1 POP DUP3 JUMP JUMPDEST PUSH2 0x1E0F PUSH2 0x44D7 JUMP JUMPDEST DUP1 ISZERO PUSH2 0x1E6E JUMPI DUP3 PUSH1 0xC DUP6 DUP2 SLOAD DUP2 LT PUSH2 0x1E2A JUMPI PUSH2 0x1E29 PUSH2 0x5307 JUMP JUMPDEST JUMPDEST SWAP1 PUSH1 0x0 MSTORE PUSH1 0x20 PUSH1 0x0 KECCAK256 SWAP1 PUSH1 0x3 MUL ADD PUSH1 0x1 ADD DUP2 SWAP1 SSTORE POP DUP2 PUSH1 0xC DUP6 DUP2 SLOAD DUP2 LT PUSH2 0x1E54 JUMPI PUSH2 0x1E53 PUSH2 0x5307 JUMP JUMPDEST JUMPDEST SWAP1 PUSH1 0x0 MSTORE PUSH1 0x20 PUSH1 0x0 KECCAK256 SWAP1 PUSH1 0x3 MUL ADD PUSH1 0x2 ADD DUP2 SWAP1 SSTORE POP PUSH2 0x1EC3 JUMP JUMPDEST DUP3 PUSH1 0xA DUP6 DUP2 SLOAD DUP2 LT PUSH2 0x1E83 JUMPI PUSH2 0x1E82 PUSH2 0x5307 JUMP JUMPDEST JUMPDEST SWAP1 PUSH1 0x0 MSTORE PUSH1 0x20 PUSH1 0x0 KECCAK256 SWAP1 PUSH1 0x3 MUL ADD PUSH1 0x1 ADD DUP2 SWAP1 SSTORE POP DUP2 PUSH1 0xA DUP6 DUP2 SLOAD DUP2 LT PUSH2 0x1EAD JUMPI PUSH2 0x1EAC PUSH2 0x5307 JUMP JUMPDEST JUMPDEST SWAP1 PUSH1 0x0 MSTORE PUSH1 0x20 PUSH1 0x0 KECCAK256 SWAP1 PUSH1 0x3 MUL ADD PUSH1 0x2 ADD DUP2 SWAP1 SSTORE POP JUMPDEST POP POP POP POP JUMP JUMPDEST PUSH1 0x0 CALLVALUE GT PUSH2 0x1F0C JUMPI PUSH1 0x40 MLOAD PUSH32 0x8C379A000000000000000000000000000000000000000000000000000000000 DUP2 MSTORE PUSH1 0x4 ADD PUSH2 0x1F03 SWAP1 PUSH2 0x5619 JUMP JUMPDEST PUSH1 0x40 MLOAD DUP1 SWAP2 SUB SWAP1 REVERT JUMPDEST PUSH1 0x7 PUSH1 0x0 SWAP1 SLOAD SWAP1 PUSH2 0x100 EXP SWAP1 DIV PUSH1 0xFF AND ISZERO DUP1 PUSH2 0x1FC0 JUMPI POP PUSH1 0x27 PUSH1 0x0 SWAP1 SLOAD SWAP1 PUSH2 0x100 EXP SWAP1 DIV PUSH20 0xFFFFFFFFFFFFFFFFFFFFFFFFFFFFFFFFFFFFFFFF AND PUSH20 0xFFFFFFFFFFFFFFFFFFFFFFFFFFFFFFFFFFFFFFFF AND PUSH4 0x3AF32ABF CALLER PUSH1 0x40 MLOAD DUP3 PUSH4 0xFFFFFFFF AND PUSH1 0xE0 SHL DUP2 MSTORE PUSH1 0x4 ADD PUSH2 0x1F7E SWAP2 SWAP1 PUSH2 0x518E JUMP JUMPDEST PUSH1 0x20 PUSH1 0x40 MLOAD DUP1 DUP4 SUB DUP2 DUP7 GAS STATICCALL ISZERO DUP1 ISZERO PUSH2 0x1F9B JUMPI RETURNDATASIZE PUSH1 0x0 DUP1 RETURNDATACOPY RETURNDATASIZE PUSH1 0x0 REVERT JUMPDEST POP POP POP POP PUSH1 0x40 MLOAD RETURNDATASIZE PUSH1 0x1F NOT PUSH1 0x1F DUP3 ADD AND DUP3 ADD DUP1 PUSH1 0x40 MSTORE POP DUP2 ADD SWAP1 PUSH2 0x1FBF SWAP2 SWAP1 PUSH2 0x564E JUMP JUMPDEST JUMPDEST PUSH2 0x1FFF JUMPI PUSH1 0x40 MLOAD PUSH32 0x8C379A000000000000000000000000000000000000000000000000000000000 DUP2 MSTORE PUSH1 0x4 ADD PUSH2 0x1FF6 SWAP1 PUSH2 0x56C7 JUMP JUMPDEST PUSH1 0x40 MLOAD DUP1 SWAP2 SUB SWAP1 REVERT JUMPDEST PUSH1 0x5 SLOAD TIMESTAMP GT PUSH2 0x2043 JUMPI PUSH1 0x40 MLOAD PUSH32 0x8C379A000000000000000000000000000000000000000000000000000000000 DUP2 MSTORE PUSH1 0x4 ADD PUSH2 0x203A SWAP1 PUSH2 0x5733 JUMP JUMPDEST PUSH1 0x40 MLOAD DUP1 SWAP2 SUB SWAP1 REVERT JUMPDEST PUSH1 0x27 PUSH1 0x14 SWAP1 SLOAD SWAP1 PUSH2 0x100 EXP SWAP1 DIV PUSH1 0xFF AND ISZERO PUSH2 0x2093 JUMPI PUSH1 0x40 MLOAD PUSH32 0x8C379A000000000000000000000000000000000000000000000000000000000 DUP2 MSTORE PUSH1 0x4 ADD PUSH2 0x208A SWAP1 PUSH2 0x54AB JUMP JUMPDEST PUSH1 0x40 MLOAD DUP1 SWAP2 SUB SWAP1 REVERT JUMPDEST PUSH1 0x0 PUSH2 0x209E CALLVALUE PUSH2 0x4622 JUMP JUMPDEST SWAP1 POP PUSH1 0x0 DUP2 GT PUSH2 0x20E3 JUMPI PUSH1 0x40 MLOAD PUSH32 0x8C379A000000000000000000000000000000000000000000000000000000000 DUP2 MSTORE PUSH1 0x4 ADD PUSH2 0x20DA SWAP1 PUSH2 0x579F JUMP JUMPDEST PUSH1 0x40 MLOAD DUP1 SWAP2 SUB SWAP1 REVERT JUMPDEST PUSH1 0x0 PUSH1 0x1E PUSH1 0x0 CALLER PUSH20 0xFFFFFFFFFFFFFFFFFFFFFFFFFFFFFFFFFFFFFFFF AND PUSH20 0xFFFFFFFFFFFFFFFFFFFFFFFFFFFFFFFFFFFFFFFF AND DUP2 MSTORE PUSH1 0x20 ADD SWAP1 DUP2 MSTORE PUSH1 0x20 ADD PUSH1 0x0 KECCAK256 SLOAD SUB PUSH2 0x21D9 JUMPI PUSH1 0x8 CALLER SWAP1 DUP1 PUSH1 0x1 DUP2 SLOAD ADD DUP1 DUP3 SSTORE DUP1 SWAP2 POP POP PUSH1 0x1 SWAP1 SUB SWAP1 PUSH1 0x0 MSTORE PUSH1 0x20 PUSH1 0x0 KECCAK256 ADD PUSH1 0x0 SWAP1 SWAP2 SWAP1 SWAP2 SWAP1 SWAP2 PUSH2 0x100 EXP DUP2 SLOAD DUP2 PUSH20 0xFFFFFFFFFFFFFFFFFFFFFFFFFFFFFFFFFFFFFFFF MUL NOT AND SWAP1 DUP4 PUSH20 0xFFFFFFFFFFFFFFFFFFFFFFFFFFFFFFFFFFFFFFFF AND MUL OR SWAP1 SSTORE POP PUSH2 0x2195 PUSH2 0x127D JUMP JUMPDEST PUSH1 0x1E PUSH1 0x0 CALLER PUSH20 0xFFFFFFFFFFFFFFFFFFFFFFFFFFFFFFFFFFFFFFFF AND PUSH20 0xFFFFFFFFFFFFFFFFFFFFFFFFFFFFFFFFFFFFFFFF AND DUP2 MSTORE PUSH1 0x20 ADD SWAP1 DUP2 MSTORE PUSH1 0x20 ADD PUSH1 0x0 KECCAK256 DUP2 SWAP1 SSTORE POP JUMPDEST PUSH1 0x0 PUSH20 0xFFFFFFFFFFFFFFFFFFFFFFFFFFFFFFFFFFFFFFFF AND DUP3 PUSH20 0xFFFFFFFFFFFFFFFFFFFFFFFFFFFFFFFFFFFFFFFF AND SUB PUSH2 0x2211 JUMPI CALLER SWAP2 POP JUMPDEST PUSH1 0x0 PUSH2 0x221C DUP4 PUSH2 0x3066 JUMP JUMPDEST SWAP1 POP DUP2 PUSH1 0x6 PUSH1 0x0 DUP3 DUP3 SLOAD PUSH2 0x2230 SWAP2 SWAP1 PUSH2 0x5365 JUMP JUMPDEST SWAP3 POP POP DUP2 SWAP1 SSTORE POP PUSH1 0x0 PUSH1 0x2 CALLVALUE PUSH2 0x2246 SWAP2 SWAP1 PUSH2 0x553C JUMP JUMPDEST SWAP1 POP PUSH1 0x0 DUP1 PUSH1 0x0 DUP5 ISZERO PUSH2 0x2354 JUMPI PUSH1 0x64 PUSH1 0x21 SLOAD DUP8 PUSH2 0x2263 SWAP2 SWAP1 PUSH2 0x54CB JUMP JUMPDEST PUSH2 0x226D SWAP2 SWAP1 PUSH2 0x553C JUMP JUMPDEST SWAP3 POP PUSH1 0x64 PUSH1 0x20 SLOAD DUP8 PUSH2 0x227F SWAP2 SWAP1 PUSH2 0x54CB JUMP JUMPDEST PUSH2 0x2289 SWAP2 SWAP1 PUSH2 0x553C JUMP JUMPDEST SWAP1 POP PUSH1 0x64 PUSH1 0x1F SLOAD CALLVALUE PUSH2 0x229B SWAP2 SWAP1 PUSH2 0x54CB JUMP JUMPDEST PUSH2 0x22A5 SWAP2 SWAP1 PUSH2 0x553C JUMP JUMPDEST SWAP2 POP DUP2 PUSH1 0x23 PUSH1 0x0 DUP10 PUSH20 0xFFFFFFFFFFFFFFFFFFFFFFFFFFFFFFFFFFFFFFFF AND PUSH20 0xFFFFFFFFFFFFFFFFFFFFFFFFFFFFFFFFFFFFFFFF AND DUP2 MSTORE PUSH1 0x20 ADD SWAP1 DUP2 MSTORE PUSH1 0x20 ADD PUSH1 0x0 KECCAK256 PUSH1 0x0 DUP3 DUP3 SLOAD PUSH2 0x22F6 SWAP2 SWAP1 PUSH2 0x5365 JUMP JUMPDEST SWAP3 POP POP DUP2 SWAP1 SSTORE POP DUP1 PUSH1 0x22 PUSH1 0x0 DUP10 PUSH20 0xFFFFFFFFFFFFFFFFFFFFFFFFFFFFFFFFFFFFFFFF AND PUSH20 0xFFFFFFFFFFFFFFFFFFFFFFFFFFFFFFFFFFFFFFFF AND DUP2 MSTORE PUSH1 0x20 ADD SWAP1 DUP2 MSTORE PUSH1 0x20 ADD PUSH1 0x0 KECCAK256 PUSH1 0x0 DUP3 DUP3 SLOAD PUSH2 0x234C SWAP2 SWAP1 PUSH2 0x5365 JUMP JUMPDEST SWAP3 POP POP DUP2 SWAP1 SSTORE POP JUMPDEST PUSH1 0x0 DUP4 DUP8 PUSH2 0x2362 SWAP2 SWAP1 PUSH2 0x5365 JUMP JUMPDEST SWAP1 POP PUSH2 0x236E CALLER DUP3 PUSH2 0x43A5 JUMP JUMPDEST CALLER PUSH20 0xFFFFFFFFFFFFFFFFFFFFFFFFFFFFFFFFFFFFFFFF AND PUSH1 0x0 PUSH20 0xFFFFFFFFFFFFFFFFFFFFFFFFFFFFFFFFFFFFFFFF AND PUSH32 0xC29B8032387F267DDC010037627574ACBF3B1A65A6022CA8BA6C25F0BA85EE75 DUP10 DUP7 DUP7 DUP10 PUSH1 0x40 MLOAD PUSH2 0x23D2 SWAP5 SWAP4 SWAP3 SWAP2 SWAP1 PUSH2 0x57BF JUMP JUMPDEST PUSH1 0x40 MLOAD DUP1 SWAP2 SUB SWAP1 LOG3 PUSH1 0x0 DUP4 DUP7 PUSH2 0x23E8 SWAP2 SWAP1 PUSH2 0x5365 JUMP JUMPDEST CALLVALUE PUSH2 0x23F3 SWAP2 SWAP1 PUSH2 0x5399 JUMP JUMPDEST SWAP1 POP PUSH1 0x1 PUSH1 0x0 SWAP1 SLOAD SWAP1 PUSH2 0x100 EXP SWAP1 DIV PUSH20 0xFFFFFFFFFFFFFFFFFFFFFFFFFFFFFFFFFFFFFFFF AND PUSH20 0xFFFFFFFFFFFFFFFFFFFFFFFFFFFFFFFFFFFFFFFF AND PUSH2 0x8FC DUP3 SWAP1 DUP2 ISZERO MUL SWAP1 PUSH1 0x40 MLOAD PUSH1 0x0 PUSH1 0x40 MLOAD DUP1 DUP4 SUB DUP2 DUP6 DUP9 DUP9 CALL SWAP4 POP POP POP POP ISZERO DUP1 ISZERO PUSH2 0x245D JUMPI RETURNDATASIZE PUSH1 0x0 DUP1 RETURNDATACOPY RETURNDATASIZE PUSH1 0x0 REVERT JUMPDEST POP CALLVALUE PUSH1 0x17 PUSH1 0x0 CALLER PUSH20 0xFFFFFFFFFFFFFFFFFFFFFFFFFFFFFFFFFFFFFFFF AND PUSH20 0xFFFFFFFFFFFFFFFFFFFFFFFFFFFFFFFFFFFFFFFF AND DUP2 MSTORE PUSH1 0x20 ADD SWAP1 DUP2 MSTORE PUSH1 0x20 ADD PUSH1 0x0 KECCAK256 PUSH1 0x0 DUP3 DUP3 SLOAD PUSH2 0x24AD SWAP2 SWAP1 PUSH2 0x5365 JUMP JUMPDEST SWAP3 POP POP DUP2 SWAP1 SSTORE POP DUP6 PUSH1 0xE PUSH1 0x0 DUP3 DUP3 SLOAD PUSH2 0x24C6 SWAP2 SWAP1 PUSH2 0x5365 JUMP JUMPDEST SWAP3 POP POP DUP2 SWAP1 SSTORE POP POP POP POP POP POP POP POP POP POP JUMP JUMPDEST PUSH2 0x24E0 PUSH2 0x44D7 JUMP JUMPDEST DUP1 PUSH1 0x5 DUP2 SWAP1 SSTORE POP POP JUMP JUMPDEST PUSH1 0x29 SLOAD DUP2 JUMP JUMPDEST PUSH2 0x24F8 PUSH2 0x44D7 JUMP JUMPDEST DUP1 ISZERO PUSH2 0x2575 JUMPI PUSH1 0xC PUSH1 0x40 MLOAD DUP1 PUSH1 0x60 ADD PUSH1 0x40 MSTORE DUP1 DUP7 DUP2 MSTORE PUSH1 0x20 ADD DUP6 DUP2 MSTORE PUSH1 0x20 ADD DUP5 DUP2 MSTORE POP SWAP1 DUP1 PUSH1 0x1 DUP2 SLOAD ADD DUP1 DUP3 SSTORE DUP1 SWAP2 POP POP PUSH1 0x1 SWAP1 SUB SWAP1 PUSH1 0x0 MSTORE PUSH1 0x20 PUSH1 0x0 KECCAK256 SWAP1 PUSH1 0x3 MUL ADD PUSH1 0x0 SWAP1 SWAP2 SWAP1 SWAP2 SWAP1 SWAP2 POP PUSH1 0x0 DUP3 ADD MLOAD DUP2 PUSH1 0x0 ADD SWAP1 DUP2 PUSH2 0x2559 SWAP2 SWAP1 PUSH2 0x59A6 JUMP JUMPDEST POP PUSH1 0x20 DUP3 ADD MLOAD DUP2 PUSH1 0x1 ADD SSTORE PUSH1 0x40 DUP3 ADD MLOAD DUP2 PUSH1 0x2 ADD SSTORE POP POP PUSH2 0x25E8 JUMP JUMPDEST PUSH1 0xA PUSH1 0x40 MLOAD DUP1 PUSH1 0x60 ADD PUSH1 0x40 MSTORE DUP1 DUP7 DUP2 MSTORE PUSH1 0x20 ADD DUP6 DUP2 MSTORE PUSH1 0x20 ADD DUP5 DUP2 MSTORE POP SWAP1 DUP1 PUSH1 0x1 DUP2 SLOAD ADD DUP1 DUP3 SSTORE DUP1 SWAP2 POP POP PUSH1 0x1 SWAP1 SUB SWAP1 PUSH1 0x0 MSTORE PUSH1 0x20 PUSH1 0x0 KECCAK256 SWAP1 PUSH1 0x3 MUL ADD PUSH1 0x0 SWAP1 SWAP2 SWAP1 SWAP2 SWAP1 SWAP2 POP PUSH1 0x0 DUP3 ADD MLOAD DUP2 PUSH1 0x0 ADD SWAP1 DUP2 PUSH2 0x25D0 SWAP2 SWAP1 PUSH2 0x59A6 JUMP JUMPDEST POP PUSH1 0x20 DUP3 ADD MLOAD DUP2 PUSH1 0x1 ADD SSTORE PUSH1 0x40 DUP3 ADD MLOAD DUP2 PUSH1 0x2 ADD SSTORE POP POP JUMPDEST POP POP POP POP JUMP JUMPDEST PUSH1 0x60 PUSH1 0x0 PUSH1 0xC DUP1 SLOAD SWAP1 POP PUSH8 0xFFFFFFFFFFFFFFFF DUP2 GT ISZERO PUSH2 0x2611 JUMPI PUSH2 0x2610 PUSH2 0x4BE2 JUMP JUMPDEST JUMPDEST PUSH1 0x40 MLOAD SWAP1 DUP1 DUP3 MSTORE DUP1 PUSH1 0x20 MUL PUSH1 0x20 ADD DUP3 ADD PUSH1 0x40 MSTORE DUP1 ISZERO PUSH2 0x263F JUMPI DUP2 PUSH1 0x20 ADD PUSH1 0x20 DUP3 MUL DUP1 CALLDATASIZE DUP4 CALLDATACOPY DUP1 DUP3 ADD SWAP2 POP POP SWAP1 POP JUMPDEST POP SWAP1 POP PUSH1 0x0 JUMPDEST PUSH1 0xC DUP1 SLOAD SWAP1 POP DUP2 LT ISZERO PUSH2 0x26CF JUMPI PUSH1 0xD PUSH1 0x0 DUP6 PUSH20 0xFFFFFFFFFFFFFFFFFFFFFFFFFFFFFFFFFFFFFFFF AND PUSH20 0xFFFFFFFFFFFFFFFFFFFFFFFFFFFFFFFFFFFFFFFF AND DUP2 MSTORE PUSH1 0x20 ADD SWAP1 DUP2 MSTORE PUSH1 0x20 ADD PUSH1 0x0 KECCAK256 PUSH1 0x0 DUP3 DUP2 MSTORE PUSH1 0x20 ADD SWAP1 DUP2 MSTORE PUSH1 0x20 ADD PUSH1 0x0 KECCAK256 SLOAD DUP3 DUP3 DUP2 MLOAD DUP2 LT PUSH2 0x26B6 JUMPI PUSH2 0x26B5 PUSH2 0x5307 JUMP JUMPDEST JUMPDEST PUSH1 0x20 MUL PUSH1 0x20 ADD ADD DUP2 DUP2 MSTORE POP POP DUP1 DUP1 PUSH1 0x1 ADD SWAP2 POP POP PUSH2 0x2645 JUMP JUMPDEST POP DUP1 SWAP2 POP POP SWAP2 SWAP1 POP JUMP JUMPDEST PUSH1 0x60 PUSH1 0x0 PUSH1 0xA DUP1 SLOAD SWAP1 POP PUSH8 0xFFFFFFFFFFFFFFFF DUP2 GT ISZERO PUSH2 0x26FC JUMPI PUSH2 0x26FB PUSH2 0x4BE2 JUMP JUMPDEST JUMPDEST PUSH1 0x40 MLOAD SWAP1 DUP1 DUP3 MSTORE DUP1 PUSH1 0x20 MUL PUSH1 0x20 ADD DUP3 ADD PUSH1 0x40 MSTORE DUP1 ISZERO PUSH2 0x272A JUMPI DUP2 PUSH1 0x20 ADD PUSH1 0x20 DUP3 MUL DUP1 CALLDATASIZE DUP4 CALLDATACOPY DUP1 DUP3 ADD SWAP2 POP POP SWAP1 POP JUMPDEST POP SWAP1 POP PUSH1 0x0 JUMPDEST PUSH1 0xA DUP1 SLOAD SWAP1 POP DUP2 LT ISZERO PUSH2 0x27BA JUMPI PUSH1 0xB PUSH1 0x0 DUP6 PUSH20 0xFFFFFFFFFFFFFFFFFFFFFFFFFFFFFFFFFFFFFFFF AND PUSH20 0xFFFFFFFFFFFFFFFFFFFFFFFFFFFFFFFFFFFFFFFF AND DUP2 MSTORE PUSH1 0x20 ADD SWAP1 DUP2 MSTORE PUSH1 0x20 ADD PUSH1 0x0 KECCAK256 PUSH1 0x0 DUP3 DUP2 MSTORE PUSH1 0x20 ADD SWAP1 DUP2 MSTORE PUSH1 0x20 ADD PUSH1 0x0 KECCAK256 SLOAD DUP3 DUP3 DUP2 MLOAD DUP2 LT PUSH2 0x27A1 JUMPI PUSH2 0x27A0 PUSH2 0x5307 JUMP JUMPDEST JUMPDEST PUSH1 0x20 MUL PUSH1 0x20 ADD ADD DUP2 DUP2 MSTORE POP POP DUP1 DUP1 PUSH1 0x1 ADD SWAP2 POP POP PUSH2 0x2730 JUMP JUMPDEST POP DUP1 SWAP2 POP POP SWAP2 SWAP1 POP JUMP JUMPDEST PUSH1 0x0 DUP1 PUSH1 0x0 SWAP1 SLOAD SWAP1 PUSH2 0x100 EXP SWAP1 DIV PUSH20 0xFFFFFFFFFFFFFFFFFFFFFFFFFFFFFFFFFFFFFFFF AND SWAP1 POP SWAP1 JUMP JUMPDEST PUSH1 0x7 PUSH1 0x0 SWAP1 SLOAD SWAP1 PUSH2 0x100 EXP SWAP1 DIV PUSH1 0xFF AND DUP2 JUMP JUMPDEST PUSH1 0x17 PUSH1 0x20 MSTORE DUP1 PUSH1 0x0 MSTORE PUSH1 0x40 PUSH1 0x0 KECCAK256 PUSH1 0x0 SWAP2 POP SWAP1 POP SLOAD DUP2 JUMP JUMPDEST PUSH1 0xD PUSH1 0x20 MSTORE DUP2 PUSH1 0x0 MSTORE PUSH1 0x40 PUSH1 0x0 KECCAK256 PUSH1 0x20 MSTORE DUP1 PUSH1 0x0 MSTORE PUSH1 0x40 PUSH1 0x0 KECCAK256 PUSH1 0x0 SWAP2 POP SWAP2 POP POP SLOAD DUP2 JUMP JUMPDEST PUSH1 0x6 SLOAD DUP2 JUMP JUMPDEST PUSH2 0x284B PUSH2 0x44D7 JUMP JUMPDEST DUP1 PUSH1 0x14 DUP2 SWAP1 SSTORE POP POP JUMP JUMPDEST PUSH1 0x1 PUSH1 0x0 SWAP1 SLOAD SWAP1 PUSH2 0x100 EXP SWAP1 DIV PUSH20 0xFFFFFFFFFFFFFFFFFFFFFFFFFFFFFFFFFFFFFFFF AND DUP2 JUMP JUMPDEST PUSH2 0x2883 PUSH2 0x44D7 JUMP JUMPDEST DUP1 PUSH1 0x2 PUSH1 0x0 PUSH2 0x100 EXP DUP2 SLOAD DUP2 PUSH20 0xFFFFFFFFFFFFFFFFFFFFFFFFFFFFFFFFFFFFFFFF MUL NOT AND SWAP1 DUP4 PUSH20 0xFFFFFFFFFFFFFFFFFFFFFFFFFFFFFFFFFFFFFFFF AND MUL OR SWAP1 SSTORE POP POP JUMP JUMPDEST PUSH1 0x23 PUSH1 0x20 MSTORE DUP1 PUSH1 0x0 MSTORE PUSH1 0x40 PUSH1 0x0 KECCAK256 PUSH1 0x0 SWAP2 POP SWAP1 POP SLOAD DUP2 JUMP JUMPDEST PUSH2 0x28E7 PUSH2 0x44D7 JUMP JUMPDEST PUSH1 0x1 PUSH1 0x27 PUSH1 0x14 PUSH2 0x100 EXP DUP2 SLOAD DUP2 PUSH1 0xFF MUL NOT AND SWAP1 DUP4 ISZERO ISZERO MUL OR SWAP1 SSTORE POP PUSH1 0x0 PUSH1 0x28 DUP2 SWAP1 SSTORE POP PUSH1 0xE SLOAD PUSH1 0x29 DUP2 SWAP1 SSTORE POP JUMP JUMPDEST PUSH1 0xA DUP2 DUP2 SLOAD DUP2 LT PUSH2 0x2925 JUMPI PUSH1 0x0 DUP1 REVERT JUMPDEST SWAP1 PUSH1 0x0 MSTORE PUSH1 0x20 PUSH1 0x0 KECCAK256 SWAP1 PUSH1 0x3 MUL ADD PUSH1 0x0 SWAP2 POP SWAP1 POP DUP1 PUSH1 0x0 ADD DUP1 SLOAD PUSH2 0x2948 SWAP1 PUSH2 0x559C JUMP JUMPDEST DUP1 PUSH1 0x1F ADD PUSH1 0x20 DUP1 SWAP2 DIV MUL PUSH1 0x20 ADD PUSH1 0x40 MLOAD SWAP1 DUP2 ADD PUSH1 0x40 MSTORE DUP1 SWAP3 SWAP2 SWAP1 DUP2 DUP2 MSTORE PUSH1 0x20 ADD DUP3 DUP1 SLOAD PUSH2 0x2974 SWAP1 PUSH2 0x559C JUMP JUMPDEST DUP1 ISZERO PUSH2 0x29C1 JUMPI DUP1 PUSH1 0x1F LT PUSH2 0x2996 JUMPI PUSH2 0x100 DUP1 DUP4 SLOAD DIV MUL DUP4 MSTORE SWAP2 PUSH1 0x20 ADD SWAP2 PUSH2 0x29C1 JUMP JUMPDEST DUP3 ADD SWAP2 SWAP1 PUSH1 0x0 MSTORE PUSH1 0x20 PUSH1 0x0 KECCAK256 SWAP1 JUMPDEST DUP2 SLOAD DUP2 MSTORE SWAP1 PUSH1 0x1 ADD SWAP1 PUSH1 0x20 ADD DUP1 DUP4 GT PUSH2 0x29A4 JUMPI DUP3 SWAP1 SUB PUSH1 0x1F AND DUP3 ADD SWAP2 JUMPDEST POP POP POP POP POP SWAP1 DUP1 PUSH1 0x1 ADD SLOAD SWAP1 DUP1 PUSH1 0x2 ADD SLOAD SWAP1 POP DUP4 JUMP JUMPDEST PUSH1 0x8 DUP2 DUP2 SLOAD DUP2 LT PUSH2 0x29E7 JUMPI PUSH1 0x0 DUP1 REVERT JUMPDEST SWAP1 PUSH1 0x0 MSTORE PUSH1 0x20 PUSH1 0x0 KECCAK256 ADD PUSH1 0x0 SWAP2 POP SLOAD SWAP1 PUSH2 0x100 EXP SWAP1 DIV PUSH20 0xFFFFFFFFFFFFFFFFFFFFFFFFFFFFFFFFFFFFFFFF AND DUP2 JUMP JUMPDEST PUSH1 0x24 PUSH1 0x20 MSTORE DUP1 PUSH1 0x0 MSTORE PUSH1 0x40 PUSH1 0x0 KECCAK256 PUSH1 0x0 SWAP2 POP SWAP1 POP SLOAD DUP2 JUMP JUMPDEST PUSH1 0x26 PUSH1 0x1 SWAP1 SLOAD SWAP1 PUSH2 0x100 EXP SWAP1 DIV PUSH20 0xFFFFFFFFFFFFFFFFFFFFFFFFFFFFFFFFFFFFFFFF AND DUP2 JUMP JUMPDEST PUSH1 0x14 SLOAD DUP2 JUMP JUMPDEST PUSH2 0x2A62 PUSH2 0x44D7 JUMP JUMPDEST PUSH1 0x27 PUSH1 0x14 SWAP1 SLOAD SWAP1 PUSH2 0x100 EXP SWAP1 DIV PUSH1 0xFF AND PUSH2 0x2AB1 JUMPI PUSH1 0x40 MLOAD PUSH32 0x8C379A000000000000000000000000000000000000000000000000000000000 DUP2 MSTORE PUSH1 0x4 ADD PUSH2 0x2AA8 SWAP1 PUSH2 0x5AC4 JUMP JUMPDEST PUSH1 0x40 MLOAD DUP1 SWAP2 SUB SWAP1 REVERT JUMPDEST PUSH1 0x0 PUSH1 0x8 DUP1 SLOAD SWAP1 POP PUSH1 0x64 PUSH1 0x28 SLOAD PUSH2 0x2AC8 SWAP2 SWAP1 PUSH2 0x5365 JUMP JUMPDEST LT PUSH2 0x2AF5 JUMPI PUSH1 0x8 DUP1 SLOAD SWAP1 POP SWAP1 POP PUSH1 0x0 PUSH1 0x27 PUSH1 0x14 PUSH2 0x100 EXP DUP2 SLOAD DUP2 PUSH1 0xFF MUL NOT AND SWAP1 DUP4 ISZERO ISZERO MUL OR SWAP1 SSTORE POP PUSH2 0x2B07 JUMP JUMPDEST PUSH1 0x64 PUSH1 0x28 SLOAD PUSH2 0x2B04 SWAP2 SWAP1 PUSH2 0x5365 JUMP JUMPDEST SWAP1 POP JUMPDEST PUSH1 0x0 PUSH1 0x28 SLOAD SWAP1 POP JUMPDEST DUP2 DUP2 LT ISZERO PUSH2 0x2BE5 JUMPI PUSH1 0x0 PUSH1 0x8 DUP3 DUP2 SLOAD DUP2 LT PUSH2 0x2B2D JUMPI PUSH2 0x2B2C PUSH2 0x5307 JUMP JUMPDEST JUMPDEST SWAP1 PUSH1 0x0 MSTORE PUSH1 0x20 PUSH1 0x0 KECCAK256 ADD PUSH1 0x0 SWAP1 SLOAD SWAP1 PUSH2 0x100 EXP SWAP1 DIV PUSH20 0xFFFFFFFFFFFFFFFFFFFFFFFFFFFFFFFFFFFFFFFF AND SWAP1 POP PUSH1 0x0 PUSH2 0x2B65 DUP3 PUSH2 0x15E5 JUMP JUMPDEST SWAP1 POP DUP1 PUSH1 0xE PUSH1 0x0 DUP3 DUP3 SLOAD PUSH2 0x2B79 SWAP2 SWAP1 PUSH2 0x5399 JUMP JUMPDEST SWAP3 POP POP DUP2 SWAP1 SSTORE POP DUP1 PUSH1 0x19 PUSH1 0x0 DUP5 PUSH20 0xFFFFFFFFFFFFFFFFFFFFFFFFFFFFFFFFFFFFFFFF AND PUSH20 0xFFFFFFFFFFFFFFFFFFFFFFFFFFFFFFFFFFFFFFFF AND DUP2 MSTORE PUSH1 0x20 ADD SWAP1 DUP2 MSTORE PUSH1 0x20 ADD PUSH1 0x0 KECCAK256 PUSH1 0x0 DUP3 DUP3 SLOAD PUSH2 0x2BCF SWAP2 SWAP1 PUSH2 0x5365 JUMP JUMPDEST SWAP3 POP POP DUP2 SWAP1 SSTORE POP POP POP DUP1 DUP1 PUSH1 0x1 ADD SWAP2 POP POP PUSH2 0x2B0F JUMP JUMPDEST POP DUP1 PUSH1 0x28 DUP2 SWAP1 SSTORE POP POP JUMP JUMPDEST PUSH1 0x21 SLOAD DUP2 JUMP JUMPDEST PUSH2 0x2BFE PUSH2 0x44D7 JUMP JUMPDEST PUSH1 0x0 DUP4 LT ISZERO DUP1 ISZERO PUSH2 0x2C10 JUMPI POP PUSH1 0x14 DUP4 GT ISZERO JUMPDEST PUSH2 0x2C4F JUMPI PUSH1 0x40 MLOAD PUSH32 0x8C379A000000000000000000000000000000000000000000000000000000000 DUP2 MSTORE PUSH1 0x4 ADD PUSH2 0x2C46 SWAP1 PUSH2 0x5B30 JUMP JUMPDEST PUSH1 0x40 MLOAD DUP1 SWAP2 SUB SWAP1 REVERT JUMPDEST DUP3 PUSH1 0x1F DUP2 SWAP1 SSTORE POP PUSH1 0x0 DUP3 LT ISZERO DUP1 ISZERO PUSH2 0x2C68 JUMPI POP PUSH1 0x14 DUP3 GT ISZERO JUMPDEST PUSH2 0x2CA7 JUMPI PUSH1 0x40 MLOAD PUSH32 0x8C379A000000000000000000000000000000000000000000000000000000000 DUP2 MSTORE PUSH1 0x4 ADD PUSH2 0x2C9E SWAP1 PUSH2 0x5B30 JUMP JUMPDEST PUSH1 0x40 MLOAD DUP1 SWAP2 SUB SWAP1 REVERT JUMPDEST DUP2 PUSH1 0x20 DUP2 SWAP1 SSTORE POP PUSH1 0x0 DUP2 LT ISZERO DUP1 ISZERO PUSH2 0x2CC0 JUMPI POP PUSH1 0x14 DUP2 GT ISZERO JUMPDEST PUSH2 0x2CFF JUMPI PUSH1 0x40 MLOAD PUSH32 0x8C379A000000000000000000000000000000000000000000000000000000000 DUP2 MSTORE PUSH1 0x4 ADD PUSH2 0x2CF6 SWAP1 PUSH2 0x5B30 JUMP JUMPDEST PUSH1 0x40 MLOAD DUP1 SWAP2 SUB SWAP1 REVERT JUMPDEST DUP1 PUSH1 0x21 DUP2 SWAP1 SSTORE POP POP POP POP JUMP JUMPDEST PUSH1 0xB PUSH1 0x20 MSTORE DUP2 PUSH1 0x0 MSTORE PUSH1 0x40 PUSH1 0x0 KECCAK256 PUSH1 0x20 MSTORE DUP1 PUSH1 0x0 MSTORE PUSH1 0x40 PUSH1 0x0 KECCAK256 PUSH1 0x0 SWAP2 POP SWAP2 POP POP SLOAD DUP2 JUMP JUMPDEST PUSH1 0x1D PUSH1 0x20 MSTORE DUP1 PUSH1 0x0 MSTORE PUSH1 0x40 PUSH1 0x0 KECCAK256 PUSH1 0x0 SWAP2 POP SWAP1 POP SLOAD DUP2 JUMP JUMPDEST PUSH1 0x10 SLOAD DUP2 JUMP JUMPDEST PUSH2 0x2D56 PUSH2 0x44D7 JUMP JUMPDEST PUSH1 0x3 PUSH1 0x0 SWAP1 SLOAD SWAP1 PUSH2 0x100 EXP SWAP1 DIV PUSH20 0xFFFFFFFFFFFFFFFFFFFFFFFFFFFFFFFFFFFFFFFF AND PUSH20 0xFFFFFFFFFFFFFFFFFFFFFFFFFFFFFFFFFFFFFFFF AND PUSH4 0x23B872DD PUSH1 0x1 PUSH1 0x0 SWAP1 SLOAD SWAP1 PUSH2 0x100 EXP SWAP1 DIV PUSH20 0xFFFFFFFFFFFFFFFFFFFFFFFFFFFFFFFFFFFFFFFF AND DUP5 PUSH8 0xDE0B6B3A7640000 DUP6 PUSH2 0x2DCC SWAP2 SWAP1 PUSH2 0x54CB JUMP JUMPDEST PUSH1 0x40 MLOAD DUP5 PUSH4 0xFFFFFFFF AND PUSH1 0xE0 SHL DUP2 MSTORE PUSH1 0x4 ADD PUSH2 0x2DEA SWAP4 SWAP3 SWAP2 SWAP1 PUSH2 0x5B71 JUMP JUMPDEST PUSH1 0x20 PUSH1 0x40 MLOAD DUP1 DUP4 SUB DUP2 PUSH1 0x0 DUP8 GAS CALL ISZERO DUP1 ISZERO PUSH2 0x2E09 JUMPI RETURNDATASIZE PUSH1 0x0 DUP1 RETURNDATACOPY RETURNDATASIZE PUSH1 0x0 REVERT JUMPDEST POP POP POP POP PUSH1 0x40 MLOAD RETURNDATASIZE PUSH1 0x1F NOT PUSH1 0x1F DUP3 ADD AND DUP3 ADD DUP1 PUSH1 0x40 MSTORE POP DUP2 ADD SWAP1 PUSH2 0x2E2D SWAP2 SWAP1 PUSH2 0x564E JUMP JUMPDEST POP DUP1 PUSH1 0x9 PUSH1 0x0 DUP5 PUSH20 0xFFFFFFFFFFFFFFFFFFFFFFFFFFFFFFFFFFFFFFFF AND PUSH20 0xFFFFFFFFFFFFFFFFFFFFFFFFFFFFFFFFFFFFFFFF AND DUP2 MSTORE PUSH1 0x20 ADD SWAP1 DUP2 MSTORE PUSH1 0x20 ADD PUSH1 0x0 KECCAK256 PUSH1 0x0 DUP3 DUP3 SLOAD PUSH2 0x2E7D SWAP2 SWAP1 PUSH2 0x5365 JUMP JUMPDEST SWAP3 POP POP DUP2 SWAP1 SSTORE POP POP POP JUMP JUMPDEST PUSH1 0x25 PUSH1 0x20 MSTORE DUP1 PUSH1 0x0 MSTORE PUSH1 0x40 PUSH1 0x0 KECCAK256 PUSH1 0x0 SWAP2 POP SWAP1 POP SLOAD DUP2 JUMP JUMPDEST PUSH1 0x1F SLOAD DUP2 JUMP JUMPDEST PUSH1 0x0 PUSH1 0x19 PUSH1 0x0 CALLER PUSH20 0xFFFFFFFFFFFFFFFFFFFFFFFFFFFFFFFFFFFFFFFF AND PUSH20 0xFFFFFFFFFFFFFFFFFFFFFFFFFFFFFFFFFFFFFFFF AND DUP2 MSTORE PUSH1 0x20 ADD SWAP1 DUP2 MSTORE PUSH1 0x20 ADD PUSH1 0x0 KECCAK256 SLOAD SWAP1 POP PUSH1 0x0 DUP2 GT PUSH2 0x2F2D JUMPI PUSH1 0x40 MLOAD PUSH32 0x8C379A000000000000000000000000000000000000000000000000000000000 DUP2 MSTORE PUSH1 0x4 ADD PUSH2 0x2F24 SWAP1 PUSH2 0x5BF4 JUMP JUMPDEST PUSH1 0x40 MLOAD DUP1 SWAP2 SUB SWAP1 REVERT JUMPDEST PUSH1 0x0 PUSH1 0x19 PUSH1 0x0 CALLER PUSH20 0xFFFFFFFFFFFFFFFFFFFFFFFFFFFFFFFFFFFFFFFF AND PUSH20 0xFFFFFFFFFFFFFFFFFFFFFFFFFFFFFFFFFFFFFFFF AND DUP2 MSTORE PUSH1 0x20 ADD SWAP1 DUP2 MSTORE PUSH1 0x20 ADD PUSH1 0x0 KECCAK256 DUP2 SWAP1 SSTORE POP DUP1 PUSH1 0x1A PUSH1 0x0 CALLER PUSH20 0xFFFFFFFFFFFFFFFFFFFFFFFFFFFFFFFFFFFFFFFF AND PUSH20 0xFFFFFFFFFFFFFFFFFFFFFFFFFFFFFFFFFFFFFFFF AND DUP2 MSTORE PUSH1 0x20 ADD SWAP1 DUP2 MSTORE PUSH1 0x20 ADD PUSH1 0x0 KECCAK256 PUSH1 0x0 DUP3 DUP3 SLOAD PUSH2 0x2FC1 SWAP2 SWAP1 PUSH2 0x5365 JUMP JUMPDEST SWAP3 POP POP DUP2 SWAP1 SSTORE POP CALLER PUSH20 0xFFFFFFFFFFFFFFFFFFFFFFFFFFFFFFFFFFFFFFFF AND PUSH2 0x8FC DUP3 SWAP1 DUP2 ISZERO MUL SWAP1 PUSH1 0x40 MLOAD PUSH1 0x0 PUSH1 0x40 MLOAD DUP1 DUP4 SUB DUP2 DUP6 DUP9 DUP9 CALL SWAP4 POP POP POP POP ISZERO DUP1 ISZERO PUSH2 0x300E JUMPI RETURNDATASIZE PUSH1 0x0 DUP1 RETURNDATACOPY RETURNDATASIZE PUSH1 0x0 REVERT JUMPDEST POP CALLER PUSH20 0xFFFFFFFFFFFFFFFFFFFFFFFFFFFFFFFFFFFFFFFF AND PUSH32 0x7BCFB0598E7CD0B03E8472440B7E292B4767743DDEB0579A65BE466B40C8B0F3 DUP3 PUSH1 0x40 MLOAD PUSH2 0x3055 SWAP2 SWAP1 PUSH2 0x49C7 JUMP JUMPDEST PUSH1 0x40 MLOAD DUP1 SWAP2 SUB SWAP1 LOG2 POP JUMP JUMPDEST PUSH1 0xE SLOAD DUP2 JUMP JUMPDEST PUSH1 0x0 PUSH1 0x26 PUSH1 0x0 SWAP1 SLOAD SWAP1 PUSH2 0x100 EXP SWAP1 DIV PUSH1 0xFF AND ISZERO PUSH2 0x317B JUMPI PUSH1 0x0 PUSH20 0xFFFFFFFFFFFFFFFFFFFFFFFFFFFFFFFFFFFFFFFF AND PUSH1 0x26 PUSH1 0x1 SWAP1 SLOAD SWAP1 PUSH2 0x100 EXP SWAP1 DIV PUSH20 0xFFFFFFFFFFFFFFFFFFFFFFFFFFFFFFFFFFFFFFFF AND PUSH20 0xFFFFFFFFFFFFFFFFFFFFFFFFFFFFFFFFFFFFFFFF AND EQ ISZERO DUP1 ISZERO PUSH2 0x3174 JUMPI POP PUSH1 0x26 PUSH1 0x1 SWAP1 SLOAD SWAP1 PUSH2 0x100 EXP SWAP1 DIV PUSH20 0xFFFFFFFFFFFFFFFFFFFFFFFFFFFFFFFFFFFFFFFF AND PUSH20 0xFFFFFFFFFFFFFFFFFFFFFFFFFFFFFFFFFFFFFFFF AND PUSH4 0x3AF32ABF DUP4 PUSH1 0x40 MLOAD DUP3 PUSH4 0xFFFFFFFF AND PUSH1 0xE0 SHL DUP2 MSTORE PUSH1 0x4 ADD PUSH2 0x3132 SWAP2 SWAP1 PUSH2 0x518E JUMP JUMPDEST PUSH1 0x20 PUSH1 0x40 MLOAD DUP1 DUP4 SUB DUP2 DUP7 GAS STATICCALL ISZERO DUP1 ISZERO PUSH2 0x314F JUMPI RETURNDATASIZE PUSH1 0x0 DUP1 RETURNDATACOPY RETURNDATASIZE PUSH1 0x0 REVERT JUMPDEST POP POP POP POP PUSH1 0x40 MLOAD RETURNDATASIZE PUSH1 0x1F NOT PUSH1 0x1F DUP3 ADD AND DUP3 ADD DUP1 PUSH1 0x40 MSTORE POP DUP2 ADD SWAP1 PUSH2 0x3173 SWAP2 SWAP1 PUSH2 0x564E JUMP JUMPDEST JUMPDEST SWAP1 POP PUSH2 0x3310 JUMP JUMPDEST PUSH1 0x0 PUSH20 0xFFFFFFFFFFFFFFFFFFFFFFFFFFFFFFFFFFFFFFFF AND PUSH1 0x27 PUSH1 0x0 SWAP1 SLOAD SWAP1 PUSH2 0x100 EXP SWAP1 DIV PUSH20 0xFFFFFFFFFFFFFFFFFFFFFFFFFFFFFFFFFFFFFFFF AND PUSH20 0xFFFFFFFFFFFFFFFFFFFFFFFFFFFFFFFFFFFFFFFF AND EQ ISZERO DUP1 ISZERO PUSH2 0x3272 JUMPI POP PUSH1 0x27 PUSH1 0x0 SWAP1 SLOAD SWAP1 PUSH2 0x100 EXP SWAP1 DIV PUSH20 0xFFFFFFFFFFFFFFFFFFFFFFFFFFFFFFFFFFFFFFFF AND PUSH20 0xFFFFFFFFFFFFFFFFFFFFFFFFFFFFFFFFFFFFFFFF AND PUSH4 0x3AF32ABF DUP4 PUSH1 0x40 MLOAD DUP3 PUSH4 0xFFFFFFFF AND PUSH1 0xE0 SHL DUP2 MSTORE PUSH1 0x4 ADD PUSH2 0x3230 SWAP2 SWAP1 PUSH2 0x518E JUMP JUMPDEST PUSH1 0x20 PUSH1 0x40 MLOAD DUP1 DUP4 SUB DUP2 DUP7 GAS STATICCALL ISZERO DUP1 ISZERO PUSH2 0x324D JUMPI RETURNDATASIZE PUSH1 0x0 DUP1 RETURNDATACOPY RETURNDATASIZE PUSH1 0x0 REVERT JUMPDEST POP POP POP POP PUSH1 0x40 MLOAD RETURNDATASIZE PUSH1 0x1F NOT PUSH1 0x1F DUP3 ADD AND DUP3 ADD DUP1 PUSH1 0x40 MSTORE POP DUP2 ADD SWAP1 PUSH2 0x3271 SWAP2 SWAP1 PUSH2 0x564E JUMP JUMPDEST JUMPDEST DUP1 PUSH2 0x330D JUMPI POP PUSH1 0x0 PUSH1 0x1E PUSH1 0x0 DUP5 PUSH20 0xFFFFFFFFFFFFFFFFFFFFFFFFFFFFFFFFFFFFFFFF AND PUSH20 0xFFFFFFFFFFFFFFFFFFFFFFFFFFFFFFFFFFFFFFFF AND DUP2 MSTORE PUSH1 0x20 ADD SWAP1 DUP2 MSTORE PUSH1 0x20 ADD PUSH1 0x0 KECCAK256 SLOAD GT DUP1 ISZERO PUSH2 0x330C JUMPI POP PUSH2 0x32CA PUSH2 0x127D JUMP JUMPDEST PUSH1 0x1E PUSH1 0x0 DUP5 PUSH20 0xFFFFFFFFFFFFFFFFFFFFFFFFFFFFFFFFFFFFFFFF AND PUSH20 0xFFFFFFFFFFFFFFFFFFFFFFFFFFFFFFFFFFFFFFFF AND DUP2 MSTORE PUSH1 0x20 ADD SWAP1 DUP2 MSTORE PUSH1 0x20 ADD PUSH1 0x0 KECCAK256 SLOAD LT JUMPDEST JUMPDEST SWAP1 POP JUMPDEST SWAP2 SWAP1 POP JUMP JUMPDEST PUSH2 0x331D PUSH2 0x44D7 JUMP JUMPDEST DUP1 PUSH1 0x26 PUSH1 0x0 PUSH2 0x100 EXP DUP2 SLOAD DUP2 PUSH1 0xFF MUL NOT AND SWAP1 DUP4 ISZERO ISZERO MUL OR SWAP1 SSTORE POP POP JUMP JUMPDEST PUSH1 0x0 PUSH1 0xA DUP4 DUP2 SLOAD DUP2 LT PUSH2 0x3350 JUMPI PUSH2 0x334F PUSH2 0x5307 JUMP JUMPDEST JUMPDEST SWAP1 PUSH1 0x0 MSTORE PUSH1 0x20 PUSH1 0x0 KECCAK256 SWAP1 PUSH1 0x3 MUL ADD PUSH1 0x1 ADD SLOAD GT PUSH2 0x33A2 JUMPI PUSH1 0x40 MLOAD PUSH32 0x8C379A000000000000000000000000000000000000000000000000000000000 DUP2 MSTORE PUSH1 0x4 ADD PUSH2 0x3399 SWAP1 PUSH2 0x5C60 JUMP JUMPDEST PUSH1 0x40 MLOAD DUP1 SWAP2 SUB SWAP1 REVERT JUMPDEST PUSH1 0x27 PUSH1 0x14 SWAP1 SLOAD SWAP1 PUSH2 0x100 EXP SWAP1 DIV PUSH1 0xFF AND ISZERO PUSH2 0x33F2 JUMPI PUSH1 0x40 MLOAD PUSH32 0x8C379A000000000000000000000000000000000000000000000000000000000 DUP2 MSTORE PUSH1 0x4 ADD PUSH2 0x33E9 SWAP1 PUSH2 0x54AB JUMP JUMPDEST PUSH1 0x40 MLOAD DUP1 SWAP2 SUB SWAP1 REVERT JUMPDEST PUSH1 0x0 DUP2 PUSH1 0xA DUP5 DUP2 SLOAD DUP2 LT PUSH2 0x3409 JUMPI PUSH2 0x3408 PUSH2 0x5307 JUMP JUMPDEST JUMPDEST SWAP1 PUSH1 0x0 MSTORE PUSH1 0x20 PUSH1 0x0 KECCAK256 SWAP1 PUSH1 0x3 MUL ADD PUSH1 0x2 ADD SLOAD PUSH2 0x3425 SWAP2 SWAP1 PUSH2 0x54CB JUMP JUMPDEST SWAP1 POP PUSH1 0x0 DUP3 PUSH1 0xA DUP6 DUP2 SLOAD DUP2 LT PUSH2 0x343E JUMPI PUSH2 0x343D PUSH2 0x5307 JUMP JUMPDEST JUMPDEST SWAP1 PUSH1 0x0 MSTORE PUSH1 0x20 PUSH1 0x0 KECCAK256 SWAP1 PUSH1 0x3 MUL ADD PUSH1 0x1 ADD SLOAD PUSH2 0x345A SWAP2 SWAP1 PUSH2 0x54CB JUMP JUMPDEST SWAP1 POP PUSH2 0x3465 CALLER PUSH2 0x4274 JUMP JUMPDEST DUP2 PUSH1 0x11 PUSH1 0x0 DUP3 DUP3 SLOAD PUSH2 0x3477 SWAP2 SWAP1 PUSH2 0x5365 JUMP JUMPDEST SWAP3 POP POP DUP2 SWAP1 SSTORE POP DUP1 PUSH1 0xF PUSH1 0x0 DUP3 DUP3 SLOAD PUSH2 0x3490 SWAP2 SWAP1 PUSH2 0x5365 JUMP JUMPDEST SWAP3 POP POP DUP2 SWAP1 SSTORE POP PUSH2 0x34A1 CALLER DUP4 PUSH2 0x47A7 JUMP JUMPDEST DUP3 PUSH1 0xB PUSH1 0x0 CALLER PUSH20 0xFFFFFFFFFFFFFFFFFFFFFFFFFFFFFFFFFFFFFFFF AND PUSH20 0xFFFFFFFFFFFFFFFFFFFFFFFFFFFFFFFFFFFFFFFF AND DUP2 MSTORE PUSH1 0x20 ADD SWAP1 DUP2 MSTORE PUSH1 0x20 ADD PUSH1 0x0 KECCAK256 PUSH1 0x0 DUP7 DUP2 MSTORE PUSH1 0x20 ADD SWAP1 DUP2 MSTORE PUSH1 0x20 ADD PUSH1 0x0 KECCAK256 PUSH1 0x0 DUP3 DUP3 SLOAD PUSH2 0x3501 SWAP2 SWAP1 PUSH2 0x5365 JUMP JUMPDEST SWAP3 POP POP DUP2 SWAP1 SSTORE POP DUP1 PUSH1 0x15 PUSH1 0x0 CALLER PUSH20 0xFFFFFFFFFFFFFFFFFFFFFFFFFFFFFFFFFFFFFFFF AND PUSH20 0xFFFFFFFFFFFFFFFFFFFFFFFFFFFFFFFFFFFFFFFF AND DUP2 MSTORE PUSH1 0x20 ADD SWAP1 DUP2 MSTORE PUSH1 0x20 ADD PUSH1 0x0 KECCAK256 PUSH1 0x0 DUP3 DUP3 SLOAD PUSH2 0x3557 SWAP2 SWAP1 PUSH2 0x5365 JUMP JUMPDEST SWAP3 POP POP DUP2 SWAP1 SSTORE POP POP POP POP POP JUMP JUMPDEST PUSH1 0x18 PUSH1 0x20 MSTORE DUP1 PUSH1 0x0 MSTORE PUSH1 0x40 PUSH1 0x0 KECCAK256 PUSH1 0x0 SWAP2 POP SWAP1 POP SLOAD DUP2 JUMP JUMPDEST PUSH1 0x1A PUSH1 0x20 MSTORE DUP1 PUSH1 0x0 MSTORE PUSH1 0x40 PUSH1 0x0 KECCAK256 PUSH1 0x0 SWAP2 POP SWAP1 POP SLOAD DUP2 JUMP JUMPDEST PUSH1 0x0 PUSH1 0xA DUP4 DUP2 SLOAD DUP2 LT PUSH2 0x35AA JUMPI PUSH2 0x35A9 PUSH2 0x5307 JUMP JUMPDEST JUMPDEST SWAP1 PUSH1 0x0 MSTORE PUSH1 0x20 PUSH1 0x0 KECCAK256 SWAP1 PUSH1 0x3 MUL ADD PUSH1 0x1 ADD SLOAD GT PUSH2 0x35C6 JUMPI PUSH1 0x0 DUP1 REVERT JUMPDEST DUP1 PUSH1 0xB PUSH1 0x0 CALLER PUSH20 0xFFFFFFFFFFFFFFFFFFFFFFFFFFFFFFFFFFFFFFFF AND PUSH20 0xFFFFFFFFFFFFFFFFFFFFFFFFFFFFFFFFFFFFFFFF AND DUP2 MSTORE PUSH1 0x20 ADD SWAP1 DUP2 MSTORE PUSH1 0x20 ADD PUSH1 0x0 KECCAK256 PUSH1 0x0 DUP5 DUP2 MSTORE PUSH1 0x20 ADD SWAP1 DUP2 MSTORE PUSH1 0x20 ADD PUSH1 0x0 KECCAK256 SLOAD LT ISZERO PUSH2 0x3659 JUMPI PUSH1 0x40 MLOAD PUSH32 0x8C379A000000000000000000000000000000000000000000000000000000000 DUP2 MSTORE PUSH1 0x4 ADD PUSH2 0x3650 SWAP1 PUSH2 0x5CCC JUMP JUMPDEST PUSH1 0x40 MLOAD DUP1 SWAP2 SUB SWAP1 REVERT JUMPDEST PUSH1 0x27 PUSH1 0x14 SWAP1 SLOAD SWAP1 PUSH2 0x100 EXP SWAP1 DIV PUSH1 0xFF AND ISZERO PUSH2 0x36A9 JUMPI PUSH1 0x40 MLOAD PUSH32 0x8C379A000000000000000000000000000000000000000000000000000000000 DUP2 MSTORE PUSH1 0x4 ADD PUSH2 0x36A0 SWAP1 PUSH2 0x54AB JUMP JUMPDEST PUSH1 0x40 MLOAD DUP1 SWAP2 SUB SWAP1 REVERT JUMPDEST PUSH1 0x0 DUP2 PUSH1 0xA DUP5 DUP2 SLOAD DUP2 LT PUSH2 0x36C0 JUMPI PUSH2 0x36BF PUSH2 0x5307 JUMP JUMPDEST JUMPDEST SWAP1 PUSH1 0x0 MSTORE PUSH1 0x20 PUSH1 0x0 KECCAK256 SWAP1 PUSH1 0x3 MUL ADD PUSH1 0x2 ADD SLOAD PUSH2 0x36DC SWAP2 SWAP1 PUSH2 0x54CB JUMP JUMPDEST SWAP1 POP PUSH1 0x0 DUP3 PUSH1 0xA DUP6 DUP2 SLOAD DUP2 LT PUSH2 0x36F5 JUMPI PUSH2 0x36F4 PUSH2 0x5307 JUMP JUMPDEST JUMPDEST SWAP1 PUSH1 0x0 MSTORE PUSH1 0x20 PUSH1 0x0 KECCAK256 SWAP1 PUSH1 0x3 MUL ADD PUSH1 0x1 ADD SLOAD PUSH2 0x3711 SWAP2 SWAP1 PUSH2 0x54CB JUMP JUMPDEST SWAP1 POP PUSH2 0x371C CALLER PUSH2 0x4274 JUMP JUMPDEST DUP1 PUSH1 0xF PUSH1 0x0 DUP3 DUP3 SLOAD PUSH2 0x372E SWAP2 SWAP1 PUSH2 0x5399 JUMP JUMPDEST SWAP3 POP POP DUP2 SWAP1 SSTORE POP DUP2 PUSH1 0x11 PUSH1 0x0 DUP3 DUP3 SLOAD PUSH2 0x3747 SWAP2 SWAP1 PUSH2 0x5399 JUMP JUMPDEST SWAP3 POP POP DUP2 SWAP1 SSTORE POP PUSH2 0x3758 CALLER DUP4 PUSH2 0x43A5 JUMP JUMPDEST DUP3 PUSH1 0xB PUSH1 0x0 CALLER PUSH20 0xFFFFFFFFFFFFFFFFFFFFFFFFFFFFFFFFFFFFFFFF AND PUSH20 0xFFFFFFFFFFFFFFFFFFFFFFFFFFFFFFFFFFFFFFFF AND DUP2 MSTORE PUSH1 0x20 ADD SWAP1 DUP2 MSTORE PUSH1 0x20 ADD PUSH1 0x0 KECCAK256 PUSH1 0x0 DUP7 DUP2 MSTORE PUSH1 0x20 ADD SWAP1 DUP2 MSTORE PUSH1 0x20 ADD PUSH1 0x0 KECCAK256 PUSH1 0x0 DUP3 DUP3 SLOAD PUSH2 0x37B8 SWAP2 SWAP1 PUSH2 0x5399 JUMP JUMPDEST SWAP3 POP POP DUP2 SWAP1 SSTORE POP DUP1 PUSH1 0x15 PUSH1 0x0 CALLER PUSH20 0xFFFFFFFFFFFFFFFFFFFFFFFFFFFFFFFFFFFFFFFF AND PUSH20 0xFFFFFFFFFFFFFFFFFFFFFFFFFFFFFFFFFFFFFFFF AND DUP2 MSTORE PUSH1 0x20 ADD SWAP1 DUP2 MSTORE PUSH1 0x20 ADD PUSH1 0x0 KECCAK256 PUSH1 0x0 DUP3 DUP3 SLOAD PUSH2 0x380E SWAP2 SWAP1 PUSH2 0x5399 JUMP JUMPDEST SWAP3 POP POP DUP2 SWAP1 SSTORE POP POP POP POP POP JUMP JUMPDEST PUSH2 0x3823 PUSH2 0x44D7 JUMP JUMPDEST PUSH1 0x0 PUSH20 0xFFFFFFFFFFFFFFFFFFFFFFFFFFFFFFFFFFFFFFFF AND DUP2 PUSH20 0xFFFFFFFFFFFFFFFFFFFFFFFFFFFFFFFFFFFFFFFF AND SUB PUSH2 0x3895 JUMPI PUSH1 0x0 PUSH1 0x40 MLOAD PUSH32 0x1E4FBDF700000000000000000000000000000000000000000000000000000000 DUP2 MSTORE PUSH1 0x4 ADD PUSH2 0x388C SWAP2 SWAP1 PUSH2 0x518E JUMP JUMPDEST PUSH1 0x40 MLOAD DUP1 SWAP2 SUB SWAP1 REVERT JUMPDEST PUSH2 0x389E DUP2 PUSH2 0x455E JUMP JUMPDEST POP JUMP JUMPDEST PUSH1 0x0 PUSH1 0xC DUP4 DUP2 SLOAD DUP2 LT PUSH2 0x38B7 JUMPI PUSH2 0x38B6 PUSH2 0x5307 JUMP JUMPDEST JUMPDEST SWAP1 PUSH1 0x0 MSTORE PUSH1 0x20 PUSH1 0x0 KECCAK256 SWAP1 PUSH1 0x3 MUL ADD PUSH1 0x1 ADD SLOAD GT PUSH2 0x38D3 JUMPI PUSH1 0x0 DUP1 REVERT JUMPDEST PUSH1 0x27 PUSH1 0x14 SWAP1 SLOAD SWAP1 PUSH2 0x100 EXP SWAP1 DIV PUSH1 0xFF AND ISZERO PUSH2 0x3923 JUMPI PUSH1 0x40 MLOAD PUSH32 0x8C379A000000000000000000000000000000000000000000000000000000000 DUP2 MSTORE PUSH1 0x4 ADD PUSH2 0x391A SWAP1 PUSH2 0x54AB JUMP JUMPDEST PUSH1 0x40 MLOAD DUP1 SWAP2 SUB SWAP1 REVERT JUMPDEST PUSH2 0x392C CALLER PUSH2 0x4274 JUMP JUMPDEST PUSH1 0x0 DUP2 PUSH1 0xC DUP5 DUP2 SLOAD DUP2 LT PUSH2 0x3943 JUMPI PUSH2 0x3942 PUSH2 0x5307 JUMP JUMPDEST JUMPDEST SWAP1 PUSH1 0x0 MSTORE PUSH1 0x20 PUSH1 0x0 KECCAK256 SWAP1 PUSH1 0x3 MUL ADD PUSH1 0x1 ADD SLOAD PUSH2 0x395F SWAP2 SWAP1 PUSH2 0x54CB JUMP JUMPDEST SWAP1 POP PUSH1 0x0 DUP3 PUSH1 0xC DUP6 DUP2 SLOAD DUP2 LT PUSH2 0x3978 JUMPI PUSH2 0x3977 PUSH2 0x5307 JUMP JUMPDEST JUMPDEST SWAP1 PUSH1 0x0 MSTORE PUSH1 0x20 PUSH1 0x0 KECCAK256 SWAP1 PUSH1 0x3 MUL ADD PUSH1 0x2 ADD SLOAD PUSH2 0x3994 SWAP2 SWAP1 PUSH2 0x54CB JUMP JUMPDEST SWAP1 POP PUSH1 0x0 PUSH1 0x13 SLOAD DUP3 PUSH1 0x12 SLOAD PUSH2 0x39A9 SWAP2 SWAP1 PUSH2 0x54CB JUMP JUMPDEST PUSH2 0x39B3 SWAP2 SWAP1 PUSH2 0x553C JUMP JUMPDEST SWAP1 POP DUP2 PUSH1 0x13 PUSH1 0x0 DUP3 DUP3 SLOAD PUSH2 0x39C7 SWAP2 SWAP1 PUSH2 0x5365 JUMP JUMPDEST SWAP3 POP POP DUP2 SWAP1 SSTORE POP DUP1 PUSH1 0x12 PUSH1 0x0 DUP3 DUP3 SLOAD PUSH2 0x39E0 SWAP2 SWAP1 PUSH2 0x5365 JUMP JUMPDEST SWAP3 POP POP DUP2 SWAP1 SSTORE POP DUP3 PUSH1 0x10 PUSH1 0x0 DUP3 DUP3 SLOAD PUSH2 0x39F9 SWAP2 SWAP1 PUSH2 0x5365 JUMP JUMPDEST SWAP3 POP POP DUP2 SWAP1 SSTORE POP PUSH2 0x3A0A CALLER DUP3 PUSH2 0x47A7 JUMP JUMPDEST DUP4 PUSH1 0xD PUSH1 0x0 CALLER PUSH20 0xFFFFFFFFFFFFFFFFFFFFFFFFFFFFFFFFFFFFFFFF AND PUSH20 0xFFFFFFFFFFFFFFFFFFFFFFFFFFFFFFFFFFFFFFFF AND DUP2 MSTORE PUSH1 0x20 ADD SWAP1 DUP2 MSTORE PUSH1 0x20 ADD PUSH1 0x0 KECCAK256 PUSH1 0x0 DUP8 DUP2 MSTORE PUSH1 0x20 ADD SWAP1 DUP2 MSTORE PUSH1 0x20 ADD PUSH1 0x0 KECCAK256 PUSH1 0x0 DUP3 DUP3 SLOAD PUSH2 0x3A6A SWAP2 SWAP1 PUSH2 0x5365 JUMP JUMPDEST SWAP3 POP POP DUP2 SWAP1 SSTORE POP DUP3 PUSH1 0x16 PUSH1 0x0 CALLER PUSH20 0xFFFFFFFFFFFFFFFFFFFFFFFFFFFFFFFFFFFFFFFF AND PUSH20 0xFFFFFFFFFFFFFFFFFFFFFFFFFFFFFFFFFFFFFFFF AND DUP2 MSTORE PUSH1 0x20 ADD SWAP1 DUP2 MSTORE PUSH1 0x20 ADD PUSH1 0x0 KECCAK256 PUSH1 0x0 DUP3 DUP3 SLOAD PUSH2 0x3AC0 SWAP2 SWAP1 PUSH2 0x5365 JUMP JUMPDEST SWAP3 POP POP DUP2 SWAP1 SSTORE POP POP POP POP POP POP JUMP JUMPDEST PUSH2 0x3AD6 PUSH2 0x44D7 JUMP JUMPDEST PUSH8 0xDE0B6B3A7640000 DUP2 PUSH2 0x3AEA SWAP2 SWAP1 PUSH2 0x54CB JUMP JUMPDEST PUSH1 0x18 PUSH1 0x0 DUP5 PUSH20 0xFFFFFFFFFFFFFFFFFFFFFFFFFFFFFFFFFFFFFFFF AND PUSH20 0xFFFFFFFFFFFFFFFFFFFFFFFFFFFFFFFFFFFFFFFF AND DUP2 MSTORE PUSH1 0x20 ADD SWAP1 DUP2 MSTORE PUSH1 0x20 ADD PUSH1 0x0 KECCAK256 DUP2 SWAP1 SSTORE POP POP POP JUMP JUMPDEST PUSH1 0x3 PUSH1 0x0 SWAP1 SLOAD SWAP1 PUSH2 0x100 EXP SWAP1 DIV PUSH20 0xFFFFFFFFFFFFFFFFFFFFFFFFFFFFFFFFFFFFFFFF AND DUP2 JUMP JUMPDEST PUSH1 0x20 SLOAD DUP2 JUMP JUMPDEST PUSH1 0x0 PUSH1 0x2 PUSH1 0x0 SWAP1 SLOAD SWAP1 PUSH2 0x100 EXP SWAP1 DIV PUSH20 0xFFFFFFFFFFFFFFFFFFFFFFFFFFFFFFFFFFFFFFFF AND PUSH20 0xFFFFFFFFFFFFFFFFFFFFFFFFFFFFFFFFFFFFFFFF AND PUSH4 0x3AF32ABF CALLER PUSH1 0x40 MLOAD DUP3 PUSH4 0xFFFFFFFF AND PUSH1 0xE0 SHL DUP2 MSTORE PUSH1 0x4 ADD PUSH2 0x3BBA SWAP2 SWAP1 PUSH2 0x518E JUMP JUMPDEST PUSH1 0x20 PUSH1 0x40 MLOAD DUP1 DUP4 SUB DUP2 DUP7 GAS STATICCALL ISZERO DUP1 ISZERO PUSH2 0x3BD7 JUMPI RETURNDATASIZE PUSH1 0x0 DUP1 RETURNDATACOPY RETURNDATASIZE PUSH1 0x0 REVERT JUMPDEST POP POP POP POP PUSH1 0x40 MLOAD RETURNDATASIZE PUSH1 0x1F NOT PUSH1 0x1F DUP3 ADD AND DUP3 ADD DUP1 PUSH1 0x40 MSTORE POP DUP2 ADD SWAP1 PUSH2 0x3BFB SWAP2 SWAP1 PUSH2 0x564E JUMP JUMPDEST DUP1 PUSH2 0x3C38 JUMPI POP PUSH2 0x3C09 PUSH2 0x27C4 JUMP JUMPDEST PUSH20 0xFFFFFFFFFFFFFFFFFFFFFFFFFFFFFFFFFFFFFFFF AND CALLER PUSH20 0xFFFFFFFFFFFFFFFFFFFFFFFFFFFFFFFFFFFFFFFF AND EQ JUMPDEST PUSH2 0x3C77 JUMPI PUSH1 0x40 MLOAD PUSH32 0x8C379A000000000000000000000000000000000000000000000000000000000 DUP2 MSTORE PUSH1 0x4 ADD PUSH2 0x3C6E SWAP1 PUSH2 0x5D38 JUMP JUMPDEST PUSH1 0x40 MLOAD DUP1 SWAP2 SUB SWAP1 REVERT JUMPDEST PUSH1 0x1B PUSH1 0x0 DUP4 PUSH20 0xFFFFFFFFFFFFFFFFFFFFFFFFFFFFFFFFFFFFFFFF AND PUSH20 0xFFFFFFFFFFFFFFFFFFFFFFFFFFFFFFFFFFFFFFFF AND DUP2 MSTORE PUSH1 0x20 ADD SWAP1 DUP2 MSTORE PUSH1 0x20 ADD PUSH1 0x0 KECCAK256 SLOAD TIMESTAMP PUSH2 0x3CC2 SWAP2 SWAP1 PUSH2 0x5399 JUMP JUMPDEST PUSH1 0x16 PUSH1 0x0 DUP5 PUSH20 0xFFFFFFFFFFFFFFFFFFFFFFFFFFFFFFFFFFFFFFFF AND PUSH20 0xFFFFFFFFFFFFFFFFFFFFFFFFFFFFFFFFFFFFFFFF AND DUP2 MSTORE PUSH1 0x20 ADD SWAP1 DUP2 MSTORE PUSH1 0x20 ADD PUSH1 0x0 KECCAK256 SLOAD PUSH2 0x3D0C SWAP2 SWAP1 PUSH2 0x54CB JUMP JUMPDEST PUSH1 0x1C PUSH1 0x0 DUP5 PUSH20 0xFFFFFFFFFFFFFFFFFFFFFFFFFFFFFFFFFFFFFFFF AND PUSH20 0xFFFFFFFFFFFFFFFFFFFFFFFFFFFFFFFFFFFFFFFF AND DUP2 MSTORE PUSH1 0x20 ADD SWAP1 DUP2 MSTORE PUSH1 0x20 ADD PUSH1 0x0 KECCAK256 PUSH1 0x0 DUP3 DUP3 SLOAD PUSH2 0x3D5A SWAP2 SWAP1 PUSH2 0x5365 JUMP JUMPDEST SWAP3 POP POP DUP2 SWAP1 SSTORE POP TIMESTAMP PUSH1 0x1B PUSH1 0x0 DUP5 PUSH20 0xFFFFFFFFFFFFFFFFFFFFFFFFFFFFFFFFFFFFFFFF AND PUSH20 0xFFFFFFFFFFFFFFFFFFFFFFFFFFFFFFFFFFFFFFFF AND DUP2 MSTORE PUSH1 0x20 ADD SWAP1 DUP2 MSTORE PUSH1 0x20 ADD PUSH1 0x0 KECCAK256 DUP2 SWAP1 SSTORE POP PUSH1 0x0 PUSH1 0x1D PUSH1 0x0 DUP5 PUSH20 0xFFFFFFFFFFFFFFFFFFFFFFFFFFFFFFFFFFFFFFFF AND PUSH20 0xFFFFFFFFFFFFFFFFFFFFFFFFFFFFFFFFFFFFFFFF AND DUP2 MSTORE PUSH1 0x20 ADD SWAP1 DUP2 MSTORE PUSH1 0x20 ADD PUSH1 0x0 KECCAK256 SLOAD PUSH1 0x1C PUSH1 0x0 DUP6 PUSH20 0xFFFFFFFFFFFFFFFFFFFFFFFFFFFFFFFFFFFFFFFF AND PUSH20 0xFFFFFFFFFFFFFFFFFFFFFFFFFFFFFFFFFFFFFFFF AND DUP2 MSTORE PUSH1 0x20 ADD SWAP1 DUP2 MSTORE PUSH1 0x20 ADD PUSH1 0x0 KECCAK256 SLOAD PUSH2 0x3E31 SWAP2 SWAP1 PUSH2 0x5399 JUMP JUMPDEST SWAP1 POP PUSH1 0x1C PUSH1 0x0 DUP5 PUSH20 0xFFFFFFFFFFFFFFFFFFFFFFFFFFFFFFFFFFFFFFFF AND PUSH20 0xFFFFFFFFFFFFFFFFFFFFFFFFFFFFFFFFFFFFFFFF AND DUP2 MSTORE PUSH1 0x20 ADD SWAP1 DUP2 MSTORE PUSH1 0x20 ADD PUSH1 0x0 KECCAK256 SLOAD PUSH1 0x1D PUSH1 0x0 DUP6 PUSH20 0xFFFFFFFFFFFFFFFFFFFFFFFFFFFFFFFFFFFFFFFF AND PUSH20 0xFFFFFFFFFFFFFFFFFFFFFFFFFFFFFFFFFFFFFFFF AND DUP2 MSTORE PUSH1 0x20 ADD SWAP1 DUP2 MSTORE PUSH1 0x20 ADD PUSH1 0x0 KECCAK256 DUP2 SWAP1 SSTORE POP DUP3 PUSH20 0xFFFFFFFFFFFFFFFFFFFFFFFFFFFFFFFFFFFFFFFF AND PUSH32 0x1E6F5EAEF61555B8BF4C1EF79DD15630C9612B652F0C442B66151F134650742C DUP3 PUSH1 0x40 MLOAD PUSH2 0x3EFC SWAP2 SWAP1 PUSH2 0x49C7 JUMP JUMPDEST PUSH1 0x40 MLOAD DUP1 SWAP2 SUB SWAP1 LOG2 DUP1 SWAP2 POP POP SWAP2 SWAP1 POP JUMP JUMPDEST PUSH1 0x2 PUSH1 0x0 SWAP1 SLOAD SWAP1 PUSH2 0x100 EXP SWAP1 DIV PUSH20 0xFFFFFFFFFFFFFFFFFFFFFFFFFFFFFFFFFFFFFFFF AND PUSH20 0xFFFFFFFFFFFFFFFFFFFFFFFFFFFFFFFFFFFFFFFF AND PUSH4 0x3AF32ABF CALLER PUSH1 0x40 MLOAD DUP3 PUSH4 0xFFFFFFFF AND PUSH1 0xE0 SHL DUP2 MSTORE PUSH1 0x4 ADD PUSH2 0x3F68 SWAP2 SWAP1 PUSH2 0x518E JUMP JUMPDEST PUSH1 0x20 PUSH1 0x40 MLOAD DUP1 DUP4 SUB DUP2 DUP7 GAS STATICCALL ISZERO DUP1 ISZERO PUSH2 0x3F85 JUMPI RETURNDATASIZE PUSH1 0x0 DUP1 RETURNDATACOPY RETURNDATASIZE PUSH1 0x0 REVERT JUMPDEST POP POP POP POP PUSH1 0x40 MLOAD RETURNDATASIZE PUSH1 0x1F NOT PUSH1 0x1F DUP3 ADD AND DUP3 ADD DUP1 PUSH1 0x40 MSTORE POP DUP2 ADD SWAP1 PUSH2 0x3FA9 SWAP2 SWAP1 PUSH2 0x564E JUMP JUMPDEST DUP1 PUSH2 0x4001 JUMPI POP PUSH1 0x1 PUSH1 0x0 SWAP1 SLOAD SWAP1 PUSH2 0x100 EXP SWAP1 DIV PUSH20 0xFFFFFFFFFFFFFFFFFFFFFFFFFFFFFFFFFFFFFFFF AND PUSH20 0xFFFFFFFFFFFFFFFFFFFFFFFFFFFFFFFFFFFFFFFF AND CALLER PUSH20 0xFFFFFFFFFFFFFFFFFFFFFFFFFFFFFFFFFFFFFFFF AND EQ JUMPDEST PUSH2 0x4040 JUMPI PUSH1 0x40 MLOAD PUSH32 0x8C379A000000000000000000000000000000000000000000000000000000000 DUP2 MSTORE PUSH1 0x4 ADD PUSH2 0x4037 SWAP1 PUSH2 0x5D38 JUMP JUMPDEST PUSH1 0x40 MLOAD DUP1 SWAP2 SUB SWAP1 REVERT JUMPDEST PUSH1 0x0 PUSH1 0xC DUP4 DUP2 SLOAD DUP2 LT PUSH2 0x4056 JUMPI PUSH2 0x4055 PUSH2 0x5307 JUMP JUMPDEST JUMPDEST SWAP1 PUSH1 0x0 MSTORE PUSH1 0x20 PUSH1 0x0 KECCAK256 SWAP1 PUSH1 0x3 MUL ADD PUSH1 0x1 ADD SLOAD GT PUSH2 0x4072 JUMPI PUSH1 0x0 DUP1 REVERT JUMPDEST PUSH1 0x27 PUSH1 0x14 SWAP1 SLOAD SWAP1 PUSH2 0x100 EXP SWAP1 DIV PUSH1 0xFF AND ISZERO PUSH2 0x40C2 JUMPI PUSH1 0x40 MLOAD PUSH32 0x8C379A000000000000000000000000000000000000000000000000000000000 DUP2 MSTORE PUSH1 0x4 ADD PUSH2 0x40B9 SWAP1 PUSH2 0x54AB JUMP JUMPDEST PUSH1 0x40 MLOAD DUP1 SWAP2 SUB SWAP1 REVERT JUMPDEST PUSH2 0x40CB DUP4 PUSH2 0x4274 JUMP JUMPDEST PUSH1 0x0 DUP2 PUSH1 0xC DUP5 DUP2 SLOAD DUP2 LT PUSH2 0x40E2 JUMPI PUSH2 0x40E1 PUSH2 0x5307 JUMP JUMPDEST JUMPDEST SWAP1 PUSH1 0x0 MSTORE PUSH1 0x20 PUSH1 0x0 KECCAK256 SWAP1 PUSH1 0x3 MUL ADD PUSH1 0x1 ADD SLOAD PUSH2 0x40FE SWAP2 SWAP1 PUSH2 0x54CB JUMP JUMPDEST SWAP1 POP PUSH1 0x0 DUP3 PUSH1 0xC DUP6 DUP2 SLOAD DUP2 LT PUSH2 0x4117 JUMPI PUSH2 0x4116 PUSH2 0x5307 JUMP JUMPDEST JUMPDEST SWAP1 PUSH1 0x0 MSTORE PUSH1 0x20 PUSH1 0x0 KECCAK256 SWAP1 PUSH1 0x3 MUL ADD PUSH1 0x2 ADD SLOAD PUSH2 0x4133 SWAP2 SWAP1 PUSH2 0x54CB JUMP JUMPDEST SWAP1 POP DUP1 PUSH1 0x13 PUSH1 0x0 DUP3 DUP3 SLOAD PUSH2 0x4147 SWAP2 SWAP1 PUSH2 0x5365 JUMP JUMPDEST SWAP3 POP POP DUP2 SWAP1 SSTORE POP DUP2 PUSH1 0x10 PUSH1 0x0 DUP3 DUP3 SLOAD PUSH2 0x4160 SWAP2 SWAP1 PUSH2 0x5365 JUMP JUMPDEST SWAP3 POP POP DUP2 SWAP1 SSTORE POP DUP3 PUSH1 0xD PUSH1 0x0 DUP8 PUSH20 0xFFFFFFFFFFFFFFFFFFFFFFFFFFFFFFFFFFFFFFFF AND PUSH20 0xFFFFFFFFFFFFFFFFFFFFFFFFFFFFFFFFFFFFFFFF AND DUP2 MSTORE PUSH1 0x20 ADD SWAP1 DUP2 MSTORE PUSH1 0x20 ADD PUSH1 0x0 KECCAK256 PUSH1 0x0 DUP7 DUP2 MSTORE PUSH1 0x20 ADD SWAP1 DUP2 MSTORE PUSH1 0x20 ADD PUSH1 0x0 KECCAK256 SLOAD PUSH2 0x41C3 SWAP2 SWAP1 PUSH2 0x5365 JUMP JUMPDEST PUSH1 0xD PUSH1 0x0 DUP8 PUSH20 0xFFFFFFFFFFFFFFFFFFFFFFFFFFFFFFFFFFFFFFFF AND PUSH20 0xFFFFFFFFFFFFFFFFFFFFFFFFFFFFFFFFFFFFFFFF AND DUP2 MSTORE PUSH1 0x20 ADD SWAP1 DUP2 MSTORE PUSH1 0x20 ADD PUSH1 0x0 KECCAK256 PUSH1 0x0 DUP7 DUP2 MSTORE PUSH1 0x20 ADD SWAP1 DUP2 MSTORE PUSH1 0x20 ADD PUSH1 0x0 KECCAK256 DUP2 SWAP1 SSTORE POP DUP2 PUSH1 0x16 PUSH1 0x0 DUP8 PUSH20 0xFFFFFFFFFFFFFFFFFFFFFFFFFFFFFFFFFFFFFFFF AND PUSH20 0xFFFFFFFFFFFFFFFFFFFFFFFFFFFFFFFFFFFFFFFF AND DUP2 MSTORE PUSH1 0x20 ADD SWAP1 DUP2 MSTORE PUSH1 0x20 ADD PUSH1 0x0 KECCAK256 PUSH1 0x0 DUP3 DUP3 SLOAD PUSH2 0x4266 SWAP2 SWAP1 PUSH2 0x5365 JUMP JUMPDEST SWAP3 POP POP DUP2 SWAP1 SSTORE POP POP POP POP POP POP JUMP JUMPDEST PUSH1 0x1B PUSH1 0x0 DUP3 PUSH20 0xFFFFFFFFFFFFFFFFFFFFFFFFFFFFFFFFFFFFFFFF AND PUSH20 0xFFFFFFFFFFFFFFFFFFFFFFFFFFFFFFFFFFFFFFFF AND DUP2 MSTORE PUSH1 0x20 ADD SWAP1 DUP2 MSTORE PUSH1 0x20 ADD PUSH1 0x0 KECCAK256 SLOAD TIMESTAMP PUSH2 0x42BF SWAP2 SWAP1 PUSH2 0x5399 JUMP JUMPDEST PUSH1 0x16 PUSH1 0x0 DUP4 PUSH20 0xFFFFFFFFFFFFFFFFFFFFFFFFFFFFFFFFFFFFFFFF AND PUSH20 0xFFFFFFFFFFFFFFFFFFFFFFFFFFFFFFFFFFFFFFFF AND DUP2 MSTORE PUSH1 0x20 ADD SWAP1 DUP2 MSTORE PUSH1 0x20 ADD PUSH1 0x0 KECCAK256 SLOAD PUSH2 0x4309 SWAP2 SWAP1 PUSH2 0x54CB JUMP JUMPDEST PUSH1 0x1C PUSH1 0x0 DUP4 PUSH20 0xFFFFFFFFFFFFFFFFFFFFFFFFFFFFFFFFFFFFFFFF AND PUSH20 0xFFFFFFFFFFFFFFFFFFFFFFFFFFFFFFFFFFFFFFFF AND DUP2 MSTORE PUSH1 0x20 ADD SWAP1 DUP2 MSTORE PUSH1 0x20 ADD PUSH1 0x0 KECCAK256 PUSH1 0x0 DUP3 DUP3 SLOAD PUSH2 0x4357 SWAP2 SWAP1 PUSH2 0x5365 JUMP JUMPDEST SWAP3 POP POP DUP2 SWAP1 SSTORE POP TIMESTAMP PUSH1 0x1B PUSH1 0x0 DUP4 PUSH20 0xFFFFFFFFFFFFFFFFFFFFFFFFFFFFFFFFFFFFFFFF AND PUSH20 0xFFFFFFFFFFFFFFFFFFFFFFFFFFFFFFFFFFFFFFFF AND DUP2 MSTORE PUSH1 0x20 ADD SWAP1 DUP2 MSTORE PUSH1 0x20 ADD PUSH1 0x0 KECCAK256 DUP2 SWAP1 SSTORE POP POP JUMP JUMPDEST PUSH1 0x3 PUSH1 0x0 SWAP1 SLOAD SWAP1 PUSH2 0x100 EXP SWAP1 DIV PUSH20 0xFFFFFFFFFFFFFFFFFFFFFFFFFFFFFFFFFFFFFFFF AND PUSH20 0xFFFFFFFFFFFFFFFFFFFFFFFFFFFFFFFFFFFFFFFF AND PUSH4 0x23B872DD PUSH1 0x1 PUSH1 0x0 SWAP1 SLOAD SWAP1 PUSH2 0x100 EXP SWAP1 DIV PUSH20 0xFFFFFFFFFFFFFFFFFFFFFFFFFFFFFFFFFFFFFFFF AND DUP5 PUSH8 0xDE0B6B3A7640000 DUP6 PUSH2 0x441B SWAP2 SWAP1 PUSH2 0x54CB JUMP JUMPDEST PUSH1 0x40 MLOAD DUP5 PUSH4 0xFFFFFFFF AND PUSH1 0xE0 SHL DUP2 MSTORE PUSH1 0x4 ADD PUSH2 0x4439 SWAP4 SWAP3 SWAP2 SWAP1 PUSH2 0x5B71 JUMP JUMPDEST PUSH1 0x20 PUSH1 0x40 MLOAD DUP1 DUP4 SUB DUP2 PUSH1 0x0 DUP8 GAS CALL ISZERO DUP1 ISZERO PUSH2 0x4458 JUMPI RETURNDATASIZE PUSH1 0x0 DUP1 RETURNDATACOPY RETURNDATASIZE PUSH1 0x0 REVERT JUMPDEST POP POP POP POP PUSH1 0x40 MLOAD RETURNDATASIZE PUSH1 0x1F NOT PUSH1 0x1F DUP3 ADD AND DUP3 ADD DUP1 PUSH1 0x40 MSTORE POP DUP2 ADD SWAP1 PUSH2 0x447C SWAP2 SWAP1 PUSH2 0x564E JUMP JUMPDEST POP DUP1 PUSH1 0x9 PUSH1 0x0 DUP5 PUSH20 0xFFFFFFFFFFFFFFFFFFFFFFFFFFFFFFFFFFFFFFFF AND PUSH20 0xFFFFFFFFFFFFFFFFFFFFFFFFFFFFFFFFFFFFFFFF AND DUP2 MSTORE PUSH1 0x20 ADD SWAP1 DUP2 MSTORE PUSH1 0x20 ADD PUSH1 0x0 KECCAK256 PUSH1 0x0 DUP3 DUP3 SLOAD PUSH2 0x44CC SWAP2 SWAP1 PUSH2 0x5365 JUMP JUMPDEST SWAP3 POP POP DUP2 SWAP1 SSTORE POP POP POP JUMP JUMPDEST PUSH2 0x44DF PUSH2 0x495B JUMP JUMPDEST PUSH20 0xFFFFFFFFFFFFFFFFFFFFFFFFFFFFFFFFFFFFFFFF AND PUSH2 0x44FD PUSH2 0x27C4 JUMP JUMPDEST PUSH20 0xFFFFFFFFFFFFFFFFFFFFFFFFFFFFFFFFFFFFFFFF AND EQ PUSH2 0x455C JUMPI PUSH2 0x4520 PUSH2 0x495B JUMP JUMPDEST PUSH1 0x40 MLOAD PUSH32 0x118CDAA700000000000000000000000000000000000000000000000000000000 DUP2 MSTORE PUSH1 0x4 ADD PUSH2 0x4553 SWAP2 SWAP1 PUSH2 0x518E JUMP JUMPDEST PUSH1 0x40 MLOAD DUP1 SWAP2 SUB SWAP1 REVERT JUMPDEST JUMP JUMPDEST PUSH1 0x0 DUP1 PUSH1 0x0 SWAP1 SLOAD SWAP1 PUSH2 0x100 EXP SWAP1 DIV PUSH20 0xFFFFFFFFFFFFFFFFFFFFFFFFFFFFFFFFFFFFFFFF AND SWAP1 POP DUP2 PUSH1 0x0 DUP1 PUSH2 0x100 EXP DUP2 SLOAD DUP2 PUSH20 0xFFFFFFFFFFFFFFFFFFFFFFFFFFFFFFFFFFFFFFFF MUL NOT AND SWAP1 DUP4 PUSH20 0xFFFFFFFFFFFFFFFFFFFFFFFFFFFFFFFFFFFFFFFF AND MUL OR SWAP1 SSTORE POP DUP2 PUSH20 0xFFFFFFFFFFFFFFFFFFFFFFFFFFFFFFFFFFFFFFFF AND DUP2 PUSH20 0xFFFFFFFFFFFFFFFFFFFFFFFFFFFFFFFFFFFFFFFF AND PUSH32 0x8BE0079C531659141344CD1FD0A4F28419497F9722A3DAAFE3B4186F6B6457E0 PUSH1 0x40 MLOAD PUSH1 0x40 MLOAD DUP1 SWAP2 SUB SWAP1 LOG3 POP POP JUMP JUMPDEST PUSH1 0x0 DUP1 PUSH1 0x0 SWAP1 POP PUSH1 0x0 DUP4 SWAP1 POP PUSH1 0x0 PUSH1 0x6 SLOAD SWAP1 POP PUSH1 0x0 JUMPDEST PUSH1 0x4 DUP1 SLOAD SWAP1 POP DUP2 LT DUP1 ISZERO PUSH2 0x464C JUMPI POP PUSH1 0x0 DUP4 GT JUMPDEST ISZERO PUSH2 0x479B JUMPI PUSH1 0x0 PUSH1 0x4 DUP3 DUP2 SLOAD DUP2 LT PUSH2 0x4667 JUMPI PUSH2 0x4666 PUSH2 0x5307 JUMP JUMPDEST JUMPDEST SWAP1 PUSH1 0x0 MSTORE PUSH1 0x20 PUSH1 0x0 KECCAK256 SWAP1 PUSH1 0x2 MUL ADD PUSH1 0x40 MLOAD DUP1 PUSH1 0x40 ADD PUSH1 0x40 MSTORE SWAP1 DUP2 PUSH1 0x0 DUP3 ADD SLOAD DUP2 MSTORE PUSH1 0x20 ADD PUSH1 0x1 DUP3 ADD SLOAD DUP2 MSTORE POP POP SWAP1 POP PUSH1 0x0 DUP1 JUMPDEST DUP4 DUP2 GT PUSH2 0x46E7 JUMPI PUSH1 0x4 DUP2 DUP2 SLOAD DUP2 LT PUSH2 0x46B5 JUMPI PUSH2 0x46B4 PUSH2 0x5307 JUMP JUMPDEST JUMPDEST SWAP1 PUSH1 0x0 MSTORE PUSH1 0x20 PUSH1 0x0 KECCAK256 SWAP1 PUSH1 0x2 MUL ADD PUSH1 0x0 ADD SLOAD DUP3 PUSH2 0x46D2 SWAP2 SWAP1 PUSH2 0x5365 JUMP JUMPDEST SWAP2 POP DUP1 DUP1 PUSH2 0x46DF SWAP1 PUSH2 0x5D58 JUMP JUMPDEST SWAP2 POP POP PUSH2 0x469A JUMP JUMPDEST POP PUSH1 0x0 DUP5 DUP3 GT PUSH2 0x46F8 JUMPI PUSH1 0x0 PUSH2 0x4705 JUMP JUMPDEST DUP5 DUP3 PUSH2 0x4704 SWAP2 SWAP1 PUSH2 0x5399 JUMP JUMPDEST JUMPDEST SWAP1 POP PUSH1 0x0 DUP2 SUB PUSH2 0x4717 JUMPI POP POP POP PUSH2 0x4788 JUMP JUMPDEST PUSH1 0x0 DUP4 PUSH1 0x20 ADD MLOAD DUP3 PUSH2 0x4729 SWAP2 SWAP1 PUSH2 0x54CB JUMP JUMPDEST SWAP1 POP DUP1 DUP8 LT PUSH2 0x4761 JUMPI DUP2 DUP9 PUSH2 0x473E SWAP2 SWAP1 PUSH2 0x5365 JUMP JUMPDEST SWAP8 POP DUP1 DUP8 PUSH2 0x474C SWAP2 SWAP1 PUSH2 0x5399 JUMP JUMPDEST SWAP7 POP DUP2 DUP7 PUSH2 0x475A SWAP2 SWAP1 PUSH2 0x5365 JUMP JUMPDEST SWAP6 POP PUSH2 0x4783 JUMP JUMPDEST DUP4 PUSH1 0x20 ADD MLOAD DUP8 PUSH2 0x4771 SWAP2 SWAP1 PUSH2 0x553C JUMP JUMPDEST DUP9 PUSH2 0x477C SWAP2 SWAP1 PUSH2 0x5365 JUMP JUMPDEST SWAP8 POP PUSH1 0x0 SWAP7 POP JUMPDEST POP POP POP POP JUMPDEST DUP1 DUP1 PUSH2 0x4793 SWAP1 PUSH2 0x5D58 JUMP JUMPDEST SWAP2 POP POP PUSH2 0x4638 JUMP JUMPDEST POP DUP3 SWAP4 POP POP POP POP SWAP2 SWAP1 POP JUMP JUMPDEST PUSH1 0x3 PUSH1 0x0 SWAP1 SLOAD SWAP1 PUSH2 0x100 EXP SWAP1 DIV PUSH20 0xFFFFFFFFFFFFFFFFFFFFFFFFFFFFFFFFFFFFFFFF AND PUSH20 0xFFFFFFFFFFFFFFFFFFFFFFFFFFFFFFFFFFFFFFFF AND PUSH4 0x23B872DD DUP4 PUSH1 0x1 PUSH1 0x0 SWAP1 SLOAD SWAP1 PUSH2 0x100 EXP SWAP1 DIV PUSH20 0xFFFFFFFFFFFFFFFFFFFFFFFFFFFFFFFFFFFFFFFF AND PUSH8 0xDE0B6B3A7640000 DUP6 PUSH2 0x481D SWAP2 SWAP1 PUSH2 0x54CB JUMP JUMPDEST PUSH1 0x40 MLOAD DUP5 PUSH4 0xFFFFFFFF AND PUSH1 0xE0 SHL DUP2 MSTORE PUSH1 0x4 ADD PUSH2 0x483B SWAP4 SWAP3 SWAP2 SWAP1 PUSH2 0x5DA0 JUMP JUMPDEST PUSH1 0x20 PUSH1 0x40 MLOAD DUP1 DUP4 SUB DUP2 PUSH1 0x0 DUP8 GAS CALL ISZERO DUP1 ISZERO PUSH2 0x485A JUMPI RETURNDATASIZE PUSH1 0x0 DUP1 RETURNDATACOPY RETURNDATASIZE PUSH1 0x0 REVERT JUMPDEST POP POP POP POP PUSH1 0x40 MLOAD RETURNDATASIZE PUSH1 0x1F NOT PUSH1 0x1F DUP3 ADD AND DUP3 ADD DUP1 PUSH1 0x40 MSTORE POP DUP2 ADD SWAP1 PUSH2 0x487E SWAP2 SWAP1 PUSH2 0x564E JUMP JUMPDEST POP DUP1 PUSH1 0x9 PUSH1 0x0 DUP5 PUSH20 0xFFFFFFFFFFFFFFFFFFFFFFFFFFFFFFFFFFFFFFFF AND PUSH20 0xFFFFFFFFFFFFFFFFFFFFFFFFFFFFFFFFFFFFFFFF AND DUP2 MSTORE PUSH1 0x20 ADD SWAP1 DUP2 MSTORE PUSH1 0x20 ADD PUSH1 0x0 KECCAK256 SLOAD LT ISZERO PUSH2 0x4901 JUMPI PUSH1 0x40 MLOAD PUSH32 0x8C379A000000000000000000000000000000000000000000000000000000000 DUP2 MSTORE PUSH1 0x4 ADD PUSH2 0x48F8 SWAP1 PUSH2 0x5E23 JUMP JUMPDEST PUSH1 0x40 MLOAD DUP1 SWAP2 SUB SWAP1 REVERT JUMPDEST DUP1 PUSH1 0x9 PUSH1 0x0 DUP5 PUSH20 0xFFFFFFFFFFFFFFFFFFFFFFFFFFFFFFFFFFFFFFFF AND PUSH20 0xFFFFFFFFFFFFFFFFFFFFFFFFFFFFFFFFFFFFFFFF AND DUP2 MSTORE PUSH1 0x20 ADD SWAP1 DUP2 MSTORE PUSH1 0x20 ADD PUSH1 0x0 KECCAK256 PUSH1 0x0 DUP3 DUP3 SLOAD PUSH2 0x4950 SWAP2 SWAP1 PUSH2 0x5399 JUMP JUMPDEST SWAP3 POP POP DUP2 SWAP1 SSTORE POP POP POP JUMP JUMPDEST PUSH1 0x0 CALLER SWAP1 POP SWAP1 JUMP JUMPDEST POP DUP1 SLOAD PUSH1 0x0 DUP3 SSTORE PUSH1 0x2 MUL SWAP1 PUSH1 0x0 MSTORE PUSH1 0x20 PUSH1 0x0 KECCAK256 SWAP1 DUP2 ADD SWAP1 PUSH2 0x4984 SWAP2 SWAP1 PUSH2 0x4987 JUMP JUMPDEST POP JUMP JUMPDEST JUMPDEST DUP1 DUP3 GT ISZERO PUSH2 0x49AA JUMPI PUSH1 0x0 DUP1 DUP3 ADD PUSH1 0x0 SWAP1 SSTORE PUSH1 0x1 DUP3 ADD PUSH1 0x0 SWAP1 SSTORE POP PUSH1 0x2 ADD PUSH2 0x4988 JUMP JUMPDEST POP SWAP1 JUMP JUMPDEST PUSH1 0x0 DUP2 SWAP1 POP SWAP2 SWAP1 POP JUMP JUMPDEST PUSH2 0x49C1 DUP2 PUSH2 0x49AE JUMP JUMPDEST DUP3 MSTORE POP POP JUMP JUMPDEST PUSH1 0x0 PUSH1 0x20 DUP3 ADD SWAP1 POP PUSH2 0x49DC PUSH1 0x0 DUP4 ADD DUP5 PUSH2 0x49B8 JUMP JUMPDEST SWAP3 SWAP2 POP POP JUMP JUMPDEST PUSH1 0x0 PUSH1 0x40 MLOAD SWAP1 POP SWAP1 JUMP JUMPDEST PUSH1 0x0 DUP1 REVERT JUMPDEST PUSH1 0x0 DUP1 REVERT JUMPDEST PUSH2 0x49FF DUP2 PUSH2 0x49AE JUMP JUMPDEST DUP2 EQ PUSH2 0x4A0A JUMPI PUSH1 0x0 DUP1 REVERT JUMPDEST POP JUMP JUMPDEST PUSH1 0x0 DUP2 CALLDATALOAD SWAP1 POP PUSH2 0x4A1C DUP2 PUSH2 0x49F6 JUMP JUMPDEST SWAP3 SWAP2 POP POP JUMP JUMPDEST PUSH1 0x0 DUP1 PUSH1 0x40 DUP4 DUP6 SUB SLT ISZERO PUSH2 0x4A39 JUMPI PUSH2 0x4A38 PUSH2 0x49EC JUMP JUMPDEST JUMPDEST PUSH1 0x0 PUSH2 0x4A47 DUP6 DUP3 DUP7 ADD PUSH2 0x4A0D JUMP JUMPDEST SWAP3 POP POP PUSH1 0x20 PUSH2 0x4A58 DUP6 DUP3 DUP7 ADD PUSH2 0x4A0D JUMP JUMPDEST SWAP2 POP POP SWAP3 POP SWAP3 SWAP1 POP JUMP JUMPDEST PUSH1 0x0 PUSH20 0xFFFFFFFFFFFFFFFFFFFFFFFFFFFFFFFFFFFFFFFF DUP3 AND SWAP1 POP SWAP2 SWAP1 POP JUMP JUMPDEST PUSH1 0x0 PUSH2 0x4A8D DUP3 PUSH2 0x4A62 JUMP JUMPDEST SWAP1 POP SWAP2 SWAP1 POP JUMP JUMPDEST PUSH2 0x4A9D DUP2 PUSH2 0x4A82 JUMP JUMPDEST DUP2 EQ PUSH2 0x4AA8 JUMPI PUSH1 0x0 DUP1 REVERT JUMPDEST POP JUMP JUMPDEST PUSH1 0x0 DUP2 CALLDATALOAD SWAP1 POP PUSH2 0x4ABA DUP2 PUSH2 0x4A94 JUMP JUMPDEST SWAP3 SWAP2 POP POP JUMP JUMPDEST PUSH1 0x0 PUSH1 0x20 DUP3 DUP5 SUB SLT ISZERO PUSH2 0x4AD6 JUMPI PUSH2 0x4AD5 PUSH2 0x49EC JUMP JUMPDEST JUMPDEST PUSH1 0x0 PUSH2 0x4AE4 DUP5 DUP3 DUP6 ADD PUSH2 0x4AAB JUMP JUMPDEST SWAP2 POP POP SWAP3 SWAP2 POP POP JUMP JUMPDEST PUSH1 0x0 DUP2 ISZERO ISZERO SWAP1 POP SWAP2 SWAP1 POP JUMP JUMPDEST PUSH2 0x4B02 DUP2 PUSH2 0x4AED JUMP JUMPDEST DUP2 EQ PUSH2 0x4B0D JUMPI PUSH1 0x0 DUP1 REVERT JUMPDEST POP JUMP JUMPDEST PUSH1 0x0 DUP2 CALLDATALOAD SWAP1 POP PUSH2 0x4B1F DUP2 PUSH2 0x4AF9 JUMP JUMPDEST SWAP3 SWAP2 POP POP JUMP JUMPDEST PUSH1 0x0 PUSH1 0x20 DUP3 DUP5 SUB SLT ISZERO PUSH2 0x4B3B JUMPI PUSH2 0x4B3A PUSH2 0x49EC JUMP JUMPDEST JUMPDEST PUSH1 0x0 PUSH2 0x4B49 DUP5 DUP3 DUP6 ADD PUSH2 0x4B10 JUMP JUMPDEST SWAP2 POP POP SWAP3 SWAP2 POP POP JUMP JUMPDEST PUSH1 0x0 DUP2 SWAP1 POP SWAP2 SWAP1 POP JUMP JUMPDEST PUSH1 0x0 PUSH2 0x4B77 PUSH2 0x4B72 PUSH2 0x4B6D DUP5 PUSH2 0x4A62 JUMP JUMPDEST PUSH2 0x4B52 JUMP JUMPDEST PUSH2 0x4A62 JUMP JUMPDEST SWAP1 POP SWAP2 SWAP1 POP JUMP JUMPDEST PUSH1 0x0 PUSH2 0x4B89 DUP3 PUSH2 0x4B5C JUMP JUMPDEST SWAP1 POP SWAP2 SWAP1 POP JUMP JUMPDEST PUSH1 0x0 PUSH2 0x4B9B DUP3 PUSH2 0x4B7E JUMP JUMPDEST SWAP1 POP SWAP2 SWAP1 POP JUMP JUMPDEST PUSH2 0x4BAB DUP2 PUSH2 0x4B90 JUMP JUMPDEST DUP3 MSTORE POP POP JUMP JUMPDEST PUSH1 0x0 PUSH1 0x20 DUP3 ADD SWAP1 POP PUSH2 0x4BC6 PUSH1 0x0 DUP4 ADD DUP5 PUSH2 0x4BA2 JUMP JUMPDEST SWAP3 SWAP2 POP POP JUMP JUMPDEST PUSH1 0x0 DUP1 REVERT JUMPDEST PUSH1 0x0 PUSH1 0x1F NOT PUSH1 0x1F DUP4 ADD AND SWAP1 POP SWAP2 SWAP1 POP JUMP JUMPDEST PUSH32 0x4E487B7100000000000000000000000000000000000000000000000000000000 PUSH1 0x0 MSTORE PUSH1 0x41 PUSH1 0x4 MSTORE PUSH1 0x24 PUSH1 0x0 REVERT JUMPDEST PUSH2 0x4C1A DUP3 PUSH2 0x4BD1 JUMP JUMPDEST DUP2 ADD DUP2 DUP2 LT PUSH8 0xFFFFFFFFFFFFFFFF DUP3 GT OR ISZERO PUSH2 0x4C39 JUMPI PUSH2 0x4C38 PUSH2 0x4BE2 JUMP JUMPDEST JUMPDEST DUP1 PUSH1 0x40 MSTORE POP POP POP JUMP JUMPDEST PUSH1 0x0 PUSH2 0x4C4C PUSH2 0x49E2 JUMP JUMPDEST SWAP1 POP PUSH2 0x4C58 DUP3 DUP3 PUSH2 0x4C11 JUMP JUMPDEST SWAP2 SWAP1 POP JUMP JUMPDEST PUSH1 0x0 PUSH8 0xFFFFFFFFFFFFFFFF DUP3 GT ISZERO PUSH2 0x4C78 JUMPI PUSH2 0x4C77 PUSH2 0x4BE2 JUMP JUMPDEST JUMPDEST PUSH1 0x20 DUP3 MUL SWAP1 POP PUSH1 0x20 DUP2 ADD SWAP1 POP SWAP2 SWAP1 POP JUMP JUMPDEST PUSH1 0x0 DUP1 REVERT JUMPDEST PUSH1 0x0 DUP1 REVERT JUMPDEST PUSH1 0x0 PUSH1 0x40 DUP3 DUP5 SUB SLT ISZERO PUSH2 0x4CA9 JUMPI PUSH2 0x4CA8 PUSH2 0x4C8E JUMP JUMPDEST JUMPDEST PUSH2 0x4CB3 PUSH1 0x40 PUSH2 0x4C42 JUMP JUMPDEST SWAP1 POP PUSH1 0x0 PUSH2 0x4CC3 DUP5 DUP3 DUP6 ADD PUSH2 0x4A0D JUMP JUMPDEST PUSH1 0x0 DUP4 ADD MSTORE POP PUSH1 0x20 PUSH2 0x4CD7 DUP5 DUP3 DUP6 ADD PUSH2 0x4A0D JUMP JUMPDEST PUSH1 0x20 DUP4 ADD MSTORE POP SWAP3 SWAP2 POP POP JUMP JUMPDEST PUSH1 0x0 PUSH2 0x4CF6 PUSH2 0x4CF1 DUP5 PUSH2 0x4C5D JUMP JUMPDEST PUSH2 0x4C42 JUMP JUMPDEST SWAP1 POP DUP1 DUP4 DUP3 MSTORE PUSH1 0x20 DUP3 ADD SWAP1 POP PUSH1 0x40 DUP5 MUL DUP4 ADD DUP6 DUP2 GT ISZERO PUSH2 0x4D19 JUMPI PUSH2 0x4D18 PUSH2 0x4C89 JUMP JUMPDEST JUMPDEST DUP4 JUMPDEST DUP2 DUP2 LT ISZERO PUSH2 0x4D42 JUMPI DUP1 PUSH2 0x4D2E DUP9 DUP3 PUSH2 0x4C93 JUMP JUMPDEST DUP5 MSTORE PUSH1 0x20 DUP5 ADD SWAP4 POP POP PUSH1 0x40 DUP2 ADD SWAP1 POP PUSH2 0x4D1B JUMP JUMPDEST POP POP POP SWAP4 SWAP3 POP POP POP JUMP JUMPDEST PUSH1 0x0 DUP3 PUSH1 0x1F DUP4 ADD SLT PUSH2 0x4D61 JUMPI PUSH2 0x4D60 PUSH2 0x4BCC JUMP JUMPDEST JUMPDEST DUP2 CALLDATALOAD PUSH2 0x4D71 DUP5 DUP3 PUSH1 0x20 DUP7 ADD PUSH2 0x4CE3 JUMP JUMPDEST SWAP2 POP POP SWAP3 SWAP2 POP POP JUMP JUMPDEST PUSH1 0x0 PUSH1 0x20 DUP3 DUP5 SUB SLT ISZERO PUSH2 0x4D90 JUMPI PUSH2 0x4D8F PUSH2 0x49EC JUMP JUMPDEST JUMPDEST PUSH1 0x0 DUP3 ADD CALLDATALOAD PUSH8 0xFFFFFFFFFFFFFFFF DUP2 GT ISZERO PUSH2 0x4DAE JUMPI PUSH2 0x4DAD PUSH2 0x49F1 JUMP JUMPDEST JUMPDEST PUSH2 0x4DBA DUP5 DUP3 DUP6 ADD PUSH2 0x4D4C JUMP JUMPDEST SWAP2 POP POP SWAP3 SWAP2 POP POP JUMP JUMPDEST PUSH1 0x0 PUSH1 0x20 DUP3 DUP5 SUB SLT ISZERO PUSH2 0x4DD9 JUMPI PUSH2 0x4DD8 PUSH2 0x49EC JUMP JUMPDEST JUMPDEST PUSH1 0x0 PUSH2 0x4DE7 DUP5 DUP3 DUP6 ADD PUSH2 0x4A0D JUMP JUMPDEST SWAP2 POP POP SWAP3 SWAP2 POP POP JUMP JUMPDEST PUSH1 0x0 DUP2 MLOAD SWAP1 POP SWAP2 SWAP1 POP JUMP JUMPDEST PUSH1 0x0 DUP3 DUP3 MSTORE PUSH1 0x20 DUP3 ADD SWAP1 POP SWAP3 SWAP2 POP POP JUMP JUMPDEST PUSH1 0x0 JUMPDEST DUP4 DUP2 LT ISZERO PUSH2 0x4E2A JUMPI DUP1 DUP3 ADD MLOAD DUP2 DUP5 ADD MSTORE PUSH1 0x20 DUP2 ADD SWAP1 POP PUSH2 0x4E0F JUMP JUMPDEST PUSH1 0x0 DUP5 DUP5 ADD MSTORE POP POP POP POP JUMP JUMPDEST PUSH1 0x0 PUSH2 0x4E41 DUP3 PUSH2 0x4DF0 JUMP JUMPDEST PUSH2 0x4E4B DUP2 DUP6 PUSH2 0x4DFB JUMP JUMPDEST SWAP4 POP PUSH2 0x4E5B DUP2 DUP6 PUSH1 0x20 DUP7 ADD PUSH2 0x4E0C JUMP JUMPDEST PUSH2 0x4E64 DUP2 PUSH2 0x4BD1 JUMP JUMPDEST DUP5 ADD SWAP2 POP POP SWAP3 SWAP2 POP POP JUMP JUMPDEST PUSH1 0x0 PUSH1 0x60 DUP3 ADD SWAP1 POP DUP2 DUP2 SUB PUSH1 0x0 DUP4 ADD MSTORE PUSH2 0x4E89 DUP2 DUP7 PUSH2 0x4E36 JUMP JUMPDEST SWAP1 POP PUSH2 0x4E98 PUSH1 0x20 DUP4 ADD DUP6 PUSH2 0x49B8 JUMP JUMPDEST PUSH2 0x4EA5 PUSH1 0x40 DUP4 ADD DUP5 PUSH2 0x49B8 JUMP JUMPDEST SWAP5 SWAP4 POP POP POP POP JUMP JUMPDEST PUSH2 0x4EB6 DUP2 PUSH2 0x4AED JUMP JUMPDEST DUP3 MSTORE POP POP JUMP JUMPDEST PUSH1 0x0 PUSH1 0x20 DUP3 ADD SWAP1 POP PUSH2 0x4ED1 PUSH1 0x0 DUP4 ADD DUP5 PUSH2 0x4EAD JUMP JUMPDEST SWAP3 SWAP2 POP POP JUMP JUMPDEST PUSH1 0x0 PUSH1 0x40 DUP3 ADD SWAP1 POP PUSH2 0x4EEC PUSH1 0x0 DUP4 ADD DUP6 PUSH2 0x49B8 JUMP JUMPDEST PUSH2 0x4EF9 PUSH1 0x20 DUP4 ADD DUP5 PUSH2 0x49B8 JUMP JUMPDEST SWAP4 SWAP3 POP POP POP JUMP JUMPDEST PUSH1 0x0 DUP1 PUSH1 0x0 DUP1 PUSH1 0x80 DUP6 DUP8 SUB SLT ISZERO PUSH2 0x4F1A JUMPI PUSH2 0x4F19 PUSH2 0x49EC JUMP JUMPDEST JUMPDEST PUSH1 0x0 PUSH2 0x4F28 DUP8 DUP3 DUP9 ADD PUSH2 0x4A0D JUMP JUMPDEST SWAP5 POP POP PUSH1 0x20 PUSH2 0x4F39 DUP8 DUP3 DUP9 ADD PUSH2 0x4A0D JUMP JUMPDEST SWAP4 POP POP PUSH1 0x40 PUSH2 0x4F4A DUP8 DUP3 DUP9 ADD PUSH2 0x4A0D JUMP JUMPDEST SWAP3 POP POP PUSH1 0x60 PUSH2 0x4F5B DUP8 DUP3 DUP9 ADD PUSH2 0x4B10 JUMP JUMPDEST SWAP2 POP POP SWAP3 SWAP6 SWAP2 SWAP5 POP SWAP3 POP JUMP JUMPDEST PUSH1 0x0 DUP1 REVERT JUMPDEST PUSH1 0x0 PUSH8 0xFFFFFFFFFFFFFFFF DUP3 GT ISZERO PUSH2 0x4F87 JUMPI PUSH2 0x4F86 PUSH2 0x4BE2 JUMP JUMPDEST JUMPDEST PUSH2 0x4F90 DUP3 PUSH2 0x4BD1 JUMP JUMPDEST SWAP1 POP PUSH1 0x20 DUP2 ADD SWAP1 POP SWAP2 SWAP1 POP JUMP JUMPDEST DUP3 DUP2 DUP4 CALLDATACOPY PUSH1 0x0 DUP4 DUP4 ADD MSTORE POP POP POP JUMP JUMPDEST PUSH1 0x0 PUSH2 0x4FBF PUSH2 0x4FBA DUP5 PUSH2 0x4F6C JUMP JUMPDEST PUSH2 0x4C42 JUMP JUMPDEST SWAP1 POP DUP3 DUP2 MSTORE PUSH1 0x20 DUP2 ADD DUP5 DUP5 DUP5 ADD GT ISZERO PUSH2 0x4FDB JUMPI PUSH2 0x4FDA PUSH2 0x4F67 JUMP JUMPDEST JUMPDEST PUSH2 0x4FE6 DUP5 DUP3 DUP6 PUSH2 0x4F9D JUMP JUMPDEST POP SWAP4 SWAP3 POP POP POP JUMP JUMPDEST PUSH1 0x0 DUP3 PUSH1 0x1F DUP4 ADD SLT PUSH2 0x5003 JUMPI PUSH2 0x5002 PUSH2 0x4BCC JUMP JUMPDEST JUMPDEST DUP2 CALLDATALOAD PUSH2 0x5013 DUP5 DUP3 PUSH1 0x20 DUP7 ADD PUSH2 0x4FAC JUMP JUMPDEST SWAP2 POP POP SWAP3 SWAP2 POP POP JUMP JUMPDEST PUSH1 0x0 DUP1 PUSH1 0x0 DUP1 PUSH1 0x80 DUP6 DUP8 SUB SLT ISZERO PUSH2 0x5036 JUMPI PUSH2 0x5035 PUSH2 0x49EC JUMP JUMPDEST JUMPDEST PUSH1 0x0 DUP6 ADD CALLDATALOAD PUSH8 0xFFFFFFFFFFFFFFFF DUP2 GT ISZERO PUSH2 0x5054 JUMPI PUSH2 0x5053 PUSH2 0x49F1 JUMP JUMPDEST JUMPDEST PUSH2 0x5060 DUP8 DUP3 DUP9 ADD PUSH2 0x4FEE JUMP JUMPDEST SWAP5 POP POP PUSH1 0x20 PUSH2 0x5071 DUP8 DUP3 DUP9 ADD PUSH2 0x4A0D JUMP JUMPDEST SWAP4 POP POP PUSH1 0x40 PUSH2 0x5082 DUP8 DUP3 DUP9 ADD PUSH2 0x4A0D JUMP JUMPDEST SWAP3 POP POP PUSH1 0x60 PUSH2 0x5093 DUP8 DUP3 DUP9 ADD PUSH2 0x4B10 JUMP JUMPDEST SWAP2 POP POP SWAP3 SWAP6 SWAP2 SWAP5 POP SWAP3 POP JUMP JUMPDEST PUSH1 0x0 DUP2 MLOAD SWAP1 POP SWAP2 SWAP1 POP JUMP JUMPDEST PUSH1 0x0 DUP3 DUP3 MSTORE PUSH1 0x20 DUP3 ADD SWAP1 POP SWAP3 SWAP2 POP POP JUMP JUMPDEST PUSH1 0x0 DUP2 SWAP1 POP PUSH1 0x20 DUP3 ADD SWAP1 POP SWAP2 SWAP1 POP JUMP JUMPDEST PUSH2 0x50D4 DUP2 PUSH2 0x49AE JUMP JUMPDEST DUP3 MSTORE POP POP JUMP JUMPDEST PUSH1 0x0 PUSH2 0x50E6 DUP4 DUP4 PUSH2 0x50CB JUMP JUMPDEST PUSH1 0x20 DUP4 ADD SWAP1 POP SWAP3 SWAP2 POP POP JUMP JUMPDEST PUSH1 0x0 PUSH1 0x20 DUP3 ADD SWAP1 POP SWAP2 SWAP1 POP JUMP JUMPDEST PUSH1 0x0 PUSH2 0x510A DUP3 PUSH2 0x509F JUMP JUMPDEST PUSH2 0x5114 DUP2 DUP6 PUSH2 0x50AA JUMP JUMPDEST SWAP4 POP PUSH2 0x511F DUP4 PUSH2 0x50BB JUMP JUMPDEST DUP1 PUSH1 0x0 JUMPDEST DUP4 DUP2 LT ISZERO PUSH2 0x5150 JUMPI DUP2 MLOAD PUSH2 0x5137 DUP9 DUP3 PUSH2 0x50DA JUMP JUMPDEST SWAP8 POP PUSH2 0x5142 DUP4 PUSH2 0x50F2 JUMP JUMPDEST SWAP3 POP POP PUSH1 0x1 DUP2 ADD SWAP1 POP PUSH2 0x5123 JUMP JUMPDEST POP DUP6 SWAP4 POP POP POP POP SWAP3 SWAP2 POP POP JUMP JUMPDEST PUSH1 0x0 PUSH1 0x20 DUP3 ADD SWAP1 POP DUP2 DUP2 SUB PUSH1 0x0 DUP4 ADD MSTORE PUSH2 0x5177 DUP2 DUP5 PUSH2 0x50FF JUMP JUMPDEST SWAP1 POP SWAP3 SWAP2 POP POP JUMP JUMPDEST PUSH2 0x5188 DUP2 PUSH2 0x4A82 JUMP JUMPDEST DUP3 MSTORE POP POP JUMP JUMPDEST PUSH1 0x0 PUSH1 0x20 DUP3 ADD SWAP1 POP PUSH2 0x51A3 PUSH1 0x0 DUP4 ADD DUP5 PUSH2 0x517F JUMP JUMPDEST SWAP3 SWAP2 POP POP JUMP JUMPDEST PUSH1 0x0 DUP1 PUSH1 0x40 DUP4 DUP6 SUB SLT ISZERO PUSH2 0x51C0 JUMPI PUSH2 0x51BF PUSH2 0x49EC JUMP JUMPDEST JUMPDEST PUSH1 0x0 PUSH2 0x51CE DUP6 DUP3 DUP7 ADD PUSH2 0x4AAB JUMP JUMPDEST SWAP3 POP POP PUSH1 0x20 PUSH2 0x51DF DUP6 DUP3 DUP7 ADD PUSH2 0x4A0D JUMP JUMPDEST SWAP2 POP POP SWAP3 POP SWAP3 SWAP1 POP JUMP JUMPDEST PUSH1 0x0 PUSH2 0x51F4 DUP3 PUSH2 0x4A62 JUMP JUMPDEST SWAP1 POP SWAP2 SWAP1 POP JUMP JUMPDEST PUSH2 0x5204 DUP2 PUSH2 0x51E9 JUMP JUMPDEST DUP3 MSTORE POP POP JUMP JUMPDEST PUSH1 0x0 PUSH1 0x20 DUP3 ADD SWAP1 POP PUSH2 0x521F PUSH1 0x0 DUP4 ADD DUP5 PUSH2 0x51FB JUMP JUMPDEST SWAP3 SWAP2 POP POP JUMP JUMPDEST PUSH1 0x0 DUP1 PUSH1 0x0 PUSH1 0x60 DUP5 DUP7 SUB SLT ISZERO PUSH2 0x523E JUMPI PUSH2 0x523D PUSH2 0x49EC JUMP JUMPDEST JUMPDEST PUSH1 0x0 PUSH2 0x524C DUP7 DUP3 DUP8 ADD PUSH2 0x4A0D JUMP JUMPDEST SWAP4 POP POP PUSH1 0x20 PUSH2 0x525D DUP7 DUP3 DUP8 ADD PUSH2 0x4A0D JUMP JUMPDEST SWAP3 POP POP PUSH1 0x40 PUSH2 0x526E DUP7 DUP3 DUP8 ADD PUSH2 0x4A0D JUMP JUMPDEST SWAP2 POP POP SWAP3 POP SWAP3 POP SWAP3 JUMP JUMPDEST PUSH1 0x0 PUSH2 0x5283 DUP3 PUSH2 0x4B7E JUMP JUMPDEST SWAP1 POP SWAP2 SWAP1 POP JUMP JUMPDEST PUSH2 0x5293 DUP2 PUSH2 0x5278 JUMP JUMPDEST DUP3 MSTORE POP POP JUMP JUMPDEST PUSH1 0x0 PUSH1 0x20 DUP3 ADD SWAP1 POP PUSH2 0x52AE PUSH1 0x0 DUP4 ADD DUP5 PUSH2 0x528A JUMP JUMPDEST SWAP3 SWAP2 POP POP JUMP JUMPDEST PUSH1 0x0 DUP1 PUSH1 0x0 PUSH1 0x60 DUP5 DUP7 SUB SLT ISZERO PUSH2 0x52CD JUMPI PUSH2 0x52CC PUSH2 0x49EC JUMP JUMPDEST JUMPDEST PUSH1 0x0 PUSH2 0x52DB DUP7 DUP3 DUP8 ADD PUSH2 0x4AAB JUMP JUMPDEST SWAP4 POP POP PUSH1 0x20 PUSH2 0x52EC DUP7 DUP3 DUP8 ADD PUSH2 0x4A0D JUMP JUMPDEST SWAP3 POP POP PUSH1 0x40 PUSH2 0x52FD DUP7 DUP3 DUP8 ADD PUSH2 0x4A0D JUMP JUMPDEST SWAP2 POP POP SWAP3 POP SWAP3 POP SWAP3 JUMP JUMPDEST PUSH32 0x4E487B7100000000000000000000000000000000000000000000000000000000 PUSH1 0x0 MSTORE PUSH1 0x32 PUSH1 0x4 MSTORE PUSH1 0x24 PUSH1 0x0 REVERT JUMPDEST PUSH32 0x4E487B7100000000000000000000000000000000000000000000000000000000 PUSH1 0x0 MSTORE PUSH1 0x11 PUSH1 0x4 MSTORE PUSH1 0x24 PUSH1 0x0 REVERT JUMPDEST PUSH1 0x0 PUSH2 0x5370 DUP3 PUSH2 0x49AE JUMP JUMPDEST SWAP2 POP PUSH2 0x537B DUP4 PUSH2 0x49AE JUMP JUMPDEST SWAP3 POP DUP3 DUP3 ADD SWAP1 POP DUP1 DUP3 GT ISZERO PUSH2 0x5393 JUMPI PUSH2 0x5392 PUSH2 0x5336 JUMP JUMPDEST JUMPDEST SWAP3 SWAP2 POP POP JUMP JUMPDEST PUSH1 0x0 PUSH2 0x53A4 DUP3 PUSH2 0x49AE JUMP JUMPDEST SWAP2 POP PUSH2 0x53AF DUP4 PUSH2 0x49AE JUMP JUMPDEST SWAP3 POP DUP3 DUP3 SUB SWAP1 POP DUP2 DUP2 GT ISZERO PUSH2 0x53C7 JUMPI PUSH2 0x53C6 PUSH2 0x5336 JUMP JUMPDEST JUMPDEST SWAP3 SWAP2 POP POP JUMP JUMPDEST PUSH32 0x4E6F7420656E6F756768206372797374616C7320746F2073656C6C0000000000 PUSH1 0x0 DUP3 ADD MSTORE POP JUMP JUMPDEST PUSH1 0x0 PUSH2 0x5403 PUSH1 0x1B DUP4 PUSH2 0x4DFB JUMP JUMPDEST SWAP2 POP PUSH2 0x540E DUP3 PUSH2 0x53CD JUMP JUMPDEST PUSH1 0x20 DUP3 ADD SWAP1 POP SWAP2 SWAP1 POP JUMP JUMPDEST PUSH1 0x0 PUSH1 0x20 DUP3 ADD SWAP1 POP DUP2 DUP2 SUB PUSH1 0x0 DUP4 ADD MSTORE PUSH2 0x5432 DUP2 PUSH2 0x53F6 JUMP JUMPDEST SWAP1 POP SWAP2 SWAP1 POP JUMP JUMPDEST PUSH32 0x52657761726420646973747269627574696F6E20696E2070726F67726573732E PUSH1 0x0 DUP3 ADD MSTORE PUSH32 0x20506C656173652074727920616761696E206C617465722E0000000000000000 PUSH1 0x20 DUP3 ADD MSTORE POP JUMP JUMPDEST PUSH1 0x0 PUSH2 0x5495 PUSH1 0x38 DUP4 PUSH2 0x4DFB JUMP JUMPDEST SWAP2 POP PUSH2 0x54A0 DUP3 PUSH2 0x5439 JUMP JUMPDEST PUSH1 0x40 DUP3 ADD SWAP1 POP SWAP2 SWAP1 POP JUMP JUMPDEST PUSH1 0x0 PUSH1 0x20 DUP3 ADD SWAP1 POP DUP2 DUP2 SUB PUSH1 0x0 DUP4 ADD MSTORE PUSH2 0x54C4 DUP2 PUSH2 0x5488 JUMP JUMPDEST SWAP1 POP SWAP2 SWAP1 POP JUMP JUMPDEST PUSH1 0x0 PUSH2 0x54D6 DUP3 PUSH2 0x49AE JUMP JUMPDEST SWAP2 POP PUSH2 0x54E1 DUP4 PUSH2 0x49AE JUMP JUMPDEST SWAP3 POP DUP3 DUP3 MUL PUSH2 0x54EF DUP2 PUSH2 0x49AE JUMP JUMPDEST SWAP2 POP DUP3 DUP3 DIV DUP5 EQ DUP4 ISZERO OR PUSH2 0x5506 JUMPI PUSH2 0x5505 PUSH2 0x5336 JUMP JUMPDEST JUMPDEST POP SWAP3 SWAP2 POP POP JUMP JUMPDEST PUSH32 0x4E487B7100000000000000000000000000000000000000000000000000000000 PUSH1 0x0 MSTORE PUSH1 0x12 PUSH1 0x4 MSTORE PUSH1 0x24 PUSH1 0x0 REVERT JUMPDEST PUSH1 0x0 PUSH2 0x5547 DUP3 PUSH2 0x49AE JUMP JUMPDEST SWAP2 POP PUSH2 0x5552 DUP4 PUSH2 0x49AE JUMP JUMPDEST SWAP3 POP DUP3 PUSH2 0x5562 JUMPI PUSH2 0x5561 PUSH2 0x550D JUMP JUMPDEST JUMPDEST DUP3 DUP3 DIV SWAP1 POP SWAP3 SWAP2 POP POP JUMP JUMPDEST PUSH32 0x4E487B7100000000000000000000000000000000000000000000000000000000 PUSH1 0x0 MSTORE PUSH1 0x22 PUSH1 0x4 MSTORE PUSH1 0x24 PUSH1 0x0 REVERT JUMPDEST PUSH1 0x0 PUSH1 0x2 DUP3 DIV SWAP1 POP PUSH1 0x1 DUP3 AND DUP1 PUSH2 0x55B4 JUMPI PUSH1 0x7F DUP3 AND SWAP2 POP JUMPDEST PUSH1 0x20 DUP3 LT DUP2 SUB PUSH2 0x55C7 JUMPI PUSH2 0x55C6 PUSH2 0x556D JUMP JUMPDEST JUMPDEST POP SWAP2 SWAP1 POP JUMP JUMPDEST PUSH32 0x4D7573742073656E642043524F20746F2062757920746F6B656E730000000000 PUSH1 0x0 DUP3 ADD MSTORE POP JUMP JUMPDEST PUSH1 0x0 PUSH2 0x5603 PUSH1 0x1B DUP4 PUSH2 0x4DFB JUMP JUMPDEST SWAP2 POP PUSH2 0x560E DUP3 PUSH2 0x55CD JUMP JUMPDEST PUSH1 0x20 DUP3 ADD SWAP1 POP SWAP2 SWAP1 POP JUMP JUMPDEST PUSH1 0x0 PUSH1 0x20 DUP3 ADD SWAP1 POP DUP2 DUP2 SUB PUSH1 0x0 DUP4 ADD MSTORE PUSH2 0x5632 DUP2 PUSH2 0x55F6 JUMP JUMPDEST SWAP1 POP SWAP2 SWAP1 POP JUMP JUMPDEST PUSH1 0x0 DUP2 MLOAD SWAP1 POP PUSH2 0x5648 DUP2 PUSH2 0x4AF9 JUMP JUMPDEST SWAP3 SWAP2 POP POP JUMP JUMPDEST PUSH1 0x0 PUSH1 0x20 DUP3 DUP5 SUB SLT ISZERO PUSH2 0x5664 JUMPI PUSH2 0x5663 PUSH2 0x49EC JUMP JUMPDEST JUMPDEST PUSH1 0x0 PUSH2 0x5672 DUP5 DUP3 DUP6 ADD PUSH2 0x5639 JUMP JUMPDEST SWAP2 POP POP SWAP3 SWAP2 POP POP JUMP JUMPDEST PUSH32 0x4E6F74206F6E207468652077686974656C697374210000000000000000000000 PUSH1 0x0 DUP3 ADD MSTORE POP JUMP JUMPDEST PUSH1 0x0 PUSH2 0x56B1 PUSH1 0x15 DUP4 PUSH2 0x4DFB JUMP JUMPDEST SWAP2 POP PUSH2 0x56BC DUP3 PUSH2 0x567B JUMP JUMPDEST PUSH1 0x20 DUP3 ADD SWAP1 POP SWAP2 SWAP1 POP JUMP JUMPDEST PUSH1 0x0 PUSH1 0x20 DUP3 ADD SWAP1 POP DUP2 DUP2 SUB PUSH1 0x0 DUP4 ADD MSTORE PUSH2 0x56E0 DUP2 PUSH2 0x56A4 JUMP JUMPDEST SWAP1 POP SWAP2 SWAP1 POP JUMP JUMPDEST PUSH32 0x53616C65206973206E6F7420796574206F70656E210000000000000000000000 PUSH1 0x0 DUP3 ADD MSTORE POP JUMP JUMPDEST PUSH1 0x0 PUSH2 0x571D PUSH1 0x15 DUP4 PUSH2 0x4DFB JUMP JUMPDEST SWAP2 POP PUSH2 0x5728 DUP3 PUSH2 0x56E7 JUMP JUMPDEST PUSH1 0x20 DUP3 ADD SWAP1 POP SWAP2 SWAP1 POP JUMP JUMPDEST PUSH1 0x0 PUSH1 0x20 DUP3 ADD SWAP1 POP DUP2 DUP2 SUB PUSH1 0x0 DUP4 ADD MSTORE PUSH2 0x574C DUP2 PUSH2 0x5710 JUMP JUMPDEST SWAP1 POP SWAP2 SWAP1 POP JUMP JUMPDEST PUSH32 0x4E6F7420656E6F7567682043524F20746F2062757920746F6B656E7300000000 PUSH1 0x0 DUP3 ADD MSTORE POP JUMP JUMPDEST PUSH1 0x0 PUSH2 0x5789 PUSH1 0x1C DUP4 PUSH2 0x4DFB JUMP JUMPDEST SWAP2 POP PUSH2 0x5794 DUP3 PUSH2 0x5753 JUMP JUMPDEST PUSH1 0x20 DUP3 ADD SWAP1 POP SWAP2 SWAP1 POP JUMP JUMPDEST PUSH1 0x0 PUSH1 0x20 DUP3 ADD SWAP1 POP DUP2 DUP2 SUB PUSH1 0x0 DUP4 ADD MSTORE PUSH2 0x57B8 DUP2 PUSH2 0x577C JUMP JUMPDEST SWAP1 POP SWAP2 SWAP1 POP JUMP JUMPDEST PUSH1 0x0 PUSH1 0x80 DUP3 ADD SWAP1 POP PUSH2 0x57D4 PUSH1 0x0 DUP4 ADD DUP8 PUSH2 0x49B8 JUMP JUMPDEST PUSH2 0x57E1 PUSH1 0x20 DUP4 ADD DUP7 PUSH2 0x49B8 JUMP JUMPDEST PUSH2 0x57EE PUSH1 0x40 DUP4 ADD DUP6 PUSH2 0x49B8 JUMP JUMPDEST PUSH2 0x57FB PUSH1 0x60 DUP4 ADD DUP5 PUSH2 0x49B8 JUMP JUMPDEST SWAP6 SWAP5 POP POP POP POP POP JUMP JUMPDEST PUSH1 0x0 DUP2 SWAP1 POP DUP2 PUSH1 0x0 MSTORE PUSH1 0x20 PUSH1 0x0 KECCAK256 SWAP1 POP SWAP2 SWAP1 POP JUMP JUMPDEST PUSH1 0x0 PUSH1 0x20 PUSH1 0x1F DUP4 ADD DIV SWAP1 POP SWAP2 SWAP1 POP JUMP JUMPDEST PUSH1 0x0 DUP3 DUP3 SHL SWAP1 POP SWAP3 SWAP2 POP POP JUMP JUMPDEST PUSH1 0x0 PUSH1 0x8 DUP4 MUL PUSH2 0x5866 PUSH32 0xFFFFFFFFFFFFFFFFFFFFFFFFFFFFFFFFFFFFFFFFFFFFFFFFFFFFFFFFFFFFFFFF DUP3 PUSH2 0x5829 JUMP JUMPDEST PUSH2 0x5870 DUP7 DUP4 PUSH2 0x5829 JUMP JUMPDEST SWAP6 POP DUP1 NOT DUP5 AND SWAP4 POP DUP1 DUP7 AND DUP5 OR SWAP3 POP POP POP SWAP4 SWAP3 POP POP POP JUMP JUMPDEST PUSH1 0x0 PUSH2 0x58A3 PUSH2 0x589E PUSH2 0x5899 DUP5 PUSH2 0x49AE JUMP JUMPDEST PUSH2 0x4B52 JUMP JUMPDEST PUSH2 0x49AE JUMP JUMPDEST SWAP1 POP SWAP2 SWAP1 POP JUMP JUMPDEST PUSH1 0x0 DUP2 SWAP1 POP SWAP2 SWAP1 POP JUMP JUMPDEST PUSH2 0x58BD DUP4 PUSH2 0x5888 JUMP JUMPDEST PUSH2 0x58D1 PUSH2 0x58C9 DUP3 PUSH2 0x58AA JUMP JUMPDEST DUP5 DUP5 SLOAD PUSH2 0x5836 JUMP JUMPDEST DUP3 SSTORE POP POP POP POP JUMP JUMPDEST PUSH1 0x0 SWAP1 JUMP JUMPDEST PUSH2 0x58E6 PUSH2 0x58D9 JUMP JUMPDEST PUSH2 0x58F1 DUP2 DUP5 DUP5 PUSH2 0x58B4 JUMP JUMPDEST POP POP POP JUMP JUMPDEST JUMPDEST DUP2 DUP2 LT ISZERO PUSH2 0x5915 JUMPI PUSH2 0x590A PUSH1 0x0 DUP3 PUSH2 0x58DE JUMP JUMPDEST PUSH1 0x1 DUP2 ADD SWAP1 POP PUSH2 0x58F7 JUMP JUMPDEST POP POP JUMP JUMPDEST PUSH1 0x1F DUP3 GT ISZERO PUSH2 0x595A JUMPI PUSH2 0x592B DUP2 PUSH2 0x5804 JUMP JUMPDEST PUSH2 0x5934 DUP5 PUSH2 0x5819 JUMP JUMPDEST DUP2 ADD PUSH1 0x20 DUP6 LT ISZERO PUSH2 0x5943 JUMPI DUP2 SWAP1 POP JUMPDEST PUSH2 0x5957 PUSH2 0x594F DUP6 PUSH2 0x5819 JUMP JUMPDEST DUP4 ADD DUP3 PUSH2 0x58F6 JUMP JUMPDEST POP POP JUMPDEST POP POP POP JUMP JUMPDEST PUSH1 0x0 DUP3 DUP3 SHR SWAP1 POP SWAP3 SWAP2 POP POP JUMP JUMPDEST PUSH1 0x0 PUSH2 0x597D PUSH1 0x0 NOT DUP5 PUSH1 0x8 MUL PUSH2 0x595F JUMP JUMPDEST NOT DUP1 DUP4 AND SWAP2 POP POP SWAP3 SWAP2 POP POP JUMP JUMPDEST PUSH1 0x0 PUSH2 0x5996 DUP4 DUP4 PUSH2 0x596C JUMP JUMPDEST SWAP2 POP DUP3 PUSH1 0x2 MUL DUP3 OR SWAP1 POP SWAP3 SWAP2 POP POP JUMP JUMPDEST PUSH2 0x59AF DUP3 PUSH2 0x4DF0 JUMP JUMPDEST PUSH8 0xFFFFFFFFFFFFFFFF DUP2 GT ISZERO PUSH2 0x59C8 JUMPI PUSH2 0x59C7 PUSH2 0x4BE2 JUMP JUMPDEST JUMPDEST PUSH2 0x59D2 DUP3 SLOAD PUSH2 0x559C JUMP JUMPDEST PUSH2 0x59DD DUP3 DUP3 DUP6 PUSH2 0x5919 JUMP JUMPDEST PUSH1 0x0 PUSH1 0x20 SWAP1 POP PUSH1 0x1F DUP4 GT PUSH1 0x1 DUP2 EQ PUSH2 0x5A10 JUMPI PUSH1 0x0 DUP5 ISZERO PUSH2 0x59FE JUMPI DUP3 DUP8 ADD MLOAD SWAP1 POP JUMPDEST PUSH2 0x5A08 DUP6 DUP3 PUSH2 0x598A JUMP JUMPDEST DUP7 SSTORE POP PUSH2 0x5A70 JUMP JUMPDEST PUSH1 0x1F NOT DUP5 AND PUSH2 0x5A1E DUP7 PUSH2 0x5804 JUMP JUMPDEST PUSH1 0x0 JUMPDEST DUP3 DUP2 LT ISZERO PUSH2 0x5A46 JUMPI DUP5 DUP10 ADD MLOAD DUP3 SSTORE PUSH1 0x1 DUP3 ADD SWAP2 POP PUSH1 0x20 DUP6 ADD SWAP5 POP PUSH1 0x20 DUP2 ADD SWAP1 POP PUSH2 0x5A21 JUMP JUMPDEST DUP7 DUP4 LT ISZERO PUSH2 0x5A63 JUMPI DUP5 DUP10 ADD MLOAD PUSH2 0x5A5F PUSH1 0x1F DUP10 AND DUP3 PUSH2 0x596C JUMP JUMPDEST DUP4 SSTORE POP JUMPDEST PUSH1 0x1 PUSH1 0x2 DUP9 MUL ADD DUP9 SSTORE POP POP POP JUMPDEST POP POP POP POP POP POP JUMP JUMPDEST PUSH32 0x446973747269627574696F6E206E6F7420696E697469616C697A656421000000 PUSH1 0x0 DUP3 ADD MSTORE POP JUMP JUMPDEST PUSH1 0x0 PUSH2 0x5AAE PUSH1 0x1D DUP4 PUSH2 0x4DFB JUMP JUMPDEST SWAP2 POP PUSH2 0x5AB9 DUP3 PUSH2 0x5A78 JUMP JUMPDEST PUSH1 0x20 DUP3 ADD SWAP1 POP SWAP2 SWAP1 POP JUMP JUMPDEST PUSH1 0x0 PUSH1 0x20 DUP3 ADD SWAP1 POP DUP2 DUP2 SUB PUSH1 0x0 DUP4 ADD MSTORE PUSH2 0x5ADD DUP2 PUSH2 0x5AA1 JUMP JUMPDEST SWAP1 POP SWAP2 SWAP1 POP JUMP JUMPDEST PUSH32 0x56616C7565206D757374206265206265747765656E203020616E642032300000 PUSH1 0x0 DUP3 ADD MSTORE POP JUMP JUMPDEST PUSH1 0x0 PUSH2 0x5B1A PUSH1 0x1E DUP4 PUSH2 0x4DFB JUMP JUMPDEST SWAP2 POP PUSH2 0x5B25 DUP3 PUSH2 0x5AE4 JUMP JUMPDEST PUSH1 0x20 DUP3 ADD SWAP1 POP SWAP2 SWAP1 POP JUMP JUMPDEST PUSH1 0x0 PUSH1 0x20 DUP3 ADD SWAP1 POP DUP2 DUP2 SUB PUSH1 0x0 DUP4 ADD MSTORE PUSH2 0x5B49 DUP2 PUSH2 0x5B0D JUMP JUMPDEST SWAP1 POP SWAP2 SWAP1 POP JUMP JUMPDEST PUSH1 0x0 PUSH2 0x5B5B DUP3 PUSH2 0x4B7E JUMP JUMPDEST SWAP1 POP SWAP2 SWAP1 POP JUMP JUMPDEST PUSH2 0x5B6B DUP2 PUSH2 0x5B50 JUMP JUMPDEST DUP3 MSTORE POP POP JUMP JUMPDEST PUSH1 0x0 PUSH1 0x60 DUP3 ADD SWAP1 POP PUSH2 0x5B86 PUSH1 0x0 DUP4 ADD DUP7 PUSH2 0x5B62 JUMP JUMPDEST PUSH2 0x5B93 PUSH1 0x20 DUP4 ADD DUP6 PUSH2 0x517F JUMP JUMPDEST PUSH2 0x5BA0 PUSH1 0x40 DUP4 ADD DUP5 PUSH2 0x49B8 JUMP JUMPDEST SWAP5 SWAP4 POP POP POP POP JUMP JUMPDEST PUSH32 0x4E6F2043524F206F776564000000000000000000000000000000000000000000 PUSH1 0x0 DUP3 ADD MSTORE POP JUMP JUMPDEST PUSH1 0x0 PUSH2 0x5BDE PUSH1 0xB DUP4 PUSH2 0x4DFB JUMP JUMPDEST SWAP2 POP PUSH2 0x5BE9 DUP3 PUSH2 0x5BA8 JUMP JUMPDEST PUSH1 0x20 DUP3 ADD SWAP1 POP SWAP2 SWAP1 POP JUMP JUMPDEST PUSH1 0x0 PUSH1 0x20 DUP3 ADD SWAP1 POP DUP2 DUP2 SUB PUSH1 0x0 DUP4 ADD MSTORE PUSH2 0x5C0D DUP2 PUSH2 0x5BD1 JUMP JUMPDEST SWAP1 POP SWAP2 SWAP1 POP JUMP JUMPDEST PUSH32 0x47656D207479706520646F6573206E6F74206578697374000000000000000000 PUSH1 0x0 DUP3 ADD MSTORE POP JUMP JUMPDEST PUSH1 0x0 PUSH2 0x5C4A PUSH1 0x17 DUP4 PUSH2 0x4DFB JUMP JUMPDEST SWAP2 POP PUSH2 0x5C55 DUP3 PUSH2 0x5C14 JUMP JUMPDEST PUSH1 0x20 DUP3 ADD SWAP1 POP SWAP2 SWAP1 POP JUMP JUMPDEST PUSH1 0x0 PUSH1 0x20 DUP3 ADD SWAP1 POP DUP2 DUP2 SUB PUSH1 0x0 DUP4 ADD MSTORE PUSH2 0x5C79 DUP2 PUSH2 0x5C3D JUMP JUMPDEST SWAP1 POP SWAP2 SWAP1 POP JUMP JUMPDEST PUSH32 0x4E6F7420656E6F7567682067656D7320746F2073656C6C000000000000000000 PUSH1 0x0 DUP3 ADD MSTORE POP JUMP JUMPDEST PUSH1 0x0 PUSH2 0x5CB6 PUSH1 0x17 DUP4 PUSH2 0x4DFB JUMP JUMPDEST SWAP2 POP PUSH2 0x5CC1 DUP3 PUSH2 0x5C80 JUMP JUMPDEST PUSH1 0x20 DUP3 ADD SWAP1 POP SWAP2 SWAP1 POP JUMP JUMPDEST PUSH1 0x0 PUSH1 0x20 DUP3 ADD SWAP1 POP DUP2 DUP2 SUB PUSH1 0x0 DUP4 ADD MSTORE PUSH2 0x5CE5 DUP2 PUSH2 0x5CA9 JUMP JUMPDEST SWAP1 POP SWAP2 SWAP1 POP JUMP JUMPDEST PUSH32 0x43616C6C6572206973206E6F7420616E2061646D696E00000000000000000000 PUSH1 0x0 DUP3 ADD MSTORE POP JUMP JUMPDEST PUSH1 0x0 PUSH2 0x5D22 PUSH1 0x16 DUP4 PUSH2 0x4DFB JUMP JUMPDEST SWAP2 POP PUSH2 0x5D2D DUP3 PUSH2 0x5CEC JUMP JUMPDEST PUSH1 0x20 DUP3 ADD SWAP1 POP SWAP2 SWAP1 POP JUMP JUMPDEST PUSH1 0x0 PUSH1 0x20 DUP3 ADD SWAP1 POP DUP2 DUP2 SUB PUSH1 0x0 DUP4 ADD MSTORE PUSH2 0x5D51 DUP2 PUSH2 0x5D15 JUMP JUMPDEST SWAP1 POP SWAP2 SWAP1 POP JUMP JUMPDEST PUSH1 0x0 PUSH2 0x5D63 DUP3 PUSH2 0x49AE JUMP JUMPDEST SWAP2 POP PUSH32 0xFFFFFFFFFFFFFFFFFFFFFFFFFFFFFFFFFFFFFFFFFFFFFFFFFFFFFFFFFFFFFFFF DUP3 SUB PUSH2 0x5D95 JUMPI PUSH2 0x5D94 PUSH2 0x5336 JUMP JUMPDEST JUMPDEST PUSH1 0x1 DUP3 ADD SWAP1 POP SWAP2 SWAP1 POP JUMP JUMPDEST PUSH1 0x0 PUSH1 0x60 DUP3 ADD SWAP1 POP PUSH2 0x5DB5 PUSH1 0x0 DUP4 ADD DUP7 PUSH2 0x517F JUMP JUMPDEST PUSH2 0x5DC2 PUSH1 0x20 DUP4 ADD DUP6 PUSH2 0x5B62 JUMP JUMPDEST PUSH2 0x5DCF PUSH1 0x40 DUP4 ADD DUP5 PUSH2 0x49B8 JUMP JUMPDEST SWAP5 SWAP4 POP POP POP POP JUMP JUMPDEST PUSH32 0x4E6F7420656E6F756768207370656E6461626C6520746F6B656E2E0000000000 PUSH1 0x0 DUP3 ADD MSTORE POP JUMP JUMPDEST PUSH1 0x0 PUSH2 0x5E0D PUSH1 0x1B DUP4 PUSH2 0x4DFB JUMP JUMPDEST SWAP2 POP PUSH2 0x5E18 DUP3 PUSH2 0x5DD7 JUMP JUMPDEST PUSH1 0x20 DUP3 ADD SWAP1 POP SWAP2 SWAP1 POP JUMP JUMPDEST PUSH1 0x0 PUSH1 0x20 DUP3 ADD SWAP1 POP DUP2 DUP2 SUB PUSH1 0x0 DUP4 ADD MSTORE PUSH2 0x5E3C DUP2 PUSH2 0x5E00 JUMP JUMPDEST SWAP1 POP SWAP2 SWAP1 POP JUMP INVALID LOG2 PUSH5 0x6970667358 0x22 SLT KECCAK256 PUSH25 0x108B733B69BE26A4A62BC1AA329B3965E816B072DDD2C9D524 DUP7 0x21 0xC6 0xBD SUB MSTORE8 PUSH5 0x736F6C6343 STOP ADDMOD SHR STOP CALLER "},"methodIdentifiers":{"accumulatedCro()":"dc0c6a2a","addAsset(string,uint256,uint256,bool)":"869c865e","adminWhitelist()":"66d74c80","allUsers(uint256)":"a2bdedf4","buyCrystal(uint256,uint256)":"f9d70200","buyGem(uint256,uint256)":"e1dc75d2","buyToken(address)":"7e72fb52","calculateUserEarnings(address)":"109d75d5","claimEarnings()":"d9ceab13","claimReferralBonus()":"1e375ab9","collectEnergy(address)":"fd239fd9","collectedEnergy(address)":"c7a18347","crystalBonusPercentage()":"b9e66a79","crystals(uint256)":"31b3ab3f","currentCrystalPower(address)":"23ada717","currentGemPower(address)":"6de62ea7","currentPhase()":"055ad42e","distributionInProgress()":"50614c56","eligibleForReferral(address)":"de473f8d","firstPurchasePhase(address)":"51484a19","flush()":"6b9f96ea","gems(uint256)":"a1f0406d","generalWhitelist()":"1ff9e2b2","generatedEnergy(address)":"4e358662","getCrystals(address)":"876cf0ef","getGems(address)":"88185e03","giveTokenTo(address,uint256)":"ce54d6e1","initializeUsersEarningsUpdate()":"9c20097a","investmentAllowance(address)":"ef49968a","lastTimeEnergyComputed(address)":"4a5f58c7","mintCrystal(address,uint256,uint256)":"ff5133cd","nbUserUpdated()":"6182a57d","onlyAllowWhitelisted()":"8e84a0d8","owner()":"8da5cb5b","ownerWallet()":"9335dcb7","partnersWhitelist()":"af28728c","referredIntBonusPercentage()":"bbaa1177","referrerCroBonusPercentage()":"d7e14e13","referrerIntBonusPercentage()":"fcb966d7","renounceOwnership()":"715018a6","restrictReferralProgram(bool)":"df13c9ca","restrictReferralProgramToPartners()":"4ed9b7f6","sellCrystal(uint256,uint256)":"08d317dd","sellGem(uint256,uint256)":"f226de97","setAdminWhitelist(address)":"93dbc757","setCrystalBonusPercentage(uint256)":"91986316","setGeneralWhitelist(address)":"29e0f88d","setOnlyWhitelist(bool)":"1dd02b4b","setPartnersWhitelist(address)":"6143440c","setReferralBonusesPercentages(uint256,uint256,uint256)":"bc3de749","setStartDate(uint256)":"82d95df5","setSteps((uint256,uint256)[])":"21622c63","setUserAllowance(address,uint256)":"fb0fc076","spendableTokens(address)":"376f9671","startDate()":"0b97bc86","steps(uint256)":"7217e0b9","token()":"fc0c546a","totalClaimed(address)":"ef5d9ae8","totalClaimedCroReferralBonus(address)":"d4a444b4","totalClaimedIntReferralBonus(address)":"a54dfaad","totalCroToDistribute()":"868b91ac","totalCrystalPower()":"c8da5ef5","totalGemPower()":"2b4c73e5","totalIntInCrystals()":"206a5dbc","totalIntInGems()":"50a3eaf0","totalInvested(address)":"90838e09","totalPriceUnitsInCrystals()":"0ae19ba8","totalSold()":"9106d7ba","transferOwnership(address)":"f2fde38b","unclaimedCroReferralBonus(address)":"95ae8478","unclaimedEarnings(address)":"47315ec4","unclaimedIntReferralBonus(address)":"33298463","updateAllUsersEarnings()":"ba51cf07","updateAsset(uint256,uint256,uint256,bool)":"7d848db2","updateBatchSize()":"62476bed","userCrystals(address,uint256)":"90c757eb","userGems(address,uint256)":"c70e12cb"}}}}}