{"contracts/InterludePlatform.sol":{"InterludePlatform":{"abi":[{"inputs":[{"internalType":"address payable","name":"_owner","type":"address"},{"internalType":"address","name":"tokenAddress","type":"address"}],"stateMutability":"nonpayable","type":"constructor"},{"inputs":[{"internalType":"address","name":"owner","type":"address"}],"name":"OwnableInvalidOwner","type":"error"},{"inputs":[{"internalType":"address","name":"account","type":"address"}],"name":"OwnableUnauthorizedAccount","type":"error"},{"anonymous":false,"inputs":[{"indexed":true,"internalType":"address","name":"user","type":"address"},{"indexed":false,"internalType":"bool","name":"isCrystal","type":"bool"},{"indexed":false,"internalType":"bool","name":"isBuy","type":"bool"},{"indexed":false,"internalType":"uint256","name":"index","type":"uint256"},{"indexed":false,"internalType":"uint256","name":"quantity","type":"uint256"}],"name":"AssetTransaction","type":"event"},{"anonymous":false,"inputs":[{"indexed":true,"internalType":"address","name":"user","type":"address"},{"indexed":false,"internalType":"uint256","name":"index","type":"uint256"},{"indexed":false,"internalType":"uint256","name":"quantity","type":"uint256"}],"name":"CrystalMint","type":"event"},{"anonymous":false,"inputs":[{"indexed":true,"internalType":"address","name":"user","type":"address"},{"indexed":false,"internalType":"uint256","name":"amount","type":"uint256"}],"name":"EarningsClaim","type":"event"},{"anonymous":false,"inputs":[{"indexed":true,"internalType":"address","name":"user","type":"address"},{"indexed":false,"internalType":"uint256","name":"amount","type":"uint256"}],"name":"EarningsReserve","type":"event"},{"anonymous":false,"inputs":[{"indexed":true,"internalType":"address","name":"user","type":"address"},{"indexed":false,"internalType":"uint256","name":"energyAmount","type":"uint256"}],"name":"EnergyCollected","type":"event"},{"anonymous":false,"inputs":[{"indexed":true,"internalType":"address","name":"previousOwner","type":"address"},{"indexed":true,"internalType":"address","name":"newOwner","type":"address"}],"name":"OwnershipTransferred","type":"event"},{"anonymous":false,"inputs":[{"indexed":true,"internalType":"address","name":"user","type":"address"},{"indexed":false,"internalType":"uint256","name":"croAmount","type":"uint256"},{"indexed":false,"internalType":"uint256","name":"intAmount","type":"uint256"}],"name":"ReferralBonusClaim","type":"event"},{"anonymous":false,"inputs":[{"indexed":true,"internalType":"address","name":"buyer","type":"address"},{"indexed":false,"internalType":"uint256","name":"value","type":"uint256"},{"indexed":false,"internalType":"uint256","name":"referrerCroBonus","type":"uint256"},{"indexed":false,"internalType":"uint256","name":"referrerIntBonus","type":"uint256"},{"indexed":false,"internalType":"uint256","name":"referredIntBonus","type":"uint256"}],"name":"TokenPurchase","type":"event"},{"inputs":[{"internalType":"string","name":"assetName","type":"string"},{"internalType":"uint256","name":"power","type":"uint256"},{"internalType":"uint256","name":"unscaledPrice","type":"uint256"},{"internalType":"bool","name":"isCrystal","type":"bool"}],"name":"addAsset","outputs":[],"stateMutability":"nonpayable","type":"function"},{"inputs":[],"name":"adminWhitelist","outputs":[{"internalType":"contract IWhitelist","name":"","type":"address"}],"stateMutability":"view","type":"function"},{"inputs":[{"internalType":"uint256","name":"crystalType","type":"uint256"},{"internalType":"uint256","name":"amount","type":"uint256"}],"name":"buyCrystal","outputs":[],"stateMutability":"nonpayable","type":"function"},{"inputs":[{"internalType":"uint256","name":"gemType","type":"uint256"},{"internalType":"uint256","name":"amount","type":"uint256"}],"name":"buyGem","outputs":[],"stateMutability":"nonpayable","type":"function"},{"inputs":[{"internalType":"address","name":"referralAddress","type":"address"}],"name":"buyToken","outputs":[],"stateMutability":"payable","type":"function"},{"inputs":[{"internalType":"address","name":"user","type":"address"}],"name":"calculateUserEarnings","outputs":[{"internalType":"uint256","name":"","type":"uint256"}],"stateMutability":"view","type":"function"},{"inputs":[],"name":"claimEarnings","outputs":[],"stateMutability":"nonpayable","type":"function"},{"inputs":[],"name":"claimReferralBonus","outputs":[],"stateMutability":"nonpayable","type":"function"},{"inputs":[{"internalType":"address","name":"user","type":"address"}],"name":"collectEnergy","outputs":[{"internalType":"uint256","name":"","type":"uint256"}],"stateMutability":"nonpayable","type":"function"},{"inputs":[{"internalType":"address","name":"","type":"address"}],"name":"collectedEnergy","outputs":[{"internalType":"uint256","name":"","type":"uint256"}],"stateMutability":"view","type":"function"},{"inputs":[{"internalType":"uint256","name":"","type":"uint256"}],"name":"crystals","outputs":[{"internalType":"string","name":"name","type":"string"},{"internalType":"uint256","name":"power","type":"uint256"},{"internalType":"uint256","name":"unscaledPrice","type":"uint256"}],"stateMutability":"view","type":"function"},{"inputs":[],"name":"cumulativeRewardPerWeightCrystals","outputs":[{"internalType":"uint256","name":"","type":"uint256"}],"stateMutability":"view","type":"function"},{"inputs":[],"name":"cumulativeRewardPerWeightGems","outputs":[{"internalType":"uint256","name":"","type":"uint256"}],"stateMutability":"view","type":"function"},{"inputs":[{"internalType":"address","name":"","type":"address"}],"name":"currentCrystalPower","outputs":[{"internalType":"uint256","name":"","type":"uint256"}],"stateMutability":"view","type":"function"},{"inputs":[{"internalType":"address","name":"","type":"address"}],"name":"currentGemPower","outputs":[{"internalType":"uint256","name":"","type":"uint256"}],"stateMutability":"view","type":"function"},{"inputs":[],"name":"currentPhase","outputs":[{"internalType":"uint256","name":"","type":"uint256"}],"stateMutability":"view","type":"function"},{"inputs":[{"internalType":"address","name":"user","type":"address"}],"name":"eligibleForReferral","outputs":[{"internalType":"bool","name":"","type":"bool"}],"stateMutability":"view","type":"function"},{"inputs":[{"internalType":"address","name":"","type":"address"}],"name":"firstPurchasePhase","outputs":[{"internalType":"uint256","name":"","type":"uint256"}],"stateMutability":"view","type":"function"},{"inputs":[],"name":"flush","outputs":[],"stateMutability":"nonpayable","type":"function"},{"inputs":[{"internalType":"uint256","name":"","type":"uint256"}],"name":"gems","outputs":[{"internalType":"string","name":"name","type":"string"},{"internalType":"uint256","name":"power","type":"uint256"},{"internalType":"uint256","name":"unscaledPrice","type":"uint256"}],"stateMutability":"view","type":"function"},{"inputs":[],"name":"generalWhitelist","outputs":[{"internalType":"contract IWhitelist","name":"","type":"address"}],"stateMutability":"view","type":"function"},{"inputs":[{"internalType":"address","name":"","type":"address"}],"name":"generatedEnergy","outputs":[{"internalType":"uint256","name":"","type":"uint256"}],"stateMutability":"view","type":"function"},{"inputs":[{"internalType":"address","name":"user","type":"address"}],"name":"getCrystals","outputs":[{"internalType":"uint256[]","name":"","type":"uint256[]"}],"stateMutability":"view","type":"function"},{"inputs":[{"internalType":"address","name":"user","type":"address"}],"name":"getGems","outputs":[{"internalType":"uint256[]","name":"","type":"uint256[]"}],"stateMutability":"view","type":"function"},{"inputs":[{"internalType":"address","name":"user","type":"address"},{"internalType":"uint256","name":"amount","type":"uint256"}],"name":"giveTokenTo","outputs":[],"stateMutability":"nonpayable","type":"function"},{"inputs":[{"internalType":"address","name":"user","type":"address"},{"internalType":"uint256","name":"amount","type":"uint256"}],"name":"giveUnclaimedEarnings","outputs":[],"stateMutability":"nonpayable","type":"function"},{"inputs":[{"internalType":"address","name":"","type":"address"}],"name":"investmentAllowance","outputs":[{"internalType":"uint256","name":"","type":"uint256"}],"stateMutability":"view","type":"function"},{"inputs":[{"internalType":"address","name":"","type":"address"}],"name":"lastClaimedRewardPerWeightCrystals","outputs":[{"internalType":"uint256","name":"","type":"uint256"}],"stateMutability":"view","type":"function"},{"inputs":[{"internalType":"address","name":"","type":"address"}],"name":"lastClaimedRewardPerWeightGems","outputs":[{"internalType":"uint256","name":"","type":"uint256"}],"stateMutability":"view","type":"function"},{"inputs":[{"internalType":"address","name":"","type":"address"}],"name":"lastTimeEnergyComputed","outputs":[{"internalType":"uint256","name":"","type":"uint256"}],"stateMutability":"view","type":"function"},{"inputs":[{"internalType":"address","name":"user","type":"address"},{"internalType":"uint256","name":"crystalType","type":"uint256"},{"internalType":"uint256","name":"amount","type":"uint256"}],"name":"mintCrystal","outputs":[],"stateMutability":"nonpayable","type":"function"},{"inputs":[],"name":"onlyAllowWhitelisted","outputs":[{"internalType":"bool","name":"","type":"bool"}],"stateMutability":"view","type":"function"},{"inputs":[],"name":"owner","outputs":[{"internalType":"address","name":"","type":"address"}],"stateMutability":"view","type":"function"},{"inputs":[],"name":"partnersWhitelist","outputs":[{"internalType":"contract IWhitelist","name":"","type":"address"}],"stateMutability":"view","type":"function"},{"inputs":[],"name":"referredIntBonusPercentage","outputs":[{"internalType":"uint256","name":"","type":"uint256"}],"stateMutability":"view","type":"function"},{"inputs":[],"name":"referrerCroBonusPercentage","outputs":[{"internalType":"uint256","name":"","type":"uint256"}],"stateMutability":"view","type":"function"},{"inputs":[],"name":"referrerIntBonusPercentage","outputs":[{"internalType":"uint256","name":"","type":"uint256"}],"stateMutability":"view","type":"function"},{"inputs":[{"internalType":"address","name":"user","type":"address"}],"name":"reinitializeEnergy","outputs":[],"stateMutability":"nonpayable","type":"function"},{"inputs":[],"name":"renounceOwnership","outputs":[],"stateMutability":"nonpayable","type":"function"},{"inputs":[{"internalType":"bool","name":"_restricted","type":"bool"}],"name":"restrictReferralProgram","outputs":[],"stateMutability":"nonpayable","type":"function"},{"inputs":[],"name":"restrictReferralProgramToPartners","outputs":[{"internalType":"bool","name":"","type":"bool"}],"stateMutability":"view","type":"function"},{"inputs":[{"internalType":"uint256","name":"crystalType","type":"uint256"},{"internalType":"uint256","name":"amount","type":"uint256"}],"name":"sellCrystal","outputs":[],"stateMutability":"nonpayable","type":"function"},{"inputs":[{"internalType":"uint256","name":"gemType","type":"uint256"},{"internalType":"uint256","name":"amount","type":"uint256"}],"name":"sellGem","outputs":[],"stateMutability":"nonpayable","type":"function"},{"inputs":[{"internalType":"address","name":"_adminWhitelist","type":"address"}],"name":"setAdminWhitelist","outputs":[],"stateMutability":"nonpayable","type":"function"},{"inputs":[{"internalType":"address","name":"_generalWhitelist","type":"address"}],"name":"setGeneralWhitelist","outputs":[],"stateMutability":"nonpayable","type":"function"},{"inputs":[{"internalType":"bool","name":"_onlyAllowWhitelisted","type":"bool"}],"name":"setOnlyWhitelist","outputs":[],"stateMutability":"nonpayable","type":"function"},{"inputs":[{"internalType":"address","name":"_partnersWhitelist","type":"address"}],"name":"setPartnersWhitelist","outputs":[],"stateMutability":"nonpayable","type":"function"},{"inputs":[{"internalType":"uint256","name":"_referrerCroBonusPercentage","type":"uint256"},{"internalType":"uint256","name":"_referrerIntBonusPercentage","type":"uint256"},{"internalType":"uint256","name":"_referredIntBonusPercentage","type":"uint256"}],"name":"setReferralBonusesPercentages","outputs":[],"stateMutability":"nonpayable","type":"function"},{"inputs":[{"internalType":"uint256","name":"_startDate","type":"uint256"}],"name":"setStartDate","outputs":[],"stateMutability":"nonpayable","type":"function"},{"inputs":[{"components":[{"internalType":"uint256","name":"size","type":"uint256"},{"internalType":"uint256","name":"price","type":"uint256"}],"internalType":"struct InterludePlatform.Step[]","name":"_steps","type":"tuple[]"}],"name":"setSteps","outputs":[],"stateMutability":"nonpayable","type":"function"},{"inputs":[{"internalType":"uint256","name":"_totalSold","type":"uint256"}],"name":"setTotalSold","outputs":[],"stateMutability":"nonpayable","type":"function"},{"inputs":[{"internalType":"address","name":"","type":"address"}],"name":"spendableTokens","outputs":[{"internalType":"uint256","name":"","type":"uint256"}],"stateMutability":"view","type":"function"},{"inputs":[],"name":"startDate","outputs":[{"internalType":"uint256","name":"","type":"uint256"}],"stateMutability":"view","type":"function"},{"inputs":[{"internalType":"uint256","name":"","type":"uint256"}],"name":"steps","outputs":[{"internalType":"uint256","name":"size","type":"uint256"},{"internalType":"uint256","name":"price","type":"uint256"}],"stateMutability":"view","type":"function"},{"inputs":[],"name":"token","outputs":[{"internalType":"contract MyPausableToken","name":"","type":"address"}],"stateMutability":"view","type":"function"},{"inputs":[{"internalType":"address","name":"","type":"address"}],"name":"totalClaimed","outputs":[{"internalType":"uint256","name":"","type":"uint256"}],"stateMutability":"view","type":"function"},{"inputs":[{"internalType":"address","name":"","type":"address"}],"name":"totalClaimedCroReferralBonus","outputs":[{"internalType":"uint256","name":"","type":"uint256"}],"stateMutability":"view","type":"function"},{"inputs":[{"internalType":"address","name":"","type":"address"}],"name":"totalClaimedIntReferralBonus","outputs":[{"internalType":"uint256","name":"","type":"uint256"}],"stateMutability":"view","type":"function"},{"inputs":[],"name":"totalCrystalPower","outputs":[{"internalType":"uint256","name":"","type":"uint256"}],"stateMutability":"view","type":"function"},{"inputs":[],"name":"totalGemPower","outputs":[{"internalType":"uint256","name":"","type":"uint256"}],"stateMutability":"view","type":"function"},{"inputs":[],"name":"totalIntInCrystals","outputs":[{"internalType":"uint256","name":"","type":"uint256"}],"stateMutability":"view","type":"function"},{"inputs":[],"name":"totalIntInGems","outputs":[{"internalType":"uint256","name":"","type":"uint256"}],"stateMutability":"view","type":"function"},{"inputs":[{"internalType":"address","name":"","type":"address"}],"name":"totalInvested","outputs":[{"internalType":"uint256","name":"","type":"uint256"}],"stateMutability":"view","type":"function"},{"inputs":[],"name":"totalPriceUnitsInCrystals","outputs":[{"internalType":"uint256","name":"","type":"uint256"}],"stateMutability":"view","type":"function"},{"inputs":[],"name":"totalSold","outputs":[{"internalType":"uint256","name":"","type":"uint256"}],"stateMutability":"view","type":"function"},{"inputs":[],"name":"totalUsers","outputs":[{"internalType":"uint256","name":"","type":"uint256"}],"stateMutability":"view","type":"function"},{"inputs":[{"internalType":"address","name":"newOwner","type":"address"}],"name":"transferOwnership","outputs":[],"stateMutability":"nonpayable","type":"function"},{"inputs":[{"internalType":"address","name":"","type":"address"}],"name":"unclaimedCroReferralBonus","outputs":[{"internalType":"uint256","name":"","type":"uint256"}],"stateMutability":"view","type":"function"},{"inputs":[{"internalType":"address","name":"","type":"address"}],"name":"unclaimedEarnings","outputs":[{"internalType":"uint256","name":"","type":"uint256"}],"stateMutability":"view","type":"function"},{"inputs":[{"internalType":"address","name":"","type":"address"}],"name":"unclaimedIntReferralBonus","outputs":[{"internalType":"uint256","name":"","type":"uint256"}],"stateMutability":"view","type":"function"},{"inputs":[{"internalType":"uint256","name":"index","type":"uint256"},{"internalType":"uint256","name":"_power","type":"uint256"},{"internalType":"uint256","name":"_unscaledPrice","type":"uint256"},{"internalType":"bool","name":"isCrystal","type":"bool"}],"name":"updateAsset","outputs":[],"stateMutability":"nonpayable","type":"function"},{"inputs":[{"internalType":"address","name":"","type":"address"},{"internalType":"uint256","name":"","type":"uint256"}],"name":"userCrystals","outputs":[{"internalType":"uint256","name":"","type":"uint256"}],"stateMutability":"view","type":"function"},{"inputs":[{"internalType":"address","name":"","type":"address"},{"internalType":"uint256","name":"","type":"uint256"}],"name":"userGems","outputs":[{"internalType":"uint256","name":"","type":"uint256"}],"stateMutability":"view","type":"function"},{"stateMutability":"payable","type":"receive"}],"evm":{"bytecode":{"linkReferences":{},"object":"60806040526000600d556000600e556001600f5560016010556001601155600a602055600a602155600f6022556000602760006101000a81548160ff02191690831515021790555034801561005357600080fd5b506040516162f23803806162f2833981810160405281019061007591906102a5565b81600073ffffffffffffffffffffffffffffffffffffffff168173ffffffffffffffffffffffffffffffffffffffff16036100e85760006040517f1e4fbdf70000000000000000000000000000000000000000000000000000000081526004016100df91906102f4565b60405180910390fd5b6100f78161014060201b60201c565b5080600260006101000a81548173ffffffffffffffffffffffffffffffffffffffff021916908373ffffffffffffffffffffffffffffffffffffffff160217905550505061030f565b60008060009054906101000a900473ffffffffffffffffffffffffffffffffffffffff169050816000806101000a81548173ffffffffffffffffffffffffffffffffffffffff021916908373ffffffffffffffffffffffffffffffffffffffff1602179055508173ffffffffffffffffffffffffffffffffffffffff168173ffffffffffffffffffffffffffffffffffffffff167f8be0079c531659141344cd1fd0a4f28419497f9722a3daafe3b4186f6b6457e060405160405180910390a35050565b600080fd5b600073ffffffffffffffffffffffffffffffffffffffff82169050919050565b600061023482610209565b9050919050565b61024481610229565b811461024f57600080fd5b50565b6000815190506102618161023b565b92915050565b600061027282610209565b9050919050565b61028281610267565b811461028d57600080fd5b50565b60008151905061029f81610279565b92915050565b600080604083850312156102bc576102bb610204565b5b60006102ca85828601610252565b92505060206102db85828601610290565b9150509250929050565b6102ee81610267565b82525050565b600060208201905061030960008301846102e5565b92915050565b615fd48061031e6000396000f3fe60806040526004361061042a5760003560e01c8063869c865e11610229578063c70e12cb1161012e578063e1dc75d2116100b6578063f9d702001161007a578063f9d70200146110f8578063fc0c546a14611121578063fcb966d71461114c578063fd239fd914611177578063ff5133cd146111b457610431565b8063e1dc75d214611003578063ef49968a1461102c578063ef5d9ae814611069578063f226de97146110a6578063f2fde38b146110cf57610431565b8063d4a444b4116100fd578063d4a444b414610f1e578063d7e14e1314610f5b578063d9ceab1314610f86578063de473f8d14610f9d578063df13c9ca14610fda57610431565b8063c70e12cb14610e50578063c7a1834714610e8d578063c8da5ef514610eca578063ce54d6e114610ef557610431565b806395526f4c116101b1578063af28728c11610180578063af28728c14610d69578063bbaa117714610d94578063bc09019114610dbf578063bc3de74914610dfc578063bff1f9e114610e2557610431565b806395526f4c14610c7357806395ae847814610cb0578063a1f0406d14610ced578063a54dfaad14610d2c57610431565b80638e84a0d8116101f85780638e84a0d814610b7a57806390838e0914610ba557806390c757eb14610be25780639106d7ba14610c1f57806393dbc75714610c4a57610431565b8063869c865e14610aac578063876cf0ef14610ad557806388185e0314610b125780638da5cb5b14610b4f57610431565b8063378515981161032f57806366d74c80116102b7578063715018a611610286578063715018a6146109e95780637217e0b914610a005780637d848db214610a3e5780637e72fb5214610a6757806382d95df514610a8357610431565b806366d74c801461093f5780636b9f96ea1461096a5780636c743fb2146109815780636de62ea7146109ac57610431565b80634e358662116102fe5780634e358662146108465780634ed9b7f61461088357806350a3eaf0146108ae57806351484a19146108d95780636143440c1461091657610431565b8063378515981461077857806345ed628f146107a157806347315ec4146107cc5780634a5f58c71461080957610431565b80631ff9e2b2116103b257806329e0f88d1161038157806329e0f88d1461066b5780632b4c73e51461069457806331b3ab3f146106bf57806333298463146106fe578063376f96711461073b57610431565b80631ff9e2b2146105af578063206a5dbc146105da57806321622c631461060557806323ada7171461062e57610431565b80630b97bc86116103f95780630b97bc86146104de578063109d75d5146105095780631a156f93146105465780631dd02b4b1461056f5780631e375ab91461059857610431565b80630355d20c14610436578063055ad42e1461045f57806308d317dd1461048a5780630ae19ba8146104b357610431565b3661043157005b600080fd5b34801561044257600080fd5b5061045d60048036038101906104589190614c92565b6111dd565b005b34801561046b57600080fd5b5061047461128d565b6040516104819190614ce1565b60405180910390f35b34801561049657600080fd5b506104b160048036038101906104ac9190614cfc565b611329565b005b3480156104bf57600080fd5b506104c86115fc565b6040516104d59190614ce1565b60405180910390f35b3480156104ea57600080fd5b506104f3611602565b6040516105009190614ce1565b60405180910390f35b34801561051557600080fd5b50610530600480360381019061052b9190614d3c565b611608565b60405161053d9190614ce1565b60405180910390f35b34801561055257600080fd5b5061056d60048036038101906105689190614d3c565b611664565b005b34801561057b57600080fd5b5061059660048036038101906105919190614da1565b61173d565b005b3480156105a457600080fd5b506105ad611762565b005b3480156105bb57600080fd5b506105c4611a47565b6040516105d19190614e2d565b60405180910390f35b3480156105e657600080fd5b506105ef611a6d565b6040516105fc9190614ce1565b60405180910390f35b34801561061157600080fd5b5061062c60048036038101906106279190614ff6565b611a73565b005b34801561063a57600080fd5b5061065560048036038101906106509190614d3c565b611b38565b6040516106629190614ce1565b60405180910390f35b34801561067757600080fd5b50610692600480360381019061068d9190614d3c565b611b50565b005b3480156106a057600080fd5b506106a9611b9c565b6040516106b69190614ce1565b60405180910390f35b3480156106cb57600080fd5b506106e660048036038101906106e1919061503f565b611ba2565b6040516106f5939291906150eb565b60405180910390f35b34801561070a57600080fd5b5061072560048036038101906107209190614d3c565b611c64565b6040516107329190614ce1565b60405180910390f35b34801561074757600080fd5b50610762600480360381019061075d9190614d3c565b611c7c565b60405161076f9190614ce1565b60405180910390f35b34801561078457600080fd5b5061079f600480360381019061079a919061503f565b611c94565b005b3480156107ad57600080fd5b506107b6611ca6565b6040516107c39190614ce1565b60405180910390f35b3480156107d857600080fd5b506107f360048036038101906107ee9190614d3c565b611cac565b6040516108009190614ce1565b60405180910390f35b34801561081557600080fd5b50610830600480360381019061082b9190614d3c565b611cc4565b60405161083d9190614ce1565b60405180910390f35b34801561085257600080fd5b5061086d60048036038101906108689190614d3c565b611cdc565b60405161087a9190614ce1565b60405180910390f35b34801561088f57600080fd5b50610898611cf4565b6040516108a59190615138565b60405180910390f35b3480156108ba57600080fd5b506108c3611d07565b6040516108d09190614ce1565b60405180910390f35b3480156108e557600080fd5b5061090060048036038101906108fb9190614d3c565b611d0d565b60405161090d9190614ce1565b60405180910390f35b34801561092257600080fd5b5061093d60048036038101906109389190614d3c565b611d25565b005b34801561094b57600080fd5b50610954611d71565b6040516109619190614e2d565b60405180910390f35b34801561097657600080fd5b5061097f611d97565b005b34801561098d57600080fd5b50610996611def565b6040516109a39190614ce1565b60405180910390f35b3480156109b857600080fd5b506109d360048036038101906109ce9190614d3c565b611df5565b6040516109e09190614ce1565b60405180910390f35b3480156109f557600080fd5b506109fe611e0d565b005b348015610a0c57600080fd5b50610a276004803603810190610a22919061503f565b611e21565b604051610a35929190615153565b60405180910390f35b348015610a4a57600080fd5b50610a656004803603810190610a60919061517c565b611e55565b005b610a816004803603810190610a7c9190614d3c565b611f17565b005b348015610a8f57600080fd5b50610aaa6004803603810190610aa5919061503f565b6124aa565b005b348015610ab857600080fd5b50610ad36004803603810190610ace9190615298565b6124bc565b005b348015610ae157600080fd5b50610afc6004803603810190610af79190614d3c565b6125ba565b604051610b0991906153d9565b60405180910390f35b348015610b1e57600080fd5b50610b396004803603810190610b349190614d3c565b6126a5565b604051610b4691906153d9565b60405180910390f35b348015610b5b57600080fd5b50610b64612790565b604051610b71919061540a565b60405180910390f35b348015610b8657600080fd5b50610b8f6127b9565b604051610b9c9190615138565b60405180910390f35b348015610bb157600080fd5b50610bcc6004803603810190610bc79190614d3c565b6127cc565b604051610bd99190614ce1565b60405180910390f35b348015610bee57600080fd5b50610c096004803603810190610c049190614c92565b6127e4565b604051610c169190614ce1565b60405180910390f35b348015610c2b57600080fd5b50610c34612809565b604051610c419190614ce1565b60405180910390f35b348015610c5657600080fd5b50610c716004803603810190610c6c9190614d3c565b61280f565b005b348015610c7f57600080fd5b50610c9a6004803603810190610c959190614d3c565b61285b565b604051610ca79190614ce1565b60405180910390f35b348015610cbc57600080fd5b50610cd76004803603810190610cd29190614d3c565b612873565b604051610ce49190614ce1565b60405180910390f35b348015610cf957600080fd5b50610d146004803603810190610d0f919061503f565b61288b565b604051610d23939291906150eb565b60405180910390f35b348015610d3857600080fd5b50610d536004803603810190610d4e9190614d3c565b61294d565b604051610d609190614ce1565b60405180910390f35b348015610d7557600080fd5b50610d7e612965565b604051610d8b9190614e2d565b60405180910390f35b348015610da057600080fd5b50610da961298b565b604051610db69190614ce1565b60405180910390f35b348015610dcb57600080fd5b50610de66004803603810190610de19190614d3c565b612991565b604051610df39190614ce1565b60405180910390f35b348015610e0857600080fd5b50610e236004803603810190610e1e9190615425565b6129a9565b005b348015610e3157600080fd5b50610e3a612abe565b604051610e479190614ce1565b60405180910390f35b348015610e5c57600080fd5b50610e776004803603810190610e729190614c92565b612ac4565b604051610e849190614ce1565b60405180910390f35b348015610e9957600080fd5b50610eb46004803603810190610eaf9190614d3c565b612ae9565b604051610ec19190614ce1565b60405180910390f35b348015610ed657600080fd5b50610edf612b01565b604051610eec9190614ce1565b60405180910390f35b348015610f0157600080fd5b50610f1c6004803603810190610f179190614c92565b612b07565b005b348015610f2a57600080fd5b50610f456004803603810190610f409190614d3c565b612c26565b604051610f529190614ce1565b60405180910390f35b348015610f6757600080fd5b50610f70612c3e565b604051610f7d9190614ce1565b60405180910390f35b348015610f9257600080fd5b50610f9b612c44565b005b348015610fa957600080fd5b50610fc46004803603810190610fbf9190614d3c565b612e07565b604051610fd19190615138565b60405180910390f35b348015610fe657600080fd5b506110016004803603810190610ffc9190614da1565b6130b6565b005b34801561100f57600080fd5b5061102a60048036038101906110259190614cfc565b6130db565b005b34801561103857600080fd5b50611053600480360381019061104e9190614d3c565b613434565b6040516110609190614ce1565b60405180910390f35b34801561107557600080fd5b50611090600480360381019061108b9190614d3c565b61344c565b60405161109d9190614ce1565b60405180910390f35b3480156110b257600080fd5b506110cd60048036038101906110c89190614cfc565b613464565b005b3480156110db57600080fd5b506110f660048036038101906110f19190614d3c565b6136fd565b005b34801561110457600080fd5b5061111f600480360381019061111a9190614cfc565b613783565b005b34801561112d57600080fd5b50611136613ade565b6040516111439190615499565b60405180910390f35b34801561115857600080fd5b50611161613b04565b60405161116e9190614ce1565b60405180910390f35b34801561118357600080fd5b5061119e60048036038101906111999190614d3c565b613b0a565b6040516111ab9190614ce1565b60405180910390f35b3480156111c057600080fd5b506111db60048036038101906111d691906154b4565b613d95565b005b6111e56140ee565b80601a60008473ffffffffffffffffffffffffffffffffffffffff1673ffffffffffffffffffffffffffffffffffffffff16815260200190815260200160002060008282546112349190615536565b925050819055508173ffffffffffffffffffffffffffffffffffffffff167f670624ed0a09e14166459d983969baa4fa27e42fd398b8c3834ba764cb797a69826040516112819190614ce1565b60405180910390a25050565b6000806000905060005b60038054905081101561130457600381815481106112b8576112b761556a565b5b906000526020600020906002020160000154826112d59190615536565b91508160055410156112f7576001816112ee9190615536565b92505050611326565b8080600101915050611297565b506001806003805490506113189190615599565b6113229190615536565b9150505b90565b6000600b838154811061133f5761133e61556a565b5b9060005260206000209060030201600101541161135b57600080fd5b80600c60003373ffffffffffffffffffffffffffffffffffffffff1673ffffffffffffffffffffffffffffffffffffffff16815260200190815260200160002060008481526020019081526020016000205410156113ee576040517f08c379a00000000000000000000000000000000000000000000000000000000081526004016113e590615619565b60405180910390fd5b600081116113fb57600080fd5b61140433614175565b600081600b848154811061141b5761141a61556a565b5b9060005260206000209060030201600101546114379190615639565b9050600082600b85815481106114505761144f61556a565b5b90600052602060002090600302016002015461146c9190615639565b90506000601154826010546114819190615639565b61148b91906156aa565b9050816011600082825461149f9190615599565b9250508190555080601060008282546114b89190615599565b9250508190555082600e60008282546114d19190615599565b925050819055506114e2338261418a565b83600c60003373ffffffffffffffffffffffffffffffffffffffff1673ffffffffffffffffffffffffffffffffffffffff168152602001908152602001600020600087815260200190815260200160002060008282546115429190615599565b9250508190555082601360003373ffffffffffffffffffffffffffffffffffffffff1673ffffffffffffffffffffffffffffffffffffffff16815260200190815260200160002060008282546115989190615599565b925050819055503373ffffffffffffffffffffffffffffffffffffffff167fd61e3ffe1439b0a822f5396cc4d56a3e6729bb2bbbeafc1031d55a509a3487f66001600088886040516115ed94939291906156db565b60405180910390a25050505050565b60115481565b60045481565b6000601a60008373ffffffffffffffffffffffffffffffffffffffff1673ffffffffffffffffffffffffffffffffffffffff168152602001908152602001600020546116538361434e565b61165d9190615536565b9050919050565b61166c6140ee565b6000601e60008373ffffffffffffffffffffffffffffffffffffffff1673ffffffffffffffffffffffffffffffffffffffff168152602001908152602001600020819055506000601d60008373ffffffffffffffffffffffffffffffffffffffff1673ffffffffffffffffffffffffffffffffffffffff1681526020019081526020016000208190555042601c60008373ffffffffffffffffffffffffffffffffffffffff1673ffffffffffffffffffffffffffffffffffffffff1681526020019081526020016000208190555050565b6117456140ee565b80600660006101000a81548160ff02191690831515021790555050565b6000602360003373ffffffffffffffffffffffffffffffffffffffff1673ffffffffffffffffffffffffffffffffffffffff16815260200190815260200160002054116117e4576040517f08c379a00000000000000000000000000000000000000000000000000000000081526004016117db9061576c565b60405180910390fd5b6000602360003373ffffffffffffffffffffffffffffffffffffffff1673ffffffffffffffffffffffffffffffffffffffff1681526020019081526020016000205490506000602360003373ffffffffffffffffffffffffffffffffffffffff1673ffffffffffffffffffffffffffffffffffffffff1681526020019081526020016000208190555080602560003373ffffffffffffffffffffffffffffffffffffffff1673ffffffffffffffffffffffffffffffffffffffff16815260200190815260200160002060008282546118bc9190615536565b925050819055506118cd338261418a565b6000602460003373ffffffffffffffffffffffffffffffffffffffff1673ffffffffffffffffffffffffffffffffffffffff1681526020019081526020016000205490506000602460003373ffffffffffffffffffffffffffffffffffffffff1673ffffffffffffffffffffffffffffffffffffffff1681526020019081526020016000208190555080602660003373ffffffffffffffffffffffffffffffffffffffff1673ffffffffffffffffffffffffffffffffffffffff16815260200190815260200160002060008282546119a59190615536565b925050819055503373ffffffffffffffffffffffffffffffffffffffff166108fc829081150290604051600060405180830381858888f193505050501580156119f2573d6000803e3d6000fd5b503373ffffffffffffffffffffffffffffffffffffffff167f454211b099b54298804b6b35092d2a4bcbf8e5ea525a50b79b542ba2d4bc6a248284604051611a3b929190615153565b60405180910390a25050565b602860009054906101000a900473ffffffffffffffffffffffffffffffffffffffff1681565b60105481565b611a7b6140ee565b60036000611a899190614b9f565b60005b8151811015611b345760036040518060400160405280848481518110611ab557611ab461556a565b5b6020026020010151600001518152602001848481518110611ad957611ad861556a565b5b6020026020010151602001518152509080600181540180825580915050600190039060005260206000209060020201600090919091909150600082015181600001556020820151816001015550508080600101915050611a8c565b5050565b60136020528060005260406000206000915090505481565b611b586140ee565b80602860006101000a81548173ffffffffffffffffffffffffffffffffffffffff021916908373ffffffffffffffffffffffffffffffffffffffff16021790555050565b600d5481565b600b8181548110611bb257600080fd5b9060005260206000209060030201600091509050806000018054611bd5906157bb565b80601f0160208091040260200160405190810160405280929190818152602001828054611c01906157bb565b8015611c4e5780601f10611c2357610100808354040283529160200191611c4e565b820191906000526020600020905b815481529060010190602001808311611c3157829003601f168201915b5050505050908060010154908060020154905083565b60236020528060005260406000206000915090505481565b60086020528060005260406000206000915090505481565b611c9c6140ee565b8060058190555050565b60145481565b601a6020528060005260406000206000915090505481565b601c6020528060005260406000206000915090505481565b601d6020528060005260406000206000915090505481565b602760009054906101000a900460ff1681565b600f5481565b601f6020528060005260406000206000915090505481565b611d2d6140ee565b80602760016101000a81548173ffffffffffffffffffffffffffffffffffffffff021916908373ffffffffffffffffffffffffffffffffffffffff16021790555050565b600160009054906101000a900473ffffffffffffffffffffffffffffffffffffffff1681565b611d9f6140ee565b611da7612790565b73ffffffffffffffffffffffffffffffffffffffff166108fc479081150290604051600060405180830381858888f19350505050158015611dec573d6000803e3d6000fd5b50565b60165481565b60126020528060005260406000206000915090505481565b611e156140ee565b611e1f60006144ad565b565b60038181548110611e3157600080fd5b90600052602060002090600202016000915090508060000154908060010154905082565b611e5d6140ee565b8015611ebc5782600b8581548110611e7857611e7761556a565b5b90600052602060002090600302016001018190555081600b8581548110611ea257611ea161556a565b5b906000526020600020906003020160020181905550611f11565b8260098581548110611ed157611ed061556a565b5b9060005260206000209060030201600101819055508160098581548110611efb57611efa61556a565b5b9060005260206000209060030201600201819055505b50505050565b60003411611f5a576040517f08c379a0000000000000000000000000000000000000000000000000000000008152600401611f5190615838565b60405180910390fd5b600660009054906101000a900460ff16158061200e5750602860009054906101000a900473ffffffffffffffffffffffffffffffffffffffff1673ffffffffffffffffffffffffffffffffffffffff16633af32abf336040518263ffffffff1660e01b8152600401611fcc919061540a565b602060405180830381865afa158015611fe9573d6000803e3d6000fd5b505050506040513d601f19601f8201168201806040525081019061200d919061586d565b5b61204d576040517f08c379a0000000000000000000000000000000000000000000000000000000008152600401612044906158e6565b60405180910390fd5b6004544211612091576040517f08c379a000000000000000000000000000000000000000000000000000000000815260040161208890615952565b60405180910390fd5b600061209c34614571565b9050600081116120e1576040517f08c379a00000000000000000000000000000000000000000000000000000000081526004016120d8906159be565b60405180910390fd5b600073ffffffffffffffffffffffffffffffffffffffff168273ffffffffffffffffffffffffffffffffffffffff1603612119573391505b600061212483612e07565b905081600560008282546121389190615536565b92505081905550600060023461214e91906156aa565b9050600080600084156122915760646022548761216b9190615639565b61217591906156aa565b9250600073ffffffffffffffffffffffffffffffffffffffff168773ffffffffffffffffffffffffffffffffffffffff16146121e4576064602154876121bb9190615639565b6121c591906156aa565b90506064602054346121d79190615639565b6121e191906156aa565b91505b81602460008973ffffffffffffffffffffffffffffffffffffffff1673ffffffffffffffffffffffffffffffffffffffff16815260200190815260200160002060008282546122339190615536565b9250508190555080602360008973ffffffffffffffffffffffffffffffffffffffff1673ffffffffffffffffffffffffffffffffffffffff16815260200190815260200160002060008282546122899190615536565b925050819055505b6000838761229f9190615536565b90506122ab338261418a565b3373ffffffffffffffffffffffffffffffffffffffff167f8fd7c1cf2b9cceb829553742c07a11ee82ed91a2e2d4791328461df6aa6e8a89888585886040516122f794939291906159de565b60405180910390a26000838661230d9190615536565b346123189190615599565b9050612322612790565b73ffffffffffffffffffffffffffffffffffffffff166108fc829081150290604051600060405180830381858888f19350505050158015612367573d6000803e3d6000fd5b5034601860003373ffffffffffffffffffffffffffffffffffffffff1673ffffffffffffffffffffffffffffffffffffffff16815260200190815260200160002060008282546123b79190615536565b925050819055506000601054600f546123d09190615536565b111561249f576000601054600f546123e89190615536565b600f54886123f69190615639565b61240091906156aa565b9050600081886124109190615599565b90506000600d54111561245757600d54670de0b6b3a7640000836124349190615639565b61243e91906156aa565b6014600082825461244f9190615536565b925050819055505b6000600e54111561249c57600e54670de0b6b3a7640000826124799190615639565b61248391906156aa565b601660008282546124949190615536565b925050819055505b50505b505050505050505050565b6124b26140ee565b8060048190555050565b6124c46140ee565b801561254157600b604051806060016040528086815260200185815260200184815250908060018154018082558091505060019003906000526020600020906003020160009091909190915060008201518160000190816125259190615bc5565b50602082015181600101556040820151816002015550506125b4565b60096040518060600160405280868152602001858152602001848152509080600181540180825580915050600190039060005260206000209060030201600090919091909150600082015181600001908161259c9190615bc5565b50602082015181600101556040820151816002015550505b50505050565b60606000600b8054905067ffffffffffffffff8111156125dd576125dc614e5e565b5b60405190808252806020026020018201604052801561260b5781602001602082028036833780820191505090505b50905060005b600b8054905081101561269b57600c60008573ffffffffffffffffffffffffffffffffffffffff1673ffffffffffffffffffffffffffffffffffffffff1681526020019081526020016000206000828152602001908152602001600020548282815181106126825761268161556a565b5b6020026020010181815250508080600101915050612611565b5080915050919050565b6060600060098054905067ffffffffffffffff8111156126c8576126c7614e5e565b5b6040519080825280602002602001820160405280156126f65781602001602082028036833780820191505090505b50905060005b60098054905081101561278657600a60008573ffffffffffffffffffffffffffffffffffffffff1673ffffffffffffffffffffffffffffffffffffffff16815260200190815260200160002060008281526020019081526020016000205482828151811061276d5761276c61556a565b5b60200260200101818152505080806001019150506126fc565b5080915050919050565b60008060009054906101000a900473ffffffffffffffffffffffffffffffffffffffff16905090565b600660009054906101000a900460ff1681565b60186020528060005260406000206000915090505481565b600c602052816000526040600020602052806000526040600020600091509150505481565b60055481565b6128176140ee565b80600160006101000a81548173ffffffffffffffffffffffffffffffffffffffff021916908373ffffffffffffffffffffffffffffffffffffffff16021790555050565b60156020528060005260406000206000915090505481565b60246020528060005260406000206000915090505481565b6009818154811061289b57600080fd5b90600052602060002090600302016000915090508060000180546128be906157bb565b80601f01602080910402602001604051908101604052809291908181526020018280546128ea906157bb565b80156129375780601f1061290c57610100808354040283529160200191612937565b820191906000526020600020905b81548152906001019060200180831161291a57829003601f168201915b5050505050908060010154908060020154905083565b60256020528060005260406000206000915090505481565b602760019054906101000a900473ffffffffffffffffffffffffffffffffffffffff1681565b60225481565b60176020528060005260406000206000915090505481565b6129b16140ee565b600083101580156129c3575060148311155b612a02576040517f08c379a00000000000000000000000000000000000000000000000000000000081526004016129f990615ce3565b60405180910390fd5b8260208190555060008210158015612a1b575060148211155b612a5a576040517f08c379a0000000000000000000000000000000000000000000000000000000008152600401612a5190615ce3565b60405180910390fd5b8160218190555060008110158015612a73575060148111155b612ab2576040517f08c379a0000000000000000000000000000000000000000000000000000000008152600401612aa990615ce3565b60405180910390fd5b80602281905550505050565b60075481565b600a602052816000526040600020602052806000526040600020600091509150505481565b601e6020528060005260406000206000915090505481565b600e5481565b612b0f6140ee565b600260009054906101000a900473ffffffffffffffffffffffffffffffffffffffff1673ffffffffffffffffffffffffffffffffffffffff166323b872dd612b55612790565b84670de0b6b3a764000085612b6a9190615639565b6040518463ffffffff1660e01b8152600401612b8893929190615d03565b6020604051808303816000875af1158015612ba7573d6000803e3d6000fd5b505050506040513d601f19601f82011682018060405250810190612bcb919061586d565b5080600860008473ffffffffffffffffffffffffffffffffffffffff1673ffffffffffffffffffffffffffffffffffffffff1681526020019081526020016000206000828254612c1b9190615536565b925050819055505050565b60266020528060005260406000206000915090505481565b60205481565b612c4d336146f6565b6000601a60003373ffffffffffffffffffffffffffffffffffffffff1673ffffffffffffffffffffffffffffffffffffffff16815260200190815260200160002054905060008111612cd4576040517f08c379a0000000000000000000000000000000000000000000000000000000008152600401612ccb90615d86565b60405180910390fd5b80601b60003373ffffffffffffffffffffffffffffffffffffffff1673ffffffffffffffffffffffffffffffffffffffff1681526020019081526020016000206000828254612d239190615536565b925050819055506000601a60003373ffffffffffffffffffffffffffffffffffffffff1673ffffffffffffffffffffffffffffffffffffffff168152602001908152602001600020819055503373ffffffffffffffffffffffffffffffffffffffff166108fc829081150290604051600060405180830381858888f19350505050158015612db5573d6000803e3d6000fd5b503373ffffffffffffffffffffffffffffffffffffffff167f7bcfb0598e7cd0b03e8472440b7e292b4767743ddeb0579a65be466b40c8b0f382604051612dfc9190614ce1565b60405180910390a250565b6000602760009054906101000a900460ff1615612f1c57600073ffffffffffffffffffffffffffffffffffffffff16602760019054906101000a900473ffffffffffffffffffffffffffffffffffffffff1673ffffffffffffffffffffffffffffffffffffffff1614158015612f155750602760019054906101000a900473ffffffffffffffffffffffffffffffffffffffff1673ffffffffffffffffffffffffffffffffffffffff16633af32abf836040518263ffffffff1660e01b8152600401612ed3919061540a565b602060405180830381865afa158015612ef0573d6000803e3d6000fd5b505050506040513d601f19601f82011682018060405250810190612f14919061586d565b5b90506130b1565b600073ffffffffffffffffffffffffffffffffffffffff16602860009054906101000a900473ffffffffffffffffffffffffffffffffffffffff1673ffffffffffffffffffffffffffffffffffffffff16141580156130135750602860009054906101000a900473ffffffffffffffffffffffffffffffffffffffff1673ffffffffffffffffffffffffffffffffffffffff16633af32abf836040518263ffffffff1660e01b8152600401612fd1919061540a565b602060405180830381865afa158015612fee573d6000803e3d6000fd5b505050506040513d601f19601f82011682018060405250810190613012919061586d565b5b806130ae57506000601f60008473ffffffffffffffffffffffffffffffffffffffff1673ffffffffffffffffffffffffffffffffffffffff168152602001908152602001600020541180156130ad575061306b61128d565b601f60008473ffffffffffffffffffffffffffffffffffffffff1673ffffffffffffffffffffffffffffffffffffffff16815260200190815260200160002054105b5b90505b919050565b6130be6140ee565b80602760006101000a81548160ff02191690831515021790555050565b6000600983815481106130f1576130f061556a565b5b90600052602060002090600302016001015411613143576040517f08c379a000000000000000000000000000000000000000000000000000000000815260040161313a90615df2565b60405180910390fd5b6000811161315057600080fd5b600081600984815481106131675761316661556a565b5b9060005260206000209060030201600201546131839190615639565b90506000826009858154811061319c5761319b61556a565b5b9060005260206000209060030201600101546131b89190615639565b90506131c333614175565b81600f60008282546131d59190615536565b9250508190555080600d60008282546131ee9190615536565b925050819055506131ff3383614841565b82600a60003373ffffffffffffffffffffffffffffffffffffffff1673ffffffffffffffffffffffffffffffffffffffff1681526020019081526020016000206000868152602001908152602001600020600082825461325f9190615536565b9250508190555080601260003373ffffffffffffffffffffffffffffffffffffffff1673ffffffffffffffffffffffffffffffffffffffff16815260200190815260200160002060008282546132b59190615536565b925050819055506000601560003373ffffffffffffffffffffffffffffffffffffffff1673ffffffffffffffffffffffffffffffffffffffff168152602001908152602001600020540361334a57601454601560003373ffffffffffffffffffffffffffffffffffffffff1673ffffffffffffffffffffffffffffffffffffffff168152602001908152602001600020819055505b6000601760003373ffffffffffffffffffffffffffffffffffffffff1673ffffffffffffffffffffffffffffffffffffffff16815260200190815260200160002054036133d857601654601760003373ffffffffffffffffffffffffffffffffffffffff1673ffffffffffffffffffffffffffffffffffffffff168152602001908152602001600020819055505b3373ffffffffffffffffffffffffffffffffffffffff167fd61e3ffe1439b0a822f5396cc4d56a3e6729bb2bbbeafc1031d55a509a3487f660006001878760405161342694939291906156db565b60405180910390a250505050565b60196020528060005260406000206000915090505481565b601b6020528060005260406000206000915090505481565b60006009838154811061347a5761347961556a565b5b9060005260206000209060030201600101541161349657600080fd5b80600a60003373ffffffffffffffffffffffffffffffffffffffff1673ffffffffffffffffffffffffffffffffffffffff1681526020019081526020016000206000848152602001908152602001600020541015613529576040517f08c379a000000000000000000000000000000000000000000000000000000000815260040161352090615e5e565b60405180910390fd5b6000811161353657600080fd5b6000816009848154811061354d5761354c61556a565b5b9060005260206000209060030201600201546135699190615639565b9050600082600985815481106135825761358161556a565b5b90600052602060002090600302016001015461359e9190615639565b90506135a933614175565b80600d60008282546135bb9190615599565b9250508190555081600f60008282546135d49190615599565b925050819055506135e5338361418a565b82600a60003373ffffffffffffffffffffffffffffffffffffffff1673ffffffffffffffffffffffffffffffffffffffff168152602001908152602001600020600086815260200190815260200160002060008282546136459190615599565b9250508190555080601260003373ffffffffffffffffffffffffffffffffffffffff1673ffffffffffffffffffffffffffffffffffffffff168152602001908152602001600020600082825461369b9190615599565b925050819055503373ffffffffffffffffffffffffffffffffffffffff167fd61e3ffe1439b0a822f5396cc4d56a3e6729bb2bbbeafc1031d55a509a3487f660008087876040516136ef94939291906156db565b60405180910390a250505050565b6137056140ee565b600073ffffffffffffffffffffffffffffffffffffffff168173ffffffffffffffffffffffffffffffffffffffff16036137775760006040517f1e4fbdf700000000000000000000000000000000000000000000000000000000815260040161376e919061540a565b60405180910390fd5b613780816144ad565b50565b6000600b83815481106137995761379861556a565b5b906000526020600020906003020160010154116137b557600080fd5b600081116137c257600080fd5b6137cb33614175565b600081600b84815481106137e2576137e161556a565b5b9060005260206000209060030201600101546137fe9190615639565b9050600082600b85815481106138175761381661556a565b5b9060005260206000209060030201600201546138339190615639565b90506000601154826010546138489190615639565b61385291906156aa565b905081601160008282546138669190615536565b92505081905550806010600082825461387f9190615536565b9250508190555082600e60008282546138989190615536565b925050819055506138a93382614841565b83600c60003373ffffffffffffffffffffffffffffffffffffffff1673ffffffffffffffffffffffffffffffffffffffff168152602001908152602001600020600087815260200190815260200160002060008282546139099190615536565b9250508190555082601360003373ffffffffffffffffffffffffffffffffffffffff1673ffffffffffffffffffffffffffffffffffffffff168152602001908152602001600020600082825461395f9190615536565b925050819055506000601560003373ffffffffffffffffffffffffffffffffffffffff1673ffffffffffffffffffffffffffffffffffffffff16815260200190815260200160002054036139f457601454601560003373ffffffffffffffffffffffffffffffffffffffff1673ffffffffffffffffffffffffffffffffffffffff168152602001908152602001600020819055505b6000601760003373ffffffffffffffffffffffffffffffffffffffff1673ffffffffffffffffffffffffffffffffffffffff1681526020019081526020016000205403613a8257601654601760003373ffffffffffffffffffffffffffffffffffffffff1673ffffffffffffffffffffffffffffffffffffffff168152602001908152602001600020819055505b3373ffffffffffffffffffffffffffffffffffffffff167fd61e3ffe1439b0a822f5396cc4d56a3e6729bb2bbbeafc1031d55a509a3487f66001808888604051613acf94939291906156db565b60405180910390a25050505050565b600260009054906101000a900473ffffffffffffffffffffffffffffffffffffffff1681565b60215481565b6000600160009054906101000a900473ffffffffffffffffffffffffffffffffffffffff1673ffffffffffffffffffffffffffffffffffffffff16633af32abf336040518263ffffffff1660e01b8152600401613b67919061540a565b602060405180830381865afa158015613b84573d6000803e3d6000fd5b505050506040513d601f19601f82011682018060405250810190613ba8919061586d565b80613be55750613bb6612790565b73ffffffffffffffffffffffffffffffffffffffff163373ffffffffffffffffffffffffffffffffffffffff16145b613c24576040517f08c379a0000000000000000000000000000000000000000000000000000000008152600401613c1b90615eca565b60405180910390fd5b613c2d826149da565b6000601e60008473ffffffffffffffffffffffffffffffffffffffff1673ffffffffffffffffffffffffffffffffffffffff16815260200190815260200160002054601d60008573ffffffffffffffffffffffffffffffffffffffff1673ffffffffffffffffffffffffffffffffffffffff16815260200190815260200160002054613cb99190615599565b9050601d60008473ffffffffffffffffffffffffffffffffffffffff1673ffffffffffffffffffffffffffffffffffffffff16815260200190815260200160002054601e60008573ffffffffffffffffffffffffffffffffffffffff1673ffffffffffffffffffffffffffffffffffffffff168152602001908152602001600020819055508273ffffffffffffffffffffffffffffffffffffffff167f1e6f5eaef61555b8bf4c1ef79dd15630c9612b652f0c442b66151f134650742c82604051613d849190614ce1565b60405180910390a280915050919050565b600160009054906101000a900473ffffffffffffffffffffffffffffffffffffffff1673ffffffffffffffffffffffffffffffffffffffff16633af32abf336040518263ffffffff1660e01b8152600401613df0919061540a565b602060405180830381865afa158015613e0d573d6000803e3d6000fd5b505050506040513d601f19601f82011682018060405250810190613e31919061586d565b80613e6e5750613e3f612790565b73ffffffffffffffffffffffffffffffffffffffff163373ffffffffffffffffffffffffffffffffffffffff16145b613ead576040517f08c379a0000000000000000000000000000000000000000000000000000000008152600401613ea490615eca565b60405180910390fd5b6000600b8381548110613ec357613ec261556a565b5b90600052602060002090600302016001015411613edf57600080fd5b60008111613eec57600080fd5b613ef583614175565b600081600b8481548110613f0c57613f0b61556a565b5b906000526020600020906003020160010154613f289190615639565b9050600082600b8581548110613f4157613f4061556a565b5b906000526020600020906003020160020154613f5d9190615639565b90508060116000828254613f719190615536565b9250508190555081600e6000828254613f8a9190615536565b9250508190555082600c60008773ffffffffffffffffffffffffffffffffffffffff1673ffffffffffffffffffffffffffffffffffffffff168152602001908152602001600020600086815260200190815260200160002054613fed9190615536565b600c60008773ffffffffffffffffffffffffffffffffffffffff1673ffffffffffffffffffffffffffffffffffffffff16815260200190815260200160002060008681526020019081526020016000208190555081601360008773ffffffffffffffffffffffffffffffffffffffff1673ffffffffffffffffffffffffffffffffffffffff16815260200190815260200160002060008282546140909190615536565b925050819055508473ffffffffffffffffffffffffffffffffffffffff167fd0f61fa028335eab19421ddb80993c322711a77715c7bd730eaf3f4415fb954b85856040516140df929190615153565b60405180910390a25050505050565b6140f6614b97565b73ffffffffffffffffffffffffffffffffffffffff16614114612790565b73ffffffffffffffffffffffffffffffffffffffff161461417357614137614b97565b6040517f118cdaa700000000000000000000000000000000000000000000000000000000815260040161416a919061540a565b60405180910390fd5b565b61417e816146f6565b614187816149da565b50565b6000601f60003373ffffffffffffffffffffffffffffffffffffffff1673ffffffffffffffffffffffffffffffffffffffff1681526020019081526020016000205403614237576001600760008282546141e49190615536565b925050819055506141f361128d565b601f60003373ffffffffffffffffffffffffffffffffffffffff1673ffffffffffffffffffffffffffffffffffffffff168152602001908152602001600020819055505b600260009054906101000a900473ffffffffffffffffffffffffffffffffffffffff1673ffffffffffffffffffffffffffffffffffffffff166323b872dd61427d612790565b84670de0b6b3a7640000856142929190615639565b6040518463ffffffff1660e01b81526004016142b093929190615d03565b6020604051808303816000875af11580156142cf573d6000803e3d6000fd5b505050506040513d601f19601f820116820180604052508101906142f3919061586d565b5080600860008473ffffffffffffffffffffffffffffffffffffffff1673ffffffffffffffffffffffffffffffffffffffff16815260200190815260200160002060008282546143439190615536565b925050819055505050565b600080601260008473ffffffffffffffffffffffffffffffffffffffff1673ffffffffffffffffffffffffffffffffffffffff16815260200190815260200160002054601560008573ffffffffffffffffffffffffffffffffffffffff1673ffffffffffffffffffffffffffffffffffffffff168152602001908152602001600020546014546143de9190615599565b6143e89190615639565b90506000601360008573ffffffffffffffffffffffffffffffffffffffff1673ffffffffffffffffffffffffffffffffffffffff16815260200190815260200160002054601760008673ffffffffffffffffffffffffffffffffffffffff1673ffffffffffffffffffffffffffffffffffffffff168152602001908152602001600020546016546144799190615599565b6144839190615639565b9050670de0b6b3a7640000818361449a9190615536565b6144a491906156aa565b92505050919050565b60008060009054906101000a900473ffffffffffffffffffffffffffffffffffffffff169050816000806101000a81548173ffffffffffffffffffffffffffffffffffffffff021916908373ffffffffffffffffffffffffffffffffffffffff1602179055508173ffffffffffffffffffffffffffffffffffffffff168173ffffffffffffffffffffffffffffffffffffffff167f8be0079c531659141344cd1fd0a4f28419497f9722a3daafe3b4186f6b6457e060405160405180910390a35050565b6000806000905060008390506000600554905060005b6003805490508110801561459b5750600083115b156146ea576000600382815481106145b6576145b561556a565b5b90600052602060002090600202016040518060400160405290816000820154815260200160018201548152505090506000805b83811161463657600381815481106146045761460361556a565b5b906000526020600020906002020160000154826146219190615536565b9150808061462e90615eea565b9150506145e9565b506000848211614647576000614654565b84826146539190615599565b5b905060008103614666575050506146d7565b60008360200151826146789190615639565b90508087106146b057818861468d9190615536565b9750808761469b9190615599565b965081866146a99190615536565b95506146d2565b8360200151876146c091906156aa565b886146cb9190615536565b9750600096505b505050505b80806146e290615eea565b915050614587565b50829350505050919050565b60006147018261434e565b9050600081111561483d5780601a60008473ffffffffffffffffffffffffffffffffffffffff1673ffffffffffffffffffffffffffffffffffffffff168152602001908152602001600020600082825461475b9190615536565b92505081905550601454601560008473ffffffffffffffffffffffffffffffffffffffff1673ffffffffffffffffffffffffffffffffffffffff16815260200190815260200160002081905550601654601760008473ffffffffffffffffffffffffffffffffffffffff1673ffffffffffffffffffffffffffffffffffffffff168152602001908152602001600020819055508173ffffffffffffffffffffffffffffffffffffffff167f670624ed0a09e14166459d983969baa4fa27e42fd398b8c3834ba764cb797a69826040516148349190614ce1565b60405180910390a25b5050565b600260009054906101000a900473ffffffffffffffffffffffffffffffffffffffff1673ffffffffffffffffffffffffffffffffffffffff166323b872dd83614888612790565b670de0b6b3a76400008561489c9190615639565b6040518463ffffffff1660e01b81526004016148ba93929190615d03565b6020604051808303816000875af11580156148d9573d6000803e3d6000fd5b505050506040513d601f19601f820116820180604052508101906148fd919061586d565b5080600860008473ffffffffffffffffffffffffffffffffffffffff1673ffffffffffffffffffffffffffffffffffffffff168152602001908152602001600020541015614980576040517f08c379a000000000000000000000000000000000000000000000000000000000815260040161497790615f7e565b60405180910390fd5b80600860008473ffffffffffffffffffffffffffffffffffffffff1673ffffffffffffffffffffffffffffffffffffffff16815260200190815260200160002060008282546149cf9190615599565b925050819055505050565b6000601c60008373ffffffffffffffffffffffffffffffffffffffff1673ffffffffffffffffffffffffffffffffffffffff1681526020019081526020016000205403614a665742601c60008373ffffffffffffffffffffffffffffffffffffffff1673ffffffffffffffffffffffffffffffffffffffff168152602001908152602001600020819055505b601c60008273ffffffffffffffffffffffffffffffffffffffff1673ffffffffffffffffffffffffffffffffffffffff1681526020019081526020016000205442614ab19190615599565b601360008373ffffffffffffffffffffffffffffffffffffffff1673ffffffffffffffffffffffffffffffffffffffff16815260200190815260200160002054614afb9190615639565b601d60008373ffffffffffffffffffffffffffffffffffffffff1673ffffffffffffffffffffffffffffffffffffffff1681526020019081526020016000206000828254614b499190615536565b9250508190555042601c60008373ffffffffffffffffffffffffffffffffffffffff1673ffffffffffffffffffffffffffffffffffffffff1681526020019081526020016000208190555050565b600033905090565b5080546000825560020290600052602060002090810190614bc09190614bc3565b50565b5b80821115614be657600080820160009055600182016000905550600201614bc4565b5090565b6000604051905090565b600080fd5b600080fd5b600073ffffffffffffffffffffffffffffffffffffffff82169050919050565b6000614c2982614bfe565b9050919050565b614c3981614c1e565b8114614c4457600080fd5b50565b600081359050614c5681614c30565b92915050565b6000819050919050565b614c6f81614c5c565b8114614c7a57600080fd5b50565b600081359050614c8c81614c66565b92915050565b60008060408385031215614ca957614ca8614bf4565b5b6000614cb785828601614c47565b9250506020614cc885828601614c7d565b9150509250929050565b614cdb81614c5c565b82525050565b6000602082019050614cf66000830184614cd2565b92915050565b60008060408385031215614d1357614d12614bf4565b5b6000614d2185828601614c7d565b9250506020614d3285828601614c7d565b9150509250929050565b600060208284031215614d5257614d51614bf4565b5b6000614d6084828501614c47565b91505092915050565b60008115159050919050565b614d7e81614d69565b8114614d8957600080fd5b50565b600081359050614d9b81614d75565b92915050565b600060208284031215614db757614db6614bf4565b5b6000614dc584828501614d8c565b91505092915050565b6000819050919050565b6000614df3614dee614de984614bfe565b614dce565b614bfe565b9050919050565b6000614e0582614dd8565b9050919050565b6000614e1782614dfa565b9050919050565b614e2781614e0c565b82525050565b6000602082019050614e426000830184614e1e565b92915050565b600080fd5b6000601f19601f8301169050919050565b7f4e487b7100000000000000000000000000000000000000000000000000000000600052604160045260246000fd5b614e9682614e4d565b810181811067ffffffffffffffff82111715614eb557614eb4614e5e565b5b80604052505050565b6000614ec8614bea565b9050614ed48282614e8d565b919050565b600067ffffffffffffffff821115614ef457614ef3614e5e565b5b602082029050602081019050919050565b600080fd5b600080fd5b600060408284031215614f2557614f24614f0a565b5b614f2f6040614ebe565b90506000614f3f84828501614c7d565b6000830152506020614f5384828501614c7d565b60208301525092915050565b6000614f72614f6d84614ed9565b614ebe565b90508083825260208201905060408402830185811115614f9557614f94614f05565b5b835b81811015614fbe5780614faa8882614f0f565b845260208401935050604081019050614f97565b5050509392505050565b600082601f830112614fdd57614fdc614e48565b5b8135614fed848260208601614f5f565b91505092915050565b60006020828403121561500c5761500b614bf4565b5b600082013567ffffffffffffffff81111561502a57615029614bf9565b5b61503684828501614fc8565b91505092915050565b60006020828403121561505557615054614bf4565b5b600061506384828501614c7d565b91505092915050565b600081519050919050565b600082825260208201905092915050565b60005b838110156150a657808201518184015260208101905061508b565b60008484015250505050565b60006150bd8261506c565b6150c78185615077565b93506150d7818560208601615088565b6150e081614e4d565b840191505092915050565b6000606082019050818103600083015261510581866150b2565b90506151146020830185614cd2565b6151216040830184614cd2565b949350505050565b61513281614d69565b82525050565b600060208201905061514d6000830184615129565b92915050565b60006040820190506151686000830185614cd2565b6151756020830184614cd2565b9392505050565b6000806000806080858703121561519657615195614bf4565b5b60006151a487828801614c7d565b94505060206151b587828801614c7d565b93505060406151c687828801614c7d565b92505060606151d787828801614d8c565b91505092959194509250565b600080fd5b600067ffffffffffffffff82111561520357615202614e5e565b5b61520c82614e4d565b9050602081019050919050565b82818337600083830152505050565b600061523b615236846151e8565b614ebe565b905082815260208101848484011115615257576152566151e3565b5b615262848285615219565b509392505050565b600082601f83011261527f5761527e614e48565b5b813561528f848260208601615228565b91505092915050565b600080600080608085870312156152b2576152b1614bf4565b5b600085013567ffffffffffffffff8111156152d0576152cf614bf9565b5b6152dc8782880161526a565b94505060206152ed87828801614c7d565b93505060406152fe87828801614c7d565b925050606061530f87828801614d8c565b91505092959194509250565b600081519050919050565b600082825260208201905092915050565b6000819050602082019050919050565b61535081614c5c565b82525050565b60006153628383615347565b60208301905092915050565b6000602082019050919050565b60006153868261531b565b6153908185615326565b935061539b83615337565b8060005b838110156153cc5781516153b38882615356565b97506153be8361536e565b92505060018101905061539f565b5085935050505092915050565b600060208201905081810360008301526153f3818461537b565b905092915050565b61540481614c1e565b82525050565b600060208201905061541f60008301846153fb565b92915050565b60008060006060848603121561543e5761543d614bf4565b5b600061544c86828701614c7d565b935050602061545d86828701614c7d565b925050604061546e86828701614c7d565b9150509250925092565b600061548382614dfa565b9050919050565b61549381615478565b82525050565b60006020820190506154ae600083018461548a565b92915050565b6000806000606084860312156154cd576154cc614bf4565b5b60006154db86828701614c47565b93505060206154ec86828701614c7d565b92505060406154fd86828701614c7d565b9150509250925092565b7f4e487b7100000000000000000000000000000000000000000000000000000000600052601160045260246000fd5b600061554182614c5c565b915061554c83614c5c565b925082820190508082111561556457615563615507565b5b92915050565b7f4e487b7100000000000000000000000000000000000000000000000000000000600052603260045260246000fd5b60006155a482614c5c565b91506155af83614c5c565b92508282039050818111156155c7576155c6615507565b5b92915050565b7f4e6f7420656e6f756768206372797374616c7300000000000000000000000000600082015250565b6000615603601383615077565b915061560e826155cd565b602082019050919050565b60006020820190508181036000830152615632816155f6565b9050919050565b600061564482614c5c565b915061564f83614c5c565b925082820261565d81614c5c565b9150828204841483151761567457615673615507565b5b5092915050565b7f4e487b7100000000000000000000000000000000000000000000000000000000600052601260045260246000fd5b60006156b582614c5c565b91506156c083614c5c565b9250826156d0576156cf61567b565b5b828204905092915050565b60006080820190506156f06000830187615129565b6156fd6020830186615129565b61570a6040830185614cd2565b6157176060830184614cd2565b95945050505050565b7f4e6f20626f6e7573000000000000000000000000000000000000000000000000600082015250565b6000615756600883615077565b915061576182615720565b602082019050919050565b6000602082019050818103600083015261578581615749565b9050919050565b7f4e487b7100000000000000000000000000000000000000000000000000000000600052602260045260246000fd5b600060028204905060018216806157d357607f821691505b6020821081036157e6576157e561578c565b5b50919050565b7f4d7573742073656e642043524f00000000000000000000000000000000000000600082015250565b6000615822600d83615077565b915061582d826157ec565b602082019050919050565b6000602082019050818103600083015261585181615815565b9050919050565b60008151905061586781614d75565b92915050565b60006020828403121561588357615882614bf4565b5b600061589184828501615858565b91505092915050565b7f4e6f74206f6e207468652077686974656c697374210000000000000000000000600082015250565b60006158d0601583615077565b91506158db8261589a565b602082019050919050565b600060208201905081810360008301526158ff816158c3565b9050919050565b7f53616c65206973206e6f74206f70656e21000000000000000000000000000000600082015250565b600061593c601183615077565b915061594782615906565b602082019050919050565b6000602082019050818103600083015261596b8161592f565b9050919050565b7f4e6f7420656e6f7567682043524f000000000000000000000000000000000000600082015250565b60006159a8600e83615077565b91506159b382615972565b602082019050919050565b600060208201905081810360008301526159d78161599b565b9050919050565b60006080820190506159f36000830187614cd2565b615a006020830186614cd2565b615a0d6040830185614cd2565b615a1a6060830184614cd2565b95945050505050565b60008190508160005260206000209050919050565b60006020601f8301049050919050565b600082821b905092915050565b600060088302615a857fffffffffffffffffffffffffffffffffffffffffffffffffffffffffffffffff82615a48565b615a8f8683615a48565b95508019841693508086168417925050509392505050565b6000615ac2615abd615ab884614c5c565b614dce565b614c5c565b9050919050565b6000819050919050565b615adc83615aa7565b615af0615ae882615ac9565b848454615a55565b825550505050565b600090565b615b05615af8565b615b10818484615ad3565b505050565b5b81811015615b3457615b29600082615afd565b600181019050615b16565b5050565b601f821115615b7957615b4a81615a23565b615b5384615a38565b81016020851015615b62578190505b615b76615b6e85615a38565b830182615b15565b50505b505050565b600082821c905092915050565b6000615b9c60001984600802615b7e565b1980831691505092915050565b6000615bb58383615b8b565b9150826002028217905092915050565b615bce8261506c565b67ffffffffffffffff811115615be757615be6614e5e565b5b615bf182546157bb565b615bfc828285615b38565b600060209050601f831160018114615c2f5760008415615c1d578287015190505b615c278582615ba9565b865550615c8f565b601f198416615c3d86615a23565b60005b82811015615c6557848901518255600182019150602085019450602081019050615c40565b86831015615c825784890151615c7e601f891682615b8b565b8355505b6001600288020188555050505b505050505050565b7f56616c7565206d757374206265206265747765656e203020616e642032300000600082015250565b6000615ccd601e83615077565b9150615cd882615c97565b602082019050919050565b60006020820190508181036000830152615cfc81615cc0565b9050919050565b6000606082019050615d1860008301866153fb565b615d2560208301856153fb565b615d326040830184614cd2565b949350505050565b7f4e6f2043524f206f776564000000000000000000000000000000000000000000600082015250565b6000615d70600b83615077565b9150615d7b82615d3a565b602082019050919050565b60006020820190508181036000830152615d9f81615d63565b9050919050565b7f47656d207479706520646f6573206e6f74206578697374000000000000000000600082015250565b6000615ddc601783615077565b9150615de782615da6565b602082019050919050565b60006020820190508181036000830152615e0b81615dcf565b9050919050565b7f4e6f7420656e6f7567682067656d7320746f2073656c6c000000000000000000600082015250565b6000615e48601783615077565b9150615e5382615e12565b602082019050919050565b60006020820190508181036000830152615e7781615e3b565b9050919050565b7f43616c6c6572206973206e6f7420616e2061646d696e00000000000000000000600082015250565b6000615eb4601683615077565b9150615ebf82615e7e565b602082019050919050565b60006020820190508181036000830152615ee381615ea7565b9050919050565b6000615ef582614c5c565b91507fffffffffffffffffffffffffffffffffffffffffffffffffffffffffffffffff8203615f2757615f26615507565b5b600182019050919050565b7f4e6f7420656e6f756768207370656e6461626c6520746f6b656e2e0000000000600082015250565b6000615f68601b83615077565b9150615f7382615f32565b602082019050919050565b60006020820190508181036000830152615f9781615f5b565b905091905056fea2646970667358221220717b88e6385545ab10e723ef468f2977975b9a18a550a541628d2be3cf33971c64736f6c634300081c0033","opcodes":"PUSH1 0x80 PUSH1 0x40 MSTORE PUSH1 0x0 PUSH1 0xD SSTORE PUSH1 0x0 PUSH1 0xE SSTORE PUSH1 0x1 PUSH1 0xF SSTORE PUSH1 0x1 PUSH1 0x10 SSTORE PUSH1 0x1 PUSH1 0x11 SSTORE PUSH1 0xA PUSH1 0x20 SSTORE PUSH1 0xA PUSH1 0x21 SSTORE PUSH1 0xF PUSH1 0x22 SSTORE PUSH1 0x0 PUSH1 0x27 PUSH1 0x0 PUSH2 0x100 EXP DUP2 SLOAD DUP2 PUSH1 0xFF MUL NOT AND SWAP1 DUP4 ISZERO ISZERO MUL OR SWAP1 SSTORE POP CALLVALUE DUP1 ISZERO PUSH2 0x53 JUMPI PUSH1 0x0 DUP1 REVERT JUMPDEST POP PUSH1 0x40 MLOAD PUSH2 0x62F2 CODESIZE SUB DUP1 PUSH2 0x62F2 DUP4 CODECOPY DUP2 DUP2 ADD PUSH1 0x40 MSTORE DUP2 ADD SWAP1 PUSH2 0x75 SWAP2 SWAP1 PUSH2 0x2A5 JUMP JUMPDEST DUP2 PUSH1 0x0 PUSH20 0xFFFFFFFFFFFFFFFFFFFFFFFFFFFFFFFFFFFFFFFF AND DUP2 PUSH20 0xFFFFFFFFFFFFFFFFFFFFFFFFFFFFFFFFFFFFFFFF AND SUB PUSH2 0xE8 JUMPI PUSH1 0x0 PUSH1 0x40 MLOAD PUSH32 0x1E4FBDF700000000000000000000000000000000000000000000000000000000 DUP2 MSTORE PUSH1 0x4 ADD PUSH2 0xDF SWAP2 SWAP1 PUSH2 0x2F4 JUMP JUMPDEST PUSH1 0x40 MLOAD DUP1 SWAP2 SUB SWAP1 REVERT JUMPDEST PUSH2 0xF7 DUP2 PUSH2 0x140 PUSH1 0x20 SHL PUSH1 0x20 SHR JUMP JUMPDEST POP DUP1 PUSH1 0x2 PUSH1 0x0 PUSH2 0x100 EXP DUP2 SLOAD DUP2 PUSH20 0xFFFFFFFFFFFFFFFFFFFFFFFFFFFFFFFFFFFFFFFF MUL NOT AND SWAP1 DUP4 PUSH20 0xFFFFFFFFFFFFFFFFFFFFFFFFFFFFFFFFFFFFFFFF AND MUL OR SWAP1 SSTORE POP POP POP PUSH2 0x30F JUMP JUMPDEST PUSH1 0x0 DUP1 PUSH1 0x0 SWAP1 SLOAD SWAP1 PUSH2 0x100 EXP SWAP1 DIV PUSH20 0xFFFFFFFFFFFFFFFFFFFFFFFFFFFFFFFFFFFFFFFF AND SWAP1 POP DUP2 PUSH1 0x0 DUP1 PUSH2 0x100 EXP DUP2 SLOAD DUP2 PUSH20 0xFFFFFFFFFFFFFFFFFFFFFFFFFFFFFFFFFFFFFFFF MUL NOT AND SWAP1 DUP4 PUSH20 0xFFFFFFFFFFFFFFFFFFFFFFFFFFFFFFFFFFFFFFFF AND MUL OR SWAP1 SSTORE POP DUP2 PUSH20 0xFFFFFFFFFFFFFFFFFFFFFFFFFFFFFFFFFFFFFFFF AND DUP2 PUSH20 0xFFFFFFFFFFFFFFFFFFFFFFFFFFFFFFFFFFFFFFFF AND PUSH32 0x8BE0079C531659141344CD1FD0A4F28419497F9722A3DAAFE3B4186F6B6457E0 PUSH1 0x40 MLOAD PUSH1 0x40 MLOAD DUP1 SWAP2 SUB SWAP1 LOG3 POP POP JUMP JUMPDEST PUSH1 0x0 DUP1 REVERT JUMPDEST PUSH1 0x0 PUSH20 0xFFFFFFFFFFFFFFFFFFFFFFFFFFFFFFFFFFFFFFFF DUP3 AND SWAP1 POP SWAP2 SWAP1 POP JUMP JUMPDEST PUSH1 0x0 PUSH2 0x234 DUP3 PUSH2 0x209 JUMP JUMPDEST SWAP1 POP SWAP2 SWAP1 POP JUMP JUMPDEST PUSH2 0x244 DUP2 PUSH2 0x229 JUMP JUMPDEST DUP2 EQ PUSH2 0x24F JUMPI PUSH1 0x0 DUP1 REVERT JUMPDEST POP JUMP JUMPDEST PUSH1 0x0 DUP2 MLOAD SWAP1 POP PUSH2 0x261 DUP2 PUSH2 0x23B JUMP JUMPDEST SWAP3 SWAP2 POP POP JUMP JUMPDEST PUSH1 0x0 PUSH2 0x272 DUP3 PUSH2 0x209 JUMP JUMPDEST SWAP1 POP SWAP2 SWAP1 POP JUMP JUMPDEST PUSH2 0x282 DUP2 PUSH2 0x267 JUMP JUMPDEST DUP2 EQ PUSH2 0x28D JUMPI PUSH1 0x0 DUP1 REVERT JUMPDEST POP JUMP JUMPDEST PUSH1 0x0 DUP2 MLOAD SWAP1 POP PUSH2 0x29F DUP2 PUSH2 0x279 JUMP JUMPDEST SWAP3 SWAP2 POP POP JUMP JUMPDEST PUSH1 0x0 DUP1 PUSH1 0x40 DUP4 DUP6 SUB SLT ISZERO PUSH2 0x2BC JUMPI PUSH2 0x2BB PUSH2 0x204 JUMP JUMPDEST JUMPDEST PUSH1 0x0 PUSH2 0x2CA DUP6 DUP3 DUP7 ADD PUSH2 0x252 JUMP JUMPDEST SWAP3 POP POP PUSH1 0x20 PUSH2 0x2DB DUP6 DUP3 DUP7 ADD PUSH2 0x290 JUMP JUMPDEST SWAP2 POP POP SWAP3 POP SWAP3 SWAP1 POP JUMP JUMPDEST PUSH2 0x2EE DUP2 PUSH2 0x267 JUMP JUMPDEST DUP3 MSTORE POP POP JUMP JUMPDEST PUSH1 0x0 PUSH1 0x20 DUP3 ADD SWAP1 POP PUSH2 0x309 PUSH1 0x0 DUP4 ADD DUP5 PUSH2 0x2E5 JUMP JUMPDEST SWAP3 SWAP2 POP POP JUMP JUMPDEST PUSH2 0x5FD4 DUP1 PUSH2 0x31E PUSH1 0x0 CODECOPY PUSH1 0x0 RETURN INVALID PUSH1 0x80 PUSH1 0x40 MSTORE PUSH1 0x4 CALLDATASIZE LT PUSH2 0x42A JUMPI PUSH1 0x0 CALLDATALOAD PUSH1 0xE0 SHR DUP1 PUSH4 0x869C865E GT PUSH2 0x229 JUMPI DUP1 PUSH4 0xC70E12CB GT PUSH2 0x12E JUMPI DUP1 PUSH4 0xE1DC75D2 GT PUSH2 0xB6 JUMPI DUP1 PUSH4 0xF9D70200 GT PUSH2 0x7A JUMPI DUP1 PUSH4 0xF9D70200 EQ PUSH2 0x10F8 JUMPI DUP1 PUSH4 0xFC0C546A EQ PUSH2 0x1121 JUMPI DUP1 PUSH4 0xFCB966D7 EQ PUSH2 0x114C JUMPI DUP1 PUSH4 0xFD239FD9 EQ PUSH2 0x1177 JUMPI DUP1 PUSH4 0xFF5133CD EQ PUSH2 0x11B4 JUMPI PUSH2 0x431 JUMP JUMPDEST DUP1 PUSH4 0xE1DC75D2 EQ PUSH2 0x1003 JUMPI DUP1 PUSH4 0xEF49968A EQ PUSH2 0x102C JUMPI DUP1 PUSH4 0xEF5D9AE8 EQ PUSH2 0x1069 JUMPI DUP1 PUSH4 0xF226DE97 EQ PUSH2 0x10A6 JUMPI DUP1 PUSH4 0xF2FDE38B EQ PUSH2 0x10CF JUMPI PUSH2 0x431 JUMP JUMPDEST DUP1 PUSH4 0xD4A444B4 GT PUSH2 0xFD JUMPI DUP1 PUSH4 0xD4A444B4 EQ PUSH2 0xF1E JUMPI DUP1 PUSH4 0xD7E14E13 EQ PUSH2 0xF5B JUMPI DUP1 PUSH4 0xD9CEAB13 EQ PUSH2 0xF86 JUMPI DUP1 PUSH4 0xDE473F8D EQ PUSH2 0xF9D JUMPI DUP1 PUSH4 0xDF13C9CA EQ PUSH2 0xFDA JUMPI PUSH2 0x431 JUMP JUMPDEST DUP1 PUSH4 0xC70E12CB EQ PUSH2 0xE50 JUMPI DUP1 PUSH4 0xC7A18347 EQ PUSH2 0xE8D JUMPI DUP1 PUSH4 0xC8DA5EF5 EQ PUSH2 0xECA JUMPI DUP1 PUSH4 0xCE54D6E1 EQ PUSH2 0xEF5 JUMPI PUSH2 0x431 JUMP JUMPDEST DUP1 PUSH4 0x95526F4C GT PUSH2 0x1B1 JUMPI DUP1 PUSH4 0xAF28728C GT PUSH2 0x180 JUMPI DUP1 PUSH4 0xAF28728C EQ PUSH2 0xD69 JUMPI DUP1 PUSH4 0xBBAA1177 EQ PUSH2 0xD94 JUMPI DUP1 PUSH4 0xBC090191 EQ PUSH2 0xDBF JUMPI DUP1 PUSH4 0xBC3DE749 EQ PUSH2 0xDFC JUMPI DUP1 PUSH4 0xBFF1F9E1 EQ PUSH2 0xE25 JUMPI PUSH2 0x431 JUMP JUMPDEST DUP1 PUSH4 0x95526F4C EQ PUSH2 0xC73 JUMPI DUP1 PUSH4 0x95AE8478 EQ PUSH2 0xCB0 JUMPI DUP1 PUSH4 0xA1F0406D EQ PUSH2 0xCED JUMPI DUP1 PUSH4 0xA54DFAAD EQ PUSH2 0xD2C JUMPI PUSH2 0x431 JUMP JUMPDEST DUP1 PUSH4 0x8E84A0D8 GT PUSH2 0x1F8 JUMPI DUP1 PUSH4 0x8E84A0D8 EQ PUSH2 0xB7A JUMPI DUP1 PUSH4 0x90838E09 EQ PUSH2 0xBA5 JUMPI DUP1 PUSH4 0x90C757EB EQ PUSH2 0xBE2 JUMPI DUP1 PUSH4 0x9106D7BA EQ PUSH2 0xC1F JUMPI DUP1 PUSH4 0x93DBC757 EQ PUSH2 0xC4A JUMPI PUSH2 0x431 JUMP JUMPDEST DUP1 PUSH4 0x869C865E EQ PUSH2 0xAAC JUMPI DUP1 PUSH4 0x876CF0EF EQ PUSH2 0xAD5 JUMPI DUP1 PUSH4 0x88185E03 EQ PUSH2 0xB12 JUMPI DUP1 PUSH4 0x8DA5CB5B EQ PUSH2 0xB4F JUMPI PUSH2 0x431 JUMP JUMPDEST DUP1 PUSH4 0x37851598 GT PUSH2 0x32F JUMPI DUP1 PUSH4 0x66D74C80 GT PUSH2 0x2B7 JUMPI DUP1 PUSH4 0x715018A6 GT PUSH2 0x286 JUMPI DUP1 PUSH4 0x715018A6 EQ PUSH2 0x9E9 JUMPI DUP1 PUSH4 0x7217E0B9 EQ PUSH2 0xA00 JUMPI DUP1 PUSH4 0x7D848DB2 EQ PUSH2 0xA3E JUMPI DUP1 PUSH4 0x7E72FB52 EQ PUSH2 0xA67 JUMPI DUP1 PUSH4 0x82D95DF5 EQ PUSH2 0xA83 JUMPI PUSH2 0x431 JUMP JUMPDEST DUP1 PUSH4 0x66D74C80 EQ PUSH2 0x93F JUMPI DUP1 PUSH4 0x6B9F96EA EQ PUSH2 0x96A JUMPI DUP1 PUSH4 0x6C743FB2 EQ PUSH2 0x981 JUMPI DUP1 PUSH4 0x6DE62EA7 EQ PUSH2 0x9AC JUMPI PUSH2 0x431 JUMP JUMPDEST DUP1 PUSH4 0x4E358662 GT PUSH2 0x2FE JUMPI DUP1 PUSH4 0x4E358662 EQ PUSH2 0x846 JUMPI DUP1 PUSH4 0x4ED9B7F6 EQ PUSH2 0x883 JUMPI DUP1 PUSH4 0x50A3EAF0 EQ PUSH2 0x8AE JUMPI DUP1 PUSH4 0x51484A19 EQ PUSH2 0x8D9 JUMPI DUP1 PUSH4 0x6143440C EQ PUSH2 0x916 JUMPI PUSH2 0x431 JUMP JUMPDEST DUP1 PUSH4 0x37851598 EQ PUSH2 0x778 JUMPI DUP1 PUSH4 0x45ED628F EQ PUSH2 0x7A1 JUMPI DUP1 PUSH4 0x47315EC4 EQ PUSH2 0x7CC JUMPI DUP1 PUSH4 0x4A5F58C7 EQ PUSH2 0x809 JUMPI PUSH2 0x431 JUMP JUMPDEST DUP1 PUSH4 0x1FF9E2B2 GT PUSH2 0x3B2 JUMPI DUP1 PUSH4 0x29E0F88D GT PUSH2 0x381 JUMPI DUP1 PUSH4 0x29E0F88D EQ PUSH2 0x66B JUMPI DUP1 PUSH4 0x2B4C73E5 EQ PUSH2 0x694 JUMPI DUP1 PUSH4 0x31B3AB3F EQ PUSH2 0x6BF JUMPI DUP1 PUSH4 0x33298463 EQ PUSH2 0x6FE JUMPI DUP1 PUSH4 0x376F9671 EQ PUSH2 0x73B JUMPI PUSH2 0x431 JUMP JUMPDEST DUP1 PUSH4 0x1FF9E2B2 EQ PUSH2 0x5AF JUMPI DUP1 PUSH4 0x206A5DBC EQ PUSH2 0x5DA JUMPI DUP1 PUSH4 0x21622C63 EQ PUSH2 0x605 JUMPI DUP1 PUSH4 0x23ADA717 EQ PUSH2 0x62E JUMPI PUSH2 0x431 JUMP JUMPDEST DUP1 PUSH4 0xB97BC86 GT PUSH2 0x3F9 JUMPI DUP1 PUSH4 0xB97BC86 EQ PUSH2 0x4DE JUMPI DUP1 PUSH4 0x109D75D5 EQ PUSH2 0x509 JUMPI DUP1 PUSH4 0x1A156F93 EQ PUSH2 0x546 JUMPI DUP1 PUSH4 0x1DD02B4B EQ PUSH2 0x56F JUMPI DUP1 PUSH4 0x1E375AB9 EQ PUSH2 0x598 JUMPI PUSH2 0x431 JUMP JUMPDEST DUP1 PUSH4 0x355D20C EQ PUSH2 0x436 JUMPI DUP1 PUSH4 0x55AD42E EQ PUSH2 0x45F JUMPI DUP1 PUSH4 0x8D317DD EQ PUSH2 0x48A JUMPI DUP1 PUSH4 0xAE19BA8 EQ PUSH2 0x4B3 JUMPI PUSH2 0x431 JUMP JUMPDEST CALLDATASIZE PUSH2 0x431 JUMPI STOP JUMPDEST PUSH1 0x0 DUP1 REVERT JUMPDEST CALLVALUE DUP1 ISZERO PUSH2 0x442 JUMPI PUSH1 0x0 DUP1 REVERT JUMPDEST POP PUSH2 0x45D PUSH1 0x4 DUP1 CALLDATASIZE SUB DUP2 ADD SWAP1 PUSH2 0x458 SWAP2 SWAP1 PUSH2 0x4C92 JUMP JUMPDEST PUSH2 0x11DD JUMP JUMPDEST STOP JUMPDEST CALLVALUE DUP1 ISZERO PUSH2 0x46B JUMPI PUSH1 0x0 DUP1 REVERT JUMPDEST POP PUSH2 0x474 PUSH2 0x128D JUMP JUMPDEST PUSH1 0x40 MLOAD PUSH2 0x481 SWAP2 SWAP1 PUSH2 0x4CE1 JUMP JUMPDEST PUSH1 0x40 MLOAD DUP1 SWAP2 SUB SWAP1 RETURN JUMPDEST CALLVALUE DUP1 ISZERO PUSH2 0x496 JUMPI PUSH1 0x0 DUP1 REVERT JUMPDEST POP PUSH2 0x4B1 PUSH1 0x4 DUP1 CALLDATASIZE SUB DUP2 ADD SWAP1 PUSH2 0x4AC SWAP2 SWAP1 PUSH2 0x4CFC JUMP JUMPDEST PUSH2 0x1329 JUMP JUMPDEST STOP JUMPDEST CALLVALUE DUP1 ISZERO PUSH2 0x4BF JUMPI PUSH1 0x0 DUP1 REVERT JUMPDEST POP PUSH2 0x4C8 PUSH2 0x15FC JUMP JUMPDEST PUSH1 0x40 MLOAD PUSH2 0x4D5 SWAP2 SWAP1 PUSH2 0x4CE1 JUMP JUMPDEST PUSH1 0x40 MLOAD DUP1 SWAP2 SUB SWAP1 RETURN JUMPDEST CALLVALUE DUP1 ISZERO PUSH2 0x4EA JUMPI PUSH1 0x0 DUP1 REVERT JUMPDEST POP PUSH2 0x4F3 PUSH2 0x1602 JUMP JUMPDEST PUSH1 0x40 MLOAD PUSH2 0x500 SWAP2 SWAP1 PUSH2 0x4CE1 JUMP JUMPDEST PUSH1 0x40 MLOAD DUP1 SWAP2 SUB SWAP1 RETURN JUMPDEST CALLVALUE DUP1 ISZERO PUSH2 0x515 JUMPI PUSH1 0x0 DUP1 REVERT JUMPDEST POP PUSH2 0x530 PUSH1 0x4 DUP1 CALLDATASIZE SUB DUP2 ADD SWAP1 PUSH2 0x52B SWAP2 SWAP1 PUSH2 0x4D3C JUMP JUMPDEST PUSH2 0x1608 JUMP JUMPDEST PUSH1 0x40 MLOAD PUSH2 0x53D SWAP2 SWAP1 PUSH2 0x4CE1 JUMP JUMPDEST PUSH1 0x40 MLOAD DUP1 SWAP2 SUB SWAP1 RETURN JUMPDEST CALLVALUE DUP1 ISZERO PUSH2 0x552 JUMPI PUSH1 0x0 DUP1 REVERT JUMPDEST POP PUSH2 0x56D PUSH1 0x4 DUP1 CALLDATASIZE SUB DUP2 ADD SWAP1 PUSH2 0x568 SWAP2 SWAP1 PUSH2 0x4D3C JUMP JUMPDEST PUSH2 0x1664 JUMP JUMPDEST STOP JUMPDEST CALLVALUE DUP1 ISZERO PUSH2 0x57B JUMPI PUSH1 0x0 DUP1 REVERT JUMPDEST POP PUSH2 0x596 PUSH1 0x4 DUP1 CALLDATASIZE SUB DUP2 ADD SWAP1 PUSH2 0x591 SWAP2 SWAP1 PUSH2 0x4DA1 JUMP JUMPDEST PUSH2 0x173D JUMP JUMPDEST STOP JUMPDEST CALLVALUE DUP1 ISZERO PUSH2 0x5A4 JUMPI PUSH1 0x0 DUP1 REVERT JUMPDEST POP PUSH2 0x5AD PUSH2 0x1762 JUMP JUMPDEST STOP JUMPDEST CALLVALUE DUP1 ISZERO PUSH2 0x5BB JUMPI PUSH1 0x0 DUP1 REVERT JUMPDEST POP PUSH2 0x5C4 PUSH2 0x1A47 JUMP JUMPDEST PUSH1 0x40 MLOAD PUSH2 0x5D1 SWAP2 SWAP1 PUSH2 0x4E2D JUMP JUMPDEST PUSH1 0x40 MLOAD DUP1 SWAP2 SUB SWAP1 RETURN JUMPDEST CALLVALUE DUP1 ISZERO PUSH2 0x5E6 JUMPI PUSH1 0x0 DUP1 REVERT JUMPDEST POP PUSH2 0x5EF PUSH2 0x1A6D JUMP JUMPDEST PUSH1 0x40 MLOAD PUSH2 0x5FC SWAP2 SWAP1 PUSH2 0x4CE1 JUMP JUMPDEST PUSH1 0x40 MLOAD DUP1 SWAP2 SUB SWAP1 RETURN JUMPDEST CALLVALUE DUP1 ISZERO PUSH2 0x611 JUMPI PUSH1 0x0 DUP1 REVERT JUMPDEST POP PUSH2 0x62C PUSH1 0x4 DUP1 CALLDATASIZE SUB DUP2 ADD SWAP1 PUSH2 0x627 SWAP2 SWAP1 PUSH2 0x4FF6 JUMP JUMPDEST PUSH2 0x1A73 JUMP JUMPDEST STOP JUMPDEST CALLVALUE DUP1 ISZERO PUSH2 0x63A JUMPI PUSH1 0x0 DUP1 REVERT JUMPDEST POP PUSH2 0x655 PUSH1 0x4 DUP1 CALLDATASIZE SUB DUP2 ADD SWAP1 PUSH2 0x650 SWAP2 SWAP1 PUSH2 0x4D3C JUMP JUMPDEST PUSH2 0x1B38 JUMP JUMPDEST PUSH1 0x40 MLOAD PUSH2 0x662 SWAP2 SWAP1 PUSH2 0x4CE1 JUMP JUMPDEST PUSH1 0x40 MLOAD DUP1 SWAP2 SUB SWAP1 RETURN JUMPDEST CALLVALUE DUP1 ISZERO PUSH2 0x677 JUMPI PUSH1 0x0 DUP1 REVERT JUMPDEST POP PUSH2 0x692 PUSH1 0x4 DUP1 CALLDATASIZE SUB DUP2 ADD SWAP1 PUSH2 0x68D SWAP2 SWAP1 PUSH2 0x4D3C JUMP JUMPDEST PUSH2 0x1B50 JUMP JUMPDEST STOP JUMPDEST CALLVALUE DUP1 ISZERO PUSH2 0x6A0 JUMPI PUSH1 0x0 DUP1 REVERT JUMPDEST POP PUSH2 0x6A9 PUSH2 0x1B9C JUMP JUMPDEST PUSH1 0x40 MLOAD PUSH2 0x6B6 SWAP2 SWAP1 PUSH2 0x4CE1 JUMP JUMPDEST PUSH1 0x40 MLOAD DUP1 SWAP2 SUB SWAP1 RETURN JUMPDEST CALLVALUE DUP1 ISZERO PUSH2 0x6CB JUMPI PUSH1 0x0 DUP1 REVERT JUMPDEST POP PUSH2 0x6E6 PUSH1 0x4 DUP1 CALLDATASIZE SUB DUP2 ADD SWAP1 PUSH2 0x6E1 SWAP2 SWAP1 PUSH2 0x503F JUMP JUMPDEST PUSH2 0x1BA2 JUMP JUMPDEST PUSH1 0x40 MLOAD PUSH2 0x6F5 SWAP4 SWAP3 SWAP2 SWAP1 PUSH2 0x50EB JUMP JUMPDEST PUSH1 0x40 MLOAD DUP1 SWAP2 SUB SWAP1 RETURN JUMPDEST CALLVALUE DUP1 ISZERO PUSH2 0x70A JUMPI PUSH1 0x0 DUP1 REVERT JUMPDEST POP PUSH2 0x725 PUSH1 0x4 DUP1 CALLDATASIZE SUB DUP2 ADD SWAP1 PUSH2 0x720 SWAP2 SWAP1 PUSH2 0x4D3C JUMP JUMPDEST PUSH2 0x1C64 JUMP JUMPDEST PUSH1 0x40 MLOAD PUSH2 0x732 SWAP2 SWAP1 PUSH2 0x4CE1 JUMP JUMPDEST PUSH1 0x40 MLOAD DUP1 SWAP2 SUB SWAP1 RETURN JUMPDEST CALLVALUE DUP1 ISZERO PUSH2 0x747 JUMPI PUSH1 0x0 DUP1 REVERT JUMPDEST POP PUSH2 0x762 PUSH1 0x4 DUP1 CALLDATASIZE SUB DUP2 ADD SWAP1 PUSH2 0x75D SWAP2 SWAP1 PUSH2 0x4D3C JUMP JUMPDEST PUSH2 0x1C7C JUMP JUMPDEST PUSH1 0x40 MLOAD PUSH2 0x76F SWAP2 SWAP1 PUSH2 0x4CE1 JUMP JUMPDEST PUSH1 0x40 MLOAD DUP1 SWAP2 SUB SWAP1 RETURN JUMPDEST CALLVALUE DUP1 ISZERO PUSH2 0x784 JUMPI PUSH1 0x0 DUP1 REVERT JUMPDEST POP PUSH2 0x79F PUSH1 0x4 DUP1 CALLDATASIZE SUB DUP2 ADD SWAP1 PUSH2 0x79A SWAP2 SWAP1 PUSH2 0x503F JUMP JUMPDEST PUSH2 0x1C94 JUMP JUMPDEST STOP JUMPDEST CALLVALUE DUP1 ISZERO PUSH2 0x7AD JUMPI PUSH1 0x0 DUP1 REVERT JUMPDEST POP PUSH2 0x7B6 PUSH2 0x1CA6 JUMP JUMPDEST PUSH1 0x40 MLOAD PUSH2 0x7C3 SWAP2 SWAP1 PUSH2 0x4CE1 JUMP JUMPDEST PUSH1 0x40 MLOAD DUP1 SWAP2 SUB SWAP1 RETURN JUMPDEST CALLVALUE DUP1 ISZERO PUSH2 0x7D8 JUMPI PUSH1 0x0 DUP1 REVERT JUMPDEST POP PUSH2 0x7F3 PUSH1 0x4 DUP1 CALLDATASIZE SUB DUP2 ADD SWAP1 PUSH2 0x7EE SWAP2 SWAP1 PUSH2 0x4D3C JUMP JUMPDEST PUSH2 0x1CAC JUMP JUMPDEST PUSH1 0x40 MLOAD PUSH2 0x800 SWAP2 SWAP1 PUSH2 0x4CE1 JUMP JUMPDEST PUSH1 0x40 MLOAD DUP1 SWAP2 SUB SWAP1 RETURN JUMPDEST CALLVALUE DUP1 ISZERO PUSH2 0x815 JUMPI PUSH1 0x0 DUP1 REVERT JUMPDEST POP PUSH2 0x830 PUSH1 0x4 DUP1 CALLDATASIZE SUB DUP2 ADD SWAP1 PUSH2 0x82B SWAP2 SWAP1 PUSH2 0x4D3C JUMP JUMPDEST PUSH2 0x1CC4 JUMP JUMPDEST PUSH1 0x40 MLOAD PUSH2 0x83D SWAP2 SWAP1 PUSH2 0x4CE1 JUMP JUMPDEST PUSH1 0x40 MLOAD DUP1 SWAP2 SUB SWAP1 RETURN JUMPDEST CALLVALUE DUP1 ISZERO PUSH2 0x852 JUMPI PUSH1 0x0 DUP1 REVERT JUMPDEST POP PUSH2 0x86D PUSH1 0x4 DUP1 CALLDATASIZE SUB DUP2 ADD SWAP1 PUSH2 0x868 SWAP2 SWAP1 PUSH2 0x4D3C JUMP JUMPDEST PUSH2 0x1CDC JUMP JUMPDEST PUSH1 0x40 MLOAD PUSH2 0x87A SWAP2 SWAP1 PUSH2 0x4CE1 JUMP JUMPDEST PUSH1 0x40 MLOAD DUP1 SWAP2 SUB SWAP1 RETURN JUMPDEST CALLVALUE DUP1 ISZERO PUSH2 0x88F JUMPI PUSH1 0x0 DUP1 REVERT JUMPDEST POP PUSH2 0x898 PUSH2 0x1CF4 JUMP JUMPDEST PUSH1 0x40 MLOAD PUSH2 0x8A5 SWAP2 SWAP1 PUSH2 0x5138 JUMP JUMPDEST PUSH1 0x40 MLOAD DUP1 SWAP2 SUB SWAP1 RETURN JUMPDEST CALLVALUE DUP1 ISZERO PUSH2 0x8BA JUMPI PUSH1 0x0 DUP1 REVERT JUMPDEST POP PUSH2 0x8C3 PUSH2 0x1D07 JUMP JUMPDEST PUSH1 0x40 MLOAD PUSH2 0x8D0 SWAP2 SWAP1 PUSH2 0x4CE1 JUMP JUMPDEST PUSH1 0x40 MLOAD DUP1 SWAP2 SUB SWAP1 RETURN JUMPDEST CALLVALUE DUP1 ISZERO PUSH2 0x8E5 JUMPI PUSH1 0x0 DUP1 REVERT JUMPDEST POP PUSH2 0x900 PUSH1 0x4 DUP1 CALLDATASIZE SUB DUP2 ADD SWAP1 PUSH2 0x8FB SWAP2 SWAP1 PUSH2 0x4D3C JUMP JUMPDEST PUSH2 0x1D0D JUMP JUMPDEST PUSH1 0x40 MLOAD PUSH2 0x90D SWAP2 SWAP1 PUSH2 0x4CE1 JUMP JUMPDEST PUSH1 0x40 MLOAD DUP1 SWAP2 SUB SWAP1 RETURN JUMPDEST CALLVALUE DUP1 ISZERO PUSH2 0x922 JUMPI PUSH1 0x0 DUP1 REVERT JUMPDEST POP PUSH2 0x93D PUSH1 0x4 DUP1 CALLDATASIZE SUB DUP2 ADD SWAP1 PUSH2 0x938 SWAP2 SWAP1 PUSH2 0x4D3C JUMP JUMPDEST PUSH2 0x1D25 JUMP JUMPDEST STOP JUMPDEST CALLVALUE DUP1 ISZERO PUSH2 0x94B JUMPI PUSH1 0x0 DUP1 REVERT JUMPDEST POP PUSH2 0x954 PUSH2 0x1D71 JUMP JUMPDEST PUSH1 0x40 MLOAD PUSH2 0x961 SWAP2 SWAP1 PUSH2 0x4E2D JUMP JUMPDEST PUSH1 0x40 MLOAD DUP1 SWAP2 SUB SWAP1 RETURN JUMPDEST CALLVALUE DUP1 ISZERO PUSH2 0x976 JUMPI PUSH1 0x0 DUP1 REVERT JUMPDEST POP PUSH2 0x97F PUSH2 0x1D97 JUMP JUMPDEST STOP JUMPDEST CALLVALUE DUP1 ISZERO PUSH2 0x98D JUMPI PUSH1 0x0 DUP1 REVERT JUMPDEST POP PUSH2 0x996 PUSH2 0x1DEF JUMP JUMPDEST PUSH1 0x40 MLOAD PUSH2 0x9A3 SWAP2 SWAP1 PUSH2 0x4CE1 JUMP JUMPDEST PUSH1 0x40 MLOAD DUP1 SWAP2 SUB SWAP1 RETURN JUMPDEST CALLVALUE DUP1 ISZERO PUSH2 0x9B8 JUMPI PUSH1 0x0 DUP1 REVERT JUMPDEST POP PUSH2 0x9D3 PUSH1 0x4 DUP1 CALLDATASIZE SUB DUP2 ADD SWAP1 PUSH2 0x9CE SWAP2 SWAP1 PUSH2 0x4D3C JUMP JUMPDEST PUSH2 0x1DF5 JUMP JUMPDEST PUSH1 0x40 MLOAD PUSH2 0x9E0 SWAP2 SWAP1 PUSH2 0x4CE1 JUMP JUMPDEST PUSH1 0x40 MLOAD DUP1 SWAP2 SUB SWAP1 RETURN JUMPDEST CALLVALUE DUP1 ISZERO PUSH2 0x9F5 JUMPI PUSH1 0x0 DUP1 REVERT JUMPDEST POP PUSH2 0x9FE PUSH2 0x1E0D JUMP JUMPDEST STOP JUMPDEST CALLVALUE DUP1 ISZERO PUSH2 0xA0C JUMPI PUSH1 0x0 DUP1 REVERT JUMPDEST POP PUSH2 0xA27 PUSH1 0x4 DUP1 CALLDATASIZE SUB DUP2 ADD SWAP1 PUSH2 0xA22 SWAP2 SWAP1 PUSH2 0x503F JUMP JUMPDEST PUSH2 0x1E21 JUMP JUMPDEST PUSH1 0x40 MLOAD PUSH2 0xA35 SWAP3 SWAP2 SWAP1 PUSH2 0x5153 JUMP JUMPDEST PUSH1 0x40 MLOAD DUP1 SWAP2 SUB SWAP1 RETURN JUMPDEST CALLVALUE DUP1 ISZERO PUSH2 0xA4A JUMPI PUSH1 0x0 DUP1 REVERT JUMPDEST POP PUSH2 0xA65 PUSH1 0x4 DUP1 CALLDATASIZE SUB DUP2 ADD SWAP1 PUSH2 0xA60 SWAP2 SWAP1 PUSH2 0x517C JUMP JUMPDEST PUSH2 0x1E55 JUMP JUMPDEST STOP JUMPDEST PUSH2 0xA81 PUSH1 0x4 DUP1 CALLDATASIZE SUB DUP2 ADD SWAP1 PUSH2 0xA7C SWAP2 SWAP1 PUSH2 0x4D3C JUMP JUMPDEST PUSH2 0x1F17 JUMP JUMPDEST STOP JUMPDEST CALLVALUE DUP1 ISZERO PUSH2 0xA8F JUMPI PUSH1 0x0 DUP1 REVERT JUMPDEST POP PUSH2 0xAAA PUSH1 0x4 DUP1 CALLDATASIZE SUB DUP2 ADD SWAP1 PUSH2 0xAA5 SWAP2 SWAP1 PUSH2 0x503F JUMP JUMPDEST PUSH2 0x24AA JUMP JUMPDEST STOP JUMPDEST CALLVALUE DUP1 ISZERO PUSH2 0xAB8 JUMPI PUSH1 0x0 DUP1 REVERT JUMPDEST POP PUSH2 0xAD3 PUSH1 0x4 DUP1 CALLDATASIZE SUB DUP2 ADD SWAP1 PUSH2 0xACE SWAP2 SWAP1 PUSH2 0x5298 JUMP JUMPDEST PUSH2 0x24BC JUMP JUMPDEST STOP JUMPDEST CALLVALUE DUP1 ISZERO PUSH2 0xAE1 JUMPI PUSH1 0x0 DUP1 REVERT JUMPDEST POP PUSH2 0xAFC PUSH1 0x4 DUP1 CALLDATASIZE SUB DUP2 ADD SWAP1 PUSH2 0xAF7 SWAP2 SWAP1 PUSH2 0x4D3C JUMP JUMPDEST PUSH2 0x25BA JUMP JUMPDEST PUSH1 0x40 MLOAD PUSH2 0xB09 SWAP2 SWAP1 PUSH2 0x53D9 JUMP JUMPDEST PUSH1 0x40 MLOAD DUP1 SWAP2 SUB SWAP1 RETURN JUMPDEST CALLVALUE DUP1 ISZERO PUSH2 0xB1E JUMPI PUSH1 0x0 DUP1 REVERT JUMPDEST POP PUSH2 0xB39 PUSH1 0x4 DUP1 CALLDATASIZE SUB DUP2 ADD SWAP1 PUSH2 0xB34 SWAP2 SWAP1 PUSH2 0x4D3C JUMP JUMPDEST PUSH2 0x26A5 JUMP JUMPDEST PUSH1 0x40 MLOAD PUSH2 0xB46 SWAP2 SWAP1 PUSH2 0x53D9 JUMP JUMPDEST PUSH1 0x40 MLOAD DUP1 SWAP2 SUB SWAP1 RETURN JUMPDEST CALLVALUE DUP1 ISZERO PUSH2 0xB5B JUMPI PUSH1 0x0 DUP1 REVERT JUMPDEST POP PUSH2 0xB64 PUSH2 0x2790 JUMP JUMPDEST PUSH1 0x40 MLOAD PUSH2 0xB71 SWAP2 SWAP1 PUSH2 0x540A JUMP JUMPDEST PUSH1 0x40 MLOAD DUP1 SWAP2 SUB SWAP1 RETURN JUMPDEST CALLVALUE DUP1 ISZERO PUSH2 0xB86 JUMPI PUSH1 0x0 DUP1 REVERT JUMPDEST POP PUSH2 0xB8F PUSH2 0x27B9 JUMP JUMPDEST PUSH1 0x40 MLOAD PUSH2 0xB9C SWAP2 SWAP1 PUSH2 0x5138 JUMP JUMPDEST PUSH1 0x40 MLOAD DUP1 SWAP2 SUB SWAP1 RETURN JUMPDEST CALLVALUE DUP1 ISZERO PUSH2 0xBB1 JUMPI PUSH1 0x0 DUP1 REVERT JUMPDEST POP PUSH2 0xBCC PUSH1 0x4 DUP1 CALLDATASIZE SUB DUP2 ADD SWAP1 PUSH2 0xBC7 SWAP2 SWAP1 PUSH2 0x4D3C JUMP JUMPDEST PUSH2 0x27CC JUMP JUMPDEST PUSH1 0x40 MLOAD PUSH2 0xBD9 SWAP2 SWAP1 PUSH2 0x4CE1 JUMP JUMPDEST PUSH1 0x40 MLOAD DUP1 SWAP2 SUB SWAP1 RETURN JUMPDEST CALLVALUE DUP1 ISZERO PUSH2 0xBEE JUMPI PUSH1 0x0 DUP1 REVERT JUMPDEST POP PUSH2 0xC09 PUSH1 0x4 DUP1 CALLDATASIZE SUB DUP2 ADD SWAP1 PUSH2 0xC04 SWAP2 SWAP1 PUSH2 0x4C92 JUMP JUMPDEST PUSH2 0x27E4 JUMP JUMPDEST PUSH1 0x40 MLOAD PUSH2 0xC16 SWAP2 SWAP1 PUSH2 0x4CE1 JUMP JUMPDEST PUSH1 0x40 MLOAD DUP1 SWAP2 SUB SWAP1 RETURN JUMPDEST CALLVALUE DUP1 ISZERO PUSH2 0xC2B JUMPI PUSH1 0x0 DUP1 REVERT JUMPDEST POP PUSH2 0xC34 PUSH2 0x2809 JUMP JUMPDEST PUSH1 0x40 MLOAD PUSH2 0xC41 SWAP2 SWAP1 PUSH2 0x4CE1 JUMP JUMPDEST PUSH1 0x40 MLOAD DUP1 SWAP2 SUB SWAP1 RETURN JUMPDEST CALLVALUE DUP1 ISZERO PUSH2 0xC56 JUMPI PUSH1 0x0 DUP1 REVERT JUMPDEST POP PUSH2 0xC71 PUSH1 0x4 DUP1 CALLDATASIZE SUB DUP2 ADD SWAP1 PUSH2 0xC6C SWAP2 SWAP1 PUSH2 0x4D3C JUMP JUMPDEST PUSH2 0x280F JUMP JUMPDEST STOP JUMPDEST CALLVALUE DUP1 ISZERO PUSH2 0xC7F JUMPI PUSH1 0x0 DUP1 REVERT JUMPDEST POP PUSH2 0xC9A PUSH1 0x4 DUP1 CALLDATASIZE SUB DUP2 ADD SWAP1 PUSH2 0xC95 SWAP2 SWAP1 PUSH2 0x4D3C JUMP JUMPDEST PUSH2 0x285B JUMP JUMPDEST PUSH1 0x40 MLOAD PUSH2 0xCA7 SWAP2 SWAP1 PUSH2 0x4CE1 JUMP JUMPDEST PUSH1 0x40 MLOAD DUP1 SWAP2 SUB SWAP1 RETURN JUMPDEST CALLVALUE DUP1 ISZERO PUSH2 0xCBC JUMPI PUSH1 0x0 DUP1 REVERT JUMPDEST POP PUSH2 0xCD7 PUSH1 0x4 DUP1 CALLDATASIZE SUB DUP2 ADD SWAP1 PUSH2 0xCD2 SWAP2 SWAP1 PUSH2 0x4D3C JUMP JUMPDEST PUSH2 0x2873 JUMP JUMPDEST PUSH1 0x40 MLOAD PUSH2 0xCE4 SWAP2 SWAP1 PUSH2 0x4CE1 JUMP JUMPDEST PUSH1 0x40 MLOAD DUP1 SWAP2 SUB SWAP1 RETURN JUMPDEST CALLVALUE DUP1 ISZERO PUSH2 0xCF9 JUMPI PUSH1 0x0 DUP1 REVERT JUMPDEST POP PUSH2 0xD14 PUSH1 0x4 DUP1 CALLDATASIZE SUB DUP2 ADD SWAP1 PUSH2 0xD0F SWAP2 SWAP1 PUSH2 0x503F JUMP JUMPDEST PUSH2 0x288B JUMP JUMPDEST PUSH1 0x40 MLOAD PUSH2 0xD23 SWAP4 SWAP3 SWAP2 SWAP1 PUSH2 0x50EB JUMP JUMPDEST PUSH1 0x40 MLOAD DUP1 SWAP2 SUB SWAP1 RETURN JUMPDEST CALLVALUE DUP1 ISZERO PUSH2 0xD38 JUMPI PUSH1 0x0 DUP1 REVERT JUMPDEST POP PUSH2 0xD53 PUSH1 0x4 DUP1 CALLDATASIZE SUB DUP2 ADD SWAP1 PUSH2 0xD4E SWAP2 SWAP1 PUSH2 0x4D3C JUMP JUMPDEST PUSH2 0x294D JUMP JUMPDEST PUSH1 0x40 MLOAD PUSH2 0xD60 SWAP2 SWAP1 PUSH2 0x4CE1 JUMP JUMPDEST PUSH1 0x40 MLOAD DUP1 SWAP2 SUB SWAP1 RETURN JUMPDEST CALLVALUE DUP1 ISZERO PUSH2 0xD75 JUMPI PUSH1 0x0 DUP1 REVERT JUMPDEST POP PUSH2 0xD7E PUSH2 0x2965 JUMP JUMPDEST PUSH1 0x40 MLOAD PUSH2 0xD8B SWAP2 SWAP1 PUSH2 0x4E2D JUMP JUMPDEST PUSH1 0x40 MLOAD DUP1 SWAP2 SUB SWAP1 RETURN JUMPDEST CALLVALUE DUP1 ISZERO PUSH2 0xDA0 JUMPI PUSH1 0x0 DUP1 REVERT JUMPDEST POP PUSH2 0xDA9 PUSH2 0x298B JUMP JUMPDEST PUSH1 0x40 MLOAD PUSH2 0xDB6 SWAP2 SWAP1 PUSH2 0x4CE1 JUMP JUMPDEST PUSH1 0x40 MLOAD DUP1 SWAP2 SUB SWAP1 RETURN JUMPDEST CALLVALUE DUP1 ISZERO PUSH2 0xDCB JUMPI PUSH1 0x0 DUP1 REVERT JUMPDEST POP PUSH2 0xDE6 PUSH1 0x4 DUP1 CALLDATASIZE SUB DUP2 ADD SWAP1 PUSH2 0xDE1 SWAP2 SWAP1 PUSH2 0x4D3C JUMP JUMPDEST PUSH2 0x2991 JUMP JUMPDEST PUSH1 0x40 MLOAD PUSH2 0xDF3 SWAP2 SWAP1 PUSH2 0x4CE1 JUMP JUMPDEST PUSH1 0x40 MLOAD DUP1 SWAP2 SUB SWAP1 RETURN JUMPDEST CALLVALUE DUP1 ISZERO PUSH2 0xE08 JUMPI PUSH1 0x0 DUP1 REVERT JUMPDEST POP PUSH2 0xE23 PUSH1 0x4 DUP1 CALLDATASIZE SUB DUP2 ADD SWAP1 PUSH2 0xE1E SWAP2 SWAP1 PUSH2 0x5425 JUMP JUMPDEST PUSH2 0x29A9 JUMP JUMPDEST STOP JUMPDEST CALLVALUE DUP1 ISZERO PUSH2 0xE31 JUMPI PUSH1 0x0 DUP1 REVERT JUMPDEST POP PUSH2 0xE3A PUSH2 0x2ABE JUMP JUMPDEST PUSH1 0x40 MLOAD PUSH2 0xE47 SWAP2 SWAP1 PUSH2 0x4CE1 JUMP JUMPDEST PUSH1 0x40 MLOAD DUP1 SWAP2 SUB SWAP1 RETURN JUMPDEST CALLVALUE DUP1 ISZERO PUSH2 0xE5C JUMPI PUSH1 0x0 DUP1 REVERT JUMPDEST POP PUSH2 0xE77 PUSH1 0x4 DUP1 CALLDATASIZE SUB DUP2 ADD SWAP1 PUSH2 0xE72 SWAP2 SWAP1 PUSH2 0x4C92 JUMP JUMPDEST PUSH2 0x2AC4 JUMP JUMPDEST PUSH1 0x40 MLOAD PUSH2 0xE84 SWAP2 SWAP1 PUSH2 0x4CE1 JUMP JUMPDEST PUSH1 0x40 MLOAD DUP1 SWAP2 SUB SWAP1 RETURN JUMPDEST CALLVALUE DUP1 ISZERO PUSH2 0xE99 JUMPI PUSH1 0x0 DUP1 REVERT JUMPDEST POP PUSH2 0xEB4 PUSH1 0x4 DUP1 CALLDATASIZE SUB DUP2 ADD SWAP1 PUSH2 0xEAF SWAP2 SWAP1 PUSH2 0x4D3C JUMP JUMPDEST PUSH2 0x2AE9 JUMP JUMPDEST PUSH1 0x40 MLOAD PUSH2 0xEC1 SWAP2 SWAP1 PUSH2 0x4CE1 JUMP JUMPDEST PUSH1 0x40 MLOAD DUP1 SWAP2 SUB SWAP1 RETURN JUMPDEST CALLVALUE DUP1 ISZERO PUSH2 0xED6 JUMPI PUSH1 0x0 DUP1 REVERT JUMPDEST POP PUSH2 0xEDF PUSH2 0x2B01 JUMP JUMPDEST PUSH1 0x40 MLOAD PUSH2 0xEEC SWAP2 SWAP1 PUSH2 0x4CE1 JUMP JUMPDEST PUSH1 0x40 MLOAD DUP1 SWAP2 SUB SWAP1 RETURN JUMPDEST CALLVALUE DUP1 ISZERO PUSH2 0xF01 JUMPI PUSH1 0x0 DUP1 REVERT JUMPDEST POP PUSH2 0xF1C PUSH1 0x4 DUP1 CALLDATASIZE SUB DUP2 ADD SWAP1 PUSH2 0xF17 SWAP2 SWAP1 PUSH2 0x4C92 JUMP JUMPDEST PUSH2 0x2B07 JUMP JUMPDEST STOP JUMPDEST CALLVALUE DUP1 ISZERO PUSH2 0xF2A JUMPI PUSH1 0x0 DUP1 REVERT JUMPDEST POP PUSH2 0xF45 PUSH1 0x4 DUP1 CALLDATASIZE SUB DUP2 ADD SWAP1 PUSH2 0xF40 SWAP2 SWAP1 PUSH2 0x4D3C JUMP JUMPDEST PUSH2 0x2C26 JUMP JUMPDEST PUSH1 0x40 MLOAD PUSH2 0xF52 SWAP2 SWAP1 PUSH2 0x4CE1 JUMP JUMPDEST PUSH1 0x40 MLOAD DUP1 SWAP2 SUB SWAP1 RETURN JUMPDEST CALLVALUE DUP1 ISZERO PUSH2 0xF67 JUMPI PUSH1 0x0 DUP1 REVERT JUMPDEST POP PUSH2 0xF70 PUSH2 0x2C3E JUMP JUMPDEST PUSH1 0x40 MLOAD PUSH2 0xF7D SWAP2 SWAP1 PUSH2 0x4CE1 JUMP JUMPDEST PUSH1 0x40 MLOAD DUP1 SWAP2 SUB SWAP1 RETURN JUMPDEST CALLVALUE DUP1 ISZERO PUSH2 0xF92 JUMPI PUSH1 0x0 DUP1 REVERT JUMPDEST POP PUSH2 0xF9B PUSH2 0x2C44 JUMP JUMPDEST STOP JUMPDEST CALLVALUE DUP1 ISZERO PUSH2 0xFA9 JUMPI PUSH1 0x0 DUP1 REVERT JUMPDEST POP PUSH2 0xFC4 PUSH1 0x4 DUP1 CALLDATASIZE SUB DUP2 ADD SWAP1 PUSH2 0xFBF SWAP2 SWAP1 PUSH2 0x4D3C JUMP JUMPDEST PUSH2 0x2E07 JUMP JUMPDEST PUSH1 0x40 MLOAD PUSH2 0xFD1 SWAP2 SWAP1 PUSH2 0x5138 JUMP JUMPDEST PUSH1 0x40 MLOAD DUP1 SWAP2 SUB SWAP1 RETURN JUMPDEST CALLVALUE DUP1 ISZERO PUSH2 0xFE6 JUMPI PUSH1 0x0 DUP1 REVERT JUMPDEST POP PUSH2 0x1001 PUSH1 0x4 DUP1 CALLDATASIZE SUB DUP2 ADD SWAP1 PUSH2 0xFFC SWAP2 SWAP1 PUSH2 0x4DA1 JUMP JUMPDEST PUSH2 0x30B6 JUMP JUMPDEST STOP JUMPDEST CALLVALUE DUP1 ISZERO PUSH2 0x100F JUMPI PUSH1 0x0 DUP1 REVERT JUMPDEST POP PUSH2 0x102A PUSH1 0x4 DUP1 CALLDATASIZE SUB DUP2 ADD SWAP1 PUSH2 0x1025 SWAP2 SWAP1 PUSH2 0x4CFC JUMP JUMPDEST PUSH2 0x30DB JUMP JUMPDEST STOP JUMPDEST CALLVALUE DUP1 ISZERO PUSH2 0x1038 JUMPI PUSH1 0x0 DUP1 REVERT JUMPDEST POP PUSH2 0x1053 PUSH1 0x4 DUP1 CALLDATASIZE SUB DUP2 ADD SWAP1 PUSH2 0x104E SWAP2 SWAP1 PUSH2 0x4D3C JUMP JUMPDEST PUSH2 0x3434 JUMP JUMPDEST PUSH1 0x40 MLOAD PUSH2 0x1060 SWAP2 SWAP1 PUSH2 0x4CE1 JUMP JUMPDEST PUSH1 0x40 MLOAD DUP1 SWAP2 SUB SWAP1 RETURN JUMPDEST CALLVALUE DUP1 ISZERO PUSH2 0x1075 JUMPI PUSH1 0x0 DUP1 REVERT JUMPDEST POP PUSH2 0x1090 PUSH1 0x4 DUP1 CALLDATASIZE SUB DUP2 ADD SWAP1 PUSH2 0x108B SWAP2 SWAP1 PUSH2 0x4D3C JUMP JUMPDEST PUSH2 0x344C JUMP JUMPDEST PUSH1 0x40 MLOAD PUSH2 0x109D SWAP2 SWAP1 PUSH2 0x4CE1 JUMP JUMPDEST PUSH1 0x40 MLOAD DUP1 SWAP2 SUB SWAP1 RETURN JUMPDEST CALLVALUE DUP1 ISZERO PUSH2 0x10B2 JUMPI PUSH1 0x0 DUP1 REVERT JUMPDEST POP PUSH2 0x10CD PUSH1 0x4 DUP1 CALLDATASIZE SUB DUP2 ADD SWAP1 PUSH2 0x10C8 SWAP2 SWAP1 PUSH2 0x4CFC JUMP JUMPDEST PUSH2 0x3464 JUMP JUMPDEST STOP JUMPDEST CALLVALUE DUP1 ISZERO PUSH2 0x10DB JUMPI PUSH1 0x0 DUP1 REVERT JUMPDEST POP PUSH2 0x10F6 PUSH1 0x4 DUP1 CALLDATASIZE SUB DUP2 ADD SWAP1 PUSH2 0x10F1 SWAP2 SWAP1 PUSH2 0x4D3C JUMP JUMPDEST PUSH2 0x36FD JUMP JUMPDEST STOP JUMPDEST CALLVALUE DUP1 ISZERO PUSH2 0x1104 JUMPI PUSH1 0x0 DUP1 REVERT JUMPDEST POP PUSH2 0x111F PUSH1 0x4 DUP1 CALLDATASIZE SUB DUP2 ADD SWAP1 PUSH2 0x111A SWAP2 SWAP1 PUSH2 0x4CFC JUMP JUMPDEST PUSH2 0x3783 JUMP JUMPDEST STOP JUMPDEST CALLVALUE DUP1 ISZERO PUSH2 0x112D JUMPI PUSH1 0x0 DUP1 REVERT JUMPDEST POP PUSH2 0x1136 PUSH2 0x3ADE JUMP JUMPDEST PUSH1 0x40 MLOAD PUSH2 0x1143 SWAP2 SWAP1 PUSH2 0x5499 JUMP JUMPDEST PUSH1 0x40 MLOAD DUP1 SWAP2 SUB SWAP1 RETURN JUMPDEST CALLVALUE DUP1 ISZERO PUSH2 0x1158 JUMPI PUSH1 0x0 DUP1 REVERT JUMPDEST POP PUSH2 0x1161 PUSH2 0x3B04 JUMP JUMPDEST PUSH1 0x40 MLOAD PUSH2 0x116E SWAP2 SWAP1 PUSH2 0x4CE1 JUMP JUMPDEST PUSH1 0x40 MLOAD DUP1 SWAP2 SUB SWAP1 RETURN JUMPDEST CALLVALUE DUP1 ISZERO PUSH2 0x1183 JUMPI PUSH1 0x0 DUP1 REVERT JUMPDEST POP PUSH2 0x119E PUSH1 0x4 DUP1 CALLDATASIZE SUB DUP2 ADD SWAP1 PUSH2 0x1199 SWAP2 SWAP1 PUSH2 0x4D3C JUMP JUMPDEST PUSH2 0x3B0A JUMP JUMPDEST PUSH1 0x40 MLOAD PUSH2 0x11AB SWAP2 SWAP1 PUSH2 0x4CE1 JUMP JUMPDEST PUSH1 0x40 MLOAD DUP1 SWAP2 SUB SWAP1 RETURN JUMPDEST CALLVALUE DUP1 ISZERO PUSH2 0x11C0 JUMPI PUSH1 0x0 DUP1 REVERT JUMPDEST POP PUSH2 0x11DB PUSH1 0x4 DUP1 CALLDATASIZE SUB DUP2 ADD SWAP1 PUSH2 0x11D6 SWAP2 SWAP1 PUSH2 0x54B4 JUMP JUMPDEST PUSH2 0x3D95 JUMP JUMPDEST STOP JUMPDEST PUSH2 0x11E5 PUSH2 0x40EE JUMP JUMPDEST DUP1 PUSH1 0x1A PUSH1 0x0 DUP5 PUSH20 0xFFFFFFFFFFFFFFFFFFFFFFFFFFFFFFFFFFFFFFFF AND PUSH20 0xFFFFFFFFFFFFFFFFFFFFFFFFFFFFFFFFFFFFFFFF AND DUP2 MSTORE PUSH1 0x20 ADD SWAP1 DUP2 MSTORE PUSH1 0x20 ADD PUSH1 0x0 KECCAK256 PUSH1 0x0 DUP3 DUP3 SLOAD PUSH2 0x1234 SWAP2 SWAP1 PUSH2 0x5536 JUMP JUMPDEST SWAP3 POP POP DUP2 SWAP1 SSTORE POP DUP2 PUSH20 0xFFFFFFFFFFFFFFFFFFFFFFFFFFFFFFFFFFFFFFFF AND PUSH32 0x670624ED0A09E14166459D983969BAA4FA27E42FD398B8C3834BA764CB797A69 DUP3 PUSH1 0x40 MLOAD PUSH2 0x1281 SWAP2 SWAP1 PUSH2 0x4CE1 JUMP JUMPDEST PUSH1 0x40 MLOAD DUP1 SWAP2 SUB SWAP1 LOG2 POP POP JUMP JUMPDEST PUSH1 0x0 DUP1 PUSH1 0x0 SWAP1 POP PUSH1 0x0 JUMPDEST PUSH1 0x3 DUP1 SLOAD SWAP1 POP DUP2 LT ISZERO PUSH2 0x1304 JUMPI PUSH1 0x3 DUP2 DUP2 SLOAD DUP2 LT PUSH2 0x12B8 JUMPI PUSH2 0x12B7 PUSH2 0x556A JUMP JUMPDEST JUMPDEST SWAP1 PUSH1 0x0 MSTORE PUSH1 0x20 PUSH1 0x0 KECCAK256 SWAP1 PUSH1 0x2 MUL ADD PUSH1 0x0 ADD SLOAD DUP3 PUSH2 0x12D5 SWAP2 SWAP1 PUSH2 0x5536 JUMP JUMPDEST SWAP2 POP DUP2 PUSH1 0x5 SLOAD LT ISZERO PUSH2 0x12F7 JUMPI PUSH1 0x1 DUP2 PUSH2 0x12EE SWAP2 SWAP1 PUSH2 0x5536 JUMP JUMPDEST SWAP3 POP POP POP PUSH2 0x1326 JUMP JUMPDEST DUP1 DUP1 PUSH1 0x1 ADD SWAP2 POP POP PUSH2 0x1297 JUMP JUMPDEST POP PUSH1 0x1 DUP1 PUSH1 0x3 DUP1 SLOAD SWAP1 POP PUSH2 0x1318 SWAP2 SWAP1 PUSH2 0x5599 JUMP JUMPDEST PUSH2 0x1322 SWAP2 SWAP1 PUSH2 0x5536 JUMP JUMPDEST SWAP2 POP POP JUMPDEST SWAP1 JUMP JUMPDEST PUSH1 0x0 PUSH1 0xB DUP4 DUP2 SLOAD DUP2 LT PUSH2 0x133F JUMPI PUSH2 0x133E PUSH2 0x556A JUMP JUMPDEST JUMPDEST SWAP1 PUSH1 0x0 MSTORE PUSH1 0x20 PUSH1 0x0 KECCAK256 SWAP1 PUSH1 0x3 MUL ADD PUSH1 0x1 ADD SLOAD GT PUSH2 0x135B JUMPI PUSH1 0x0 DUP1 REVERT JUMPDEST DUP1 PUSH1 0xC PUSH1 0x0 CALLER PUSH20 0xFFFFFFFFFFFFFFFFFFFFFFFFFFFFFFFFFFFFFFFF AND PUSH20 0xFFFFFFFFFFFFFFFFFFFFFFFFFFFFFFFFFFFFFFFF AND DUP2 MSTORE PUSH1 0x20 ADD SWAP1 DUP2 MSTORE PUSH1 0x20 ADD PUSH1 0x0 KECCAK256 PUSH1 0x0 DUP5 DUP2 MSTORE PUSH1 0x20 ADD SWAP1 DUP2 MSTORE PUSH1 0x20 ADD PUSH1 0x0 KECCAK256 SLOAD LT ISZERO PUSH2 0x13EE JUMPI PUSH1 0x40 MLOAD PUSH32 0x8C379A000000000000000000000000000000000000000000000000000000000 DUP2 MSTORE PUSH1 0x4 ADD PUSH2 0x13E5 SWAP1 PUSH2 0x5619 JUMP JUMPDEST PUSH1 0x40 MLOAD DUP1 SWAP2 SUB SWAP1 REVERT JUMPDEST PUSH1 0x0 DUP2 GT PUSH2 0x13FB JUMPI PUSH1 0x0 DUP1 REVERT JUMPDEST PUSH2 0x1404 CALLER PUSH2 0x4175 JUMP JUMPDEST PUSH1 0x0 DUP2 PUSH1 0xB DUP5 DUP2 SLOAD DUP2 LT PUSH2 0x141B JUMPI PUSH2 0x141A PUSH2 0x556A JUMP JUMPDEST JUMPDEST SWAP1 PUSH1 0x0 MSTORE PUSH1 0x20 PUSH1 0x0 KECCAK256 SWAP1 PUSH1 0x3 MUL ADD PUSH1 0x1 ADD SLOAD PUSH2 0x1437 SWAP2 SWAP1 PUSH2 0x5639 JUMP JUMPDEST SWAP1 POP PUSH1 0x0 DUP3 PUSH1 0xB DUP6 DUP2 SLOAD DUP2 LT PUSH2 0x1450 JUMPI PUSH2 0x144F PUSH2 0x556A JUMP JUMPDEST JUMPDEST SWAP1 PUSH1 0x0 MSTORE PUSH1 0x20 PUSH1 0x0 KECCAK256 SWAP1 PUSH1 0x3 MUL ADD PUSH1 0x2 ADD SLOAD PUSH2 0x146C SWAP2 SWAP1 PUSH2 0x5639 JUMP JUMPDEST SWAP1 POP PUSH1 0x0 PUSH1 0x11 SLOAD DUP3 PUSH1 0x10 SLOAD PUSH2 0x1481 SWAP2 SWAP1 PUSH2 0x5639 JUMP JUMPDEST PUSH2 0x148B SWAP2 SWAP1 PUSH2 0x56AA JUMP JUMPDEST SWAP1 POP DUP2 PUSH1 0x11 PUSH1 0x0 DUP3 DUP3 SLOAD PUSH2 0x149F SWAP2 SWAP1 PUSH2 0x5599 JUMP JUMPDEST SWAP3 POP POP DUP2 SWAP1 SSTORE POP DUP1 PUSH1 0x10 PUSH1 0x0 DUP3 DUP3 SLOAD PUSH2 0x14B8 SWAP2 SWAP1 PUSH2 0x5599 JUMP JUMPDEST SWAP3 POP POP DUP2 SWAP1 SSTORE POP DUP3 PUSH1 0xE PUSH1 0x0 DUP3 DUP3 SLOAD PUSH2 0x14D1 SWAP2 SWAP1 PUSH2 0x5599 JUMP JUMPDEST SWAP3 POP POP DUP2 SWAP1 SSTORE POP PUSH2 0x14E2 CALLER DUP3 PUSH2 0x418A JUMP JUMPDEST DUP4 PUSH1 0xC PUSH1 0x0 CALLER PUSH20 0xFFFFFFFFFFFFFFFFFFFFFFFFFFFFFFFFFFFFFFFF AND PUSH20 0xFFFFFFFFFFFFFFFFFFFFFFFFFFFFFFFFFFFFFFFF AND DUP2 MSTORE PUSH1 0x20 ADD SWAP1 DUP2 MSTORE PUSH1 0x20 ADD PUSH1 0x0 KECCAK256 PUSH1 0x0 DUP8 DUP2 MSTORE PUSH1 0x20 ADD SWAP1 DUP2 MSTORE PUSH1 0x20 ADD PUSH1 0x0 KECCAK256 PUSH1 0x0 DUP3 DUP3 SLOAD PUSH2 0x1542 SWAP2 SWAP1 PUSH2 0x5599 JUMP JUMPDEST SWAP3 POP POP DUP2 SWAP1 SSTORE POP DUP3 PUSH1 0x13 PUSH1 0x0 CALLER PUSH20 0xFFFFFFFFFFFFFFFFFFFFFFFFFFFFFFFFFFFFFFFF AND PUSH20 0xFFFFFFFFFFFFFFFFFFFFFFFFFFFFFFFFFFFFFFFF AND DUP2 MSTORE PUSH1 0x20 ADD SWAP1 DUP2 MSTORE PUSH1 0x20 ADD PUSH1 0x0 KECCAK256 PUSH1 0x0 DUP3 DUP3 SLOAD PUSH2 0x1598 SWAP2 SWAP1 PUSH2 0x5599 JUMP JUMPDEST SWAP3 POP POP DUP2 SWAP1 SSTORE POP CALLER PUSH20 0xFFFFFFFFFFFFFFFFFFFFFFFFFFFFFFFFFFFFFFFF AND PUSH32 0xD61E3FFE1439B0A822F5396CC4D56A3E6729BB2BBBEAFC1031D55A509A3487F6 PUSH1 0x1 PUSH1 0x0 DUP9 DUP9 PUSH1 0x40 MLOAD PUSH2 0x15ED SWAP5 SWAP4 SWAP3 SWAP2 SWAP1 PUSH2 0x56DB JUMP JUMPDEST PUSH1 0x40 MLOAD DUP1 SWAP2 SUB SWAP1 LOG2 POP POP POP POP POP JUMP JUMPDEST PUSH1 0x11 SLOAD DUP2 JUMP JUMPDEST PUSH1 0x4 SLOAD DUP2 JUMP JUMPDEST PUSH1 0x0 PUSH1 0x1A PUSH1 0x0 DUP4 PUSH20 0xFFFFFFFFFFFFFFFFFFFFFFFFFFFFFFFFFFFFFFFF AND PUSH20 0xFFFFFFFFFFFFFFFFFFFFFFFFFFFFFFFFFFFFFFFF AND DUP2 MSTORE PUSH1 0x20 ADD SWAP1 DUP2 MSTORE PUSH1 0x20 ADD PUSH1 0x0 KECCAK256 SLOAD PUSH2 0x1653 DUP4 PUSH2 0x434E JUMP JUMPDEST PUSH2 0x165D SWAP2 SWAP1 PUSH2 0x5536 JUMP JUMPDEST SWAP1 POP SWAP2 SWAP1 POP JUMP JUMPDEST PUSH2 0x166C PUSH2 0x40EE JUMP JUMPDEST PUSH1 0x0 PUSH1 0x1E PUSH1 0x0 DUP4 PUSH20 0xFFFFFFFFFFFFFFFFFFFFFFFFFFFFFFFFFFFFFFFF AND PUSH20 0xFFFFFFFFFFFFFFFFFFFFFFFFFFFFFFFFFFFFFFFF AND DUP2 MSTORE PUSH1 0x20 ADD SWAP1 DUP2 MSTORE PUSH1 0x20 ADD PUSH1 0x0 KECCAK256 DUP2 SWAP1 SSTORE POP PUSH1 0x0 PUSH1 0x1D PUSH1 0x0 DUP4 PUSH20 0xFFFFFFFFFFFFFFFFFFFFFFFFFFFFFFFFFFFFFFFF AND PUSH20 0xFFFFFFFFFFFFFFFFFFFFFFFFFFFFFFFFFFFFFFFF AND DUP2 MSTORE PUSH1 0x20 ADD SWAP1 DUP2 MSTORE PUSH1 0x20 ADD PUSH1 0x0 KECCAK256 DUP2 SWAP1 SSTORE POP TIMESTAMP PUSH1 0x1C PUSH1 0x0 DUP4 PUSH20 0xFFFFFFFFFFFFFFFFFFFFFFFFFFFFFFFFFFFFFFFF AND PUSH20 0xFFFFFFFFFFFFFFFFFFFFFFFFFFFFFFFFFFFFFFFF AND DUP2 MSTORE PUSH1 0x20 ADD SWAP1 DUP2 MSTORE PUSH1 0x20 ADD PUSH1 0x0 KECCAK256 DUP2 SWAP1 SSTORE POP POP JUMP JUMPDEST PUSH2 0x1745 PUSH2 0x40EE JUMP JUMPDEST DUP1 PUSH1 0x6 PUSH1 0x0 PUSH2 0x100 EXP DUP2 SLOAD DUP2 PUSH1 0xFF MUL NOT AND SWAP1 DUP4 ISZERO ISZERO MUL OR SWAP1 SSTORE POP POP JUMP JUMPDEST PUSH1 0x0 PUSH1 0x23 PUSH1 0x0 CALLER PUSH20 0xFFFFFFFFFFFFFFFFFFFFFFFFFFFFFFFFFFFFFFFF AND PUSH20 0xFFFFFFFFFFFFFFFFFFFFFFFFFFFFFFFFFFFFFFFF AND DUP2 MSTORE PUSH1 0x20 ADD SWAP1 DUP2 MSTORE PUSH1 0x20 ADD PUSH1 0x0 KECCAK256 SLOAD GT PUSH2 0x17E4 JUMPI PUSH1 0x40 MLOAD PUSH32 0x8C379A000000000000000000000000000000000000000000000000000000000 DUP2 MSTORE PUSH1 0x4 ADD PUSH2 0x17DB SWAP1 PUSH2 0x576C JUMP JUMPDEST PUSH1 0x40 MLOAD DUP1 SWAP2 SUB SWAP1 REVERT JUMPDEST PUSH1 0x0 PUSH1 0x23 PUSH1 0x0 CALLER PUSH20 0xFFFFFFFFFFFFFFFFFFFFFFFFFFFFFFFFFFFFFFFF AND PUSH20 0xFFFFFFFFFFFFFFFFFFFFFFFFFFFFFFFFFFFFFFFF AND DUP2 MSTORE PUSH1 0x20 ADD SWAP1 DUP2 MSTORE PUSH1 0x20 ADD PUSH1 0x0 KECCAK256 SLOAD SWAP1 POP PUSH1 0x0 PUSH1 0x23 PUSH1 0x0 CALLER PUSH20 0xFFFFFFFFFFFFFFFFFFFFFFFFFFFFFFFFFFFFFFFF AND PUSH20 0xFFFFFFFFFFFFFFFFFFFFFFFFFFFFFFFFFFFFFFFF AND DUP2 MSTORE PUSH1 0x20 ADD SWAP1 DUP2 MSTORE PUSH1 0x20 ADD PUSH1 0x0 KECCAK256 DUP2 SWAP1 SSTORE POP DUP1 PUSH1 0x25 PUSH1 0x0 CALLER PUSH20 0xFFFFFFFFFFFFFFFFFFFFFFFFFFFFFFFFFFFFFFFF AND PUSH20 0xFFFFFFFFFFFFFFFFFFFFFFFFFFFFFFFFFFFFFFFF AND DUP2 MSTORE PUSH1 0x20 ADD SWAP1 DUP2 MSTORE PUSH1 0x20 ADD PUSH1 0x0 KECCAK256 PUSH1 0x0 DUP3 DUP3 SLOAD PUSH2 0x18BC SWAP2 SWAP1 PUSH2 0x5536 JUMP JUMPDEST SWAP3 POP POP DUP2 SWAP1 SSTORE POP PUSH2 0x18CD CALLER DUP3 PUSH2 0x418A JUMP JUMPDEST PUSH1 0x0 PUSH1 0x24 PUSH1 0x0 CALLER PUSH20 0xFFFFFFFFFFFFFFFFFFFFFFFFFFFFFFFFFFFFFFFF AND PUSH20 0xFFFFFFFFFFFFFFFFFFFFFFFFFFFFFFFFFFFFFFFF AND DUP2 MSTORE PUSH1 0x20 ADD SWAP1 DUP2 MSTORE PUSH1 0x20 ADD PUSH1 0x0 KECCAK256 SLOAD SWAP1 POP PUSH1 0x0 PUSH1 0x24 PUSH1 0x0 CALLER PUSH20 0xFFFFFFFFFFFFFFFFFFFFFFFFFFFFFFFFFFFFFFFF AND PUSH20 0xFFFFFFFFFFFFFFFFFFFFFFFFFFFFFFFFFFFFFFFF AND DUP2 MSTORE PUSH1 0x20 ADD SWAP1 DUP2 MSTORE PUSH1 0x20 ADD PUSH1 0x0 KECCAK256 DUP2 SWAP1 SSTORE POP DUP1 PUSH1 0x26 PUSH1 0x0 CALLER PUSH20 0xFFFFFFFFFFFFFFFFFFFFFFFFFFFFFFFFFFFFFFFF AND PUSH20 0xFFFFFFFFFFFFFFFFFFFFFFFFFFFFFFFFFFFFFFFF AND DUP2 MSTORE PUSH1 0x20 ADD SWAP1 DUP2 MSTORE PUSH1 0x20 ADD PUSH1 0x0 KECCAK256 PUSH1 0x0 DUP3 DUP3 SLOAD PUSH2 0x19A5 SWAP2 SWAP1 PUSH2 0x5536 JUMP JUMPDEST SWAP3 POP POP DUP2 SWAP1 SSTORE POP CALLER PUSH20 0xFFFFFFFFFFFFFFFFFFFFFFFFFFFFFFFFFFFFFFFF AND PUSH2 0x8FC DUP3 SWAP1 DUP2 ISZERO MUL SWAP1 PUSH1 0x40 MLOAD PUSH1 0x0 PUSH1 0x40 MLOAD DUP1 DUP4 SUB DUP2 DUP6 DUP9 DUP9 CALL SWAP4 POP POP POP POP ISZERO DUP1 ISZERO PUSH2 0x19F2 JUMPI RETURNDATASIZE PUSH1 0x0 DUP1 RETURNDATACOPY RETURNDATASIZE PUSH1 0x0 REVERT JUMPDEST POP CALLER PUSH20 0xFFFFFFFFFFFFFFFFFFFFFFFFFFFFFFFFFFFFFFFF AND PUSH32 0x454211B099B54298804B6B35092D2A4BCBF8E5EA525A50B79B542BA2D4BC6A24 DUP3 DUP5 PUSH1 0x40 MLOAD PUSH2 0x1A3B SWAP3 SWAP2 SWAP1 PUSH2 0x5153 JUMP JUMPDEST PUSH1 0x40 MLOAD DUP1 SWAP2 SUB SWAP1 LOG2 POP POP JUMP JUMPDEST PUSH1 0x28 PUSH1 0x0 SWAP1 SLOAD SWAP1 PUSH2 0x100 EXP SWAP1 DIV PUSH20 0xFFFFFFFFFFFFFFFFFFFFFFFFFFFFFFFFFFFFFFFF AND DUP2 JUMP JUMPDEST PUSH1 0x10 SLOAD DUP2 JUMP JUMPDEST PUSH2 0x1A7B PUSH2 0x40EE JUMP JUMPDEST PUSH1 0x3 PUSH1 0x0 PUSH2 0x1A89 SWAP2 SWAP1 PUSH2 0x4B9F JUMP JUMPDEST PUSH1 0x0 JUMPDEST DUP2 MLOAD DUP2 LT ISZERO PUSH2 0x1B34 JUMPI PUSH1 0x3 PUSH1 0x40 MLOAD DUP1 PUSH1 0x40 ADD PUSH1 0x40 MSTORE DUP1 DUP5 DUP5 DUP2 MLOAD DUP2 LT PUSH2 0x1AB5 JUMPI PUSH2 0x1AB4 PUSH2 0x556A JUMP JUMPDEST JUMPDEST PUSH1 0x20 MUL PUSH1 0x20 ADD ADD MLOAD PUSH1 0x0 ADD MLOAD DUP2 MSTORE PUSH1 0x20 ADD DUP5 DUP5 DUP2 MLOAD DUP2 LT PUSH2 0x1AD9 JUMPI PUSH2 0x1AD8 PUSH2 0x556A JUMP JUMPDEST JUMPDEST PUSH1 0x20 MUL PUSH1 0x20 ADD ADD MLOAD PUSH1 0x20 ADD MLOAD DUP2 MSTORE POP SWAP1 DUP1 PUSH1 0x1 DUP2 SLOAD ADD DUP1 DUP3 SSTORE DUP1 SWAP2 POP POP PUSH1 0x1 SWAP1 SUB SWAP1 PUSH1 0x0 MSTORE PUSH1 0x20 PUSH1 0x0 KECCAK256 SWAP1 PUSH1 0x2 MUL ADD PUSH1 0x0 SWAP1 SWAP2 SWAP1 SWAP2 SWAP1 SWAP2 POP PUSH1 0x0 DUP3 ADD MLOAD DUP2 PUSH1 0x0 ADD SSTORE PUSH1 0x20 DUP3 ADD MLOAD DUP2 PUSH1 0x1 ADD SSTORE POP POP DUP1 DUP1 PUSH1 0x1 ADD SWAP2 POP POP PUSH2 0x1A8C JUMP JUMPDEST POP POP JUMP JUMPDEST PUSH1 0x13 PUSH1 0x20 MSTORE DUP1 PUSH1 0x0 MSTORE PUSH1 0x40 PUSH1 0x0 KECCAK256 PUSH1 0x0 SWAP2 POP SWAP1 POP SLOAD DUP2 JUMP JUMPDEST PUSH2 0x1B58 PUSH2 0x40EE JUMP JUMPDEST DUP1 PUSH1 0x28 PUSH1 0x0 PUSH2 0x100 EXP DUP2 SLOAD DUP2 PUSH20 0xFFFFFFFFFFFFFFFFFFFFFFFFFFFFFFFFFFFFFFFF MUL NOT AND SWAP1 DUP4 PUSH20 0xFFFFFFFFFFFFFFFFFFFFFFFFFFFFFFFFFFFFFFFF AND MUL OR SWAP1 SSTORE POP POP JUMP JUMPDEST PUSH1 0xD SLOAD DUP2 JUMP JUMPDEST PUSH1 0xB DUP2 DUP2 SLOAD DUP2 LT PUSH2 0x1BB2 JUMPI PUSH1 0x0 DUP1 REVERT JUMPDEST SWAP1 PUSH1 0x0 MSTORE PUSH1 0x20 PUSH1 0x0 KECCAK256 SWAP1 PUSH1 0x3 MUL ADD PUSH1 0x0 SWAP2 POP SWAP1 POP DUP1 PUSH1 0x0 ADD DUP1 SLOAD PUSH2 0x1BD5 SWAP1 PUSH2 0x57BB JUMP JUMPDEST DUP1 PUSH1 0x1F ADD PUSH1 0x20 DUP1 SWAP2 DIV MUL PUSH1 0x20 ADD PUSH1 0x40 MLOAD SWAP1 DUP2 ADD PUSH1 0x40 MSTORE DUP1 SWAP3 SWAP2 SWAP1 DUP2 DUP2 MSTORE PUSH1 0x20 ADD DUP3 DUP1 SLOAD PUSH2 0x1C01 SWAP1 PUSH2 0x57BB JUMP JUMPDEST DUP1 ISZERO PUSH2 0x1C4E JUMPI DUP1 PUSH1 0x1F LT PUSH2 0x1C23 JUMPI PUSH2 0x100 DUP1 DUP4 SLOAD DIV MUL DUP4 MSTORE SWAP2 PUSH1 0x20 ADD SWAP2 PUSH2 0x1C4E JUMP JUMPDEST DUP3 ADD SWAP2 SWAP1 PUSH1 0x0 MSTORE PUSH1 0x20 PUSH1 0x0 KECCAK256 SWAP1 JUMPDEST DUP2 SLOAD DUP2 MSTORE SWAP1 PUSH1 0x1 ADD SWAP1 PUSH1 0x20 ADD DUP1 DUP4 GT PUSH2 0x1C31 JUMPI DUP3 SWAP1 SUB PUSH1 0x1F AND DUP3 ADD SWAP2 JUMPDEST POP POP POP POP POP SWAP1 DUP1 PUSH1 0x1 ADD SLOAD SWAP1 DUP1 PUSH1 0x2 ADD SLOAD SWAP1 POP DUP4 JUMP JUMPDEST PUSH1 0x23 PUSH1 0x20 MSTORE DUP1 PUSH1 0x0 MSTORE PUSH1 0x40 PUSH1 0x0 KECCAK256 PUSH1 0x0 SWAP2 POP SWAP1 POP SLOAD DUP2 JUMP JUMPDEST PUSH1 0x8 PUSH1 0x20 MSTORE DUP1 PUSH1 0x0 MSTORE PUSH1 0x40 PUSH1 0x0 KECCAK256 PUSH1 0x0 SWAP2 POP SWAP1 POP SLOAD DUP2 JUMP JUMPDEST PUSH2 0x1C9C PUSH2 0x40EE JUMP JUMPDEST DUP1 PUSH1 0x5 DUP2 SWAP1 SSTORE POP POP JUMP JUMPDEST PUSH1 0x14 SLOAD DUP2 JUMP JUMPDEST PUSH1 0x1A PUSH1 0x20 MSTORE DUP1 PUSH1 0x0 MSTORE PUSH1 0x40 PUSH1 0x0 KECCAK256 PUSH1 0x0 SWAP2 POP SWAP1 POP SLOAD DUP2 JUMP JUMPDEST PUSH1 0x1C PUSH1 0x20 MSTORE DUP1 PUSH1 0x0 MSTORE PUSH1 0x40 PUSH1 0x0 KECCAK256 PUSH1 0x0 SWAP2 POP SWAP1 POP SLOAD DUP2 JUMP JUMPDEST PUSH1 0x1D PUSH1 0x20 MSTORE DUP1 PUSH1 0x0 MSTORE PUSH1 0x40 PUSH1 0x0 KECCAK256 PUSH1 0x0 SWAP2 POP SWAP1 POP SLOAD DUP2 JUMP JUMPDEST PUSH1 0x27 PUSH1 0x0 SWAP1 SLOAD SWAP1 PUSH2 0x100 EXP SWAP1 DIV PUSH1 0xFF AND DUP2 JUMP JUMPDEST PUSH1 0xF SLOAD DUP2 JUMP JUMPDEST PUSH1 0x1F PUSH1 0x20 MSTORE DUP1 PUSH1 0x0 MSTORE PUSH1 0x40 PUSH1 0x0 KECCAK256 PUSH1 0x0 SWAP2 POP SWAP1 POP SLOAD DUP2 JUMP JUMPDEST PUSH2 0x1D2D PUSH2 0x40EE JUMP JUMPDEST DUP1 PUSH1 0x27 PUSH1 0x1 PUSH2 0x100 EXP DUP2 SLOAD DUP2 PUSH20 0xFFFFFFFFFFFFFFFFFFFFFFFFFFFFFFFFFFFFFFFF MUL NOT AND SWAP1 DUP4 PUSH20 0xFFFFFFFFFFFFFFFFFFFFFFFFFFFFFFFFFFFFFFFF AND MUL OR SWAP1 SSTORE POP POP JUMP JUMPDEST PUSH1 0x1 PUSH1 0x0 SWAP1 SLOAD SWAP1 PUSH2 0x100 EXP SWAP1 DIV PUSH20 0xFFFFFFFFFFFFFFFFFFFFFFFFFFFFFFFFFFFFFFFF AND DUP2 JUMP JUMPDEST PUSH2 0x1D9F PUSH2 0x40EE JUMP JUMPDEST PUSH2 0x1DA7 PUSH2 0x2790 JUMP JUMPDEST PUSH20 0xFFFFFFFFFFFFFFFFFFFFFFFFFFFFFFFFFFFFFFFF AND PUSH2 0x8FC SELFBALANCE SWAP1 DUP2 ISZERO MUL SWAP1 PUSH1 0x40 MLOAD PUSH1 0x0 PUSH1 0x40 MLOAD DUP1 DUP4 SUB DUP2 DUP6 DUP9 DUP9 CALL SWAP4 POP POP POP POP ISZERO DUP1 ISZERO PUSH2 0x1DEC JUMPI RETURNDATASIZE PUSH1 0x0 DUP1 RETURNDATACOPY RETURNDATASIZE PUSH1 0x0 REVERT JUMPDEST POP JUMP JUMPDEST PUSH1 0x16 SLOAD DUP2 JUMP JUMPDEST PUSH1 0x12 PUSH1 0x20 MSTORE DUP1 PUSH1 0x0 MSTORE PUSH1 0x40 PUSH1 0x0 KECCAK256 PUSH1 0x0 SWAP2 POP SWAP1 POP SLOAD DUP2 JUMP JUMPDEST PUSH2 0x1E15 PUSH2 0x40EE JUMP JUMPDEST PUSH2 0x1E1F PUSH1 0x0 PUSH2 0x44AD JUMP JUMPDEST JUMP JUMPDEST PUSH1 0x3 DUP2 DUP2 SLOAD DUP2 LT PUSH2 0x1E31 JUMPI PUSH1 0x0 DUP1 REVERT JUMPDEST SWAP1 PUSH1 0x0 MSTORE PUSH1 0x20 PUSH1 0x0 KECCAK256 SWAP1 PUSH1 0x2 MUL ADD PUSH1 0x0 SWAP2 POP SWAP1 POP DUP1 PUSH1 0x0 ADD SLOAD SWAP1 DUP1 PUSH1 0x1 ADD SLOAD SWAP1 POP DUP3 JUMP JUMPDEST PUSH2 0x1E5D PUSH2 0x40EE JUMP JUMPDEST DUP1 ISZERO PUSH2 0x1EBC JUMPI DUP3 PUSH1 0xB DUP6 DUP2 SLOAD DUP2 LT PUSH2 0x1E78 JUMPI PUSH2 0x1E77 PUSH2 0x556A JUMP JUMPDEST JUMPDEST SWAP1 PUSH1 0x0 MSTORE PUSH1 0x20 PUSH1 0x0 KECCAK256 SWAP1 PUSH1 0x3 MUL ADD PUSH1 0x1 ADD DUP2 SWAP1 SSTORE POP DUP2 PUSH1 0xB DUP6 DUP2 SLOAD DUP2 LT PUSH2 0x1EA2 JUMPI PUSH2 0x1EA1 PUSH2 0x556A JUMP JUMPDEST JUMPDEST SWAP1 PUSH1 0x0 MSTORE PUSH1 0x20 PUSH1 0x0 KECCAK256 SWAP1 PUSH1 0x3 MUL ADD PUSH1 0x2 ADD DUP2 SWAP1 SSTORE POP PUSH2 0x1F11 JUMP JUMPDEST DUP3 PUSH1 0x9 DUP6 DUP2 SLOAD DUP2 LT PUSH2 0x1ED1 JUMPI PUSH2 0x1ED0 PUSH2 0x556A JUMP JUMPDEST JUMPDEST SWAP1 PUSH1 0x0 MSTORE PUSH1 0x20 PUSH1 0x0 KECCAK256 SWAP1 PUSH1 0x3 MUL ADD PUSH1 0x1 ADD DUP2 SWAP1 SSTORE POP DUP2 PUSH1 0x9 DUP6 DUP2 SLOAD DUP2 LT PUSH2 0x1EFB JUMPI PUSH2 0x1EFA PUSH2 0x556A JUMP JUMPDEST JUMPDEST SWAP1 PUSH1 0x0 MSTORE PUSH1 0x20 PUSH1 0x0 KECCAK256 SWAP1 PUSH1 0x3 MUL ADD PUSH1 0x2 ADD DUP2 SWAP1 SSTORE POP JUMPDEST POP POP POP POP JUMP JUMPDEST PUSH1 0x0 CALLVALUE GT PUSH2 0x1F5A JUMPI PUSH1 0x40 MLOAD PUSH32 0x8C379A000000000000000000000000000000000000000000000000000000000 DUP2 MSTORE PUSH1 0x4 ADD PUSH2 0x1F51 SWAP1 PUSH2 0x5838 JUMP JUMPDEST PUSH1 0x40 MLOAD DUP1 SWAP2 SUB SWAP1 REVERT JUMPDEST PUSH1 0x6 PUSH1 0x0 SWAP1 SLOAD SWAP1 PUSH2 0x100 EXP SWAP1 DIV PUSH1 0xFF AND ISZERO DUP1 PUSH2 0x200E JUMPI POP PUSH1 0x28 PUSH1 0x0 SWAP1 SLOAD SWAP1 PUSH2 0x100 EXP SWAP1 DIV PUSH20 0xFFFFFFFFFFFFFFFFFFFFFFFFFFFFFFFFFFFFFFFF AND PUSH20 0xFFFFFFFFFFFFFFFFFFFFFFFFFFFFFFFFFFFFFFFF AND PUSH4 0x3AF32ABF CALLER PUSH1 0x40 MLOAD DUP3 PUSH4 0xFFFFFFFF AND PUSH1 0xE0 SHL DUP2 MSTORE PUSH1 0x4 ADD PUSH2 0x1FCC SWAP2 SWAP1 PUSH2 0x540A JUMP JUMPDEST PUSH1 0x20 PUSH1 0x40 MLOAD DUP1 DUP4 SUB DUP2 DUP7 GAS STATICCALL ISZERO DUP1 ISZERO PUSH2 0x1FE9 JUMPI RETURNDATASIZE PUSH1 0x0 DUP1 RETURNDATACOPY RETURNDATASIZE PUSH1 0x0 REVERT JUMPDEST POP POP POP POP PUSH1 0x40 MLOAD RETURNDATASIZE PUSH1 0x1F NOT PUSH1 0x1F DUP3 ADD AND DUP3 ADD DUP1 PUSH1 0x40 MSTORE POP DUP2 ADD SWAP1 PUSH2 0x200D SWAP2 SWAP1 PUSH2 0x586D JUMP JUMPDEST JUMPDEST PUSH2 0x204D JUMPI PUSH1 0x40 MLOAD PUSH32 0x8C379A000000000000000000000000000000000000000000000000000000000 DUP2 MSTORE PUSH1 0x4 ADD PUSH2 0x2044 SWAP1 PUSH2 0x58E6 JUMP JUMPDEST PUSH1 0x40 MLOAD DUP1 SWAP2 SUB SWAP1 REVERT JUMPDEST PUSH1 0x4 SLOAD TIMESTAMP GT PUSH2 0x2091 JUMPI PUSH1 0x40 MLOAD PUSH32 0x8C379A000000000000000000000000000000000000000000000000000000000 DUP2 MSTORE PUSH1 0x4 ADD PUSH2 0x2088 SWAP1 PUSH2 0x5952 JUMP JUMPDEST PUSH1 0x40 MLOAD DUP1 SWAP2 SUB SWAP1 REVERT JUMPDEST PUSH1 0x0 PUSH2 0x209C CALLVALUE PUSH2 0x4571 JUMP JUMPDEST SWAP1 POP PUSH1 0x0 DUP2 GT PUSH2 0x20E1 JUMPI PUSH1 0x40 MLOAD PUSH32 0x8C379A000000000000000000000000000000000000000000000000000000000 DUP2 MSTORE PUSH1 0x4 ADD PUSH2 0x20D8 SWAP1 PUSH2 0x59BE JUMP JUMPDEST PUSH1 0x40 MLOAD DUP1 SWAP2 SUB SWAP1 REVERT JUMPDEST PUSH1 0x0 PUSH20 0xFFFFFFFFFFFFFFFFFFFFFFFFFFFFFFFFFFFFFFFF AND DUP3 PUSH20 0xFFFFFFFFFFFFFFFFFFFFFFFFFFFFFFFFFFFFFFFF AND SUB PUSH2 0x2119 JUMPI CALLER SWAP2 POP JUMPDEST PUSH1 0x0 PUSH2 0x2124 DUP4 PUSH2 0x2E07 JUMP JUMPDEST SWAP1 POP DUP2 PUSH1 0x5 PUSH1 0x0 DUP3 DUP3 SLOAD PUSH2 0x2138 SWAP2 SWAP1 PUSH2 0x5536 JUMP JUMPDEST SWAP3 POP POP DUP2 SWAP1 SSTORE POP PUSH1 0x0 PUSH1 0x2 CALLVALUE PUSH2 0x214E SWAP2 SWAP1 PUSH2 0x56AA JUMP JUMPDEST SWAP1 POP PUSH1 0x0 DUP1 PUSH1 0x0 DUP5 ISZERO PUSH2 0x2291 JUMPI PUSH1 0x64 PUSH1 0x22 SLOAD DUP8 PUSH2 0x216B SWAP2 SWAP1 PUSH2 0x5639 JUMP JUMPDEST PUSH2 0x2175 SWAP2 SWAP1 PUSH2 0x56AA JUMP JUMPDEST SWAP3 POP PUSH1 0x0 PUSH20 0xFFFFFFFFFFFFFFFFFFFFFFFFFFFFFFFFFFFFFFFF AND DUP8 PUSH20 0xFFFFFFFFFFFFFFFFFFFFFFFFFFFFFFFFFFFFFFFF AND EQ PUSH2 0x21E4 JUMPI PUSH1 0x64 PUSH1 0x21 SLOAD DUP8 PUSH2 0x21BB SWAP2 SWAP1 PUSH2 0x5639 JUMP JUMPDEST PUSH2 0x21C5 SWAP2 SWAP1 PUSH2 0x56AA JUMP JUMPDEST SWAP1 POP PUSH1 0x64 PUSH1 0x20 SLOAD CALLVALUE PUSH2 0x21D7 SWAP2 SWAP1 PUSH2 0x5639 JUMP JUMPDEST PUSH2 0x21E1 SWAP2 SWAP1 PUSH2 0x56AA JUMP JUMPDEST SWAP2 POP JUMPDEST DUP2 PUSH1 0x24 PUSH1 0x0 DUP10 PUSH20 0xFFFFFFFFFFFFFFFFFFFFFFFFFFFFFFFFFFFFFFFF AND PUSH20 0xFFFFFFFFFFFFFFFFFFFFFFFFFFFFFFFFFFFFFFFF AND DUP2 MSTORE PUSH1 0x20 ADD SWAP1 DUP2 MSTORE PUSH1 0x20 ADD PUSH1 0x0 KECCAK256 PUSH1 0x0 DUP3 DUP3 SLOAD PUSH2 0x2233 SWAP2 SWAP1 PUSH2 0x5536 JUMP JUMPDEST SWAP3 POP POP DUP2 SWAP1 SSTORE POP DUP1 PUSH1 0x23 PUSH1 0x0 DUP10 PUSH20 0xFFFFFFFFFFFFFFFFFFFFFFFFFFFFFFFFFFFFFFFF AND PUSH20 0xFFFFFFFFFFFFFFFFFFFFFFFFFFFFFFFFFFFFFFFF AND DUP2 MSTORE PUSH1 0x20 ADD SWAP1 DUP2 MSTORE PUSH1 0x20 ADD PUSH1 0x0 KECCAK256 PUSH1 0x0 DUP3 DUP3 SLOAD PUSH2 0x2289 SWAP2 SWAP1 PUSH2 0x5536 JUMP JUMPDEST SWAP3 POP POP DUP2 SWAP1 SSTORE POP JUMPDEST PUSH1 0x0 DUP4 DUP8 PUSH2 0x229F SWAP2 SWAP1 PUSH2 0x5536 JUMP JUMPDEST SWAP1 POP PUSH2 0x22AB CALLER DUP3 PUSH2 0x418A JUMP JUMPDEST CALLER PUSH20 0xFFFFFFFFFFFFFFFFFFFFFFFFFFFFFFFFFFFFFFFF AND PUSH32 0x8FD7C1CF2B9CCEB829553742C07A11EE82ED91A2E2D4791328461DF6AA6E8A89 DUP9 DUP6 DUP6 DUP9 PUSH1 0x40 MLOAD PUSH2 0x22F7 SWAP5 SWAP4 SWAP3 SWAP2 SWAP1 PUSH2 0x59DE JUMP JUMPDEST PUSH1 0x40 MLOAD DUP1 SWAP2 SUB SWAP1 LOG2 PUSH1 0x0 DUP4 DUP7 PUSH2 0x230D SWAP2 SWAP1 PUSH2 0x5536 JUMP JUMPDEST CALLVALUE PUSH2 0x2318 SWAP2 SWAP1 PUSH2 0x5599 JUMP JUMPDEST SWAP1 POP PUSH2 0x2322 PUSH2 0x2790 JUMP JUMPDEST PUSH20 0xFFFFFFFFFFFFFFFFFFFFFFFFFFFFFFFFFFFFFFFF AND PUSH2 0x8FC DUP3 SWAP1 DUP2 ISZERO MUL SWAP1 PUSH1 0x40 MLOAD PUSH1 0x0 PUSH1 0x40 MLOAD DUP1 DUP4 SUB DUP2 DUP6 DUP9 DUP9 CALL SWAP4 POP POP POP POP ISZERO DUP1 ISZERO PUSH2 0x2367 JUMPI RETURNDATASIZE PUSH1 0x0 DUP1 RETURNDATACOPY RETURNDATASIZE PUSH1 0x0 REVERT JUMPDEST POP CALLVALUE PUSH1 0x18 PUSH1 0x0 CALLER PUSH20 0xFFFFFFFFFFFFFFFFFFFFFFFFFFFFFFFFFFFFFFFF AND PUSH20 0xFFFFFFFFFFFFFFFFFFFFFFFFFFFFFFFFFFFFFFFF AND DUP2 MSTORE PUSH1 0x20 ADD SWAP1 DUP2 MSTORE PUSH1 0x20 ADD PUSH1 0x0 KECCAK256 PUSH1 0x0 DUP3 DUP3 SLOAD PUSH2 0x23B7 SWAP2 SWAP1 PUSH2 0x5536 JUMP JUMPDEST SWAP3 POP POP DUP2 SWAP1 SSTORE POP PUSH1 0x0 PUSH1 0x10 SLOAD PUSH1 0xF SLOAD PUSH2 0x23D0 SWAP2 SWAP1 PUSH2 0x5536 JUMP JUMPDEST GT ISZERO PUSH2 0x249F JUMPI PUSH1 0x0 PUSH1 0x10 SLOAD PUSH1 0xF SLOAD PUSH2 0x23E8 SWAP2 SWAP1 PUSH2 0x5536 JUMP JUMPDEST PUSH1 0xF SLOAD DUP9 PUSH2 0x23F6 SWAP2 SWAP1 PUSH2 0x5639 JUMP JUMPDEST PUSH2 0x2400 SWAP2 SWAP1 PUSH2 0x56AA JUMP JUMPDEST SWAP1 POP PUSH1 0x0 DUP2 DUP9 PUSH2 0x2410 SWAP2 SWAP1 PUSH2 0x5599 JUMP JUMPDEST SWAP1 POP PUSH1 0x0 PUSH1 0xD SLOAD GT ISZERO PUSH2 0x2457 JUMPI PUSH1 0xD SLOAD PUSH8 0xDE0B6B3A7640000 DUP4 PUSH2 0x2434 SWAP2 SWAP1 PUSH2 0x5639 JUMP JUMPDEST PUSH2 0x243E SWAP2 SWAP1 PUSH2 0x56AA JUMP JUMPDEST PUSH1 0x14 PUSH1 0x0 DUP3 DUP3 SLOAD PUSH2 0x244F SWAP2 SWAP1 PUSH2 0x5536 JUMP JUMPDEST SWAP3 POP POP DUP2 SWAP1 SSTORE POP JUMPDEST PUSH1 0x0 PUSH1 0xE SLOAD GT ISZERO PUSH2 0x249C JUMPI PUSH1 0xE SLOAD PUSH8 0xDE0B6B3A7640000 DUP3 PUSH2 0x2479 SWAP2 SWAP1 PUSH2 0x5639 JUMP JUMPDEST PUSH2 0x2483 SWAP2 SWAP1 PUSH2 0x56AA JUMP JUMPDEST PUSH1 0x16 PUSH1 0x0 DUP3 DUP3 SLOAD PUSH2 0x2494 SWAP2 SWAP1 PUSH2 0x5536 JUMP JUMPDEST SWAP3 POP POP DUP2 SWAP1 SSTORE POP JUMPDEST POP POP JUMPDEST POP POP POP POP POP POP POP POP POP JUMP JUMPDEST PUSH2 0x24B2 PUSH2 0x40EE JUMP JUMPDEST DUP1 PUSH1 0x4 DUP2 SWAP1 SSTORE POP POP JUMP JUMPDEST PUSH2 0x24C4 PUSH2 0x40EE JUMP JUMPDEST DUP1 ISZERO PUSH2 0x2541 JUMPI PUSH1 0xB PUSH1 0x40 MLOAD DUP1 PUSH1 0x60 ADD PUSH1 0x40 MSTORE DUP1 DUP7 DUP2 MSTORE PUSH1 0x20 ADD DUP6 DUP2 MSTORE PUSH1 0x20 ADD DUP5 DUP2 MSTORE POP SWAP1 DUP1 PUSH1 0x1 DUP2 SLOAD ADD DUP1 DUP3 SSTORE DUP1 SWAP2 POP POP PUSH1 0x1 SWAP1 SUB SWAP1 PUSH1 0x0 MSTORE PUSH1 0x20 PUSH1 0x0 KECCAK256 SWAP1 PUSH1 0x3 MUL ADD PUSH1 0x0 SWAP1 SWAP2 SWAP1 SWAP2 SWAP1 SWAP2 POP PUSH1 0x0 DUP3 ADD MLOAD DUP2 PUSH1 0x0 ADD SWAP1 DUP2 PUSH2 0x2525 SWAP2 SWAP1 PUSH2 0x5BC5 JUMP JUMPDEST POP PUSH1 0x20 DUP3 ADD MLOAD DUP2 PUSH1 0x1 ADD SSTORE PUSH1 0x40 DUP3 ADD MLOAD DUP2 PUSH1 0x2 ADD SSTORE POP POP PUSH2 0x25B4 JUMP JUMPDEST PUSH1 0x9 PUSH1 0x40 MLOAD DUP1 PUSH1 0x60 ADD PUSH1 0x40 MSTORE DUP1 DUP7 DUP2 MSTORE PUSH1 0x20 ADD DUP6 DUP2 MSTORE PUSH1 0x20 ADD DUP5 DUP2 MSTORE POP SWAP1 DUP1 PUSH1 0x1 DUP2 SLOAD ADD DUP1 DUP3 SSTORE DUP1 SWAP2 POP POP PUSH1 0x1 SWAP1 SUB SWAP1 PUSH1 0x0 MSTORE PUSH1 0x20 PUSH1 0x0 KECCAK256 SWAP1 PUSH1 0x3 MUL ADD PUSH1 0x0 SWAP1 SWAP2 SWAP1 SWAP2 SWAP1 SWAP2 POP PUSH1 0x0 DUP3 ADD MLOAD DUP2 PUSH1 0x0 ADD SWAP1 DUP2 PUSH2 0x259C SWAP2 SWAP1 PUSH2 0x5BC5 JUMP JUMPDEST POP PUSH1 0x20 DUP3 ADD MLOAD DUP2 PUSH1 0x1 ADD SSTORE PUSH1 0x40 DUP3 ADD MLOAD DUP2 PUSH1 0x2 ADD SSTORE POP POP JUMPDEST POP POP POP POP JUMP JUMPDEST PUSH1 0x60 PUSH1 0x0 PUSH1 0xB DUP1 SLOAD SWAP1 POP PUSH8 0xFFFFFFFFFFFFFFFF DUP2 GT ISZERO PUSH2 0x25DD JUMPI PUSH2 0x25DC PUSH2 0x4E5E JUMP JUMPDEST JUMPDEST PUSH1 0x40 MLOAD SWAP1 DUP1 DUP3 MSTORE DUP1 PUSH1 0x20 MUL PUSH1 0x20 ADD DUP3 ADD PUSH1 0x40 MSTORE DUP1 ISZERO PUSH2 0x260B JUMPI DUP2 PUSH1 0x20 ADD PUSH1 0x20 DUP3 MUL DUP1 CALLDATASIZE DUP4 CALLDATACOPY DUP1 DUP3 ADD SWAP2 POP POP SWAP1 POP JUMPDEST POP SWAP1 POP PUSH1 0x0 JUMPDEST PUSH1 0xB DUP1 SLOAD SWAP1 POP DUP2 LT ISZERO PUSH2 0x269B JUMPI PUSH1 0xC PUSH1 0x0 DUP6 PUSH20 0xFFFFFFFFFFFFFFFFFFFFFFFFFFFFFFFFFFFFFFFF AND PUSH20 0xFFFFFFFFFFFFFFFFFFFFFFFFFFFFFFFFFFFFFFFF AND DUP2 MSTORE PUSH1 0x20 ADD SWAP1 DUP2 MSTORE PUSH1 0x20 ADD PUSH1 0x0 KECCAK256 PUSH1 0x0 DUP3 DUP2 MSTORE PUSH1 0x20 ADD SWAP1 DUP2 MSTORE PUSH1 0x20 ADD PUSH1 0x0 KECCAK256 SLOAD DUP3 DUP3 DUP2 MLOAD DUP2 LT PUSH2 0x2682 JUMPI PUSH2 0x2681 PUSH2 0x556A JUMP JUMPDEST JUMPDEST PUSH1 0x20 MUL PUSH1 0x20 ADD ADD DUP2 DUP2 MSTORE POP POP DUP1 DUP1 PUSH1 0x1 ADD SWAP2 POP POP PUSH2 0x2611 JUMP JUMPDEST POP DUP1 SWAP2 POP POP SWAP2 SWAP1 POP JUMP JUMPDEST PUSH1 0x60 PUSH1 0x0 PUSH1 0x9 DUP1 SLOAD SWAP1 POP PUSH8 0xFFFFFFFFFFFFFFFF DUP2 GT ISZERO PUSH2 0x26C8 JUMPI PUSH2 0x26C7 PUSH2 0x4E5E JUMP JUMPDEST JUMPDEST PUSH1 0x40 MLOAD SWAP1 DUP1 DUP3 MSTORE DUP1 PUSH1 0x20 MUL PUSH1 0x20 ADD DUP3 ADD PUSH1 0x40 MSTORE DUP1 ISZERO PUSH2 0x26F6 JUMPI DUP2 PUSH1 0x20 ADD PUSH1 0x20 DUP3 MUL DUP1 CALLDATASIZE DUP4 CALLDATACOPY DUP1 DUP3 ADD SWAP2 POP POP SWAP1 POP JUMPDEST POP SWAP1 POP PUSH1 0x0 JUMPDEST PUSH1 0x9 DUP1 SLOAD SWAP1 POP DUP2 LT ISZERO PUSH2 0x2786 JUMPI PUSH1 0xA PUSH1 0x0 DUP6 PUSH20 0xFFFFFFFFFFFFFFFFFFFFFFFFFFFFFFFFFFFFFFFF AND PUSH20 0xFFFFFFFFFFFFFFFFFFFFFFFFFFFFFFFFFFFFFFFF AND DUP2 MSTORE PUSH1 0x20 ADD SWAP1 DUP2 MSTORE PUSH1 0x20 ADD PUSH1 0x0 KECCAK256 PUSH1 0x0 DUP3 DUP2 MSTORE PUSH1 0x20 ADD SWAP1 DUP2 MSTORE PUSH1 0x20 ADD PUSH1 0x0 KECCAK256 SLOAD DUP3 DUP3 DUP2 MLOAD DUP2 LT PUSH2 0x276D JUMPI PUSH2 0x276C PUSH2 0x556A JUMP JUMPDEST JUMPDEST PUSH1 0x20 MUL PUSH1 0x20 ADD ADD DUP2 DUP2 MSTORE POP POP DUP1 DUP1 PUSH1 0x1 ADD SWAP2 POP POP PUSH2 0x26FC JUMP JUMPDEST POP DUP1 SWAP2 POP POP SWAP2 SWAP1 POP JUMP JUMPDEST PUSH1 0x0 DUP1 PUSH1 0x0 SWAP1 SLOAD SWAP1 PUSH2 0x100 EXP SWAP1 DIV PUSH20 0xFFFFFFFFFFFFFFFFFFFFFFFFFFFFFFFFFFFFFFFF AND SWAP1 POP SWAP1 JUMP JUMPDEST PUSH1 0x6 PUSH1 0x0 SWAP1 SLOAD SWAP1 PUSH2 0x100 EXP SWAP1 DIV PUSH1 0xFF AND DUP2 JUMP JUMPDEST PUSH1 0x18 PUSH1 0x20 MSTORE DUP1 PUSH1 0x0 MSTORE PUSH1 0x40 PUSH1 0x0 KECCAK256 PUSH1 0x0 SWAP2 POP SWAP1 POP SLOAD DUP2 JUMP JUMPDEST PUSH1 0xC PUSH1 0x20 MSTORE DUP2 PUSH1 0x0 MSTORE PUSH1 0x40 PUSH1 0x0 KECCAK256 PUSH1 0x20 MSTORE DUP1 PUSH1 0x0 MSTORE PUSH1 0x40 PUSH1 0x0 KECCAK256 PUSH1 0x0 SWAP2 POP SWAP2 POP POP SLOAD DUP2 JUMP JUMPDEST PUSH1 0x5 SLOAD DUP2 JUMP JUMPDEST PUSH2 0x2817 PUSH2 0x40EE JUMP JUMPDEST DUP1 PUSH1 0x1 PUSH1 0x0 PUSH2 0x100 EXP DUP2 SLOAD DUP2 PUSH20 0xFFFFFFFFFFFFFFFFFFFFFFFFFFFFFFFFFFFFFFFF MUL NOT AND SWAP1 DUP4 PUSH20 0xFFFFFFFFFFFFFFFFFFFFFFFFFFFFFFFFFFFFFFFF AND MUL OR SWAP1 SSTORE POP POP JUMP JUMPDEST PUSH1 0x15 PUSH1 0x20 MSTORE DUP1 PUSH1 0x0 MSTORE PUSH1 0x40 PUSH1 0x0 KECCAK256 PUSH1 0x0 SWAP2 POP SWAP1 POP SLOAD DUP2 JUMP JUMPDEST PUSH1 0x24 PUSH1 0x20 MSTORE DUP1 PUSH1 0x0 MSTORE PUSH1 0x40 PUSH1 0x0 KECCAK256 PUSH1 0x0 SWAP2 POP SWAP1 POP SLOAD DUP2 JUMP JUMPDEST PUSH1 0x9 DUP2 DUP2 SLOAD DUP2 LT PUSH2 0x289B JUMPI PUSH1 0x0 DUP1 REVERT JUMPDEST SWAP1 PUSH1 0x0 MSTORE PUSH1 0x20 PUSH1 0x0 KECCAK256 SWAP1 PUSH1 0x3 MUL ADD PUSH1 0x0 SWAP2 POP SWAP1 POP DUP1 PUSH1 0x0 ADD DUP1 SLOAD PUSH2 0x28BE SWAP1 PUSH2 0x57BB JUMP JUMPDEST DUP1 PUSH1 0x1F ADD PUSH1 0x20 DUP1 SWAP2 DIV MUL PUSH1 0x20 ADD PUSH1 0x40 MLOAD SWAP1 DUP2 ADD PUSH1 0x40 MSTORE DUP1 SWAP3 SWAP2 SWAP1 DUP2 DUP2 MSTORE PUSH1 0x20 ADD DUP3 DUP1 SLOAD PUSH2 0x28EA SWAP1 PUSH2 0x57BB JUMP JUMPDEST DUP1 ISZERO PUSH2 0x2937 JUMPI DUP1 PUSH1 0x1F LT PUSH2 0x290C JUMPI PUSH2 0x100 DUP1 DUP4 SLOAD DIV MUL DUP4 MSTORE SWAP2 PUSH1 0x20 ADD SWAP2 PUSH2 0x2937 JUMP JUMPDEST DUP3 ADD SWAP2 SWAP1 PUSH1 0x0 MSTORE PUSH1 0x20 PUSH1 0x0 KECCAK256 SWAP1 JUMPDEST DUP2 SLOAD DUP2 MSTORE SWAP1 PUSH1 0x1 ADD SWAP1 PUSH1 0x20 ADD DUP1 DUP4 GT PUSH2 0x291A JUMPI DUP3 SWAP1 SUB PUSH1 0x1F AND DUP3 ADD SWAP2 JUMPDEST POP POP POP POP POP SWAP1 DUP1 PUSH1 0x1 ADD SLOAD SWAP1 DUP1 PUSH1 0x2 ADD SLOAD SWAP1 POP DUP4 JUMP JUMPDEST PUSH1 0x25 PUSH1 0x20 MSTORE DUP1 PUSH1 0x0 MSTORE PUSH1 0x40 PUSH1 0x0 KECCAK256 PUSH1 0x0 SWAP2 POP SWAP1 POP SLOAD DUP2 JUMP JUMPDEST PUSH1 0x27 PUSH1 0x1 SWAP1 SLOAD SWAP1 PUSH2 0x100 EXP SWAP1 DIV PUSH20 0xFFFFFFFFFFFFFFFFFFFFFFFFFFFFFFFFFFFFFFFF AND DUP2 JUMP JUMPDEST PUSH1 0x22 SLOAD DUP2 JUMP JUMPDEST PUSH1 0x17 PUSH1 0x20 MSTORE DUP1 PUSH1 0x0 MSTORE PUSH1 0x40 PUSH1 0x0 KECCAK256 PUSH1 0x0 SWAP2 POP SWAP1 POP SLOAD DUP2 JUMP JUMPDEST PUSH2 0x29B1 PUSH2 0x40EE JUMP JUMPDEST PUSH1 0x0 DUP4 LT ISZERO DUP1 ISZERO PUSH2 0x29C3 JUMPI POP PUSH1 0x14 DUP4 GT ISZERO JUMPDEST PUSH2 0x2A02 JUMPI PUSH1 0x40 MLOAD PUSH32 0x8C379A000000000000000000000000000000000000000000000000000000000 DUP2 MSTORE PUSH1 0x4 ADD PUSH2 0x29F9 SWAP1 PUSH2 0x5CE3 JUMP JUMPDEST PUSH1 0x40 MLOAD DUP1 SWAP2 SUB SWAP1 REVERT JUMPDEST DUP3 PUSH1 0x20 DUP2 SWAP1 SSTORE POP PUSH1 0x0 DUP3 LT ISZERO DUP1 ISZERO PUSH2 0x2A1B JUMPI POP PUSH1 0x14 DUP3 GT ISZERO JUMPDEST PUSH2 0x2A5A JUMPI PUSH1 0x40 MLOAD PUSH32 0x8C379A000000000000000000000000000000000000000000000000000000000 DUP2 MSTORE PUSH1 0x4 ADD PUSH2 0x2A51 SWAP1 PUSH2 0x5CE3 JUMP JUMPDEST PUSH1 0x40 MLOAD DUP1 SWAP2 SUB SWAP1 REVERT JUMPDEST DUP2 PUSH1 0x21 DUP2 SWAP1 SSTORE POP PUSH1 0x0 DUP2 LT ISZERO DUP1 ISZERO PUSH2 0x2A73 JUMPI POP PUSH1 0x14 DUP2 GT ISZERO JUMPDEST PUSH2 0x2AB2 JUMPI PUSH1 0x40 MLOAD PUSH32 0x8C379A000000000000000000000000000000000000000000000000000000000 DUP2 MSTORE PUSH1 0x4 ADD PUSH2 0x2AA9 SWAP1 PUSH2 0x5CE3 JUMP JUMPDEST PUSH1 0x40 MLOAD DUP1 SWAP2 SUB SWAP1 REVERT JUMPDEST DUP1 PUSH1 0x22 DUP2 SWAP1 SSTORE POP POP POP POP JUMP JUMPDEST PUSH1 0x7 SLOAD DUP2 JUMP JUMPDEST PUSH1 0xA PUSH1 0x20 MSTORE DUP2 PUSH1 0x0 MSTORE PUSH1 0x40 PUSH1 0x0 KECCAK256 PUSH1 0x20 MSTORE DUP1 PUSH1 0x0 MSTORE PUSH1 0x40 PUSH1 0x0 KECCAK256 PUSH1 0x0 SWAP2 POP SWAP2 POP POP SLOAD DUP2 JUMP JUMPDEST PUSH1 0x1E PUSH1 0x20 MSTORE DUP1 PUSH1 0x0 MSTORE PUSH1 0x40 PUSH1 0x0 KECCAK256 PUSH1 0x0 SWAP2 POP SWAP1 POP SLOAD DUP2 JUMP JUMPDEST PUSH1 0xE SLOAD DUP2 JUMP JUMPDEST PUSH2 0x2B0F PUSH2 0x40EE JUMP JUMPDEST PUSH1 0x2 PUSH1 0x0 SWAP1 SLOAD SWAP1 PUSH2 0x100 EXP SWAP1 DIV PUSH20 0xFFFFFFFFFFFFFFFFFFFFFFFFFFFFFFFFFFFFFFFF AND PUSH20 0xFFFFFFFFFFFFFFFFFFFFFFFFFFFFFFFFFFFFFFFF AND PUSH4 0x23B872DD PUSH2 0x2B55 PUSH2 0x2790 JUMP JUMPDEST DUP5 PUSH8 0xDE0B6B3A7640000 DUP6 PUSH2 0x2B6A SWAP2 SWAP1 PUSH2 0x5639 JUMP JUMPDEST PUSH1 0x40 MLOAD DUP5 PUSH4 0xFFFFFFFF AND PUSH1 0xE0 SHL DUP2 MSTORE PUSH1 0x4 ADD PUSH2 0x2B88 SWAP4 SWAP3 SWAP2 SWAP1 PUSH2 0x5D03 JUMP JUMPDEST PUSH1 0x20 PUSH1 0x40 MLOAD DUP1 DUP4 SUB DUP2 PUSH1 0x0 DUP8 GAS CALL ISZERO DUP1 ISZERO PUSH2 0x2BA7 JUMPI RETURNDATASIZE PUSH1 0x0 DUP1 RETURNDATACOPY RETURNDATASIZE PUSH1 0x0 REVERT JUMPDEST POP POP POP POP PUSH1 0x40 MLOAD RETURNDATASIZE PUSH1 0x1F NOT PUSH1 0x1F DUP3 ADD AND DUP3 ADD DUP1 PUSH1 0x40 MSTORE POP DUP2 ADD SWAP1 PUSH2 0x2BCB SWAP2 SWAP1 PUSH2 0x586D JUMP JUMPDEST POP DUP1 PUSH1 0x8 PUSH1 0x0 DUP5 PUSH20 0xFFFFFFFFFFFFFFFFFFFFFFFFFFFFFFFFFFFFFFFF AND PUSH20 0xFFFFFFFFFFFFFFFFFFFFFFFFFFFFFFFFFFFFFFFF AND DUP2 MSTORE PUSH1 0x20 ADD SWAP1 DUP2 MSTORE PUSH1 0x20 ADD PUSH1 0x0 KECCAK256 PUSH1 0x0 DUP3 DUP3 SLOAD PUSH2 0x2C1B SWAP2 SWAP1 PUSH2 0x5536 JUMP JUMPDEST SWAP3 POP POP DUP2 SWAP1 SSTORE POP POP POP JUMP JUMPDEST PUSH1 0x26 PUSH1 0x20 MSTORE DUP1 PUSH1 0x0 MSTORE PUSH1 0x40 PUSH1 0x0 KECCAK256 PUSH1 0x0 SWAP2 POP SWAP1 POP SLOAD DUP2 JUMP JUMPDEST PUSH1 0x20 SLOAD DUP2 JUMP JUMPDEST PUSH2 0x2C4D CALLER PUSH2 0x46F6 JUMP JUMPDEST PUSH1 0x0 PUSH1 0x1A PUSH1 0x0 CALLER PUSH20 0xFFFFFFFFFFFFFFFFFFFFFFFFFFFFFFFFFFFFFFFF AND PUSH20 0xFFFFFFFFFFFFFFFFFFFFFFFFFFFFFFFFFFFFFFFF AND DUP2 MSTORE PUSH1 0x20 ADD SWAP1 DUP2 MSTORE PUSH1 0x20 ADD PUSH1 0x0 KECCAK256 SLOAD SWAP1 POP PUSH1 0x0 DUP2 GT PUSH2 0x2CD4 JUMPI PUSH1 0x40 MLOAD PUSH32 0x8C379A000000000000000000000000000000000000000000000000000000000 DUP2 MSTORE PUSH1 0x4 ADD PUSH2 0x2CCB SWAP1 PUSH2 0x5D86 JUMP JUMPDEST PUSH1 0x40 MLOAD DUP1 SWAP2 SUB SWAP1 REVERT JUMPDEST DUP1 PUSH1 0x1B PUSH1 0x0 CALLER PUSH20 0xFFFFFFFFFFFFFFFFFFFFFFFFFFFFFFFFFFFFFFFF AND PUSH20 0xFFFFFFFFFFFFFFFFFFFFFFFFFFFFFFFFFFFFFFFF AND DUP2 MSTORE PUSH1 0x20 ADD SWAP1 DUP2 MSTORE PUSH1 0x20 ADD PUSH1 0x0 KECCAK256 PUSH1 0x0 DUP3 DUP3 SLOAD PUSH2 0x2D23 SWAP2 SWAP1 PUSH2 0x5536 JUMP JUMPDEST SWAP3 POP POP DUP2 SWAP1 SSTORE POP PUSH1 0x0 PUSH1 0x1A PUSH1 0x0 CALLER PUSH20 0xFFFFFFFFFFFFFFFFFFFFFFFFFFFFFFFFFFFFFFFF AND PUSH20 0xFFFFFFFFFFFFFFFFFFFFFFFFFFFFFFFFFFFFFFFF AND DUP2 MSTORE PUSH1 0x20 ADD SWAP1 DUP2 MSTORE PUSH1 0x20 ADD PUSH1 0x0 KECCAK256 DUP2 SWAP1 SSTORE POP CALLER PUSH20 0xFFFFFFFFFFFFFFFFFFFFFFFFFFFFFFFFFFFFFFFF AND PUSH2 0x8FC DUP3 SWAP1 DUP2 ISZERO MUL SWAP1 PUSH1 0x40 MLOAD PUSH1 0x0 PUSH1 0x40 MLOAD DUP1 DUP4 SUB DUP2 DUP6 DUP9 DUP9 CALL SWAP4 POP POP POP POP ISZERO DUP1 ISZERO PUSH2 0x2DB5 JUMPI RETURNDATASIZE PUSH1 0x0 DUP1 RETURNDATACOPY RETURNDATASIZE PUSH1 0x0 REVERT JUMPDEST POP CALLER PUSH20 0xFFFFFFFFFFFFFFFFFFFFFFFFFFFFFFFFFFFFFFFF AND PUSH32 0x7BCFB0598E7CD0B03E8472440B7E292B4767743DDEB0579A65BE466B40C8B0F3 DUP3 PUSH1 0x40 MLOAD PUSH2 0x2DFC SWAP2 SWAP1 PUSH2 0x4CE1 JUMP JUMPDEST PUSH1 0x40 MLOAD DUP1 SWAP2 SUB SWAP1 LOG2 POP JUMP JUMPDEST PUSH1 0x0 PUSH1 0x27 PUSH1 0x0 SWAP1 SLOAD SWAP1 PUSH2 0x100 EXP SWAP1 DIV PUSH1 0xFF AND ISZERO PUSH2 0x2F1C JUMPI PUSH1 0x0 PUSH20 0xFFFFFFFFFFFFFFFFFFFFFFFFFFFFFFFFFFFFFFFF AND PUSH1 0x27 PUSH1 0x1 SWAP1 SLOAD SWAP1 PUSH2 0x100 EXP SWAP1 DIV PUSH20 0xFFFFFFFFFFFFFFFFFFFFFFFFFFFFFFFFFFFFFFFF AND PUSH20 0xFFFFFFFFFFFFFFFFFFFFFFFFFFFFFFFFFFFFFFFF AND EQ ISZERO DUP1 ISZERO PUSH2 0x2F15 JUMPI POP PUSH1 0x27 PUSH1 0x1 SWAP1 SLOAD SWAP1 PUSH2 0x100 EXP SWAP1 DIV PUSH20 0xFFFFFFFFFFFFFFFFFFFFFFFFFFFFFFFFFFFFFFFF AND PUSH20 0xFFFFFFFFFFFFFFFFFFFFFFFFFFFFFFFFFFFFFFFF AND PUSH4 0x3AF32ABF DUP4 PUSH1 0x40 MLOAD DUP3 PUSH4 0xFFFFFFFF AND PUSH1 0xE0 SHL DUP2 MSTORE PUSH1 0x4 ADD PUSH2 0x2ED3 SWAP2 SWAP1 PUSH2 0x540A JUMP JUMPDEST PUSH1 0x20 PUSH1 0x40 MLOAD DUP1 DUP4 SUB DUP2 DUP7 GAS STATICCALL ISZERO DUP1 ISZERO PUSH2 0x2EF0 JUMPI RETURNDATASIZE PUSH1 0x0 DUP1 RETURNDATACOPY RETURNDATASIZE PUSH1 0x0 REVERT JUMPDEST POP POP POP POP PUSH1 0x40 MLOAD RETURNDATASIZE PUSH1 0x1F NOT PUSH1 0x1F DUP3 ADD AND DUP3 ADD DUP1 PUSH1 0x40 MSTORE POP DUP2 ADD SWAP1 PUSH2 0x2F14 SWAP2 SWAP1 PUSH2 0x586D JUMP JUMPDEST JUMPDEST SWAP1 POP PUSH2 0x30B1 JUMP JUMPDEST PUSH1 0x0 PUSH20 0xFFFFFFFFFFFFFFFFFFFFFFFFFFFFFFFFFFFFFFFF AND PUSH1 0x28 PUSH1 0x0 SWAP1 SLOAD SWAP1 PUSH2 0x100 EXP SWAP1 DIV PUSH20 0xFFFFFFFFFFFFFFFFFFFFFFFFFFFFFFFFFFFFFFFF AND PUSH20 0xFFFFFFFFFFFFFFFFFFFFFFFFFFFFFFFFFFFFFFFF AND EQ ISZERO DUP1 ISZERO PUSH2 0x3013 JUMPI POP PUSH1 0x28 PUSH1 0x0 SWAP1 SLOAD SWAP1 PUSH2 0x100 EXP SWAP1 DIV PUSH20 0xFFFFFFFFFFFFFFFFFFFFFFFFFFFFFFFFFFFFFFFF AND PUSH20 0xFFFFFFFFFFFFFFFFFFFFFFFFFFFFFFFFFFFFFFFF AND PUSH4 0x3AF32ABF DUP4 PUSH1 0x40 MLOAD DUP3 PUSH4 0xFFFFFFFF AND PUSH1 0xE0 SHL DUP2 MSTORE PUSH1 0x4 ADD PUSH2 0x2FD1 SWAP2 SWAP1 PUSH2 0x540A JUMP JUMPDEST PUSH1 0x20 PUSH1 0x40 MLOAD DUP1 DUP4 SUB DUP2 DUP7 GAS STATICCALL ISZERO DUP1 ISZERO PUSH2 0x2FEE JUMPI RETURNDATASIZE PUSH1 0x0 DUP1 RETURNDATACOPY RETURNDATASIZE PUSH1 0x0 REVERT JUMPDEST POP POP POP POP PUSH1 0x40 MLOAD RETURNDATASIZE PUSH1 0x1F NOT PUSH1 0x1F DUP3 ADD AND DUP3 ADD DUP1 PUSH1 0x40 MSTORE POP DUP2 ADD SWAP1 PUSH2 0x3012 SWAP2 SWAP1 PUSH2 0x586D JUMP JUMPDEST JUMPDEST DUP1 PUSH2 0x30AE JUMPI POP PUSH1 0x0 PUSH1 0x1F PUSH1 0x0 DUP5 PUSH20 0xFFFFFFFFFFFFFFFFFFFFFFFFFFFFFFFFFFFFFFFF AND PUSH20 0xFFFFFFFFFFFFFFFFFFFFFFFFFFFFFFFFFFFFFFFF AND DUP2 MSTORE PUSH1 0x20 ADD SWAP1 DUP2 MSTORE PUSH1 0x20 ADD PUSH1 0x0 KECCAK256 SLOAD GT DUP1 ISZERO PUSH2 0x30AD JUMPI POP PUSH2 0x306B PUSH2 0x128D JUMP JUMPDEST PUSH1 0x1F PUSH1 0x0 DUP5 PUSH20 0xFFFFFFFFFFFFFFFFFFFFFFFFFFFFFFFFFFFFFFFF AND PUSH20 0xFFFFFFFFFFFFFFFFFFFFFFFFFFFFFFFFFFFFFFFF AND DUP2 MSTORE PUSH1 0x20 ADD SWAP1 DUP2 MSTORE PUSH1 0x20 ADD PUSH1 0x0 KECCAK256 SLOAD LT JUMPDEST JUMPDEST SWAP1 POP JUMPDEST SWAP2 SWAP1 POP JUMP JUMPDEST PUSH2 0x30BE PUSH2 0x40EE JUMP JUMPDEST DUP1 PUSH1 0x27 PUSH1 0x0 PUSH2 0x100 EXP DUP2 SLOAD DUP2 PUSH1 0xFF MUL NOT AND SWAP1 DUP4 ISZERO ISZERO MUL OR SWAP1 SSTORE POP POP JUMP JUMPDEST PUSH1 0x0 PUSH1 0x9 DUP4 DUP2 SLOAD DUP2 LT PUSH2 0x30F1 JUMPI PUSH2 0x30F0 PUSH2 0x556A JUMP JUMPDEST JUMPDEST SWAP1 PUSH1 0x0 MSTORE PUSH1 0x20 PUSH1 0x0 KECCAK256 SWAP1 PUSH1 0x3 MUL ADD PUSH1 0x1 ADD SLOAD GT PUSH2 0x3143 JUMPI PUSH1 0x40 MLOAD PUSH32 0x8C379A000000000000000000000000000000000000000000000000000000000 DUP2 MSTORE PUSH1 0x4 ADD PUSH2 0x313A SWAP1 PUSH2 0x5DF2 JUMP JUMPDEST PUSH1 0x40 MLOAD DUP1 SWAP2 SUB SWAP1 REVERT JUMPDEST PUSH1 0x0 DUP2 GT PUSH2 0x3150 JUMPI PUSH1 0x0 DUP1 REVERT JUMPDEST PUSH1 0x0 DUP2 PUSH1 0x9 DUP5 DUP2 SLOAD DUP2 LT PUSH2 0x3167 JUMPI PUSH2 0x3166 PUSH2 0x556A JUMP JUMPDEST JUMPDEST SWAP1 PUSH1 0x0 MSTORE PUSH1 0x20 PUSH1 0x0 KECCAK256 SWAP1 PUSH1 0x3 MUL ADD PUSH1 0x2 ADD SLOAD PUSH2 0x3183 SWAP2 SWAP1 PUSH2 0x5639 JUMP JUMPDEST SWAP1 POP PUSH1 0x0 DUP3 PUSH1 0x9 DUP6 DUP2 SLOAD DUP2 LT PUSH2 0x319C JUMPI PUSH2 0x319B PUSH2 0x556A JUMP JUMPDEST JUMPDEST SWAP1 PUSH1 0x0 MSTORE PUSH1 0x20 PUSH1 0x0 KECCAK256 SWAP1 PUSH1 0x3 MUL ADD PUSH1 0x1 ADD SLOAD PUSH2 0x31B8 SWAP2 SWAP1 PUSH2 0x5639 JUMP JUMPDEST SWAP1 POP PUSH2 0x31C3 CALLER PUSH2 0x4175 JUMP JUMPDEST DUP2 PUSH1 0xF PUSH1 0x0 DUP3 DUP3 SLOAD PUSH2 0x31D5 SWAP2 SWAP1 PUSH2 0x5536 JUMP JUMPDEST SWAP3 POP POP DUP2 SWAP1 SSTORE POP DUP1 PUSH1 0xD PUSH1 0x0 DUP3 DUP3 SLOAD PUSH2 0x31EE SWAP2 SWAP1 PUSH2 0x5536 JUMP JUMPDEST SWAP3 POP POP DUP2 SWAP1 SSTORE POP PUSH2 0x31FF CALLER DUP4 PUSH2 0x4841 JUMP JUMPDEST DUP3 PUSH1 0xA PUSH1 0x0 CALLER PUSH20 0xFFFFFFFFFFFFFFFFFFFFFFFFFFFFFFFFFFFFFFFF AND PUSH20 0xFFFFFFFFFFFFFFFFFFFFFFFFFFFFFFFFFFFFFFFF AND DUP2 MSTORE PUSH1 0x20 ADD SWAP1 DUP2 MSTORE PUSH1 0x20 ADD PUSH1 0x0 KECCAK256 PUSH1 0x0 DUP7 DUP2 MSTORE PUSH1 0x20 ADD SWAP1 DUP2 MSTORE PUSH1 0x20 ADD PUSH1 0x0 KECCAK256 PUSH1 0x0 DUP3 DUP3 SLOAD PUSH2 0x325F SWAP2 SWAP1 PUSH2 0x5536 JUMP JUMPDEST SWAP3 POP POP DUP2 SWAP1 SSTORE POP DUP1 PUSH1 0x12 PUSH1 0x0 CALLER PUSH20 0xFFFFFFFFFFFFFFFFFFFFFFFFFFFFFFFFFFFFFFFF AND PUSH20 0xFFFFFFFFFFFFFFFFFFFFFFFFFFFFFFFFFFFFFFFF AND DUP2 MSTORE PUSH1 0x20 ADD SWAP1 DUP2 MSTORE PUSH1 0x20 ADD PUSH1 0x0 KECCAK256 PUSH1 0x0 DUP3 DUP3 SLOAD PUSH2 0x32B5 SWAP2 SWAP1 PUSH2 0x5536 JUMP JUMPDEST SWAP3 POP POP DUP2 SWAP1 SSTORE POP PUSH1 0x0 PUSH1 0x15 PUSH1 0x0 CALLER PUSH20 0xFFFFFFFFFFFFFFFFFFFFFFFFFFFFFFFFFFFFFFFF AND PUSH20 0xFFFFFFFFFFFFFFFFFFFFFFFFFFFFFFFFFFFFFFFF AND DUP2 MSTORE PUSH1 0x20 ADD SWAP1 DUP2 MSTORE PUSH1 0x20 ADD PUSH1 0x0 KECCAK256 SLOAD SUB PUSH2 0x334A JUMPI PUSH1 0x14 SLOAD PUSH1 0x15 PUSH1 0x0 CALLER PUSH20 0xFFFFFFFFFFFFFFFFFFFFFFFFFFFFFFFFFFFFFFFF AND PUSH20 0xFFFFFFFFFFFFFFFFFFFFFFFFFFFFFFFFFFFFFFFF AND DUP2 MSTORE PUSH1 0x20 ADD SWAP1 DUP2 MSTORE PUSH1 0x20 ADD PUSH1 0x0 KECCAK256 DUP2 SWAP1 SSTORE POP JUMPDEST PUSH1 0x0 PUSH1 0x17 PUSH1 0x0 CALLER PUSH20 0xFFFFFFFFFFFFFFFFFFFFFFFFFFFFFFFFFFFFFFFF AND PUSH20 0xFFFFFFFFFFFFFFFFFFFFFFFFFFFFFFFFFFFFFFFF AND DUP2 MSTORE PUSH1 0x20 ADD SWAP1 DUP2 MSTORE PUSH1 0x20 ADD PUSH1 0x0 KECCAK256 SLOAD SUB PUSH2 0x33D8 JUMPI PUSH1 0x16 SLOAD PUSH1 0x17 PUSH1 0x0 CALLER PUSH20 0xFFFFFFFFFFFFFFFFFFFFFFFFFFFFFFFFFFFFFFFF AND PUSH20 0xFFFFFFFFFFFFFFFFFFFFFFFFFFFFFFFFFFFFFFFF AND DUP2 MSTORE PUSH1 0x20 ADD SWAP1 DUP2 MSTORE PUSH1 0x20 ADD PUSH1 0x0 KECCAK256 DUP2 SWAP1 SSTORE POP JUMPDEST CALLER PUSH20 0xFFFFFFFFFFFFFFFFFFFFFFFFFFFFFFFFFFFFFFFF AND PUSH32 0xD61E3FFE1439B0A822F5396CC4D56A3E6729BB2BBBEAFC1031D55A509A3487F6 PUSH1 0x0 PUSH1 0x1 DUP8 DUP8 PUSH1 0x40 MLOAD PUSH2 0x3426 SWAP5 SWAP4 SWAP3 SWAP2 SWAP1 PUSH2 0x56DB JUMP JUMPDEST PUSH1 0x40 MLOAD DUP1 SWAP2 SUB SWAP1 LOG2 POP POP POP POP JUMP JUMPDEST PUSH1 0x19 PUSH1 0x20 MSTORE DUP1 PUSH1 0x0 MSTORE PUSH1 0x40 PUSH1 0x0 KECCAK256 PUSH1 0x0 SWAP2 POP SWAP1 POP SLOAD DUP2 JUMP JUMPDEST PUSH1 0x1B PUSH1 0x20 MSTORE DUP1 PUSH1 0x0 MSTORE PUSH1 0x40 PUSH1 0x0 KECCAK256 PUSH1 0x0 SWAP2 POP SWAP1 POP SLOAD DUP2 JUMP JUMPDEST PUSH1 0x0 PUSH1 0x9 DUP4 DUP2 SLOAD DUP2 LT PUSH2 0x347A JUMPI PUSH2 0x3479 PUSH2 0x556A JUMP JUMPDEST JUMPDEST SWAP1 PUSH1 0x0 MSTORE PUSH1 0x20 PUSH1 0x0 KECCAK256 SWAP1 PUSH1 0x3 MUL ADD PUSH1 0x1 ADD SLOAD GT PUSH2 0x3496 JUMPI PUSH1 0x0 DUP1 REVERT JUMPDEST DUP1 PUSH1 0xA PUSH1 0x0 CALLER PUSH20 0xFFFFFFFFFFFFFFFFFFFFFFFFFFFFFFFFFFFFFFFF AND PUSH20 0xFFFFFFFFFFFFFFFFFFFFFFFFFFFFFFFFFFFFFFFF AND DUP2 MSTORE PUSH1 0x20 ADD SWAP1 DUP2 MSTORE PUSH1 0x20 ADD PUSH1 0x0 KECCAK256 PUSH1 0x0 DUP5 DUP2 MSTORE PUSH1 0x20 ADD SWAP1 DUP2 MSTORE PUSH1 0x20 ADD PUSH1 0x0 KECCAK256 SLOAD LT ISZERO PUSH2 0x3529 JUMPI PUSH1 0x40 MLOAD PUSH32 0x8C379A000000000000000000000000000000000000000000000000000000000 DUP2 MSTORE PUSH1 0x4 ADD PUSH2 0x3520 SWAP1 PUSH2 0x5E5E JUMP JUMPDEST PUSH1 0x40 MLOAD DUP1 SWAP2 SUB SWAP1 REVERT JUMPDEST PUSH1 0x0 DUP2 GT PUSH2 0x3536 JUMPI PUSH1 0x0 DUP1 REVERT JUMPDEST PUSH1 0x0 DUP2 PUSH1 0x9 DUP5 DUP2 SLOAD DUP2 LT PUSH2 0x354D JUMPI PUSH2 0x354C PUSH2 0x556A JUMP JUMPDEST JUMPDEST SWAP1 PUSH1 0x0 MSTORE PUSH1 0x20 PUSH1 0x0 KECCAK256 SWAP1 PUSH1 0x3 MUL ADD PUSH1 0x2 ADD SLOAD PUSH2 0x3569 SWAP2 SWAP1 PUSH2 0x5639 JUMP JUMPDEST SWAP1 POP PUSH1 0x0 DUP3 PUSH1 0x9 DUP6 DUP2 SLOAD DUP2 LT PUSH2 0x3582 JUMPI PUSH2 0x3581 PUSH2 0x556A JUMP JUMPDEST JUMPDEST SWAP1 PUSH1 0x0 MSTORE PUSH1 0x20 PUSH1 0x0 KECCAK256 SWAP1 PUSH1 0x3 MUL ADD PUSH1 0x1 ADD SLOAD PUSH2 0x359E SWAP2 SWAP1 PUSH2 0x5639 JUMP JUMPDEST SWAP1 POP PUSH2 0x35A9 CALLER PUSH2 0x4175 JUMP JUMPDEST DUP1 PUSH1 0xD PUSH1 0x0 DUP3 DUP3 SLOAD PUSH2 0x35BB SWAP2 SWAP1 PUSH2 0x5599 JUMP JUMPDEST SWAP3 POP POP DUP2 SWAP1 SSTORE POP DUP2 PUSH1 0xF PUSH1 0x0 DUP3 DUP3 SLOAD PUSH2 0x35D4 SWAP2 SWAP1 PUSH2 0x5599 JUMP JUMPDEST SWAP3 POP POP DUP2 SWAP1 SSTORE POP PUSH2 0x35E5 CALLER DUP4 PUSH2 0x418A JUMP JUMPDEST DUP3 PUSH1 0xA PUSH1 0x0 CALLER PUSH20 0xFFFFFFFFFFFFFFFFFFFFFFFFFFFFFFFFFFFFFFFF AND PUSH20 0xFFFFFFFFFFFFFFFFFFFFFFFFFFFFFFFFFFFFFFFF AND DUP2 MSTORE PUSH1 0x20 ADD SWAP1 DUP2 MSTORE PUSH1 0x20 ADD PUSH1 0x0 KECCAK256 PUSH1 0x0 DUP7 DUP2 MSTORE PUSH1 0x20 ADD SWAP1 DUP2 MSTORE PUSH1 0x20 ADD PUSH1 0x0 KECCAK256 PUSH1 0x0 DUP3 DUP3 SLOAD PUSH2 0x3645 SWAP2 SWAP1 PUSH2 0x5599 JUMP JUMPDEST SWAP3 POP POP DUP2 SWAP1 SSTORE POP DUP1 PUSH1 0x12 PUSH1 0x0 CALLER PUSH20 0xFFFFFFFFFFFFFFFFFFFFFFFFFFFFFFFFFFFFFFFF AND PUSH20 0xFFFFFFFFFFFFFFFFFFFFFFFFFFFFFFFFFFFFFFFF AND DUP2 MSTORE PUSH1 0x20 ADD SWAP1 DUP2 MSTORE PUSH1 0x20 ADD PUSH1 0x0 KECCAK256 PUSH1 0x0 DUP3 DUP3 SLOAD PUSH2 0x369B SWAP2 SWAP1 PUSH2 0x5599 JUMP JUMPDEST SWAP3 POP POP DUP2 SWAP1 SSTORE POP CALLER PUSH20 0xFFFFFFFFFFFFFFFFFFFFFFFFFFFFFFFFFFFFFFFF AND PUSH32 0xD61E3FFE1439B0A822F5396CC4D56A3E6729BB2BBBEAFC1031D55A509A3487F6 PUSH1 0x0 DUP1 DUP8 DUP8 PUSH1 0x40 MLOAD PUSH2 0x36EF SWAP5 SWAP4 SWAP3 SWAP2 SWAP1 PUSH2 0x56DB JUMP JUMPDEST PUSH1 0x40 MLOAD DUP1 SWAP2 SUB SWAP1 LOG2 POP POP POP POP JUMP JUMPDEST PUSH2 0x3705 PUSH2 0x40EE JUMP JUMPDEST PUSH1 0x0 PUSH20 0xFFFFFFFFFFFFFFFFFFFFFFFFFFFFFFFFFFFFFFFF AND DUP2 PUSH20 0xFFFFFFFFFFFFFFFFFFFFFFFFFFFFFFFFFFFFFFFF AND SUB PUSH2 0x3777 JUMPI PUSH1 0x0 PUSH1 0x40 MLOAD PUSH32 0x1E4FBDF700000000000000000000000000000000000000000000000000000000 DUP2 MSTORE PUSH1 0x4 ADD PUSH2 0x376E SWAP2 SWAP1 PUSH2 0x540A JUMP JUMPDEST PUSH1 0x40 MLOAD DUP1 SWAP2 SUB SWAP1 REVERT JUMPDEST PUSH2 0x3780 DUP2 PUSH2 0x44AD JUMP JUMPDEST POP JUMP JUMPDEST PUSH1 0x0 PUSH1 0xB DUP4 DUP2 SLOAD DUP2 LT PUSH2 0x3799 JUMPI PUSH2 0x3798 PUSH2 0x556A JUMP JUMPDEST JUMPDEST SWAP1 PUSH1 0x0 MSTORE PUSH1 0x20 PUSH1 0x0 KECCAK256 SWAP1 PUSH1 0x3 MUL ADD PUSH1 0x1 ADD SLOAD GT PUSH2 0x37B5 JUMPI PUSH1 0x0 DUP1 REVERT JUMPDEST PUSH1 0x0 DUP2 GT PUSH2 0x37C2 JUMPI PUSH1 0x0 DUP1 REVERT JUMPDEST PUSH2 0x37CB CALLER PUSH2 0x4175 JUMP JUMPDEST PUSH1 0x0 DUP2 PUSH1 0xB DUP5 DUP2 SLOAD DUP2 LT PUSH2 0x37E2 JUMPI PUSH2 0x37E1 PUSH2 0x556A JUMP JUMPDEST JUMPDEST SWAP1 PUSH1 0x0 MSTORE PUSH1 0x20 PUSH1 0x0 KECCAK256 SWAP1 PUSH1 0x3 MUL ADD PUSH1 0x1 ADD SLOAD PUSH2 0x37FE SWAP2 SWAP1 PUSH2 0x5639 JUMP JUMPDEST SWAP1 POP PUSH1 0x0 DUP3 PUSH1 0xB DUP6 DUP2 SLOAD DUP2 LT PUSH2 0x3817 JUMPI PUSH2 0x3816 PUSH2 0x556A JUMP JUMPDEST JUMPDEST SWAP1 PUSH1 0x0 MSTORE PUSH1 0x20 PUSH1 0x0 KECCAK256 SWAP1 PUSH1 0x3 MUL ADD PUSH1 0x2 ADD SLOAD PUSH2 0x3833 SWAP2 SWAP1 PUSH2 0x5639 JUMP JUMPDEST SWAP1 POP PUSH1 0x0 PUSH1 0x11 SLOAD DUP3 PUSH1 0x10 SLOAD PUSH2 0x3848 SWAP2 SWAP1 PUSH2 0x5639 JUMP JUMPDEST PUSH2 0x3852 SWAP2 SWAP1 PUSH2 0x56AA JUMP JUMPDEST SWAP1 POP DUP2 PUSH1 0x11 PUSH1 0x0 DUP3 DUP3 SLOAD PUSH2 0x3866 SWAP2 SWAP1 PUSH2 0x5536 JUMP JUMPDEST SWAP3 POP POP DUP2 SWAP1 SSTORE POP DUP1 PUSH1 0x10 PUSH1 0x0 DUP3 DUP3 SLOAD PUSH2 0x387F SWAP2 SWAP1 PUSH2 0x5536 JUMP JUMPDEST SWAP3 POP POP DUP2 SWAP1 SSTORE POP DUP3 PUSH1 0xE PUSH1 0x0 DUP3 DUP3 SLOAD PUSH2 0x3898 SWAP2 SWAP1 PUSH2 0x5536 JUMP JUMPDEST SWAP3 POP POP DUP2 SWAP1 SSTORE POP PUSH2 0x38A9 CALLER DUP3 PUSH2 0x4841 JUMP JUMPDEST DUP4 PUSH1 0xC PUSH1 0x0 CALLER PUSH20 0xFFFFFFFFFFFFFFFFFFFFFFFFFFFFFFFFFFFFFFFF AND PUSH20 0xFFFFFFFFFFFFFFFFFFFFFFFFFFFFFFFFFFFFFFFF AND DUP2 MSTORE PUSH1 0x20 ADD SWAP1 DUP2 MSTORE PUSH1 0x20 ADD PUSH1 0x0 KECCAK256 PUSH1 0x0 DUP8 DUP2 MSTORE PUSH1 0x20 ADD SWAP1 DUP2 MSTORE PUSH1 0x20 ADD PUSH1 0x0 KECCAK256 PUSH1 0x0 DUP3 DUP3 SLOAD PUSH2 0x3909 SWAP2 SWAP1 PUSH2 0x5536 JUMP JUMPDEST SWAP3 POP POP DUP2 SWAP1 SSTORE POP DUP3 PUSH1 0x13 PUSH1 0x0 CALLER PUSH20 0xFFFFFFFFFFFFFFFFFFFFFFFFFFFFFFFFFFFFFFFF AND PUSH20 0xFFFFFFFFFFFFFFFFFFFFFFFFFFFFFFFFFFFFFFFF AND DUP2 MSTORE PUSH1 0x20 ADD SWAP1 DUP2 MSTORE PUSH1 0x20 ADD PUSH1 0x0 KECCAK256 PUSH1 0x0 DUP3 DUP3 SLOAD PUSH2 0x395F SWAP2 SWAP1 PUSH2 0x5536 JUMP JUMPDEST SWAP3 POP POP DUP2 SWAP1 SSTORE POP PUSH1 0x0 PUSH1 0x15 PUSH1 0x0 CALLER PUSH20 0xFFFFFFFFFFFFFFFFFFFFFFFFFFFFFFFFFFFFFFFF AND PUSH20 0xFFFFFFFFFFFFFFFFFFFFFFFFFFFFFFFFFFFFFFFF AND DUP2 MSTORE PUSH1 0x20 ADD SWAP1 DUP2 MSTORE PUSH1 0x20 ADD PUSH1 0x0 KECCAK256 SLOAD SUB PUSH2 0x39F4 JUMPI PUSH1 0x14 SLOAD PUSH1 0x15 PUSH1 0x0 CALLER PUSH20 0xFFFFFFFFFFFFFFFFFFFFFFFFFFFFFFFFFFFFFFFF AND PUSH20 0xFFFFFFFFFFFFFFFFFFFFFFFFFFFFFFFFFFFFFFFF AND DUP2 MSTORE PUSH1 0x20 ADD SWAP1 DUP2 MSTORE PUSH1 0x20 ADD PUSH1 0x0 KECCAK256 DUP2 SWAP1 SSTORE POP JUMPDEST PUSH1 0x0 PUSH1 0x17 PUSH1 0x0 CALLER PUSH20 0xFFFFFFFFFFFFFFFFFFFFFFFFFFFFFFFFFFFFFFFF AND PUSH20 0xFFFFFFFFFFFFFFFFFFFFFFFFFFFFFFFFFFFFFFFF AND DUP2 MSTORE PUSH1 0x20 ADD SWAP1 DUP2 MSTORE PUSH1 0x20 ADD PUSH1 0x0 KECCAK256 SLOAD SUB PUSH2 0x3A82 JUMPI PUSH1 0x16 SLOAD PUSH1 0x17 PUSH1 0x0 CALLER PUSH20 0xFFFFFFFFFFFFFFFFFFFFFFFFFFFFFFFFFFFFFFFF AND PUSH20 0xFFFFFFFFFFFFFFFFFFFFFFFFFFFFFFFFFFFFFFFF AND DUP2 MSTORE PUSH1 0x20 ADD SWAP1 DUP2 MSTORE PUSH1 0x20 ADD PUSH1 0x0 KECCAK256 DUP2 SWAP1 SSTORE POP JUMPDEST CALLER PUSH20 0xFFFFFFFFFFFFFFFFFFFFFFFFFFFFFFFFFFFFFFFF AND PUSH32 0xD61E3FFE1439B0A822F5396CC4D56A3E6729BB2BBBEAFC1031D55A509A3487F6 PUSH1 0x1 DUP1 DUP9 DUP9 PUSH1 0x40 MLOAD PUSH2 0x3ACF SWAP5 SWAP4 SWAP3 SWAP2 SWAP1 PUSH2 0x56DB JUMP JUMPDEST PUSH1 0x40 MLOAD DUP1 SWAP2 SUB SWAP1 LOG2 POP POP POP POP POP JUMP JUMPDEST PUSH1 0x2 PUSH1 0x0 SWAP1 SLOAD SWAP1 PUSH2 0x100 EXP SWAP1 DIV PUSH20 0xFFFFFFFFFFFFFFFFFFFFFFFFFFFFFFFFFFFFFFFF AND DUP2 JUMP JUMPDEST PUSH1 0x21 SLOAD DUP2 JUMP JUMPDEST PUSH1 0x0 PUSH1 0x1 PUSH1 0x0 SWAP1 SLOAD SWAP1 PUSH2 0x100 EXP SWAP1 DIV PUSH20 0xFFFFFFFFFFFFFFFFFFFFFFFFFFFFFFFFFFFFFFFF AND PUSH20 0xFFFFFFFFFFFFFFFFFFFFFFFFFFFFFFFFFFFFFFFF AND PUSH4 0x3AF32ABF CALLER PUSH1 0x40 MLOAD DUP3 PUSH4 0xFFFFFFFF AND PUSH1 0xE0 SHL DUP2 MSTORE PUSH1 0x4 ADD PUSH2 0x3B67 SWAP2 SWAP1 PUSH2 0x540A JUMP JUMPDEST PUSH1 0x20 PUSH1 0x40 MLOAD DUP1 DUP4 SUB DUP2 DUP7 GAS STATICCALL ISZERO DUP1 ISZERO PUSH2 0x3B84 JUMPI RETURNDATASIZE PUSH1 0x0 DUP1 RETURNDATACOPY RETURNDATASIZE PUSH1 0x0 REVERT JUMPDEST POP POP POP POP PUSH1 0x40 MLOAD RETURNDATASIZE PUSH1 0x1F NOT PUSH1 0x1F DUP3 ADD AND DUP3 ADD DUP1 PUSH1 0x40 MSTORE POP DUP2 ADD SWAP1 PUSH2 0x3BA8 SWAP2 SWAP1 PUSH2 0x586D JUMP JUMPDEST DUP1 PUSH2 0x3BE5 JUMPI POP PUSH2 0x3BB6 PUSH2 0x2790 JUMP JUMPDEST PUSH20 0xFFFFFFFFFFFFFFFFFFFFFFFFFFFFFFFFFFFFFFFF AND CALLER PUSH20 0xFFFFFFFFFFFFFFFFFFFFFFFFFFFFFFFFFFFFFFFF AND EQ JUMPDEST PUSH2 0x3C24 JUMPI PUSH1 0x40 MLOAD PUSH32 0x8C379A000000000000000000000000000000000000000000000000000000000 DUP2 MSTORE PUSH1 0x4 ADD PUSH2 0x3C1B SWAP1 PUSH2 0x5ECA JUMP JUMPDEST PUSH1 0x40 MLOAD DUP1 SWAP2 SUB SWAP1 REVERT JUMPDEST PUSH2 0x3C2D DUP3 PUSH2 0x49DA JUMP JUMPDEST PUSH1 0x0 PUSH1 0x1E PUSH1 0x0 DUP5 PUSH20 0xFFFFFFFFFFFFFFFFFFFFFFFFFFFFFFFFFFFFFFFF AND PUSH20 0xFFFFFFFFFFFFFFFFFFFFFFFFFFFFFFFFFFFFFFFF AND DUP2 MSTORE PUSH1 0x20 ADD SWAP1 DUP2 MSTORE PUSH1 0x20 ADD PUSH1 0x0 KECCAK256 SLOAD PUSH1 0x1D PUSH1 0x0 DUP6 PUSH20 0xFFFFFFFFFFFFFFFFFFFFFFFFFFFFFFFFFFFFFFFF AND PUSH20 0xFFFFFFFFFFFFFFFFFFFFFFFFFFFFFFFFFFFFFFFF AND DUP2 MSTORE PUSH1 0x20 ADD SWAP1 DUP2 MSTORE PUSH1 0x20 ADD PUSH1 0x0 KECCAK256 SLOAD PUSH2 0x3CB9 SWAP2 SWAP1 PUSH2 0x5599 JUMP JUMPDEST SWAP1 POP PUSH1 0x1D PUSH1 0x0 DUP5 PUSH20 0xFFFFFFFFFFFFFFFFFFFFFFFFFFFFFFFFFFFFFFFF AND PUSH20 0xFFFFFFFFFFFFFFFFFFFFFFFFFFFFFFFFFFFFFFFF AND DUP2 MSTORE PUSH1 0x20 ADD SWAP1 DUP2 MSTORE PUSH1 0x20 ADD PUSH1 0x0 KECCAK256 SLOAD PUSH1 0x1E PUSH1 0x0 DUP6 PUSH20 0xFFFFFFFFFFFFFFFFFFFFFFFFFFFFFFFFFFFFFFFF AND PUSH20 0xFFFFFFFFFFFFFFFFFFFFFFFFFFFFFFFFFFFFFFFF AND DUP2 MSTORE PUSH1 0x20 ADD SWAP1 DUP2 MSTORE PUSH1 0x20 ADD PUSH1 0x0 KECCAK256 DUP2 SWAP1 SSTORE POP DUP3 PUSH20 0xFFFFFFFFFFFFFFFFFFFFFFFFFFFFFFFFFFFFFFFF AND PUSH32 0x1E6F5EAEF61555B8BF4C1EF79DD15630C9612B652F0C442B66151F134650742C DUP3 PUSH1 0x40 MLOAD PUSH2 0x3D84 SWAP2 SWAP1 PUSH2 0x4CE1 JUMP JUMPDEST PUSH1 0x40 MLOAD DUP1 SWAP2 SUB SWAP1 LOG2 DUP1 SWAP2 POP POP SWAP2 SWAP1 POP JUMP JUMPDEST PUSH1 0x1 PUSH1 0x0 SWAP1 SLOAD SWAP1 PUSH2 0x100 EXP SWAP1 DIV PUSH20 0xFFFFFFFFFFFFFFFFFFFFFFFFFFFFFFFFFFFFFFFF AND PUSH20 0xFFFFFFFFFFFFFFFFFFFFFFFFFFFFFFFFFFFFFFFF AND PUSH4 0x3AF32ABF CALLER PUSH1 0x40 MLOAD DUP3 PUSH4 0xFFFFFFFF AND PUSH1 0xE0 SHL DUP2 MSTORE PUSH1 0x4 ADD PUSH2 0x3DF0 SWAP2 SWAP1 PUSH2 0x540A JUMP JUMPDEST PUSH1 0x20 PUSH1 0x40 MLOAD DUP1 DUP4 SUB DUP2 DUP7 GAS STATICCALL ISZERO DUP1 ISZERO PUSH2 0x3E0D JUMPI RETURNDATASIZE PUSH1 0x0 DUP1 RETURNDATACOPY RETURNDATASIZE PUSH1 0x0 REVERT JUMPDEST POP POP POP POP PUSH1 0x40 MLOAD RETURNDATASIZE PUSH1 0x1F NOT PUSH1 0x1F DUP3 ADD AND DUP3 ADD DUP1 PUSH1 0x40 MSTORE POP DUP2 ADD SWAP1 PUSH2 0x3E31 SWAP2 SWAP1 PUSH2 0x586D JUMP JUMPDEST DUP1 PUSH2 0x3E6E JUMPI POP PUSH2 0x3E3F PUSH2 0x2790 JUMP JUMPDEST PUSH20 0xFFFFFFFFFFFFFFFFFFFFFFFFFFFFFFFFFFFFFFFF AND CALLER PUSH20 0xFFFFFFFFFFFFFFFFFFFFFFFFFFFFFFFFFFFFFFFF AND EQ JUMPDEST PUSH2 0x3EAD JUMPI PUSH1 0x40 MLOAD PUSH32 0x8C379A000000000000000000000000000000000000000000000000000000000 DUP2 MSTORE PUSH1 0x4 ADD PUSH2 0x3EA4 SWAP1 PUSH2 0x5ECA JUMP JUMPDEST PUSH1 0x40 MLOAD DUP1 SWAP2 SUB SWAP1 REVERT JUMPDEST PUSH1 0x0 PUSH1 0xB DUP4 DUP2 SLOAD DUP2 LT PUSH2 0x3EC3 JUMPI PUSH2 0x3EC2 PUSH2 0x556A JUMP JUMPDEST JUMPDEST SWAP1 PUSH1 0x0 MSTORE PUSH1 0x20 PUSH1 0x0 KECCAK256 SWAP1 PUSH1 0x3 MUL ADD PUSH1 0x1 ADD SLOAD GT PUSH2 0x3EDF JUMPI PUSH1 0x0 DUP1 REVERT JUMPDEST PUSH1 0x0 DUP2 GT PUSH2 0x3EEC JUMPI PUSH1 0x0 DUP1 REVERT JUMPDEST PUSH2 0x3EF5 DUP4 PUSH2 0x4175 JUMP JUMPDEST PUSH1 0x0 DUP2 PUSH1 0xB DUP5 DUP2 SLOAD DUP2 LT PUSH2 0x3F0C JUMPI PUSH2 0x3F0B PUSH2 0x556A JUMP JUMPDEST JUMPDEST SWAP1 PUSH1 0x0 MSTORE PUSH1 0x20 PUSH1 0x0 KECCAK256 SWAP1 PUSH1 0x3 MUL ADD PUSH1 0x1 ADD SLOAD PUSH2 0x3F28 SWAP2 SWAP1 PUSH2 0x5639 JUMP JUMPDEST SWAP1 POP PUSH1 0x0 DUP3 PUSH1 0xB DUP6 DUP2 SLOAD DUP2 LT PUSH2 0x3F41 JUMPI PUSH2 0x3F40 PUSH2 0x556A JUMP JUMPDEST JUMPDEST SWAP1 PUSH1 0x0 MSTORE PUSH1 0x20 PUSH1 0x0 KECCAK256 SWAP1 PUSH1 0x3 MUL ADD PUSH1 0x2 ADD SLOAD PUSH2 0x3F5D SWAP2 SWAP1 PUSH2 0x5639 JUMP JUMPDEST SWAP1 POP DUP1 PUSH1 0x11 PUSH1 0x0 DUP3 DUP3 SLOAD PUSH2 0x3F71 SWAP2 SWAP1 PUSH2 0x5536 JUMP JUMPDEST SWAP3 POP POP DUP2 SWAP1 SSTORE POP DUP2 PUSH1 0xE PUSH1 0x0 DUP3 DUP3 SLOAD PUSH2 0x3F8A SWAP2 SWAP1 PUSH2 0x5536 JUMP JUMPDEST SWAP3 POP POP DUP2 SWAP1 SSTORE POP DUP3 PUSH1 0xC PUSH1 0x0 DUP8 PUSH20 0xFFFFFFFFFFFFFFFFFFFFFFFFFFFFFFFFFFFFFFFF AND PUSH20 0xFFFFFFFFFFFFFFFFFFFFFFFFFFFFFFFFFFFFFFFF AND DUP2 MSTORE PUSH1 0x20 ADD SWAP1 DUP2 MSTORE PUSH1 0x20 ADD PUSH1 0x0 KECCAK256 PUSH1 0x0 DUP7 DUP2 MSTORE PUSH1 0x20 ADD SWAP1 DUP2 MSTORE PUSH1 0x20 ADD PUSH1 0x0 KECCAK256 SLOAD PUSH2 0x3FED SWAP2 SWAP1 PUSH2 0x5536 JUMP JUMPDEST PUSH1 0xC PUSH1 0x0 DUP8 PUSH20 0xFFFFFFFFFFFFFFFFFFFFFFFFFFFFFFFFFFFFFFFF AND PUSH20 0xFFFFFFFFFFFFFFFFFFFFFFFFFFFFFFFFFFFFFFFF AND DUP2 MSTORE PUSH1 0x20 ADD SWAP1 DUP2 MSTORE PUSH1 0x20 ADD PUSH1 0x0 KECCAK256 PUSH1 0x0 DUP7 DUP2 MSTORE PUSH1 0x20 ADD SWAP1 DUP2 MSTORE PUSH1 0x20 ADD PUSH1 0x0 KECCAK256 DUP2 SWAP1 SSTORE POP DUP2 PUSH1 0x13 PUSH1 0x0 DUP8 PUSH20 0xFFFFFFFFFFFFFFFFFFFFFFFFFFFFFFFFFFFFFFFF AND PUSH20 0xFFFFFFFFFFFFFFFFFFFFFFFFFFFFFFFFFFFFFFFF AND DUP2 MSTORE PUSH1 0x20 ADD SWAP1 DUP2 MSTORE PUSH1 0x20 ADD PUSH1 0x0 KECCAK256 PUSH1 0x0 DUP3 DUP3 SLOAD PUSH2 0x4090 SWAP2 SWAP1 PUSH2 0x5536 JUMP JUMPDEST SWAP3 POP POP DUP2 SWAP1 SSTORE POP DUP5 PUSH20 0xFFFFFFFFFFFFFFFFFFFFFFFFFFFFFFFFFFFFFFFF AND PUSH32 0xD0F61FA028335EAB19421DDB80993C322711A77715C7BD730EAF3F4415FB954B DUP6 DUP6 PUSH1 0x40 MLOAD PUSH2 0x40DF SWAP3 SWAP2 SWAP1 PUSH2 0x5153 JUMP JUMPDEST PUSH1 0x40 MLOAD DUP1 SWAP2 SUB SWAP1 LOG2 POP POP POP POP POP JUMP JUMPDEST PUSH2 0x40F6 PUSH2 0x4B97 JUMP JUMPDEST PUSH20 0xFFFFFFFFFFFFFFFFFFFFFFFFFFFFFFFFFFFFFFFF AND PUSH2 0x4114 PUSH2 0x2790 JUMP JUMPDEST PUSH20 0xFFFFFFFFFFFFFFFFFFFFFFFFFFFFFFFFFFFFFFFF AND EQ PUSH2 0x4173 JUMPI PUSH2 0x4137 PUSH2 0x4B97 JUMP JUMPDEST PUSH1 0x40 MLOAD PUSH32 0x118CDAA700000000000000000000000000000000000000000000000000000000 DUP2 MSTORE PUSH1 0x4 ADD PUSH2 0x416A SWAP2 SWAP1 PUSH2 0x540A JUMP JUMPDEST PUSH1 0x40 MLOAD DUP1 SWAP2 SUB SWAP1 REVERT JUMPDEST JUMP JUMPDEST PUSH2 0x417E DUP2 PUSH2 0x46F6 JUMP JUMPDEST PUSH2 0x4187 DUP2 PUSH2 0x49DA JUMP JUMPDEST POP JUMP JUMPDEST PUSH1 0x0 PUSH1 0x1F PUSH1 0x0 CALLER PUSH20 0xFFFFFFFFFFFFFFFFFFFFFFFFFFFFFFFFFFFFFFFF AND PUSH20 0xFFFFFFFFFFFFFFFFFFFFFFFFFFFFFFFFFFFFFFFF AND DUP2 MSTORE PUSH1 0x20 ADD SWAP1 DUP2 MSTORE PUSH1 0x20 ADD PUSH1 0x0 KECCAK256 SLOAD SUB PUSH2 0x4237 JUMPI PUSH1 0x1 PUSH1 0x7 PUSH1 0x0 DUP3 DUP3 SLOAD PUSH2 0x41E4 SWAP2 SWAP1 PUSH2 0x5536 JUMP JUMPDEST SWAP3 POP POP DUP2 SWAP1 SSTORE POP PUSH2 0x41F3 PUSH2 0x128D JUMP JUMPDEST PUSH1 0x1F PUSH1 0x0 CALLER PUSH20 0xFFFFFFFFFFFFFFFFFFFFFFFFFFFFFFFFFFFFFFFF AND PUSH20 0xFFFFFFFFFFFFFFFFFFFFFFFFFFFFFFFFFFFFFFFF AND DUP2 MSTORE PUSH1 0x20 ADD SWAP1 DUP2 MSTORE PUSH1 0x20 ADD PUSH1 0x0 KECCAK256 DUP2 SWAP1 SSTORE POP JUMPDEST PUSH1 0x2 PUSH1 0x0 SWAP1 SLOAD SWAP1 PUSH2 0x100 EXP SWAP1 DIV PUSH20 0xFFFFFFFFFFFFFFFFFFFFFFFFFFFFFFFFFFFFFFFF AND PUSH20 0xFFFFFFFFFFFFFFFFFFFFFFFFFFFFFFFFFFFFFFFF AND PUSH4 0x23B872DD PUSH2 0x427D PUSH2 0x2790 JUMP JUMPDEST DUP5 PUSH8 0xDE0B6B3A7640000 DUP6 PUSH2 0x4292 SWAP2 SWAP1 PUSH2 0x5639 JUMP JUMPDEST PUSH1 0x40 MLOAD DUP5 PUSH4 0xFFFFFFFF AND PUSH1 0xE0 SHL DUP2 MSTORE PUSH1 0x4 ADD PUSH2 0x42B0 SWAP4 SWAP3 SWAP2 SWAP1 PUSH2 0x5D03 JUMP JUMPDEST PUSH1 0x20 PUSH1 0x40 MLOAD DUP1 DUP4 SUB DUP2 PUSH1 0x0 DUP8 GAS CALL ISZERO DUP1 ISZERO PUSH2 0x42CF JUMPI RETURNDATASIZE PUSH1 0x0 DUP1 RETURNDATACOPY RETURNDATASIZE PUSH1 0x0 REVERT JUMPDEST POP POP POP POP PUSH1 0x40 MLOAD RETURNDATASIZE PUSH1 0x1F NOT PUSH1 0x1F DUP3 ADD AND DUP3 ADD DUP1 PUSH1 0x40 MSTORE POP DUP2 ADD SWAP1 PUSH2 0x42F3 SWAP2 SWAP1 PUSH2 0x586D JUMP JUMPDEST POP DUP1 PUSH1 0x8 PUSH1 0x0 DUP5 PUSH20 0xFFFFFFFFFFFFFFFFFFFFFFFFFFFFFFFFFFFFFFFF AND PUSH20 0xFFFFFFFFFFFFFFFFFFFFFFFFFFFFFFFFFFFFFFFF AND DUP2 MSTORE PUSH1 0x20 ADD SWAP1 DUP2 MSTORE PUSH1 0x20 ADD PUSH1 0x0 KECCAK256 PUSH1 0x0 DUP3 DUP3 SLOAD PUSH2 0x4343 SWAP2 SWAP1 PUSH2 0x5536 JUMP JUMPDEST SWAP3 POP POP DUP2 SWAP1 SSTORE POP POP POP JUMP JUMPDEST PUSH1 0x0 DUP1 PUSH1 0x12 PUSH1 0x0 DUP5 PUSH20 0xFFFFFFFFFFFFFFFFFFFFFFFFFFFFFFFFFFFFFFFF AND PUSH20 0xFFFFFFFFFFFFFFFFFFFFFFFFFFFFFFFFFFFFFFFF AND DUP2 MSTORE PUSH1 0x20 ADD SWAP1 DUP2 MSTORE PUSH1 0x20 ADD PUSH1 0x0 KECCAK256 SLOAD PUSH1 0x15 PUSH1 0x0 DUP6 PUSH20 0xFFFFFFFFFFFFFFFFFFFFFFFFFFFFFFFFFFFFFFFF AND PUSH20 0xFFFFFFFFFFFFFFFFFFFFFFFFFFFFFFFFFFFFFFFF AND DUP2 MSTORE PUSH1 0x20 ADD SWAP1 DUP2 MSTORE PUSH1 0x20 ADD PUSH1 0x0 KECCAK256 SLOAD PUSH1 0x14 SLOAD PUSH2 0x43DE SWAP2 SWAP1 PUSH2 0x5599 JUMP JUMPDEST PUSH2 0x43E8 SWAP2 SWAP1 PUSH2 0x5639 JUMP JUMPDEST SWAP1 POP PUSH1 0x0 PUSH1 0x13 PUSH1 0x0 DUP6 PUSH20 0xFFFFFFFFFFFFFFFFFFFFFFFFFFFFFFFFFFFFFFFF AND PUSH20 0xFFFFFFFFFFFFFFFFFFFFFFFFFFFFFFFFFFFFFFFF AND DUP2 MSTORE PUSH1 0x20 ADD SWAP1 DUP2 MSTORE PUSH1 0x20 ADD PUSH1 0x0 KECCAK256 SLOAD PUSH1 0x17 PUSH1 0x0 DUP7 PUSH20 0xFFFFFFFFFFFFFFFFFFFFFFFFFFFFFFFFFFFFFFFF AND PUSH20 0xFFFFFFFFFFFFFFFFFFFFFFFFFFFFFFFFFFFFFFFF AND DUP2 MSTORE PUSH1 0x20 ADD SWAP1 DUP2 MSTORE PUSH1 0x20 ADD PUSH1 0x0 KECCAK256 SLOAD PUSH1 0x16 SLOAD PUSH2 0x4479 SWAP2 SWAP1 PUSH2 0x5599 JUMP JUMPDEST PUSH2 0x4483 SWAP2 SWAP1 PUSH2 0x5639 JUMP JUMPDEST SWAP1 POP PUSH8 0xDE0B6B3A7640000 DUP2 DUP4 PUSH2 0x449A SWAP2 SWAP1 PUSH2 0x5536 JUMP JUMPDEST PUSH2 0x44A4 SWAP2 SWAP1 PUSH2 0x56AA JUMP JUMPDEST SWAP3 POP POP POP SWAP2 SWAP1 POP JUMP JUMPDEST PUSH1 0x0 DUP1 PUSH1 0x0 SWAP1 SLOAD SWAP1 PUSH2 0x100 EXP SWAP1 DIV PUSH20 0xFFFFFFFFFFFFFFFFFFFFFFFFFFFFFFFFFFFFFFFF AND SWAP1 POP DUP2 PUSH1 0x0 DUP1 PUSH2 0x100 EXP DUP2 SLOAD DUP2 PUSH20 0xFFFFFFFFFFFFFFFFFFFFFFFFFFFFFFFFFFFFFFFF MUL NOT AND SWAP1 DUP4 PUSH20 0xFFFFFFFFFFFFFFFFFFFFFFFFFFFFFFFFFFFFFFFF AND MUL OR SWAP1 SSTORE POP DUP2 PUSH20 0xFFFFFFFFFFFFFFFFFFFFFFFFFFFFFFFFFFFFFFFF AND DUP2 PUSH20 0xFFFFFFFFFFFFFFFFFFFFFFFFFFFFFFFFFFFFFFFF AND PUSH32 0x8BE0079C531659141344CD1FD0A4F28419497F9722A3DAAFE3B4186F6B6457E0 PUSH1 0x40 MLOAD PUSH1 0x40 MLOAD DUP1 SWAP2 SUB SWAP1 LOG3 POP POP JUMP JUMPDEST PUSH1 0x0 DUP1 PUSH1 0x0 SWAP1 POP PUSH1 0x0 DUP4 SWAP1 POP PUSH1 0x0 PUSH1 0x5 SLOAD SWAP1 POP PUSH1 0x0 JUMPDEST PUSH1 0x3 DUP1 SLOAD SWAP1 POP DUP2 LT DUP1 ISZERO PUSH2 0x459B JUMPI POP PUSH1 0x0 DUP4 GT JUMPDEST ISZERO PUSH2 0x46EA JUMPI PUSH1 0x0 PUSH1 0x3 DUP3 DUP2 SLOAD DUP2 LT PUSH2 0x45B6 JUMPI PUSH2 0x45B5 PUSH2 0x556A JUMP JUMPDEST JUMPDEST SWAP1 PUSH1 0x0 MSTORE PUSH1 0x20 PUSH1 0x0 KECCAK256 SWAP1 PUSH1 0x2 MUL ADD PUSH1 0x40 MLOAD DUP1 PUSH1 0x40 ADD PUSH1 0x40 MSTORE SWAP1 DUP2 PUSH1 0x0 DUP3 ADD SLOAD DUP2 MSTORE PUSH1 0x20 ADD PUSH1 0x1 DUP3 ADD SLOAD DUP2 MSTORE POP POP SWAP1 POP PUSH1 0x0 DUP1 JUMPDEST DUP4 DUP2 GT PUSH2 0x4636 JUMPI PUSH1 0x3 DUP2 DUP2 SLOAD DUP2 LT PUSH2 0x4604 JUMPI PUSH2 0x4603 PUSH2 0x556A JUMP JUMPDEST JUMPDEST SWAP1 PUSH1 0x0 MSTORE PUSH1 0x20 PUSH1 0x0 KECCAK256 SWAP1 PUSH1 0x2 MUL ADD PUSH1 0x0 ADD SLOAD DUP3 PUSH2 0x4621 SWAP2 SWAP1 PUSH2 0x5536 JUMP JUMPDEST SWAP2 POP DUP1 DUP1 PUSH2 0x462E SWAP1 PUSH2 0x5EEA JUMP JUMPDEST SWAP2 POP POP PUSH2 0x45E9 JUMP JUMPDEST POP PUSH1 0x0 DUP5 DUP3 GT PUSH2 0x4647 JUMPI PUSH1 0x0 PUSH2 0x4654 JUMP JUMPDEST DUP5 DUP3 PUSH2 0x4653 SWAP2 SWAP1 PUSH2 0x5599 JUMP JUMPDEST JUMPDEST SWAP1 POP PUSH1 0x0 DUP2 SUB PUSH2 0x4666 JUMPI POP POP POP PUSH2 0x46D7 JUMP JUMPDEST PUSH1 0x0 DUP4 PUSH1 0x20 ADD MLOAD DUP3 PUSH2 0x4678 SWAP2 SWAP1 PUSH2 0x5639 JUMP JUMPDEST SWAP1 POP DUP1 DUP8 LT PUSH2 0x46B0 JUMPI DUP2 DUP9 PUSH2 0x468D SWAP2 SWAP1 PUSH2 0x5536 JUMP JUMPDEST SWAP8 POP DUP1 DUP8 PUSH2 0x469B SWAP2 SWAP1 PUSH2 0x5599 JUMP JUMPDEST SWAP7 POP DUP2 DUP7 PUSH2 0x46A9 SWAP2 SWAP1 PUSH2 0x5536 JUMP JUMPDEST SWAP6 POP PUSH2 0x46D2 JUMP JUMPDEST DUP4 PUSH1 0x20 ADD MLOAD DUP8 PUSH2 0x46C0 SWAP2 SWAP1 PUSH2 0x56AA JUMP JUMPDEST DUP9 PUSH2 0x46CB SWAP2 SWAP1 PUSH2 0x5536 JUMP JUMPDEST SWAP8 POP PUSH1 0x0 SWAP7 POP JUMPDEST POP POP POP POP JUMPDEST DUP1 DUP1 PUSH2 0x46E2 SWAP1 PUSH2 0x5EEA JUMP JUMPDEST SWAP2 POP POP PUSH2 0x4587 JUMP JUMPDEST POP DUP3 SWAP4 POP POP POP POP SWAP2 SWAP1 POP JUMP JUMPDEST PUSH1 0x0 PUSH2 0x4701 DUP3 PUSH2 0x434E JUMP JUMPDEST SWAP1 POP PUSH1 0x0 DUP2 GT ISZERO PUSH2 0x483D JUMPI DUP1 PUSH1 0x1A PUSH1 0x0 DUP5 PUSH20 0xFFFFFFFFFFFFFFFFFFFFFFFFFFFFFFFFFFFFFFFF AND PUSH20 0xFFFFFFFFFFFFFFFFFFFFFFFFFFFFFFFFFFFFFFFF AND DUP2 MSTORE PUSH1 0x20 ADD SWAP1 DUP2 MSTORE PUSH1 0x20 ADD PUSH1 0x0 KECCAK256 PUSH1 0x0 DUP3 DUP3 SLOAD PUSH2 0x475B SWAP2 SWAP1 PUSH2 0x5536 JUMP JUMPDEST SWAP3 POP POP DUP2 SWAP1 SSTORE POP PUSH1 0x14 SLOAD PUSH1 0x15 PUSH1 0x0 DUP5 PUSH20 0xFFFFFFFFFFFFFFFFFFFFFFFFFFFFFFFFFFFFFFFF AND PUSH20 0xFFFFFFFFFFFFFFFFFFFFFFFFFFFFFFFFFFFFFFFF AND DUP2 MSTORE PUSH1 0x20 ADD SWAP1 DUP2 MSTORE PUSH1 0x20 ADD PUSH1 0x0 KECCAK256 DUP2 SWAP1 SSTORE POP PUSH1 0x16 SLOAD PUSH1 0x17 PUSH1 0x0 DUP5 PUSH20 0xFFFFFFFFFFFFFFFFFFFFFFFFFFFFFFFFFFFFFFFF AND PUSH20 0xFFFFFFFFFFFFFFFFFFFFFFFFFFFFFFFFFFFFFFFF AND DUP2 MSTORE PUSH1 0x20 ADD SWAP1 DUP2 MSTORE PUSH1 0x20 ADD PUSH1 0x0 KECCAK256 DUP2 SWAP1 SSTORE POP DUP2 PUSH20 0xFFFFFFFFFFFFFFFFFFFFFFFFFFFFFFFFFFFFFFFF AND PUSH32 0x670624ED0A09E14166459D983969BAA4FA27E42FD398B8C3834BA764CB797A69 DUP3 PUSH1 0x40 MLOAD PUSH2 0x4834 SWAP2 SWAP1 PUSH2 0x4CE1 JUMP JUMPDEST PUSH1 0x40 MLOAD DUP1 SWAP2 SUB SWAP1 LOG2 JUMPDEST POP POP JUMP JUMPDEST PUSH1 0x2 PUSH1 0x0 SWAP1 SLOAD SWAP1 PUSH2 0x100 EXP SWAP1 DIV PUSH20 0xFFFFFFFFFFFFFFFFFFFFFFFFFFFFFFFFFFFFFFFF AND PUSH20 0xFFFFFFFFFFFFFFFFFFFFFFFFFFFFFFFFFFFFFFFF AND PUSH4 0x23B872DD DUP4 PUSH2 0x4888 PUSH2 0x2790 JUMP JUMPDEST PUSH8 0xDE0B6B3A7640000 DUP6 PUSH2 0x489C SWAP2 SWAP1 PUSH2 0x5639 JUMP JUMPDEST PUSH1 0x40 MLOAD DUP5 PUSH4 0xFFFFFFFF AND PUSH1 0xE0 SHL DUP2 MSTORE PUSH1 0x4 ADD PUSH2 0x48BA SWAP4 SWAP3 SWAP2 SWAP1 PUSH2 0x5D03 JUMP JUMPDEST PUSH1 0x20 PUSH1 0x40 MLOAD DUP1 DUP4 SUB DUP2 PUSH1 0x0 DUP8 GAS CALL ISZERO DUP1 ISZERO PUSH2 0x48D9 JUMPI RETURNDATASIZE PUSH1 0x0 DUP1 RETURNDATACOPY RETURNDATASIZE PUSH1 0x0 REVERT JUMPDEST POP POP POP POP PUSH1 0x40 MLOAD RETURNDATASIZE PUSH1 0x1F NOT PUSH1 0x1F DUP3 ADD AND DUP3 ADD DUP1 PUSH1 0x40 MSTORE POP DUP2 ADD SWAP1 PUSH2 0x48FD SWAP2 SWAP1 PUSH2 0x586D JUMP JUMPDEST POP DUP1 PUSH1 0x8 PUSH1 0x0 DUP5 PUSH20 0xFFFFFFFFFFFFFFFFFFFFFFFFFFFFFFFFFFFFFFFF AND PUSH20 0xFFFFFFFFFFFFFFFFFFFFFFFFFFFFFFFFFFFFFFFF AND DUP2 MSTORE PUSH1 0x20 ADD SWAP1 DUP2 MSTORE PUSH1 0x20 ADD PUSH1 0x0 KECCAK256 SLOAD LT ISZERO PUSH2 0x4980 JUMPI PUSH1 0x40 MLOAD PUSH32 0x8C379A000000000000000000000000000000000000000000000000000000000 DUP2 MSTORE PUSH1 0x4 ADD PUSH2 0x4977 SWAP1 PUSH2 0x5F7E JUMP JUMPDEST PUSH1 0x40 MLOAD DUP1 SWAP2 SUB SWAP1 REVERT JUMPDEST DUP1 PUSH1 0x8 PUSH1 0x0 DUP5 PUSH20 0xFFFFFFFFFFFFFFFFFFFFFFFFFFFFFFFFFFFFFFFF AND PUSH20 0xFFFFFFFFFFFFFFFFFFFFFFFFFFFFFFFFFFFFFFFF AND DUP2 MSTORE PUSH1 0x20 ADD SWAP1 DUP2 MSTORE PUSH1 0x20 ADD PUSH1 0x0 KECCAK256 PUSH1 0x0 DUP3 DUP3 SLOAD PUSH2 0x49CF SWAP2 SWAP1 PUSH2 0x5599 JUMP JUMPDEST SWAP3 POP POP DUP2 SWAP1 SSTORE POP POP POP JUMP JUMPDEST PUSH1 0x0 PUSH1 0x1C PUSH1 0x0 DUP4 PUSH20 0xFFFFFFFFFFFFFFFFFFFFFFFFFFFFFFFFFFFFFFFF AND PUSH20 0xFFFFFFFFFFFFFFFFFFFFFFFFFFFFFFFFFFFFFFFF AND DUP2 MSTORE PUSH1 0x20 ADD SWAP1 DUP2 MSTORE PUSH1 0x20 ADD PUSH1 0x0 KECCAK256 SLOAD SUB PUSH2 0x4A66 JUMPI TIMESTAMP PUSH1 0x1C PUSH1 0x0 DUP4 PUSH20 0xFFFFFFFFFFFFFFFFFFFFFFFFFFFFFFFFFFFFFFFF AND PUSH20 0xFFFFFFFFFFFFFFFFFFFFFFFFFFFFFFFFFFFFFFFF AND DUP2 MSTORE PUSH1 0x20 ADD SWAP1 DUP2 MSTORE PUSH1 0x20 ADD PUSH1 0x0 KECCAK256 DUP2 SWAP1 SSTORE POP JUMPDEST PUSH1 0x1C PUSH1 0x0 DUP3 PUSH20 0xFFFFFFFFFFFFFFFFFFFFFFFFFFFFFFFFFFFFFFFF AND PUSH20 0xFFFFFFFFFFFFFFFFFFFFFFFFFFFFFFFFFFFFFFFF AND DUP2 MSTORE PUSH1 0x20 ADD SWAP1 DUP2 MSTORE PUSH1 0x20 ADD PUSH1 0x0 KECCAK256 SLOAD TIMESTAMP PUSH2 0x4AB1 SWAP2 SWAP1 PUSH2 0x5599 JUMP JUMPDEST PUSH1 0x13 PUSH1 0x0 DUP4 PUSH20 0xFFFFFFFFFFFFFFFFFFFFFFFFFFFFFFFFFFFFFFFF AND PUSH20 0xFFFFFFFFFFFFFFFFFFFFFFFFFFFFFFFFFFFFFFFF AND DUP2 MSTORE PUSH1 0x20 ADD SWAP1 DUP2 MSTORE PUSH1 0x20 ADD PUSH1 0x0 KECCAK256 SLOAD PUSH2 0x4AFB SWAP2 SWAP1 PUSH2 0x5639 JUMP JUMPDEST PUSH1 0x1D PUSH1 0x0 DUP4 PUSH20 0xFFFFFFFFFFFFFFFFFFFFFFFFFFFFFFFFFFFFFFFF AND PUSH20 0xFFFFFFFFFFFFFFFFFFFFFFFFFFFFFFFFFFFFFFFF AND DUP2 MSTORE PUSH1 0x20 ADD SWAP1 DUP2 MSTORE PUSH1 0x20 ADD PUSH1 0x0 KECCAK256 PUSH1 0x0 DUP3 DUP3 SLOAD PUSH2 0x4B49 SWAP2 SWAP1 PUSH2 0x5536 JUMP JUMPDEST SWAP3 POP POP DUP2 SWAP1 SSTORE POP TIMESTAMP PUSH1 0x1C PUSH1 0x0 DUP4 PUSH20 0xFFFFFFFFFFFFFFFFFFFFFFFFFFFFFFFFFFFFFFFF AND PUSH20 0xFFFFFFFFFFFFFFFFFFFFFFFFFFFFFFFFFFFFFFFF AND DUP2 MSTORE PUSH1 0x20 ADD SWAP1 DUP2 MSTORE PUSH1 0x20 ADD PUSH1 0x0 KECCAK256 DUP2 SWAP1 SSTORE POP POP JUMP JUMPDEST PUSH1 0x0 CALLER SWAP1 POP SWAP1 JUMP JUMPDEST POP DUP1 SLOAD PUSH1 0x0 DUP3 SSTORE PUSH1 0x2 MUL SWAP1 PUSH1 0x0 MSTORE PUSH1 0x20 PUSH1 0x0 KECCAK256 SWAP1 DUP2 ADD SWAP1 PUSH2 0x4BC0 SWAP2 SWAP1 PUSH2 0x4BC3 JUMP JUMPDEST POP JUMP JUMPDEST JUMPDEST DUP1 DUP3 GT ISZERO PUSH2 0x4BE6 JUMPI PUSH1 0x0 DUP1 DUP3 ADD PUSH1 0x0 SWAP1 SSTORE PUSH1 0x1 DUP3 ADD PUSH1 0x0 SWAP1 SSTORE POP PUSH1 0x2 ADD PUSH2 0x4BC4 JUMP JUMPDEST POP SWAP1 JUMP JUMPDEST PUSH1 0x0 PUSH1 0x40 MLOAD SWAP1 POP SWAP1 JUMP JUMPDEST PUSH1 0x0 DUP1 REVERT JUMPDEST PUSH1 0x0 DUP1 REVERT JUMPDEST PUSH1 0x0 PUSH20 0xFFFFFFFFFFFFFFFFFFFFFFFFFFFFFFFFFFFFFFFF DUP3 AND SWAP1 POP SWAP2 SWAP1 POP JUMP JUMPDEST PUSH1 0x0 PUSH2 0x4C29 DUP3 PUSH2 0x4BFE JUMP JUMPDEST SWAP1 POP SWAP2 SWAP1 POP JUMP JUMPDEST PUSH2 0x4C39 DUP2 PUSH2 0x4C1E JUMP JUMPDEST DUP2 EQ PUSH2 0x4C44 JUMPI PUSH1 0x0 DUP1 REVERT JUMPDEST POP JUMP JUMPDEST PUSH1 0x0 DUP2 CALLDATALOAD SWAP1 POP PUSH2 0x4C56 DUP2 PUSH2 0x4C30 JUMP JUMPDEST SWAP3 SWAP2 POP POP JUMP JUMPDEST PUSH1 0x0 DUP2 SWAP1 POP SWAP2 SWAP1 POP JUMP JUMPDEST PUSH2 0x4C6F DUP2 PUSH2 0x4C5C JUMP JUMPDEST DUP2 EQ PUSH2 0x4C7A JUMPI PUSH1 0x0 DUP1 REVERT JUMPDEST POP JUMP JUMPDEST PUSH1 0x0 DUP2 CALLDATALOAD SWAP1 POP PUSH2 0x4C8C DUP2 PUSH2 0x4C66 JUMP JUMPDEST SWAP3 SWAP2 POP POP JUMP JUMPDEST PUSH1 0x0 DUP1 PUSH1 0x40 DUP4 DUP6 SUB SLT ISZERO PUSH2 0x4CA9 JUMPI PUSH2 0x4CA8 PUSH2 0x4BF4 JUMP JUMPDEST JUMPDEST PUSH1 0x0 PUSH2 0x4CB7 DUP6 DUP3 DUP7 ADD PUSH2 0x4C47 JUMP JUMPDEST SWAP3 POP POP PUSH1 0x20 PUSH2 0x4CC8 DUP6 DUP3 DUP7 ADD PUSH2 0x4C7D JUMP JUMPDEST SWAP2 POP POP SWAP3 POP SWAP3 SWAP1 POP JUMP JUMPDEST PUSH2 0x4CDB DUP2 PUSH2 0x4C5C JUMP JUMPDEST DUP3 MSTORE POP POP JUMP JUMPDEST PUSH1 0x0 PUSH1 0x20 DUP3 ADD SWAP1 POP PUSH2 0x4CF6 PUSH1 0x0 DUP4 ADD DUP5 PUSH2 0x4CD2 JUMP JUMPDEST SWAP3 SWAP2 POP POP JUMP JUMPDEST PUSH1 0x0 DUP1 PUSH1 0x40 DUP4 DUP6 SUB SLT ISZERO PUSH2 0x4D13 JUMPI PUSH2 0x4D12 PUSH2 0x4BF4 JUMP JUMPDEST JUMPDEST PUSH1 0x0 PUSH2 0x4D21 DUP6 DUP3 DUP7 ADD PUSH2 0x4C7D JUMP JUMPDEST SWAP3 POP POP PUSH1 0x20 PUSH2 0x4D32 DUP6 DUP3 DUP7 ADD PUSH2 0x4C7D JUMP JUMPDEST SWAP2 POP POP SWAP3 POP SWAP3 SWAP1 POP JUMP JUMPDEST PUSH1 0x0 PUSH1 0x20 DUP3 DUP5 SUB SLT ISZERO PUSH2 0x4D52 JUMPI PUSH2 0x4D51 PUSH2 0x4BF4 JUMP JUMPDEST JUMPDEST PUSH1 0x0 PUSH2 0x4D60 DUP5 DUP3 DUP6 ADD PUSH2 0x4C47 JUMP JUMPDEST SWAP2 POP POP SWAP3 SWAP2 POP POP JUMP JUMPDEST PUSH1 0x0 DUP2 ISZERO ISZERO SWAP1 POP SWAP2 SWAP1 POP JUMP JUMPDEST PUSH2 0x4D7E DUP2 PUSH2 0x4D69 JUMP JUMPDEST DUP2 EQ PUSH2 0x4D89 JUMPI PUSH1 0x0 DUP1 REVERT JUMPDEST POP JUMP JUMPDEST PUSH1 0x0 DUP2 CALLDATALOAD SWAP1 POP PUSH2 0x4D9B DUP2 PUSH2 0x4D75 JUMP JUMPDEST SWAP3 SWAP2 POP POP JUMP JUMPDEST PUSH1 0x0 PUSH1 0x20 DUP3 DUP5 SUB SLT ISZERO PUSH2 0x4DB7 JUMPI PUSH2 0x4DB6 PUSH2 0x4BF4 JUMP JUMPDEST JUMPDEST PUSH1 0x0 PUSH2 0x4DC5 DUP5 DUP3 DUP6 ADD PUSH2 0x4D8C JUMP JUMPDEST SWAP2 POP POP SWAP3 SWAP2 POP POP JUMP JUMPDEST PUSH1 0x0 DUP2 SWAP1 POP SWAP2 SWAP1 POP JUMP JUMPDEST PUSH1 0x0 PUSH2 0x4DF3 PUSH2 0x4DEE PUSH2 0x4DE9 DUP5 PUSH2 0x4BFE JUMP JUMPDEST PUSH2 0x4DCE JUMP JUMPDEST PUSH2 0x4BFE JUMP JUMPDEST SWAP1 POP SWAP2 SWAP1 POP JUMP JUMPDEST PUSH1 0x0 PUSH2 0x4E05 DUP3 PUSH2 0x4DD8 JUMP JUMPDEST SWAP1 POP SWAP2 SWAP1 POP JUMP JUMPDEST PUSH1 0x0 PUSH2 0x4E17 DUP3 PUSH2 0x4DFA JUMP JUMPDEST SWAP1 POP SWAP2 SWAP1 POP JUMP JUMPDEST PUSH2 0x4E27 DUP2 PUSH2 0x4E0C JUMP JUMPDEST DUP3 MSTORE POP POP JUMP JUMPDEST PUSH1 0x0 PUSH1 0x20 DUP3 ADD SWAP1 POP PUSH2 0x4E42 PUSH1 0x0 DUP4 ADD DUP5 PUSH2 0x4E1E JUMP JUMPDEST SWAP3 SWAP2 POP POP JUMP JUMPDEST PUSH1 0x0 DUP1 REVERT JUMPDEST PUSH1 0x0 PUSH1 0x1F NOT PUSH1 0x1F DUP4 ADD AND SWAP1 POP SWAP2 SWAP1 POP JUMP JUMPDEST PUSH32 0x4E487B7100000000000000000000000000000000000000000000000000000000 PUSH1 0x0 MSTORE PUSH1 0x41 PUSH1 0x4 MSTORE PUSH1 0x24 PUSH1 0x0 REVERT JUMPDEST PUSH2 0x4E96 DUP3 PUSH2 0x4E4D JUMP JUMPDEST DUP2 ADD DUP2 DUP2 LT PUSH8 0xFFFFFFFFFFFFFFFF DUP3 GT OR ISZERO PUSH2 0x4EB5 JUMPI PUSH2 0x4EB4 PUSH2 0x4E5E JUMP JUMPDEST JUMPDEST DUP1 PUSH1 0x40 MSTORE POP POP POP JUMP JUMPDEST PUSH1 0x0 PUSH2 0x4EC8 PUSH2 0x4BEA JUMP JUMPDEST SWAP1 POP PUSH2 0x4ED4 DUP3 DUP3 PUSH2 0x4E8D JUMP JUMPDEST SWAP2 SWAP1 POP JUMP JUMPDEST PUSH1 0x0 PUSH8 0xFFFFFFFFFFFFFFFF DUP3 GT ISZERO PUSH2 0x4EF4 JUMPI PUSH2 0x4EF3 PUSH2 0x4E5E JUMP JUMPDEST JUMPDEST PUSH1 0x20 DUP3 MUL SWAP1 POP PUSH1 0x20 DUP2 ADD SWAP1 POP SWAP2 SWAP1 POP JUMP JUMPDEST PUSH1 0x0 DUP1 REVERT JUMPDEST PUSH1 0x0 DUP1 REVERT JUMPDEST PUSH1 0x0 PUSH1 0x40 DUP3 DUP5 SUB SLT ISZERO PUSH2 0x4F25 JUMPI PUSH2 0x4F24 PUSH2 0x4F0A JUMP JUMPDEST JUMPDEST PUSH2 0x4F2F PUSH1 0x40 PUSH2 0x4EBE JUMP JUMPDEST SWAP1 POP PUSH1 0x0 PUSH2 0x4F3F DUP5 DUP3 DUP6 ADD PUSH2 0x4C7D JUMP JUMPDEST PUSH1 0x0 DUP4 ADD MSTORE POP PUSH1 0x20 PUSH2 0x4F53 DUP5 DUP3 DUP6 ADD PUSH2 0x4C7D JUMP JUMPDEST PUSH1 0x20 DUP4 ADD MSTORE POP SWAP3 SWAP2 POP POP JUMP JUMPDEST PUSH1 0x0 PUSH2 0x4F72 PUSH2 0x4F6D DUP5 PUSH2 0x4ED9 JUMP JUMPDEST PUSH2 0x4EBE JUMP JUMPDEST SWAP1 POP DUP1 DUP4 DUP3 MSTORE PUSH1 0x20 DUP3 ADD SWAP1 POP PUSH1 0x40 DUP5 MUL DUP4 ADD DUP6 DUP2 GT ISZERO PUSH2 0x4F95 JUMPI PUSH2 0x4F94 PUSH2 0x4F05 JUMP JUMPDEST JUMPDEST DUP4 JUMPDEST DUP2 DUP2 LT ISZERO PUSH2 0x4FBE JUMPI DUP1 PUSH2 0x4FAA DUP9 DUP3 PUSH2 0x4F0F JUMP JUMPDEST DUP5 MSTORE PUSH1 0x20 DUP5 ADD SWAP4 POP POP PUSH1 0x40 DUP2 ADD SWAP1 POP PUSH2 0x4F97 JUMP JUMPDEST POP POP POP SWAP4 SWAP3 POP POP POP JUMP JUMPDEST PUSH1 0x0 DUP3 PUSH1 0x1F DUP4 ADD SLT PUSH2 0x4FDD JUMPI PUSH2 0x4FDC PUSH2 0x4E48 JUMP JUMPDEST JUMPDEST DUP2 CALLDATALOAD PUSH2 0x4FED DUP5 DUP3 PUSH1 0x20 DUP7 ADD PUSH2 0x4F5F JUMP JUMPDEST SWAP2 POP POP SWAP3 SWAP2 POP POP JUMP JUMPDEST PUSH1 0x0 PUSH1 0x20 DUP3 DUP5 SUB SLT ISZERO PUSH2 0x500C JUMPI PUSH2 0x500B PUSH2 0x4BF4 JUMP JUMPDEST JUMPDEST PUSH1 0x0 DUP3 ADD CALLDATALOAD PUSH8 0xFFFFFFFFFFFFFFFF DUP2 GT ISZERO PUSH2 0x502A JUMPI PUSH2 0x5029 PUSH2 0x4BF9 JUMP JUMPDEST JUMPDEST PUSH2 0x5036 DUP5 DUP3 DUP6 ADD PUSH2 0x4FC8 JUMP JUMPDEST SWAP2 POP POP SWAP3 SWAP2 POP POP JUMP JUMPDEST PUSH1 0x0 PUSH1 0x20 DUP3 DUP5 SUB SLT ISZERO PUSH2 0x5055 JUMPI PUSH2 0x5054 PUSH2 0x4BF4 JUMP JUMPDEST JUMPDEST PUSH1 0x0 PUSH2 0x5063 DUP5 DUP3 DUP6 ADD PUSH2 0x4C7D JUMP JUMPDEST SWAP2 POP POP SWAP3 SWAP2 POP POP JUMP JUMPDEST PUSH1 0x0 DUP2 MLOAD SWAP1 POP SWAP2 SWAP1 POP JUMP JUMPDEST PUSH1 0x0 DUP3 DUP3 MSTORE PUSH1 0x20 DUP3 ADD SWAP1 POP SWAP3 SWAP2 POP POP JUMP JUMPDEST PUSH1 0x0 JUMPDEST DUP4 DUP2 LT ISZERO PUSH2 0x50A6 JUMPI DUP1 DUP3 ADD MLOAD DUP2 DUP5 ADD MSTORE PUSH1 0x20 DUP2 ADD SWAP1 POP PUSH2 0x508B JUMP JUMPDEST PUSH1 0x0 DUP5 DUP5 ADD MSTORE POP POP POP POP JUMP JUMPDEST PUSH1 0x0 PUSH2 0x50BD DUP3 PUSH2 0x506C JUMP JUMPDEST PUSH2 0x50C7 DUP2 DUP6 PUSH2 0x5077 JUMP JUMPDEST SWAP4 POP PUSH2 0x50D7 DUP2 DUP6 PUSH1 0x20 DUP7 ADD PUSH2 0x5088 JUMP JUMPDEST PUSH2 0x50E0 DUP2 PUSH2 0x4E4D JUMP JUMPDEST DUP5 ADD SWAP2 POP POP SWAP3 SWAP2 POP POP JUMP JUMPDEST PUSH1 0x0 PUSH1 0x60 DUP3 ADD SWAP1 POP DUP2 DUP2 SUB PUSH1 0x0 DUP4 ADD MSTORE PUSH2 0x5105 DUP2 DUP7 PUSH2 0x50B2 JUMP JUMPDEST SWAP1 POP PUSH2 0x5114 PUSH1 0x20 DUP4 ADD DUP6 PUSH2 0x4CD2 JUMP JUMPDEST PUSH2 0x5121 PUSH1 0x40 DUP4 ADD DUP5 PUSH2 0x4CD2 JUMP JUMPDEST SWAP5 SWAP4 POP POP POP POP JUMP JUMPDEST PUSH2 0x5132 DUP2 PUSH2 0x4D69 JUMP JUMPDEST DUP3 MSTORE POP POP JUMP JUMPDEST PUSH1 0x0 PUSH1 0x20 DUP3 ADD SWAP1 POP PUSH2 0x514D PUSH1 0x0 DUP4 ADD DUP5 PUSH2 0x5129 JUMP JUMPDEST SWAP3 SWAP2 POP POP JUMP JUMPDEST PUSH1 0x0 PUSH1 0x40 DUP3 ADD SWAP1 POP PUSH2 0x5168 PUSH1 0x0 DUP4 ADD DUP6 PUSH2 0x4CD2 JUMP JUMPDEST PUSH2 0x5175 PUSH1 0x20 DUP4 ADD DUP5 PUSH2 0x4CD2 JUMP JUMPDEST SWAP4 SWAP3 POP POP POP JUMP JUMPDEST PUSH1 0x0 DUP1 PUSH1 0x0 DUP1 PUSH1 0x80 DUP6 DUP8 SUB SLT ISZERO PUSH2 0x5196 JUMPI PUSH2 0x5195 PUSH2 0x4BF4 JUMP JUMPDEST JUMPDEST PUSH1 0x0 PUSH2 0x51A4 DUP8 DUP3 DUP9 ADD PUSH2 0x4C7D JUMP JUMPDEST SWAP5 POP POP PUSH1 0x20 PUSH2 0x51B5 DUP8 DUP3 DUP9 ADD PUSH2 0x4C7D JUMP JUMPDEST SWAP4 POP POP PUSH1 0x40 PUSH2 0x51C6 DUP8 DUP3 DUP9 ADD PUSH2 0x4C7D JUMP JUMPDEST SWAP3 POP POP PUSH1 0x60 PUSH2 0x51D7 DUP8 DUP3 DUP9 ADD PUSH2 0x4D8C JUMP JUMPDEST SWAP2 POP POP SWAP3 SWAP6 SWAP2 SWAP5 POP SWAP3 POP JUMP JUMPDEST PUSH1 0x0 DUP1 REVERT JUMPDEST PUSH1 0x0 PUSH8 0xFFFFFFFFFFFFFFFF DUP3 GT ISZERO PUSH2 0x5203 JUMPI PUSH2 0x5202 PUSH2 0x4E5E JUMP JUMPDEST JUMPDEST PUSH2 0x520C DUP3 PUSH2 0x4E4D JUMP JUMPDEST SWAP1 POP PUSH1 0x20 DUP2 ADD SWAP1 POP SWAP2 SWAP1 POP JUMP JUMPDEST DUP3 DUP2 DUP4 CALLDATACOPY PUSH1 0x0 DUP4 DUP4 ADD MSTORE POP POP POP JUMP JUMPDEST PUSH1 0x0 PUSH2 0x523B PUSH2 0x5236 DUP5 PUSH2 0x51E8 JUMP JUMPDEST PUSH2 0x4EBE JUMP JUMPDEST SWAP1 POP DUP3 DUP2 MSTORE PUSH1 0x20 DUP2 ADD DUP5 DUP5 DUP5 ADD GT ISZERO PUSH2 0x5257 JUMPI PUSH2 0x5256 PUSH2 0x51E3 JUMP JUMPDEST JUMPDEST PUSH2 0x5262 DUP5 DUP3 DUP6 PUSH2 0x5219 JUMP JUMPDEST POP SWAP4 SWAP3 POP POP POP JUMP JUMPDEST PUSH1 0x0 DUP3 PUSH1 0x1F DUP4 ADD SLT PUSH2 0x527F JUMPI PUSH2 0x527E PUSH2 0x4E48 JUMP JUMPDEST JUMPDEST DUP2 CALLDATALOAD PUSH2 0x528F DUP5 DUP3 PUSH1 0x20 DUP7 ADD PUSH2 0x5228 JUMP JUMPDEST SWAP2 POP POP SWAP3 SWAP2 POP POP JUMP JUMPDEST PUSH1 0x0 DUP1 PUSH1 0x0 DUP1 PUSH1 0x80 DUP6 DUP8 SUB SLT ISZERO PUSH2 0x52B2 JUMPI PUSH2 0x52B1 PUSH2 0x4BF4 JUMP JUMPDEST JUMPDEST PUSH1 0x0 DUP6 ADD CALLDATALOAD PUSH8 0xFFFFFFFFFFFFFFFF DUP2 GT ISZERO PUSH2 0x52D0 JUMPI PUSH2 0x52CF PUSH2 0x4BF9 JUMP JUMPDEST JUMPDEST PUSH2 0x52DC DUP8 DUP3 DUP9 ADD PUSH2 0x526A JUMP JUMPDEST SWAP5 POP POP PUSH1 0x20 PUSH2 0x52ED DUP8 DUP3 DUP9 ADD PUSH2 0x4C7D JUMP JUMPDEST SWAP4 POP POP PUSH1 0x40 PUSH2 0x52FE DUP8 DUP3 DUP9 ADD PUSH2 0x4C7D JUMP JUMPDEST SWAP3 POP POP PUSH1 0x60 PUSH2 0x530F DUP8 DUP3 DUP9 ADD PUSH2 0x4D8C JUMP JUMPDEST SWAP2 POP POP SWAP3 SWAP6 SWAP2 SWAP5 POP SWAP3 POP JUMP JUMPDEST PUSH1 0x0 DUP2 MLOAD SWAP1 POP SWAP2 SWAP1 POP JUMP JUMPDEST PUSH1 0x0 DUP3 DUP3 MSTORE PUSH1 0x20 DUP3 ADD SWAP1 POP SWAP3 SWAP2 POP POP JUMP JUMPDEST PUSH1 0x0 DUP2 SWAP1 POP PUSH1 0x20 DUP3 ADD SWAP1 POP SWAP2 SWAP1 POP JUMP JUMPDEST PUSH2 0x5350 DUP2 PUSH2 0x4C5C JUMP JUMPDEST DUP3 MSTORE POP POP JUMP JUMPDEST PUSH1 0x0 PUSH2 0x5362 DUP4 DUP4 PUSH2 0x5347 JUMP JUMPDEST PUSH1 0x20 DUP4 ADD SWAP1 POP SWAP3 SWAP2 POP POP JUMP JUMPDEST PUSH1 0x0 PUSH1 0x20 DUP3 ADD SWAP1 POP SWAP2 SWAP1 POP JUMP JUMPDEST PUSH1 0x0 PUSH2 0x5386 DUP3 PUSH2 0x531B JUMP JUMPDEST PUSH2 0x5390 DUP2 DUP6 PUSH2 0x5326 JUMP JUMPDEST SWAP4 POP PUSH2 0x539B DUP4 PUSH2 0x5337 JUMP JUMPDEST DUP1 PUSH1 0x0 JUMPDEST DUP4 DUP2 LT ISZERO PUSH2 0x53CC JUMPI DUP2 MLOAD PUSH2 0x53B3 DUP9 DUP3 PUSH2 0x5356 JUMP JUMPDEST SWAP8 POP PUSH2 0x53BE DUP4 PUSH2 0x536E JUMP JUMPDEST SWAP3 POP POP PUSH1 0x1 DUP2 ADD SWAP1 POP PUSH2 0x539F JUMP JUMPDEST POP DUP6 SWAP4 POP POP POP POP SWAP3 SWAP2 POP POP JUMP JUMPDEST PUSH1 0x0 PUSH1 0x20 DUP3 ADD SWAP1 POP DUP2 DUP2 SUB PUSH1 0x0 DUP4 ADD MSTORE PUSH2 0x53F3 DUP2 DUP5 PUSH2 0x537B JUMP JUMPDEST SWAP1 POP SWAP3 SWAP2 POP POP JUMP JUMPDEST PUSH2 0x5404 DUP2 PUSH2 0x4C1E JUMP JUMPDEST DUP3 MSTORE POP POP JUMP JUMPDEST PUSH1 0x0 PUSH1 0x20 DUP3 ADD SWAP1 POP PUSH2 0x541F PUSH1 0x0 DUP4 ADD DUP5 PUSH2 0x53FB JUMP JUMPDEST SWAP3 SWAP2 POP POP JUMP JUMPDEST PUSH1 0x0 DUP1 PUSH1 0x0 PUSH1 0x60 DUP5 DUP7 SUB SLT ISZERO PUSH2 0x543E JUMPI PUSH2 0x543D PUSH2 0x4BF4 JUMP JUMPDEST JUMPDEST PUSH1 0x0 PUSH2 0x544C DUP7 DUP3 DUP8 ADD PUSH2 0x4C7D JUMP JUMPDEST SWAP4 POP POP PUSH1 0x20 PUSH2 0x545D DUP7 DUP3 DUP8 ADD PUSH2 0x4C7D JUMP JUMPDEST SWAP3 POP POP PUSH1 0x40 PUSH2 0x546E DUP7 DUP3 DUP8 ADD PUSH2 0x4C7D JUMP JUMPDEST SWAP2 POP POP SWAP3 POP SWAP3 POP SWAP3 JUMP JUMPDEST PUSH1 0x0 PUSH2 0x5483 DUP3 PUSH2 0x4DFA JUMP JUMPDEST SWAP1 POP SWAP2 SWAP1 POP JUMP JUMPDEST PUSH2 0x5493 DUP2 PUSH2 0x5478 JUMP JUMPDEST DUP3 MSTORE POP POP JUMP JUMPDEST PUSH1 0x0 PUSH1 0x20 DUP3 ADD SWAP1 POP PUSH2 0x54AE PUSH1 0x0 DUP4 ADD DUP5 PUSH2 0x548A JUMP JUMPDEST SWAP3 SWAP2 POP POP JUMP JUMPDEST PUSH1 0x0 DUP1 PUSH1 0x0 PUSH1 0x60 DUP5 DUP7 SUB SLT ISZERO PUSH2 0x54CD JUMPI PUSH2 0x54CC PUSH2 0x4BF4 JUMP JUMPDEST JUMPDEST PUSH1 0x0 PUSH2 0x54DB DUP7 DUP3 DUP8 ADD PUSH2 0x4C47 JUMP JUMPDEST SWAP4 POP POP PUSH1 0x20 PUSH2 0x54EC DUP7 DUP3 DUP8 ADD PUSH2 0x4C7D JUMP JUMPDEST SWAP3 POP POP PUSH1 0x40 PUSH2 0x54FD DUP7 DUP3 DUP8 ADD PUSH2 0x4C7D JUMP JUMPDEST SWAP2 POP POP SWAP3 POP SWAP3 POP SWAP3 JUMP JUMPDEST PUSH32 0x4E487B7100000000000000000000000000000000000000000000000000000000 PUSH1 0x0 MSTORE PUSH1 0x11 PUSH1 0x4 MSTORE PUSH1 0x24 PUSH1 0x0 REVERT JUMPDEST PUSH1 0x0 PUSH2 0x5541 DUP3 PUSH2 0x4C5C JUMP JUMPDEST SWAP2 POP PUSH2 0x554C DUP4 PUSH2 0x4C5C JUMP JUMPDEST SWAP3 POP DUP3 DUP3 ADD SWAP1 POP DUP1 DUP3 GT ISZERO PUSH2 0x5564 JUMPI PUSH2 0x5563 PUSH2 0x5507 JUMP JUMPDEST JUMPDEST SWAP3 SWAP2 POP POP JUMP JUMPDEST PUSH32 0x4E487B7100000000000000000000000000000000000000000000000000000000 PUSH1 0x0 MSTORE PUSH1 0x32 PUSH1 0x4 MSTORE PUSH1 0x24 PUSH1 0x0 REVERT JUMPDEST PUSH1 0x0 PUSH2 0x55A4 DUP3 PUSH2 0x4C5C JUMP JUMPDEST SWAP2 POP PUSH2 0x55AF DUP4 PUSH2 0x4C5C JUMP JUMPDEST SWAP3 POP DUP3 DUP3 SUB SWAP1 POP DUP2 DUP2 GT ISZERO PUSH2 0x55C7 JUMPI PUSH2 0x55C6 PUSH2 0x5507 JUMP JUMPDEST JUMPDEST SWAP3 SWAP2 POP POP JUMP JUMPDEST PUSH32 0x4E6F7420656E6F756768206372797374616C7300000000000000000000000000 PUSH1 0x0 DUP3 ADD MSTORE POP JUMP JUMPDEST PUSH1 0x0 PUSH2 0x5603 PUSH1 0x13 DUP4 PUSH2 0x5077 JUMP JUMPDEST SWAP2 POP PUSH2 0x560E DUP3 PUSH2 0x55CD JUMP JUMPDEST PUSH1 0x20 DUP3 ADD SWAP1 POP SWAP2 SWAP1 POP JUMP JUMPDEST PUSH1 0x0 PUSH1 0x20 DUP3 ADD SWAP1 POP DUP2 DUP2 SUB PUSH1 0x0 DUP4 ADD MSTORE PUSH2 0x5632 DUP2 PUSH2 0x55F6 JUMP JUMPDEST SWAP1 POP SWAP2 SWAP1 POP JUMP JUMPDEST PUSH1 0x0 PUSH2 0x5644 DUP3 PUSH2 0x4C5C JUMP JUMPDEST SWAP2 POP PUSH2 0x564F DUP4 PUSH2 0x4C5C JUMP JUMPDEST SWAP3 POP DUP3 DUP3 MUL PUSH2 0x565D DUP2 PUSH2 0x4C5C JUMP JUMPDEST SWAP2 POP DUP3 DUP3 DIV DUP5 EQ DUP4 ISZERO OR PUSH2 0x5674 JUMPI PUSH2 0x5673 PUSH2 0x5507 JUMP JUMPDEST JUMPDEST POP SWAP3 SWAP2 POP POP JUMP JUMPDEST PUSH32 0x4E487B7100000000000000000000000000000000000000000000000000000000 PUSH1 0x0 MSTORE PUSH1 0x12 PUSH1 0x4 MSTORE PUSH1 0x24 PUSH1 0x0 REVERT JUMPDEST PUSH1 0x0 PUSH2 0x56B5 DUP3 PUSH2 0x4C5C JUMP JUMPDEST SWAP2 POP PUSH2 0x56C0 DUP4 PUSH2 0x4C5C JUMP JUMPDEST SWAP3 POP DUP3 PUSH2 0x56D0 JUMPI PUSH2 0x56CF PUSH2 0x567B JUMP JUMPDEST JUMPDEST DUP3 DUP3 DIV SWAP1 POP SWAP3 SWAP2 POP POP JUMP JUMPDEST PUSH1 0x0 PUSH1 0x80 DUP3 ADD SWAP1 POP PUSH2 0x56F0 PUSH1 0x0 DUP4 ADD DUP8 PUSH2 0x5129 JUMP JUMPDEST PUSH2 0x56FD PUSH1 0x20 DUP4 ADD DUP7 PUSH2 0x5129 JUMP JUMPDEST PUSH2 0x570A PUSH1 0x40 DUP4 ADD DUP6 PUSH2 0x4CD2 JUMP JUMPDEST PUSH2 0x5717 PUSH1 0x60 DUP4 ADD DUP5 PUSH2 0x4CD2 JUMP JUMPDEST SWAP6 SWAP5 POP POP POP POP POP JUMP JUMPDEST PUSH32 0x4E6F20626F6E7573000000000000000000000000000000000000000000000000 PUSH1 0x0 DUP3 ADD MSTORE POP JUMP JUMPDEST PUSH1 0x0 PUSH2 0x5756 PUSH1 0x8 DUP4 PUSH2 0x5077 JUMP JUMPDEST SWAP2 POP PUSH2 0x5761 DUP3 PUSH2 0x5720 JUMP JUMPDEST PUSH1 0x20 DUP3 ADD SWAP1 POP SWAP2 SWAP1 POP JUMP JUMPDEST PUSH1 0x0 PUSH1 0x20 DUP3 ADD SWAP1 POP DUP2 DUP2 SUB PUSH1 0x0 DUP4 ADD MSTORE PUSH2 0x5785 DUP2 PUSH2 0x5749 JUMP JUMPDEST SWAP1 POP SWAP2 SWAP1 POP JUMP JUMPDEST PUSH32 0x4E487B7100000000000000000000000000000000000000000000000000000000 PUSH1 0x0 MSTORE PUSH1 0x22 PUSH1 0x4 MSTORE PUSH1 0x24 PUSH1 0x0 REVERT JUMPDEST PUSH1 0x0 PUSH1 0x2 DUP3 DIV SWAP1 POP PUSH1 0x1 DUP3 AND DUP1 PUSH2 0x57D3 JUMPI PUSH1 0x7F DUP3 AND SWAP2 POP JUMPDEST PUSH1 0x20 DUP3 LT DUP2 SUB PUSH2 0x57E6 JUMPI PUSH2 0x57E5 PUSH2 0x578C JUMP JUMPDEST JUMPDEST POP SWAP2 SWAP1 POP JUMP JUMPDEST PUSH32 0x4D7573742073656E642043524F00000000000000000000000000000000000000 PUSH1 0x0 DUP3 ADD MSTORE POP JUMP JUMPDEST PUSH1 0x0 PUSH2 0x5822 PUSH1 0xD DUP4 PUSH2 0x5077 JUMP JUMPDEST SWAP2 POP PUSH2 0x582D DUP3 PUSH2 0x57EC JUMP JUMPDEST PUSH1 0x20 DUP3 ADD SWAP1 POP SWAP2 SWAP1 POP JUMP JUMPDEST PUSH1 0x0 PUSH1 0x20 DUP3 ADD SWAP1 POP DUP2 DUP2 SUB PUSH1 0x0 DUP4 ADD MSTORE PUSH2 0x5851 DUP2 PUSH2 0x5815 JUMP JUMPDEST SWAP1 POP SWAP2 SWAP1 POP JUMP JUMPDEST PUSH1 0x0 DUP2 MLOAD SWAP1 POP PUSH2 0x5867 DUP2 PUSH2 0x4D75 JUMP JUMPDEST SWAP3 SWAP2 POP POP JUMP JUMPDEST PUSH1 0x0 PUSH1 0x20 DUP3 DUP5 SUB SLT ISZERO PUSH2 0x5883 JUMPI PUSH2 0x5882 PUSH2 0x4BF4 JUMP JUMPDEST JUMPDEST PUSH1 0x0 PUSH2 0x5891 DUP5 DUP3 DUP6 ADD PUSH2 0x5858 JUMP JUMPDEST SWAP2 POP POP SWAP3 SWAP2 POP POP JUMP JUMPDEST PUSH32 0x4E6F74206F6E207468652077686974656C697374210000000000000000000000 PUSH1 0x0 DUP3 ADD MSTORE POP JUMP JUMPDEST PUSH1 0x0 PUSH2 0x58D0 PUSH1 0x15 DUP4 PUSH2 0x5077 JUMP JUMPDEST SWAP2 POP PUSH2 0x58DB DUP3 PUSH2 0x589A JUMP JUMPDEST PUSH1 0x20 DUP3 ADD SWAP1 POP SWAP2 SWAP1 POP JUMP JUMPDEST PUSH1 0x0 PUSH1 0x20 DUP3 ADD SWAP1 POP DUP2 DUP2 SUB PUSH1 0x0 DUP4 ADD MSTORE PUSH2 0x58FF DUP2 PUSH2 0x58C3 JUMP JUMPDEST SWAP1 POP SWAP2 SWAP1 POP JUMP JUMPDEST PUSH32 0x53616C65206973206E6F74206F70656E21000000000000000000000000000000 PUSH1 0x0 DUP3 ADD MSTORE POP JUMP JUMPDEST PUSH1 0x0 PUSH2 0x593C PUSH1 0x11 DUP4 PUSH2 0x5077 JUMP JUMPDEST SWAP2 POP PUSH2 0x5947 DUP3 PUSH2 0x5906 JUMP JUMPDEST PUSH1 0x20 DUP3 ADD SWAP1 POP SWAP2 SWAP1 POP JUMP JUMPDEST PUSH1 0x0 PUSH1 0x20 DUP3 ADD SWAP1 POP DUP2 DUP2 SUB PUSH1 0x0 DUP4 ADD MSTORE PUSH2 0x596B DUP2 PUSH2 0x592F JUMP JUMPDEST SWAP1 POP SWAP2 SWAP1 POP JUMP JUMPDEST PUSH32 0x4E6F7420656E6F7567682043524F000000000000000000000000000000000000 PUSH1 0x0 DUP3 ADD MSTORE POP JUMP JUMPDEST PUSH1 0x0 PUSH2 0x59A8 PUSH1 0xE DUP4 PUSH2 0x5077 JUMP JUMPDEST SWAP2 POP PUSH2 0x59B3 DUP3 PUSH2 0x5972 JUMP JUMPDEST PUSH1 0x20 DUP3 ADD SWAP1 POP SWAP2 SWAP1 POP JUMP JUMPDEST PUSH1 0x0 PUSH1 0x20 DUP3 ADD SWAP1 POP DUP2 DUP2 SUB PUSH1 0x0 DUP4 ADD MSTORE PUSH2 0x59D7 DUP2 PUSH2 0x599B JUMP JUMPDEST SWAP1 POP SWAP2 SWAP1 POP JUMP JUMPDEST PUSH1 0x0 PUSH1 0x80 DUP3 ADD SWAP1 POP PUSH2 0x59F3 PUSH1 0x0 DUP4 ADD DUP8 PUSH2 0x4CD2 JUMP JUMPDEST PUSH2 0x5A00 PUSH1 0x20 DUP4 ADD DUP7 PUSH2 0x4CD2 JUMP JUMPDEST PUSH2 0x5A0D PUSH1 0x40 DUP4 ADD DUP6 PUSH2 0x4CD2 JUMP JUMPDEST PUSH2 0x5A1A PUSH1 0x60 DUP4 ADD DUP5 PUSH2 0x4CD2 JUMP JUMPDEST SWAP6 SWAP5 POP POP POP POP POP JUMP JUMPDEST PUSH1 0x0 DUP2 SWAP1 POP DUP2 PUSH1 0x0 MSTORE PUSH1 0x20 PUSH1 0x0 KECCAK256 SWAP1 POP SWAP2 SWAP1 POP JUMP JUMPDEST PUSH1 0x0 PUSH1 0x20 PUSH1 0x1F DUP4 ADD DIV SWAP1 POP SWAP2 SWAP1 POP JUMP JUMPDEST PUSH1 0x0 DUP3 DUP3 SHL SWAP1 POP SWAP3 SWAP2 POP POP JUMP JUMPDEST PUSH1 0x0 PUSH1 0x8 DUP4 MUL PUSH2 0x5A85 PUSH32 0xFFFFFFFFFFFFFFFFFFFFFFFFFFFFFFFFFFFFFFFFFFFFFFFFFFFFFFFFFFFFFFFF DUP3 PUSH2 0x5A48 JUMP JUMPDEST PUSH2 0x5A8F DUP7 DUP4 PUSH2 0x5A48 JUMP JUMPDEST SWAP6 POP DUP1 NOT DUP5 AND SWAP4 POP DUP1 DUP7 AND DUP5 OR SWAP3 POP POP POP SWAP4 SWAP3 POP POP POP JUMP JUMPDEST PUSH1 0x0 PUSH2 0x5AC2 PUSH2 0x5ABD PUSH2 0x5AB8 DUP5 PUSH2 0x4C5C JUMP JUMPDEST PUSH2 0x4DCE JUMP JUMPDEST PUSH2 0x4C5C JUMP JUMPDEST SWAP1 POP SWAP2 SWAP1 POP JUMP JUMPDEST PUSH1 0x0 DUP2 SWAP1 POP SWAP2 SWAP1 POP JUMP JUMPDEST PUSH2 0x5ADC DUP4 PUSH2 0x5AA7 JUMP JUMPDEST PUSH2 0x5AF0 PUSH2 0x5AE8 DUP3 PUSH2 0x5AC9 JUMP JUMPDEST DUP5 DUP5 SLOAD PUSH2 0x5A55 JUMP JUMPDEST DUP3 SSTORE POP POP POP POP JUMP JUMPDEST PUSH1 0x0 SWAP1 JUMP JUMPDEST PUSH2 0x5B05 PUSH2 0x5AF8 JUMP JUMPDEST PUSH2 0x5B10 DUP2 DUP5 DUP5 PUSH2 0x5AD3 JUMP JUMPDEST POP POP POP JUMP JUMPDEST JUMPDEST DUP2 DUP2 LT ISZERO PUSH2 0x5B34 JUMPI PUSH2 0x5B29 PUSH1 0x0 DUP3 PUSH2 0x5AFD JUMP JUMPDEST PUSH1 0x1 DUP2 ADD SWAP1 POP PUSH2 0x5B16 JUMP JUMPDEST POP POP JUMP JUMPDEST PUSH1 0x1F DUP3 GT ISZERO PUSH2 0x5B79 JUMPI PUSH2 0x5B4A DUP2 PUSH2 0x5A23 JUMP JUMPDEST PUSH2 0x5B53 DUP5 PUSH2 0x5A38 JUMP JUMPDEST DUP2 ADD PUSH1 0x20 DUP6 LT ISZERO PUSH2 0x5B62 JUMPI DUP2 SWAP1 POP JUMPDEST PUSH2 0x5B76 PUSH2 0x5B6E DUP6 PUSH2 0x5A38 JUMP JUMPDEST DUP4 ADD DUP3 PUSH2 0x5B15 JUMP JUMPDEST POP POP JUMPDEST POP POP POP JUMP JUMPDEST PUSH1 0x0 DUP3 DUP3 SHR SWAP1 POP SWAP3 SWAP2 POP POP JUMP JUMPDEST PUSH1 0x0 PUSH2 0x5B9C PUSH1 0x0 NOT DUP5 PUSH1 0x8 MUL PUSH2 0x5B7E JUMP JUMPDEST NOT DUP1 DUP4 AND SWAP2 POP POP SWAP3 SWAP2 POP POP JUMP JUMPDEST PUSH1 0x0 PUSH2 0x5BB5 DUP4 DUP4 PUSH2 0x5B8B JUMP JUMPDEST SWAP2 POP DUP3 PUSH1 0x2 MUL DUP3 OR SWAP1 POP SWAP3 SWAP2 POP POP JUMP JUMPDEST PUSH2 0x5BCE DUP3 PUSH2 0x506C JUMP JUMPDEST PUSH8 0xFFFFFFFFFFFFFFFF DUP2 GT ISZERO PUSH2 0x5BE7 JUMPI PUSH2 0x5BE6 PUSH2 0x4E5E JUMP JUMPDEST JUMPDEST PUSH2 0x5BF1 DUP3 SLOAD PUSH2 0x57BB JUMP JUMPDEST PUSH2 0x5BFC DUP3 DUP3 DUP6 PUSH2 0x5B38 JUMP JUMPDEST PUSH1 0x0 PUSH1 0x20 SWAP1 POP PUSH1 0x1F DUP4 GT PUSH1 0x1 DUP2 EQ PUSH2 0x5C2F JUMPI PUSH1 0x0 DUP5 ISZERO PUSH2 0x5C1D JUMPI DUP3 DUP8 ADD MLOAD SWAP1 POP JUMPDEST PUSH2 0x5C27 DUP6 DUP3 PUSH2 0x5BA9 JUMP JUMPDEST DUP7 SSTORE POP PUSH2 0x5C8F JUMP JUMPDEST PUSH1 0x1F NOT DUP5 AND PUSH2 0x5C3D DUP7 PUSH2 0x5A23 JUMP JUMPDEST PUSH1 0x0 JUMPDEST DUP3 DUP2 LT ISZERO PUSH2 0x5C65 JUMPI DUP5 DUP10 ADD MLOAD DUP3 SSTORE PUSH1 0x1 DUP3 ADD SWAP2 POP PUSH1 0x20 DUP6 ADD SWAP5 POP PUSH1 0x20 DUP2 ADD SWAP1 POP PUSH2 0x5C40 JUMP JUMPDEST DUP7 DUP4 LT ISZERO PUSH2 0x5C82 JUMPI DUP5 DUP10 ADD MLOAD PUSH2 0x5C7E PUSH1 0x1F DUP10 AND DUP3 PUSH2 0x5B8B JUMP JUMPDEST DUP4 SSTORE POP JUMPDEST PUSH1 0x1 PUSH1 0x2 DUP9 MUL ADD DUP9 SSTORE POP POP POP JUMPDEST POP POP POP POP POP POP JUMP JUMPDEST PUSH32 0x56616C7565206D757374206265206265747765656E203020616E642032300000 PUSH1 0x0 DUP3 ADD MSTORE POP JUMP JUMPDEST PUSH1 0x0 PUSH2 0x5CCD PUSH1 0x1E DUP4 PUSH2 0x5077 JUMP JUMPDEST SWAP2 POP PUSH2 0x5CD8 DUP3 PUSH2 0x5C97 JUMP JUMPDEST PUSH1 0x20 DUP3 ADD SWAP1 POP SWAP2 SWAP1 POP JUMP JUMPDEST PUSH1 0x0 PUSH1 0x20 DUP3 ADD SWAP1 POP DUP2 DUP2 SUB PUSH1 0x0 DUP4 ADD MSTORE PUSH2 0x5CFC DUP2 PUSH2 0x5CC0 JUMP JUMPDEST SWAP1 POP SWAP2 SWAP1 POP JUMP JUMPDEST PUSH1 0x0 PUSH1 0x60 DUP3 ADD SWAP1 POP PUSH2 0x5D18 PUSH1 0x0 DUP4 ADD DUP7 PUSH2 0x53FB JUMP JUMPDEST PUSH2 0x5D25 PUSH1 0x20 DUP4 ADD DUP6 PUSH2 0x53FB JUMP JUMPDEST PUSH2 0x5D32 PUSH1 0x40 DUP4 ADD DUP5 PUSH2 0x4CD2 JUMP JUMPDEST SWAP5 SWAP4 POP POP POP POP JUMP JUMPDEST PUSH32 0x4E6F2043524F206F776564000000000000000000000000000000000000000000 PUSH1 0x0 DUP3 ADD MSTORE POP JUMP JUMPDEST PUSH1 0x0 PUSH2 0x5D70 PUSH1 0xB DUP4 PUSH2 0x5077 JUMP JUMPDEST SWAP2 POP PUSH2 0x5D7B DUP3 PUSH2 0x5D3A JUMP JUMPDEST PUSH1 0x20 DUP3 ADD SWAP1 POP SWAP2 SWAP1 POP JUMP JUMPDEST PUSH1 0x0 PUSH1 0x20 DUP3 ADD SWAP1 POP DUP2 DUP2 SUB PUSH1 0x0 DUP4 ADD MSTORE PUSH2 0x5D9F DUP2 PUSH2 0x5D63 JUMP JUMPDEST SWAP1 POP SWAP2 SWAP1 POP JUMP JUMPDEST PUSH32 0x47656D207479706520646F6573206E6F74206578697374000000000000000000 PUSH1 0x0 DUP3 ADD MSTORE POP JUMP JUMPDEST PUSH1 0x0 PUSH2 0x5DDC PUSH1 0x17 DUP4 PUSH2 0x5077 JUMP JUMPDEST SWAP2 POP PUSH2 0x5DE7 DUP3 PUSH2 0x5DA6 JUMP JUMPDEST PUSH1 0x20 DUP3 ADD SWAP1 POP SWAP2 SWAP1 POP JUMP JUMPDEST PUSH1 0x0 PUSH1 0x20 DUP3 ADD SWAP1 POP DUP2 DUP2 SUB PUSH1 0x0 DUP4 ADD MSTORE PUSH2 0x5E0B DUP2 PUSH2 0x5DCF JUMP JUMPDEST SWAP1 POP SWAP2 SWAP1 POP JUMP JUMPDEST PUSH32 0x4E6F7420656E6F7567682067656D7320746F2073656C6C000000000000000000 PUSH1 0x0 DUP3 ADD MSTORE POP JUMP JUMPDEST PUSH1 0x0 PUSH2 0x5E48 PUSH1 0x17 DUP4 PUSH2 0x5077 JUMP JUMPDEST SWAP2 POP PUSH2 0x5E53 DUP3 PUSH2 0x5E12 JUMP JUMPDEST PUSH1 0x20 DUP3 ADD SWAP1 POP SWAP2 SWAP1 POP JUMP JUMPDEST PUSH1 0x0 PUSH1 0x20 DUP3 ADD SWAP1 POP DUP2 DUP2 SUB PUSH1 0x0 DUP4 ADD MSTORE PUSH2 0x5E77 DUP2 PUSH2 0x5E3B JUMP JUMPDEST SWAP1 POP SWAP2 SWAP1 POP JUMP JUMPDEST PUSH32 0x43616C6C6572206973206E6F7420616E2061646D696E00000000000000000000 PUSH1 0x0 DUP3 ADD MSTORE POP JUMP JUMPDEST PUSH1 0x0 PUSH2 0x5EB4 PUSH1 0x16 DUP4 PUSH2 0x5077 JUMP JUMPDEST SWAP2 POP PUSH2 0x5EBF DUP3 PUSH2 0x5E7E JUMP JUMPDEST PUSH1 0x20 DUP3 ADD SWAP1 POP SWAP2 SWAP1 POP JUMP JUMPDEST PUSH1 0x0 PUSH1 0x20 DUP3 ADD SWAP1 POP DUP2 DUP2 SUB PUSH1 0x0 DUP4 ADD MSTORE PUSH2 0x5EE3 DUP2 PUSH2 0x5EA7 JUMP JUMPDEST SWAP1 POP SWAP2 SWAP1 POP JUMP JUMPDEST PUSH1 0x0 PUSH2 0x5EF5 DUP3 PUSH2 0x4C5C JUMP JUMPDEST SWAP2 POP PUSH32 0xFFFFFFFFFFFFFFFFFFFFFFFFFFFFFFFFFFFFFFFFFFFFFFFFFFFFFFFFFFFFFFFF DUP3 SUB PUSH2 0x5F27 JUMPI PUSH2 0x5F26 PUSH2 0x5507 JUMP JUMPDEST JUMPDEST PUSH1 0x1 DUP3 ADD SWAP1 POP SWAP2 SWAP1 POP JUMP JUMPDEST PUSH32 0x4E6F7420656E6F756768207370656E6461626C6520746F6B656E2E0000000000 PUSH1 0x0 DUP3 ADD MSTORE POP JUMP JUMPDEST PUSH1 0x0 PUSH2 0x5F68 PUSH1 0x1B DUP4 PUSH2 0x5077 JUMP JUMPDEST SWAP2 POP PUSH2 0x5F73 DUP3 PUSH2 0x5F32 JUMP JUMPDEST PUSH1 0x20 DUP3 ADD SWAP1 POP SWAP2 SWAP1 POP JUMP JUMPDEST PUSH1 0x0 PUSH1 0x20 DUP3 ADD SWAP1 POP DUP2 DUP2 SUB PUSH1 0x0 DUP4 ADD MSTORE PUSH2 0x5F97 DUP2 PUSH2 0x5F5B JUMP JUMPDEST SWAP1 POP SWAP2 SWAP1 POP JUMP INVALID LOG2 PUSH5 0x6970667358 0x22 SLT KECCAK256 PUSH18 0x7B88E6385545AB10E723EF468F2977975B9A XOR 0xA5 POP 0xA5 COINBASE PUSH3 0x8D2BE3 0xCF CALLER SWAP8 SHR PUSH5 0x736F6C6343 STOP ADDMOD SHR STOP CALLER "},"methodIdentifiers":{"addAsset(string,uint256,uint256,bool)":"869c865e","adminWhitelist()":"66d74c80","buyCrystal(uint256,uint256)":"f9d70200","buyGem(uint256,uint256)":"e1dc75d2","buyToken(address)":"7e72fb52","calculateUserEarnings(address)":"109d75d5","claimEarnings()":"d9ceab13","claimReferralBonus()":"1e375ab9","collectEnergy(address)":"fd239fd9","collectedEnergy(address)":"c7a18347","crystals(uint256)":"31b3ab3f","cumulativeRewardPerWeightCrystals()":"6c743fb2","cumulativeRewardPerWeightGems()":"45ed628f","currentCrystalPower(address)":"23ada717","currentGemPower(address)":"6de62ea7","currentPhase()":"055ad42e","eligibleForReferral(address)":"de473f8d","firstPurchasePhase(address)":"51484a19","flush()":"6b9f96ea","gems(uint256)":"a1f0406d","generalWhitelist()":"1ff9e2b2","generatedEnergy(address)":"4e358662","getCrystals(address)":"876cf0ef","getGems(address)":"88185e03","giveTokenTo(address,uint256)":"ce54d6e1","giveUnclaimedEarnings(address,uint256)":"0355d20c","investmentAllowance(address)":"ef49968a","lastClaimedRewardPerWeightCrystals(address)":"bc090191","lastClaimedRewardPerWeightGems(address)":"95526f4c","lastTimeEnergyComputed(address)":"4a5f58c7","mintCrystal(address,uint256,uint256)":"ff5133cd","onlyAllowWhitelisted()":"8e84a0d8","owner()":"8da5cb5b","partnersWhitelist()":"af28728c","referredIntBonusPercentage()":"bbaa1177","referrerCroBonusPercentage()":"d7e14e13","referrerIntBonusPercentage()":"fcb966d7","reinitializeEnergy(address)":"1a156f93","renounceOwnership()":"715018a6","restrictReferralProgram(bool)":"df13c9ca","restrictReferralProgramToPartners()":"4ed9b7f6","sellCrystal(uint256,uint256)":"08d317dd","sellGem(uint256,uint256)":"f226de97","setAdminWhitelist(address)":"93dbc757","setGeneralWhitelist(address)":"29e0f88d","setOnlyWhitelist(bool)":"1dd02b4b","setPartnersWhitelist(address)":"6143440c","setReferralBonusesPercentages(uint256,uint256,uint256)":"bc3de749","setStartDate(uint256)":"82d95df5","setSteps((uint256,uint256)[])":"21622c63","setTotalSold(uint256)":"37851598","spendableTokens(address)":"376f9671","startDate()":"0b97bc86","steps(uint256)":"7217e0b9","token()":"fc0c546a","totalClaimed(address)":"ef5d9ae8","totalClaimedCroReferralBonus(address)":"d4a444b4","totalClaimedIntReferralBonus(address)":"a54dfaad","totalCrystalPower()":"c8da5ef5","totalGemPower()":"2b4c73e5","totalIntInCrystals()":"206a5dbc","totalIntInGems()":"50a3eaf0","totalInvested(address)":"90838e09","totalPriceUnitsInCrystals()":"0ae19ba8","totalSold()":"9106d7ba","totalUsers()":"bff1f9e1","transferOwnership(address)":"f2fde38b","unclaimedCroReferralBonus(address)":"95ae8478","unclaimedEarnings(address)":"47315ec4","unclaimedIntReferralBonus(address)":"33298463","updateAsset(uint256,uint256,uint256,bool)":"7d848db2","userCrystals(address,uint256)":"90c757eb","userGems(address,uint256)":"c70e12cb"}}}}}