{
  "_format": "hh-sol-artifact-1",
  "contractName": "MyPausableToken",
  "sourceName": "contracts/ERC20.sol",
  "abi": [
    {
      "inputs": [
        {
          "internalType": "string",
          "name": "name",
          "type": "string"
        },
        {
          "internalType": "string",
          "name": "symbol",
          "type": "string"
        },
        {
          "internalType": "uint256",
          "name": "initialSupply",
          "type": "uint256"
        }
      ],
      "stateMutability": "nonpayable",
      "type": "constructor"
    },
    {
      "inputs": [
        {
          "internalType": "address",
          "name": "spender",
          "type": "address"
        },
        {
          "internalType": "uint256",
          "name": "allowance",
          "type": "uint256"
        },
        {
          "internalType": "uint256",
          "name": "needed",
          "type": "uint256"
        }
      ],
      "name": "ERC20InsufficientAllowance",
      "type": "error"
    },
    {
      "inputs": [
        {
          "internalType": "address",
          "name": "sender",
          "type": "address"
        },
        {
          "internalType": "uint256",
          "name": "balance",
          "type": "uint256"
        },
        {
          "internalType": "uint256",
          "name": "needed",
          "type": "uint256"
        }
      ],
      "name": "ERC20InsufficientBalance",
      "type": "error"
    },
    {
      "inputs": [
        {
          "internalType": "address",
          "name": "approver",
          "type": "address"
        }
      ],
      "name": "ERC20InvalidApprover",
      "type": "error"
    },
    {
      "inputs": [
        {
          "internalType": "address",
          "name": "receiver",
          "type": "address"
        }
      ],
      "name": "ERC20InvalidReceiver",
      "type": "error"
    },
    {
      "inputs": [
        {
          "internalType": "address",
          "name": "sender",
          "type": "address"
        }
      ],
      "name": "ERC20InvalidSender",
      "type": "error"
    },
    {
      "inputs": [
        {
          "internalType": "address",
          "name": "spender",
          "type": "address"
        }
      ],
      "name": "ERC20InvalidSpender",
      "type": "error"
    },
    {
      "inputs": [],
      "name": "EnforcedPause",
      "type": "error"
    },
    {
      "inputs": [],
      "name": "ExpectedPause",
      "type": "error"
    },
    {
      "inputs": [
        {
          "internalType": "address",
          "name": "owner",
          "type": "address"
        }
      ],
      "name": "OwnableInvalidOwner",
      "type": "error"
    },
    {
      "inputs": [
        {
          "internalType": "address",
          "name": "account",
          "type": "address"
        }
      ],
      "name": "OwnableUnauthorizedAccount",
      "type": "error"
    },
    {
      "anonymous": false,
      "inputs": [
        {
          "indexed": true,
          "internalType": "address",
          "name": "owner",
          "type": "address"
        },
        {
          "indexed": true,
          "internalType": "address",
          "name": "spender",
          "type": "address"
        },
        {
          "indexed": false,
          "internalType": "uint256",
          "name": "value",
          "type": "uint256"
        }
      ],
      "name": "Approval",
      "type": "event"
    },
    {
      "anonymous": false,
      "inputs": [
        {
          "indexed": true,
          "internalType": "address",
          "name": "previousOwner",
          "type": "address"
        },
        {
          "indexed": true,
          "internalType": "address",
          "name": "newOwner",
          "type": "address"
        }
      ],
      "name": "OwnershipTransferred",
      "type": "event"
    },
    {
      "anonymous": false,
      "inputs": [
        {
          "indexed": false,
          "internalType": "address",
          "name": "account",
          "type": "address"
        }
      ],
      "name": "Paused",
      "type": "event"
    },
    {
      "anonymous": false,
      "inputs": [
        {
          "indexed": true,
          "internalType": "address",
          "name": "from",
          "type": "address"
        },
        {
          "indexed": true,
          "internalType": "address",
          "name": "to",
          "type": "address"
        },
        {
          "indexed": false,
          "internalType": "uint256",
          "name": "value",
          "type": "uint256"
        }
      ],
      "name": "Transfer",
      "type": "event"
    },
    {
      "anonymous": false,
      "inputs": [
        {
          "indexed": false,
          "internalType": "address",
          "name": "account",
          "type": "address"
        }
      ],
      "name": "Unpaused",
      "type": "event"
    },
    {
      "inputs": [
        {
          "internalType": "address",
          "name": "owner",
          "type": "address"
        },
        {
          "internalType": "address",
          "name": "spender",
          "type": "address"
        }
      ],
      "name": "allowance",
      "outputs": [
        {
          "internalType": "uint256",
          "name": "",
          "type": "uint256"
        }
      ],
      "stateMutability": "view",
      "type": "function"
    },
    {
      "inputs": [
        {
          "internalType": "address",
          "name": "spender",
          "type": "address"
        },
        {
          "internalType": "uint256",
          "name": "value",
          "type": "uint256"
        }
      ],
      "name": "approve",
      "outputs": [
        {
          "internalType": "bool",
          "name": "",
          "type": "bool"
        }
      ],
      "stateMutability": "nonpayable",
      "type": "function"
    },
    {
      "inputs": [
        {
          "internalType": "address",
          "name": "account",
          "type": "address"
        }
      ],
      "name": "balanceOf",
      "outputs": [
        {
          "internalType": "uint256",
          "name": "",
          "type": "uint256"
        }
      ],
      "stateMutability": "view",
      "type": "function"
    },
    {
      "inputs": [],
      "name": "decimals",
      "outputs": [
        {
          "internalType": "uint8",
          "name": "",
          "type": "uint8"
        }
      ],
      "stateMutability": "view",
      "type": "function"
    },
    {
      "inputs": [],
      "name": "name",
      "outputs": [
        {
          "internalType": "string",
          "name": "",
          "type": "string"
        }
      ],
      "stateMutability": "view",
      "type": "function"
    },
    {
      "inputs": [],
      "name": "owner",
      "outputs": [
        {
          "internalType": "address",
          "name": "",
          "type": "address"
        }
      ],
      "stateMutability": "view",
      "type": "function"
    },
    {
      "inputs": [],
      "name": "pause",
      "outputs": [],
      "stateMutability": "nonpayable",
      "type": "function"
    },
    {
      "inputs": [],
      "name": "paused",
      "outputs": [
        {
          "internalType": "bool",
          "name": "",
          "type": "bool"
        }
      ],
      "stateMutability": "view",
      "type": "function"
    },
    {
      "inputs": [],
      "name": "renounceOwnership",
      "outputs": [],
      "stateMutability": "nonpayable",
      "type": "function"
    },
    {
      "inputs": [
        {
          "internalType": "address",
          "name": "_specialAddress",
          "type": "address"
        }
      ],
      "name": "setSpecialAddress",
      "outputs": [],
      "stateMutability": "nonpayable",
      "type": "function"
    },
    {
      "inputs": [],
      "name": "specialAddress",
      "outputs": [
        {
          "internalType": "address",
          "name": "",
          "type": "address"
        }
      ],
      "stateMutability": "view",
      "type": "function"
    },
    {
      "inputs": [],
      "name": "symbol",
      "outputs": [
        {
          "internalType": "string",
          "name": "",
          "type": "string"
        }
      ],
      "stateMutability": "view",
      "type": "function"
    },
    {
      "inputs": [],
      "name": "totalSupply",
      "outputs": [
        {
          "internalType": "uint256",
          "name": "",
          "type": "uint256"
        }
      ],
      "stateMutability": "view",
      "type": "function"
    },
    {
      "inputs": [
        {
          "internalType": "address",
          "name": "to",
          "type": "address"
        },
        {
          "internalType": "uint256",
          "name": "amount",
          "type": "uint256"
        }
      ],
      "name": "transfer",
      "outputs": [
        {
          "internalType": "bool",
          "name": "",
          "type": "bool"
        }
      ],
      "stateMutability": "nonpayable",
      "type": "function"
    },
    {
      "inputs": [
        {
          "internalType": "address",
          "name": "from",
          "type": "address"
        },
        {
          "internalType": "address",
          "name": "to",
          "type": "address"
        },
        {
          "internalType": "uint256",
          "name": "amount",
          "type": "uint256"
        }
      ],
      "name": "transferFrom",
      "outputs": [
        {
          "internalType": "bool",
          "name": "",
          "type": "bool"
        }
      ],
      "stateMutability": "nonpayable",
      "type": "function"
    },
    {
      "inputs": [
        {
          "internalType": "address",
          "name": "newOwner",
          "type": "address"
        }
      ],
      "name": "transferOwnership",
      "outputs": [],
      "stateMutability": "nonpayable",
      "type": "function"
    },
    {
      "inputs": [],
      "name": "unpause",
      "outputs": [],
      "stateMutability": "nonpayable",
      "type": "function"
    }
  ],
  "bytecode": "0x608060405234801561001057600080fd5b506040516121063803806121068339818101604052810190610032919061062a565b338383816003908161004491906108cc565b50806004908161005491906108cc565b505050600073ffffffffffffffffffffffffffffffffffffffff168173ffffffffffffffffffffffffffffffffffffffff16036100c95760006040517f1e4fbdf70000000000000000000000000000000000000000000000000000000081526004016100c091906109df565b60405180910390fd5b6100d88161010c60201b60201c565b506000600560146101000a81548160ff02191690831515021790555061010433826101d260201b60201c565b505050610abe565b6000600560009054906101000a900473ffffffffffffffffffffffffffffffffffffffff16905081600560006101000a81548173ffffffffffffffffffffffffffffffffffffffff021916908373ffffffffffffffffffffffffffffffffffffffff1602179055508173ffffffffffffffffffffffffffffffffffffffff168173ffffffffffffffffffffffffffffffffffffffff167f8be0079c531659141344cd1fd0a4f28419497f9722a3daafe3b4186f6b6457e060405160405180910390a35050565b600073ffffffffffffffffffffffffffffffffffffffff168273ffffffffffffffffffffffffffffffffffffffff16036102445760006040517fec442f0500000000000000000000000000000000000000000000000000000000815260040161023b91906109df565b60405180910390fd5b6102566000838361025a60201b60201c565b5050565b600073ffffffffffffffffffffffffffffffffffffffff168373ffffffffffffffffffffffffffffffffffffffff16036102ac5780600260008282546102a09190610a29565b9250508190555061037f565b60008060008573ffffffffffffffffffffffffffffffffffffffff1673ffffffffffffffffffffffffffffffffffffffff16815260200190815260200160002054905081811015610338578381836040517fe450d38c00000000000000000000000000000000000000000000000000000000815260040161032f93929190610a6c565b60405180910390fd5b8181036000808673ffffffffffffffffffffffffffffffffffffffff1673ffffffffffffffffffffffffffffffffffffffff16815260200190815260200160002081905550505b600073ffffffffffffffffffffffffffffffffffffffff168273ffffffffffffffffffffffffffffffffffffffff16036103c85780600260008282540392505081905550610415565b806000808473ffffffffffffffffffffffffffffffffffffffff1673ffffffffffffffffffffffffffffffffffffffff168152602001908152602001600020600082825401925050819055505b8173ffffffffffffffffffffffffffffffffffffffff168373ffffffffffffffffffffffffffffffffffffffff167fddf252ad1be2c89b69c2b068fc378daa952ba7f163c4a11628f55a4df523b3ef836040516104729190610aa3565b60405180910390a3505050565b6000604051905090565b600080fd5b600080fd5b600080fd5b600080fd5b6000601f19601f8301169050919050565b7f4e487b7100000000000000000000000000000000000000000000000000000000600052604160045260246000fd5b6104e68261049d565b810181811067ffffffffffffffff82111715610505576105046104ae565b5b80604052505050565b600061051861047f565b905061052482826104dd565b919050565b600067ffffffffffffffff821115610544576105436104ae565b5b61054d8261049d565b9050602081019050919050565b60005b8381101561057857808201518184015260208101905061055d565b60008484015250505050565b600061059761059284610529565b61050e565b9050828152602081018484840111156105b3576105b2610498565b5b6105be84828561055a565b509392505050565b600082601f8301126105db576105da610493565b5b81516105eb848260208601610584565b91505092915050565b6000819050919050565b610607816105f4565b811461061257600080fd5b50565b600081519050610624816105fe565b92915050565b60008060006060848603121561064357610642610489565b5b600084015167ffffffffffffffff8111156106615761066061048e565b5b61066d868287016105c6565b935050602084015167ffffffffffffffff81111561068e5761068d61048e565b5b61069a868287016105c6565b92505060406106ab86828701610615565b9150509250925092565b600081519050919050565b7f4e487b7100000000000000000000000000000000000000000000000000000000600052602260045260246000fd5b6000600282049050600182168061070757607f821691505b60208210810361071a576107196106c0565b5b50919050565b60008190508160005260206000209050919050565b60006020601f8301049050919050565b600082821b905092915050565b6000600883026107827fffffffffffffffffffffffffffffffffffffffffffffffffffffffffffffffff82610745565b61078c8683610745565b95508019841693508086168417925050509392505050565b6000819050919050565b60006107c96107c46107bf846105f4565b6107a4565b6105f4565b9050919050565b6000819050919050565b6107e3836107ae565b6107f76107ef826107d0565b848454610752565b825550505050565b600090565b61080c6107ff565b6108178184846107da565b505050565b5b8181101561083b57610830600082610804565b60018101905061081d565b5050565b601f8211156108805761085181610720565b61085a84610735565b81016020851015610869578190505b61087d61087585610735565b83018261081c565b50505b505050565b600082821c905092915050565b60006108a360001984600802610885565b1980831691505092915050565b60006108bc8383610892565b9150826002028217905092915050565b6108d5826106b5565b67ffffffffffffffff8111156108ee576108ed6104ae565b5b6108f882546106ef565b61090382828561083f565b600060209050601f8311600181146109365760008415610924578287015190505b61092e85826108b0565b865550610996565b601f19841661094486610720565b60005b8281101561096c57848901518255600182019150602085019450602081019050610947565b868310156109895784890151610985601f891682610892565b8355505b6001600288020188555050505b505050505050565b600073ffffffffffffffffffffffffffffffffffffffff82169050919050565b60006109c98261099e565b9050919050565b6109d9816109be565b82525050565b60006020820190506109f460008301846109d0565b92915050565b7f4e487b7100000000000000000000000000000000000000000000000000000000600052601160045260246000fd5b6000610a34826105f4565b9150610a3f836105f4565b9250828201905080821115610a5757610a566109fa565b5b92915050565b610a66816105f4565b82525050565b6000606082019050610a8160008301866109d0565b610a8e6020830185610a5d565b610a9b6040830184610a5d565b949350505050565b6000602082019050610ab86000830184610a5d565b92915050565b61163980610acd6000396000f3fe608060405234801561001057600080fd5b506004361061010b5760003560e01c806370a08231116100a257806395d89b411161007157806395d89b4114610272578063a9059cbb14610290578063dd62ed3e146102c0578063f2fde38b146102f0578063ff67370c1461030c5761010b565b806370a0823114610210578063715018a6146102405780638456cb591461024a5780638da5cb5b146102545761010b565b806323b872dd116100de57806323b872dd1461019a578063313ce567146101ca5780633f4ba83a146101e85780635c975abb146101f25761010b565b806306fdde0314610110578063095ea7b31461012e57806318160ddd1461015e57806321f3dd651461017c575b600080fd5b610118610328565b6040516101259190611221565b60405180910390f35b610148600480360381019061014391906112dc565b6103ba565b6040516101559190611337565b60405180910390f35b6101666103dd565b6040516101739190611361565b60405180910390f35b6101846103e7565b604051610191919061138b565b60405180910390f35b6101b460048036038101906101af91906113a6565b61040d565b6040516101c19190611337565b60405180910390f35b6101d2610513565b6040516101df9190611415565b60405180910390f35b6101f061051c565b005b6101fa61052e565b6040516102079190611337565b60405180910390f35b61022a60048036038101906102259190611430565b610545565b6040516102379190611361565b60405180910390f35b61024861058d565b005b6102526105e1565b005b61025c6105f3565b604051610269919061138b565b60405180910390f35b61027a61061d565b6040516102879190611221565b60405180910390f35b6102aa60048036038101906102a591906112dc565b6106af565b6040516102b79190611337565b60405180910390f35b6102da60048036038101906102d5919061145d565b6107a0565b6040516102e79190611361565b60405180910390f35b61030a60048036038101906103059190611430565b610827565b005b61032660048036038101906103219190611430565b6108ad565b005b606060038054610337906114cc565b80601f0160208091040260200160405190810160405280929190818152602001828054610363906114cc565b80156103b05780601f10610385576101008083540402835291602001916103b0565b820191906000526020600020905b81548152906001019060200180831161039357829003601f168201915b5050505050905090565b6000806103c56108f9565b90506103d2818585610901565b600191505092915050565b6000600254905090565b600660009054906101000a900473ffffffffffffffffffffffffffffffffffffffff1681565b6000600660009054906101000a900473ffffffffffffffffffffffffffffffffffffffff1673ffffffffffffffffffffffffffffffffffffffff163373ffffffffffffffffffffffffffffffffffffffff16148061049d575061046e6105f3565b73ffffffffffffffffffffffffffffffffffffffff163373ffffffffffffffffffffffffffffffffffffffff16145b156104b6576104ad848484610913565b6001905061050c565b6104be61052e565b156104fe576040517f08c379a00000000000000000000000000000000000000000000000000000000081526004016104f590611549565b60405180910390fd5b610509848484610a07565b90505b9392505050565b60006012905090565b610524610a36565b61052c610abd565b565b6000600560149054906101000a900460ff16905090565b60008060008373ffffffffffffffffffffffffffffffffffffffff1673ffffffffffffffffffffffffffffffffffffffff168152602001908152602001600020549050919050565b610595610a36565b6000600660006101000a81548173ffffffffffffffffffffffffffffffffffffffff021916908373ffffffffffffffffffffffffffffffffffffffff1602179055506105df610b20565b565b6105e9610a36565b6105f1610b34565b565b6000600560009054906101000a900473ffffffffffffffffffffffffffffffffffffffff16905090565b60606004805461062c906114cc565b80601f0160208091040260200160405190810160405280929190818152602001828054610658906114cc565b80156106a55780601f1061067a576101008083540402835291602001916106a5565b820191906000526020600020905b81548152906001019060200180831161068857829003601f168201915b5050505050905090565b60006106b961052e565b15806107125750600660009054906101000a900473ffffffffffffffffffffffffffffffffffffffff1673ffffffffffffffffffffffffffffffffffffffff163373ffffffffffffffffffffffffffffffffffffffff16145b8061074f57506107206105f3565b73ffffffffffffffffffffffffffffffffffffffff163373ffffffffffffffffffffffffffffffffffffffff16145b61078e576040517f08c379a000000000000000000000000000000000000000000000000000000000815260040161078590611549565b60405180910390fd5b6107988383610b97565b905092915050565b6000600160008473ffffffffffffffffffffffffffffffffffffffff1673ffffffffffffffffffffffffffffffffffffffff16815260200190815260200160002060008373ffffffffffffffffffffffffffffffffffffffff1673ffffffffffffffffffffffffffffffffffffffff16815260200190815260200160002054905092915050565b61082f610a36565b600073ffffffffffffffffffffffffffffffffffffffff168173ffffffffffffffffffffffffffffffffffffffff16036108a15760006040517f1e4fbdf7000000000000000000000000000000000000000000000000000000008152600401610898919061138b565b60405180910390fd5b6108aa81610bba565b50565b6108b5610a36565b80600660006101000a81548173ffffffffffffffffffffffffffffffffffffffff021916908373ffffffffffffffffffffffffffffffffffffffff16021790555050565b600033905090565b61090e8383836001610c80565b505050565b600073ffffffffffffffffffffffffffffffffffffffff168373ffffffffffffffffffffffffffffffffffffffff16036109855760006040517f96c6fd1e00000000000000000000000000000000000000000000000000000000815260040161097c919061138b565b60405180910390fd5b600073ffffffffffffffffffffffffffffffffffffffff168273ffffffffffffffffffffffffffffffffffffffff16036109f75760006040517fec442f050000000000000000000000000000000000000000000000000000000081526004016109ee919061138b565b60405180910390fd5b610a02838383610e57565b505050565b600080610a126108f9565b9050610a1f85828561107c565b610a2a858585610913565b60019150509392505050565b610a3e6108f9565b73ffffffffffffffffffffffffffffffffffffffff16610a5c6105f3565b73ffffffffffffffffffffffffffffffffffffffff1614610abb57610a7f6108f9565b6040517f118cdaa7000000000000000000000000000000000000000000000000000000008152600401610ab2919061138b565b60405180910390fd5b565b610ac5611110565b6000600560146101000a81548160ff0219169083151502179055507f5db9ee0a495bf2e6ff9c91a7834c1ba4fdd244a5e8aa4e537bd38aeae4b073aa610b096108f9565b604051610b16919061138b565b60405180910390a1565b610b28610a36565b610b326000610bba565b565b610b3c611150565b6001600560146101000a81548160ff0219169083151502179055507f62e78cea01bee320cd4e420270b5ea74000d11b0c9f74754ebdbfc544b05a258610b806108f9565b604051610b8d919061138b565b60405180910390a1565b600080610ba26108f9565b9050610baf818585610913565b600191505092915050565b6000600560009054906101000a900473ffffffffffffffffffffffffffffffffffffffff16905081600560006101000a81548173ffffffffffffffffffffffffffffffffffffffff021916908373ffffffffffffffffffffffffffffffffffffffff1602179055508173ffffffffffffffffffffffffffffffffffffffff168173ffffffffffffffffffffffffffffffffffffffff167f8be0079c531659141344cd1fd0a4f28419497f9722a3daafe3b4186f6b6457e060405160405180910390a35050565b600073ffffffffffffffffffffffffffffffffffffffff168473ffffffffffffffffffffffffffffffffffffffff1603610cf25760006040517fe602df05000000000000000000000000000000000000000000000000000000008152600401610ce9919061138b565b60405180910390fd5b600073ffffffffffffffffffffffffffffffffffffffff168373ffffffffffffffffffffffffffffffffffffffff1603610d645760006040517f94280d62000000000000000000000000000000000000000000000000000000008152600401610d5b919061138b565b60405180910390fd5b81600160008673ffffffffffffffffffffffffffffffffffffffff1673ffffffffffffffffffffffffffffffffffffffff16815260200190815260200160002060008573ffffffffffffffffffffffffffffffffffffffff1673ffffffffffffffffffffffffffffffffffffffff168152602001908152602001600020819055508015610e51578273ffffffffffffffffffffffffffffffffffffffff168473ffffffffffffffffffffffffffffffffffffffff167f8c5be1e5ebec7d5bd14f71427d1e84f3dd0314c0f7b2291e5b200ac8c7c3b92584604051610e489190611361565b60405180910390a35b50505050565b600073ffffffffffffffffffffffffffffffffffffffff168373ffffffffffffffffffffffffffffffffffffffff1603610ea9578060026000828254610e9d9190611598565b92505081905550610f7c565b60008060008573ffffffffffffffffffffffffffffffffffffffff1673ffffffffffffffffffffffffffffffffffffffff16815260200190815260200160002054905081811015610f35578381836040517fe450d38c000000000000000000000000000000000000000000000000000000008152600401610f2c939291906115cc565b60405180910390fd5b8181036000808673ffffffffffffffffffffffffffffffffffffffff1673ffffffffffffffffffffffffffffffffffffffff16815260200190815260200160002081905550505b600073ffffffffffffffffffffffffffffffffffffffff168273ffffffffffffffffffffffffffffffffffffffff1603610fc55780600260008282540392505081905550611012565b806000808473ffffffffffffffffffffffffffffffffffffffff1673ffffffffffffffffffffffffffffffffffffffff168152602001908152602001600020600082825401925050819055505b8173ffffffffffffffffffffffffffffffffffffffff168373ffffffffffffffffffffffffffffffffffffffff167fddf252ad1be2c89b69c2b068fc378daa952ba7f163c4a11628f55a4df523b3ef8360405161106f9190611361565b60405180910390a3505050565b600061108884846107a0565b90507fffffffffffffffffffffffffffffffffffffffffffffffffffffffffffffffff811461110a57818110156110fa578281836040517ffb8f41b20000000000000000000000000000000000000000000000000000000081526004016110f1939291906115cc565b60405180910390fd5b61110984848484036000610c80565b5b50505050565b61111861052e565b61114e576040517f8dfc202b00000000000000000000000000000000000000000000000000000000815260040160405180910390fd5b565b61115861052e565b1561118f576040517fd93c066500000000000000000000000000000000000000000000000000000000815260040160405180910390fd5b565b600081519050919050565b600082825260208201905092915050565b60005b838110156111cb5780820151818401526020810190506111b0565b60008484015250505050565b6000601f19601f8301169050919050565b60006111f382611191565b6111fd818561119c565b935061120d8185602086016111ad565b611216816111d7565b840191505092915050565b6000602082019050818103600083015261123b81846111e8565b905092915050565b600080fd5b600073ffffffffffffffffffffffffffffffffffffffff82169050919050565b600061127382611248565b9050919050565b61128381611268565b811461128e57600080fd5b50565b6000813590506112a08161127a565b92915050565b6000819050919050565b6112b9816112a6565b81146112c457600080fd5b50565b6000813590506112d6816112b0565b92915050565b600080604083850312156112f3576112f2611243565b5b600061130185828601611291565b9250506020611312858286016112c7565b9150509250929050565b60008115159050919050565b6113318161131c565b82525050565b600060208201905061134c6000830184611328565b92915050565b61135b816112a6565b82525050565b60006020820190506113766000830184611352565b92915050565b61138581611268565b82525050565b60006020820190506113a0600083018461137c565b92915050565b6000806000606084860312156113bf576113be611243565b5b60006113cd86828701611291565b93505060206113de86828701611291565b92505060406113ef868287016112c7565b9150509250925092565b600060ff82169050919050565b61140f816113f9565b82525050565b600060208201905061142a6000830184611406565b92915050565b60006020828403121561144657611445611243565b5b600061145484828501611291565b91505092915050565b6000806040838503121561147457611473611243565b5b600061148285828601611291565b925050602061149385828601611291565b9150509250929050565b7f4e487b7100000000000000000000000000000000000000000000000000000000600052602260045260246000fd5b600060028204905060018216806114e457607f821691505b6020821081036114f7576114f661149d565b5b50919050565b7f546f6b656e207472616e73666572732061726520706175736564000000000000600082015250565b6000611533601a8361119c565b915061153e826114fd565b602082019050919050565b6000602082019050818103600083015261156281611526565b9050919050565b7f4e487b7100000000000000000000000000000000000000000000000000000000600052601160045260246000fd5b60006115a3826112a6565b91506115ae836112a6565b92508282019050808211156115c6576115c5611569565b5b92915050565b60006060820190506115e1600083018661137c565b6115ee6020830185611352565b6115fb6040830184611352565b94935050505056fea264697066735822122097637d5edf8d68b131742660b85d24bf66c58f82ad7ffb1d3fe2a98fecab0dd664736f6c634300081b0033",
  "linkReferences": {},
  "deployedLinkReferences": {}
}