{
  "_format": "hh-sol-artifact-1",
  "contractName": "InterludePlatform",
  "sourceName": "contracts/InterludePlatform.sol",
  "abi": [
    {
      "inputs": [
        {
          "internalType": "address payable",
          "name": "_owner",
          "type": "address"
        },
        {
          "internalType": "address",
          "name": "tokenAddress",
          "type": "address"
        }
      ],
      "stateMutability": "nonpayable",
      "type": "constructor"
    },
    {
      "inputs": [
        {
          "internalType": "address",
          "name": "owner",
          "type": "address"
        }
      ],
      "name": "OwnableInvalidOwner",
      "type": "error"
    },
    {
      "inputs": [
        {
          "internalType": "address",
          "name": "account",
          "type": "address"
        }
      ],
      "name": "OwnableUnauthorizedAccount",
      "type": "error"
    },
    {
      "anonymous": false,
      "inputs": [
        {
          "indexed": true,
          "internalType": "address",
          "name": "owner",
          "type": "address"
        },
        {
          "indexed": false,
          "internalType": "uint256",
          "name": "amount",
          "type": "uint256"
        }
      ],
      "name": "EarningsClaim",
      "type": "event"
    },
    {
      "anonymous": false,
      "inputs": [
        {
          "indexed": true,
          "internalType": "address",
          "name": "owner",
          "type": "address"
        },
        {
          "indexed": false,
          "internalType": "uint256",
          "name": "energyAmount",
          "type": "uint256"
        }
      ],
      "name": "EnergyCollected",
      "type": "event"
    },
    {
      "anonymous": false,
      "inputs": [
        {
          "indexed": true,
          "internalType": "address",
          "name": "previousOwner",
          "type": "address"
        },
        {
          "indexed": true,
          "internalType": "address",
          "name": "newOwner",
          "type": "address"
        }
      ],
      "name": "OwnershipTransferred",
      "type": "event"
    },
    {
      "anonymous": false,
      "inputs": [
        {
          "indexed": true,
          "internalType": "address",
          "name": "owner",
          "type": "address"
        },
        {
          "indexed": false,
          "internalType": "uint256",
          "name": "croAmount",
          "type": "uint256"
        },
        {
          "indexed": false,
          "internalType": "uint256",
          "name": "intAmount",
          "type": "uint256"
        }
      ],
      "name": "ReferralBonusClaim",
      "type": "event"
    },
    {
      "anonymous": false,
      "inputs": [
        {
          "indexed": true,
          "internalType": "address",
          "name": "buyer",
          "type": "address"
        },
        {
          "indexed": false,
          "internalType": "uint256",
          "name": "value",
          "type": "uint256"
        },
        {
          "indexed": false,
          "internalType": "uint256",
          "name": "referrerCroBonus",
          "type": "uint256"
        },
        {
          "indexed": false,
          "internalType": "uint256",
          "name": "referrerIntBonus",
          "type": "uint256"
        },
        {
          "indexed": false,
          "internalType": "uint256",
          "name": "referredIntBonus",
          "type": "uint256"
        }
      ],
      "name": "TokenPurchase",
      "type": "event"
    },
    {
      "inputs": [],
      "name": "accumulatedCro",
      "outputs": [
        {
          "internalType": "uint256",
          "name": "",
          "type": "uint256"
        }
      ],
      "stateMutability": "view",
      "type": "function"
    },
    {
      "inputs": [
        {
          "internalType": "string",
          "name": "assetName",
          "type": "string"
        },
        {
          "internalType": "uint256",
          "name": "power",
          "type": "uint256"
        },
        {
          "internalType": "uint256",
          "name": "unscaledPrice",
          "type": "uint256"
        },
        {
          "internalType": "bool",
          "name": "isCrystal",
          "type": "bool"
        }
      ],
      "name": "addAsset",
      "outputs": [],
      "stateMutability": "nonpayable",
      "type": "function"
    },
    {
      "inputs": [],
      "name": "adminWhitelist",
      "outputs": [
        {
          "internalType": "contract IWhitelist",
          "name": "",
          "type": "address"
        }
      ],
      "stateMutability": "view",
      "type": "function"
    },
    {
      "inputs": [
        {
          "internalType": "uint256",
          "name": "",
          "type": "uint256"
        }
      ],
      "name": "allUsers",
      "outputs": [
        {
          "internalType": "address",
          "name": "",
          "type": "address"
        }
      ],
      "stateMutability": "view",
      "type": "function"
    },
    {
      "inputs": [
        {
          "internalType": "uint256",
          "name": "crystalType",
          "type": "uint256"
        },
        {
          "internalType": "uint256",
          "name": "amount",
          "type": "uint256"
        }
      ],
      "name": "buyCrystal",
      "outputs": [],
      "stateMutability": "nonpayable",
      "type": "function"
    },
    {
      "inputs": [
        {
          "internalType": "uint256",
          "name": "gemType",
          "type": "uint256"
        },
        {
          "internalType": "uint256",
          "name": "amount",
          "type": "uint256"
        }
      ],
      "name": "buyGem",
      "outputs": [],
      "stateMutability": "nonpayable",
      "type": "function"
    },
    {
      "inputs": [
        {
          "internalType": "address",
          "name": "referralAddress",
          "type": "address"
        }
      ],
      "name": "buyToken",
      "outputs": [],
      "stateMutability": "payable",
      "type": "function"
    },
    {
      "inputs": [
        {
          "internalType": "address",
          "name": "user",
          "type": "address"
        }
      ],
      "name": "calculateUserEarnings",
      "outputs": [
        {
          "internalType": "uint256",
          "name": "",
          "type": "uint256"
        }
      ],
      "stateMutability": "view",
      "type": "function"
    },
    {
      "inputs": [],
      "name": "claimEarnings",
      "outputs": [],
      "stateMutability": "nonpayable",
      "type": "function"
    },
    {
      "inputs": [],
      "name": "claimReferralBonus",
      "outputs": [],
      "stateMutability": "nonpayable",
      "type": "function"
    },
    {
      "inputs": [
        {
          "internalType": "address",
          "name": "user",
          "type": "address"
        }
      ],
      "name": "collectEnergy",
      "outputs": [
        {
          "internalType": "uint256",
          "name": "",
          "type": "uint256"
        }
      ],
      "stateMutability": "nonpayable",
      "type": "function"
    },
    {
      "inputs": [
        {
          "internalType": "address",
          "name": "",
          "type": "address"
        }
      ],
      "name": "collectedEnergy",
      "outputs": [
        {
          "internalType": "uint256",
          "name": "",
          "type": "uint256"
        }
      ],
      "stateMutability": "view",
      "type": "function"
    },
    {
      "inputs": [
        {
          "internalType": "uint256",
          "name": "",
          "type": "uint256"
        }
      ],
      "name": "crystals",
      "outputs": [
        {
          "internalType": "string",
          "name": "name",
          "type": "string"
        },
        {
          "internalType": "uint256",
          "name": "power",
          "type": "uint256"
        },
        {
          "internalType": "uint256",
          "name": "unscaledPrice",
          "type": "uint256"
        }
      ],
      "stateMutability": "view",
      "type": "function"
    },
    {
      "inputs": [
        {
          "internalType": "address",
          "name": "",
          "type": "address"
        }
      ],
      "name": "currentCrystalPower",
      "outputs": [
        {
          "internalType": "uint256",
          "name": "",
          "type": "uint256"
        }
      ],
      "stateMutability": "view",
      "type": "function"
    },
    {
      "inputs": [
        {
          "internalType": "address",
          "name": "",
          "type": "address"
        }
      ],
      "name": "currentGemPower",
      "outputs": [
        {
          "internalType": "uint256",
          "name": "",
          "type": "uint256"
        }
      ],
      "stateMutability": "view",
      "type": "function"
    },
    {
      "inputs": [],
      "name": "currentPhase",
      "outputs": [
        {
          "internalType": "uint256",
          "name": "",
          "type": "uint256"
        }
      ],
      "stateMutability": "view",
      "type": "function"
    },
    {
      "inputs": [
        {
          "internalType": "address",
          "name": "user",
          "type": "address"
        }
      ],
      "name": "eligibleForReferral",
      "outputs": [
        {
          "internalType": "bool",
          "name": "",
          "type": "bool"
        }
      ],
      "stateMutability": "view",
      "type": "function"
    },
    {
      "inputs": [
        {
          "internalType": "address",
          "name": "",
          "type": "address"
        }
      ],
      "name": "firstPurchasePhase",
      "outputs": [
        {
          "internalType": "uint256",
          "name": "",
          "type": "uint256"
        }
      ],
      "stateMutability": "view",
      "type": "function"
    },
    {
      "inputs": [],
      "name": "flush",
      "outputs": [],
      "stateMutability": "nonpayable",
      "type": "function"
    },
    {
      "inputs": [
        {
          "internalType": "uint256",
          "name": "",
          "type": "uint256"
        }
      ],
      "name": "gems",
      "outputs": [
        {
          "internalType": "string",
          "name": "name",
          "type": "string"
        },
        {
          "internalType": "uint256",
          "name": "power",
          "type": "uint256"
        },
        {
          "internalType": "uint256",
          "name": "unscaledPrice",
          "type": "uint256"
        }
      ],
      "stateMutability": "view",
      "type": "function"
    },
    {
      "inputs": [],
      "name": "generalWhitelist",
      "outputs": [
        {
          "internalType": "contract IWhitelist",
          "name": "",
          "type": "address"
        }
      ],
      "stateMutability": "view",
      "type": "function"
    },
    {
      "inputs": [
        {
          "internalType": "address",
          "name": "",
          "type": "address"
        }
      ],
      "name": "generatedEnergy",
      "outputs": [
        {
          "internalType": "uint256",
          "name": "",
          "type": "uint256"
        }
      ],
      "stateMutability": "view",
      "type": "function"
    },
    {
      "inputs": [
        {
          "internalType": "address",
          "name": "user",
          "type": "address"
        }
      ],
      "name": "getCrystals",
      "outputs": [
        {
          "internalType": "uint256[]",
          "name": "",
          "type": "uint256[]"
        }
      ],
      "stateMutability": "view",
      "type": "function"
    },
    {
      "inputs": [
        {
          "internalType": "address",
          "name": "user",
          "type": "address"
        }
      ],
      "name": "getGems",
      "outputs": [
        {
          "internalType": "uint256[]",
          "name": "",
          "type": "uint256[]"
        }
      ],
      "stateMutability": "view",
      "type": "function"
    },
    {
      "inputs": [
        {
          "internalType": "address",
          "name": "user",
          "type": "address"
        },
        {
          "internalType": "uint256",
          "name": "amount",
          "type": "uint256"
        }
      ],
      "name": "giveTokenTo",
      "outputs": [],
      "stateMutability": "nonpayable",
      "type": "function"
    },
    {
      "inputs": [
        {
          "internalType": "address",
          "name": "user",
          "type": "address"
        },
        {
          "internalType": "uint256",
          "name": "amount",
          "type": "uint256"
        }
      ],
      "name": "giveUnclaimedEarnings",
      "outputs": [],
      "stateMutability": "nonpayable",
      "type": "function"
    },
    {
      "inputs": [
        {
          "internalType": "address",
          "name": "",
          "type": "address"
        }
      ],
      "name": "investmentAllowance",
      "outputs": [
        {
          "internalType": "uint256",
          "name": "",
          "type": "uint256"
        }
      ],
      "stateMutability": "view",
      "type": "function"
    },
    {
      "inputs": [
        {
          "internalType": "address",
          "name": "",
          "type": "address"
        }
      ],
      "name": "lastClaimedAccumulation",
      "outputs": [
        {
          "internalType": "uint256",
          "name": "",
          "type": "uint256"
        }
      ],
      "stateMutability": "view",
      "type": "function"
    },
    {
      "inputs": [
        {
          "internalType": "address",
          "name": "",
          "type": "address"
        }
      ],
      "name": "lastTimeEnergyComputed",
      "outputs": [
        {
          "internalType": "uint256",
          "name": "",
          "type": "uint256"
        }
      ],
      "stateMutability": "view",
      "type": "function"
    },
    {
      "inputs": [
        {
          "internalType": "address",
          "name": "user",
          "type": "address"
        },
        {
          "internalType": "uint256",
          "name": "crystalType",
          "type": "uint256"
        },
        {
          "internalType": "uint256",
          "name": "amount",
          "type": "uint256"
        }
      ],
      "name": "mintCrystal",
      "outputs": [],
      "stateMutability": "nonpayable",
      "type": "function"
    },
    {
      "inputs": [],
      "name": "onlyAllowWhitelisted",
      "outputs": [
        {
          "internalType": "bool",
          "name": "",
          "type": "bool"
        }
      ],
      "stateMutability": "view",
      "type": "function"
    },
    {
      "inputs": [],
      "name": "owner",
      "outputs": [
        {
          "internalType": "address",
          "name": "",
          "type": "address"
        }
      ],
      "stateMutability": "view",
      "type": "function"
    },
    {
      "inputs": [],
      "name": "partnersWhitelist",
      "outputs": [
        {
          "internalType": "contract IWhitelist",
          "name": "",
          "type": "address"
        }
      ],
      "stateMutability": "view",
      "type": "function"
    },
    {
      "inputs": [],
      "name": "referredIntBonusPercentage",
      "outputs": [
        {
          "internalType": "uint256",
          "name": "",
          "type": "uint256"
        }
      ],
      "stateMutability": "view",
      "type": "function"
    },
    {
      "inputs": [],
      "name": "referrerCroBonusPercentage",
      "outputs": [
        {
          "internalType": "uint256",
          "name": "",
          "type": "uint256"
        }
      ],
      "stateMutability": "view",
      "type": "function"
    },
    {
      "inputs": [],
      "name": "referrerIntBonusPercentage",
      "outputs": [
        {
          "internalType": "uint256",
          "name": "",
          "type": "uint256"
        }
      ],
      "stateMutability": "view",
      "type": "function"
    },
    {
      "inputs": [],
      "name": "renounceOwnership",
      "outputs": [],
      "stateMutability": "nonpayable",
      "type": "function"
    },
    {
      "inputs": [
        {
          "internalType": "bool",
          "name": "_restricted",
          "type": "bool"
        }
      ],
      "name": "restrictReferralProgram",
      "outputs": [],
      "stateMutability": "nonpayable",
      "type": "function"
    },
    {
      "inputs": [],
      "name": "restrictReferralProgramToPartners",
      "outputs": [
        {
          "internalType": "bool",
          "name": "",
          "type": "bool"
        }
      ],
      "stateMutability": "view",
      "type": "function"
    },
    {
      "inputs": [
        {
          "internalType": "uint256",
          "name": "crystalType",
          "type": "uint256"
        },
        {
          "internalType": "uint256",
          "name": "amount",
          "type": "uint256"
        }
      ],
      "name": "sellCrystal",
      "outputs": [],
      "stateMutability": "nonpayable",
      "type": "function"
    },
    {
      "inputs": [
        {
          "internalType": "uint256",
          "name": "gemType",
          "type": "uint256"
        },
        {
          "internalType": "uint256",
          "name": "amount",
          "type": "uint256"
        }
      ],
      "name": "sellGem",
      "outputs": [],
      "stateMutability": "nonpayable",
      "type": "function"
    },
    {
      "inputs": [
        {
          "internalType": "address",
          "name": "_adminWhitelist",
          "type": "address"
        }
      ],
      "name": "setAdminWhitelist",
      "outputs": [],
      "stateMutability": "nonpayable",
      "type": "function"
    },
    {
      "inputs": [
        {
          "internalType": "address",
          "name": "_generalWhitelist",
          "type": "address"
        }
      ],
      "name": "setGeneralWhitelist",
      "outputs": [],
      "stateMutability": "nonpayable",
      "type": "function"
    },
    {
      "inputs": [
        {
          "internalType": "bool",
          "name": "_onlyAllowWhitelisted",
          "type": "bool"
        }
      ],
      "name": "setOnlyWhitelist",
      "outputs": [],
      "stateMutability": "nonpayable",
      "type": "function"
    },
    {
      "inputs": [
        {
          "internalType": "address",
          "name": "_partnersWhitelist",
          "type": "address"
        }
      ],
      "name": "setPartnersWhitelist",
      "outputs": [],
      "stateMutability": "nonpayable",
      "type": "function"
    },
    {
      "inputs": [
        {
          "internalType": "uint256",
          "name": "_referrerCroBonusPercentage",
          "type": "uint256"
        },
        {
          "internalType": "uint256",
          "name": "_referrerIntBonusPercentage",
          "type": "uint256"
        },
        {
          "internalType": "uint256",
          "name": "_referredIntBonusPercentage",
          "type": "uint256"
        }
      ],
      "name": "setReferralBonusesPercentages",
      "outputs": [],
      "stateMutability": "nonpayable",
      "type": "function"
    },
    {
      "inputs": [
        {
          "internalType": "uint256",
          "name": "_startDate",
          "type": "uint256"
        }
      ],
      "name": "setStartDate",
      "outputs": [],
      "stateMutability": "nonpayable",
      "type": "function"
    },
    {
      "inputs": [
        {
          "components": [
            {
              "internalType": "uint256",
              "name": "size",
              "type": "uint256"
            },
            {
              "internalType": "uint256",
              "name": "price",
              "type": "uint256"
            }
          ],
          "internalType": "struct InterludePlatform.Step[]",
          "name": "_steps",
          "type": "tuple[]"
        }
      ],
      "name": "setSteps",
      "outputs": [],
      "stateMutability": "nonpayable",
      "type": "function"
    },
    {
      "inputs": [
        {
          "internalType": "address",
          "name": "",
          "type": "address"
        }
      ],
      "name": "spendableTokens",
      "outputs": [
        {
          "internalType": "uint256",
          "name": "",
          "type": "uint256"
        }
      ],
      "stateMutability": "view",
      "type": "function"
    },
    {
      "inputs": [],
      "name": "startDate",
      "outputs": [
        {
          "internalType": "uint256",
          "name": "",
          "type": "uint256"
        }
      ],
      "stateMutability": "view",
      "type": "function"
    },
    {
      "inputs": [
        {
          "internalType": "uint256",
          "name": "",
          "type": "uint256"
        }
      ],
      "name": "steps",
      "outputs": [
        {
          "internalType": "uint256",
          "name": "size",
          "type": "uint256"
        },
        {
          "internalType": "uint256",
          "name": "price",
          "type": "uint256"
        }
      ],
      "stateMutability": "view",
      "type": "function"
    },
    {
      "inputs": [],
      "name": "token",
      "outputs": [
        {
          "internalType": "contract MyPausableToken",
          "name": "",
          "type": "address"
        }
      ],
      "stateMutability": "view",
      "type": "function"
    },
    {
      "inputs": [
        {
          "internalType": "address",
          "name": "",
          "type": "address"
        }
      ],
      "name": "totalClaimed",
      "outputs": [
        {
          "internalType": "uint256",
          "name": "",
          "type": "uint256"
        }
      ],
      "stateMutability": "view",
      "type": "function"
    },
    {
      "inputs": [
        {
          "internalType": "address",
          "name": "",
          "type": "address"
        }
      ],
      "name": "totalClaimedCroReferralBonus",
      "outputs": [
        {
          "internalType": "uint256",
          "name": "",
          "type": "uint256"
        }
      ],
      "stateMutability": "view",
      "type": "function"
    },
    {
      "inputs": [
        {
          "internalType": "address",
          "name": "",
          "type": "address"
        }
      ],
      "name": "totalClaimedIntReferralBonus",
      "outputs": [
        {
          "internalType": "uint256",
          "name": "",
          "type": "uint256"
        }
      ],
      "stateMutability": "view",
      "type": "function"
    },
    {
      "inputs": [],
      "name": "totalCrystalPower",
      "outputs": [
        {
          "internalType": "uint256",
          "name": "",
          "type": "uint256"
        }
      ],
      "stateMutability": "view",
      "type": "function"
    },
    {
      "inputs": [],
      "name": "totalGemPower",
      "outputs": [
        {
          "internalType": "uint256",
          "name": "",
          "type": "uint256"
        }
      ],
      "stateMutability": "view",
      "type": "function"
    },
    {
      "inputs": [],
      "name": "totalIntInCrystals",
      "outputs": [
        {
          "internalType": "uint256",
          "name": "",
          "type": "uint256"
        }
      ],
      "stateMutability": "view",
      "type": "function"
    },
    {
      "inputs": [],
      "name": "totalIntInGems",
      "outputs": [
        {
          "internalType": "uint256",
          "name": "",
          "type": "uint256"
        }
      ],
      "stateMutability": "view",
      "type": "function"
    },
    {
      "inputs": [
        {
          "internalType": "address",
          "name": "",
          "type": "address"
        }
      ],
      "name": "totalInvested",
      "outputs": [
        {
          "internalType": "uint256",
          "name": "",
          "type": "uint256"
        }
      ],
      "stateMutability": "view",
      "type": "function"
    },
    {
      "inputs": [],
      "name": "totalPriceUnitsInCrystals",
      "outputs": [
        {
          "internalType": "uint256",
          "name": "",
          "type": "uint256"
        }
      ],
      "stateMutability": "view",
      "type": "function"
    },
    {
      "inputs": [],
      "name": "totalSold",
      "outputs": [
        {
          "internalType": "uint256",
          "name": "",
          "type": "uint256"
        }
      ],
      "stateMutability": "view",
      "type": "function"
    },
    {
      "inputs": [],
      "name": "totalUsers",
      "outputs": [
        {
          "internalType": "uint256",
          "name": "",
          "type": "uint256"
        }
      ],
      "stateMutability": "view",
      "type": "function"
    },
    {
      "inputs": [
        {
          "internalType": "address",
          "name": "newOwner",
          "type": "address"
        }
      ],
      "name": "transferOwnership",
      "outputs": [],
      "stateMutability": "nonpayable",
      "type": "function"
    },
    {
      "inputs": [
        {
          "internalType": "address",
          "name": "",
          "type": "address"
        }
      ],
      "name": "unclaimedCroReferralBonus",
      "outputs": [
        {
          "internalType": "uint256",
          "name": "",
          "type": "uint256"
        }
      ],
      "stateMutability": "view",
      "type": "function"
    },
    {
      "inputs": [
        {
          "internalType": "address",
          "name": "",
          "type": "address"
        }
      ],
      "name": "unclaimedEarnings",
      "outputs": [
        {
          "internalType": "uint256",
          "name": "",
          "type": "uint256"
        }
      ],
      "stateMutability": "view",
      "type": "function"
    },
    {
      "inputs": [
        {
          "internalType": "address",
          "name": "",
          "type": "address"
        }
      ],
      "name": "unclaimedIntReferralBonus",
      "outputs": [
        {
          "internalType": "uint256",
          "name": "",
          "type": "uint256"
        }
      ],
      "stateMutability": "view",
      "type": "function"
    },
    {
      "inputs": [
        {
          "internalType": "uint256",
          "name": "index",
          "type": "uint256"
        },
        {
          "internalType": "uint256",
          "name": "_power",
          "type": "uint256"
        },
        {
          "internalType": "uint256",
          "name": "_unscaledPrice",
          "type": "uint256"
        },
        {
          "internalType": "bool",
          "name": "isCrystal",
          "type": "bool"
        }
      ],
      "name": "updateAsset",
      "outputs": [],
      "stateMutability": "nonpayable",
      "type": "function"
    },
    {
      "inputs": [
        {
          "internalType": "address",
          "name": "",
          "type": "address"
        },
        {
          "internalType": "uint256",
          "name": "",
          "type": "uint256"
        }
      ],
      "name": "userCrystals",
      "outputs": [
        {
          "internalType": "uint256",
          "name": "",
          "type": "uint256"
        }
      ],
      "stateMutability": "view",
      "type": "function"
    },
    {
      "inputs": [
        {
          "internalType": "address",
          "name": "",
          "type": "address"
        },
        {
          "internalType": "uint256",
          "name": "",
          "type": "uint256"
        }
      ],
      "name": "userGems",
      "outputs": [
        {
          "internalType": "uint256",
          "name": "",
          "type": "uint256"
        }
      ],
      "stateMutability": "view",
      "type": "function"
    },
    {
      "stateMutability": "payable",
      "type": "receive"
    }
  ],
  "bytecode": "0x60806040526000600e5560016010556001601155600160125560016013556001601455600a601f55600a602055600f6021556000602660006101000a81548160ff02191690831515021790555034801561005857600080fd5b50604051615a21380380615a21833981810160405281019061007a91906102aa565b81600073ffffffffffffffffffffffffffffffffffffffff168173ffffffffffffffffffffffffffffffffffffffff16036100ed5760006040517f1e4fbdf70000000000000000000000000000000000000000000000000000000081526004016100e491906102f9565b60405180910390fd5b6100fc8161014560201b60201c565b5080600260006101000a81548173ffffffffffffffffffffffffffffffffffffffff021916908373ffffffffffffffffffffffffffffffffffffffff1602179055505050610314565b60008060009054906101000a900473ffffffffffffffffffffffffffffffffffffffff169050816000806101000a81548173ffffffffffffffffffffffffffffffffffffffff021916908373ffffffffffffffffffffffffffffffffffffffff1602179055508173ffffffffffffffffffffffffffffffffffffffff168173ffffffffffffffffffffffffffffffffffffffff167f8be0079c531659141344cd1fd0a4f28419497f9722a3daafe3b4186f6b6457e060405160405180910390a35050565b600080fd5b600073ffffffffffffffffffffffffffffffffffffffff82169050919050565b60006102398261020e565b9050919050565b6102498161022e565b811461025457600080fd5b50565b60008151905061026681610240565b92915050565b60006102778261020e565b9050919050565b6102878161026c565b811461029257600080fd5b50565b6000815190506102a48161027e565b92915050565b600080604083850312156102c1576102c0610209565b5b60006102cf85828601610257565b92505060206102e085828601610295565b9150509250929050565b6102f38161026c565b82525050565b600060208201905061030e60008301846102ea565b92915050565b6156fe806103236000396000f3fe6080604052600436106104095760003560e01c806388185e0311610213578063c8da5ef511610123578063ef49968a116100ab578063f9d702001161007a578063f9d702001461105a578063fc0c546a14611083578063fcb966d7146110ae578063fd239fd9146110d9578063ff5133cd1461111657610410565b8063ef49968a14610f8e578063ef5d9ae814610fcb578063f226de9714611008578063f2fde38b1461103157610410565b8063d9ceab13116100f2578063d9ceab1314610ebd578063dc0c6a2a14610ed4578063de473f8d14610eff578063df13c9ca14610f3c578063e1dc75d214610f6557610410565b8063c8da5ef514610e01578063ce54d6e114610e2c578063d4a444b414610e55578063d7e14e1314610e9257610410565b8063a1f0406d116101a6578063bbaa117711610175578063bbaa117714610d08578063bc3de74914610d33578063bff1f9e114610d5c578063c70e12cb14610d87578063c7a1834714610dc457610410565b8063a1f0406d14610c24578063a2bdedf414610c63578063a54dfaad14610ca0578063af28728c14610cdd57610410565b806390c757eb116101e257806390c757eb14610b565780639106d7ba14610b9357806393dbc75714610bbe57806395ae847814610be757610410565b806388185e0314610a865780638da5cb5b14610ac35780638e84a0d814610aee57806390838e0914610b1957610410565b806347315ec4116103195780636c8a7126116102a15780637d848db2116102705780637d848db2146109b25780637e72fb52146109db57806382d95df5146109f7578063869c865e14610a20578063876cf0ef14610a4957610410565b80636c8a7126146108e35780636de62ea714610920578063715018a61461095d5780637217e0b91461097457610410565b806350a3eaf0116102e857806350a3eaf01461081057806351484a191461083b5780636143440c1461087857806366d74c80146108a15780636b9f96ea146108cc57610410565b806347315ec41461072e5780634a5f58c71461076b5780634e358662146107a85780634ed9b7f6146107e557610410565b80631ff9e2b21161039c57806329e0f88d1161036b57806329e0f88d146106215780632b4c73e51461064a57806331b3ab3f1461067557806333298463146106b4578063376f9671146106f157610410565b80631ff9e2b214610565578063206a5dbc1461059057806321622c63146105bb57806323ada717146105e457610410565b80630b97bc86116103d85780630b97bc86146104bd578063109d75d5146104e85780631dd02b4b146105255780631e375ab91461054e57610410565b80630355d20c14610415578063055ad42e1461043e57806308d317dd146104695780630ae19ba81461049257610410565b3661041057005b600080fd5b34801561042157600080fd5b5061043c6004803603810190610437919061446d565b61113f565b005b34801561044a57600080fd5b506104536111a1565b60405161046091906144bc565b60405180910390f35b34801561047557600080fd5b50610490600480360381019061048b91906144d7565b61123d565b005b34801561049e57600080fd5b506104a76114ad565b6040516104b491906144bc565b60405180910390f35b3480156104c957600080fd5b506104d26114b3565b6040516104df91906144bc565b60405180910390f35b3480156104f457600080fd5b5061050f600480360381019061050a9190614517565b6114b9565b60405161051c91906144bc565b60405180910390f35b34801561053157600080fd5b5061054c6004803603810190610547919061457c565b611646565b005b34801561055a57600080fd5b5061056361166b565b005b34801561057157600080fd5b5061057a6118ce565b6040516105879190614608565b60405180910390f35b34801561059c57600080fd5b506105a56118f4565b6040516105b291906144bc565b60405180910390f35b3480156105c757600080fd5b506105e260048036038101906105dd91906147d1565b6118fa565b005b3480156105f057600080fd5b5061060b60048036038101906106069190614517565b6119bf565b60405161061891906144bc565b60405180910390f35b34801561062d57600080fd5b5061064860048036038101906106439190614517565b6119d7565b005b34801561065657600080fd5b5061065f611a23565b60405161066c91906144bc565b60405180910390f35b34801561068157600080fd5b5061069c6004803603810190610697919061481a565b611a29565b6040516106ab939291906148c6565b60405180910390f35b3480156106c057600080fd5b506106db60048036038101906106d69190614517565b611aeb565b6040516106e891906144bc565b60405180910390f35b3480156106fd57600080fd5b5061071860048036038101906107139190614517565b611b03565b60405161072591906144bc565b60405180910390f35b34801561073a57600080fd5b5061075560048036038101906107509190614517565b611b1b565b60405161076291906144bc565b60405180910390f35b34801561077757600080fd5b50610792600480360381019061078d9190614517565b611b33565b60405161079f91906144bc565b60405180910390f35b3480156107b457600080fd5b506107cf60048036038101906107ca9190614517565b611b4b565b6040516107dc91906144bc565b60405180910390f35b3480156107f157600080fd5b506107fa611b63565b6040516108079190614913565b60405180910390f35b34801561081c57600080fd5b50610825611b76565b60405161083291906144bc565b60405180910390f35b34801561084757600080fd5b50610862600480360381019061085d9190614517565b611b7c565b60405161086f91906144bc565b60405180910390f35b34801561088457600080fd5b5061089f600480360381019061089a9190614517565b611b94565b005b3480156108ad57600080fd5b506108b6611be0565b6040516108c39190614608565b60405180910390f35b3480156108d857600080fd5b506108e1611c06565b005b3480156108ef57600080fd5b5061090a60048036038101906109059190614517565b611c5e565b60405161091791906144bc565b60405180910390f35b34801561092c57600080fd5b5061094760048036038101906109429190614517565b611c76565b60405161095491906144bc565b60405180910390f35b34801561096957600080fd5b50610972611c8e565b005b34801561098057600080fd5b5061099b6004803603810190610996919061481a565b611ca2565b6040516109a992919061492e565b60405180910390f35b3480156109be57600080fd5b506109d960048036038101906109d49190614957565b611cd6565b005b6109f560048036038101906109f09190614517565b611d98565b005b348015610a0357600080fd5b50610a1e6004803603810190610a19919061481a565b61222e565b005b348015610a2c57600080fd5b50610a476004803603810190610a429190614a73565b612240565b005b348015610a5557600080fd5b50610a706004803603810190610a6b9190614517565b61233e565b604051610a7d9190614bb4565b60405180910390f35b348015610a9257600080fd5b50610aad6004803603810190610aa89190614517565b612429565b604051610aba9190614bb4565b60405180910390f35b348015610acf57600080fd5b50610ad8612514565b604051610ae59190614be5565b60405180910390f35b348015610afa57600080fd5b50610b0361253d565b604051610b109190614913565b60405180910390f35b348015610b2557600080fd5b50610b406004803603810190610b3b9190614517565b612550565b604051610b4d91906144bc565b60405180910390f35b348015610b6257600080fd5b50610b7d6004803603810190610b78919061446d565b612568565b604051610b8a91906144bc565b60405180910390f35b348015610b9f57600080fd5b50610ba861258d565b604051610bb591906144bc565b60405180910390f35b348015610bca57600080fd5b50610be56004803603810190610be09190614517565b612593565b005b348015610bf357600080fd5b50610c0e6004803603810190610c099190614517565b6125df565b604051610c1b91906144bc565b60405180910390f35b348015610c3057600080fd5b50610c4b6004803603810190610c46919061481a565b6125f7565b604051610c5a939291906148c6565b60405180910390f35b348015610c6f57600080fd5b50610c8a6004803603810190610c85919061481a565b6126b9565b604051610c979190614be5565b60405180910390f35b348015610cac57600080fd5b50610cc76004803603810190610cc29190614517565b6126f8565b604051610cd491906144bc565b60405180910390f35b348015610ce957600080fd5b50610cf2612710565b604051610cff9190614608565b60405180910390f35b348015610d1457600080fd5b50610d1d612736565b604051610d2a91906144bc565b60405180910390f35b348015610d3f57600080fd5b50610d5a6004803603810190610d559190614c00565b61273c565b005b348015610d6857600080fd5b50610d71612851565b604051610d7e91906144bc565b60405180910390f35b348015610d9357600080fd5b50610dae6004803603810190610da9919061446d565b612857565b604051610dbb91906144bc565b60405180910390f35b348015610dd057600080fd5b50610deb6004803603810190610de69190614517565b61287c565b604051610df891906144bc565b60405180910390f35b348015610e0d57600080fd5b50610e16612894565b604051610e2391906144bc565b60405180910390f35b348015610e3857600080fd5b50610e536004803603810190610e4e919061446d565b61289a565b005b348015610e6157600080fd5b50610e7c6004803603810190610e779190614517565b6129b9565b604051610e8991906144bc565b60405180910390f35b348015610e9e57600080fd5b50610ea76129d1565b604051610eb491906144bc565b60405180910390f35b348015610ec957600080fd5b50610ed26129d7565b005b348015610ee057600080fd5b50610ee9612b5b565b604051610ef691906144bc565b60405180910390f35b348015610f0b57600080fd5b50610f266004803603810190610f219190614517565b612b61565b604051610f339190614913565b60405180910390f35b348015610f4857600080fd5b50610f636004803603810190610f5e919061457c565b612e10565b005b348015610f7157600080fd5b50610f8c6004803603810190610f8791906144d7565b612e35565b005b348015610f9a57600080fd5b50610fb56004803603810190610fb09190614517565b61300f565b604051610fc291906144bc565b60405180910390f35b348015610fd757600080fd5b50610ff26004803603810190610fed9190614517565b613027565b604051610fff91906144bc565b60405180910390f35b34801561101457600080fd5b5061102f600480360381019061102a91906144d7565b61303f565b005b34801561103d57600080fd5b5061105860048036038101906110539190614517565b613276565b005b34801561106657600080fd5b50611081600480360381019061107c91906144d7565b6132fc565b005b34801561108f57600080fd5b506110986134d9565b6040516110a59190614c74565b60405180910390f35b3480156110ba57600080fd5b506110c36134ff565b6040516110d091906144bc565b60405180910390f35b3480156110e557600080fd5b5061110060048036038101906110fb9190614517565b613505565b60405161110d91906144bc565b60405180910390f35b34801561112257600080fd5b5061113d60048036038101906111389190614c8f565b6138b5565b005b611147613bb1565b80601960008473ffffffffffffffffffffffffffffffffffffffff1673ffffffffffffffffffffffffffffffffffffffff16815260200190815260200160002060008282546111969190614d11565b925050819055505050565b6000806000905060005b60038054905081101561121857600381815481106111cc576111cb614d45565b5b906000526020600020906002020160000154826111e99190614d11565b915081600554101561120b576001816112029190614d11565b9250505061123a565b80806001019150506111ab565b5060018060038054905061122c9190614d74565b6112369190614d11565b9150505b90565b6000600c838154811061125357611252614d45565b5b9060005260206000209060030201600101541161126f57600080fd5b80600d60003373ffffffffffffffffffffffffffffffffffffffff1673ffffffffffffffffffffffffffffffffffffffff1681526020019081526020016000206000848152602001908152602001600020541015611302576040517f08c379a00000000000000000000000000000000000000000000000000000000081526004016112f990614df4565b60405180910390fd5b61130b33613c38565b600081600c848154811061132257611321614d45565b5b90600052602060002090600302016001015461133e9190614e14565b9050600082600c858154811061135757611356614d45565b5b9060005260206000209060030201600201546113739190614e14565b90506000601454826013546113889190614e14565b6113929190614e85565b905081601460008282546113a69190614d74565b9250508190555080601360008282546113bf9190614d74565b9250508190555082601160008282546113d89190614d74565b925050819055506113e93382613d69565b83600d60003373ffffffffffffffffffffffffffffffffffffffff1673ffffffffffffffffffffffffffffffffffffffff168152602001908152602001600020600087815260200190815260200160002060008282546114499190614d74565b9250508190555082601660003373ffffffffffffffffffffffffffffffffffffffff1673ffffffffffffffffffffffffffffffffffffffff168152602001908152602001600020600082825461149f9190614d74565b925050819055505050505050565b60145481565b60045481565b600080600f60008473ffffffffffffffffffffffffffffffffffffffff1673ffffffffffffffffffffffffffffffffffffffff16815260200190815260200160002054600e546115099190614d74565b9050600060125460135461151d9190614d11565b601254620f424061152e9190614e14565b6115389190614e85565b9050600060125460135461154c9190614d11565b601354620f424061155d9190614e14565b6115679190614e85565b9050620f4240601154601660008873ffffffffffffffffffffffffffffffffffffffff1673ffffffffffffffffffffffffffffffffffffffff16815260200190815260200160002054836115bb9190614e14565b6115c59190614e85565b601054601560008973ffffffffffffffffffffffffffffffffffffffff1673ffffffffffffffffffffffffffffffffffffffff16815260200190815260200160002054856116139190614e14565b61161d9190614e85565b6116279190614d11565b846116329190614e14565b61163c9190614e85565b9350505050919050565b61164e613bb1565b80600660006101000a81548160ff02191690831515021790555050565b6000602260003373ffffffffffffffffffffffffffffffffffffffff1673ffffffffffffffffffffffffffffffffffffffff1681526020019081526020016000205490506000602260003373ffffffffffffffffffffffffffffffffffffffff1673ffffffffffffffffffffffffffffffffffffffff168152602001908152602001600020819055506116fe3382613d69565b80602460003373ffffffffffffffffffffffffffffffffffffffff1673ffffffffffffffffffffffffffffffffffffffff168152602001908152602001600020600082825461174d9190614d11565b925050819055506000602360003373ffffffffffffffffffffffffffffffffffffffff1673ffffffffffffffffffffffffffffffffffffffff1681526020019081526020016000205490506000602360003373ffffffffffffffffffffffffffffffffffffffff1673ffffffffffffffffffffffffffffffffffffffff1681526020019081526020016000208190555080602560003373ffffffffffffffffffffffffffffffffffffffff1673ffffffffffffffffffffffffffffffffffffffff168152602001908152602001600020600082825461182c9190614d11565b925050819055503373ffffffffffffffffffffffffffffffffffffffff166108fc829081150290604051600060405180830381858888f19350505050158015611879573d6000803e3d6000fd5b503373ffffffffffffffffffffffffffffffffffffffff167f454211b099b54298804b6b35092d2a4bcbf8e5ea525a50b79b542ba2d4bc6a2482846040516118c292919061492e565b60405180910390a25050565b602760009054906101000a900473ffffffffffffffffffffffffffffffffffffffff1681565b60135481565b611902613bb1565b60036000611910919061437a565b60005b81518110156119bb576003604051806040016040528084848151811061193c5761193b614d45565b5b60200260200101516000015181526020018484815181106119605761195f614d45565b5b6020026020010151602001518152509080600181540180825580915050600190039060005260206000209060020201600090919091909150600082015181600001556020820151816001015550508080600101915050611913565b5050565b60166020528060005260406000206000915090505481565b6119df613bb1565b80602760006101000a81548173ffffffffffffffffffffffffffffffffffffffff021916908373ffffffffffffffffffffffffffffffffffffffff16021790555050565b60105481565b600c8181548110611a3957600080fd5b9060005260206000209060030201600091509050806000018054611a5c90614ee5565b80601f0160208091040260200160405190810160405280929190818152602001828054611a8890614ee5565b8015611ad55780601f10611aaa57610100808354040283529160200191611ad5565b820191906000526020600020905b815481529060010190602001808311611ab857829003601f168201915b5050505050908060010154908060020154905083565b60226020528060005260406000206000915090505481565b60096020528060005260406000206000915090505481565b60196020528060005260406000206000915090505481565b601b6020528060005260406000206000915090505481565b601c6020528060005260406000206000915090505481565b602660009054906101000a900460ff1681565b60125481565b601e6020528060005260406000206000915090505481565b611b9c613bb1565b80602660016101000a81548173ffffffffffffffffffffffffffffffffffffffff021916908373ffffffffffffffffffffffffffffffffffffffff16021790555050565b600160009054906101000a900473ffffffffffffffffffffffffffffffffffffffff1681565b611c0e613bb1565b611c16612514565b73ffffffffffffffffffffffffffffffffffffffff166108fc479081150290604051600060405180830381858888f19350505050158015611c5b573d6000803e3d6000fd5b50565b600f6020528060005260406000206000915090505481565b60156020528060005260406000206000915090505481565b611c96613bb1565b611ca06000613f90565b565b60038181548110611cb257600080fd5b90600052602060002090600202016000915090508060000154908060010154905082565b611cde613bb1565b8015611d3d5782600c8581548110611cf957611cf8614d45565b5b90600052602060002090600302016001018190555081600c8581548110611d2357611d22614d45565b5b906000526020600020906003020160020181905550611d92565b82600a8581548110611d5257611d51614d45565b5b90600052602060002090600302016001018190555081600a8581548110611d7c57611d7b614d45565b5b9060005260206000209060030201600201819055505b50505050565b60003411611ddb576040517f08c379a0000000000000000000000000000000000000000000000000000000008152600401611dd290614f62565b60405180910390fd5b600660009054906101000a900460ff161580611e8f5750602760009054906101000a900473ffffffffffffffffffffffffffffffffffffffff1673ffffffffffffffffffffffffffffffffffffffff16633af32abf336040518263ffffffff1660e01b8152600401611e4d9190614be5565b602060405180830381865afa158015611e6a573d6000803e3d6000fd5b505050506040513d601f19601f82011682018060405250810190611e8e9190614f97565b5b611ece576040517f08c379a0000000000000000000000000000000000000000000000000000000008152600401611ec590615010565b60405180910390fd5b6004544211611f12576040517f08c379a0000000000000000000000000000000000000000000000000000000008152600401611f099061507c565b60405180910390fd5b6000611f1d34614054565b905060008111611f62576040517f08c379a0000000000000000000000000000000000000000000000000000000008152600401611f59906150e8565b60405180910390fd5b600073ffffffffffffffffffffffffffffffffffffffff168273ffffffffffffffffffffffffffffffffffffffff1603611f9a573391505b6000611fa583612b61565b90508160056000828254611fb99190614d11565b925050819055506000600234611fcf9190614e85565b9050600080600084156120dd57606460215487611fec9190614e14565b611ff69190614e85565b92506064602054876120089190614e14565b6120129190614e85565b90506064601f54346120249190614e14565b61202e9190614e85565b915081602360008973ffffffffffffffffffffffffffffffffffffffff1673ffffffffffffffffffffffffffffffffffffffff168152602001908152602001600020600082825461207f9190614d11565b9250508190555080602260008973ffffffffffffffffffffffffffffffffffffffff1673ffffffffffffffffffffffffffffffffffffffff16815260200190815260200160002060008282546120d59190614d11565b925050819055505b600083876120eb9190614d11565b90506120f73382613d69565b3373ffffffffffffffffffffffffffffffffffffffff167f8fd7c1cf2b9cceb829553742c07a11ee82ed91a2e2d4791328461df6aa6e8a89888585886040516121439493929190615108565b60405180910390a2600083866121599190614d11565b346121649190614d74565b905061216e612514565b73ffffffffffffffffffffffffffffffffffffffff166108fc829081150290604051600060405180830381858888f193505050501580156121b3573d6000803e3d6000fd5b5034601760003373ffffffffffffffffffffffffffffffffffffffff1673ffffffffffffffffffffffffffffffffffffffff16815260200190815260200160002060008282546122039190614d11565b9250508190555085600e600082825461221c9190614d11565b92505081905550505050505050505050565b612236613bb1565b8060048190555050565b612248613bb1565b80156122c557600c604051806060016040528086815260200185815260200184815250908060018154018082558091505060019003906000526020600020906003020160009091909190915060008201518160000190816122a991906152ef565b5060208201518160010155604082015181600201555050612338565b600a6040518060600160405280868152602001858152602001848152509080600181540180825580915050600190039060005260206000209060030201600090919091909150600082015181600001908161232091906152ef565b50602082015181600101556040820151816002015550505b50505050565b60606000600c8054905067ffffffffffffffff81111561236157612360614639565b5b60405190808252806020026020018201604052801561238f5781602001602082028036833780820191505090505b50905060005b600c8054905081101561241f57600d60008573ffffffffffffffffffffffffffffffffffffffff1673ffffffffffffffffffffffffffffffffffffffff16815260200190815260200160002060008281526020019081526020016000205482828151811061240657612405614d45565b5b6020026020010181815250508080600101915050612395565b5080915050919050565b60606000600a8054905067ffffffffffffffff81111561244c5761244b614639565b5b60405190808252806020026020018201604052801561247a5781602001602082028036833780820191505090505b50905060005b600a8054905081101561250a57600b60008573ffffffffffffffffffffffffffffffffffffffff1673ffffffffffffffffffffffffffffffffffffffff1681526020019081526020016000206000828152602001908152602001600020548282815181106124f1576124f0614d45565b5b6020026020010181815250508080600101915050612480565b5080915050919050565b60008060009054906101000a900473ffffffffffffffffffffffffffffffffffffffff16905090565b600660009054906101000a900460ff1681565b60176020528060005260406000206000915090505481565b600d602052816000526040600020602052806000526040600020600091509150505481565b60055481565b61259b613bb1565b80600160006101000a81548173ffffffffffffffffffffffffffffffffffffffff021916908373ffffffffffffffffffffffffffffffffffffffff16021790555050565b60236020528060005260406000206000915090505481565b600a818154811061260757600080fd5b906000526020600020906003020160009150905080600001805461262a90614ee5565b80601f016020809104026020016040519081016040528092919081815260200182805461265690614ee5565b80156126a35780601f10612678576101008083540402835291602001916126a3565b820191906000526020600020905b81548152906001019060200180831161268657829003601f168201915b5050505050908060010154908060020154905083565b600781815481106126c957600080fd5b906000526020600020016000915054906101000a900473ffffffffffffffffffffffffffffffffffffffff1681565b60246020528060005260406000206000915090505481565b602660019054906101000a900473ffffffffffffffffffffffffffffffffffffffff1681565b60215481565b612744613bb1565b60008310158015612756575060148311155b612795576040517f08c379a000000000000000000000000000000000000000000000000000000000815260040161278c9061540d565b60405180910390fd5b82601f81905550600082101580156127ae575060148211155b6127ed576040517f08c379a00000000000000000000000000000000000000000000000000000000081526004016127e49061540d565b60405180910390fd5b8160208190555060008110158015612806575060148111155b612845576040517f08c379a000000000000000000000000000000000000000000000000000000000815260040161283c9061540d565b60405180910390fd5b80602181905550505050565b60085481565b600b602052816000526040600020602052806000526040600020600091509150505481565b601d6020528060005260406000206000915090505481565b60115481565b6128a2613bb1565b600260009054906101000a900473ffffffffffffffffffffffffffffffffffffffff1673ffffffffffffffffffffffffffffffffffffffff166323b872dd6128e8612514565b84670de0b6b3a7640000856128fd9190614e14565b6040518463ffffffff1660e01b815260040161291b9392919061542d565b6020604051808303816000875af115801561293a573d6000803e3d6000fd5b505050506040513d601f19601f8201168201806040525081019061295e9190614f97565b5080600960008473ffffffffffffffffffffffffffffffffffffffff1673ffffffffffffffffffffffffffffffffffffffff16815260200190815260200160002060008282546129ae9190614d11565b925050819055505050565b60256020528060005260406000206000915090505481565b601f5481565b60006129e2336114b9565b905060008111612a27576040517f08c379a0000000000000000000000000000000000000000000000000000000008152600401612a1e906154b0565b60405180910390fd5b80601a60003373ffffffffffffffffffffffffffffffffffffffff1673ffffffffffffffffffffffffffffffffffffffff1681526020019081526020016000206000828254612a769190614d11565b92505081905550600e54600f60003373ffffffffffffffffffffffffffffffffffffffff1673ffffffffffffffffffffffffffffffffffffffff168152602001908152602001600020819055503373ffffffffffffffffffffffffffffffffffffffff166108fc829081150290604051600060405180830381858888f19350505050158015612b09573d6000803e3d6000fd5b503373ffffffffffffffffffffffffffffffffffffffff167f7bcfb0598e7cd0b03e8472440b7e292b4767743ddeb0579a65be466b40c8b0f382604051612b5091906144bc565b60405180910390a250565b600e5481565b6000602660009054906101000a900460ff1615612c7657600073ffffffffffffffffffffffffffffffffffffffff16602660019054906101000a900473ffffffffffffffffffffffffffffffffffffffff1673ffffffffffffffffffffffffffffffffffffffff1614158015612c6f5750602660019054906101000a900473ffffffffffffffffffffffffffffffffffffffff1673ffffffffffffffffffffffffffffffffffffffff16633af32abf836040518263ffffffff1660e01b8152600401612c2d9190614be5565b602060405180830381865afa158015612c4a573d6000803e3d6000fd5b505050506040513d601f19601f82011682018060405250810190612c6e9190614f97565b5b9050612e0b565b600073ffffffffffffffffffffffffffffffffffffffff16602760009054906101000a900473ffffffffffffffffffffffffffffffffffffffff1673ffffffffffffffffffffffffffffffffffffffff1614158015612d6d5750602760009054906101000a900473ffffffffffffffffffffffffffffffffffffffff1673ffffffffffffffffffffffffffffffffffffffff16633af32abf836040518263ffffffff1660e01b8152600401612d2b9190614be5565b602060405180830381865afa158015612d48573d6000803e3d6000fd5b505050506040513d601f19601f82011682018060405250810190612d6c9190614f97565b5b80612e0857506000601e60008473ffffffffffffffffffffffffffffffffffffffff1673ffffffffffffffffffffffffffffffffffffffff16815260200190815260200160002054118015612e075750612dc56111a1565b601e60008473ffffffffffffffffffffffffffffffffffffffff1673ffffffffffffffffffffffffffffffffffffffff16815260200190815260200160002054105b5b90505b919050565b612e18613bb1565b80602660006101000a81548160ff02191690831515021790555050565b6000600a8381548110612e4b57612e4a614d45565b5b90600052602060002090600302016001015411612e9d576040517f08c379a0000000000000000000000000000000000000000000000000000000008152600401612e949061551c565b60405180910390fd5b600081600a8481548110612eb457612eb3614d45565b5b906000526020600020906003020160020154612ed09190614e14565b9050600082600a8581548110612ee957612ee8614d45565b5b906000526020600020906003020160010154612f059190614e14565b9050612f1033613c38565b8160126000828254612f229190614d11565b925050819055508060106000828254612f3b9190614d11565b92505081905550612f4c33836141d9565b82600b60003373ffffffffffffffffffffffffffffffffffffffff1673ffffffffffffffffffffffffffffffffffffffff16815260200190815260200160002060008681526020019081526020016000206000828254612fac9190614d11565b9250508190555080601560003373ffffffffffffffffffffffffffffffffffffffff1673ffffffffffffffffffffffffffffffffffffffff16815260200190815260200160002060008282546130029190614d11565b9250508190555050505050565b60186020528060005260406000206000915090505481565b601a6020528060005260406000206000915090505481565b6000600a838154811061305557613054614d45565b5b9060005260206000209060030201600101541161307157600080fd5b80600b60003373ffffffffffffffffffffffffffffffffffffffff1673ffffffffffffffffffffffffffffffffffffffff1681526020019081526020016000206000848152602001908152602001600020541015613104576040517f08c379a00000000000000000000000000000000000000000000000000000000081526004016130fb90615588565b60405180910390fd5b600081600a848154811061311b5761311a614d45565b5b9060005260206000209060030201600201546131379190614e14565b9050600082600a85815481106131505761314f614d45565b5b90600052602060002090600302016001015461316c9190614e14565b905061317733613c38565b80601060008282546131899190614d74565b9250508190555081601260008282546131a29190614d74565b925050819055506131b33383613d69565b82600b60003373ffffffffffffffffffffffffffffffffffffffff1673ffffffffffffffffffffffffffffffffffffffff168152602001908152602001600020600086815260200190815260200160002060008282546132139190614d74565b9250508190555080601560003373ffffffffffffffffffffffffffffffffffffffff1673ffffffffffffffffffffffffffffffffffffffff16815260200190815260200160002060008282546132699190614d74565b9250508190555050505050565b61327e613bb1565b600073ffffffffffffffffffffffffffffffffffffffff168173ffffffffffffffffffffffffffffffffffffffff16036132f05760006040517f1e4fbdf70000000000000000000000000000000000000000000000000000000081526004016132e79190614be5565b60405180910390fd5b6132f981613f90565b50565b6000600c838154811061331257613311614d45565b5b9060005260206000209060030201600101541161332e57600080fd5b61333733613c38565b600081600c848154811061334e5761334d614d45565b5b90600052602060002090600302016001015461336a9190614e14565b9050600082600c858154811061338357613382614d45565b5b90600052602060002090600302016002015461339f9190614e14565b90506000601454826013546133b49190614e14565b6133be9190614e85565b905081601460008282546133d29190614d11565b9250508190555080601360008282546133eb9190614d11565b9250508190555082601160008282546134049190614d11565b9250508190555061341533826141d9565b83600d60003373ffffffffffffffffffffffffffffffffffffffff1673ffffffffffffffffffffffffffffffffffffffff168152602001908152602001600020600087815260200190815260200160002060008282546134759190614d11565b9250508190555082601660003373ffffffffffffffffffffffffffffffffffffffff1673ffffffffffffffffffffffffffffffffffffffff16815260200190815260200160002060008282546134cb9190614d11565b925050819055505050505050565b600260009054906101000a900473ffffffffffffffffffffffffffffffffffffffff1681565b60205481565b6000600160009054906101000a900473ffffffffffffffffffffffffffffffffffffffff1673ffffffffffffffffffffffffffffffffffffffff16633af32abf336040518263ffffffff1660e01b81526004016135629190614be5565b602060405180830381865afa15801561357f573d6000803e3d6000fd5b505050506040513d601f19601f820116820180604052508101906135a39190614f97565b806135e057506135b1612514565b73ffffffffffffffffffffffffffffffffffffffff163373ffffffffffffffffffffffffffffffffffffffff16145b61361f576040517f08c379a0000000000000000000000000000000000000000000000000000000008152600401613616906155f4565b60405180910390fd5b601b60008373ffffffffffffffffffffffffffffffffffffffff1673ffffffffffffffffffffffffffffffffffffffff168152602001908152602001600020544261366a9190614d74565b601660008473ffffffffffffffffffffffffffffffffffffffff1673ffffffffffffffffffffffffffffffffffffffff168152602001908152602001600020546136b49190614e14565b601c60008473ffffffffffffffffffffffffffffffffffffffff1673ffffffffffffffffffffffffffffffffffffffff16815260200190815260200160002060008282546137029190614d11565b9250508190555042601b60008473ffffffffffffffffffffffffffffffffffffffff1673ffffffffffffffffffffffffffffffffffffffff168152602001908152602001600020819055506000601d60008473ffffffffffffffffffffffffffffffffffffffff1673ffffffffffffffffffffffffffffffffffffffff16815260200190815260200160002054601c60008573ffffffffffffffffffffffffffffffffffffffff1673ffffffffffffffffffffffffffffffffffffffff168152602001908152602001600020546137d99190614d74565b9050601c60008473ffffffffffffffffffffffffffffffffffffffff1673ffffffffffffffffffffffffffffffffffffffff16815260200190815260200160002054601d60008573ffffffffffffffffffffffffffffffffffffffff1673ffffffffffffffffffffffffffffffffffffffff168152602001908152602001600020819055508273ffffffffffffffffffffffffffffffffffffffff167f1e6f5eaef61555b8bf4c1ef79dd15630c9612b652f0c442b66151f134650742c826040516138a491906144bc565b60405180910390a280915050919050565b600160009054906101000a900473ffffffffffffffffffffffffffffffffffffffff1673ffffffffffffffffffffffffffffffffffffffff16633af32abf336040518263ffffffff1660e01b81526004016139109190614be5565b602060405180830381865afa15801561392d573d6000803e3d6000fd5b505050506040513d601f19601f820116820180604052508101906139519190614f97565b8061398e575061395f612514565b73ffffffffffffffffffffffffffffffffffffffff163373ffffffffffffffffffffffffffffffffffffffff16145b6139cd576040517f08c379a00000000000000000000000000000000000000000000000000000000081526004016139c4906155f4565b60405180910390fd5b6000600c83815481106139e3576139e2614d45565b5b906000526020600020906003020160010154116139ff57600080fd5b613a0883613c38565b600081600c8481548110613a1f57613a1e614d45565b5b906000526020600020906003020160010154613a3b9190614e14565b9050600082600c8581548110613a5457613a53614d45565b5b906000526020600020906003020160020154613a709190614e14565b90508060146000828254613a849190614d11565b925050819055508160116000828254613a9d9190614d11565b9250508190555082600d60008773ffffffffffffffffffffffffffffffffffffffff1673ffffffffffffffffffffffffffffffffffffffff168152602001908152602001600020600086815260200190815260200160002054613b009190614d11565b600d60008773ffffffffffffffffffffffffffffffffffffffff1673ffffffffffffffffffffffffffffffffffffffff16815260200190815260200160002060008681526020019081526020016000208190555081601660008773ffffffffffffffffffffffffffffffffffffffff1673ffffffffffffffffffffffffffffffffffffffff1681526020019081526020016000206000828254613ba39190614d11565b925050819055505050505050565b613bb9614372565b73ffffffffffffffffffffffffffffffffffffffff16613bd7612514565b73ffffffffffffffffffffffffffffffffffffffff1614613c3657613bfa614372565b6040517f118cdaa7000000000000000000000000000000000000000000000000000000008152600401613c2d9190614be5565b60405180910390fd5b565b601b60008273ffffffffffffffffffffffffffffffffffffffff1673ffffffffffffffffffffffffffffffffffffffff1681526020019081526020016000205442613c839190614d74565b601660008373ffffffffffffffffffffffffffffffffffffffff1673ffffffffffffffffffffffffffffffffffffffff16815260200190815260200160002054613ccd9190614e14565b601c60008373ffffffffffffffffffffffffffffffffffffffff1673ffffffffffffffffffffffffffffffffffffffff1681526020019081526020016000206000828254613d1b9190614d11565b9250508190555042601b60008373ffffffffffffffffffffffffffffffffffffffff1673ffffffffffffffffffffffffffffffffffffffff1681526020019081526020016000208190555050565b6000601e60003373ffffffffffffffffffffffffffffffffffffffff1673ffffffffffffffffffffffffffffffffffffffff1681526020019081526020016000205403613e79576007339080600181540180825580915050600190039060005260206000200160009091909190916101000a81548173ffffffffffffffffffffffffffffffffffffffff021916908373ffffffffffffffffffffffffffffffffffffffff160217905550600160086000828254613e269190614d11565b92505081905550613e356111a1565b601e60003373ffffffffffffffffffffffffffffffffffffffff1673ffffffffffffffffffffffffffffffffffffffff168152602001908152602001600020819055505b600260009054906101000a900473ffffffffffffffffffffffffffffffffffffffff1673ffffffffffffffffffffffffffffffffffffffff166323b872dd613ebf612514565b84670de0b6b3a764000085613ed49190614e14565b6040518463ffffffff1660e01b8152600401613ef29392919061542d565b6020604051808303816000875af1158015613f11573d6000803e3d6000fd5b505050506040513d601f19601f82011682018060405250810190613f359190614f97565b5080600960008473ffffffffffffffffffffffffffffffffffffffff1673ffffffffffffffffffffffffffffffffffffffff1681526020019081526020016000206000828254613f859190614d11565b925050819055505050565b60008060009054906101000a900473ffffffffffffffffffffffffffffffffffffffff169050816000806101000a81548173ffffffffffffffffffffffffffffffffffffffff021916908373ffffffffffffffffffffffffffffffffffffffff1602179055508173ffffffffffffffffffffffffffffffffffffffff168173ffffffffffffffffffffffffffffffffffffffff167f8be0079c531659141344cd1fd0a4f28419497f9722a3daafe3b4186f6b6457e060405160405180910390a35050565b6000806000905060008390506000600554905060005b6003805490508110801561407e5750600083115b156141cd5760006003828154811061409957614098614d45565b5b90600052602060002090600202016040518060400160405290816000820154815260200160018201548152505090506000805b83811161411957600381815481106140e7576140e6614d45565b5b906000526020600020906002020160000154826141049190614d11565b9150808061411190615614565b9150506140cc565b50600084821161412a576000614137565b84826141369190614d74565b5b905060008103614149575050506141ba565b600083602001518261415b9190614e14565b90508087106141935781886141709190614d11565b9750808761417e9190614d74565b9650818661418c9190614d11565b95506141b5565b8360200151876141a39190614e85565b886141ae9190614d11565b9750600096505b505050505b80806141c590615614565b91505061406a565b50829350505050919050565b600260009054906101000a900473ffffffffffffffffffffffffffffffffffffffff1673ffffffffffffffffffffffffffffffffffffffff166323b872dd83614220612514565b670de0b6b3a7640000856142349190614e14565b6040518463ffffffff1660e01b81526004016142529392919061542d565b6020604051808303816000875af1158015614271573d6000803e3d6000fd5b505050506040513d601f19601f820116820180604052508101906142959190614f97565b5080600960008473ffffffffffffffffffffffffffffffffffffffff1673ffffffffffffffffffffffffffffffffffffffff168152602001908152602001600020541015614318576040517f08c379a000000000000000000000000000000000000000000000000000000000815260040161430f906156a8565b60405180910390fd5b80600960008473ffffffffffffffffffffffffffffffffffffffff1673ffffffffffffffffffffffffffffffffffffffff16815260200190815260200160002060008282546143679190614d74565b925050819055505050565b600033905090565b508054600082556002029060005260206000209081019061439b919061439e565b50565b5b808211156143c15760008082016000905560018201600090555060020161439f565b5090565b6000604051905090565b600080fd5b600080fd5b600073ffffffffffffffffffffffffffffffffffffffff82169050919050565b6000614404826143d9565b9050919050565b614414816143f9565b811461441f57600080fd5b50565b6000813590506144318161440b565b92915050565b6000819050919050565b61444a81614437565b811461445557600080fd5b50565b60008135905061446781614441565b92915050565b60008060408385031215614484576144836143cf565b5b600061449285828601614422565b92505060206144a385828601614458565b9150509250929050565b6144b681614437565b82525050565b60006020820190506144d160008301846144ad565b92915050565b600080604083850312156144ee576144ed6143cf565b5b60006144fc85828601614458565b925050602061450d85828601614458565b9150509250929050565b60006020828403121561452d5761452c6143cf565b5b600061453b84828501614422565b91505092915050565b60008115159050919050565b61455981614544565b811461456457600080fd5b50565b60008135905061457681614550565b92915050565b600060208284031215614592576145916143cf565b5b60006145a084828501614567565b91505092915050565b6000819050919050565b60006145ce6145c96145c4846143d9565b6145a9565b6143d9565b9050919050565b60006145e0826145b3565b9050919050565b60006145f2826145d5565b9050919050565b614602816145e7565b82525050565b600060208201905061461d60008301846145f9565b92915050565b600080fd5b6000601f19601f8301169050919050565b7f4e487b7100000000000000000000000000000000000000000000000000000000600052604160045260246000fd5b61467182614628565b810181811067ffffffffffffffff821117156146905761468f614639565b5b80604052505050565b60006146a36143c5565b90506146af8282614668565b919050565b600067ffffffffffffffff8211156146cf576146ce614639565b5b602082029050602081019050919050565b600080fd5b600080fd5b600060408284031215614700576146ff6146e5565b5b61470a6040614699565b9050600061471a84828501614458565b600083015250602061472e84828501614458565b60208301525092915050565b600061474d614748846146b4565b614699565b905080838252602082019050604084028301858111156147705761476f6146e0565b5b835b81811015614799578061478588826146ea565b845260208401935050604081019050614772565b5050509392505050565b600082601f8301126147b8576147b7614623565b5b81356147c884826020860161473a565b91505092915050565b6000602082840312156147e7576147e66143cf565b5b600082013567ffffffffffffffff811115614805576148046143d4565b5b614811848285016147a3565b91505092915050565b6000602082840312156148305761482f6143cf565b5b600061483e84828501614458565b91505092915050565b600081519050919050565b600082825260208201905092915050565b60005b83811015614881578082015181840152602081019050614866565b60008484015250505050565b600061489882614847565b6148a28185614852565b93506148b2818560208601614863565b6148bb81614628565b840191505092915050565b600060608201905081810360008301526148e0818661488d565b90506148ef60208301856144ad565b6148fc60408301846144ad565b949350505050565b61490d81614544565b82525050565b60006020820190506149286000830184614904565b92915050565b600060408201905061494360008301856144ad565b61495060208301846144ad565b9392505050565b60008060008060808587031215614971576149706143cf565b5b600061497f87828801614458565b945050602061499087828801614458565b93505060406149a187828801614458565b92505060606149b287828801614567565b91505092959194509250565b600080fd5b600067ffffffffffffffff8211156149de576149dd614639565b5b6149e782614628565b9050602081019050919050565b82818337600083830152505050565b6000614a16614a11846149c3565b614699565b905082815260208101848484011115614a3257614a316149be565b5b614a3d8482856149f4565b509392505050565b600082601f830112614a5a57614a59614623565b5b8135614a6a848260208601614a03565b91505092915050565b60008060008060808587031215614a8d57614a8c6143cf565b5b600085013567ffffffffffffffff811115614aab57614aaa6143d4565b5b614ab787828801614a45565b9450506020614ac887828801614458565b9350506040614ad987828801614458565b9250506060614aea87828801614567565b91505092959194509250565b600081519050919050565b600082825260208201905092915050565b6000819050602082019050919050565b614b2b81614437565b82525050565b6000614b3d8383614b22565b60208301905092915050565b6000602082019050919050565b6000614b6182614af6565b614b6b8185614b01565b9350614b7683614b12565b8060005b83811015614ba7578151614b8e8882614b31565b9750614b9983614b49565b925050600181019050614b7a565b5085935050505092915050565b60006020820190508181036000830152614bce8184614b56565b905092915050565b614bdf816143f9565b82525050565b6000602082019050614bfa6000830184614bd6565b92915050565b600080600060608486031215614c1957614c186143cf565b5b6000614c2786828701614458565b9350506020614c3886828701614458565b9250506040614c4986828701614458565b9150509250925092565b6000614c5e826145d5565b9050919050565b614c6e81614c53565b82525050565b6000602082019050614c896000830184614c65565b92915050565b600080600060608486031215614ca857614ca76143cf565b5b6000614cb686828701614422565b9350506020614cc786828701614458565b9250506040614cd886828701614458565b9150509250925092565b7f4e487b7100000000000000000000000000000000000000000000000000000000600052601160045260246000fd5b6000614d1c82614437565b9150614d2783614437565b9250828201905080821115614d3f57614d3e614ce2565b5b92915050565b7f4e487b7100000000000000000000000000000000000000000000000000000000600052603260045260246000fd5b6000614d7f82614437565b9150614d8a83614437565b9250828203905081811115614da257614da1614ce2565b5b92915050565b7f4e6f7420656e6f756768206372797374616c7320746f2073656c6c0000000000600082015250565b6000614dde601b83614852565b9150614de982614da8565b602082019050919050565b60006020820190508181036000830152614e0d81614dd1565b9050919050565b6000614e1f82614437565b9150614e2a83614437565b9250828202614e3881614437565b91508282048414831517614e4f57614e4e614ce2565b5b5092915050565b7f4e487b7100000000000000000000000000000000000000000000000000000000600052601260045260246000fd5b6000614e9082614437565b9150614e9b83614437565b925082614eab57614eaa614e56565b5b828204905092915050565b7f4e487b7100000000000000000000000000000000000000000000000000000000600052602260045260246000fd5b60006002820490506001821680614efd57607f821691505b602082108103614f1057614f0f614eb6565b5b50919050565b7f4d7573742073656e642043524f20746f2062757920746f6b656e730000000000600082015250565b6000614f4c601b83614852565b9150614f5782614f16565b602082019050919050565b60006020820190508181036000830152614f7b81614f3f565b9050919050565b600081519050614f9181614550565b92915050565b600060208284031215614fad57614fac6143cf565b5b6000614fbb84828501614f82565b91505092915050565b7f4e6f74206f6e207468652077686974656c697374210000000000000000000000600082015250565b6000614ffa601583614852565b915061500582614fc4565b602082019050919050565b6000602082019050818103600083015261502981614fed565b9050919050565b7f53616c65206973206e6f7420796574206f70656e210000000000000000000000600082015250565b6000615066601583614852565b915061507182615030565b602082019050919050565b6000602082019050818103600083015261509581615059565b9050919050565b7f4e6f7420656e6f7567682043524f20746f2062757920746f6b656e7300000000600082015250565b60006150d2601c83614852565b91506150dd8261509c565b602082019050919050565b60006020820190508181036000830152615101816150c5565b9050919050565b600060808201905061511d60008301876144ad565b61512a60208301866144ad565b61513760408301856144ad565b61514460608301846144ad565b95945050505050565b60008190508160005260206000209050919050565b60006020601f8301049050919050565b600082821b905092915050565b6000600883026151af7fffffffffffffffffffffffffffffffffffffffffffffffffffffffffffffffff82615172565b6151b98683615172565b95508019841693508086168417925050509392505050565b60006151ec6151e76151e284614437565b6145a9565b614437565b9050919050565b6000819050919050565b615206836151d1565b61521a615212826151f3565b84845461517f565b825550505050565b600090565b61522f615222565b61523a8184846151fd565b505050565b5b8181101561525e57615253600082615227565b600181019050615240565b5050565b601f8211156152a3576152748161514d565b61527d84615162565b8101602085101561528c578190505b6152a061529885615162565b83018261523f565b50505b505050565b600082821c905092915050565b60006152c6600019846008026152a8565b1980831691505092915050565b60006152df83836152b5565b9150826002028217905092915050565b6152f882614847565b67ffffffffffffffff81111561531157615310614639565b5b61531b8254614ee5565b615326828285615262565b600060209050601f8311600181146153595760008415615347578287015190505b61535185826152d3565b8655506153b9565b601f1984166153678661514d565b60005b8281101561538f5784890151825560018201915060208501945060208101905061536a565b868310156153ac57848901516153a8601f8916826152b5565b8355505b6001600288020188555050505b505050505050565b7f56616c7565206d757374206265206265747765656e203020616e642032300000600082015250565b60006153f7601e83614852565b9150615402826153c1565b602082019050919050565b60006020820190508181036000830152615426816153ea565b9050919050565b60006060820190506154426000830186614bd6565b61544f6020830185614bd6565b61545c60408301846144ad565b949350505050565b7f4e6f2043524f206f776564000000000000000000000000000000000000000000600082015250565b600061549a600b83614852565b91506154a582615464565b602082019050919050565b600060208201905081810360008301526154c98161548d565b9050919050565b7f47656d207479706520646f6573206e6f74206578697374000000000000000000600082015250565b6000615506601783614852565b9150615511826154d0565b602082019050919050565b60006020820190508181036000830152615535816154f9565b9050919050565b7f4e6f7420656e6f7567682067656d7320746f2073656c6c000000000000000000600082015250565b6000615572601783614852565b915061557d8261553c565b602082019050919050565b600060208201905081810360008301526155a181615565565b9050919050565b7f43616c6c6572206973206e6f7420616e2061646d696e00000000000000000000600082015250565b60006155de601683614852565b91506155e9826155a8565b602082019050919050565b6000602082019050818103600083015261560d816155d1565b9050919050565b600061561f82614437565b91507fffffffffffffffffffffffffffffffffffffffffffffffffffffffffffffffff820361565157615650614ce2565b5b600182019050919050565b7f4e6f7420656e6f756768207370656e6461626c6520746f6b656e2e0000000000600082015250565b6000615692601b83614852565b915061569d8261565c565b602082019050919050565b600060208201905081810360008301526156c181615685565b905091905056fea2646970667358221220a55c7c5536e08059a91406e1ad8d6f410ed5e6845a66cbbf68704efb781c67a664736f6c634300081c0033",
  "linkReferences": {},
  "deployedLinkReferences": {}
}