{
  "_format": "hh-sol-artifact-1",
  "contractName": "InterludePlatform",
  "sourceName": "contracts/InterludePlatform.sol",
  "abi": [
    {
      "inputs": [
        {
          "internalType": "address payable",
          "name": "_owner",
          "type": "address"
        },
        {
          "internalType": "address",
          "name": "tokenAddress",
          "type": "address"
        }
      ],
      "stateMutability": "nonpayable",
      "type": "constructor"
    },
    {
      "inputs": [
        {
          "internalType": "address",
          "name": "owner",
          "type": "address"
        }
      ],
      "name": "OwnableInvalidOwner",
      "type": "error"
    },
    {
      "inputs": [
        {
          "internalType": "address",
          "name": "account",
          "type": "address"
        }
      ],
      "name": "OwnableUnauthorizedAccount",
      "type": "error"
    },
    {
      "anonymous": false,
      "inputs": [
        {
          "indexed": true,
          "internalType": "address",
          "name": "owner",
          "type": "address"
        },
        {
          "indexed": false,
          "internalType": "uint256",
          "name": "amount",
          "type": "uint256"
        }
      ],
      "name": "EarningsClaim",
      "type": "event"
    },
    {
      "anonymous": false,
      "inputs": [
        {
          "indexed": true,
          "internalType": "address",
          "name": "owner",
          "type": "address"
        },
        {
          "indexed": false,
          "internalType": "uint256",
          "name": "amount",
          "type": "uint256"
        }
      ],
      "name": "EarningsReserve",
      "type": "event"
    },
    {
      "anonymous": false,
      "inputs": [
        {
          "indexed": true,
          "internalType": "address",
          "name": "owner",
          "type": "address"
        },
        {
          "indexed": false,
          "internalType": "uint256",
          "name": "energyAmount",
          "type": "uint256"
        }
      ],
      "name": "EnergyCollected",
      "type": "event"
    },
    {
      "anonymous": false,
      "inputs": [
        {
          "indexed": true,
          "internalType": "address",
          "name": "previousOwner",
          "type": "address"
        },
        {
          "indexed": true,
          "internalType": "address",
          "name": "newOwner",
          "type": "address"
        }
      ],
      "name": "OwnershipTransferred",
      "type": "event"
    },
    {
      "anonymous": false,
      "inputs": [
        {
          "indexed": true,
          "internalType": "address",
          "name": "owner",
          "type": "address"
        },
        {
          "indexed": false,
          "internalType": "uint256",
          "name": "croAmount",
          "type": "uint256"
        },
        {
          "indexed": false,
          "internalType": "uint256",
          "name": "intAmount",
          "type": "uint256"
        }
      ],
      "name": "ReferralBonusClaim",
      "type": "event"
    },
    {
      "anonymous": false,
      "inputs": [
        {
          "indexed": true,
          "internalType": "address",
          "name": "buyer",
          "type": "address"
        },
        {
          "indexed": false,
          "internalType": "uint256",
          "name": "value",
          "type": "uint256"
        },
        {
          "indexed": false,
          "internalType": "uint256",
          "name": "referrerCroBonus",
          "type": "uint256"
        },
        {
          "indexed": false,
          "internalType": "uint256",
          "name": "referrerIntBonus",
          "type": "uint256"
        },
        {
          "indexed": false,
          "internalType": "uint256",
          "name": "referredIntBonus",
          "type": "uint256"
        }
      ],
      "name": "TokenPurchase",
      "type": "event"
    },
    {
      "inputs": [
        {
          "internalType": "string",
          "name": "assetName",
          "type": "string"
        },
        {
          "internalType": "uint256",
          "name": "power",
          "type": "uint256"
        },
        {
          "internalType": "uint256",
          "name": "unscaledPrice",
          "type": "uint256"
        },
        {
          "internalType": "bool",
          "name": "isCrystal",
          "type": "bool"
        }
      ],
      "name": "addAsset",
      "outputs": [],
      "stateMutability": "nonpayable",
      "type": "function"
    },
    {
      "inputs": [],
      "name": "adminWhitelist",
      "outputs": [
        {
          "internalType": "contract IWhitelist",
          "name": "",
          "type": "address"
        }
      ],
      "stateMutability": "view",
      "type": "function"
    },
    {
      "inputs": [
        {
          "internalType": "uint256",
          "name": "crystalType",
          "type": "uint256"
        },
        {
          "internalType": "uint256",
          "name": "amount",
          "type": "uint256"
        }
      ],
      "name": "buyCrystal",
      "outputs": [],
      "stateMutability": "nonpayable",
      "type": "function"
    },
    {
      "inputs": [
        {
          "internalType": "uint256",
          "name": "gemType",
          "type": "uint256"
        },
        {
          "internalType": "uint256",
          "name": "amount",
          "type": "uint256"
        }
      ],
      "name": "buyGem",
      "outputs": [],
      "stateMutability": "nonpayable",
      "type": "function"
    },
    {
      "inputs": [
        {
          "internalType": "address",
          "name": "referralAddress",
          "type": "address"
        }
      ],
      "name": "buyToken",
      "outputs": [],
      "stateMutability": "payable",
      "type": "function"
    },
    {
      "inputs": [
        {
          "internalType": "address",
          "name": "user",
          "type": "address"
        }
      ],
      "name": "calculateUserEarnings",
      "outputs": [
        {
          "internalType": "uint256",
          "name": "",
          "type": "uint256"
        }
      ],
      "stateMutability": "view",
      "type": "function"
    },
    {
      "inputs": [],
      "name": "claimEarnings",
      "outputs": [],
      "stateMutability": "nonpayable",
      "type": "function"
    },
    {
      "inputs": [],
      "name": "claimReferralBonus",
      "outputs": [],
      "stateMutability": "nonpayable",
      "type": "function"
    },
    {
      "inputs": [
        {
          "internalType": "address",
          "name": "user",
          "type": "address"
        }
      ],
      "name": "collectEnergy",
      "outputs": [
        {
          "internalType": "uint256",
          "name": "",
          "type": "uint256"
        }
      ],
      "stateMutability": "nonpayable",
      "type": "function"
    },
    {
      "inputs": [
        {
          "internalType": "address",
          "name": "",
          "type": "address"
        }
      ],
      "name": "collectedEnergy",
      "outputs": [
        {
          "internalType": "uint256",
          "name": "",
          "type": "uint256"
        }
      ],
      "stateMutability": "view",
      "type": "function"
    },
    {
      "inputs": [
        {
          "internalType": "uint256",
          "name": "",
          "type": "uint256"
        }
      ],
      "name": "crystals",
      "outputs": [
        {
          "internalType": "string",
          "name": "name",
          "type": "string"
        },
        {
          "internalType": "uint256",
          "name": "power",
          "type": "uint256"
        },
        {
          "internalType": "uint256",
          "name": "unscaledPrice",
          "type": "uint256"
        }
      ],
      "stateMutability": "view",
      "type": "function"
    },
    {
      "inputs": [],
      "name": "cumulativeRewardPerWeightCrystals",
      "outputs": [
        {
          "internalType": "uint256",
          "name": "",
          "type": "uint256"
        }
      ],
      "stateMutability": "view",
      "type": "function"
    },
    {
      "inputs": [],
      "name": "cumulativeRewardPerWeightGems",
      "outputs": [
        {
          "internalType": "uint256",
          "name": "",
          "type": "uint256"
        }
      ],
      "stateMutability": "view",
      "type": "function"
    },
    {
      "inputs": [
        {
          "internalType": "address",
          "name": "",
          "type": "address"
        }
      ],
      "name": "currentCrystalPower",
      "outputs": [
        {
          "internalType": "uint256",
          "name": "",
          "type": "uint256"
        }
      ],
      "stateMutability": "view",
      "type": "function"
    },
    {
      "inputs": [
        {
          "internalType": "address",
          "name": "",
          "type": "address"
        }
      ],
      "name": "currentGemPower",
      "outputs": [
        {
          "internalType": "uint256",
          "name": "",
          "type": "uint256"
        }
      ],
      "stateMutability": "view",
      "type": "function"
    },
    {
      "inputs": [],
      "name": "currentPhase",
      "outputs": [
        {
          "internalType": "uint256",
          "name": "",
          "type": "uint256"
        }
      ],
      "stateMutability": "view",
      "type": "function"
    },
    {
      "inputs": [
        {
          "internalType": "address",
          "name": "user",
          "type": "address"
        }
      ],
      "name": "eligibleForReferral",
      "outputs": [
        {
          "internalType": "bool",
          "name": "",
          "type": "bool"
        }
      ],
      "stateMutability": "view",
      "type": "function"
    },
    {
      "inputs": [
        {
          "internalType": "address",
          "name": "",
          "type": "address"
        }
      ],
      "name": "firstPurchasePhase",
      "outputs": [
        {
          "internalType": "uint256",
          "name": "",
          "type": "uint256"
        }
      ],
      "stateMutability": "view",
      "type": "function"
    },
    {
      "inputs": [],
      "name": "flush",
      "outputs": [],
      "stateMutability": "nonpayable",
      "type": "function"
    },
    {
      "inputs": [
        {
          "internalType": "uint256",
          "name": "",
          "type": "uint256"
        }
      ],
      "name": "gems",
      "outputs": [
        {
          "internalType": "string",
          "name": "name",
          "type": "string"
        },
        {
          "internalType": "uint256",
          "name": "power",
          "type": "uint256"
        },
        {
          "internalType": "uint256",
          "name": "unscaledPrice",
          "type": "uint256"
        }
      ],
      "stateMutability": "view",
      "type": "function"
    },
    {
      "inputs": [],
      "name": "generalWhitelist",
      "outputs": [
        {
          "internalType": "contract IWhitelist",
          "name": "",
          "type": "address"
        }
      ],
      "stateMutability": "view",
      "type": "function"
    },
    {
      "inputs": [
        {
          "internalType": "address",
          "name": "",
          "type": "address"
        }
      ],
      "name": "generatedEnergy",
      "outputs": [
        {
          "internalType": "uint256",
          "name": "",
          "type": "uint256"
        }
      ],
      "stateMutability": "view",
      "type": "function"
    },
    {
      "inputs": [
        {
          "internalType": "address",
          "name": "user",
          "type": "address"
        }
      ],
      "name": "getCrystals",
      "outputs": [
        {
          "internalType": "uint256[]",
          "name": "",
          "type": "uint256[]"
        }
      ],
      "stateMutability": "view",
      "type": "function"
    },
    {
      "inputs": [
        {
          "internalType": "address",
          "name": "user",
          "type": "address"
        }
      ],
      "name": "getGems",
      "outputs": [
        {
          "internalType": "uint256[]",
          "name": "",
          "type": "uint256[]"
        }
      ],
      "stateMutability": "view",
      "type": "function"
    },
    {
      "inputs": [
        {
          "internalType": "address",
          "name": "user",
          "type": "address"
        },
        {
          "internalType": "uint256",
          "name": "amount",
          "type": "uint256"
        }
      ],
      "name": "giveTokenTo",
      "outputs": [],
      "stateMutability": "nonpayable",
      "type": "function"
    },
    {
      "inputs": [
        {
          "internalType": "address",
          "name": "user",
          "type": "address"
        },
        {
          "internalType": "uint256",
          "name": "amount",
          "type": "uint256"
        }
      ],
      "name": "giveUnclaimedEarnings",
      "outputs": [],
      "stateMutability": "nonpayable",
      "type": "function"
    },
    {
      "inputs": [
        {
          "internalType": "address",
          "name": "",
          "type": "address"
        }
      ],
      "name": "investmentAllowance",
      "outputs": [
        {
          "internalType": "uint256",
          "name": "",
          "type": "uint256"
        }
      ],
      "stateMutability": "view",
      "type": "function"
    },
    {
      "inputs": [
        {
          "internalType": "address",
          "name": "",
          "type": "address"
        }
      ],
      "name": "lastClaimedRewardPerWeightCrystals",
      "outputs": [
        {
          "internalType": "uint256",
          "name": "",
          "type": "uint256"
        }
      ],
      "stateMutability": "view",
      "type": "function"
    },
    {
      "inputs": [
        {
          "internalType": "address",
          "name": "",
          "type": "address"
        }
      ],
      "name": "lastClaimedRewardPerWeightGems",
      "outputs": [
        {
          "internalType": "uint256",
          "name": "",
          "type": "uint256"
        }
      ],
      "stateMutability": "view",
      "type": "function"
    },
    {
      "inputs": [
        {
          "internalType": "address",
          "name": "",
          "type": "address"
        }
      ],
      "name": "lastTimeEnergyComputed",
      "outputs": [
        {
          "internalType": "uint256",
          "name": "",
          "type": "uint256"
        }
      ],
      "stateMutability": "view",
      "type": "function"
    },
    {
      "inputs": [
        {
          "internalType": "address",
          "name": "user",
          "type": "address"
        },
        {
          "internalType": "uint256",
          "name": "crystalType",
          "type": "uint256"
        },
        {
          "internalType": "uint256",
          "name": "amount",
          "type": "uint256"
        }
      ],
      "name": "mintCrystal",
      "outputs": [],
      "stateMutability": "nonpayable",
      "type": "function"
    },
    {
      "inputs": [],
      "name": "onlyAllowWhitelisted",
      "outputs": [
        {
          "internalType": "bool",
          "name": "",
          "type": "bool"
        }
      ],
      "stateMutability": "view",
      "type": "function"
    },
    {
      "inputs": [],
      "name": "owner",
      "outputs": [
        {
          "internalType": "address",
          "name": "",
          "type": "address"
        }
      ],
      "stateMutability": "view",
      "type": "function"
    },
    {
      "inputs": [],
      "name": "partnersWhitelist",
      "outputs": [
        {
          "internalType": "contract IWhitelist",
          "name": "",
          "type": "address"
        }
      ],
      "stateMutability": "view",
      "type": "function"
    },
    {
      "inputs": [],
      "name": "referredIntBonusPercentage",
      "outputs": [
        {
          "internalType": "uint256",
          "name": "",
          "type": "uint256"
        }
      ],
      "stateMutability": "view",
      "type": "function"
    },
    {
      "inputs": [],
      "name": "referrerCroBonusPercentage",
      "outputs": [
        {
          "internalType": "uint256",
          "name": "",
          "type": "uint256"
        }
      ],
      "stateMutability": "view",
      "type": "function"
    },
    {
      "inputs": [],
      "name": "referrerIntBonusPercentage",
      "outputs": [
        {
          "internalType": "uint256",
          "name": "",
          "type": "uint256"
        }
      ],
      "stateMutability": "view",
      "type": "function"
    },
    {
      "inputs": [],
      "name": "renounceOwnership",
      "outputs": [],
      "stateMutability": "nonpayable",
      "type": "function"
    },
    {
      "inputs": [
        {
          "internalType": "bool",
          "name": "_restricted",
          "type": "bool"
        }
      ],
      "name": "restrictReferralProgram",
      "outputs": [],
      "stateMutability": "nonpayable",
      "type": "function"
    },
    {
      "inputs": [],
      "name": "restrictReferralProgramToPartners",
      "outputs": [
        {
          "internalType": "bool",
          "name": "",
          "type": "bool"
        }
      ],
      "stateMutability": "view",
      "type": "function"
    },
    {
      "inputs": [
        {
          "internalType": "uint256",
          "name": "crystalType",
          "type": "uint256"
        },
        {
          "internalType": "uint256",
          "name": "amount",
          "type": "uint256"
        }
      ],
      "name": "sellCrystal",
      "outputs": [],
      "stateMutability": "nonpayable",
      "type": "function"
    },
    {
      "inputs": [
        {
          "internalType": "uint256",
          "name": "gemType",
          "type": "uint256"
        },
        {
          "internalType": "uint256",
          "name": "amount",
          "type": "uint256"
        }
      ],
      "name": "sellGem",
      "outputs": [],
      "stateMutability": "nonpayable",
      "type": "function"
    },
    {
      "inputs": [
        {
          "internalType": "address",
          "name": "_adminWhitelist",
          "type": "address"
        }
      ],
      "name": "setAdminWhitelist",
      "outputs": [],
      "stateMutability": "nonpayable",
      "type": "function"
    },
    {
      "inputs": [
        {
          "internalType": "address",
          "name": "_generalWhitelist",
          "type": "address"
        }
      ],
      "name": "setGeneralWhitelist",
      "outputs": [],
      "stateMutability": "nonpayable",
      "type": "function"
    },
    {
      "inputs": [
        {
          "internalType": "bool",
          "name": "_onlyAllowWhitelisted",
          "type": "bool"
        }
      ],
      "name": "setOnlyWhitelist",
      "outputs": [],
      "stateMutability": "nonpayable",
      "type": "function"
    },
    {
      "inputs": [
        {
          "internalType": "address",
          "name": "_partnersWhitelist",
          "type": "address"
        }
      ],
      "name": "setPartnersWhitelist",
      "outputs": [],
      "stateMutability": "nonpayable",
      "type": "function"
    },
    {
      "inputs": [
        {
          "internalType": "uint256",
          "name": "_referrerCroBonusPercentage",
          "type": "uint256"
        },
        {
          "internalType": "uint256",
          "name": "_referrerIntBonusPercentage",
          "type": "uint256"
        },
        {
          "internalType": "uint256",
          "name": "_referredIntBonusPercentage",
          "type": "uint256"
        }
      ],
      "name": "setReferralBonusesPercentages",
      "outputs": [],
      "stateMutability": "nonpayable",
      "type": "function"
    },
    {
      "inputs": [
        {
          "internalType": "uint256",
          "name": "_startDate",
          "type": "uint256"
        }
      ],
      "name": "setStartDate",
      "outputs": [],
      "stateMutability": "nonpayable",
      "type": "function"
    },
    {
      "inputs": [
        {
          "components": [
            {
              "internalType": "uint256",
              "name": "size",
              "type": "uint256"
            },
            {
              "internalType": "uint256",
              "name": "price",
              "type": "uint256"
            }
          ],
          "internalType": "struct InterludePlatform.Step[]",
          "name": "_steps",
          "type": "tuple[]"
        }
      ],
      "name": "setSteps",
      "outputs": [],
      "stateMutability": "nonpayable",
      "type": "function"
    },
    {
      "inputs": [
        {
          "internalType": "uint256",
          "name": "_totalSold",
          "type": "uint256"
        }
      ],
      "name": "setTotalSold",
      "outputs": [],
      "stateMutability": "nonpayable",
      "type": "function"
    },
    {
      "inputs": [
        {
          "internalType": "address",
          "name": "",
          "type": "address"
        }
      ],
      "name": "spendableTokens",
      "outputs": [
        {
          "internalType": "uint256",
          "name": "",
          "type": "uint256"
        }
      ],
      "stateMutability": "view",
      "type": "function"
    },
    {
      "inputs": [],
      "name": "startDate",
      "outputs": [
        {
          "internalType": "uint256",
          "name": "",
          "type": "uint256"
        }
      ],
      "stateMutability": "view",
      "type": "function"
    },
    {
      "inputs": [
        {
          "internalType": "uint256",
          "name": "",
          "type": "uint256"
        }
      ],
      "name": "steps",
      "outputs": [
        {
          "internalType": "uint256",
          "name": "size",
          "type": "uint256"
        },
        {
          "internalType": "uint256",
          "name": "price",
          "type": "uint256"
        }
      ],
      "stateMutability": "view",
      "type": "function"
    },
    {
      "inputs": [],
      "name": "token",
      "outputs": [
        {
          "internalType": "contract MyPausableToken",
          "name": "",
          "type": "address"
        }
      ],
      "stateMutability": "view",
      "type": "function"
    },
    {
      "inputs": [
        {
          "internalType": "address",
          "name": "",
          "type": "address"
        }
      ],
      "name": "totalClaimed",
      "outputs": [
        {
          "internalType": "uint256",
          "name": "",
          "type": "uint256"
        }
      ],
      "stateMutability": "view",
      "type": "function"
    },
    {
      "inputs": [
        {
          "internalType": "address",
          "name": "",
          "type": "address"
        }
      ],
      "name": "totalClaimedCroReferralBonus",
      "outputs": [
        {
          "internalType": "uint256",
          "name": "",
          "type": "uint256"
        }
      ],
      "stateMutability": "view",
      "type": "function"
    },
    {
      "inputs": [
        {
          "internalType": "address",
          "name": "",
          "type": "address"
        }
      ],
      "name": "totalClaimedIntReferralBonus",
      "outputs": [
        {
          "internalType": "uint256",
          "name": "",
          "type": "uint256"
        }
      ],
      "stateMutability": "view",
      "type": "function"
    },
    {
      "inputs": [],
      "name": "totalCrystalPower",
      "outputs": [
        {
          "internalType": "uint256",
          "name": "",
          "type": "uint256"
        }
      ],
      "stateMutability": "view",
      "type": "function"
    },
    {
      "inputs": [],
      "name": "totalGemPower",
      "outputs": [
        {
          "internalType": "uint256",
          "name": "",
          "type": "uint256"
        }
      ],
      "stateMutability": "view",
      "type": "function"
    },
    {
      "inputs": [],
      "name": "totalIntInCrystals",
      "outputs": [
        {
          "internalType": "uint256",
          "name": "",
          "type": "uint256"
        }
      ],
      "stateMutability": "view",
      "type": "function"
    },
    {
      "inputs": [],
      "name": "totalIntInGems",
      "outputs": [
        {
          "internalType": "uint256",
          "name": "",
          "type": "uint256"
        }
      ],
      "stateMutability": "view",
      "type": "function"
    },
    {
      "inputs": [
        {
          "internalType": "address",
          "name": "",
          "type": "address"
        }
      ],
      "name": "totalInvested",
      "outputs": [
        {
          "internalType": "uint256",
          "name": "",
          "type": "uint256"
        }
      ],
      "stateMutability": "view",
      "type": "function"
    },
    {
      "inputs": [],
      "name": "totalPriceUnitsInCrystals",
      "outputs": [
        {
          "internalType": "uint256",
          "name": "",
          "type": "uint256"
        }
      ],
      "stateMutability": "view",
      "type": "function"
    },
    {
      "inputs": [],
      "name": "totalSold",
      "outputs": [
        {
          "internalType": "uint256",
          "name": "",
          "type": "uint256"
        }
      ],
      "stateMutability": "view",
      "type": "function"
    },
    {
      "inputs": [],
      "name": "totalUsers",
      "outputs": [
        {
          "internalType": "uint256",
          "name": "",
          "type": "uint256"
        }
      ],
      "stateMutability": "view",
      "type": "function"
    },
    {
      "inputs": [
        {
          "internalType": "address",
          "name": "newOwner",
          "type": "address"
        }
      ],
      "name": "transferOwnership",
      "outputs": [],
      "stateMutability": "nonpayable",
      "type": "function"
    },
    {
      "inputs": [
        {
          "internalType": "address",
          "name": "",
          "type": "address"
        }
      ],
      "name": "unclaimedCroReferralBonus",
      "outputs": [
        {
          "internalType": "uint256",
          "name": "",
          "type": "uint256"
        }
      ],
      "stateMutability": "view",
      "type": "function"
    },
    {
      "inputs": [
        {
          "internalType": "address",
          "name": "",
          "type": "address"
        }
      ],
      "name": "unclaimedEarnings",
      "outputs": [
        {
          "internalType": "uint256",
          "name": "",
          "type": "uint256"
        }
      ],
      "stateMutability": "view",
      "type": "function"
    },
    {
      "inputs": [
        {
          "internalType": "address",
          "name": "",
          "type": "address"
        }
      ],
      "name": "unclaimedIntReferralBonus",
      "outputs": [
        {
          "internalType": "uint256",
          "name": "",
          "type": "uint256"
        }
      ],
      "stateMutability": "view",
      "type": "function"
    },
    {
      "inputs": [
        {
          "internalType": "uint256",
          "name": "index",
          "type": "uint256"
        },
        {
          "internalType": "uint256",
          "name": "_power",
          "type": "uint256"
        },
        {
          "internalType": "uint256",
          "name": "_unscaledPrice",
          "type": "uint256"
        },
        {
          "internalType": "bool",
          "name": "isCrystal",
          "type": "bool"
        }
      ],
      "name": "updateAsset",
      "outputs": [],
      "stateMutability": "nonpayable",
      "type": "function"
    },
    {
      "inputs": [
        {
          "internalType": "address",
          "name": "",
          "type": "address"
        },
        {
          "internalType": "uint256",
          "name": "",
          "type": "uint256"
        }
      ],
      "name": "userCrystals",
      "outputs": [
        {
          "internalType": "uint256",
          "name": "",
          "type": "uint256"
        }
      ],
      "stateMutability": "view",
      "type": "function"
    },
    {
      "inputs": [
        {
          "internalType": "address",
          "name": "",
          "type": "address"
        },
        {
          "internalType": "uint256",
          "name": "",
          "type": "uint256"
        }
      ],
      "name": "userGems",
      "outputs": [
        {
          "internalType": "uint256",
          "name": "",
          "type": "uint256"
        }
      ],
      "stateMutability": "view",
      "type": "function"
    },
    {
      "stateMutability": "payable",
      "type": "receive"
    }
  ],
  "bytecode": "0x60806040526000600d556000600e556001600f5560016010556001601155600a602055600a602155600f6022556000602760006101000a81548160ff02191690831515021790555034801561005357600080fd5b50604051616235380380616235833981810160405281019061007591906102a5565b81600073ffffffffffffffffffffffffffffffffffffffff168173ffffffffffffffffffffffffffffffffffffffff16036100e85760006040517f1e4fbdf70000000000000000000000000000000000000000000000000000000081526004016100df91906102f4565b60405180910390fd5b6100f78161014060201b60201c565b5080600260006101000a81548173ffffffffffffffffffffffffffffffffffffffff021916908373ffffffffffffffffffffffffffffffffffffffff160217905550505061030f565b60008060009054906101000a900473ffffffffffffffffffffffffffffffffffffffff169050816000806101000a81548173ffffffffffffffffffffffffffffffffffffffff021916908373ffffffffffffffffffffffffffffffffffffffff1602179055508173ffffffffffffffffffffffffffffffffffffffff168173ffffffffffffffffffffffffffffffffffffffff167f8be0079c531659141344cd1fd0a4f28419497f9722a3daafe3b4186f6b6457e060405160405180910390a35050565b600080fd5b600073ffffffffffffffffffffffffffffffffffffffff82169050919050565b600061023482610209565b9050919050565b61024481610229565b811461024f57600080fd5b50565b6000815190506102618161023b565b92915050565b600061027282610209565b9050919050565b61028281610267565b811461028d57600080fd5b50565b60008151905061029f81610279565b92915050565b600080604083850312156102bc576102bb610204565b5b60006102ca85828601610252565b92505060206102db85828601610290565b9150509250929050565b6102ee81610267565b82525050565b600060208201905061030960008301846102e5565b92915050565b615f178061031e6000396000f3fe60806040526004361061041f5760003560e01c8063876cf0ef1161021e578063c7a1834711610123578063ef49968a116100ab578063f9d702001161007a578063f9d70200146110c4578063fc0c546a146110ed578063fcb966d714611118578063fd239fd914611143578063ff5133cd1461118057610426565b8063ef49968a14610ff8578063ef5d9ae814611035578063f226de9714611072578063f2fde38b1461109b57610426565b8063d7e14e13116100f2578063d7e14e1314610f27578063d9ceab1314610f52578063de473f8d14610f69578063df13c9ca14610fa6578063e1dc75d214610fcf57610426565b8063c7a1834714610e59578063c8da5ef514610e96578063ce54d6e114610ec1578063d4a444b414610eea57610426565b806395ae8478116101a6578063bbaa117711610175578063bbaa117714610d60578063bc09019114610d8b578063bc3de74914610dc8578063bff1f9e114610df1578063c70e12cb14610e1c57610426565b806395ae847814610c7c578063a1f0406d14610cb9578063a54dfaad14610cf8578063af28728c14610d3557610426565b806390838e09116101ed57806390838e0914610b7157806390c757eb14610bae5780639106d7ba14610beb57806393dbc75714610c1657806395526f4c14610c3f57610426565b8063876cf0ef14610aa157806388185e0314610ade5780638da5cb5b14610b1b5780638e84a0d814610b4657610426565b806345ed628f116103245780636b9f96ea116102ac5780637217e0b91161027b5780637217e0b9146109cc5780637d848db214610a0a5780637e72fb5214610a3357806382d95df514610a4f578063869c865e14610a7857610426565b80636b9f96ea146109365780636c743fb21461094d5780636de62ea714610978578063715018a6146109b557610426565b80634ed9b7f6116102f35780634ed9b7f61461084f57806350a3eaf01461087a57806351484a19146108a55780636143440c146108e257806366d74c801461090b57610426565b806345ed628f1461076d57806347315ec4146107985780634a5f58c7146107d55780634e3586621461081257610426565b8063206a5dbc116103a75780632b4c73e5116103765780632b4c73e51461066057806331b3ab3f1461068b57806333298463146106ca578063376f967114610707578063378515981461074457610426565b8063206a5dbc146105a657806321622c63146105d157806323ada717146105fa57806329e0f88d1461063757610426565b80630b97bc86116103ee5780630b97bc86146104d3578063109d75d5146104fe5780631dd02b4b1461053b5780631e375ab9146105645780631ff9e2b21461057b57610426565b80630355d20c1461042b578063055ad42e1461045457806308d317dd1461047f5780630ae19ba8146104a857610426565b3661042657005b600080fd5b34801561043757600080fd5b50610452600480360381019061044d9190614c06565b6111a9565b005b34801561046057600080fd5b50610469611259565b6040516104769190614c55565b60405180910390f35b34801561048b57600080fd5b506104a660048036038101906104a19190614c70565b6112f5565b005b3480156104b457600080fd5b506104bd611572565b6040516104ca9190614c55565b60405180910390f35b3480156104df57600080fd5b506104e8611578565b6040516104f59190614c55565b60405180910390f35b34801561050a57600080fd5b5061052560048036038101906105209190614cb0565b61157e565b6040516105329190614c55565b60405180910390f35b34801561054757600080fd5b50610562600480360381019061055d9190614d15565b6115da565b005b34801561057057600080fd5b506105796115ff565b005b34801561058757600080fd5b50610590611862565b60405161059d9190614da1565b60405180910390f35b3480156105b257600080fd5b506105bb611888565b6040516105c89190614c55565b60405180910390f35b3480156105dd57600080fd5b506105f860048036038101906105f39190614f6a565b61188e565b005b34801561060657600080fd5b50610621600480360381019061061c9190614cb0565b611953565b60405161062e9190614c55565b60405180910390f35b34801561064357600080fd5b5061065e60048036038101906106599190614cb0565b61196b565b005b34801561066c57600080fd5b506106756119b7565b6040516106829190614c55565b60405180910390f35b34801561069757600080fd5b506106b260048036038101906106ad9190614fb3565b6119bd565b6040516106c19392919061505f565b60405180910390f35b3480156106d657600080fd5b506106f160048036038101906106ec9190614cb0565b611a7f565b6040516106fe9190614c55565b60405180910390f35b34801561071357600080fd5b5061072e60048036038101906107299190614cb0565b611a97565b60405161073b9190614c55565b60405180910390f35b34801561075057600080fd5b5061076b60048036038101906107669190614fb3565b611aaf565b005b34801561077957600080fd5b50610782611ac1565b60405161078f9190614c55565b60405180910390f35b3480156107a457600080fd5b506107bf60048036038101906107ba9190614cb0565b611ac7565b6040516107cc9190614c55565b60405180910390f35b3480156107e157600080fd5b506107fc60048036038101906107f79190614cb0565b611adf565b6040516108099190614c55565b60405180910390f35b34801561081e57600080fd5b5061083960048036038101906108349190614cb0565b611af7565b6040516108469190614c55565b60405180910390f35b34801561085b57600080fd5b50610864611b0f565b60405161087191906150ac565b60405180910390f35b34801561088657600080fd5b5061088f611b22565b60405161089c9190614c55565b60405180910390f35b3480156108b157600080fd5b506108cc60048036038101906108c79190614cb0565b611b28565b6040516108d99190614c55565b60405180910390f35b3480156108ee57600080fd5b5061090960048036038101906109049190614cb0565b611b40565b005b34801561091757600080fd5b50610920611b8c565b60405161092d9190614da1565b60405180910390f35b34801561094257600080fd5b5061094b611bb2565b005b34801561095957600080fd5b50610962611c0a565b60405161096f9190614c55565b60405180910390f35b34801561098457600080fd5b5061099f600480360381019061099a9190614cb0565b611c10565b6040516109ac9190614c55565b60405180910390f35b3480156109c157600080fd5b506109ca611c28565b005b3480156109d857600080fd5b506109f360048036038101906109ee9190614fb3565b611c3c565b604051610a019291906150c7565b60405180910390f35b348015610a1657600080fd5b50610a316004803603810190610a2c91906150f0565b611c70565b005b610a4d6004803603810190610a489190614cb0565b611d32565b005b348015610a5b57600080fd5b50610a766004803603810190610a719190614fb3565b612388565b005b348015610a8457600080fd5b50610a9f6004803603810190610a9a919061520c565b61239a565b005b348015610aad57600080fd5b50610ac86004803603810190610ac39190614cb0565b612498565b604051610ad5919061534d565b60405180910390f35b348015610aea57600080fd5b50610b056004803603810190610b009190614cb0565b612583565b604051610b12919061534d565b60405180910390f35b348015610b2757600080fd5b50610b3061266e565b604051610b3d919061537e565b60405180910390f35b348015610b5257600080fd5b50610b5b612697565b604051610b6891906150ac565b60405180910390f35b348015610b7d57600080fd5b50610b986004803603810190610b939190614cb0565b6126aa565b604051610ba59190614c55565b60405180910390f35b348015610bba57600080fd5b50610bd56004803603810190610bd09190614c06565b6126c2565b604051610be29190614c55565b60405180910390f35b348015610bf757600080fd5b50610c006126e7565b604051610c0d9190614c55565b60405180910390f35b348015610c2257600080fd5b50610c3d6004803603810190610c389190614cb0565b6126ed565b005b348015610c4b57600080fd5b50610c666004803603810190610c619190614cb0565b612739565b604051610c739190614c55565b60405180910390f35b348015610c8857600080fd5b50610ca36004803603810190610c9e9190614cb0565b612751565b604051610cb09190614c55565b60405180910390f35b348015610cc557600080fd5b50610ce06004803603810190610cdb9190614fb3565b612769565b604051610cef9392919061505f565b60405180910390f35b348015610d0457600080fd5b50610d1f6004803603810190610d1a9190614cb0565b61282b565b604051610d2c9190614c55565b60405180910390f35b348015610d4157600080fd5b50610d4a612843565b604051610d579190614da1565b60405180910390f35b348015610d6c57600080fd5b50610d75612869565b604051610d829190614c55565b60405180910390f35b348015610d9757600080fd5b50610db26004803603810190610dad9190614cb0565b61286f565b604051610dbf9190614c55565b60405180910390f35b348015610dd457600080fd5b50610def6004803603810190610dea9190615399565b612887565b005b348015610dfd57600080fd5b50610e0661299c565b604051610e139190614c55565b60405180910390f35b348015610e2857600080fd5b50610e436004803603810190610e3e9190614c06565b6129a2565b604051610e509190614c55565b60405180910390f35b348015610e6557600080fd5b50610e806004803603810190610e7b9190614cb0565b6129c7565b604051610e8d9190614c55565b60405180910390f35b348015610ea257600080fd5b50610eab6129df565b604051610eb89190614c55565b60405180910390f35b348015610ecd57600080fd5b50610ee86004803603810190610ee39190614c06565b6129e5565b005b348015610ef657600080fd5b50610f116004803603810190610f0c9190614cb0565b612b04565b604051610f1e9190614c55565b60405180910390f35b348015610f3357600080fd5b50610f3c612b1c565b604051610f499190614c55565b60405180910390f35b348015610f5e57600080fd5b50610f67612b22565b005b348015610f7557600080fd5b50610f906004803603810190610f8b9190614cb0565b612ce5565b604051610f9d91906150ac565b60405180910390f35b348015610fb257600080fd5b50610fcd6004803603810190610fc89190614d15565b612f94565b005b348015610fdb57600080fd5b50610ff66004803603810190610ff19190614c70565b612fb9565b005b34801561100457600080fd5b5061101f600480360381019061101a9190614cb0565b61333c565b60405161102c9190614c55565b60405180910390f35b34801561104157600080fd5b5061105c60048036038101906110579190614cb0565b613354565b6040516110699190614c55565b60405180910390f35b34801561107e57600080fd5b5061109960048036038101906110949190614c70565b61336c565b005b3480156110a757600080fd5b506110c260048036038101906110bd9190614cb0565b6135b0565b005b3480156110d057600080fd5b506110eb60048036038101906110e69190614c70565b613636565b005b3480156110f957600080fd5b50611102613a42565b60405161110f919061540d565b60405180910390f35b34801561112457600080fd5b5061112d613a68565b60405161113a9190614c55565b60405180910390f35b34801561114f57600080fd5b5061116a60048036038101906111659190614cb0565b613a6e565b6040516111779190614c55565b60405180910390f35b34801561118c57600080fd5b506111a760048036038101906111a29190615428565b613cf9565b005b6111b1614002565b80601a60008473ffffffffffffffffffffffffffffffffffffffff1673ffffffffffffffffffffffffffffffffffffffff168152602001908152602001600020600082825461120091906154aa565b925050819055508173ffffffffffffffffffffffffffffffffffffffff167f670624ed0a09e14166459d983969baa4fa27e42fd398b8c3834ba764cb797a698260405161124d9190614c55565b60405180910390a25050565b6000806000905060005b6003805490508110156112d05760038181548110611284576112836154de565b5b906000526020600020906002020160000154826112a191906154aa565b91508160055410156112c3576001816112ba91906154aa565b925050506112f2565b8080600101915050611263565b506001806003805490506112e4919061550d565b6112ee91906154aa565b9150505b90565b6000600b838154811061130b5761130a6154de565b5b9060005260206000209060030201600101541161132757600080fd5b80600c60003373ffffffffffffffffffffffffffffffffffffffff1673ffffffffffffffffffffffffffffffffffffffff16815260200190815260200160002060008481526020019081526020016000205410156113ba576040517f08c379a00000000000000000000000000000000000000000000000000000000081526004016113b19061558d565b60405180910390fd5b600081116113c757600080fd5b6113d033614089565b600081600b84815481106113e7576113e66154de565b5b90600052602060002090600302016001015461140391906155ad565b9050600082600b858154811061141c5761141b6154de565b5b90600052602060002090600302016002015461143891906155ad565b905060006011548260105461144d91906155ad565b611457919061561e565b9050816011600082825461146b919061550d565b925050819055508060106000828254611484919061550d565b9250508190555082600e600082825461149d919061550d565b925050819055506114ae338261409e565b83600c60003373ffffffffffffffffffffffffffffffffffffffff1673ffffffffffffffffffffffffffffffffffffffff1681526020019081526020016000206000878152602001908152602001600020600082825461150e919061550d565b9250508190555082601360003373ffffffffffffffffffffffffffffffffffffffff1673ffffffffffffffffffffffffffffffffffffffff1681526020019081526020016000206000828254611564919061550d565b925050819055505050505050565b60115481565b60045481565b6000601a60008373ffffffffffffffffffffffffffffffffffffffff1673ffffffffffffffffffffffffffffffffffffffff168152602001908152602001600020546115c983614262565b6115d391906154aa565b9050919050565b6115e2614002565b80600660006101000a81548160ff02191690831515021790555050565b6000602360003373ffffffffffffffffffffffffffffffffffffffff1673ffffffffffffffffffffffffffffffffffffffff1681526020019081526020016000205490506000602360003373ffffffffffffffffffffffffffffffffffffffff1673ffffffffffffffffffffffffffffffffffffffff16815260200190815260200160002081905550611692338261409e565b80602560003373ffffffffffffffffffffffffffffffffffffffff1673ffffffffffffffffffffffffffffffffffffffff16815260200190815260200160002060008282546116e191906154aa565b925050819055506000602460003373ffffffffffffffffffffffffffffffffffffffff1673ffffffffffffffffffffffffffffffffffffffff1681526020019081526020016000205490506000602460003373ffffffffffffffffffffffffffffffffffffffff1673ffffffffffffffffffffffffffffffffffffffff1681526020019081526020016000208190555080602660003373ffffffffffffffffffffffffffffffffffffffff1673ffffffffffffffffffffffffffffffffffffffff16815260200190815260200160002060008282546117c091906154aa565b925050819055503373ffffffffffffffffffffffffffffffffffffffff166108fc829081150290604051600060405180830381858888f1935050505015801561180d573d6000803e3d6000fd5b503373ffffffffffffffffffffffffffffffffffffffff167f454211b099b54298804b6b35092d2a4bcbf8e5ea525a50b79b542ba2d4bc6a2482846040516118569291906150c7565b60405180910390a25050565b602860009054906101000a900473ffffffffffffffffffffffffffffffffffffffff1681565b60105481565b611896614002565b600360006118a49190614b09565b60005b815181101561194f57600360405180604001604052808484815181106118d0576118cf6154de565b5b60200260200101516000015181526020018484815181106118f4576118f36154de565b5b60200260200101516020015181525090806001815401808255809150506001900390600052602060002090600202016000909190919091506000820151816000015560208201518160010155505080806001019150506118a7565b5050565b60136020528060005260406000206000915090505481565b611973614002565b80602860006101000a81548173ffffffffffffffffffffffffffffffffffffffff021916908373ffffffffffffffffffffffffffffffffffffffff16021790555050565b600d5481565b600b81815481106119cd57600080fd5b90600052602060002090600302016000915090508060000180546119f09061567e565b80601f0160208091040260200160405190810160405280929190818152602001828054611a1c9061567e565b8015611a695780601f10611a3e57610100808354040283529160200191611a69565b820191906000526020600020905b815481529060010190602001808311611a4c57829003601f168201915b5050505050908060010154908060020154905083565b60236020528060005260406000206000915090505481565b60086020528060005260406000206000915090505481565b611ab7614002565b8060058190555050565b60145481565b601a6020528060005260406000206000915090505481565b601c6020528060005260406000206000915090505481565b601d6020528060005260406000206000915090505481565b602760009054906101000a900460ff1681565b600f5481565b601f6020528060005260406000206000915090505481565b611b48614002565b80602760016101000a81548173ffffffffffffffffffffffffffffffffffffffff021916908373ffffffffffffffffffffffffffffffffffffffff16021790555050565b600160009054906101000a900473ffffffffffffffffffffffffffffffffffffffff1681565b611bba614002565b611bc261266e565b73ffffffffffffffffffffffffffffffffffffffff166108fc479081150290604051600060405180830381858888f19350505050158015611c07573d6000803e3d6000fd5b50565b60165481565b60126020528060005260406000206000915090505481565b611c30614002565b611c3a60006143c1565b565b60038181548110611c4c57600080fd5b90600052602060002090600202016000915090508060000154908060010154905082565b611c78614002565b8015611cd75782600b8581548110611c9357611c926154de565b5b90600052602060002090600302016001018190555081600b8581548110611cbd57611cbc6154de565b5b906000526020600020906003020160020181905550611d2c565b8260098581548110611cec57611ceb6154de565b5b9060005260206000209060030201600101819055508160098581548110611d1657611d156154de565b5b9060005260206000209060030201600201819055505b50505050565b60003411611d75576040517f08c379a0000000000000000000000000000000000000000000000000000000008152600401611d6c906156fb565b60405180910390fd5b600660009054906101000a900460ff161580611e295750602860009054906101000a900473ffffffffffffffffffffffffffffffffffffffff1673ffffffffffffffffffffffffffffffffffffffff16633af32abf336040518263ffffffff1660e01b8152600401611de7919061537e565b602060405180830381865afa158015611e04573d6000803e3d6000fd5b505050506040513d601f19601f82011682018060405250810190611e289190615730565b5b611e68576040517f08c379a0000000000000000000000000000000000000000000000000000000008152600401611e5f906157a9565b60405180910390fd5b6004544211611eac576040517f08c379a0000000000000000000000000000000000000000000000000000000008152600401611ea390615815565b60405180910390fd5b6000611eb734614485565b905060008111611efc576040517f08c379a0000000000000000000000000000000000000000000000000000000008152600401611ef390615881565b60405180910390fd5b600073ffffffffffffffffffffffffffffffffffffffff168273ffffffffffffffffffffffffffffffffffffffff1603611f34573391505b6000611f3f83612ce5565b90508160056000828254611f5391906154aa565b925050819055506000600234611f69919061561e565b9050600080600084156120ac57606460225487611f8691906155ad565b611f90919061561e565b9250600073ffffffffffffffffffffffffffffffffffffffff168773ffffffffffffffffffffffffffffffffffffffff1614611fff57606460215487611fd691906155ad565b611fe0919061561e565b9050606460205434611ff291906155ad565b611ffc919061561e565b91505b81602460008973ffffffffffffffffffffffffffffffffffffffff1673ffffffffffffffffffffffffffffffffffffffff168152602001908152602001600020600082825461204e91906154aa565b9250508190555080602360008973ffffffffffffffffffffffffffffffffffffffff1673ffffffffffffffffffffffffffffffffffffffff16815260200190815260200160002060008282546120a491906154aa565b925050819055505b600083876120ba91906154aa565b90506120c6338261409e565b3373ffffffffffffffffffffffffffffffffffffffff167f8fd7c1cf2b9cceb829553742c07a11ee82ed91a2e2d4791328461df6aa6e8a898885858860405161211294939291906158a1565b60405180910390a26000838661212891906154aa565b34612133919061550d565b905061213d61266e565b73ffffffffffffffffffffffffffffffffffffffff166108fc829081150290604051600060405180830381858888f19350505050158015612182573d6000803e3d6000fd5b5034601860003373ffffffffffffffffffffffffffffffffffffffff1673ffffffffffffffffffffffffffffffffffffffff16815260200190815260200160002060008282546121d291906154aa565b9250508190555061221a6040518060400160405280601381526020017f546f74616c20494e5420696e2067656d733a2000000000000000000000000000815250600f5461460a565b61225b6040518060400160405280601781526020017f546f74616c20494e5420696e206372797374616c733a2000000000000000000081525060105461460a565b6000601054600f5461226d91906154aa565b111561233c576000601054600f5461228591906154aa565b600f548861229391906155ad565b61229d919061561e565b9050600081886122ad919061550d565b90506000600d5411156122f457600d54670de0b6b3a7640000836122d191906155ad565b6122db919061561e565b601460008282546122ec91906154aa565b925050819055505b6000600e54111561233957600e54670de0b6b3a76400008261231691906155ad565b612320919061561e565b6016600082825461233191906154aa565b925050819055505b50505b61237d6040518060400160405280601781526020017f67656d7343726f546f5265646973747269627574653a2000000000000000000081525060105461460a565b505050505050505050565b612390614002565b8060048190555050565b6123a2614002565b801561241f57600b604051806060016040528086815260200185815260200184815250908060018154018082558091505060019003906000526020600020906003020160009091909190915060008201518160000190816124039190615a88565b5060208201518160010155604082015181600201555050612492565b60096040518060600160405280868152602001858152602001848152509080600181540180825580915050600190039060005260206000209060030201600090919091909150600082015181600001908161247a9190615a88565b50602082015181600101556040820151816002015550505b50505050565b60606000600b8054905067ffffffffffffffff8111156124bb576124ba614dd2565b5b6040519080825280602002602001820160405280156124e95781602001602082028036833780820191505090505b50905060005b600b8054905081101561257957600c60008573ffffffffffffffffffffffffffffffffffffffff1673ffffffffffffffffffffffffffffffffffffffff1681526020019081526020016000206000828152602001908152602001600020548282815181106125605761255f6154de565b5b60200260200101818152505080806001019150506124ef565b5080915050919050565b6060600060098054905067ffffffffffffffff8111156125a6576125a5614dd2565b5b6040519080825280602002602001820160405280156125d45781602001602082028036833780820191505090505b50905060005b60098054905081101561266457600a60008573ffffffffffffffffffffffffffffffffffffffff1673ffffffffffffffffffffffffffffffffffffffff16815260200190815260200160002060008281526020019081526020016000205482828151811061264b5761264a6154de565b5b60200260200101818152505080806001019150506125da565b5080915050919050565b60008060009054906101000a900473ffffffffffffffffffffffffffffffffffffffff16905090565b600660009054906101000a900460ff1681565b60186020528060005260406000206000915090505481565b600c602052816000526040600020602052806000526040600020600091509150505481565b60055481565b6126f5614002565b80600160006101000a81548173ffffffffffffffffffffffffffffffffffffffff021916908373ffffffffffffffffffffffffffffffffffffffff16021790555050565b60156020528060005260406000206000915090505481565b60246020528060005260406000206000915090505481565b6009818154811061277957600080fd5b906000526020600020906003020160009150905080600001805461279c9061567e565b80601f01602080910402602001604051908101604052809291908181526020018280546127c89061567e565b80156128155780601f106127ea57610100808354040283529160200191612815565b820191906000526020600020905b8154815290600101906020018083116127f857829003601f168201915b5050505050908060010154908060020154905083565b60256020528060005260406000206000915090505481565b602760019054906101000a900473ffffffffffffffffffffffffffffffffffffffff1681565b60225481565b60176020528060005260406000206000915090505481565b61288f614002565b600083101580156128a1575060148311155b6128e0576040517f08c379a00000000000000000000000000000000000000000000000000000000081526004016128d790615ba6565b60405180910390fd5b82602081905550600082101580156128f9575060148211155b612938576040517f08c379a000000000000000000000000000000000000000000000000000000000815260040161292f90615ba6565b60405180910390fd5b8160218190555060008110158015612951575060148111155b612990576040517f08c379a000000000000000000000000000000000000000000000000000000000815260040161298790615ba6565b60405180910390fd5b80602281905550505050565b60075481565b600a602052816000526040600020602052806000526040600020600091509150505481565b601e6020528060005260406000206000915090505481565b600e5481565b6129ed614002565b600260009054906101000a900473ffffffffffffffffffffffffffffffffffffffff1673ffffffffffffffffffffffffffffffffffffffff166323b872dd612a3361266e565b84670de0b6b3a764000085612a4891906155ad565b6040518463ffffffff1660e01b8152600401612a6693929190615bc6565b6020604051808303816000875af1158015612a85573d6000803e3d6000fd5b505050506040513d601f19601f82011682018060405250810190612aa99190615730565b5080600860008473ffffffffffffffffffffffffffffffffffffffff1673ffffffffffffffffffffffffffffffffffffffff1681526020019081526020016000206000828254612af991906154aa565b925050819055505050565b60266020528060005260406000206000915090505481565b60205481565b612b2b336146a6565b6000601a60003373ffffffffffffffffffffffffffffffffffffffff1673ffffffffffffffffffffffffffffffffffffffff16815260200190815260200160002054905060008111612bb2576040517f08c379a0000000000000000000000000000000000000000000000000000000008152600401612ba990615c49565b60405180910390fd5b80601b60003373ffffffffffffffffffffffffffffffffffffffff1673ffffffffffffffffffffffffffffffffffffffff1681526020019081526020016000206000828254612c0191906154aa565b925050819055506000601a60003373ffffffffffffffffffffffffffffffffffffffff1673ffffffffffffffffffffffffffffffffffffffff168152602001908152602001600020819055503373ffffffffffffffffffffffffffffffffffffffff166108fc829081150290604051600060405180830381858888f19350505050158015612c93573d6000803e3d6000fd5b503373ffffffffffffffffffffffffffffffffffffffff167f7bcfb0598e7cd0b03e8472440b7e292b4767743ddeb0579a65be466b40c8b0f382604051612cda9190614c55565b60405180910390a250565b6000602760009054906101000a900460ff1615612dfa57600073ffffffffffffffffffffffffffffffffffffffff16602760019054906101000a900473ffffffffffffffffffffffffffffffffffffffff1673ffffffffffffffffffffffffffffffffffffffff1614158015612df35750602760019054906101000a900473ffffffffffffffffffffffffffffffffffffffff1673ffffffffffffffffffffffffffffffffffffffff16633af32abf836040518263ffffffff1660e01b8152600401612db1919061537e565b602060405180830381865afa158015612dce573d6000803e3d6000fd5b505050506040513d601f19601f82011682018060405250810190612df29190615730565b5b9050612f8f565b600073ffffffffffffffffffffffffffffffffffffffff16602860009054906101000a900473ffffffffffffffffffffffffffffffffffffffff1673ffffffffffffffffffffffffffffffffffffffff1614158015612ef15750602860009054906101000a900473ffffffffffffffffffffffffffffffffffffffff1673ffffffffffffffffffffffffffffffffffffffff16633af32abf836040518263ffffffff1660e01b8152600401612eaf919061537e565b602060405180830381865afa158015612ecc573d6000803e3d6000fd5b505050506040513d601f19601f82011682018060405250810190612ef09190615730565b5b80612f8c57506000601f60008473ffffffffffffffffffffffffffffffffffffffff1673ffffffffffffffffffffffffffffffffffffffff16815260200190815260200160002054118015612f8b5750612f49611259565b601f60008473ffffffffffffffffffffffffffffffffffffffff1673ffffffffffffffffffffffffffffffffffffffff16815260200190815260200160002054105b5b90505b919050565b612f9c614002565b80602760006101000a81548160ff02191690831515021790555050565b600060098381548110612fcf57612fce6154de565b5b90600052602060002090600302016001015411613021576040517f08c379a000000000000000000000000000000000000000000000000000000000815260040161301890615cb5565b60405180910390fd5b6000811161302e57600080fd5b60008160098481548110613045576130446154de565b5b90600052602060002090600302016002015461306191906155ad565b90506000826009858154811061307a576130796154de565b5b90600052602060002090600302016001015461309691906155ad565b90506130a133614089565b81600f60008282546130b391906154aa565b9250508190555080600d60008282546130cc91906154aa565b925050819055506131146040518060400160405280601d81526020017f546f74616c20494e5420696e2067656d73206166746572206275793a20000000815250600f5461460a565b6131536040518060400160405280601081526020017f746f74616c20636f73742067656d3a20000000000000000000000000000000008152508361460a565b61315d33836147f1565b82600a60003373ffffffffffffffffffffffffffffffffffffffff1673ffffffffffffffffffffffffffffffffffffffff168152602001908152602001600020600086815260200190815260200160002060008282546131bd91906154aa565b9250508190555080601260003373ffffffffffffffffffffffffffffffffffffffff1673ffffffffffffffffffffffffffffffffffffffff168152602001908152602001600020600082825461321391906154aa565b925050819055506000601560003373ffffffffffffffffffffffffffffffffffffffff1673ffffffffffffffffffffffffffffffffffffffff16815260200190815260200160002054036132a857601454601560003373ffffffffffffffffffffffffffffffffffffffff1673ffffffffffffffffffffffffffffffffffffffff168152602001908152602001600020819055505b6000601760003373ffffffffffffffffffffffffffffffffffffffff1673ffffffffffffffffffffffffffffffffffffffff168152602001908152602001600020540361333657601654601760003373ffffffffffffffffffffffffffffffffffffffff1673ffffffffffffffffffffffffffffffffffffffff168152602001908152602001600020819055505b50505050565b60196020528060005260406000206000915090505481565b601b6020528060005260406000206000915090505481565b600060098381548110613382576133816154de565b5b9060005260206000209060030201600101541161339e57600080fd5b80600a60003373ffffffffffffffffffffffffffffffffffffffff1673ffffffffffffffffffffffffffffffffffffffff1681526020019081526020016000206000848152602001908152602001600020541015613431576040517f08c379a000000000000000000000000000000000000000000000000000000000815260040161342890615d21565b60405180910390fd5b6000811161343e57600080fd5b60008160098481548110613455576134546154de565b5b90600052602060002090600302016002015461347191906155ad565b90506000826009858154811061348a576134896154de565b5b9060005260206000209060030201600101546134a691906155ad565b90506134b133614089565b80600d60008282546134c3919061550d565b9250508190555081600f60008282546134dc919061550d565b925050819055506134ed338361409e565b82600a60003373ffffffffffffffffffffffffffffffffffffffff1673ffffffffffffffffffffffffffffffffffffffff1681526020019081526020016000206000868152602001908152602001600020600082825461354d919061550d565b9250508190555080601260003373ffffffffffffffffffffffffffffffffffffffff1673ffffffffffffffffffffffffffffffffffffffff16815260200190815260200160002060008282546135a3919061550d565b9250508190555050505050565b6135b8614002565b600073ffffffffffffffffffffffffffffffffffffffff168173ffffffffffffffffffffffffffffffffffffffff160361362a5760006040517f1e4fbdf7000000000000000000000000000000000000000000000000000000008152600401613621919061537e565b60405180910390fd5b613633816143c1565b50565b6000600b838154811061364c5761364b6154de565b5b9060005260206000209060030201600101541161366857600080fd5b6000811161367557600080fd5b61367e33614089565b600081600b8481548110613695576136946154de565b5b9060005260206000209060030201600101546136b191906155ad565b9050600082600b85815481106136ca576136c96154de565b5b9060005260206000209060030201600201546136e691906155ad565b90506000601154826010546136fb91906155ad565b613705919061561e565b9050816011600082825461371991906154aa565b92505081905550806010600082825461373291906154aa565b9250508190555082600e600082825461374b91906154aa565b925050819055506137916040518060400160405280600881526020017f616d6f756e743a200000000000000000000000000000000000000000000000008152508561460a565b6137b5604051806060016040528060218152602001615ec16021913960105461460a565b6137f46040518060400160405280601481526020017f746f74616c20636f7374206372797374616c3a200000000000000000000000008152508261460a565b6138586040518060400160405280600c81526020017f707269636520756e69743a200000000000000000000000000000000000000000815250600b8781548110613841576138406154de565b5b90600052602060002090600302016002015461460a565b61386233826147f1565b83600c60003373ffffffffffffffffffffffffffffffffffffffff1673ffffffffffffffffffffffffffffffffffffffff168152602001908152602001600020600087815260200190815260200160002060008282546138c291906154aa565b9250508190555082601360003373ffffffffffffffffffffffffffffffffffffffff1673ffffffffffffffffffffffffffffffffffffffff168152602001908152602001600020600082825461391891906154aa565b925050819055506000601560003373ffffffffffffffffffffffffffffffffffffffff1673ffffffffffffffffffffffffffffffffffffffff16815260200190815260200160002054036139ad57601454601560003373ffffffffffffffffffffffffffffffffffffffff1673ffffffffffffffffffffffffffffffffffffffff168152602001908152602001600020819055505b6000601760003373ffffffffffffffffffffffffffffffffffffffff1673ffffffffffffffffffffffffffffffffffffffff1681526020019081526020016000205403613a3b57601654601760003373ffffffffffffffffffffffffffffffffffffffff1673ffffffffffffffffffffffffffffffffffffffff168152602001908152602001600020819055505b5050505050565b600260009054906101000a900473ffffffffffffffffffffffffffffffffffffffff1681565b60215481565b6000600160009054906101000a900473ffffffffffffffffffffffffffffffffffffffff1673ffffffffffffffffffffffffffffffffffffffff16633af32abf336040518263ffffffff1660e01b8152600401613acb919061537e565b602060405180830381865afa158015613ae8573d6000803e3d6000fd5b505050506040513d601f19601f82011682018060405250810190613b0c9190615730565b80613b495750613b1a61266e565b73ffffffffffffffffffffffffffffffffffffffff163373ffffffffffffffffffffffffffffffffffffffff16145b613b88576040517f08c379a0000000000000000000000000000000000000000000000000000000008152600401613b7f90615d8d565b60405180910390fd5b613b918261498a565b6000601e60008473ffffffffffffffffffffffffffffffffffffffff1673ffffffffffffffffffffffffffffffffffffffff16815260200190815260200160002054601d60008573ffffffffffffffffffffffffffffffffffffffff1673ffffffffffffffffffffffffffffffffffffffff16815260200190815260200160002054613c1d919061550d565b9050601d60008473ffffffffffffffffffffffffffffffffffffffff1673ffffffffffffffffffffffffffffffffffffffff16815260200190815260200160002054601e60008573ffffffffffffffffffffffffffffffffffffffff1673ffffffffffffffffffffffffffffffffffffffff168152602001908152602001600020819055508273ffffffffffffffffffffffffffffffffffffffff167f1e6f5eaef61555b8bf4c1ef79dd15630c9612b652f0c442b66151f134650742c82604051613ce89190614c55565b60405180910390a280915050919050565b600160009054906101000a900473ffffffffffffffffffffffffffffffffffffffff1673ffffffffffffffffffffffffffffffffffffffff16633af32abf336040518263ffffffff1660e01b8152600401613d54919061537e565b602060405180830381865afa158015613d71573d6000803e3d6000fd5b505050506040513d601f19601f82011682018060405250810190613d959190615730565b80613dd25750613da361266e565b73ffffffffffffffffffffffffffffffffffffffff163373ffffffffffffffffffffffffffffffffffffffff16145b613e11576040517f08c379a0000000000000000000000000000000000000000000000000000000008152600401613e0890615d8d565b60405180910390fd5b6000600b8381548110613e2757613e266154de565b5b90600052602060002090600302016001015411613e4357600080fd5b60008111613e5057600080fd5b613e5983614089565b600081600b8481548110613e7057613e6f6154de565b5b906000526020600020906003020160010154613e8c91906155ad565b9050600082600b8581548110613ea557613ea46154de565b5b906000526020600020906003020160020154613ec191906155ad565b90508060116000828254613ed591906154aa565b9250508190555081600e6000828254613eee91906154aa565b9250508190555082600c60008773ffffffffffffffffffffffffffffffffffffffff1673ffffffffffffffffffffffffffffffffffffffff168152602001908152602001600020600086815260200190815260200160002054613f5191906154aa565b600c60008773ffffffffffffffffffffffffffffffffffffffff1673ffffffffffffffffffffffffffffffffffffffff16815260200190815260200160002060008681526020019081526020016000208190555081601360008773ffffffffffffffffffffffffffffffffffffffff1673ffffffffffffffffffffffffffffffffffffffff1681526020019081526020016000206000828254613ff491906154aa565b925050819055505050505050565b61400a614abb565b73ffffffffffffffffffffffffffffffffffffffff1661402861266e565b73ffffffffffffffffffffffffffffffffffffffff16146140875761404b614abb565b6040517f118cdaa700000000000000000000000000000000000000000000000000000000815260040161407e919061537e565b60405180910390fd5b565b614092816146a6565b61409b8161498a565b50565b6000601f60003373ffffffffffffffffffffffffffffffffffffffff1673ffffffffffffffffffffffffffffffffffffffff168152602001908152602001600020540361414b576001600760008282546140f891906154aa565b92505081905550614107611259565b601f60003373ffffffffffffffffffffffffffffffffffffffff1673ffffffffffffffffffffffffffffffffffffffff168152602001908152602001600020819055505b600260009054906101000a900473ffffffffffffffffffffffffffffffffffffffff1673ffffffffffffffffffffffffffffffffffffffff166323b872dd61419161266e565b84670de0b6b3a7640000856141a691906155ad565b6040518463ffffffff1660e01b81526004016141c493929190615bc6565b6020604051808303816000875af11580156141e3573d6000803e3d6000fd5b505050506040513d601f19601f820116820180604052508101906142079190615730565b5080600860008473ffffffffffffffffffffffffffffffffffffffff1673ffffffffffffffffffffffffffffffffffffffff168152602001908152602001600020600082825461425791906154aa565b925050819055505050565b600080601260008473ffffffffffffffffffffffffffffffffffffffff1673ffffffffffffffffffffffffffffffffffffffff16815260200190815260200160002054601560008573ffffffffffffffffffffffffffffffffffffffff1673ffffffffffffffffffffffffffffffffffffffff168152602001908152602001600020546014546142f2919061550d565b6142fc91906155ad565b90506000601360008573ffffffffffffffffffffffffffffffffffffffff1673ffffffffffffffffffffffffffffffffffffffff16815260200190815260200160002054601760008673ffffffffffffffffffffffffffffffffffffffff1673ffffffffffffffffffffffffffffffffffffffff1681526020019081526020016000205460165461438d919061550d565b61439791906155ad565b9050670de0b6b3a764000081836143ae91906154aa565b6143b8919061561e565b92505050919050565b60008060009054906101000a900473ffffffffffffffffffffffffffffffffffffffff169050816000806101000a81548173ffffffffffffffffffffffffffffffffffffffff021916908373ffffffffffffffffffffffffffffffffffffffff1602179055508173ffffffffffffffffffffffffffffffffffffffff168173ffffffffffffffffffffffffffffffffffffffff167f8be0079c531659141344cd1fd0a4f28419497f9722a3daafe3b4186f6b6457e060405160405180910390a35050565b6000806000905060008390506000600554905060005b600380549050811080156144af5750600083115b156145fe576000600382815481106144ca576144c96154de565b5b90600052602060002090600202016040518060400160405290816000820154815260200160018201548152505090506000805b83811161454a5760038181548110614518576145176154de565b5b9060005260206000209060020201600001548261453591906154aa565b9150808061454290615dad565b9150506144fd565b50600084821161455b576000614568565b8482614567919061550d565b5b90506000810361457a575050506145eb565b600083602001518261458c91906155ad565b90508087106145c45781886145a191906154aa565b975080876145af919061550d565b965081866145bd91906154aa565b95506145e6565b8360200151876145d4919061561e565b886145df91906154aa565b9750600096505b505050505b80806145f690615dad565b91505061449b565b50829350505050919050565b6146a28282604051602401614620929190615df5565b6040516020818303038152906040527fb60e72cc000000000000000000000000000000000000000000000000000000007bffffffffffffffffffffffffffffffffffffffffffffffffffffffff19166020820180517bffffffffffffffffffffffffffffffffffffffffffffffffffffffff8381831617835250505050614ac3565b5050565b60006146b182614262565b905060008111156147ed5780601a60008473ffffffffffffffffffffffffffffffffffffffff1673ffffffffffffffffffffffffffffffffffffffff168152602001908152602001600020600082825461470b91906154aa565b92505081905550601454601560008473ffffffffffffffffffffffffffffffffffffffff1673ffffffffffffffffffffffffffffffffffffffff16815260200190815260200160002081905550601654601760008473ffffffffffffffffffffffffffffffffffffffff1673ffffffffffffffffffffffffffffffffffffffff168152602001908152602001600020819055508173ffffffffffffffffffffffffffffffffffffffff167f670624ed0a09e14166459d983969baa4fa27e42fd398b8c3834ba764cb797a69826040516147e49190614c55565b60405180910390a25b5050565b600260009054906101000a900473ffffffffffffffffffffffffffffffffffffffff1673ffffffffffffffffffffffffffffffffffffffff166323b872dd8361483861266e565b670de0b6b3a76400008561484c91906155ad565b6040518463ffffffff1660e01b815260040161486a93929190615bc6565b6020604051808303816000875af1158015614889573d6000803e3d6000fd5b505050506040513d601f19601f820116820180604052508101906148ad9190615730565b5080600860008473ffffffffffffffffffffffffffffffffffffffff1673ffffffffffffffffffffffffffffffffffffffff168152602001908152602001600020541015614930576040517f08c379a000000000000000000000000000000000000000000000000000000000815260040161492790615e71565b60405180910390fd5b80600860008473ffffffffffffffffffffffffffffffffffffffff1673ffffffffffffffffffffffffffffffffffffffff168152602001908152602001600020600082825461497f919061550d565b925050819055505050565b601c60008273ffffffffffffffffffffffffffffffffffffffff1673ffffffffffffffffffffffffffffffffffffffff16815260200190815260200160002054426149d5919061550d565b601360008373ffffffffffffffffffffffffffffffffffffffff1673ffffffffffffffffffffffffffffffffffffffff16815260200190815260200160002054614a1f91906155ad565b601d60008373ffffffffffffffffffffffffffffffffffffffff1673ffffffffffffffffffffffffffffffffffffffff1681526020019081526020016000206000828254614a6d91906154aa565b9250508190555042601c60008373ffffffffffffffffffffffffffffffffffffffff1673ffffffffffffffffffffffffffffffffffffffff1681526020019081526020016000208190555050565b600033905090565b614ada81614ad2614add614afe565b63ffffffff16565b50565b60006a636f6e736f6c652e6c6f679050600080835160208501845afa505050565b614b2d819050919050565b5080546000825560020290600052602060002090810190614b2a9190614b37565b50565b614b35615e91565b565b5b80821115614b5a57600080820160009055600182016000905550600201614b38565b5090565b6000604051905090565b600080fd5b600080fd5b600073ffffffffffffffffffffffffffffffffffffffff82169050919050565b6000614b9d82614b72565b9050919050565b614bad81614b92565b8114614bb857600080fd5b50565b600081359050614bca81614ba4565b92915050565b6000819050919050565b614be381614bd0565b8114614bee57600080fd5b50565b600081359050614c0081614bda565b92915050565b60008060408385031215614c1d57614c1c614b68565b5b6000614c2b85828601614bbb565b9250506020614c3c85828601614bf1565b9150509250929050565b614c4f81614bd0565b82525050565b6000602082019050614c6a6000830184614c46565b92915050565b60008060408385031215614c8757614c86614b68565b5b6000614c9585828601614bf1565b9250506020614ca685828601614bf1565b9150509250929050565b600060208284031215614cc657614cc5614b68565b5b6000614cd484828501614bbb565b91505092915050565b60008115159050919050565b614cf281614cdd565b8114614cfd57600080fd5b50565b600081359050614d0f81614ce9565b92915050565b600060208284031215614d2b57614d2a614b68565b5b6000614d3984828501614d00565b91505092915050565b6000819050919050565b6000614d67614d62614d5d84614b72565b614d42565b614b72565b9050919050565b6000614d7982614d4c565b9050919050565b6000614d8b82614d6e565b9050919050565b614d9b81614d80565b82525050565b6000602082019050614db66000830184614d92565b92915050565b600080fd5b6000601f19601f8301169050919050565b7f4e487b7100000000000000000000000000000000000000000000000000000000600052604160045260246000fd5b614e0a82614dc1565b810181811067ffffffffffffffff82111715614e2957614e28614dd2565b5b80604052505050565b6000614e3c614b5e565b9050614e488282614e01565b919050565b600067ffffffffffffffff821115614e6857614e67614dd2565b5b602082029050602081019050919050565b600080fd5b600080fd5b600060408284031215614e9957614e98614e7e565b5b614ea36040614e32565b90506000614eb384828501614bf1565b6000830152506020614ec784828501614bf1565b60208301525092915050565b6000614ee6614ee184614e4d565b614e32565b90508083825260208201905060408402830185811115614f0957614f08614e79565b5b835b81811015614f325780614f1e8882614e83565b845260208401935050604081019050614f0b565b5050509392505050565b600082601f830112614f5157614f50614dbc565b5b8135614f61848260208601614ed3565b91505092915050565b600060208284031215614f8057614f7f614b68565b5b600082013567ffffffffffffffff811115614f9e57614f9d614b6d565b5b614faa84828501614f3c565b91505092915050565b600060208284031215614fc957614fc8614b68565b5b6000614fd784828501614bf1565b91505092915050565b600081519050919050565b600082825260208201905092915050565b60005b8381101561501a578082015181840152602081019050614fff565b60008484015250505050565b600061503182614fe0565b61503b8185614feb565b935061504b818560208601614ffc565b61505481614dc1565b840191505092915050565b600060608201905081810360008301526150798186615026565b90506150886020830185614c46565b6150956040830184614c46565b949350505050565b6150a681614cdd565b82525050565b60006020820190506150c1600083018461509d565b92915050565b60006040820190506150dc6000830185614c46565b6150e96020830184614c46565b9392505050565b6000806000806080858703121561510a57615109614b68565b5b600061511887828801614bf1565b945050602061512987828801614bf1565b935050604061513a87828801614bf1565b925050606061514b87828801614d00565b91505092959194509250565b600080fd5b600067ffffffffffffffff82111561517757615176614dd2565b5b61518082614dc1565b9050602081019050919050565b82818337600083830152505050565b60006151af6151aa8461515c565b614e32565b9050828152602081018484840111156151cb576151ca615157565b5b6151d684828561518d565b509392505050565b600082601f8301126151f3576151f2614dbc565b5b813561520384826020860161519c565b91505092915050565b6000806000806080858703121561522657615225614b68565b5b600085013567ffffffffffffffff81111561524457615243614b6d565b5b615250878288016151de565b945050602061526187828801614bf1565b935050604061527287828801614bf1565b925050606061528387828801614d00565b91505092959194509250565b600081519050919050565b600082825260208201905092915050565b6000819050602082019050919050565b6152c481614bd0565b82525050565b60006152d683836152bb565b60208301905092915050565b6000602082019050919050565b60006152fa8261528f565b615304818561529a565b935061530f836152ab565b8060005b8381101561534057815161532788826152ca565b9750615332836152e2565b925050600181019050615313565b5085935050505092915050565b6000602082019050818103600083015261536781846152ef565b905092915050565b61537881614b92565b82525050565b6000602082019050615393600083018461536f565b92915050565b6000806000606084860312156153b2576153b1614b68565b5b60006153c086828701614bf1565b93505060206153d186828701614bf1565b92505060406153e286828701614bf1565b9150509250925092565b60006153f782614d6e565b9050919050565b615407816153ec565b82525050565b600060208201905061542260008301846153fe565b92915050565b60008060006060848603121561544157615440614b68565b5b600061544f86828701614bbb565b935050602061546086828701614bf1565b925050604061547186828701614bf1565b9150509250925092565b7f4e487b7100000000000000000000000000000000000000000000000000000000600052601160045260246000fd5b60006154b582614bd0565b91506154c083614bd0565b92508282019050808211156154d8576154d761547b565b5b92915050565b7f4e487b7100000000000000000000000000000000000000000000000000000000600052603260045260246000fd5b600061551882614bd0565b915061552383614bd0565b925082820390508181111561553b5761553a61547b565b5b92915050565b7f4e6f7420656e6f756768206372797374616c7320746f2073656c6c0000000000600082015250565b6000615577601b83614feb565b915061558282615541565b602082019050919050565b600060208201905081810360008301526155a68161556a565b9050919050565b60006155b882614bd0565b91506155c383614bd0565b92508282026155d181614bd0565b915082820484148315176155e8576155e761547b565b5b5092915050565b7f4e487b7100000000000000000000000000000000000000000000000000000000600052601260045260246000fd5b600061562982614bd0565b915061563483614bd0565b925082615644576156436155ef565b5b828204905092915050565b7f4e487b7100000000000000000000000000000000000000000000000000000000600052602260045260246000fd5b6000600282049050600182168061569657607f821691505b6020821081036156a9576156a861564f565b5b50919050565b7f4d7573742073656e642043524f20746f2062757920746f6b656e730000000000600082015250565b60006156e5601b83614feb565b91506156f0826156af565b602082019050919050565b60006020820190508181036000830152615714816156d8565b9050919050565b60008151905061572a81614ce9565b92915050565b60006020828403121561574657615745614b68565b5b60006157548482850161571b565b91505092915050565b7f4e6f74206f6e207468652077686974656c697374210000000000000000000000600082015250565b6000615793601583614feb565b915061579e8261575d565b602082019050919050565b600060208201905081810360008301526157c281615786565b9050919050565b7f53616c65206973206e6f7420796574206f70656e210000000000000000000000600082015250565b60006157ff601583614feb565b915061580a826157c9565b602082019050919050565b6000602082019050818103600083015261582e816157f2565b9050919050565b7f4e6f7420656e6f7567682043524f20746f2062757920746f6b656e7300000000600082015250565b600061586b601c83614feb565b915061587682615835565b602082019050919050565b6000602082019050818103600083015261589a8161585e565b9050919050565b60006080820190506158b66000830187614c46565b6158c36020830186614c46565b6158d06040830185614c46565b6158dd6060830184614c46565b95945050505050565b60008190508160005260206000209050919050565b60006020601f8301049050919050565b600082821b905092915050565b6000600883026159487fffffffffffffffffffffffffffffffffffffffffffffffffffffffffffffffff8261590b565b615952868361590b565b95508019841693508086168417925050509392505050565b600061598561598061597b84614bd0565b614d42565b614bd0565b9050919050565b6000819050919050565b61599f8361596a565b6159b36159ab8261598c565b848454615918565b825550505050565b600090565b6159c86159bb565b6159d3818484615996565b505050565b5b818110156159f7576159ec6000826159c0565b6001810190506159d9565b5050565b601f821115615a3c57615a0d816158e6565b615a16846158fb565b81016020851015615a25578190505b615a39615a31856158fb565b8301826159d8565b50505b505050565b600082821c905092915050565b6000615a5f60001984600802615a41565b1980831691505092915050565b6000615a788383615a4e565b9150826002028217905092915050565b615a9182614fe0565b67ffffffffffffffff811115615aaa57615aa9614dd2565b5b615ab4825461567e565b615abf8282856159fb565b600060209050601f831160018114615af25760008415615ae0578287015190505b615aea8582615a6c565b865550615b52565b601f198416615b00866158e6565b60005b82811015615b2857848901518255600182019150602085019450602081019050615b03565b86831015615b455784890151615b41601f891682615a4e565b8355505b6001600288020188555050505b505050505050565b7f56616c7565206d757374206265206265747765656e203020616e642032300000600082015250565b6000615b90601e83614feb565b9150615b9b82615b5a565b602082019050919050565b60006020820190508181036000830152615bbf81615b83565b9050919050565b6000606082019050615bdb600083018661536f565b615be8602083018561536f565b615bf56040830184614c46565b949350505050565b7f4e6f2043524f206f776564000000000000000000000000000000000000000000600082015250565b6000615c33600b83614feb565b9150615c3e82615bfd565b602082019050919050565b60006020820190508181036000830152615c6281615c26565b9050919050565b7f47656d207479706520646f6573206e6f74206578697374000000000000000000600082015250565b6000615c9f601783614feb565b9150615caa82615c69565b602082019050919050565b60006020820190508181036000830152615cce81615c92565b9050919050565b7f4e6f7420656e6f7567682067656d7320746f2073656c6c000000000000000000600082015250565b6000615d0b601783614feb565b9150615d1682615cd5565b602082019050919050565b60006020820190508181036000830152615d3a81615cfe565b9050919050565b7f43616c6c6572206973206e6f7420616e2061646d696e00000000000000000000600082015250565b6000615d77601683614feb565b9150615d8282615d41565b602082019050919050565b60006020820190508181036000830152615da681615d6a565b9050919050565b6000615db882614bd0565b91507fffffffffffffffffffffffffffffffffffffffffffffffffffffffffffffffff8203615dea57615de961547b565b5b600182019050919050565b60006040820190508181036000830152615e0f8185615026565b9050615e1e6020830184614c46565b9392505050565b7f4e6f7420656e6f756768207370656e6461626c6520746f6b656e2e0000000000600082015250565b6000615e5b601b83614feb565b9150615e6682615e25565b602082019050919050565b60006020820190508181036000830152615e8a81615e4e565b9050919050565b7f4e487b7100000000000000000000000000000000000000000000000000000000600052605160045260246000fdfe546f74616c20494e5420696e206372797374616c73206166746572206275793a20a26469706673582212204ba2c8ef8da0abbed00051c5ee0427be5f3373496c7966a75732f1fe4632e97364736f6c634300081c0033",
  "linkReferences": {},
  "deployedLinkReferences": {}
}