{
  "_format": "hh-sol-artifact-1",
  "contractName": "InterludePlatform",
  "sourceName": "contracts/InterludePlatform.sol",
  "abi": [
    {
      "inputs": [
        {
          "internalType": "address payable",
          "name": "_owner",
          "type": "address"
        },
        {
          "internalType": "address",
          "name": "tokenAddress",
          "type": "address"
        }
      ],
      "stateMutability": "nonpayable",
      "type": "constructor"
    },
    {
      "inputs": [
        {
          "internalType": "address",
          "name": "owner",
          "type": "address"
        }
      ],
      "name": "OwnableInvalidOwner",
      "type": "error"
    },
    {
      "inputs": [
        {
          "internalType": "address",
          "name": "account",
          "type": "address"
        }
      ],
      "name": "OwnableUnauthorizedAccount",
      "type": "error"
    },
    {
      "anonymous": false,
      "inputs": [
        {
          "indexed": true,
          "internalType": "address",
          "name": "user",
          "type": "address"
        },
        {
          "indexed": false,
          "internalType": "bool",
          "name": "isCrystal",
          "type": "bool"
        },
        {
          "indexed": false,
          "internalType": "bool",
          "name": "isBuy",
          "type": "bool"
        },
        {
          "indexed": false,
          "internalType": "uint256",
          "name": "index",
          "type": "uint256"
        },
        {
          "indexed": false,
          "internalType": "uint256",
          "name": "quantity",
          "type": "uint256"
        }
      ],
      "name": "AssetTransaction",
      "type": "event"
    },
    {
      "anonymous": false,
      "inputs": [
        {
          "indexed": true,
          "internalType": "address",
          "name": "user",
          "type": "address"
        },
        {
          "indexed": false,
          "internalType": "uint256",
          "name": "index",
          "type": "uint256"
        },
        {
          "indexed": false,
          "internalType": "uint256",
          "name": "quantity",
          "type": "uint256"
        }
      ],
      "name": "CrystalMint",
      "type": "event"
    },
    {
      "anonymous": false,
      "inputs": [
        {
          "indexed": true,
          "internalType": "address",
          "name": "user",
          "type": "address"
        },
        {
          "indexed": false,
          "internalType": "uint256",
          "name": "amount",
          "type": "uint256"
        }
      ],
      "name": "EarningsClaim",
      "type": "event"
    },
    {
      "anonymous": false,
      "inputs": [
        {
          "indexed": true,
          "internalType": "address",
          "name": "user",
          "type": "address"
        },
        {
          "indexed": false,
          "internalType": "uint256",
          "name": "amount",
          "type": "uint256"
        }
      ],
      "name": "EarningsReserve",
      "type": "event"
    },
    {
      "anonymous": false,
      "inputs": [
        {
          "indexed": true,
          "internalType": "address",
          "name": "user",
          "type": "address"
        },
        {
          "indexed": false,
          "internalType": "uint256",
          "name": "energyAmount",
          "type": "uint256"
        }
      ],
      "name": "EnergyCollected",
      "type": "event"
    },
    {
      "anonymous": false,
      "inputs": [
        {
          "indexed": true,
          "internalType": "address",
          "name": "previousOwner",
          "type": "address"
        },
        {
          "indexed": true,
          "internalType": "address",
          "name": "newOwner",
          "type": "address"
        }
      ],
      "name": "OwnershipTransferred",
      "type": "event"
    },
    {
      "anonymous": false,
      "inputs": [
        {
          "indexed": true,
          "internalType": "address",
          "name": "user",
          "type": "address"
        },
        {
          "indexed": false,
          "internalType": "uint256",
          "name": "croAmount",
          "type": "uint256"
        },
        {
          "indexed": false,
          "internalType": "uint256",
          "name": "intAmount",
          "type": "uint256"
        }
      ],
      "name": "ReferralBonusClaim",
      "type": "event"
    },
    {
      "anonymous": false,
      "inputs": [
        {
          "indexed": true,
          "internalType": "address",
          "name": "buyer",
          "type": "address"
        },
        {
          "indexed": false,
          "internalType": "uint256",
          "name": "value",
          "type": "uint256"
        },
        {
          "indexed": false,
          "internalType": "uint256",
          "name": "referrerCroBonus",
          "type": "uint256"
        },
        {
          "indexed": false,
          "internalType": "uint256",
          "name": "referrerIntBonus",
          "type": "uint256"
        },
        {
          "indexed": false,
          "internalType": "uint256",
          "name": "referredIntBonus",
          "type": "uint256"
        }
      ],
      "name": "TokenPurchase",
      "type": "event"
    },
    {
      "inputs": [
        {
          "internalType": "string",
          "name": "assetName",
          "type": "string"
        },
        {
          "internalType": "uint256",
          "name": "power",
          "type": "uint256"
        },
        {
          "internalType": "uint256",
          "name": "unscaledPrice",
          "type": "uint256"
        },
        {
          "internalType": "bool",
          "name": "isCrystal",
          "type": "bool"
        }
      ],
      "name": "addAsset",
      "outputs": [],
      "stateMutability": "nonpayable",
      "type": "function"
    },
    {
      "inputs": [],
      "name": "adminWhitelist",
      "outputs": [
        {
          "internalType": "contract IWhitelist",
          "name": "",
          "type": "address"
        }
      ],
      "stateMutability": "view",
      "type": "function"
    },
    {
      "inputs": [
        {
          "internalType": "uint256",
          "name": "crystalType",
          "type": "uint256"
        },
        {
          "internalType": "uint256",
          "name": "amount",
          "type": "uint256"
        }
      ],
      "name": "buyCrystal",
      "outputs": [],
      "stateMutability": "nonpayable",
      "type": "function"
    },
    {
      "inputs": [
        {
          "internalType": "uint256",
          "name": "gemType",
          "type": "uint256"
        },
        {
          "internalType": "uint256",
          "name": "amount",
          "type": "uint256"
        }
      ],
      "name": "buyGem",
      "outputs": [],
      "stateMutability": "nonpayable",
      "type": "function"
    },
    {
      "inputs": [
        {
          "internalType": "address",
          "name": "referralAddress",
          "type": "address"
        }
      ],
      "name": "buyToken",
      "outputs": [],
      "stateMutability": "payable",
      "type": "function"
    },
    {
      "inputs": [
        {
          "internalType": "address",
          "name": "user",
          "type": "address"
        }
      ],
      "name": "calculateUserEarnings",
      "outputs": [
        {
          "internalType": "uint256",
          "name": "",
          "type": "uint256"
        }
      ],
      "stateMutability": "view",
      "type": "function"
    },
    {
      "inputs": [],
      "name": "claimEarnings",
      "outputs": [],
      "stateMutability": "nonpayable",
      "type": "function"
    },
    {
      "inputs": [],
      "name": "claimReferralBonus",
      "outputs": [],
      "stateMutability": "nonpayable",
      "type": "function"
    },
    {
      "inputs": [
        {
          "internalType": "address",
          "name": "user",
          "type": "address"
        }
      ],
      "name": "collectEnergy",
      "outputs": [
        {
          "internalType": "uint256",
          "name": "",
          "type": "uint256"
        }
      ],
      "stateMutability": "nonpayable",
      "type": "function"
    },
    {
      "inputs": [
        {
          "internalType": "address",
          "name": "",
          "type": "address"
        }
      ],
      "name": "collectedEnergy",
      "outputs": [
        {
          "internalType": "uint256",
          "name": "",
          "type": "uint256"
        }
      ],
      "stateMutability": "view",
      "type": "function"
    },
    {
      "inputs": [
        {
          "internalType": "uint256",
          "name": "",
          "type": "uint256"
        }
      ],
      "name": "crystals",
      "outputs": [
        {
          "internalType": "string",
          "name": "name",
          "type": "string"
        },
        {
          "internalType": "uint256",
          "name": "power",
          "type": "uint256"
        },
        {
          "internalType": "uint256",
          "name": "unscaledPrice",
          "type": "uint256"
        }
      ],
      "stateMutability": "view",
      "type": "function"
    },
    {
      "inputs": [],
      "name": "cumulativeRewardPerWeightCrystals",
      "outputs": [
        {
          "internalType": "uint256",
          "name": "",
          "type": "uint256"
        }
      ],
      "stateMutability": "view",
      "type": "function"
    },
    {
      "inputs": [],
      "name": "cumulativeRewardPerWeightGems",
      "outputs": [
        {
          "internalType": "uint256",
          "name": "",
          "type": "uint256"
        }
      ],
      "stateMutability": "view",
      "type": "function"
    },
    {
      "inputs": [
        {
          "internalType": "address",
          "name": "",
          "type": "address"
        }
      ],
      "name": "currentCrystalPower",
      "outputs": [
        {
          "internalType": "uint256",
          "name": "",
          "type": "uint256"
        }
      ],
      "stateMutability": "view",
      "type": "function"
    },
    {
      "inputs": [
        {
          "internalType": "address",
          "name": "",
          "type": "address"
        }
      ],
      "name": "currentGemPower",
      "outputs": [
        {
          "internalType": "uint256",
          "name": "",
          "type": "uint256"
        }
      ],
      "stateMutability": "view",
      "type": "function"
    },
    {
      "inputs": [],
      "name": "currentPhase",
      "outputs": [
        {
          "internalType": "uint256",
          "name": "",
          "type": "uint256"
        }
      ],
      "stateMutability": "view",
      "type": "function"
    },
    {
      "inputs": [
        {
          "internalType": "address",
          "name": "user",
          "type": "address"
        }
      ],
      "name": "eligibleForReferral",
      "outputs": [
        {
          "internalType": "bool",
          "name": "",
          "type": "bool"
        }
      ],
      "stateMutability": "view",
      "type": "function"
    },
    {
      "inputs": [
        {
          "internalType": "address",
          "name": "",
          "type": "address"
        }
      ],
      "name": "firstPurchasePhase",
      "outputs": [
        {
          "internalType": "uint256",
          "name": "",
          "type": "uint256"
        }
      ],
      "stateMutability": "view",
      "type": "function"
    },
    {
      "inputs": [],
      "name": "flush",
      "outputs": [],
      "stateMutability": "nonpayable",
      "type": "function"
    },
    {
      "inputs": [
        {
          "internalType": "uint256",
          "name": "",
          "type": "uint256"
        }
      ],
      "name": "gems",
      "outputs": [
        {
          "internalType": "string",
          "name": "name",
          "type": "string"
        },
        {
          "internalType": "uint256",
          "name": "power",
          "type": "uint256"
        },
        {
          "internalType": "uint256",
          "name": "unscaledPrice",
          "type": "uint256"
        }
      ],
      "stateMutability": "view",
      "type": "function"
    },
    {
      "inputs": [],
      "name": "generalWhitelist",
      "outputs": [
        {
          "internalType": "contract IWhitelist",
          "name": "",
          "type": "address"
        }
      ],
      "stateMutability": "view",
      "type": "function"
    },
    {
      "inputs": [
        {
          "internalType": "address",
          "name": "",
          "type": "address"
        }
      ],
      "name": "generatedEnergy",
      "outputs": [
        {
          "internalType": "uint256",
          "name": "",
          "type": "uint256"
        }
      ],
      "stateMutability": "view",
      "type": "function"
    },
    {
      "inputs": [
        {
          "internalType": "address",
          "name": "user",
          "type": "address"
        }
      ],
      "name": "getCrystals",
      "outputs": [
        {
          "internalType": "uint256[]",
          "name": "",
          "type": "uint256[]"
        }
      ],
      "stateMutability": "view",
      "type": "function"
    },
    {
      "inputs": [
        {
          "internalType": "address",
          "name": "user",
          "type": "address"
        }
      ],
      "name": "getGems",
      "outputs": [
        {
          "internalType": "uint256[]",
          "name": "",
          "type": "uint256[]"
        }
      ],
      "stateMutability": "view",
      "type": "function"
    },
    {
      "inputs": [
        {
          "internalType": "address",
          "name": "user",
          "type": "address"
        },
        {
          "internalType": "uint256",
          "name": "amount",
          "type": "uint256"
        }
      ],
      "name": "giveTokenTo",
      "outputs": [],
      "stateMutability": "nonpayable",
      "type": "function"
    },
    {
      "inputs": [
        {
          "internalType": "address",
          "name": "user",
          "type": "address"
        },
        {
          "internalType": "uint256",
          "name": "amount",
          "type": "uint256"
        }
      ],
      "name": "giveUnclaimedEarnings",
      "outputs": [],
      "stateMutability": "nonpayable",
      "type": "function"
    },
    {
      "inputs": [
        {
          "internalType": "address",
          "name": "",
          "type": "address"
        }
      ],
      "name": "investmentAllowance",
      "outputs": [
        {
          "internalType": "uint256",
          "name": "",
          "type": "uint256"
        }
      ],
      "stateMutability": "view",
      "type": "function"
    },
    {
      "inputs": [
        {
          "internalType": "address",
          "name": "",
          "type": "address"
        }
      ],
      "name": "lastClaimedRewardPerWeightCrystals",
      "outputs": [
        {
          "internalType": "uint256",
          "name": "",
          "type": "uint256"
        }
      ],
      "stateMutability": "view",
      "type": "function"
    },
    {
      "inputs": [
        {
          "internalType": "address",
          "name": "",
          "type": "address"
        }
      ],
      "name": "lastClaimedRewardPerWeightGems",
      "outputs": [
        {
          "internalType": "uint256",
          "name": "",
          "type": "uint256"
        }
      ],
      "stateMutability": "view",
      "type": "function"
    },
    {
      "inputs": [
        {
          "internalType": "address",
          "name": "",
          "type": "address"
        }
      ],
      "name": "lastTimeEnergyComputed",
      "outputs": [
        {
          "internalType": "uint256",
          "name": "",
          "type": "uint256"
        }
      ],
      "stateMutability": "view",
      "type": "function"
    },
    {
      "inputs": [
        {
          "internalType": "address",
          "name": "user",
          "type": "address"
        },
        {
          "internalType": "uint256",
          "name": "crystalType",
          "type": "uint256"
        },
        {
          "internalType": "uint256",
          "name": "amount",
          "type": "uint256"
        }
      ],
      "name": "mintCrystal",
      "outputs": [],
      "stateMutability": "nonpayable",
      "type": "function"
    },
    {
      "inputs": [],
      "name": "onlyAllowWhitelisted",
      "outputs": [
        {
          "internalType": "bool",
          "name": "",
          "type": "bool"
        }
      ],
      "stateMutability": "view",
      "type": "function"
    },
    {
      "inputs": [],
      "name": "owner",
      "outputs": [
        {
          "internalType": "address",
          "name": "",
          "type": "address"
        }
      ],
      "stateMutability": "view",
      "type": "function"
    },
    {
      "inputs": [],
      "name": "partnersWhitelist",
      "outputs": [
        {
          "internalType": "contract IWhitelist",
          "name": "",
          "type": "address"
        }
      ],
      "stateMutability": "view",
      "type": "function"
    },
    {
      "inputs": [],
      "name": "referredIntBonusPercentage",
      "outputs": [
        {
          "internalType": "uint256",
          "name": "",
          "type": "uint256"
        }
      ],
      "stateMutability": "view",
      "type": "function"
    },
    {
      "inputs": [],
      "name": "referrerCroBonusPercentage",
      "outputs": [
        {
          "internalType": "uint256",
          "name": "",
          "type": "uint256"
        }
      ],
      "stateMutability": "view",
      "type": "function"
    },
    {
      "inputs": [],
      "name": "referrerIntBonusPercentage",
      "outputs": [
        {
          "internalType": "uint256",
          "name": "",
          "type": "uint256"
        }
      ],
      "stateMutability": "view",
      "type": "function"
    },
    {
      "inputs": [
        {
          "internalType": "address",
          "name": "user",
          "type": "address"
        }
      ],
      "name": "reinitializeEnergy",
      "outputs": [],
      "stateMutability": "nonpayable",
      "type": "function"
    },
    {
      "inputs": [],
      "name": "renounceOwnership",
      "outputs": [],
      "stateMutability": "nonpayable",
      "type": "function"
    },
    {
      "inputs": [
        {
          "internalType": "bool",
          "name": "_restricted",
          "type": "bool"
        }
      ],
      "name": "restrictReferralProgram",
      "outputs": [],
      "stateMutability": "nonpayable",
      "type": "function"
    },
    {
      "inputs": [],
      "name": "restrictReferralProgramToPartners",
      "outputs": [
        {
          "internalType": "bool",
          "name": "",
          "type": "bool"
        }
      ],
      "stateMutability": "view",
      "type": "function"
    },
    {
      "inputs": [
        {
          "internalType": "uint256",
          "name": "crystalType",
          "type": "uint256"
        },
        {
          "internalType": "uint256",
          "name": "amount",
          "type": "uint256"
        }
      ],
      "name": "sellCrystal",
      "outputs": [],
      "stateMutability": "nonpayable",
      "type": "function"
    },
    {
      "inputs": [
        {
          "internalType": "uint256",
          "name": "gemType",
          "type": "uint256"
        },
        {
          "internalType": "uint256",
          "name": "amount",
          "type": "uint256"
        }
      ],
      "name": "sellGem",
      "outputs": [],
      "stateMutability": "nonpayable",
      "type": "function"
    },
    {
      "inputs": [
        {
          "internalType": "address",
          "name": "_adminWhitelist",
          "type": "address"
        }
      ],
      "name": "setAdminWhitelist",
      "outputs": [],
      "stateMutability": "nonpayable",
      "type": "function"
    },
    {
      "inputs": [
        {
          "internalType": "address",
          "name": "_generalWhitelist",
          "type": "address"
        }
      ],
      "name": "setGeneralWhitelist",
      "outputs": [],
      "stateMutability": "nonpayable",
      "type": "function"
    },
    {
      "inputs": [
        {
          "internalType": "bool",
          "name": "_onlyAllowWhitelisted",
          "type": "bool"
        }
      ],
      "name": "setOnlyWhitelist",
      "outputs": [],
      "stateMutability": "nonpayable",
      "type": "function"
    },
    {
      "inputs": [
        {
          "internalType": "address",
          "name": "_partnersWhitelist",
          "type": "address"
        }
      ],
      "name": "setPartnersWhitelist",
      "outputs": [],
      "stateMutability": "nonpayable",
      "type": "function"
    },
    {
      "inputs": [
        {
          "internalType": "uint256",
          "name": "_referrerCroBonusPercentage",
          "type": "uint256"
        },
        {
          "internalType": "uint256",
          "name": "_referrerIntBonusPercentage",
          "type": "uint256"
        },
        {
          "internalType": "uint256",
          "name": "_referredIntBonusPercentage",
          "type": "uint256"
        }
      ],
      "name": "setReferralBonusesPercentages",
      "outputs": [],
      "stateMutability": "nonpayable",
      "type": "function"
    },
    {
      "inputs": [
        {
          "internalType": "uint256",
          "name": "_startDate",
          "type": "uint256"
        }
      ],
      "name": "setStartDate",
      "outputs": [],
      "stateMutability": "nonpayable",
      "type": "function"
    },
    {
      "inputs": [
        {
          "components": [
            {
              "internalType": "uint256",
              "name": "size",
              "type": "uint256"
            },
            {
              "internalType": "uint256",
              "name": "price",
              "type": "uint256"
            }
          ],
          "internalType": "struct InterludePlatform.Step[]",
          "name": "_steps",
          "type": "tuple[]"
        }
      ],
      "name": "setSteps",
      "outputs": [],
      "stateMutability": "nonpayable",
      "type": "function"
    },
    {
      "inputs": [
        {
          "internalType": "uint256",
          "name": "_totalSold",
          "type": "uint256"
        }
      ],
      "name": "setTotalSold",
      "outputs": [],
      "stateMutability": "nonpayable",
      "type": "function"
    },
    {
      "inputs": [
        {
          "internalType": "address",
          "name": "",
          "type": "address"
        }
      ],
      "name": "spendableTokens",
      "outputs": [
        {
          "internalType": "uint256",
          "name": "",
          "type": "uint256"
        }
      ],
      "stateMutability": "view",
      "type": "function"
    },
    {
      "inputs": [],
      "name": "startDate",
      "outputs": [
        {
          "internalType": "uint256",
          "name": "",
          "type": "uint256"
        }
      ],
      "stateMutability": "view",
      "type": "function"
    },
    {
      "inputs": [
        {
          "internalType": "uint256",
          "name": "",
          "type": "uint256"
        }
      ],
      "name": "steps",
      "outputs": [
        {
          "internalType": "uint256",
          "name": "size",
          "type": "uint256"
        },
        {
          "internalType": "uint256",
          "name": "price",
          "type": "uint256"
        }
      ],
      "stateMutability": "view",
      "type": "function"
    },
    {
      "inputs": [],
      "name": "token",
      "outputs": [
        {
          "internalType": "contract MyPausableToken",
          "name": "",
          "type": "address"
        }
      ],
      "stateMutability": "view",
      "type": "function"
    },
    {
      "inputs": [
        {
          "internalType": "address",
          "name": "",
          "type": "address"
        }
      ],
      "name": "totalClaimed",
      "outputs": [
        {
          "internalType": "uint256",
          "name": "",
          "type": "uint256"
        }
      ],
      "stateMutability": "view",
      "type": "function"
    },
    {
      "inputs": [
        {
          "internalType": "address",
          "name": "",
          "type": "address"
        }
      ],
      "name": "totalClaimedCroReferralBonus",
      "outputs": [
        {
          "internalType": "uint256",
          "name": "",
          "type": "uint256"
        }
      ],
      "stateMutability": "view",
      "type": "function"
    },
    {
      "inputs": [
        {
          "internalType": "address",
          "name": "",
          "type": "address"
        }
      ],
      "name": "totalClaimedIntReferralBonus",
      "outputs": [
        {
          "internalType": "uint256",
          "name": "",
          "type": "uint256"
        }
      ],
      "stateMutability": "view",
      "type": "function"
    },
    {
      "inputs": [],
      "name": "totalCrystalPower",
      "outputs": [
        {
          "internalType": "uint256",
          "name": "",
          "type": "uint256"
        }
      ],
      "stateMutability": "view",
      "type": "function"
    },
    {
      "inputs": [],
      "name": "totalGemPower",
      "outputs": [
        {
          "internalType": "uint256",
          "name": "",
          "type": "uint256"
        }
      ],
      "stateMutability": "view",
      "type": "function"
    },
    {
      "inputs": [],
      "name": "totalIntInCrystals",
      "outputs": [
        {
          "internalType": "uint256",
          "name": "",
          "type": "uint256"
        }
      ],
      "stateMutability": "view",
      "type": "function"
    },
    {
      "inputs": [],
      "name": "totalIntInGems",
      "outputs": [
        {
          "internalType": "uint256",
          "name": "",
          "type": "uint256"
        }
      ],
      "stateMutability": "view",
      "type": "function"
    },
    {
      "inputs": [
        {
          "internalType": "address",
          "name": "",
          "type": "address"
        }
      ],
      "name": "totalInvested",
      "outputs": [
        {
          "internalType": "uint256",
          "name": "",
          "type": "uint256"
        }
      ],
      "stateMutability": "view",
      "type": "function"
    },
    {
      "inputs": [],
      "name": "totalPriceUnitsInCrystals",
      "outputs": [
        {
          "internalType": "uint256",
          "name": "",
          "type": "uint256"
        }
      ],
      "stateMutability": "view",
      "type": "function"
    },
    {
      "inputs": [],
      "name": "totalSold",
      "outputs": [
        {
          "internalType": "uint256",
          "name": "",
          "type": "uint256"
        }
      ],
      "stateMutability": "view",
      "type": "function"
    },
    {
      "inputs": [],
      "name": "totalUsers",
      "outputs": [
        {
          "internalType": "uint256",
          "name": "",
          "type": "uint256"
        }
      ],
      "stateMutability": "view",
      "type": "function"
    },
    {
      "inputs": [
        {
          "internalType": "address",
          "name": "newOwner",
          "type": "address"
        }
      ],
      "name": "transferOwnership",
      "outputs": [],
      "stateMutability": "nonpayable",
      "type": "function"
    },
    {
      "inputs": [
        {
          "internalType": "address",
          "name": "",
          "type": "address"
        }
      ],
      "name": "unclaimedCroReferralBonus",
      "outputs": [
        {
          "internalType": "uint256",
          "name": "",
          "type": "uint256"
        }
      ],
      "stateMutability": "view",
      "type": "function"
    },
    {
      "inputs": [
        {
          "internalType": "address",
          "name": "",
          "type": "address"
        }
      ],
      "name": "unclaimedEarnings",
      "outputs": [
        {
          "internalType": "uint256",
          "name": "",
          "type": "uint256"
        }
      ],
      "stateMutability": "view",
      "type": "function"
    },
    {
      "inputs": [
        {
          "internalType": "address",
          "name": "",
          "type": "address"
        }
      ],
      "name": "unclaimedIntReferralBonus",
      "outputs": [
        {
          "internalType": "uint256",
          "name": "",
          "type": "uint256"
        }
      ],
      "stateMutability": "view",
      "type": "function"
    },
    {
      "inputs": [
        {
          "internalType": "uint256",
          "name": "index",
          "type": "uint256"
        },
        {
          "internalType": "uint256",
          "name": "_power",
          "type": "uint256"
        },
        {
          "internalType": "uint256",
          "name": "_unscaledPrice",
          "type": "uint256"
        },
        {
          "internalType": "bool",
          "name": "isCrystal",
          "type": "bool"
        }
      ],
      "name": "updateAsset",
      "outputs": [],
      "stateMutability": "nonpayable",
      "type": "function"
    },
    {
      "inputs": [
        {
          "internalType": "address",
          "name": "",
          "type": "address"
        },
        {
          "internalType": "uint256",
          "name": "",
          "type": "uint256"
        }
      ],
      "name": "userCrystals",
      "outputs": [
        {
          "internalType": "uint256",
          "name": "",
          "type": "uint256"
        }
      ],
      "stateMutability": "view",
      "type": "function"
    },
    {
      "inputs": [
        {
          "internalType": "address",
          "name": "",
          "type": "address"
        },
        {
          "internalType": "uint256",
          "name": "",
          "type": "uint256"
        }
      ],
      "name": "userGems",
      "outputs": [
        {
          "internalType": "uint256",
          "name": "",
          "type": "uint256"
        }
      ],
      "stateMutability": "view",
      "type": "function"
    },
    {
      "stateMutability": "payable",
      "type": "receive"
    }
  ],
  "bytecode": "0x60806040526000600d556000600e556001600f5560016010556001601155600a602055600a602155600f6022556001602760006101000a81548160ff02191690831515021790555034801561005357600080fd5b506040516162f23803806162f2833981810160405281019061007591906102a5565b81600073ffffffffffffffffffffffffffffffffffffffff168173ffffffffffffffffffffffffffffffffffffffff16036100e85760006040517f1e4fbdf70000000000000000000000000000000000000000000000000000000081526004016100df91906102f4565b60405180910390fd5b6100f78161014060201b60201c565b5080600260006101000a81548173ffffffffffffffffffffffffffffffffffffffff021916908373ffffffffffffffffffffffffffffffffffffffff160217905550505061030f565b60008060009054906101000a900473ffffffffffffffffffffffffffffffffffffffff169050816000806101000a81548173ffffffffffffffffffffffffffffffffffffffff021916908373ffffffffffffffffffffffffffffffffffffffff1602179055508173ffffffffffffffffffffffffffffffffffffffff168173ffffffffffffffffffffffffffffffffffffffff167f8be0079c531659141344cd1fd0a4f28419497f9722a3daafe3b4186f6b6457e060405160405180910390a35050565b600080fd5b600073ffffffffffffffffffffffffffffffffffffffff82169050919050565b600061023482610209565b9050919050565b61024481610229565b811461024f57600080fd5b50565b6000815190506102618161023b565b92915050565b600061027282610209565b9050919050565b61028281610267565b811461028d57600080fd5b50565b60008151905061029f81610279565b92915050565b600080604083850312156102bc576102bb610204565b5b60006102ca85828601610252565b92505060206102db85828601610290565b9150509250929050565b6102ee81610267565b82525050565b600060208201905061030960008301846102e5565b92915050565b615fd48061031e6000396000f3fe60806040526004361061042a5760003560e01c8063869c865e11610229578063c70e12cb1161012e578063e1dc75d2116100b6578063f9d702001161007a578063f9d70200146110f8578063fc0c546a14611121578063fcb966d71461114c578063fd239fd914611177578063ff5133cd146111b457610431565b8063e1dc75d214611003578063ef49968a1461102c578063ef5d9ae814611069578063f226de97146110a6578063f2fde38b146110cf57610431565b8063d4a444b4116100fd578063d4a444b414610f1e578063d7e14e1314610f5b578063d9ceab1314610f86578063de473f8d14610f9d578063df13c9ca14610fda57610431565b8063c70e12cb14610e50578063c7a1834714610e8d578063c8da5ef514610eca578063ce54d6e114610ef557610431565b806395526f4c116101b1578063af28728c11610180578063af28728c14610d69578063bbaa117714610d94578063bc09019114610dbf578063bc3de74914610dfc578063bff1f9e114610e2557610431565b806395526f4c14610c7357806395ae847814610cb0578063a1f0406d14610ced578063a54dfaad14610d2c57610431565b80638e84a0d8116101f85780638e84a0d814610b7a57806390838e0914610ba557806390c757eb14610be25780639106d7ba14610c1f57806393dbc75714610c4a57610431565b8063869c865e14610aac578063876cf0ef14610ad557806388185e0314610b125780638da5cb5b14610b4f57610431565b8063378515981161032f57806366d74c80116102b7578063715018a611610286578063715018a6146109e95780637217e0b914610a005780637d848db214610a3e5780637e72fb5214610a6757806382d95df514610a8357610431565b806366d74c801461093f5780636b9f96ea1461096a5780636c743fb2146109815780636de62ea7146109ac57610431565b80634e358662116102fe5780634e358662146108465780634ed9b7f61461088357806350a3eaf0146108ae57806351484a19146108d95780636143440c1461091657610431565b8063378515981461077857806345ed628f146107a157806347315ec4146107cc5780634a5f58c71461080957610431565b80631ff9e2b2116103b257806329e0f88d1161038157806329e0f88d1461066b5780632b4c73e51461069457806331b3ab3f146106bf57806333298463146106fe578063376f96711461073b57610431565b80631ff9e2b2146105af578063206a5dbc146105da57806321622c631461060557806323ada7171461062e57610431565b80630b97bc86116103f95780630b97bc86146104de578063109d75d5146105095780631a156f93146105465780631dd02b4b1461056f5780631e375ab91461059857610431565b80630355d20c14610436578063055ad42e1461045f57806308d317dd1461048a5780630ae19ba8146104b357610431565b3661043157005b600080fd5b34801561044257600080fd5b5061045d60048036038101906104589190614c92565b6111dd565b005b34801561046b57600080fd5b5061047461128d565b6040516104819190614ce1565b60405180910390f35b34801561049657600080fd5b506104b160048036038101906104ac9190614cfc565b611329565b005b3480156104bf57600080fd5b506104c86115fc565b6040516104d59190614ce1565b60405180910390f35b3480156104ea57600080fd5b506104f3611602565b6040516105009190614ce1565b60405180910390f35b34801561051557600080fd5b50610530600480360381019061052b9190614d3c565b611608565b60405161053d9190614ce1565b60405180910390f35b34801561055257600080fd5b5061056d60048036038101906105689190614d3c565b611664565b005b34801561057b57600080fd5b5061059660048036038101906105919190614da1565b61173d565b005b3480156105a457600080fd5b506105ad611762565b005b3480156105bb57600080fd5b506105c4611a47565b6040516105d19190614e2d565b60405180910390f35b3480156105e657600080fd5b506105ef611a6d565b6040516105fc9190614ce1565b60405180910390f35b34801561061157600080fd5b5061062c60048036038101906106279190614ff6565b611a73565b005b34801561063a57600080fd5b5061065560048036038101906106509190614d3c565b611b38565b6040516106629190614ce1565b60405180910390f35b34801561067757600080fd5b50610692600480360381019061068d9190614d3c565b611b50565b005b3480156106a057600080fd5b506106a9611b9c565b6040516106b69190614ce1565b60405180910390f35b3480156106cb57600080fd5b506106e660048036038101906106e1919061503f565b611ba2565b6040516106f5939291906150eb565b60405180910390f35b34801561070a57600080fd5b5061072560048036038101906107209190614d3c565b611c64565b6040516107329190614ce1565b60405180910390f35b34801561074757600080fd5b50610762600480360381019061075d9190614d3c565b611c7c565b60405161076f9190614ce1565b60405180910390f35b34801561078457600080fd5b5061079f600480360381019061079a919061503f565b611c94565b005b3480156107ad57600080fd5b506107b6611ca6565b6040516107c39190614ce1565b60405180910390f35b3480156107d857600080fd5b506107f360048036038101906107ee9190614d3c565b611cac565b6040516108009190614ce1565b60405180910390f35b34801561081557600080fd5b50610830600480360381019061082b9190614d3c565b611cc4565b60405161083d9190614ce1565b60405180910390f35b34801561085257600080fd5b5061086d60048036038101906108689190614d3c565b611cdc565b60405161087a9190614ce1565b60405180910390f35b34801561088f57600080fd5b50610898611cf4565b6040516108a59190615138565b60405180910390f35b3480156108ba57600080fd5b506108c3611d07565b6040516108d09190614ce1565b60405180910390f35b3480156108e557600080fd5b5061090060048036038101906108fb9190614d3c565b611d0d565b60405161090d9190614ce1565b60405180910390f35b34801561092257600080fd5b5061093d60048036038101906109389190614d3c565b611d25565b005b34801561094b57600080fd5b50610954611d71565b6040516109619190614e2d565b60405180910390f35b34801561097657600080fd5b5061097f611d97565b005b34801561098d57600080fd5b50610996611def565b6040516109a39190614ce1565b60405180910390f35b3480156109b857600080fd5b506109d360048036038101906109ce9190614d3c565b611df5565b6040516109e09190614ce1565b60405180910390f35b3480156109f557600080fd5b506109fe611e0d565b005b348015610a0c57600080fd5b50610a276004803603810190610a22919061503f565b611e21565b604051610a35929190615153565b60405180910390f35b348015610a4a57600080fd5b50610a656004803603810190610a60919061517c565b611e55565b005b610a816004803603810190610a7c9190614d3c565b611f17565b005b348015610a8f57600080fd5b50610aaa6004803603810190610aa5919061503f565b6124aa565b005b348015610ab857600080fd5b50610ad36004803603810190610ace9190615298565b6124bc565b005b348015610ae157600080fd5b50610afc6004803603810190610af79190614d3c565b6125ba565b604051610b0991906153d9565b60405180910390f35b348015610b1e57600080fd5b50610b396004803603810190610b349190614d3c565b6126a5565b604051610b4691906153d9565b60405180910390f35b348015610b5b57600080fd5b50610b64612790565b604051610b71919061540a565b60405180910390f35b348015610b8657600080fd5b50610b8f6127b9565b604051610b9c9190615138565b60405180910390f35b348015610bb157600080fd5b50610bcc6004803603810190610bc79190614d3c565b6127cc565b604051610bd99190614ce1565b60405180910390f35b348015610bee57600080fd5b50610c096004803603810190610c049190614c92565b6127e4565b604051610c169190614ce1565b60405180910390f35b348015610c2b57600080fd5b50610c34612809565b604051610c419190614ce1565b60405180910390f35b348015610c5657600080fd5b50610c716004803603810190610c6c9190614d3c565b61280f565b005b348015610c7f57600080fd5b50610c9a6004803603810190610c959190614d3c565b61285b565b604051610ca79190614ce1565b60405180910390f35b348015610cbc57600080fd5b50610cd76004803603810190610cd29190614d3c565b612873565b604051610ce49190614ce1565b60405180910390f35b348015610cf957600080fd5b50610d146004803603810190610d0f919061503f565b61288b565b604051610d23939291906150eb565b60405180910390f35b348015610d3857600080fd5b50610d536004803603810190610d4e9190614d3c565b61294d565b604051610d609190614ce1565b60405180910390f35b348015610d7557600080fd5b50610d7e612965565b604051610d8b9190614e2d565b60405180910390f35b348015610da057600080fd5b50610da961298b565b604051610db69190614ce1565b60405180910390f35b348015610dcb57600080fd5b50610de66004803603810190610de19190614d3c565b612991565b604051610df39190614ce1565b60405180910390f35b348015610e0857600080fd5b50610e236004803603810190610e1e9190615425565b6129a9565b005b348015610e3157600080fd5b50610e3a612abe565b604051610e479190614ce1565b60405180910390f35b348015610e5c57600080fd5b50610e776004803603810190610e729190614c92565b612ac4565b604051610e849190614ce1565b60405180910390f35b348015610e9957600080fd5b50610eb46004803603810190610eaf9190614d3c565b612ae9565b604051610ec19190614ce1565b60405180910390f35b348015610ed657600080fd5b50610edf612b01565b604051610eec9190614ce1565b60405180910390f35b348015610f0157600080fd5b50610f1c6004803603810190610f179190614c92565b612b07565b005b348015610f2a57600080fd5b50610f456004803603810190610f409190614d3c565b612c26565b604051610f529190614ce1565b60405180910390f35b348015610f6757600080fd5b50610f70612c3e565b604051610f7d9190614ce1565b60405180910390f35b348015610f9257600080fd5b50610f9b612c44565b005b348015610fa957600080fd5b50610fc46004803603810190610fbf9190614d3c565b612e07565b604051610fd19190615138565b60405180910390f35b348015610fe657600080fd5b506110016004803603810190610ffc9190614da1565b6130b6565b005b34801561100f57600080fd5b5061102a60048036038101906110259190614cfc565b6130db565b005b34801561103857600080fd5b50611053600480360381019061104e9190614d3c565b613434565b6040516110609190614ce1565b60405180910390f35b34801561107557600080fd5b50611090600480360381019061108b9190614d3c565b61344c565b60405161109d9190614ce1565b60405180910390f35b3480156110b257600080fd5b506110cd60048036038101906110c89190614cfc565b613464565b005b3480156110db57600080fd5b506110f660048036038101906110f19190614d3c565b6136fd565b005b34801561110457600080fd5b5061111f600480360381019061111a9190614cfc565b613783565b005b34801561112d57600080fd5b50611136613ade565b6040516111439190615499565b60405180910390f35b34801561115857600080fd5b50611161613b04565b60405161116e9190614ce1565b60405180910390f35b34801561118357600080fd5b5061119e60048036038101906111999190614d3c565b613b0a565b6040516111ab9190614ce1565b60405180910390f35b3480156111c057600080fd5b506111db60048036038101906111d691906154b4565b613d95565b005b6111e56140ee565b80601a60008473ffffffffffffffffffffffffffffffffffffffff1673ffffffffffffffffffffffffffffffffffffffff16815260200190815260200160002060008282546112349190615536565b925050819055508173ffffffffffffffffffffffffffffffffffffffff167f670624ed0a09e14166459d983969baa4fa27e42fd398b8c3834ba764cb797a69826040516112819190614ce1565b60405180910390a25050565b6000806000905060005b60038054905081101561130457600381815481106112b8576112b761556a565b5b906000526020600020906002020160000154826112d59190615536565b91508160055410156112f7576001816112ee9190615536565b92505050611326565b8080600101915050611297565b506001806003805490506113189190615599565b6113229190615536565b9150505b90565b6000600b838154811061133f5761133e61556a565b5b9060005260206000209060030201600101541161135b57600080fd5b80600c60003373ffffffffffffffffffffffffffffffffffffffff1673ffffffffffffffffffffffffffffffffffffffff16815260200190815260200160002060008481526020019081526020016000205410156113ee576040517f08c379a00000000000000000000000000000000000000000000000000000000081526004016113e590615619565b60405180910390fd5b600081116113fb57600080fd5b61140433614175565b600081600b848154811061141b5761141a61556a565b5b9060005260206000209060030201600101546114379190615639565b9050600082600b85815481106114505761144f61556a565b5b90600052602060002090600302016002015461146c9190615639565b90506000601154826010546114819190615639565b61148b91906156aa565b9050816011600082825461149f9190615599565b9250508190555080601060008282546114b89190615599565b9250508190555082600e60008282546114d19190615599565b925050819055506114e2338261418a565b83600c60003373ffffffffffffffffffffffffffffffffffffffff1673ffffffffffffffffffffffffffffffffffffffff168152602001908152602001600020600087815260200190815260200160002060008282546115429190615599565b9250508190555082601360003373ffffffffffffffffffffffffffffffffffffffff1673ffffffffffffffffffffffffffffffffffffffff16815260200190815260200160002060008282546115989190615599565b925050819055503373ffffffffffffffffffffffffffffffffffffffff167fd61e3ffe1439b0a822f5396cc4d56a3e6729bb2bbbeafc1031d55a509a3487f66001600088886040516115ed94939291906156db565b60405180910390a25050505050565b60115481565b60045481565b6000601a60008373ffffffffffffffffffffffffffffffffffffffff1673ffffffffffffffffffffffffffffffffffffffff168152602001908152602001600020546116538361434e565b61165d9190615536565b9050919050565b61166c6140ee565b6000601e60008373ffffffffffffffffffffffffffffffffffffffff1673ffffffffffffffffffffffffffffffffffffffff168152602001908152602001600020819055506000601d60008373ffffffffffffffffffffffffffffffffffffffff1673ffffffffffffffffffffffffffffffffffffffff1681526020019081526020016000208190555042601c60008373ffffffffffffffffffffffffffffffffffffffff1673ffffffffffffffffffffffffffffffffffffffff1681526020019081526020016000208190555050565b6117456140ee565b80600660006101000a81548160ff02191690831515021790555050565b6000602360003373ffffffffffffffffffffffffffffffffffffffff1673ffffffffffffffffffffffffffffffffffffffff16815260200190815260200160002054116117e4576040517f08c379a00000000000000000000000000000000000000000000000000000000081526004016117db9061576c565b60405180910390fd5b6000602360003373ffffffffffffffffffffffffffffffffffffffff1673ffffffffffffffffffffffffffffffffffffffff1681526020019081526020016000205490506000602360003373ffffffffffffffffffffffffffffffffffffffff1673ffffffffffffffffffffffffffffffffffffffff1681526020019081526020016000208190555080602560003373ffffffffffffffffffffffffffffffffffffffff1673ffffffffffffffffffffffffffffffffffffffff16815260200190815260200160002060008282546118bc9190615536565b925050819055506118cd338261418a565b6000602460003373ffffffffffffffffffffffffffffffffffffffff1673ffffffffffffffffffffffffffffffffffffffff1681526020019081526020016000205490506000602460003373ffffffffffffffffffffffffffffffffffffffff1673ffffffffffffffffffffffffffffffffffffffff1681526020019081526020016000208190555080602660003373ffffffffffffffffffffffffffffffffffffffff1673ffffffffffffffffffffffffffffffffffffffff16815260200190815260200160002060008282546119a59190615536565b925050819055503373ffffffffffffffffffffffffffffffffffffffff166108fc829081150290604051600060405180830381858888f193505050501580156119f2573d6000803e3d6000fd5b503373ffffffffffffffffffffffffffffffffffffffff167f454211b099b54298804b6b35092d2a4bcbf8e5ea525a50b79b542ba2d4bc6a248284604051611a3b929190615153565b60405180910390a25050565b602860009054906101000a900473ffffffffffffffffffffffffffffffffffffffff1681565b60105481565b611a7b6140ee565b60036000611a899190614b9f565b60005b8151811015611b345760036040518060400160405280848481518110611ab557611ab461556a565b5b6020026020010151600001518152602001848481518110611ad957611ad861556a565b5b6020026020010151602001518152509080600181540180825580915050600190039060005260206000209060020201600090919091909150600082015181600001556020820151816001015550508080600101915050611a8c565b5050565b60136020528060005260406000206000915090505481565b611b586140ee565b80602860006101000a81548173ffffffffffffffffffffffffffffffffffffffff021916908373ffffffffffffffffffffffffffffffffffffffff16021790555050565b600d5481565b600b8181548110611bb257600080fd5b9060005260206000209060030201600091509050806000018054611bd5906157bb565b80601f0160208091040260200160405190810160405280929190818152602001828054611c01906157bb565b8015611c4e5780601f10611c2357610100808354040283529160200191611c4e565b820191906000526020600020905b815481529060010190602001808311611c3157829003601f168201915b5050505050908060010154908060020154905083565b60236020528060005260406000206000915090505481565b60086020528060005260406000206000915090505481565b611c9c6140ee565b8060058190555050565b60145481565b601a6020528060005260406000206000915090505481565b601c6020528060005260406000206000915090505481565b601d6020528060005260406000206000915090505481565b602760009054906101000a900460ff1681565b600f5481565b601f6020528060005260406000206000915090505481565b611d2d6140ee565b80602760016101000a81548173ffffffffffffffffffffffffffffffffffffffff021916908373ffffffffffffffffffffffffffffffffffffffff16021790555050565b600160009054906101000a900473ffffffffffffffffffffffffffffffffffffffff1681565b611d9f6140ee565b611da7612790565b73ffffffffffffffffffffffffffffffffffffffff166108fc479081150290604051600060405180830381858888f19350505050158015611dec573d6000803e3d6000fd5b50565b60165481565b60126020528060005260406000206000915090505481565b611e156140ee565b611e1f60006144ad565b565b60038181548110611e3157600080fd5b90600052602060002090600202016000915090508060000154908060010154905082565b611e5d6140ee565b8015611ebc5782600b8581548110611e7857611e7761556a565b5b90600052602060002090600302016001018190555081600b8581548110611ea257611ea161556a565b5b906000526020600020906003020160020181905550611f11565b8260098581548110611ed157611ed061556a565b5b9060005260206000209060030201600101819055508160098581548110611efb57611efa61556a565b5b9060005260206000209060030201600201819055505b50505050565b60003411611f5a576040517f08c379a0000000000000000000000000000000000000000000000000000000008152600401611f5190615838565b60405180910390fd5b600660009054906101000a900460ff16158061200e5750602860009054906101000a900473ffffffffffffffffffffffffffffffffffffffff1673ffffffffffffffffffffffffffffffffffffffff16633af32abf336040518263ffffffff1660e01b8152600401611fcc919061540a565b602060405180830381865afa158015611fe9573d6000803e3d6000fd5b505050506040513d601f19601f8201168201806040525081019061200d919061586d565b5b61204d576040517f08c379a0000000000000000000000000000000000000000000000000000000008152600401612044906158e6565b60405180910390fd5b6004544211612091576040517f08c379a000000000000000000000000000000000000000000000000000000000815260040161208890615952565b60405180910390fd5b600061209c34614571565b9050600081116120e1576040517f08c379a00000000000000000000000000000000000000000000000000000000081526004016120d8906159be565b60405180910390fd5b600073ffffffffffffffffffffffffffffffffffffffff168273ffffffffffffffffffffffffffffffffffffffff1603612119573391505b600061212483612e07565b905081600560008282546121389190615536565b92505081905550600060023461214e91906156aa565b9050600080600084156122915760646022548761216b9190615639565b61217591906156aa565b9250600073ffffffffffffffffffffffffffffffffffffffff168773ffffffffffffffffffffffffffffffffffffffff16146121e4576064602154876121bb9190615639565b6121c591906156aa565b90506064602054346121d79190615639565b6121e191906156aa565b91505b81602460008973ffffffffffffffffffffffffffffffffffffffff1673ffffffffffffffffffffffffffffffffffffffff16815260200190815260200160002060008282546122339190615536565b9250508190555080602360008973ffffffffffffffffffffffffffffffffffffffff1673ffffffffffffffffffffffffffffffffffffffff16815260200190815260200160002060008282546122899190615536565b925050819055505b6000838761229f9190615536565b90506122ab338261418a565b3373ffffffffffffffffffffffffffffffffffffffff167f8fd7c1cf2b9cceb829553742c07a11ee82ed91a2e2d4791328461df6aa6e8a89888585886040516122f794939291906159de565b60405180910390a26000838661230d9190615536565b346123189190615599565b9050612322612790565b73ffffffffffffffffffffffffffffffffffffffff166108fc829081150290604051600060405180830381858888f19350505050158015612367573d6000803e3d6000fd5b5034601860003373ffffffffffffffffffffffffffffffffffffffff1673ffffffffffffffffffffffffffffffffffffffff16815260200190815260200160002060008282546123b79190615536565b925050819055506000601054600f546123d09190615536565b111561249f576000601054600f546123e89190615536565b600f54886123f69190615639565b61240091906156aa565b9050600081886124109190615599565b90506000600d54111561245757600d54670de0b6b3a7640000836124349190615639565b61243e91906156aa565b6014600082825461244f9190615536565b925050819055505b6000600e54111561249c57600e54670de0b6b3a7640000826124799190615639565b61248391906156aa565b601660008282546124949190615536565b925050819055505b50505b505050505050505050565b6124b26140ee565b8060048190555050565b6124c46140ee565b801561254157600b604051806060016040528086815260200185815260200184815250908060018154018082558091505060019003906000526020600020906003020160009091909190915060008201518160000190816125259190615bc5565b50602082015181600101556040820151816002015550506125b4565b60096040518060600160405280868152602001858152602001848152509080600181540180825580915050600190039060005260206000209060030201600090919091909150600082015181600001908161259c9190615bc5565b50602082015181600101556040820151816002015550505b50505050565b60606000600b8054905067ffffffffffffffff8111156125dd576125dc614e5e565b5b60405190808252806020026020018201604052801561260b5781602001602082028036833780820191505090505b50905060005b600b8054905081101561269b57600c60008573ffffffffffffffffffffffffffffffffffffffff1673ffffffffffffffffffffffffffffffffffffffff1681526020019081526020016000206000828152602001908152602001600020548282815181106126825761268161556a565b5b6020026020010181815250508080600101915050612611565b5080915050919050565b6060600060098054905067ffffffffffffffff8111156126c8576126c7614e5e565b5b6040519080825280602002602001820160405280156126f65781602001602082028036833780820191505090505b50905060005b60098054905081101561278657600a60008573ffffffffffffffffffffffffffffffffffffffff1673ffffffffffffffffffffffffffffffffffffffff16815260200190815260200160002060008281526020019081526020016000205482828151811061276d5761276c61556a565b5b60200260200101818152505080806001019150506126fc565b5080915050919050565b60008060009054906101000a900473ffffffffffffffffffffffffffffffffffffffff16905090565b600660009054906101000a900460ff1681565b60186020528060005260406000206000915090505481565b600c602052816000526040600020602052806000526040600020600091509150505481565b60055481565b6128176140ee565b80600160006101000a81548173ffffffffffffffffffffffffffffffffffffffff021916908373ffffffffffffffffffffffffffffffffffffffff16021790555050565b60156020528060005260406000206000915090505481565b60246020528060005260406000206000915090505481565b6009818154811061289b57600080fd5b90600052602060002090600302016000915090508060000180546128be906157bb565b80601f01602080910402602001604051908101604052809291908181526020018280546128ea906157bb565b80156129375780601f1061290c57610100808354040283529160200191612937565b820191906000526020600020905b81548152906001019060200180831161291a57829003601f168201915b5050505050908060010154908060020154905083565b60256020528060005260406000206000915090505481565b602760019054906101000a900473ffffffffffffffffffffffffffffffffffffffff1681565b60225481565b60176020528060005260406000206000915090505481565b6129b16140ee565b600083101580156129c3575060148311155b612a02576040517f08c379a00000000000000000000000000000000000000000000000000000000081526004016129f990615ce3565b60405180910390fd5b8260208190555060008210158015612a1b575060148211155b612a5a576040517f08c379a0000000000000000000000000000000000000000000000000000000008152600401612a5190615ce3565b60405180910390fd5b8160218190555060008110158015612a73575060148111155b612ab2576040517f08c379a0000000000000000000000000000000000000000000000000000000008152600401612aa990615ce3565b60405180910390fd5b80602281905550505050565b60075481565b600a602052816000526040600020602052806000526040600020600091509150505481565b601e6020528060005260406000206000915090505481565b600e5481565b612b0f6140ee565b600260009054906101000a900473ffffffffffffffffffffffffffffffffffffffff1673ffffffffffffffffffffffffffffffffffffffff166323b872dd612b55612790565b84670de0b6b3a764000085612b6a9190615639565b6040518463ffffffff1660e01b8152600401612b8893929190615d03565b6020604051808303816000875af1158015612ba7573d6000803e3d6000fd5b505050506040513d601f19601f82011682018060405250810190612bcb919061586d565b5080600860008473ffffffffffffffffffffffffffffffffffffffff1673ffffffffffffffffffffffffffffffffffffffff1681526020019081526020016000206000828254612c1b9190615536565b925050819055505050565b60266020528060005260406000206000915090505481565b60205481565b612c4d336146f6565b6000601a60003373ffffffffffffffffffffffffffffffffffffffff1673ffffffffffffffffffffffffffffffffffffffff16815260200190815260200160002054905060008111612cd4576040517f08c379a0000000000000000000000000000000000000000000000000000000008152600401612ccb90615d86565b60405180910390fd5b80601b60003373ffffffffffffffffffffffffffffffffffffffff1673ffffffffffffffffffffffffffffffffffffffff1681526020019081526020016000206000828254612d239190615536565b925050819055506000601a60003373ffffffffffffffffffffffffffffffffffffffff1673ffffffffffffffffffffffffffffffffffffffff168152602001908152602001600020819055503373ffffffffffffffffffffffffffffffffffffffff166108fc829081150290604051600060405180830381858888f19350505050158015612db5573d6000803e3d6000fd5b503373ffffffffffffffffffffffffffffffffffffffff167f7bcfb0598e7cd0b03e8472440b7e292b4767743ddeb0579a65be466b40c8b0f382604051612dfc9190614ce1565b60405180910390a250565b6000602760009054906101000a900460ff1615612f1c57600073ffffffffffffffffffffffffffffffffffffffff16602760019054906101000a900473ffffffffffffffffffffffffffffffffffffffff1673ffffffffffffffffffffffffffffffffffffffff1614158015612f155750602760019054906101000a900473ffffffffffffffffffffffffffffffffffffffff1673ffffffffffffffffffffffffffffffffffffffff16633af32abf836040518263ffffffff1660e01b8152600401612ed3919061540a565b602060405180830381865afa158015612ef0573d6000803e3d6000fd5b505050506040513d601f19601f82011682018060405250810190612f14919061586d565b5b90506130b1565b600073ffffffffffffffffffffffffffffffffffffffff16602860009054906101000a900473ffffffffffffffffffffffffffffffffffffffff1673ffffffffffffffffffffffffffffffffffffffff16141580156130135750602860009054906101000a900473ffffffffffffffffffffffffffffffffffffffff1673ffffffffffffffffffffffffffffffffffffffff16633af32abf836040518263ffffffff1660e01b8152600401612fd1919061540a565b602060405180830381865afa158015612fee573d6000803e3d6000fd5b505050506040513d601f19601f82011682018060405250810190613012919061586d565b5b806130ae57506000601f60008473ffffffffffffffffffffffffffffffffffffffff1673ffffffffffffffffffffffffffffffffffffffff168152602001908152602001600020541180156130ad575061306b61128d565b601f60008473ffffffffffffffffffffffffffffffffffffffff1673ffffffffffffffffffffffffffffffffffffffff16815260200190815260200160002054105b5b90505b919050565b6130be6140ee565b80602760006101000a81548160ff02191690831515021790555050565b6000600983815481106130f1576130f061556a565b5b90600052602060002090600302016001015411613143576040517f08c379a000000000000000000000000000000000000000000000000000000000815260040161313a90615df2565b60405180910390fd5b6000811161315057600080fd5b600081600984815481106131675761316661556a565b5b9060005260206000209060030201600201546131839190615639565b90506000826009858154811061319c5761319b61556a565b5b9060005260206000209060030201600101546131b89190615639565b90506131c333614175565b81600f60008282546131d59190615536565b9250508190555080600d60008282546131ee9190615536565b925050819055506131ff3383614841565b82600a60003373ffffffffffffffffffffffffffffffffffffffff1673ffffffffffffffffffffffffffffffffffffffff1681526020019081526020016000206000868152602001908152602001600020600082825461325f9190615536565b9250508190555080601260003373ffffffffffffffffffffffffffffffffffffffff1673ffffffffffffffffffffffffffffffffffffffff16815260200190815260200160002060008282546132b59190615536565b925050819055506000601560003373ffffffffffffffffffffffffffffffffffffffff1673ffffffffffffffffffffffffffffffffffffffff168152602001908152602001600020540361334a57601454601560003373ffffffffffffffffffffffffffffffffffffffff1673ffffffffffffffffffffffffffffffffffffffff168152602001908152602001600020819055505b6000601760003373ffffffffffffffffffffffffffffffffffffffff1673ffffffffffffffffffffffffffffffffffffffff16815260200190815260200160002054036133d857601654601760003373ffffffffffffffffffffffffffffffffffffffff1673ffffffffffffffffffffffffffffffffffffffff168152602001908152602001600020819055505b3373ffffffffffffffffffffffffffffffffffffffff167fd61e3ffe1439b0a822f5396cc4d56a3e6729bb2bbbeafc1031d55a509a3487f660006001878760405161342694939291906156db565b60405180910390a250505050565b60196020528060005260406000206000915090505481565b601b6020528060005260406000206000915090505481565b60006009838154811061347a5761347961556a565b5b9060005260206000209060030201600101541161349657600080fd5b80600a60003373ffffffffffffffffffffffffffffffffffffffff1673ffffffffffffffffffffffffffffffffffffffff1681526020019081526020016000206000848152602001908152602001600020541015613529576040517f08c379a000000000000000000000000000000000000000000000000000000000815260040161352090615e5e565b60405180910390fd5b6000811161353657600080fd5b6000816009848154811061354d5761354c61556a565b5b9060005260206000209060030201600201546135699190615639565b9050600082600985815481106135825761358161556a565b5b90600052602060002090600302016001015461359e9190615639565b90506135a933614175565b80600d60008282546135bb9190615599565b9250508190555081600f60008282546135d49190615599565b925050819055506135e5338361418a565b82600a60003373ffffffffffffffffffffffffffffffffffffffff1673ffffffffffffffffffffffffffffffffffffffff168152602001908152602001600020600086815260200190815260200160002060008282546136459190615599565b9250508190555080601260003373ffffffffffffffffffffffffffffffffffffffff1673ffffffffffffffffffffffffffffffffffffffff168152602001908152602001600020600082825461369b9190615599565b925050819055503373ffffffffffffffffffffffffffffffffffffffff167fd61e3ffe1439b0a822f5396cc4d56a3e6729bb2bbbeafc1031d55a509a3487f660008087876040516136ef94939291906156db565b60405180910390a250505050565b6137056140ee565b600073ffffffffffffffffffffffffffffffffffffffff168173ffffffffffffffffffffffffffffffffffffffff16036137775760006040517f1e4fbdf700000000000000000000000000000000000000000000000000000000815260040161376e919061540a565b60405180910390fd5b613780816144ad565b50565b6000600b83815481106137995761379861556a565b5b906000526020600020906003020160010154116137b557600080fd5b600081116137c257600080fd5b6137cb33614175565b600081600b84815481106137e2576137e161556a565b5b9060005260206000209060030201600101546137fe9190615639565b9050600082600b85815481106138175761381661556a565b5b9060005260206000209060030201600201546138339190615639565b90506000601154826010546138489190615639565b61385291906156aa565b905081601160008282546138669190615536565b92505081905550806010600082825461387f9190615536565b9250508190555082600e60008282546138989190615536565b925050819055506138a93382614841565b83600c60003373ffffffffffffffffffffffffffffffffffffffff1673ffffffffffffffffffffffffffffffffffffffff168152602001908152602001600020600087815260200190815260200160002060008282546139099190615536565b9250508190555082601360003373ffffffffffffffffffffffffffffffffffffffff1673ffffffffffffffffffffffffffffffffffffffff168152602001908152602001600020600082825461395f9190615536565b925050819055506000601560003373ffffffffffffffffffffffffffffffffffffffff1673ffffffffffffffffffffffffffffffffffffffff16815260200190815260200160002054036139f457601454601560003373ffffffffffffffffffffffffffffffffffffffff1673ffffffffffffffffffffffffffffffffffffffff168152602001908152602001600020819055505b6000601760003373ffffffffffffffffffffffffffffffffffffffff1673ffffffffffffffffffffffffffffffffffffffff1681526020019081526020016000205403613a8257601654601760003373ffffffffffffffffffffffffffffffffffffffff1673ffffffffffffffffffffffffffffffffffffffff168152602001908152602001600020819055505b3373ffffffffffffffffffffffffffffffffffffffff167fd61e3ffe1439b0a822f5396cc4d56a3e6729bb2bbbeafc1031d55a509a3487f66001808888604051613acf94939291906156db565b60405180910390a25050505050565b600260009054906101000a900473ffffffffffffffffffffffffffffffffffffffff1681565b60215481565b6000600160009054906101000a900473ffffffffffffffffffffffffffffffffffffffff1673ffffffffffffffffffffffffffffffffffffffff16633af32abf336040518263ffffffff1660e01b8152600401613b67919061540a565b602060405180830381865afa158015613b84573d6000803e3d6000fd5b505050506040513d601f19601f82011682018060405250810190613ba8919061586d565b80613be55750613bb6612790565b73ffffffffffffffffffffffffffffffffffffffff163373ffffffffffffffffffffffffffffffffffffffff16145b613c24576040517f08c379a0000000000000000000000000000000000000000000000000000000008152600401613c1b90615eca565b60405180910390fd5b613c2d826149da565b6000601e60008473ffffffffffffffffffffffffffffffffffffffff1673ffffffffffffffffffffffffffffffffffffffff16815260200190815260200160002054601d60008573ffffffffffffffffffffffffffffffffffffffff1673ffffffffffffffffffffffffffffffffffffffff16815260200190815260200160002054613cb99190615599565b9050601d60008473ffffffffffffffffffffffffffffffffffffffff1673ffffffffffffffffffffffffffffffffffffffff16815260200190815260200160002054601e60008573ffffffffffffffffffffffffffffffffffffffff1673ffffffffffffffffffffffffffffffffffffffff168152602001908152602001600020819055508273ffffffffffffffffffffffffffffffffffffffff167f1e6f5eaef61555b8bf4c1ef79dd15630c9612b652f0c442b66151f134650742c82604051613d849190614ce1565b60405180910390a280915050919050565b600160009054906101000a900473ffffffffffffffffffffffffffffffffffffffff1673ffffffffffffffffffffffffffffffffffffffff16633af32abf336040518263ffffffff1660e01b8152600401613df0919061540a565b602060405180830381865afa158015613e0d573d6000803e3d6000fd5b505050506040513d601f19601f82011682018060405250810190613e31919061586d565b80613e6e5750613e3f612790565b73ffffffffffffffffffffffffffffffffffffffff163373ffffffffffffffffffffffffffffffffffffffff16145b613ead576040517f08c379a0000000000000000000000000000000000000000000000000000000008152600401613ea490615eca565b60405180910390fd5b6000600b8381548110613ec357613ec261556a565b5b90600052602060002090600302016001015411613edf57600080fd5b60008111613eec57600080fd5b613ef583614175565b600081600b8481548110613f0c57613f0b61556a565b5b906000526020600020906003020160010154613f289190615639565b9050600082600b8581548110613f4157613f4061556a565b5b906000526020600020906003020160020154613f5d9190615639565b90508060116000828254613f719190615536565b9250508190555081600e6000828254613f8a9190615536565b9250508190555082600c60008773ffffffffffffffffffffffffffffffffffffffff1673ffffffffffffffffffffffffffffffffffffffff168152602001908152602001600020600086815260200190815260200160002054613fed9190615536565b600c60008773ffffffffffffffffffffffffffffffffffffffff1673ffffffffffffffffffffffffffffffffffffffff16815260200190815260200160002060008681526020019081526020016000208190555081601360008773ffffffffffffffffffffffffffffffffffffffff1673ffffffffffffffffffffffffffffffffffffffff16815260200190815260200160002060008282546140909190615536565b925050819055508473ffffffffffffffffffffffffffffffffffffffff167fd0f61fa028335eab19421ddb80993c322711a77715c7bd730eaf3f4415fb954b85856040516140df929190615153565b60405180910390a25050505050565b6140f6614b97565b73ffffffffffffffffffffffffffffffffffffffff16614114612790565b73ffffffffffffffffffffffffffffffffffffffff161461417357614137614b97565b6040517f118cdaa700000000000000000000000000000000000000000000000000000000815260040161416a919061540a565b60405180910390fd5b565b61417e816146f6565b614187816149da565b50565b6000601f60003373ffffffffffffffffffffffffffffffffffffffff1673ffffffffffffffffffffffffffffffffffffffff1681526020019081526020016000205403614237576001600760008282546141e49190615536565b925050819055506141f361128d565b601f60003373ffffffffffffffffffffffffffffffffffffffff1673ffffffffffffffffffffffffffffffffffffffff168152602001908152602001600020819055505b600260009054906101000a900473ffffffffffffffffffffffffffffffffffffffff1673ffffffffffffffffffffffffffffffffffffffff166323b872dd61427d612790565b84670de0b6b3a7640000856142929190615639565b6040518463ffffffff1660e01b81526004016142b093929190615d03565b6020604051808303816000875af11580156142cf573d6000803e3d6000fd5b505050506040513d601f19601f820116820180604052508101906142f3919061586d565b5080600860008473ffffffffffffffffffffffffffffffffffffffff1673ffffffffffffffffffffffffffffffffffffffff16815260200190815260200160002060008282546143439190615536565b925050819055505050565b600080601260008473ffffffffffffffffffffffffffffffffffffffff1673ffffffffffffffffffffffffffffffffffffffff16815260200190815260200160002054601560008573ffffffffffffffffffffffffffffffffffffffff1673ffffffffffffffffffffffffffffffffffffffff168152602001908152602001600020546014546143de9190615599565b6143e89190615639565b90506000601360008573ffffffffffffffffffffffffffffffffffffffff1673ffffffffffffffffffffffffffffffffffffffff16815260200190815260200160002054601760008673ffffffffffffffffffffffffffffffffffffffff1673ffffffffffffffffffffffffffffffffffffffff168152602001908152602001600020546016546144799190615599565b6144839190615639565b9050670de0b6b3a7640000818361449a9190615536565b6144a491906156aa565b92505050919050565b60008060009054906101000a900473ffffffffffffffffffffffffffffffffffffffff169050816000806101000a81548173ffffffffffffffffffffffffffffffffffffffff021916908373ffffffffffffffffffffffffffffffffffffffff1602179055508173ffffffffffffffffffffffffffffffffffffffff168173ffffffffffffffffffffffffffffffffffffffff167f8be0079c531659141344cd1fd0a4f28419497f9722a3daafe3b4186f6b6457e060405160405180910390a35050565b6000806000905060008390506000600554905060005b6003805490508110801561459b5750600083115b156146ea576000600382815481106145b6576145b561556a565b5b90600052602060002090600202016040518060400160405290816000820154815260200160018201548152505090506000805b83811161463657600381815481106146045761460361556a565b5b906000526020600020906002020160000154826146219190615536565b9150808061462e90615eea565b9150506145e9565b506000848211614647576000614654565b84826146539190615599565b5b905060008103614666575050506146d7565b60008360200151826146789190615639565b90508087106146b057818861468d9190615536565b9750808761469b9190615599565b965081866146a99190615536565b95506146d2565b8360200151876146c091906156aa565b886146cb9190615536565b9750600096505b505050505b80806146e290615eea565b915050614587565b50829350505050919050565b60006147018261434e565b9050600081111561483d5780601a60008473ffffffffffffffffffffffffffffffffffffffff1673ffffffffffffffffffffffffffffffffffffffff168152602001908152602001600020600082825461475b9190615536565b92505081905550601454601560008473ffffffffffffffffffffffffffffffffffffffff1673ffffffffffffffffffffffffffffffffffffffff16815260200190815260200160002081905550601654601760008473ffffffffffffffffffffffffffffffffffffffff1673ffffffffffffffffffffffffffffffffffffffff168152602001908152602001600020819055508173ffffffffffffffffffffffffffffffffffffffff167f670624ed0a09e14166459d983969baa4fa27e42fd398b8c3834ba764cb797a69826040516148349190614ce1565b60405180910390a25b5050565b600260009054906101000a900473ffffffffffffffffffffffffffffffffffffffff1673ffffffffffffffffffffffffffffffffffffffff166323b872dd83614888612790565b670de0b6b3a76400008561489c9190615639565b6040518463ffffffff1660e01b81526004016148ba93929190615d03565b6020604051808303816000875af11580156148d9573d6000803e3d6000fd5b505050506040513d601f19601f820116820180604052508101906148fd919061586d565b5080600860008473ffffffffffffffffffffffffffffffffffffffff1673ffffffffffffffffffffffffffffffffffffffff168152602001908152602001600020541015614980576040517f08c379a000000000000000000000000000000000000000000000000000000000815260040161497790615f7e565b60405180910390fd5b80600860008473ffffffffffffffffffffffffffffffffffffffff1673ffffffffffffffffffffffffffffffffffffffff16815260200190815260200160002060008282546149cf9190615599565b925050819055505050565b6000601c60008373ffffffffffffffffffffffffffffffffffffffff1673ffffffffffffffffffffffffffffffffffffffff1681526020019081526020016000205403614a665742601c60008373ffffffffffffffffffffffffffffffffffffffff1673ffffffffffffffffffffffffffffffffffffffff168152602001908152602001600020819055505b601c60008273ffffffffffffffffffffffffffffffffffffffff1673ffffffffffffffffffffffffffffffffffffffff1681526020019081526020016000205442614ab19190615599565b601360008373ffffffffffffffffffffffffffffffffffffffff1673ffffffffffffffffffffffffffffffffffffffff16815260200190815260200160002054614afb9190615639565b601d60008373ffffffffffffffffffffffffffffffffffffffff1673ffffffffffffffffffffffffffffffffffffffff1681526020019081526020016000206000828254614b499190615536565b9250508190555042601c60008373ffffffffffffffffffffffffffffffffffffffff1673ffffffffffffffffffffffffffffffffffffffff1681526020019081526020016000208190555050565b600033905090565b5080546000825560020290600052602060002090810190614bc09190614bc3565b50565b5b80821115614be657600080820160009055600182016000905550600201614bc4565b5090565b6000604051905090565b600080fd5b600080fd5b600073ffffffffffffffffffffffffffffffffffffffff82169050919050565b6000614c2982614bfe565b9050919050565b614c3981614c1e565b8114614c4457600080fd5b50565b600081359050614c5681614c30565b92915050565b6000819050919050565b614c6f81614c5c565b8114614c7a57600080fd5b50565b600081359050614c8c81614c66565b92915050565b60008060408385031215614ca957614ca8614bf4565b5b6000614cb785828601614c47565b9250506020614cc885828601614c7d565b9150509250929050565b614cdb81614c5c565b82525050565b6000602082019050614cf66000830184614cd2565b92915050565b60008060408385031215614d1357614d12614bf4565b5b6000614d2185828601614c7d565b9250506020614d3285828601614c7d565b9150509250929050565b600060208284031215614d5257614d51614bf4565b5b6000614d6084828501614c47565b91505092915050565b60008115159050919050565b614d7e81614d69565b8114614d8957600080fd5b50565b600081359050614d9b81614d75565b92915050565b600060208284031215614db757614db6614bf4565b5b6000614dc584828501614d8c565b91505092915050565b6000819050919050565b6000614df3614dee614de984614bfe565b614dce565b614bfe565b9050919050565b6000614e0582614dd8565b9050919050565b6000614e1782614dfa565b9050919050565b614e2781614e0c565b82525050565b6000602082019050614e426000830184614e1e565b92915050565b600080fd5b6000601f19601f8301169050919050565b7f4e487b7100000000000000000000000000000000000000000000000000000000600052604160045260246000fd5b614e9682614e4d565b810181811067ffffffffffffffff82111715614eb557614eb4614e5e565b5b80604052505050565b6000614ec8614bea565b9050614ed48282614e8d565b919050565b600067ffffffffffffffff821115614ef457614ef3614e5e565b5b602082029050602081019050919050565b600080fd5b600080fd5b600060408284031215614f2557614f24614f0a565b5b614f2f6040614ebe565b90506000614f3f84828501614c7d565b6000830152506020614f5384828501614c7d565b60208301525092915050565b6000614f72614f6d84614ed9565b614ebe565b90508083825260208201905060408402830185811115614f9557614f94614f05565b5b835b81811015614fbe5780614faa8882614f0f565b845260208401935050604081019050614f97565b5050509392505050565b600082601f830112614fdd57614fdc614e48565b5b8135614fed848260208601614f5f565b91505092915050565b60006020828403121561500c5761500b614bf4565b5b600082013567ffffffffffffffff81111561502a57615029614bf9565b5b61503684828501614fc8565b91505092915050565b60006020828403121561505557615054614bf4565b5b600061506384828501614c7d565b91505092915050565b600081519050919050565b600082825260208201905092915050565b60005b838110156150a657808201518184015260208101905061508b565b60008484015250505050565b60006150bd8261506c565b6150c78185615077565b93506150d7818560208601615088565b6150e081614e4d565b840191505092915050565b6000606082019050818103600083015261510581866150b2565b90506151146020830185614cd2565b6151216040830184614cd2565b949350505050565b61513281614d69565b82525050565b600060208201905061514d6000830184615129565b92915050565b60006040820190506151686000830185614cd2565b6151756020830184614cd2565b9392505050565b6000806000806080858703121561519657615195614bf4565b5b60006151a487828801614c7d565b94505060206151b587828801614c7d565b93505060406151c687828801614c7d565b92505060606151d787828801614d8c565b91505092959194509250565b600080fd5b600067ffffffffffffffff82111561520357615202614e5e565b5b61520c82614e4d565b9050602081019050919050565b82818337600083830152505050565b600061523b615236846151e8565b614ebe565b905082815260208101848484011115615257576152566151e3565b5b615262848285615219565b509392505050565b600082601f83011261527f5761527e614e48565b5b813561528f848260208601615228565b91505092915050565b600080600080608085870312156152b2576152b1614bf4565b5b600085013567ffffffffffffffff8111156152d0576152cf614bf9565b5b6152dc8782880161526a565b94505060206152ed87828801614c7d565b93505060406152fe87828801614c7d565b925050606061530f87828801614d8c565b91505092959194509250565b600081519050919050565b600082825260208201905092915050565b6000819050602082019050919050565b61535081614c5c565b82525050565b60006153628383615347565b60208301905092915050565b6000602082019050919050565b60006153868261531b565b6153908185615326565b935061539b83615337565b8060005b838110156153cc5781516153b38882615356565b97506153be8361536e565b92505060018101905061539f565b5085935050505092915050565b600060208201905081810360008301526153f3818461537b565b905092915050565b61540481614c1e565b82525050565b600060208201905061541f60008301846153fb565b92915050565b60008060006060848603121561543e5761543d614bf4565b5b600061544c86828701614c7d565b935050602061545d86828701614c7d565b925050604061546e86828701614c7d565b9150509250925092565b600061548382614dfa565b9050919050565b61549381615478565b82525050565b60006020820190506154ae600083018461548a565b92915050565b6000806000606084860312156154cd576154cc614bf4565b5b60006154db86828701614c47565b93505060206154ec86828701614c7d565b92505060406154fd86828701614c7d565b9150509250925092565b7f4e487b7100000000000000000000000000000000000000000000000000000000600052601160045260246000fd5b600061554182614c5c565b915061554c83614c5c565b925082820190508082111561556457615563615507565b5b92915050565b7f4e487b7100000000000000000000000000000000000000000000000000000000600052603260045260246000fd5b60006155a482614c5c565b91506155af83614c5c565b92508282039050818111156155c7576155c6615507565b5b92915050565b7f4e6f7420656e6f756768206372797374616c7300000000000000000000000000600082015250565b6000615603601383615077565b915061560e826155cd565b602082019050919050565b60006020820190508181036000830152615632816155f6565b9050919050565b600061564482614c5c565b915061564f83614c5c565b925082820261565d81614c5c565b9150828204841483151761567457615673615507565b5b5092915050565b7f4e487b7100000000000000000000000000000000000000000000000000000000600052601260045260246000fd5b60006156b582614c5c565b91506156c083614c5c565b9250826156d0576156cf61567b565b5b828204905092915050565b60006080820190506156f06000830187615129565b6156fd6020830186615129565b61570a6040830185614cd2565b6157176060830184614cd2565b95945050505050565b7f4e6f20626f6e7573000000000000000000000000000000000000000000000000600082015250565b6000615756600883615077565b915061576182615720565b602082019050919050565b6000602082019050818103600083015261578581615749565b9050919050565b7f4e487b7100000000000000000000000000000000000000000000000000000000600052602260045260246000fd5b600060028204905060018216806157d357607f821691505b6020821081036157e6576157e561578c565b5b50919050565b7f4d7573742073656e642043524f00000000000000000000000000000000000000600082015250565b6000615822600d83615077565b915061582d826157ec565b602082019050919050565b6000602082019050818103600083015261585181615815565b9050919050565b60008151905061586781614d75565b92915050565b60006020828403121561588357615882614bf4565b5b600061589184828501615858565b91505092915050565b7f4e6f74206f6e207468652077686974656c697374210000000000000000000000600082015250565b60006158d0601583615077565b91506158db8261589a565b602082019050919050565b600060208201905081810360008301526158ff816158c3565b9050919050565b7f53616c65206973206e6f74206f70656e21000000000000000000000000000000600082015250565b600061593c601183615077565b915061594782615906565b602082019050919050565b6000602082019050818103600083015261596b8161592f565b9050919050565b7f4e6f7420656e6f7567682043524f000000000000000000000000000000000000600082015250565b60006159a8600e83615077565b91506159b382615972565b602082019050919050565b600060208201905081810360008301526159d78161599b565b9050919050565b60006080820190506159f36000830187614cd2565b615a006020830186614cd2565b615a0d6040830185614cd2565b615a1a6060830184614cd2565b95945050505050565b60008190508160005260206000209050919050565b60006020601f8301049050919050565b600082821b905092915050565b600060088302615a857fffffffffffffffffffffffffffffffffffffffffffffffffffffffffffffffff82615a48565b615a8f8683615a48565b95508019841693508086168417925050509392505050565b6000615ac2615abd615ab884614c5c565b614dce565b614c5c565b9050919050565b6000819050919050565b615adc83615aa7565b615af0615ae882615ac9565b848454615a55565b825550505050565b600090565b615b05615af8565b615b10818484615ad3565b505050565b5b81811015615b3457615b29600082615afd565b600181019050615b16565b5050565b601f821115615b7957615b4a81615a23565b615b5384615a38565b81016020851015615b62578190505b615b76615b6e85615a38565b830182615b15565b50505b505050565b600082821c905092915050565b6000615b9c60001984600802615b7e565b1980831691505092915050565b6000615bb58383615b8b565b9150826002028217905092915050565b615bce8261506c565b67ffffffffffffffff811115615be757615be6614e5e565b5b615bf182546157bb565b615bfc828285615b38565b600060209050601f831160018114615c2f5760008415615c1d578287015190505b615c278582615ba9565b865550615c8f565b601f198416615c3d86615a23565b60005b82811015615c6557848901518255600182019150602085019450602081019050615c40565b86831015615c825784890151615c7e601f891682615b8b565b8355505b6001600288020188555050505b505050505050565b7f56616c7565206d757374206265206265747765656e203020616e642032300000600082015250565b6000615ccd601e83615077565b9150615cd882615c97565b602082019050919050565b60006020820190508181036000830152615cfc81615cc0565b9050919050565b6000606082019050615d1860008301866153fb565b615d2560208301856153fb565b615d326040830184614cd2565b949350505050565b7f4e6f2043524f206f776564000000000000000000000000000000000000000000600082015250565b6000615d70600b83615077565b9150615d7b82615d3a565b602082019050919050565b60006020820190508181036000830152615d9f81615d63565b9050919050565b7f47656d207479706520646f6573206e6f74206578697374000000000000000000600082015250565b6000615ddc601783615077565b9150615de782615da6565b602082019050919050565b60006020820190508181036000830152615e0b81615dcf565b9050919050565b7f4e6f7420656e6f7567682067656d7320746f2073656c6c000000000000000000600082015250565b6000615e48601783615077565b9150615e5382615e12565b602082019050919050565b60006020820190508181036000830152615e7781615e3b565b9050919050565b7f43616c6c6572206973206e6f7420616e2061646d696e00000000000000000000600082015250565b6000615eb4601683615077565b9150615ebf82615e7e565b602082019050919050565b60006020820190508181036000830152615ee381615ea7565b9050919050565b6000615ef582614c5c565b91507fffffffffffffffffffffffffffffffffffffffffffffffffffffffffffffffff8203615f2757615f26615507565b5b600182019050919050565b7f4e6f7420656e6f756768207370656e6461626c6520746f6b656e2e0000000000600082015250565b6000615f68601b83615077565b9150615f7382615f32565b602082019050919050565b60006020820190508181036000830152615f9781615f5b565b905091905056fea2646970667358221220ca84e552cb7217f82515fea923e01f29e72debf8a2fe0d33f0b681200583692864736f6c634300081b0033",
  "linkReferences": {},
  "deployedLinkReferences": {}
}