{
  "_format": "hh-sol-artifact-1",
  "contractName": "InterludePlatform",
  "sourceName": "contracts/InterludePlatform.sol",
  "abi": [
    {
      "inputs": [
        {
          "internalType": "address payable",
          "name": "_ownerWallet",
          "type": "address"
        },
        {
          "internalType": "address",
          "name": "tokenAddress",
          "type": "address"
        }
      ],
      "stateMutability": "nonpayable",
      "type": "constructor"
    },
    {
      "inputs": [
        {
          "internalType": "address",
          "name": "owner",
          "type": "address"
        }
      ],
      "name": "OwnableInvalidOwner",
      "type": "error"
    },
    {
      "inputs": [
        {
          "internalType": "address",
          "name": "account",
          "type": "address"
        }
      ],
      "name": "OwnableUnauthorizedAccount",
      "type": "error"
    },
    {
      "anonymous": false,
      "inputs": [
        {
          "indexed": true,
          "internalType": "address",
          "name": "owner",
          "type": "address"
        },
        {
          "indexed": false,
          "internalType": "uint256",
          "name": "amount",
          "type": "uint256"
        }
      ],
      "name": "EarningsClaim",
      "type": "event"
    },
    {
      "anonymous": false,
      "inputs": [
        {
          "indexed": true,
          "internalType": "address",
          "name": "owner",
          "type": "address"
        },
        {
          "indexed": false,
          "internalType": "uint256",
          "name": "energyAmount",
          "type": "uint256"
        }
      ],
      "name": "EnergyCollected",
      "type": "event"
    },
    {
      "anonymous": false,
      "inputs": [
        {
          "indexed": true,
          "internalType": "address",
          "name": "previousOwner",
          "type": "address"
        },
        {
          "indexed": true,
          "internalType": "address",
          "name": "newOwner",
          "type": "address"
        }
      ],
      "name": "OwnershipTransferred",
      "type": "event"
    },
    {
      "anonymous": false,
      "inputs": [
        {
          "indexed": true,
          "internalType": "address",
          "name": "owner",
          "type": "address"
        },
        {
          "indexed": false,
          "internalType": "uint256",
          "name": "croAmount",
          "type": "uint256"
        },
        {
          "indexed": false,
          "internalType": "uint256",
          "name": "intAmount",
          "type": "uint256"
        }
      ],
      "name": "ReferralBonusClaim",
      "type": "event"
    },
    {
      "anonymous": false,
      "inputs": [
        {
          "indexed": true,
          "internalType": "address",
          "name": "from",
          "type": "address"
        },
        {
          "indexed": true,
          "internalType": "address",
          "name": "to",
          "type": "address"
        },
        {
          "indexed": false,
          "internalType": "uint256",
          "name": "value",
          "type": "uint256"
        },
        {
          "indexed": false,
          "internalType": "uint256",
          "name": "referrerCroBonus",
          "type": "uint256"
        },
        {
          "indexed": false,
          "internalType": "uint256",
          "name": "referrerIntBonus",
          "type": "uint256"
        },
        {
          "indexed": false,
          "internalType": "uint256",
          "name": "referredIntBonus",
          "type": "uint256"
        }
      ],
      "name": "TokenPurchase",
      "type": "event"
    },
    {
      "inputs": [],
      "name": "accumulatedCro",
      "outputs": [
        {
          "internalType": "uint256",
          "name": "",
          "type": "uint256"
        }
      ],
      "stateMutability": "view",
      "type": "function"
    },
    {
      "inputs": [
        {
          "internalType": "string",
          "name": "assetName",
          "type": "string"
        },
        {
          "internalType": "uint256",
          "name": "power",
          "type": "uint256"
        },
        {
          "internalType": "uint256",
          "name": "unscaledPrice",
          "type": "uint256"
        },
        {
          "internalType": "bool",
          "name": "isCrystal",
          "type": "bool"
        }
      ],
      "name": "addAsset",
      "outputs": [],
      "stateMutability": "nonpayable",
      "type": "function"
    },
    {
      "inputs": [],
      "name": "adminWhitelist",
      "outputs": [
        {
          "internalType": "contract IWhitelist",
          "name": "",
          "type": "address"
        }
      ],
      "stateMutability": "view",
      "type": "function"
    },
    {
      "inputs": [
        {
          "internalType": "uint256",
          "name": "",
          "type": "uint256"
        }
      ],
      "name": "allUsers",
      "outputs": [
        {
          "internalType": "address",
          "name": "",
          "type": "address"
        }
      ],
      "stateMutability": "view",
      "type": "function"
    },
    {
      "inputs": [
        {
          "internalType": "uint256",
          "name": "crystalType",
          "type": "uint256"
        },
        {
          "internalType": "uint256",
          "name": "amount",
          "type": "uint256"
        }
      ],
      "name": "buyCrystal",
      "outputs": [],
      "stateMutability": "nonpayable",
      "type": "function"
    },
    {
      "inputs": [
        {
          "internalType": "uint256",
          "name": "gemType",
          "type": "uint256"
        },
        {
          "internalType": "uint256",
          "name": "amount",
          "type": "uint256"
        }
      ],
      "name": "buyGem",
      "outputs": [],
      "stateMutability": "nonpayable",
      "type": "function"
    },
    {
      "inputs": [
        {
          "internalType": "address",
          "name": "referralAddress",
          "type": "address"
        }
      ],
      "name": "buyToken",
      "outputs": [],
      "stateMutability": "payable",
      "type": "function"
    },
    {
      "inputs": [
        {
          "internalType": "address",
          "name": "user",
          "type": "address"
        }
      ],
      "name": "calculateUserEarnings",
      "outputs": [
        {
          "internalType": "uint256",
          "name": "",
          "type": "uint256"
        }
      ],
      "stateMutability": "view",
      "type": "function"
    },
    {
      "inputs": [],
      "name": "claimEarnings",
      "outputs": [],
      "stateMutability": "nonpayable",
      "type": "function"
    },
    {
      "inputs": [],
      "name": "claimReferralBonus",
      "outputs": [],
      "stateMutability": "nonpayable",
      "type": "function"
    },
    {
      "inputs": [
        {
          "internalType": "address",
          "name": "user",
          "type": "address"
        }
      ],
      "name": "collectEnergy",
      "outputs": [
        {
          "internalType": "uint256",
          "name": "",
          "type": "uint256"
        }
      ],
      "stateMutability": "nonpayable",
      "type": "function"
    },
    {
      "inputs": [
        {
          "internalType": "address",
          "name": "",
          "type": "address"
        }
      ],
      "name": "collectedEnergy",
      "outputs": [
        {
          "internalType": "uint256",
          "name": "",
          "type": "uint256"
        }
      ],
      "stateMutability": "view",
      "type": "function"
    },
    {
      "inputs": [],
      "name": "crystalBonusPercentage",
      "outputs": [
        {
          "internalType": "uint256",
          "name": "",
          "type": "uint256"
        }
      ],
      "stateMutability": "view",
      "type": "function"
    },
    {
      "inputs": [
        {
          "internalType": "uint256",
          "name": "",
          "type": "uint256"
        }
      ],
      "name": "crystals",
      "outputs": [
        {
          "internalType": "string",
          "name": "name",
          "type": "string"
        },
        {
          "internalType": "uint256",
          "name": "power",
          "type": "uint256"
        },
        {
          "internalType": "uint256",
          "name": "unscaledPrice",
          "type": "uint256"
        }
      ],
      "stateMutability": "view",
      "type": "function"
    },
    {
      "inputs": [
        {
          "internalType": "address",
          "name": "",
          "type": "address"
        }
      ],
      "name": "currentCrystalPower",
      "outputs": [
        {
          "internalType": "uint256",
          "name": "",
          "type": "uint256"
        }
      ],
      "stateMutability": "view",
      "type": "function"
    },
    {
      "inputs": [
        {
          "internalType": "address",
          "name": "",
          "type": "address"
        }
      ],
      "name": "currentGemPower",
      "outputs": [
        {
          "internalType": "uint256",
          "name": "",
          "type": "uint256"
        }
      ],
      "stateMutability": "view",
      "type": "function"
    },
    {
      "inputs": [],
      "name": "currentPhase",
      "outputs": [
        {
          "internalType": "uint256",
          "name": "",
          "type": "uint256"
        }
      ],
      "stateMutability": "view",
      "type": "function"
    },
    {
      "inputs": [],
      "name": "distributionInProgress",
      "outputs": [
        {
          "internalType": "bool",
          "name": "",
          "type": "bool"
        }
      ],
      "stateMutability": "view",
      "type": "function"
    },
    {
      "inputs": [
        {
          "internalType": "address",
          "name": "user",
          "type": "address"
        }
      ],
      "name": "eligibleForReferral",
      "outputs": [
        {
          "internalType": "bool",
          "name": "",
          "type": "bool"
        }
      ],
      "stateMutability": "view",
      "type": "function"
    },
    {
      "inputs": [
        {
          "internalType": "address",
          "name": "",
          "type": "address"
        }
      ],
      "name": "firstPurchasePhase",
      "outputs": [
        {
          "internalType": "uint256",
          "name": "",
          "type": "uint256"
        }
      ],
      "stateMutability": "view",
      "type": "function"
    },
    {
      "inputs": [],
      "name": "flush",
      "outputs": [],
      "stateMutability": "nonpayable",
      "type": "function"
    },
    {
      "inputs": [
        {
          "internalType": "uint256",
          "name": "",
          "type": "uint256"
        }
      ],
      "name": "gems",
      "outputs": [
        {
          "internalType": "string",
          "name": "name",
          "type": "string"
        },
        {
          "internalType": "uint256",
          "name": "power",
          "type": "uint256"
        },
        {
          "internalType": "uint256",
          "name": "unscaledPrice",
          "type": "uint256"
        }
      ],
      "stateMutability": "view",
      "type": "function"
    },
    {
      "inputs": [],
      "name": "generalWhitelist",
      "outputs": [
        {
          "internalType": "contract IWhitelist",
          "name": "",
          "type": "address"
        }
      ],
      "stateMutability": "view",
      "type": "function"
    },
    {
      "inputs": [
        {
          "internalType": "address",
          "name": "",
          "type": "address"
        }
      ],
      "name": "generatedEnergy",
      "outputs": [
        {
          "internalType": "uint256",
          "name": "",
          "type": "uint256"
        }
      ],
      "stateMutability": "view",
      "type": "function"
    },
    {
      "inputs": [
        {
          "internalType": "address",
          "name": "user",
          "type": "address"
        }
      ],
      "name": "getCrystals",
      "outputs": [
        {
          "internalType": "uint256[]",
          "name": "",
          "type": "uint256[]"
        }
      ],
      "stateMutability": "view",
      "type": "function"
    },
    {
      "inputs": [
        {
          "internalType": "address",
          "name": "user",
          "type": "address"
        }
      ],
      "name": "getGems",
      "outputs": [
        {
          "internalType": "uint256[]",
          "name": "",
          "type": "uint256[]"
        }
      ],
      "stateMutability": "view",
      "type": "function"
    },
    {
      "inputs": [
        {
          "internalType": "address",
          "name": "user",
          "type": "address"
        },
        {
          "internalType": "uint256",
          "name": "amount",
          "type": "uint256"
        }
      ],
      "name": "giveTokenTo",
      "outputs": [],
      "stateMutability": "nonpayable",
      "type": "function"
    },
    {
      "inputs": [],
      "name": "initializeUsersEarningsUpdate",
      "outputs": [],
      "stateMutability": "nonpayable",
      "type": "function"
    },
    {
      "inputs": [
        {
          "internalType": "address",
          "name": "",
          "type": "address"
        }
      ],
      "name": "investmentAllowance",
      "outputs": [
        {
          "internalType": "uint256",
          "name": "",
          "type": "uint256"
        }
      ],
      "stateMutability": "view",
      "type": "function"
    },
    {
      "inputs": [
        {
          "internalType": "address",
          "name": "",
          "type": "address"
        }
      ],
      "name": "lastTimeEnergyComputed",
      "outputs": [
        {
          "internalType": "uint256",
          "name": "",
          "type": "uint256"
        }
      ],
      "stateMutability": "view",
      "type": "function"
    },
    {
      "inputs": [
        {
          "internalType": "address",
          "name": "user",
          "type": "address"
        },
        {
          "internalType": "uint256",
          "name": "crystalType",
          "type": "uint256"
        },
        {
          "internalType": "uint256",
          "name": "amount",
          "type": "uint256"
        }
      ],
      "name": "mintCrystal",
      "outputs": [],
      "stateMutability": "nonpayable",
      "type": "function"
    },
    {
      "inputs": [],
      "name": "nbUserUpdated",
      "outputs": [
        {
          "internalType": "uint256",
          "name": "",
          "type": "uint256"
        }
      ],
      "stateMutability": "view",
      "type": "function"
    },
    {
      "inputs": [],
      "name": "onlyAllowWhitelisted",
      "outputs": [
        {
          "internalType": "bool",
          "name": "",
          "type": "bool"
        }
      ],
      "stateMutability": "view",
      "type": "function"
    },
    {
      "inputs": [],
      "name": "owner",
      "outputs": [
        {
          "internalType": "address",
          "name": "",
          "type": "address"
        }
      ],
      "stateMutability": "view",
      "type": "function"
    },
    {
      "inputs": [],
      "name": "ownerWallet",
      "outputs": [
        {
          "internalType": "address payable",
          "name": "",
          "type": "address"
        }
      ],
      "stateMutability": "view",
      "type": "function"
    },
    {
      "inputs": [],
      "name": "partnersWhitelist",
      "outputs": [
        {
          "internalType": "contract IWhitelist",
          "name": "",
          "type": "address"
        }
      ],
      "stateMutability": "view",
      "type": "function"
    },
    {
      "inputs": [],
      "name": "referredIntBonusPercentage",
      "outputs": [
        {
          "internalType": "uint256",
          "name": "",
          "type": "uint256"
        }
      ],
      "stateMutability": "view",
      "type": "function"
    },
    {
      "inputs": [],
      "name": "referrerCroBonusPercentage",
      "outputs": [
        {
          "internalType": "uint256",
          "name": "",
          "type": "uint256"
        }
      ],
      "stateMutability": "view",
      "type": "function"
    },
    {
      "inputs": [],
      "name": "referrerIntBonusPercentage",
      "outputs": [
        {
          "internalType": "uint256",
          "name": "",
          "type": "uint256"
        }
      ],
      "stateMutability": "view",
      "type": "function"
    },
    {
      "inputs": [],
      "name": "renounceOwnership",
      "outputs": [],
      "stateMutability": "nonpayable",
      "type": "function"
    },
    {
      "inputs": [
        {
          "internalType": "bool",
          "name": "_restricted",
          "type": "bool"
        }
      ],
      "name": "restrictReferralProgram",
      "outputs": [],
      "stateMutability": "nonpayable",
      "type": "function"
    },
    {
      "inputs": [],
      "name": "restrictReferralProgramToPartners",
      "outputs": [
        {
          "internalType": "bool",
          "name": "",
          "type": "bool"
        }
      ],
      "stateMutability": "view",
      "type": "function"
    },
    {
      "inputs": [
        {
          "internalType": "uint256",
          "name": "crystalType",
          "type": "uint256"
        },
        {
          "internalType": "uint256",
          "name": "amount",
          "type": "uint256"
        }
      ],
      "name": "sellCrystal",
      "outputs": [],
      "stateMutability": "nonpayable",
      "type": "function"
    },
    {
      "inputs": [
        {
          "internalType": "uint256",
          "name": "gemType",
          "type": "uint256"
        },
        {
          "internalType": "uint256",
          "name": "amount",
          "type": "uint256"
        }
      ],
      "name": "sellGem",
      "outputs": [],
      "stateMutability": "nonpayable",
      "type": "function"
    },
    {
      "inputs": [
        {
          "internalType": "address",
          "name": "_adminWhitelist",
          "type": "address"
        }
      ],
      "name": "setAdminWhitelist",
      "outputs": [],
      "stateMutability": "nonpayable",
      "type": "function"
    },
    {
      "inputs": [
        {
          "internalType": "uint256",
          "name": "_crystalBonusPercentage",
          "type": "uint256"
        }
      ],
      "name": "setCrystalBonusPercentage",
      "outputs": [],
      "stateMutability": "nonpayable",
      "type": "function"
    },
    {
      "inputs": [
        {
          "internalType": "address",
          "name": "_generalWhitelist",
          "type": "address"
        }
      ],
      "name": "setGeneralWhitelist",
      "outputs": [],
      "stateMutability": "nonpayable",
      "type": "function"
    },
    {
      "inputs": [
        {
          "internalType": "bool",
          "name": "_onlyAllowWhitelisted",
          "type": "bool"
        }
      ],
      "name": "setOnlyWhitelist",
      "outputs": [],
      "stateMutability": "nonpayable",
      "type": "function"
    },
    {
      "inputs": [
        {
          "internalType": "address",
          "name": "_partnersWhitelist",
          "type": "address"
        }
      ],
      "name": "setPartnersWhitelist",
      "outputs": [],
      "stateMutability": "nonpayable",
      "type": "function"
    },
    {
      "inputs": [
        {
          "internalType": "uint256",
          "name": "_referrerCroBonusPercentage",
          "type": "uint256"
        },
        {
          "internalType": "uint256",
          "name": "_referrerIntBonusPercentage",
          "type": "uint256"
        },
        {
          "internalType": "uint256",
          "name": "_referredIntBonusPercentage",
          "type": "uint256"
        }
      ],
      "name": "setReferralBonusesPercentages",
      "outputs": [],
      "stateMutability": "nonpayable",
      "type": "function"
    },
    {
      "inputs": [
        {
          "internalType": "uint256",
          "name": "_startDate",
          "type": "uint256"
        }
      ],
      "name": "setStartDate",
      "outputs": [],
      "stateMutability": "nonpayable",
      "type": "function"
    },
    {
      "inputs": [
        {
          "components": [
            {
              "internalType": "uint256",
              "name": "size",
              "type": "uint256"
            },
            {
              "internalType": "uint256",
              "name": "price",
              "type": "uint256"
            }
          ],
          "internalType": "struct InterludePlatform.Step[]",
          "name": "_steps",
          "type": "tuple[]"
        }
      ],
      "name": "setSteps",
      "outputs": [],
      "stateMutability": "nonpayable",
      "type": "function"
    },
    {
      "inputs": [
        {
          "internalType": "address",
          "name": "user",
          "type": "address"
        },
        {
          "internalType": "uint256",
          "name": "amountInCro",
          "type": "uint256"
        }
      ],
      "name": "setUserAllowance",
      "outputs": [],
      "stateMutability": "nonpayable",
      "type": "function"
    },
    {
      "inputs": [
        {
          "internalType": "address",
          "name": "",
          "type": "address"
        }
      ],
      "name": "spendableTokens",
      "outputs": [
        {
          "internalType": "uint256",
          "name": "",
          "type": "uint256"
        }
      ],
      "stateMutability": "view",
      "type": "function"
    },
    {
      "inputs": [],
      "name": "startDate",
      "outputs": [
        {
          "internalType": "uint256",
          "name": "",
          "type": "uint256"
        }
      ],
      "stateMutability": "view",
      "type": "function"
    },
    {
      "inputs": [
        {
          "internalType": "uint256",
          "name": "",
          "type": "uint256"
        }
      ],
      "name": "steps",
      "outputs": [
        {
          "internalType": "uint256",
          "name": "size",
          "type": "uint256"
        },
        {
          "internalType": "uint256",
          "name": "price",
          "type": "uint256"
        }
      ],
      "stateMutability": "view",
      "type": "function"
    },
    {
      "inputs": [],
      "name": "token",
      "outputs": [
        {
          "internalType": "contract MyPausableToken",
          "name": "",
          "type": "address"
        }
      ],
      "stateMutability": "view",
      "type": "function"
    },
    {
      "inputs": [
        {
          "internalType": "address",
          "name": "",
          "type": "address"
        }
      ],
      "name": "totalClaimed",
      "outputs": [
        {
          "internalType": "uint256",
          "name": "",
          "type": "uint256"
        }
      ],
      "stateMutability": "view",
      "type": "function"
    },
    {
      "inputs": [
        {
          "internalType": "address",
          "name": "",
          "type": "address"
        }
      ],
      "name": "totalClaimedCroReferralBonus",
      "outputs": [
        {
          "internalType": "uint256",
          "name": "",
          "type": "uint256"
        }
      ],
      "stateMutability": "view",
      "type": "function"
    },
    {
      "inputs": [
        {
          "internalType": "address",
          "name": "",
          "type": "address"
        }
      ],
      "name": "totalClaimedIntReferralBonus",
      "outputs": [
        {
          "internalType": "uint256",
          "name": "",
          "type": "uint256"
        }
      ],
      "stateMutability": "view",
      "type": "function"
    },
    {
      "inputs": [],
      "name": "totalCroToDistribute",
      "outputs": [
        {
          "internalType": "uint256",
          "name": "",
          "type": "uint256"
        }
      ],
      "stateMutability": "view",
      "type": "function"
    },
    {
      "inputs": [],
      "name": "totalCrystalPower",
      "outputs": [
        {
          "internalType": "uint256",
          "name": "",
          "type": "uint256"
        }
      ],
      "stateMutability": "view",
      "type": "function"
    },
    {
      "inputs": [],
      "name": "totalGemPower",
      "outputs": [
        {
          "internalType": "uint256",
          "name": "",
          "type": "uint256"
        }
      ],
      "stateMutability": "view",
      "type": "function"
    },
    {
      "inputs": [],
      "name": "totalIntInCrystals",
      "outputs": [
        {
          "internalType": "uint256",
          "name": "",
          "type": "uint256"
        }
      ],
      "stateMutability": "view",
      "type": "function"
    },
    {
      "inputs": [],
      "name": "totalIntInGems",
      "outputs": [
        {
          "internalType": "uint256",
          "name": "",
          "type": "uint256"
        }
      ],
      "stateMutability": "view",
      "type": "function"
    },
    {
      "inputs": [
        {
          "internalType": "address",
          "name": "",
          "type": "address"
        }
      ],
      "name": "totalInvested",
      "outputs": [
        {
          "internalType": "uint256",
          "name": "",
          "type": "uint256"
        }
      ],
      "stateMutability": "view",
      "type": "function"
    },
    {
      "inputs": [],
      "name": "totalPriceUnitsInCrystals",
      "outputs": [
        {
          "internalType": "uint256",
          "name": "",
          "type": "uint256"
        }
      ],
      "stateMutability": "view",
      "type": "function"
    },
    {
      "inputs": [],
      "name": "totalSold",
      "outputs": [
        {
          "internalType": "uint256",
          "name": "",
          "type": "uint256"
        }
      ],
      "stateMutability": "view",
      "type": "function"
    },
    {
      "inputs": [
        {
          "internalType": "address",
          "name": "newOwner",
          "type": "address"
        }
      ],
      "name": "transferOwnership",
      "outputs": [],
      "stateMutability": "nonpayable",
      "type": "function"
    },
    {
      "inputs": [
        {
          "internalType": "address",
          "name": "",
          "type": "address"
        }
      ],
      "name": "unclaimedCroReferralBonus",
      "outputs": [
        {
          "internalType": "uint256",
          "name": "",
          "type": "uint256"
        }
      ],
      "stateMutability": "view",
      "type": "function"
    },
    {
      "inputs": [
        {
          "internalType": "address",
          "name": "",
          "type": "address"
        }
      ],
      "name": "unclaimedEarnings",
      "outputs": [
        {
          "internalType": "uint256",
          "name": "",
          "type": "uint256"
        }
      ],
      "stateMutability": "view",
      "type": "function"
    },
    {
      "inputs": [
        {
          "internalType": "address",
          "name": "",
          "type": "address"
        }
      ],
      "name": "unclaimedIntReferralBonus",
      "outputs": [
        {
          "internalType": "uint256",
          "name": "",
          "type": "uint256"
        }
      ],
      "stateMutability": "view",
      "type": "function"
    },
    {
      "inputs": [],
      "name": "updateAllUsersEarnings",
      "outputs": [],
      "stateMutability": "nonpayable",
      "type": "function"
    },
    {
      "inputs": [
        {
          "internalType": "uint256",
          "name": "index",
          "type": "uint256"
        },
        {
          "internalType": "uint256",
          "name": "_power",
          "type": "uint256"
        },
        {
          "internalType": "uint256",
          "name": "_unscaledPrice",
          "type": "uint256"
        },
        {
          "internalType": "bool",
          "name": "isCrystal",
          "type": "bool"
        }
      ],
      "name": "updateAsset",
      "outputs": [],
      "stateMutability": "nonpayable",
      "type": "function"
    },
    {
      "inputs": [],
      "name": "updateBatchSize",
      "outputs": [
        {
          "internalType": "uint256",
          "name": "",
          "type": "uint256"
        }
      ],
      "stateMutability": "view",
      "type": "function"
    },
    {
      "inputs": [
        {
          "internalType": "address",
          "name": "",
          "type": "address"
        },
        {
          "internalType": "uint256",
          "name": "",
          "type": "uint256"
        }
      ],
      "name": "userCrystals",
      "outputs": [
        {
          "internalType": "uint256",
          "name": "",
          "type": "uint256"
        }
      ],
      "stateMutability": "view",
      "type": "function"
    },
    {
      "inputs": [
        {
          "internalType": "address",
          "name": "",
          "type": "address"
        },
        {
          "internalType": "uint256",
          "name": "",
          "type": "uint256"
        }
      ],
      "name": "userGems",
      "outputs": [
        {
          "internalType": "uint256",
          "name": "",
          "type": "uint256"
        }
      ],
      "stateMutability": "view",
      "type": "function"
    },
    {
      "stateMutability": "payable",
      "type": "receive"
    }
  ],
  "bytecode": "0x60806040526000600e556001600f5560016010556001601155600160125560016013556000601455600a601f55600a602055600f6021556000602660006101000a81548160ff0219169083151502179055506000602760146101000a81548160ff021916908315150217905550600060285534801561007d57600080fd5b50604051616202380380616202833981810160405281019061009f9190610310565b81600073ffffffffffffffffffffffffffffffffffffffff168173ffffffffffffffffffffffffffffffffffffffff16036101125760006040517f1e4fbdf7000000000000000000000000000000000000000000000000000000008152600401610109919061035f565b60405180910390fd5b610121816101ab60201b60201c565b5081600160006101000a81548173ffffffffffffffffffffffffffffffffffffffff021916908373ffffffffffffffffffffffffffffffffffffffff16021790555080600360006101000a81548173ffffffffffffffffffffffffffffffffffffffff021916908373ffffffffffffffffffffffffffffffffffffffff160217905550505061037a565b60008060009054906101000a900473ffffffffffffffffffffffffffffffffffffffff169050816000806101000a81548173ffffffffffffffffffffffffffffffffffffffff021916908373ffffffffffffffffffffffffffffffffffffffff1602179055508173ffffffffffffffffffffffffffffffffffffffff168173ffffffffffffffffffffffffffffffffffffffff167f8be0079c531659141344cd1fd0a4f28419497f9722a3daafe3b4186f6b6457e060405160405180910390a35050565b600080fd5b600073ffffffffffffffffffffffffffffffffffffffff82169050919050565b600061029f82610274565b9050919050565b6102af81610294565b81146102ba57600080fd5b50565b6000815190506102cc816102a6565b92915050565b60006102dd82610274565b9050919050565b6102ed816102d2565b81146102f857600080fd5b50565b60008151905061030a816102e4565b92915050565b600080604083850312156103275761032661026f565b5b6000610335858286016102bd565b9250506020610346858286016102fb565b9150509250929050565b610359816102d2565b82525050565b60006020820190506103746000830184610350565b92915050565b615e79806103896000396000f3fe6080604052600436106104565760003560e01c80638da5cb5b1161023f578063c7a1834711610139578063ef49968a116100b6578063fb0fc0761161007a578063fb0fc07614611198578063fc0c546a146111c1578063fcb966d7146111ec578063fd239fd914611217578063ff5133cd146112545761045d565b8063ef49968a146110a3578063ef5d9ae8146110e0578063f226de971461111d578063f2fde38b14611146578063f9d702001461116f5761045d565b8063d9ceab13116100fd578063d9ceab1314610fd2578063dc0c6a2a14610fe9578063de473f8d14611014578063df13c9ca14611051578063e1dc75d21461107a5761045d565b8063c7a1834714610ed9578063c8da5ef514610f16578063ce54d6e114610f41578063d4a444b414610f6a578063d7e14e1314610fa75761045d565b80639c20097a116101c7578063b9e66a791161018b578063b9e66a7914610e06578063ba51cf0714610e31578063bbaa117714610e48578063bc3de74914610e73578063c70e12cb14610e9c5761045d565b80639c20097a14610d0b578063a1f0406d14610d22578063a2bdedf414610d61578063a54dfaad14610d9e578063af28728c14610ddb5761045d565b80639106d7ba1161020e5780639106d7ba14610c265780639198631614610c515780639335dcb714610c7a57806393dbc75714610ca557806395ae847814610cce5761045d565b80638da5cb5b14610b565780638e84a0d814610b8157806390838e0914610bac57806390c757eb14610be95761045d565b80634ed9b7f6116103505780636de62ea7116102d857806382d95df51161029c57806382d95df514610a5f578063868b91ac14610a88578063869c865e14610ab3578063876cf0ef14610adc57806388185e0314610b195761045d565b80636de62ea714610988578063715018a6146109c55780637217e0b9146109dc5780637d848db214610a1a5780637e72fb5214610a435761045d565b80636143440c1161031f5780636143440c146108c75780636182a57d146108f057806362476bed1461091b57806366d74c80146109465780636b9f96ea146109715761045d565b80634ed9b7f61461080957806350614c561461083457806350a3eaf01461085f57806351484a191461088a5761045d565b806321622c63116103de57806333298463116103a257806333298463146106d8578063376f96711461071557806347315ec4146107525780634a5f58c71461078f5780634e358662146107cc5761045d565b806321622c63146105df57806323ada7171461060857806329e0f88d146106455780632b4c73e51461066e57806331b3ab3f146106995761045d565b8063109d75d511610425578063109d75d51461050c5780631dd02b4b146105495780631e375ab9146105725780631ff9e2b214610589578063206a5dbc146105b45761045d565b8063055ad42e1461046257806308d317dd1461048d5780630ae19ba8146104b65780630b97bc86146104e15761045d565b3661045d57005b600080fd5b34801561046e57600080fd5b5061047761127d565b60405161048491906149c7565b60405180910390f35b34801561049957600080fd5b506104b460048036038101906104af9190614a22565b611319565b005b3480156104c257600080fd5b506104cb6115d9565b6040516104d891906149c7565b60405180910390f35b3480156104ed57600080fd5b506104f66115df565b60405161050391906149c7565b60405180910390f35b34801561051857600080fd5b50610533600480360381019061052e9190614ac0565b6115e5565b60405161054091906149c7565b60405180910390f35b34801561055557600080fd5b50610570600480360381019061056b9190614b25565b611756565b005b34801561057e57600080fd5b5061058761177b565b005b34801561059557600080fd5b5061059e6119de565b6040516105ab9190614bb1565b60405180910390f35b3480156105c057600080fd5b506105c9611a04565b6040516105d691906149c7565b60405180910390f35b3480156105eb57600080fd5b5061060660048036038101906106019190614d7a565b611a0a565b005b34801561061457600080fd5b5061062f600480360381019061062a9190614ac0565b611acf565b60405161063c91906149c7565b60405180910390f35b34801561065157600080fd5b5061066c60048036038101906106679190614ac0565b611ae7565b005b34801561067a57600080fd5b50610683611b33565b60405161069091906149c7565b60405180910390f35b3480156106a557600080fd5b506106c060048036038101906106bb9190614dc3565b611b39565b6040516106cf93929190614e6f565b60405180910390f35b3480156106e457600080fd5b506106ff60048036038101906106fa9190614ac0565b611bfb565b60405161070c91906149c7565b60405180910390f35b34801561072157600080fd5b5061073c60048036038101906107379190614ac0565b611c13565b60405161074991906149c7565b60405180910390f35b34801561075e57600080fd5b5061077960048036038101906107749190614ac0565b611c2b565b60405161078691906149c7565b60405180910390f35b34801561079b57600080fd5b506107b660048036038101906107b19190614ac0565b611c43565b6040516107c391906149c7565b60405180910390f35b3480156107d857600080fd5b506107f360048036038101906107ee9190614ac0565b611c5b565b60405161080091906149c7565b60405180910390f35b34801561081557600080fd5b5061081e611c73565b60405161082b9190614ebc565b60405180910390f35b34801561084057600080fd5b50610849611c86565b6040516108569190614ebc565b60405180910390f35b34801561086b57600080fd5b50610874611c99565b60405161088191906149c7565b60405180910390f35b34801561089657600080fd5b506108b160048036038101906108ac9190614ac0565b611c9f565b6040516108be91906149c7565b60405180910390f35b3480156108d357600080fd5b506108ee60048036038101906108e99190614ac0565b611cb7565b005b3480156108fc57600080fd5b50610905611d03565b60405161091291906149c7565b60405180910390f35b34801561092757600080fd5b50610930611d09565b60405161093d91906149c7565b60405180910390f35b34801561095257600080fd5b5061095b611d0e565b6040516109689190614bb1565b60405180910390f35b34801561097d57600080fd5b50610986611d34565b005b34801561099457600080fd5b506109af60048036038101906109aa9190614ac0565b611da7565b6040516109bc91906149c7565b60405180910390f35b3480156109d157600080fd5b506109da611dbf565b005b3480156109e857600080fd5b50610a0360048036038101906109fe9190614dc3565b611dd3565b604051610a11929190614ed7565b60405180910390f35b348015610a2657600080fd5b50610a416004803603810190610a3c9190614f00565b611e07565b005b610a5d6004803603810190610a589190614ac0565b611ec9565b005b348015610a6b57600080fd5b50610a866004803603810190610a819190614dc3565b6124d8565b005b348015610a9457600080fd5b50610a9d6124ea565b604051610aaa91906149c7565b60405180910390f35b348015610abf57600080fd5b50610ada6004803603810190610ad5919061501c565b6124f0565b005b348015610ae857600080fd5b50610b036004803603810190610afe9190614ac0565b6125ee565b604051610b10919061515d565b60405180910390f35b348015610b2557600080fd5b50610b406004803603810190610b3b9190614ac0565b6126d9565b604051610b4d919061515d565b60405180910390f35b348015610b6257600080fd5b50610b6b6127c4565b604051610b78919061518e565b60405180910390f35b348015610b8d57600080fd5b50610b966127ed565b604051610ba39190614ebc565b60405180910390f35b348015610bb857600080fd5b50610bd36004803603810190610bce9190614ac0565b612800565b604051610be091906149c7565b60405180910390f35b348015610bf557600080fd5b50610c106004803603810190610c0b91906151a9565b612818565b604051610c1d91906149c7565b60405180910390f35b348015610c3257600080fd5b50610c3b61283d565b604051610c4891906149c7565b60405180910390f35b348015610c5d57600080fd5b50610c786004803603810190610c739190614dc3565b612843565b005b348015610c8657600080fd5b50610c8f612855565b604051610c9c919061520a565b60405180910390f35b348015610cb157600080fd5b50610ccc6004803603810190610cc79190614ac0565b61287b565b005b348015610cda57600080fd5b50610cf56004803603810190610cf09190614ac0565b6128c7565b604051610d0291906149c7565b60405180910390f35b348015610d1757600080fd5b50610d206128df565b005b348015610d2e57600080fd5b50610d496004803603810190610d449190614dc3565b612915565b604051610d5893929190614e6f565b60405180910390f35b348015610d6d57600080fd5b50610d886004803603810190610d839190614dc3565b6129d7565b604051610d95919061518e565b60405180910390f35b348015610daa57600080fd5b50610dc56004803603810190610dc09190614ac0565b612a16565b604051610dd291906149c7565b60405180910390f35b348015610de757600080fd5b50610df0612a2e565b604051610dfd9190614bb1565b60405180910390f35b348015610e1257600080fd5b50610e1b612a54565b604051610e2891906149c7565b60405180910390f35b348015610e3d57600080fd5b50610e46612a5a565b005b348015610e5457600080fd5b50610e5d612bf0565b604051610e6a91906149c7565b60405180910390f35b348015610e7f57600080fd5b50610e9a6004803603810190610e959190615225565b612bf6565b005b348015610ea857600080fd5b50610ec36004803603810190610ebe91906151a9565b612d0b565b604051610ed091906149c7565b60405180910390f35b348015610ee557600080fd5b50610f006004803603810190610efb9190614ac0565b612d30565b604051610f0d91906149c7565b60405180910390f35b348015610f2257600080fd5b50610f2b612d48565b604051610f3891906149c7565b60405180910390f35b348015610f4d57600080fd5b50610f686004803603810190610f6391906151a9565b612d4e565b005b348015610f7657600080fd5b50610f916004803603810190610f8c9190614ac0565b612e88565b604051610f9e91906149c7565b60405180910390f35b348015610fb357600080fd5b50610fbc612ea0565b604051610fc991906149c7565b60405180910390f35b348015610fde57600080fd5b50610fe7612ea6565b005b348015610ff557600080fd5b50610ffe613060565b60405161100b91906149c7565b60405180910390f35b34801561102057600080fd5b5061103b60048036038101906110369190614ac0565b613066565b6040516110489190614ebc565b60405180910390f35b34801561105d57600080fd5b5061107860048036038101906110739190614b25565b613315565b005b34801561108657600080fd5b506110a1600480360381019061109c9190614a22565b61333a565b005b3480156110af57600080fd5b506110ca60048036038101906110c59190614ac0565b613564565b6040516110d791906149c7565b60405180910390f35b3480156110ec57600080fd5b5061110760048036038101906111029190614ac0565b61357c565b60405161111491906149c7565b60405180910390f35b34801561112957600080fd5b50611144600480360381019061113f9190614a22565b613594565b005b34801561115257600080fd5b5061116d60048036038101906111689190614ac0565b61381b565b005b34801561117b57600080fd5b5061119660048036038101906111919190614a22565b6138a1565b005b3480156111a457600080fd5b506111bf60048036038101906111ba91906151a9565b613ace565b005b3480156111cd57600080fd5b506111d6613b31565b6040516111e39190615299565b60405180910390f35b3480156111f857600080fd5b50611201613b57565b60405161120e91906149c7565b60405180910390f35b34801561122357600080fd5b5061123e60048036038101906112399190614ac0565b613b5d565b60405161124b91906149c7565b60405180910390f35b34801561126057600080fd5b5061127b600480360381019061127691906152b4565b613f0d565b005b6000806000905060005b6004805490508110156112f457600481815481106112a8576112a7615307565b5b906000526020600020906002020160000154826112c59190615365565b91508160065410156112e7576001816112de9190615365565b92505050611316565b8080600101915050611287565b506001806004805490506113089190615399565b6113129190615365565b9150505b90565b6000600c838154811061132f5761132e615307565b5b9060005260206000209060030201600101541161134b57600080fd5b80600d60003373ffffffffffffffffffffffffffffffffffffffff1673ffffffffffffffffffffffffffffffffffffffff16815260200190815260200160002060008481526020019081526020016000205410156113de576040517f08c379a00000000000000000000000000000000000000000000000000000000081526004016113d590615419565b60405180910390fd5b602760149054906101000a900460ff161561142e576040517f08c379a0000000000000000000000000000000000000000000000000000000008152600401611425906154ab565b60405180910390fd5b61143733614274565b600081600c848154811061144e5761144d615307565b5b90600052602060002090600302016001015461146a91906154cb565b9050600082600c858154811061148357611482615307565b5b90600052602060002090600302016002015461149f91906154cb565b90506000601354826012546114b491906154cb565b6114be919061553c565b905081601360008282546114d29190615399565b9250508190555080601260008282546114eb9190615399565b9250508190555082601060008282546115049190615399565b9250508190555061151533826143a5565b83600d60003373ffffffffffffffffffffffffffffffffffffffff1673ffffffffffffffffffffffffffffffffffffffff168152602001908152602001600020600087815260200190815260200160002060008282546115759190615399565b9250508190555082601660003373ffffffffffffffffffffffffffffffffffffffff1673ffffffffffffffffffffffffffffffffffffffff16815260200190815260200160002060008282546115cb9190615399565b925050819055505050505050565b60135481565b60055481565b6000806014546127106115f891906154cb565b6011546012546116089190615365565b601154620f424061161991906154cb565b611623919061553c565b61162d9190615399565b9050600060145461271061164191906154cb565b6011546012546116519190615365565b601254620f424061166291906154cb565b61166c919061553c565b6116769190615365565b9050620f4240601054601660008773ffffffffffffffffffffffffffffffffffffffff1673ffffffffffffffffffffffffffffffffffffffff16815260200190815260200160002054836116ca91906154cb565b6116d4919061553c565b600f54601560008873ffffffffffffffffffffffffffffffffffffffff1673ffffffffffffffffffffffffffffffffffffffff168152602001908152602001600020548561172291906154cb565b61172c919061553c565b6117369190615365565b60295461174391906154cb565b61174d919061553c565b92505050919050565b61175e6144d7565b80600760006101000a81548160ff02191690831515021790555050565b6000602260003373ffffffffffffffffffffffffffffffffffffffff1673ffffffffffffffffffffffffffffffffffffffff1681526020019081526020016000205490506000602260003373ffffffffffffffffffffffffffffffffffffffff1673ffffffffffffffffffffffffffffffffffffffff1681526020019081526020016000208190555061180e33826143a5565b80602460003373ffffffffffffffffffffffffffffffffffffffff1673ffffffffffffffffffffffffffffffffffffffff168152602001908152602001600020600082825461185d9190615365565b925050819055506000602360003373ffffffffffffffffffffffffffffffffffffffff1673ffffffffffffffffffffffffffffffffffffffff1681526020019081526020016000205490506000602360003373ffffffffffffffffffffffffffffffffffffffff1673ffffffffffffffffffffffffffffffffffffffff1681526020019081526020016000208190555080602560003373ffffffffffffffffffffffffffffffffffffffff1673ffffffffffffffffffffffffffffffffffffffff168152602001908152602001600020600082825461193c9190615365565b925050819055503373ffffffffffffffffffffffffffffffffffffffff166108fc829081150290604051600060405180830381858888f19350505050158015611989573d6000803e3d6000fd5b503373ffffffffffffffffffffffffffffffffffffffff167f454211b099b54298804b6b35092d2a4bcbf8e5ea525a50b79b542ba2d4bc6a2482846040516119d2929190614ed7565b60405180910390a25050565b602760009054906101000a900473ffffffffffffffffffffffffffffffffffffffff1681565b60125481565b611a126144d7565b60046000611a209190614963565b60005b8151811015611acb5760046040518060400160405280848481518110611a4c57611a4b615307565b5b6020026020010151600001518152602001848481518110611a7057611a6f615307565b5b6020026020010151602001518152509080600181540180825580915050600190039060005260206000209060020201600090919091909150600082015181600001556020820151816001015550508080600101915050611a23565b5050565b60166020528060005260406000206000915090505481565b611aef6144d7565b80602760006101000a81548173ffffffffffffffffffffffffffffffffffffffff021916908373ffffffffffffffffffffffffffffffffffffffff16021790555050565b600f5481565b600c8181548110611b4957600080fd5b9060005260206000209060030201600091509050806000018054611b6c9061559c565b80601f0160208091040260200160405190810160405280929190818152602001828054611b989061559c565b8015611be55780601f10611bba57610100808354040283529160200191611be5565b820191906000526020600020905b815481529060010190602001808311611bc857829003601f168201915b5050505050908060010154908060020154905083565b60226020528060005260406000206000915090505481565b60096020528060005260406000206000915090505481565b60196020528060005260406000206000915090505481565b601b6020528060005260406000206000915090505481565b601c6020528060005260406000206000915090505481565b602660009054906101000a900460ff1681565b602760149054906101000a900460ff1681565b60115481565b601e6020528060005260406000206000915090505481565b611cbf6144d7565b80602660016101000a81548173ffffffffffffffffffffffffffffffffffffffff021916908373ffffffffffffffffffffffffffffffffffffffff16021790555050565b60285481565b606481565b600260009054906101000a900473ffffffffffffffffffffffffffffffffffffffff1681565b611d3c6144d7565b600160009054906101000a900473ffffffffffffffffffffffffffffffffffffffff1673ffffffffffffffffffffffffffffffffffffffff166108fc479081150290604051600060405180830381858888f19350505050158015611da4573d6000803e3d6000fd5b50565b60156020528060005260406000206000915090505481565b611dc76144d7565b611dd1600061455e565b565b60048181548110611de357600080fd5b90600052602060002090600202016000915090508060000154908060010154905082565b611e0f6144d7565b8015611e6e5782600c8581548110611e2a57611e29615307565b5b90600052602060002090600302016001018190555081600c8581548110611e5457611e53615307565b5b906000526020600020906003020160020181905550611ec3565b82600a8581548110611e8357611e82615307565b5b90600052602060002090600302016001018190555081600a8581548110611ead57611eac615307565b5b9060005260206000209060030201600201819055505b50505050565b60003411611f0c576040517f08c379a0000000000000000000000000000000000000000000000000000000008152600401611f0390615619565b60405180910390fd5b600760009054906101000a900460ff161580611fc05750602760009054906101000a900473ffffffffffffffffffffffffffffffffffffffff1673ffffffffffffffffffffffffffffffffffffffff16633af32abf336040518263ffffffff1660e01b8152600401611f7e919061518e565b602060405180830381865afa158015611f9b573d6000803e3d6000fd5b505050506040513d601f19601f82011682018060405250810190611fbf919061564e565b5b611fff576040517f08c379a0000000000000000000000000000000000000000000000000000000008152600401611ff6906156c7565b60405180910390fd5b6005544211612043576040517f08c379a000000000000000000000000000000000000000000000000000000000815260040161203a90615733565b60405180910390fd5b602760149054906101000a900460ff1615612093576040517f08c379a000000000000000000000000000000000000000000000000000000000815260040161208a906154ab565b60405180910390fd5b600061209e34614622565b9050600081116120e3576040517f08c379a00000000000000000000000000000000000000000000000000000000081526004016120da9061579f565b60405180910390fd5b6000601e60003373ffffffffffffffffffffffffffffffffffffffff1673ffffffffffffffffffffffffffffffffffffffff16815260200190815260200160002054036121d9576008339080600181540180825580915050600190039060005260206000200160009091909190916101000a81548173ffffffffffffffffffffffffffffffffffffffff021916908373ffffffffffffffffffffffffffffffffffffffff16021790555061219561127d565b601e60003373ffffffffffffffffffffffffffffffffffffffff1673ffffffffffffffffffffffffffffffffffffffff168152602001908152602001600020819055505b600073ffffffffffffffffffffffffffffffffffffffff168273ffffffffffffffffffffffffffffffffffffffff1603612211573391505b600061221c83613066565b905081600660008282546122309190615365565b925050819055506000600234612246919061553c565b9050600080600084156123545760646021548761226391906154cb565b61226d919061553c565b925060646020548761227f91906154cb565b612289919061553c565b90506064601f543461229b91906154cb565b6122a5919061553c565b915081602360008973ffffffffffffffffffffffffffffffffffffffff1673ffffffffffffffffffffffffffffffffffffffff16815260200190815260200160002060008282546122f69190615365565b9250508190555080602260008973ffffffffffffffffffffffffffffffffffffffff1673ffffffffffffffffffffffffffffffffffffffff168152602001908152602001600020600082825461234c9190615365565b925050819055505b600083876123629190615365565b905061236e33826143a5565b3373ffffffffffffffffffffffffffffffffffffffff16600073ffffffffffffffffffffffffffffffffffffffff167fc29b8032387f267ddc010037627574acbf3b1a65a6022ca8ba6c25f0ba85ee75898686896040516123d294939291906157bf565b60405180910390a3600083866123e89190615365565b346123f39190615399565b9050600160009054906101000a900473ffffffffffffffffffffffffffffffffffffffff1673ffffffffffffffffffffffffffffffffffffffff166108fc829081150290604051600060405180830381858888f1935050505015801561245d573d6000803e3d6000fd5b5034601760003373ffffffffffffffffffffffffffffffffffffffff1673ffffffffffffffffffffffffffffffffffffffff16815260200190815260200160002060008282546124ad9190615365565b9250508190555085600e60008282546124c69190615365565b92505081905550505050505050505050565b6124e06144d7565b8060058190555050565b60295481565b6124f86144d7565b801561257557600c6040518060600160405280868152602001858152602001848152509080600181540180825580915050600190039060005260206000209060030201600090919091909150600082015181600001908161255991906159a6565b50602082015181600101556040820151816002015550506125e8565b600a604051806060016040528086815260200185815260200184815250908060018154018082558091505060019003906000526020600020906003020160009091909190915060008201518160000190816125d091906159a6565b50602082015181600101556040820151816002015550505b50505050565b60606000600c8054905067ffffffffffffffff81111561261157612610614be2565b5b60405190808252806020026020018201604052801561263f5781602001602082028036833780820191505090505b50905060005b600c805490508110156126cf57600d60008573ffffffffffffffffffffffffffffffffffffffff1673ffffffffffffffffffffffffffffffffffffffff1681526020019081526020016000206000828152602001908152602001600020548282815181106126b6576126b5615307565b5b6020026020010181815250508080600101915050612645565b5080915050919050565b60606000600a8054905067ffffffffffffffff8111156126fc576126fb614be2565b5b60405190808252806020026020018201604052801561272a5781602001602082028036833780820191505090505b50905060005b600a805490508110156127ba57600b60008573ffffffffffffffffffffffffffffffffffffffff1673ffffffffffffffffffffffffffffffffffffffff1681526020019081526020016000206000828152602001908152602001600020548282815181106127a1576127a0615307565b5b6020026020010181815250508080600101915050612730565b5080915050919050565b60008060009054906101000a900473ffffffffffffffffffffffffffffffffffffffff16905090565b600760009054906101000a900460ff1681565b60176020528060005260406000206000915090505481565b600d602052816000526040600020602052806000526040600020600091509150505481565b60065481565b61284b6144d7565b8060148190555050565b600160009054906101000a900473ffffffffffffffffffffffffffffffffffffffff1681565b6128836144d7565b80600260006101000a81548173ffffffffffffffffffffffffffffffffffffffff021916908373ffffffffffffffffffffffffffffffffffffffff16021790555050565b60236020528060005260406000206000915090505481565b6128e76144d7565b6001602760146101000a81548160ff0219169083151502179055506000602881905550600e54602981905550565b600a818154811061292557600080fd5b90600052602060002090600302016000915090508060000180546129489061559c565b80601f01602080910402602001604051908101604052809291908181526020018280546129749061559c565b80156129c15780601f10612996576101008083540402835291602001916129c1565b820191906000526020600020905b8154815290600101906020018083116129a457829003601f168201915b5050505050908060010154908060020154905083565b600881815481106129e757600080fd5b906000526020600020016000915054906101000a900473ffffffffffffffffffffffffffffffffffffffff1681565b60246020528060005260406000206000915090505481565b602660019054906101000a900473ffffffffffffffffffffffffffffffffffffffff1681565b60145481565b612a626144d7565b602760149054906101000a900460ff16612ab1576040517f08c379a0000000000000000000000000000000000000000000000000000000008152600401612aa890615ac4565b60405180910390fd5b60006008805490506064602854612ac89190615365565b10612af55760088054905090506000602760146101000a81548160ff021916908315150217905550612b07565b6064602854612b049190615365565b90505b600060285490505b81811015612be557600060088281548110612b2d57612b2c615307565b5b9060005260206000200160009054906101000a900473ffffffffffffffffffffffffffffffffffffffff1690506000612b65826115e5565b905080600e6000828254612b799190615399565b9250508190555080601960008473ffffffffffffffffffffffffffffffffffffffff1673ffffffffffffffffffffffffffffffffffffffff1681526020019081526020016000206000828254612bcf9190615365565b9250508190555050508080600101915050612b0f565b508060288190555050565b60215481565b612bfe6144d7565b60008310158015612c10575060148311155b612c4f576040517f08c379a0000000000000000000000000000000000000000000000000000000008152600401612c4690615b30565b60405180910390fd5b82601f8190555060008210158015612c68575060148211155b612ca7576040517f08c379a0000000000000000000000000000000000000000000000000000000008152600401612c9e90615b30565b60405180910390fd5b8160208190555060008110158015612cc0575060148111155b612cff576040517f08c379a0000000000000000000000000000000000000000000000000000000008152600401612cf690615b30565b60405180910390fd5b80602181905550505050565b600b602052816000526040600020602052806000526040600020600091509150505481565b601d6020528060005260406000206000915090505481565b60105481565b612d566144d7565b600360009054906101000a900473ffffffffffffffffffffffffffffffffffffffff1673ffffffffffffffffffffffffffffffffffffffff166323b872dd600160009054906101000a900473ffffffffffffffffffffffffffffffffffffffff1684670de0b6b3a764000085612dcc91906154cb565b6040518463ffffffff1660e01b8152600401612dea93929190615b71565b6020604051808303816000875af1158015612e09573d6000803e3d6000fd5b505050506040513d601f19601f82011682018060405250810190612e2d919061564e565b5080600960008473ffffffffffffffffffffffffffffffffffffffff1673ffffffffffffffffffffffffffffffffffffffff1681526020019081526020016000206000828254612e7d9190615365565b925050819055505050565b60256020528060005260406000206000915090505481565b601f5481565b6000601960003373ffffffffffffffffffffffffffffffffffffffff1673ffffffffffffffffffffffffffffffffffffffff16815260200190815260200160002054905060008111612f2d576040517f08c379a0000000000000000000000000000000000000000000000000000000008152600401612f2490615bf4565b60405180910390fd5b6000601960003373ffffffffffffffffffffffffffffffffffffffff1673ffffffffffffffffffffffffffffffffffffffff1681526020019081526020016000208190555080601a60003373ffffffffffffffffffffffffffffffffffffffff1673ffffffffffffffffffffffffffffffffffffffff1681526020019081526020016000206000828254612fc19190615365565b925050819055503373ffffffffffffffffffffffffffffffffffffffff166108fc829081150290604051600060405180830381858888f1935050505015801561300e573d6000803e3d6000fd5b503373ffffffffffffffffffffffffffffffffffffffff167f7bcfb0598e7cd0b03e8472440b7e292b4767743ddeb0579a65be466b40c8b0f38260405161305591906149c7565b60405180910390a250565b600e5481565b6000602660009054906101000a900460ff161561317b57600073ffffffffffffffffffffffffffffffffffffffff16602660019054906101000a900473ffffffffffffffffffffffffffffffffffffffff1673ffffffffffffffffffffffffffffffffffffffff16141580156131745750602660019054906101000a900473ffffffffffffffffffffffffffffffffffffffff1673ffffffffffffffffffffffffffffffffffffffff16633af32abf836040518263ffffffff1660e01b8152600401613132919061518e565b602060405180830381865afa15801561314f573d6000803e3d6000fd5b505050506040513d601f19601f82011682018060405250810190613173919061564e565b5b9050613310565b600073ffffffffffffffffffffffffffffffffffffffff16602760009054906101000a900473ffffffffffffffffffffffffffffffffffffffff1673ffffffffffffffffffffffffffffffffffffffff16141580156132725750602760009054906101000a900473ffffffffffffffffffffffffffffffffffffffff1673ffffffffffffffffffffffffffffffffffffffff16633af32abf836040518263ffffffff1660e01b8152600401613230919061518e565b602060405180830381865afa15801561324d573d6000803e3d6000fd5b505050506040513d601f19601f82011682018060405250810190613271919061564e565b5b8061330d57506000601e60008473ffffffffffffffffffffffffffffffffffffffff1673ffffffffffffffffffffffffffffffffffffffff1681526020019081526020016000205411801561330c57506132ca61127d565b601e60008473ffffffffffffffffffffffffffffffffffffffff1673ffffffffffffffffffffffffffffffffffffffff16815260200190815260200160002054105b5b90505b919050565b61331d6144d7565b80602660006101000a81548160ff02191690831515021790555050565b6000600a83815481106133505761334f615307565b5b906000526020600020906003020160010154116133a2576040517f08c379a000000000000000000000000000000000000000000000000000000000815260040161339990615c60565b60405180910390fd5b602760149054906101000a900460ff16156133f2576040517f08c379a00000000000000000000000000000000000000000000000000000000081526004016133e9906154ab565b60405180910390fd5b600081600a848154811061340957613408615307565b5b90600052602060002090600302016002015461342591906154cb565b9050600082600a858154811061343e5761343d615307565b5b90600052602060002090600302016001015461345a91906154cb565b905061346533614274565b81601160008282546134779190615365565b9250508190555080600f60008282546134909190615365565b925050819055506134a133836147a7565b82600b60003373ffffffffffffffffffffffffffffffffffffffff1673ffffffffffffffffffffffffffffffffffffffff168152602001908152602001600020600086815260200190815260200160002060008282546135019190615365565b9250508190555080601560003373ffffffffffffffffffffffffffffffffffffffff1673ffffffffffffffffffffffffffffffffffffffff16815260200190815260200160002060008282546135579190615365565b9250508190555050505050565b60186020528060005260406000206000915090505481565b601a6020528060005260406000206000915090505481565b6000600a83815481106135aa576135a9615307565b5b906000526020600020906003020160010154116135c657600080fd5b80600b60003373ffffffffffffffffffffffffffffffffffffffff1673ffffffffffffffffffffffffffffffffffffffff1681526020019081526020016000206000848152602001908152602001600020541015613659576040517f08c379a000000000000000000000000000000000000000000000000000000000815260040161365090615ccc565b60405180910390fd5b602760149054906101000a900460ff16156136a9576040517f08c379a00000000000000000000000000000000000000000000000000000000081526004016136a0906154ab565b60405180910390fd5b600081600a84815481106136c0576136bf615307565b5b9060005260206000209060030201600201546136dc91906154cb565b9050600082600a85815481106136f5576136f4615307565b5b90600052602060002090600302016001015461371191906154cb565b905061371c33614274565b80600f600082825461372e9190615399565b9250508190555081601160008282546137479190615399565b9250508190555061375833836143a5565b82600b60003373ffffffffffffffffffffffffffffffffffffffff1673ffffffffffffffffffffffffffffffffffffffff168152602001908152602001600020600086815260200190815260200160002060008282546137b89190615399565b9250508190555080601560003373ffffffffffffffffffffffffffffffffffffffff1673ffffffffffffffffffffffffffffffffffffffff168152602001908152602001600020600082825461380e9190615399565b9250508190555050505050565b6138236144d7565b600073ffffffffffffffffffffffffffffffffffffffff168173ffffffffffffffffffffffffffffffffffffffff16036138955760006040517f1e4fbdf700000000000000000000000000000000000000000000000000000000815260040161388c919061518e565b60405180910390fd5b61389e8161455e565b50565b6000600c83815481106138b7576138b6615307565b5b906000526020600020906003020160010154116138d357600080fd5b602760149054906101000a900460ff1615613923576040517f08c379a000000000000000000000000000000000000000000000000000000000815260040161391a906154ab565b60405180910390fd5b61392c33614274565b600081600c848154811061394357613942615307565b5b90600052602060002090600302016001015461395f91906154cb565b9050600082600c858154811061397857613977615307565b5b90600052602060002090600302016002015461399491906154cb565b90506000601354826012546139a991906154cb565b6139b3919061553c565b905081601360008282546139c79190615365565b9250508190555080601260008282546139e09190615365565b9250508190555082601060008282546139f99190615365565b92505081905550613a0a33826147a7565b83600d60003373ffffffffffffffffffffffffffffffffffffffff1673ffffffffffffffffffffffffffffffffffffffff16815260200190815260200160002060008781526020019081526020016000206000828254613a6a9190615365565b9250508190555082601660003373ffffffffffffffffffffffffffffffffffffffff1673ffffffffffffffffffffffffffffffffffffffff1681526020019081526020016000206000828254613ac09190615365565b925050819055505050505050565b613ad66144d7565b670de0b6b3a764000081613aea91906154cb565b601860008473ffffffffffffffffffffffffffffffffffffffff1673ffffffffffffffffffffffffffffffffffffffff168152602001908152602001600020819055505050565b600360009054906101000a900473ffffffffffffffffffffffffffffffffffffffff1681565b60205481565b6000600260009054906101000a900473ffffffffffffffffffffffffffffffffffffffff1673ffffffffffffffffffffffffffffffffffffffff16633af32abf336040518263ffffffff1660e01b8152600401613bba919061518e565b602060405180830381865afa158015613bd7573d6000803e3d6000fd5b505050506040513d601f19601f82011682018060405250810190613bfb919061564e565b80613c385750613c096127c4565b73ffffffffffffffffffffffffffffffffffffffff163373ffffffffffffffffffffffffffffffffffffffff16145b613c77576040517f08c379a0000000000000000000000000000000000000000000000000000000008152600401613c6e90615d38565b60405180910390fd5b601b60008373ffffffffffffffffffffffffffffffffffffffff1673ffffffffffffffffffffffffffffffffffffffff1681526020019081526020016000205442613cc29190615399565b601660008473ffffffffffffffffffffffffffffffffffffffff1673ffffffffffffffffffffffffffffffffffffffff16815260200190815260200160002054613d0c91906154cb565b601c60008473ffffffffffffffffffffffffffffffffffffffff1673ffffffffffffffffffffffffffffffffffffffff1681526020019081526020016000206000828254613d5a9190615365565b9250508190555042601b60008473ffffffffffffffffffffffffffffffffffffffff1673ffffffffffffffffffffffffffffffffffffffff168152602001908152602001600020819055506000601d60008473ffffffffffffffffffffffffffffffffffffffff1673ffffffffffffffffffffffffffffffffffffffff16815260200190815260200160002054601c60008573ffffffffffffffffffffffffffffffffffffffff1673ffffffffffffffffffffffffffffffffffffffff16815260200190815260200160002054613e319190615399565b9050601c60008473ffffffffffffffffffffffffffffffffffffffff1673ffffffffffffffffffffffffffffffffffffffff16815260200190815260200160002054601d60008573ffffffffffffffffffffffffffffffffffffffff1673ffffffffffffffffffffffffffffffffffffffff168152602001908152602001600020819055508273ffffffffffffffffffffffffffffffffffffffff167f1e6f5eaef61555b8bf4c1ef79dd15630c9612b652f0c442b66151f134650742c82604051613efc91906149c7565b60405180910390a280915050919050565b600260009054906101000a900473ffffffffffffffffffffffffffffffffffffffff1673ffffffffffffffffffffffffffffffffffffffff16633af32abf336040518263ffffffff1660e01b8152600401613f68919061518e565b602060405180830381865afa158015613f85573d6000803e3d6000fd5b505050506040513d601f19601f82011682018060405250810190613fa9919061564e565b806140015750600160009054906101000a900473ffffffffffffffffffffffffffffffffffffffff1673ffffffffffffffffffffffffffffffffffffffff163373ffffffffffffffffffffffffffffffffffffffff16145b614040576040517f08c379a000000000000000000000000000000000000000000000000000000000815260040161403790615d38565b60405180910390fd5b6000600c838154811061405657614055615307565b5b9060005260206000209060030201600101541161407257600080fd5b602760149054906101000a900460ff16156140c2576040517f08c379a00000000000000000000000000000000000000000000000000000000081526004016140b9906154ab565b60405180910390fd5b6140cb83614274565b600081600c84815481106140e2576140e1615307565b5b9060005260206000209060030201600101546140fe91906154cb565b9050600082600c858154811061411757614116615307565b5b90600052602060002090600302016002015461413391906154cb565b905080601360008282546141479190615365565b9250508190555081601060008282546141609190615365565b9250508190555082600d60008773ffffffffffffffffffffffffffffffffffffffff1673ffffffffffffffffffffffffffffffffffffffff1681526020019081526020016000206000868152602001908152602001600020546141c39190615365565b600d60008773ffffffffffffffffffffffffffffffffffffffff1673ffffffffffffffffffffffffffffffffffffffff16815260200190815260200160002060008681526020019081526020016000208190555081601660008773ffffffffffffffffffffffffffffffffffffffff1673ffffffffffffffffffffffffffffffffffffffff16815260200190815260200160002060008282546142669190615365565b925050819055505050505050565b601b60008273ffffffffffffffffffffffffffffffffffffffff1673ffffffffffffffffffffffffffffffffffffffff16815260200190815260200160002054426142bf9190615399565b601660008373ffffffffffffffffffffffffffffffffffffffff1673ffffffffffffffffffffffffffffffffffffffff1681526020019081526020016000205461430991906154cb565b601c60008373ffffffffffffffffffffffffffffffffffffffff1673ffffffffffffffffffffffffffffffffffffffff16815260200190815260200160002060008282546143579190615365565b9250508190555042601b60008373ffffffffffffffffffffffffffffffffffffffff1673ffffffffffffffffffffffffffffffffffffffff1681526020019081526020016000208190555050565b600360009054906101000a900473ffffffffffffffffffffffffffffffffffffffff1673ffffffffffffffffffffffffffffffffffffffff166323b872dd600160009054906101000a900473ffffffffffffffffffffffffffffffffffffffff1684670de0b6b3a76400008561441b91906154cb565b6040518463ffffffff1660e01b815260040161443993929190615b71565b6020604051808303816000875af1158015614458573d6000803e3d6000fd5b505050506040513d601f19601f8201168201806040525081019061447c919061564e565b5080600960008473ffffffffffffffffffffffffffffffffffffffff1673ffffffffffffffffffffffffffffffffffffffff16815260200190815260200160002060008282546144cc9190615365565b925050819055505050565b6144df61495b565b73ffffffffffffffffffffffffffffffffffffffff166144fd6127c4565b73ffffffffffffffffffffffffffffffffffffffff161461455c5761452061495b565b6040517f118cdaa7000000000000000000000000000000000000000000000000000000008152600401614553919061518e565b60405180910390fd5b565b60008060009054906101000a900473ffffffffffffffffffffffffffffffffffffffff169050816000806101000a81548173ffffffffffffffffffffffffffffffffffffffff021916908373ffffffffffffffffffffffffffffffffffffffff1602179055508173ffffffffffffffffffffffffffffffffffffffff168173ffffffffffffffffffffffffffffffffffffffff167f8be0079c531659141344cd1fd0a4f28419497f9722a3daafe3b4186f6b6457e060405160405180910390a35050565b6000806000905060008390506000600654905060005b6004805490508110801561464c5750600083115b1561479b5760006004828154811061466757614666615307565b5b90600052602060002090600202016040518060400160405290816000820154815260200160018201548152505090506000805b8381116146e757600481815481106146b5576146b4615307565b5b906000526020600020906002020160000154826146d29190615365565b915080806146df90615d58565b91505061469a565b5060008482116146f8576000614705565b84826147049190615399565b5b90506000810361471757505050614788565b600083602001518261472991906154cb565b905080871061476157818861473e9190615365565b9750808761474c9190615399565b9650818661475a9190615365565b9550614783565b836020015187614771919061553c565b8861477c9190615365565b9750600096505b505050505b808061479390615d58565b915050614638565b50829350505050919050565b600360009054906101000a900473ffffffffffffffffffffffffffffffffffffffff1673ffffffffffffffffffffffffffffffffffffffff166323b872dd83600160009054906101000a900473ffffffffffffffffffffffffffffffffffffffff16670de0b6b3a76400008561481d91906154cb565b6040518463ffffffff1660e01b815260040161483b93929190615da0565b6020604051808303816000875af115801561485a573d6000803e3d6000fd5b505050506040513d601f19601f8201168201806040525081019061487e919061564e565b5080600960008473ffffffffffffffffffffffffffffffffffffffff1673ffffffffffffffffffffffffffffffffffffffff168152602001908152602001600020541015614901576040517f08c379a00000000000000000000000000000000000000000000000000000000081526004016148f890615e23565b60405180910390fd5b80600960008473ffffffffffffffffffffffffffffffffffffffff1673ffffffffffffffffffffffffffffffffffffffff16815260200190815260200160002060008282546149509190615399565b925050819055505050565b600033905090565b50805460008255600202906000526020600020908101906149849190614987565b50565b5b808211156149aa57600080820160009055600182016000905550600201614988565b5090565b6000819050919050565b6149c1816149ae565b82525050565b60006020820190506149dc60008301846149b8565b92915050565b6000604051905090565b600080fd5b600080fd5b6149ff816149ae565b8114614a0a57600080fd5b50565b600081359050614a1c816149f6565b92915050565b60008060408385031215614a3957614a386149ec565b5b6000614a4785828601614a0d565b9250506020614a5885828601614a0d565b9150509250929050565b600073ffffffffffffffffffffffffffffffffffffffff82169050919050565b6000614a8d82614a62565b9050919050565b614a9d81614a82565b8114614aa857600080fd5b50565b600081359050614aba81614a94565b92915050565b600060208284031215614ad657614ad56149ec565b5b6000614ae484828501614aab565b91505092915050565b60008115159050919050565b614b0281614aed565b8114614b0d57600080fd5b50565b600081359050614b1f81614af9565b92915050565b600060208284031215614b3b57614b3a6149ec565b5b6000614b4984828501614b10565b91505092915050565b6000819050919050565b6000614b77614b72614b6d84614a62565b614b52565b614a62565b9050919050565b6000614b8982614b5c565b9050919050565b6000614b9b82614b7e565b9050919050565b614bab81614b90565b82525050565b6000602082019050614bc66000830184614ba2565b92915050565b600080fd5b6000601f19601f8301169050919050565b7f4e487b7100000000000000000000000000000000000000000000000000000000600052604160045260246000fd5b614c1a82614bd1565b810181811067ffffffffffffffff82111715614c3957614c38614be2565b5b80604052505050565b6000614c4c6149e2565b9050614c588282614c11565b919050565b600067ffffffffffffffff821115614c7857614c77614be2565b5b602082029050602081019050919050565b600080fd5b600080fd5b600060408284031215614ca957614ca8614c8e565b5b614cb36040614c42565b90506000614cc384828501614a0d565b6000830152506020614cd784828501614a0d565b60208301525092915050565b6000614cf6614cf184614c5d565b614c42565b90508083825260208201905060408402830185811115614d1957614d18614c89565b5b835b81811015614d425780614d2e8882614c93565b845260208401935050604081019050614d1b565b5050509392505050565b600082601f830112614d6157614d60614bcc565b5b8135614d71848260208601614ce3565b91505092915050565b600060208284031215614d9057614d8f6149ec565b5b600082013567ffffffffffffffff811115614dae57614dad6149f1565b5b614dba84828501614d4c565b91505092915050565b600060208284031215614dd957614dd86149ec565b5b6000614de784828501614a0d565b91505092915050565b600081519050919050565b600082825260208201905092915050565b60005b83811015614e2a578082015181840152602081019050614e0f565b60008484015250505050565b6000614e4182614df0565b614e4b8185614dfb565b9350614e5b818560208601614e0c565b614e6481614bd1565b840191505092915050565b60006060820190508181036000830152614e898186614e36565b9050614e9860208301856149b8565b614ea560408301846149b8565b949350505050565b614eb681614aed565b82525050565b6000602082019050614ed16000830184614ead565b92915050565b6000604082019050614eec60008301856149b8565b614ef960208301846149b8565b9392505050565b60008060008060808587031215614f1a57614f196149ec565b5b6000614f2887828801614a0d565b9450506020614f3987828801614a0d565b9350506040614f4a87828801614a0d565b9250506060614f5b87828801614b10565b91505092959194509250565b600080fd5b600067ffffffffffffffff821115614f8757614f86614be2565b5b614f9082614bd1565b9050602081019050919050565b82818337600083830152505050565b6000614fbf614fba84614f6c565b614c42565b905082815260208101848484011115614fdb57614fda614f67565b5b614fe6848285614f9d565b509392505050565b600082601f83011261500357615002614bcc565b5b8135615013848260208601614fac565b91505092915050565b60008060008060808587031215615036576150356149ec565b5b600085013567ffffffffffffffff811115615054576150536149f1565b5b61506087828801614fee565b945050602061507187828801614a0d565b935050604061508287828801614a0d565b925050606061509387828801614b10565b91505092959194509250565b600081519050919050565b600082825260208201905092915050565b6000819050602082019050919050565b6150d4816149ae565b82525050565b60006150e683836150cb565b60208301905092915050565b6000602082019050919050565b600061510a8261509f565b61511481856150aa565b935061511f836150bb565b8060005b8381101561515057815161513788826150da565b9750615142836150f2565b925050600181019050615123565b5085935050505092915050565b6000602082019050818103600083015261517781846150ff565b905092915050565b61518881614a82565b82525050565b60006020820190506151a3600083018461517f565b92915050565b600080604083850312156151c0576151bf6149ec565b5b60006151ce85828601614aab565b92505060206151df85828601614a0d565b9150509250929050565b60006151f482614a62565b9050919050565b615204816151e9565b82525050565b600060208201905061521f60008301846151fb565b92915050565b60008060006060848603121561523e5761523d6149ec565b5b600061524c86828701614a0d565b935050602061525d86828701614a0d565b925050604061526e86828701614a0d565b9150509250925092565b600061528382614b7e565b9050919050565b61529381615278565b82525050565b60006020820190506152ae600083018461528a565b92915050565b6000806000606084860312156152cd576152cc6149ec565b5b60006152db86828701614aab565b93505060206152ec86828701614a0d565b92505060406152fd86828701614a0d565b9150509250925092565b7f4e487b7100000000000000000000000000000000000000000000000000000000600052603260045260246000fd5b7f4e487b7100000000000000000000000000000000000000000000000000000000600052601160045260246000fd5b6000615370826149ae565b915061537b836149ae565b925082820190508082111561539357615392615336565b5b92915050565b60006153a4826149ae565b91506153af836149ae565b92508282039050818111156153c7576153c6615336565b5b92915050565b7f4e6f7420656e6f756768206372797374616c7320746f2073656c6c0000000000600082015250565b6000615403601b83614dfb565b915061540e826153cd565b602082019050919050565b60006020820190508181036000830152615432816153f6565b9050919050565b7f52657761726420646973747269627574696f6e20696e2070726f67726573732e60008201527f20506c656173652074727920616761696e206c617465722e0000000000000000602082015250565b6000615495603883614dfb565b91506154a082615439565b604082019050919050565b600060208201905081810360008301526154c481615488565b9050919050565b60006154d6826149ae565b91506154e1836149ae565b92508282026154ef816149ae565b9150828204841483151761550657615505615336565b5b5092915050565b7f4e487b7100000000000000000000000000000000000000000000000000000000600052601260045260246000fd5b6000615547826149ae565b9150615552836149ae565b9250826155625761556161550d565b5b828204905092915050565b7f4e487b7100000000000000000000000000000000000000000000000000000000600052602260045260246000fd5b600060028204905060018216806155b457607f821691505b6020821081036155c7576155c661556d565b5b50919050565b7f4d7573742073656e642043524f20746f2062757920746f6b656e730000000000600082015250565b6000615603601b83614dfb565b915061560e826155cd565b602082019050919050565b60006020820190508181036000830152615632816155f6565b9050919050565b60008151905061564881614af9565b92915050565b600060208284031215615664576156636149ec565b5b600061567284828501615639565b91505092915050565b7f4e6f74206f6e207468652077686974656c697374210000000000000000000000600082015250565b60006156b1601583614dfb565b91506156bc8261567b565b602082019050919050565b600060208201905081810360008301526156e0816156a4565b9050919050565b7f53616c65206973206e6f7420796574206f70656e210000000000000000000000600082015250565b600061571d601583614dfb565b9150615728826156e7565b602082019050919050565b6000602082019050818103600083015261574c81615710565b9050919050565b7f4e6f7420656e6f7567682043524f20746f2062757920746f6b656e7300000000600082015250565b6000615789601c83614dfb565b915061579482615753565b602082019050919050565b600060208201905081810360008301526157b88161577c565b9050919050565b60006080820190506157d460008301876149b8565b6157e160208301866149b8565b6157ee60408301856149b8565b6157fb60608301846149b8565b95945050505050565b60008190508160005260206000209050919050565b60006020601f8301049050919050565b600082821b905092915050565b6000600883026158667fffffffffffffffffffffffffffffffffffffffffffffffffffffffffffffffff82615829565b6158708683615829565b95508019841693508086168417925050509392505050565b60006158a361589e615899846149ae565b614b52565b6149ae565b9050919050565b6000819050919050565b6158bd83615888565b6158d16158c9826158aa565b848454615836565b825550505050565b600090565b6158e66158d9565b6158f18184846158b4565b505050565b5b818110156159155761590a6000826158de565b6001810190506158f7565b5050565b601f82111561595a5761592b81615804565b61593484615819565b81016020851015615943578190505b61595761594f85615819565b8301826158f6565b50505b505050565b600082821c905092915050565b600061597d6000198460080261595f565b1980831691505092915050565b6000615996838361596c565b9150826002028217905092915050565b6159af82614df0565b67ffffffffffffffff8111156159c8576159c7614be2565b5b6159d2825461559c565b6159dd828285615919565b600060209050601f831160018114615a1057600084156159fe578287015190505b615a08858261598a565b865550615a70565b601f198416615a1e86615804565b60005b82811015615a4657848901518255600182019150602085019450602081019050615a21565b86831015615a635784890151615a5f601f89168261596c565b8355505b6001600288020188555050505b505050505050565b7f446973747269627574696f6e206e6f7420696e697469616c697a656421000000600082015250565b6000615aae601d83614dfb565b9150615ab982615a78565b602082019050919050565b60006020820190508181036000830152615add81615aa1565b9050919050565b7f56616c7565206d757374206265206265747765656e203020616e642032300000600082015250565b6000615b1a601e83614dfb565b9150615b2582615ae4565b602082019050919050565b60006020820190508181036000830152615b4981615b0d565b9050919050565b6000615b5b82614b7e565b9050919050565b615b6b81615b50565b82525050565b6000606082019050615b866000830186615b62565b615b93602083018561517f565b615ba060408301846149b8565b949350505050565b7f4e6f2043524f206f776564000000000000000000000000000000000000000000600082015250565b6000615bde600b83614dfb565b9150615be982615ba8565b602082019050919050565b60006020820190508181036000830152615c0d81615bd1565b9050919050565b7f47656d207479706520646f6573206e6f74206578697374000000000000000000600082015250565b6000615c4a601783614dfb565b9150615c5582615c14565b602082019050919050565b60006020820190508181036000830152615c7981615c3d565b9050919050565b7f4e6f7420656e6f7567682067656d7320746f2073656c6c000000000000000000600082015250565b6000615cb6601783614dfb565b9150615cc182615c80565b602082019050919050565b60006020820190508181036000830152615ce581615ca9565b9050919050565b7f43616c6c6572206973206e6f7420616e2061646d696e00000000000000000000600082015250565b6000615d22601683614dfb565b9150615d2d82615cec565b602082019050919050565b60006020820190508181036000830152615d5181615d15565b9050919050565b6000615d63826149ae565b91507fffffffffffffffffffffffffffffffffffffffffffffffffffffffffffffffff8203615d9557615d94615336565b5b600182019050919050565b6000606082019050615db5600083018661517f565b615dc26020830185615b62565b615dcf60408301846149b8565b949350505050565b7f4e6f7420656e6f756768207370656e6461626c6520746f6b656e2e0000000000600082015250565b6000615e0d601b83614dfb565b9150615e1882615dd7565b602082019050919050565b60006020820190508181036000830152615e3c81615e00565b905091905056fea264697066735822122078108b733b69be26a4a62bc1aa329b3965e816b072ddd2c9d5248621c6bd035364736f6c634300081c0033",
  "linkReferences": {},
  "deployedLinkReferences": {}
}