{
  "_format": "hh-sol-artifact-1",
  "contractName": "InterludePlatform",
  "sourceName": "contracts/InterludePlatform.sol",
  "abi": [
    {
      "inputs": [
        {
          "internalType": "address payable",
          "name": "_owner",
          "type": "address"
        },
        {
          "internalType": "address",
          "name": "tokenAddress",
          "type": "address"
        }
      ],
      "stateMutability": "nonpayable",
      "type": "constructor"
    },
    {
      "inputs": [
        {
          "internalType": "address",
          "name": "owner",
          "type": "address"
        }
      ],
      "name": "OwnableInvalidOwner",
      "type": "error"
    },
    {
      "inputs": [
        {
          "internalType": "address",
          "name": "account",
          "type": "address"
        }
      ],
      "name": "OwnableUnauthorizedAccount",
      "type": "error"
    },
    {
      "anonymous": false,
      "inputs": [
        {
          "indexed": true,
          "internalType": "address",
          "name": "owner",
          "type": "address"
        },
        {
          "indexed": false,
          "internalType": "uint256",
          "name": "amount",
          "type": "uint256"
        }
      ],
      "name": "EarningsClaim",
      "type": "event"
    },
    {
      "anonymous": false,
      "inputs": [
        {
          "indexed": true,
          "internalType": "address",
          "name": "owner",
          "type": "address"
        },
        {
          "indexed": false,
          "internalType": "uint256",
          "name": "energyAmount",
          "type": "uint256"
        }
      ],
      "name": "EnergyCollected",
      "type": "event"
    },
    {
      "anonymous": false,
      "inputs": [
        {
          "indexed": true,
          "internalType": "address",
          "name": "previousOwner",
          "type": "address"
        },
        {
          "indexed": true,
          "internalType": "address",
          "name": "newOwner",
          "type": "address"
        }
      ],
      "name": "OwnershipTransferred",
      "type": "event"
    },
    {
      "anonymous": false,
      "inputs": [
        {
          "indexed": true,
          "internalType": "address",
          "name": "owner",
          "type": "address"
        },
        {
          "indexed": false,
          "internalType": "uint256",
          "name": "croAmount",
          "type": "uint256"
        },
        {
          "indexed": false,
          "internalType": "uint256",
          "name": "intAmount",
          "type": "uint256"
        }
      ],
      "name": "ReferralBonusClaim",
      "type": "event"
    },
    {
      "anonymous": false,
      "inputs": [
        {
          "indexed": true,
          "internalType": "address",
          "name": "from",
          "type": "address"
        },
        {
          "indexed": true,
          "internalType": "address",
          "name": "to",
          "type": "address"
        },
        {
          "indexed": false,
          "internalType": "uint256",
          "name": "value",
          "type": "uint256"
        },
        {
          "indexed": false,
          "internalType": "uint256",
          "name": "referrerCroBonus",
          "type": "uint256"
        },
        {
          "indexed": false,
          "internalType": "uint256",
          "name": "referrerIntBonus",
          "type": "uint256"
        },
        {
          "indexed": false,
          "internalType": "uint256",
          "name": "referredIntBonus",
          "type": "uint256"
        }
      ],
      "name": "TokenPurchase",
      "type": "event"
    },
    {
      "inputs": [],
      "name": "accumulatedCro",
      "outputs": [
        {
          "internalType": "uint256",
          "name": "",
          "type": "uint256"
        }
      ],
      "stateMutability": "view",
      "type": "function"
    },
    {
      "inputs": [
        {
          "internalType": "string",
          "name": "assetName",
          "type": "string"
        },
        {
          "internalType": "uint256",
          "name": "power",
          "type": "uint256"
        },
        {
          "internalType": "uint256",
          "name": "unscaledPrice",
          "type": "uint256"
        },
        {
          "internalType": "bool",
          "name": "isCrystal",
          "type": "bool"
        }
      ],
      "name": "addAsset",
      "outputs": [],
      "stateMutability": "nonpayable",
      "type": "function"
    },
    {
      "inputs": [],
      "name": "adminWhitelist",
      "outputs": [
        {
          "internalType": "contract IWhitelist",
          "name": "",
          "type": "address"
        }
      ],
      "stateMutability": "view",
      "type": "function"
    },
    {
      "inputs": [
        {
          "internalType": "uint256",
          "name": "",
          "type": "uint256"
        }
      ],
      "name": "allUsers",
      "outputs": [
        {
          "internalType": "address",
          "name": "",
          "type": "address"
        }
      ],
      "stateMutability": "view",
      "type": "function"
    },
    {
      "inputs": [
        {
          "internalType": "uint256",
          "name": "crystalType",
          "type": "uint256"
        },
        {
          "internalType": "uint256",
          "name": "amount",
          "type": "uint256"
        }
      ],
      "name": "buyCrystal",
      "outputs": [],
      "stateMutability": "nonpayable",
      "type": "function"
    },
    {
      "inputs": [
        {
          "internalType": "uint256",
          "name": "gemType",
          "type": "uint256"
        },
        {
          "internalType": "uint256",
          "name": "amount",
          "type": "uint256"
        }
      ],
      "name": "buyGem",
      "outputs": [],
      "stateMutability": "nonpayable",
      "type": "function"
    },
    {
      "inputs": [
        {
          "internalType": "address",
          "name": "referralAddress",
          "type": "address"
        }
      ],
      "name": "buyToken",
      "outputs": [],
      "stateMutability": "payable",
      "type": "function"
    },
    {
      "inputs": [
        {
          "internalType": "address",
          "name": "user",
          "type": "address"
        }
      ],
      "name": "calculateUserEarnings",
      "outputs": [
        {
          "internalType": "uint256",
          "name": "",
          "type": "uint256"
        }
      ],
      "stateMutability": "view",
      "type": "function"
    },
    {
      "inputs": [],
      "name": "claimEarnings",
      "outputs": [],
      "stateMutability": "nonpayable",
      "type": "function"
    },
    {
      "inputs": [],
      "name": "claimReferralBonus",
      "outputs": [],
      "stateMutability": "nonpayable",
      "type": "function"
    },
    {
      "inputs": [
        {
          "internalType": "address",
          "name": "user",
          "type": "address"
        }
      ],
      "name": "collectEnergy",
      "outputs": [
        {
          "internalType": "uint256",
          "name": "",
          "type": "uint256"
        }
      ],
      "stateMutability": "nonpayable",
      "type": "function"
    },
    {
      "inputs": [
        {
          "internalType": "address",
          "name": "",
          "type": "address"
        }
      ],
      "name": "collectedEnergy",
      "outputs": [
        {
          "internalType": "uint256",
          "name": "",
          "type": "uint256"
        }
      ],
      "stateMutability": "view",
      "type": "function"
    },
    {
      "inputs": [
        {
          "internalType": "uint256",
          "name": "",
          "type": "uint256"
        }
      ],
      "name": "crystals",
      "outputs": [
        {
          "internalType": "string",
          "name": "name",
          "type": "string"
        },
        {
          "internalType": "uint256",
          "name": "power",
          "type": "uint256"
        },
        {
          "internalType": "uint256",
          "name": "unscaledPrice",
          "type": "uint256"
        }
      ],
      "stateMutability": "view",
      "type": "function"
    },
    {
      "inputs": [
        {
          "internalType": "address",
          "name": "",
          "type": "address"
        }
      ],
      "name": "currentCrystalPower",
      "outputs": [
        {
          "internalType": "uint256",
          "name": "",
          "type": "uint256"
        }
      ],
      "stateMutability": "view",
      "type": "function"
    },
    {
      "inputs": [
        {
          "internalType": "address",
          "name": "",
          "type": "address"
        }
      ],
      "name": "currentGemPower",
      "outputs": [
        {
          "internalType": "uint256",
          "name": "",
          "type": "uint256"
        }
      ],
      "stateMutability": "view",
      "type": "function"
    },
    {
      "inputs": [],
      "name": "currentPhase",
      "outputs": [
        {
          "internalType": "uint256",
          "name": "",
          "type": "uint256"
        }
      ],
      "stateMutability": "view",
      "type": "function"
    },
    {
      "inputs": [],
      "name": "distributionInProgress",
      "outputs": [
        {
          "internalType": "bool",
          "name": "",
          "type": "bool"
        }
      ],
      "stateMutability": "view",
      "type": "function"
    },
    {
      "inputs": [
        {
          "internalType": "address",
          "name": "user",
          "type": "address"
        }
      ],
      "name": "eligibleForReferral",
      "outputs": [
        {
          "internalType": "bool",
          "name": "",
          "type": "bool"
        }
      ],
      "stateMutability": "view",
      "type": "function"
    },
    {
      "inputs": [
        {
          "internalType": "address",
          "name": "",
          "type": "address"
        }
      ],
      "name": "firstPurchasePhase",
      "outputs": [
        {
          "internalType": "uint256",
          "name": "",
          "type": "uint256"
        }
      ],
      "stateMutability": "view",
      "type": "function"
    },
    {
      "inputs": [],
      "name": "flush",
      "outputs": [],
      "stateMutability": "nonpayable",
      "type": "function"
    },
    {
      "inputs": [
        {
          "internalType": "uint256",
          "name": "",
          "type": "uint256"
        }
      ],
      "name": "gems",
      "outputs": [
        {
          "internalType": "string",
          "name": "name",
          "type": "string"
        },
        {
          "internalType": "uint256",
          "name": "power",
          "type": "uint256"
        },
        {
          "internalType": "uint256",
          "name": "unscaledPrice",
          "type": "uint256"
        }
      ],
      "stateMutability": "view",
      "type": "function"
    },
    {
      "inputs": [],
      "name": "generalWhitelist",
      "outputs": [
        {
          "internalType": "contract IWhitelist",
          "name": "",
          "type": "address"
        }
      ],
      "stateMutability": "view",
      "type": "function"
    },
    {
      "inputs": [
        {
          "internalType": "address",
          "name": "",
          "type": "address"
        }
      ],
      "name": "generatedEnergy",
      "outputs": [
        {
          "internalType": "uint256",
          "name": "",
          "type": "uint256"
        }
      ],
      "stateMutability": "view",
      "type": "function"
    },
    {
      "inputs": [
        {
          "internalType": "address",
          "name": "user",
          "type": "address"
        }
      ],
      "name": "getCrystals",
      "outputs": [
        {
          "internalType": "uint256[]",
          "name": "",
          "type": "uint256[]"
        }
      ],
      "stateMutability": "view",
      "type": "function"
    },
    {
      "inputs": [
        {
          "internalType": "address",
          "name": "user",
          "type": "address"
        }
      ],
      "name": "getGems",
      "outputs": [
        {
          "internalType": "uint256[]",
          "name": "",
          "type": "uint256[]"
        }
      ],
      "stateMutability": "view",
      "type": "function"
    },
    {
      "inputs": [
        {
          "internalType": "address",
          "name": "user",
          "type": "address"
        },
        {
          "internalType": "uint256",
          "name": "amount",
          "type": "uint256"
        }
      ],
      "name": "giveTokenTo",
      "outputs": [],
      "stateMutability": "nonpayable",
      "type": "function"
    },
    {
      "inputs": [
        {
          "internalType": "address",
          "name": "user",
          "type": "address"
        },
        {
          "internalType": "uint256",
          "name": "amount",
          "type": "uint256"
        }
      ],
      "name": "giveUnclaimedEarnings",
      "outputs": [],
      "stateMutability": "nonpayable",
      "type": "function"
    },
    {
      "inputs": [],
      "name": "initializeUsersEarningsUpdate",
      "outputs": [],
      "stateMutability": "nonpayable",
      "type": "function"
    },
    {
      "inputs": [
        {
          "internalType": "address",
          "name": "",
          "type": "address"
        }
      ],
      "name": "investmentAllowance",
      "outputs": [
        {
          "internalType": "uint256",
          "name": "",
          "type": "uint256"
        }
      ],
      "stateMutability": "view",
      "type": "function"
    },
    {
      "inputs": [
        {
          "internalType": "address",
          "name": "",
          "type": "address"
        }
      ],
      "name": "lastTimeEnergyComputed",
      "outputs": [
        {
          "internalType": "uint256",
          "name": "",
          "type": "uint256"
        }
      ],
      "stateMutability": "view",
      "type": "function"
    },
    {
      "inputs": [
        {
          "internalType": "address",
          "name": "user",
          "type": "address"
        },
        {
          "internalType": "uint256",
          "name": "crystalType",
          "type": "uint256"
        },
        {
          "internalType": "uint256",
          "name": "amount",
          "type": "uint256"
        }
      ],
      "name": "mintCrystal",
      "outputs": [],
      "stateMutability": "nonpayable",
      "type": "function"
    },
    {
      "inputs": [],
      "name": "nbUserUpdated",
      "outputs": [
        {
          "internalType": "uint256",
          "name": "",
          "type": "uint256"
        }
      ],
      "stateMutability": "view",
      "type": "function"
    },
    {
      "inputs": [],
      "name": "onlyAllowWhitelisted",
      "outputs": [
        {
          "internalType": "bool",
          "name": "",
          "type": "bool"
        }
      ],
      "stateMutability": "view",
      "type": "function"
    },
    {
      "inputs": [],
      "name": "owner",
      "outputs": [
        {
          "internalType": "address",
          "name": "",
          "type": "address"
        }
      ],
      "stateMutability": "view",
      "type": "function"
    },
    {
      "inputs": [],
      "name": "partnersWhitelist",
      "outputs": [
        {
          "internalType": "contract IWhitelist",
          "name": "",
          "type": "address"
        }
      ],
      "stateMutability": "view",
      "type": "function"
    },
    {
      "inputs": [],
      "name": "referredIntBonusPercentage",
      "outputs": [
        {
          "internalType": "uint256",
          "name": "",
          "type": "uint256"
        }
      ],
      "stateMutability": "view",
      "type": "function"
    },
    {
      "inputs": [],
      "name": "referrerCroBonusPercentage",
      "outputs": [
        {
          "internalType": "uint256",
          "name": "",
          "type": "uint256"
        }
      ],
      "stateMutability": "view",
      "type": "function"
    },
    {
      "inputs": [],
      "name": "referrerIntBonusPercentage",
      "outputs": [
        {
          "internalType": "uint256",
          "name": "",
          "type": "uint256"
        }
      ],
      "stateMutability": "view",
      "type": "function"
    },
    {
      "inputs": [],
      "name": "renounceOwnership",
      "outputs": [],
      "stateMutability": "nonpayable",
      "type": "function"
    },
    {
      "inputs": [
        {
          "internalType": "bool",
          "name": "_restricted",
          "type": "bool"
        }
      ],
      "name": "restrictReferralProgram",
      "outputs": [],
      "stateMutability": "nonpayable",
      "type": "function"
    },
    {
      "inputs": [],
      "name": "restrictReferralProgramToPartners",
      "outputs": [
        {
          "internalType": "bool",
          "name": "",
          "type": "bool"
        }
      ],
      "stateMutability": "view",
      "type": "function"
    },
    {
      "inputs": [
        {
          "internalType": "uint256",
          "name": "crystalType",
          "type": "uint256"
        },
        {
          "internalType": "uint256",
          "name": "amount",
          "type": "uint256"
        }
      ],
      "name": "sellCrystal",
      "outputs": [],
      "stateMutability": "nonpayable",
      "type": "function"
    },
    {
      "inputs": [
        {
          "internalType": "uint256",
          "name": "gemType",
          "type": "uint256"
        },
        {
          "internalType": "uint256",
          "name": "amount",
          "type": "uint256"
        }
      ],
      "name": "sellGem",
      "outputs": [],
      "stateMutability": "nonpayable",
      "type": "function"
    },
    {
      "inputs": [
        {
          "internalType": "address",
          "name": "_adminWhitelist",
          "type": "address"
        }
      ],
      "name": "setAdminWhitelist",
      "outputs": [],
      "stateMutability": "nonpayable",
      "type": "function"
    },
    {
      "inputs": [
        {
          "internalType": "address",
          "name": "_generalWhitelist",
          "type": "address"
        }
      ],
      "name": "setGeneralWhitelist",
      "outputs": [],
      "stateMutability": "nonpayable",
      "type": "function"
    },
    {
      "inputs": [
        {
          "internalType": "bool",
          "name": "_onlyAllowWhitelisted",
          "type": "bool"
        }
      ],
      "name": "setOnlyWhitelist",
      "outputs": [],
      "stateMutability": "nonpayable",
      "type": "function"
    },
    {
      "inputs": [
        {
          "internalType": "address",
          "name": "_partnersWhitelist",
          "type": "address"
        }
      ],
      "name": "setPartnersWhitelist",
      "outputs": [],
      "stateMutability": "nonpayable",
      "type": "function"
    },
    {
      "inputs": [
        {
          "internalType": "uint256",
          "name": "_referrerCroBonusPercentage",
          "type": "uint256"
        },
        {
          "internalType": "uint256",
          "name": "_referrerIntBonusPercentage",
          "type": "uint256"
        },
        {
          "internalType": "uint256",
          "name": "_referredIntBonusPercentage",
          "type": "uint256"
        }
      ],
      "name": "setReferralBonusesPercentages",
      "outputs": [],
      "stateMutability": "nonpayable",
      "type": "function"
    },
    {
      "inputs": [
        {
          "internalType": "uint256",
          "name": "_startDate",
          "type": "uint256"
        }
      ],
      "name": "setStartDate",
      "outputs": [],
      "stateMutability": "nonpayable",
      "type": "function"
    },
    {
      "inputs": [
        {
          "components": [
            {
              "internalType": "uint256",
              "name": "size",
              "type": "uint256"
            },
            {
              "internalType": "uint256",
              "name": "price",
              "type": "uint256"
            }
          ],
          "internalType": "struct InterludePlatform.Step[]",
          "name": "_steps",
          "type": "tuple[]"
        }
      ],
      "name": "setSteps",
      "outputs": [],
      "stateMutability": "nonpayable",
      "type": "function"
    },
    {
      "inputs": [
        {
          "internalType": "uint256",
          "name": "_updateBatchSize",
          "type": "uint256"
        }
      ],
      "name": "setUpdateBatchSize",
      "outputs": [],
      "stateMutability": "nonpayable",
      "type": "function"
    },
    {
      "inputs": [
        {
          "internalType": "address",
          "name": "",
          "type": "address"
        }
      ],
      "name": "spendableTokens",
      "outputs": [
        {
          "internalType": "uint256",
          "name": "",
          "type": "uint256"
        }
      ],
      "stateMutability": "view",
      "type": "function"
    },
    {
      "inputs": [],
      "name": "startDate",
      "outputs": [
        {
          "internalType": "uint256",
          "name": "",
          "type": "uint256"
        }
      ],
      "stateMutability": "view",
      "type": "function"
    },
    {
      "inputs": [
        {
          "internalType": "uint256",
          "name": "",
          "type": "uint256"
        }
      ],
      "name": "steps",
      "outputs": [
        {
          "internalType": "uint256",
          "name": "size",
          "type": "uint256"
        },
        {
          "internalType": "uint256",
          "name": "price",
          "type": "uint256"
        }
      ],
      "stateMutability": "view",
      "type": "function"
    },
    {
      "inputs": [],
      "name": "token",
      "outputs": [
        {
          "internalType": "contract MyPausableToken",
          "name": "",
          "type": "address"
        }
      ],
      "stateMutability": "view",
      "type": "function"
    },
    {
      "inputs": [
        {
          "internalType": "address",
          "name": "",
          "type": "address"
        }
      ],
      "name": "totalClaimed",
      "outputs": [
        {
          "internalType": "uint256",
          "name": "",
          "type": "uint256"
        }
      ],
      "stateMutability": "view",
      "type": "function"
    },
    {
      "inputs": [
        {
          "internalType": "address",
          "name": "",
          "type": "address"
        }
      ],
      "name": "totalClaimedCroReferralBonus",
      "outputs": [
        {
          "internalType": "uint256",
          "name": "",
          "type": "uint256"
        }
      ],
      "stateMutability": "view",
      "type": "function"
    },
    {
      "inputs": [
        {
          "internalType": "address",
          "name": "",
          "type": "address"
        }
      ],
      "name": "totalClaimedIntReferralBonus",
      "outputs": [
        {
          "internalType": "uint256",
          "name": "",
          "type": "uint256"
        }
      ],
      "stateMutability": "view",
      "type": "function"
    },
    {
      "inputs": [],
      "name": "totalCroToDistribute",
      "outputs": [
        {
          "internalType": "uint256",
          "name": "",
          "type": "uint256"
        }
      ],
      "stateMutability": "view",
      "type": "function"
    },
    {
      "inputs": [],
      "name": "totalCrystalPower",
      "outputs": [
        {
          "internalType": "uint256",
          "name": "",
          "type": "uint256"
        }
      ],
      "stateMutability": "view",
      "type": "function"
    },
    {
      "inputs": [],
      "name": "totalGemPower",
      "outputs": [
        {
          "internalType": "uint256",
          "name": "",
          "type": "uint256"
        }
      ],
      "stateMutability": "view",
      "type": "function"
    },
    {
      "inputs": [],
      "name": "totalIntInCrystals",
      "outputs": [
        {
          "internalType": "uint256",
          "name": "",
          "type": "uint256"
        }
      ],
      "stateMutability": "view",
      "type": "function"
    },
    {
      "inputs": [],
      "name": "totalIntInGems",
      "outputs": [
        {
          "internalType": "uint256",
          "name": "",
          "type": "uint256"
        }
      ],
      "stateMutability": "view",
      "type": "function"
    },
    {
      "inputs": [
        {
          "internalType": "address",
          "name": "",
          "type": "address"
        }
      ],
      "name": "totalInvested",
      "outputs": [
        {
          "internalType": "uint256",
          "name": "",
          "type": "uint256"
        }
      ],
      "stateMutability": "view",
      "type": "function"
    },
    {
      "inputs": [],
      "name": "totalPriceUnitsInCrystals",
      "outputs": [
        {
          "internalType": "uint256",
          "name": "",
          "type": "uint256"
        }
      ],
      "stateMutability": "view",
      "type": "function"
    },
    {
      "inputs": [],
      "name": "totalSold",
      "outputs": [
        {
          "internalType": "uint256",
          "name": "",
          "type": "uint256"
        }
      ],
      "stateMutability": "view",
      "type": "function"
    },
    {
      "inputs": [],
      "name": "totalUsers",
      "outputs": [
        {
          "internalType": "uint256",
          "name": "",
          "type": "uint256"
        }
      ],
      "stateMutability": "view",
      "type": "function"
    },
    {
      "inputs": [
        {
          "internalType": "address",
          "name": "newOwner",
          "type": "address"
        }
      ],
      "name": "transferOwnership",
      "outputs": [],
      "stateMutability": "nonpayable",
      "type": "function"
    },
    {
      "inputs": [
        {
          "internalType": "address",
          "name": "",
          "type": "address"
        }
      ],
      "name": "unclaimedCroReferralBonus",
      "outputs": [
        {
          "internalType": "uint256",
          "name": "",
          "type": "uint256"
        }
      ],
      "stateMutability": "view",
      "type": "function"
    },
    {
      "inputs": [
        {
          "internalType": "address",
          "name": "",
          "type": "address"
        }
      ],
      "name": "unclaimedEarnings",
      "outputs": [
        {
          "internalType": "uint256",
          "name": "",
          "type": "uint256"
        }
      ],
      "stateMutability": "view",
      "type": "function"
    },
    {
      "inputs": [
        {
          "internalType": "address",
          "name": "",
          "type": "address"
        }
      ],
      "name": "unclaimedIntReferralBonus",
      "outputs": [
        {
          "internalType": "uint256",
          "name": "",
          "type": "uint256"
        }
      ],
      "stateMutability": "view",
      "type": "function"
    },
    {
      "inputs": [],
      "name": "updateAllUsersEarnings",
      "outputs": [],
      "stateMutability": "nonpayable",
      "type": "function"
    },
    {
      "inputs": [
        {
          "internalType": "uint256",
          "name": "index",
          "type": "uint256"
        },
        {
          "internalType": "uint256",
          "name": "_power",
          "type": "uint256"
        },
        {
          "internalType": "uint256",
          "name": "_unscaledPrice",
          "type": "uint256"
        },
        {
          "internalType": "bool",
          "name": "isCrystal",
          "type": "bool"
        }
      ],
      "name": "updateAsset",
      "outputs": [],
      "stateMutability": "nonpayable",
      "type": "function"
    },
    {
      "inputs": [],
      "name": "updateBatchSize",
      "outputs": [
        {
          "internalType": "uint256",
          "name": "",
          "type": "uint256"
        }
      ],
      "stateMutability": "view",
      "type": "function"
    },
    {
      "inputs": [
        {
          "internalType": "address",
          "name": "",
          "type": "address"
        },
        {
          "internalType": "uint256",
          "name": "",
          "type": "uint256"
        }
      ],
      "name": "userCrystals",
      "outputs": [
        {
          "internalType": "uint256",
          "name": "",
          "type": "uint256"
        }
      ],
      "stateMutability": "view",
      "type": "function"
    },
    {
      "inputs": [
        {
          "internalType": "address",
          "name": "",
          "type": "address"
        },
        {
          "internalType": "uint256",
          "name": "",
          "type": "uint256"
        }
      ],
      "name": "userGems",
      "outputs": [
        {
          "internalType": "uint256",
          "name": "",
          "type": "uint256"
        }
      ],
      "stateMutability": "view",
      "type": "function"
    },
    {
      "stateMutability": "payable",
      "type": "receive"
    }
  ],
  "bytecode": "0x60806040526000600e556001600f5560016010556001601155600160125560016013556000601a60006101000a81548160ff0219169083151502179055506000601b556014601c55600a602255600a602355600f6024556000602960006101000a81548160ff02191690831515021790555034801561007d57600080fd5b506040516160d23803806160d2833981810160405281019061009f91906102cf565b81600073ffffffffffffffffffffffffffffffffffffffff168173ffffffffffffffffffffffffffffffffffffffff16036101125760006040517f1e4fbdf7000000000000000000000000000000000000000000000000000000008152600401610109919061031e565b60405180910390fd5b6101218161016a60201b60201c565b5080600260006101000a81548173ffffffffffffffffffffffffffffffffffffffff021916908373ffffffffffffffffffffffffffffffffffffffff1602179055505050610339565b60008060009054906101000a900473ffffffffffffffffffffffffffffffffffffffff169050816000806101000a81548173ffffffffffffffffffffffffffffffffffffffff021916908373ffffffffffffffffffffffffffffffffffffffff1602179055508173ffffffffffffffffffffffffffffffffffffffff168173ffffffffffffffffffffffffffffffffffffffff167f8be0079c531659141344cd1fd0a4f28419497f9722a3daafe3b4186f6b6457e060405160405180910390a35050565b600080fd5b600073ffffffffffffffffffffffffffffffffffffffff82169050919050565b600061025e82610233565b9050919050565b61026e81610253565b811461027957600080fd5b50565b60008151905061028b81610265565b92915050565b600061029c82610233565b9050919050565b6102ac81610291565b81146102b757600080fd5b50565b6000815190506102c9816102a3565b92915050565b600080604083850312156102e6576102e561022e565b5b60006102f48582860161027c565b9250506020610305858286016102ba565b9150509250929050565b61031881610291565b82525050565b6000602082019050610333600083018461030f565b92915050565b615d8a806103486000396000f3fe60806040526004361061044b5760003560e01c806388185e0311610234578063c7a183471161012e578063e1dc75d2116100b6578063f9d702001161007a578063f9d7020014611162578063fc0c546a1461118b578063fcb966d7146111b6578063fd239fd9146111e1578063ff5133cd1461121e57610452565b8063e1dc75d21461106d578063ef49968a14611096578063ef5d9ae8146110d3578063f226de9714611110578063f2fde38b1461113957610452565b8063d7e14e13116100fd578063d7e14e1314610f9a578063d9ceab1314610fc5578063dc0c6a2a14610fdc578063de473f8d14611007578063df13c9ca1461104457610452565b8063c7a1834714610ecc578063c8da5ef514610f09578063ce54d6e114610f34578063d4a444b414610f5d57610452565b80639c20097a116101bc578063ba51cf0711610180578063ba51cf0714610df9578063bbaa117714610e10578063bc3de74914610e3b578063bff1f9e114610e64578063c70e12cb14610e8f57610452565b80639c20097a14610cfe578063a1f0406d14610d15578063a2bdedf414610d54578063a54dfaad14610d91578063af28728c14610dce57610452565b806390838e091161020357806390838e0914610bf357806390c757eb14610c305780639106d7ba14610c6d57806393dbc75714610c9857806395ae847814610cc157610452565b806388185e0314610b375780638bbcf97614610b745780638da5cb5b14610b9d5780638e84a0d814610bc857610452565b80634e358662116103455780636b9f96ea116102cd5780637e72fb52116102915780637e72fb5214610a6157806382d95df514610a7d578063868b91ac14610aa6578063869c865e14610ad1578063876cf0ef14610afa57610452565b80636b9f96ea1461098f5780636de62ea7146109a6578063715018a6146109e35780637217e0b9146109fa5780637d848db214610a3857610452565b806351484a191161031457806351484a19146108a85780636143440c146108e55780636182a57d1461090e57806362476bed1461093957806366d74c801461096457610452565b80634e358662146107ea5780634ed9b7f61461082757806350614c561461085257806350a3eaf01461087d57610452565b8063206a5dbc116103d357806331b3ab3f1161039757806331b3ab3f146106b757806333298463146106f6578063376f96711461073357806347315ec4146107705780634a5f58c7146107ad57610452565b8063206a5dbc146105d257806321622c63146105fd57806323ada7171461062657806329e0f88d146106635780632b4c73e51461068c57610452565b80630b97bc861161041a5780630b97bc86146104ff578063109d75d51461052a5780631dd02b4b146105675780631e375ab9146105905780631ff9e2b2146105a757610452565b80630355d20c14610457578063055ad42e1461048057806308d317dd146104ab5780630ae19ba8146104d457610452565b3661045257005b600080fd5b34801561046357600080fd5b5061047e6004803603810190610479919061498f565b611247565b005b34801561048c57600080fd5b506104956112a9565b6040516104a291906149de565b60405180910390f35b3480156104b757600080fd5b506104d260048036038101906104cd91906149f9565b611345565b005b3480156104e057600080fd5b506104e9611605565b6040516104f691906149de565b60405180910390f35b34801561050b57600080fd5b5061051461160b565b60405161052191906149de565b60405180910390f35b34801561053657600080fd5b50610551600480360381019061054c9190614a39565b611611565b60405161055e91906149de565b60405180910390f35b34801561057357600080fd5b5061058e60048036038101906105899190614a9e565b61174e565b005b34801561059c57600080fd5b506105a5611773565b005b3480156105b357600080fd5b506105bc6119d6565b6040516105c99190614b2a565b60405180910390f35b3480156105de57600080fd5b506105e76119fc565b6040516105f491906149de565b60405180910390f35b34801561060957600080fd5b50610624600480360381019061061f9190614cf3565b611a02565b005b34801561063257600080fd5b5061064d60048036038101906106489190614a39565b611ac7565b60405161065a91906149de565b60405180910390f35b34801561066f57600080fd5b5061068a60048036038101906106859190614a39565b611adf565b005b34801561069857600080fd5b506106a1611b2b565b6040516106ae91906149de565b60405180910390f35b3480156106c357600080fd5b506106de60048036038101906106d99190614d3c565b611b31565b6040516106ed93929190614de8565b60405180910390f35b34801561070257600080fd5b5061071d60048036038101906107189190614a39565b611bf3565b60405161072a91906149de565b60405180910390f35b34801561073f57600080fd5b5061075a60048036038101906107559190614a39565b611c0b565b60405161076791906149de565b60405180910390f35b34801561077c57600080fd5b5061079760048036038101906107929190614a39565b611c23565b6040516107a491906149de565b60405180910390f35b3480156107b957600080fd5b506107d460048036038101906107cf9190614a39565b611c3b565b6040516107e191906149de565b60405180910390f35b3480156107f657600080fd5b50610811600480360381019061080c9190614a39565b611c53565b60405161081e91906149de565b60405180910390f35b34801561083357600080fd5b5061083c611c6b565b6040516108499190614e35565b60405180910390f35b34801561085e57600080fd5b50610867611c7e565b6040516108749190614e35565b60405180910390f35b34801561088957600080fd5b50610892611c91565b60405161089f91906149de565b60405180910390f35b3480156108b457600080fd5b506108cf60048036038101906108ca9190614a39565b611c97565b6040516108dc91906149de565b60405180910390f35b3480156108f157600080fd5b5061090c60048036038101906109079190614a39565b611caf565b005b34801561091a57600080fd5b50610923611cfb565b60405161093091906149de565b60405180910390f35b34801561094557600080fd5b5061094e611d01565b60405161095b91906149de565b60405180910390f35b34801561097057600080fd5b50610979611d07565b6040516109869190614b2a565b60405180910390f35b34801561099b57600080fd5b506109a4611d2d565b005b3480156109b257600080fd5b506109cd60048036038101906109c89190614a39565b611d85565b6040516109da91906149de565b60405180910390f35b3480156109ef57600080fd5b506109f8611d9d565b005b348015610a0657600080fd5b50610a216004803603810190610a1c9190614d3c565b611db1565b604051610a2f929190614e50565b60405180910390f35b348015610a4457600080fd5b50610a5f6004803603810190610a5a9190614e79565b611de5565b005b610a7b6004803603810190610a769190614a39565b611ea7565b005b348015610a8957600080fd5b50610aa46004803603810190610a9f9190614d3c565b6123a5565b005b348015610ab257600080fd5b50610abb6123b7565b604051610ac891906149de565b60405180910390f35b348015610add57600080fd5b50610af86004803603810190610af39190614f95565b6123bd565b005b348015610b0657600080fd5b50610b216004803603810190610b1c9190614a39565b6124bb565b604051610b2e91906150d6565b60405180910390f35b348015610b4357600080fd5b50610b5e6004803603810190610b599190614a39565b6125a6565b604051610b6b91906150d6565b60405180910390f35b348015610b8057600080fd5b50610b9b6004803603810190610b969190614d3c565b612691565b005b348015610ba957600080fd5b50610bb26126a3565b604051610bbf9190615107565b60405180910390f35b348015610bd457600080fd5b50610bdd6126cc565b604051610bea9190614e35565b60405180910390f35b348015610bff57600080fd5b50610c1a6004803603810190610c159190614a39565b6126df565b604051610c2791906149de565b60405180910390f35b348015610c3c57600080fd5b50610c576004803603810190610c52919061498f565b6126f7565b604051610c6491906149de565b60405180910390f35b348015610c7957600080fd5b50610c8261271c565b604051610c8f91906149de565b60405180910390f35b348015610ca457600080fd5b50610cbf6004803603810190610cba9190614a39565b612722565b005b348015610ccd57600080fd5b50610ce86004803603810190610ce39190614a39565b61276e565b604051610cf591906149de565b60405180910390f35b348015610d0a57600080fd5b50610d13612786565b005b348015610d2157600080fd5b50610d3c6004803603810190610d379190614d3c565b61280c565b604051610d4b93929190614de8565b60405180910390f35b348015610d6057600080fd5b50610d7b6004803603810190610d769190614d3c565b6128ce565b604051610d889190615107565b60405180910390f35b348015610d9d57600080fd5b50610db86004803603810190610db39190614a39565b61290d565b604051610dc591906149de565b60405180910390f35b348015610dda57600080fd5b50610de3612925565b604051610df09190614b2a565b60405180910390f35b348015610e0557600080fd5b50610e0e61294b565b005b348015610e1c57600080fd5b50610e25612ae3565b604051610e3291906149de565b60405180910390f35b348015610e4757600080fd5b50610e626004803603810190610e5d9190615122565b612ae9565b005b348015610e7057600080fd5b50610e79612bfe565b604051610e8691906149de565b60405180910390f35b348015610e9b57600080fd5b50610eb66004803603810190610eb1919061498f565b612c04565b604051610ec391906149de565b60405180910390f35b348015610ed857600080fd5b50610ef36004803603810190610eee9190614a39565b612c29565b604051610f0091906149de565b60405180910390f35b348015610f1557600080fd5b50610f1e612c40565b604051610f2b91906149de565b60405180910390f35b348015610f4057600080fd5b50610f5b6004803603810190610f56919061498f565b612c46565b005b348015610f6957600080fd5b50610f846004803603810190610f7f9190614a39565b612d65565b604051610f9191906149de565b60405180910390f35b348015610fa657600080fd5b50610faf612d7d565b604051610fbc91906149de565b60405180910390f35b348015610fd157600080fd5b50610fda612d83565b005b348015610fe857600080fd5b50610ff1612f3d565b604051610ffe91906149de565b60405180910390f35b34801561101357600080fd5b5061102e60048036038101906110299190614a39565b612f43565b60405161103b9190614e35565b60405180910390f35b34801561105057600080fd5b5061106b60048036038101906110669190614a9e565b6131f2565b005b34801561107957600080fd5b50611094600480360381019061108f91906149f9565b613217565b005b3480156110a257600080fd5b506110bd60048036038101906110b89190614a39565b613441565b6040516110ca91906149de565b60405180910390f35b3480156110df57600080fd5b506110fa60048036038101906110f59190614a39565b613459565b60405161110791906149de565b60405180910390f35b34801561111c57600080fd5b50611137600480360381019061113291906149f9565b613471565b005b34801561114557600080fd5b50611160600480360381019061115b9190614a39565b6136f8565b005b34801561116e57600080fd5b50611189600480360381019061118491906149f9565b61377e565b005b34801561119757600080fd5b506111a06139ab565b6040516111ad9190615196565b60405180910390f35b3480156111c257600080fd5b506111cb6139d1565b6040516111d891906149de565b60405180910390f35b3480156111ed57600080fd5b5061120860048036038101906112039190614a39565b6139d7565b60405161121591906149de565b60405180910390f35b34801561122a57600080fd5b50611245600480360381019061124091906151b1565b613d87565b005b61124f6140d3565b80601860008473ffffffffffffffffffffffffffffffffffffffff1673ffffffffffffffffffffffffffffffffffffffff168152602001908152602001600020600082825461129e9190615233565b925050819055505050565b6000806000905060005b60038054905081101561132057600381815481106112d4576112d3615267565b5b906000526020600020906002020160000154826112f19190615233565b91508160055410156113135760018161130a9190615233565b92505050611342565b80806001019150506112b3565b506001806003805490506113349190615296565b61133e9190615233565b9150505b90565b6000600c838154811061135b5761135a615267565b5b9060005260206000209060030201600101541161137757600080fd5b80600d60003373ffffffffffffffffffffffffffffffffffffffff1673ffffffffffffffffffffffffffffffffffffffff168152602001908152602001600020600084815260200190815260200160002054101561140a576040517f08c379a000000000000000000000000000000000000000000000000000000000815260040161140190615316565b60405180910390fd5b601a60009054906101000a900460ff161561145a576040517f08c379a0000000000000000000000000000000000000000000000000000000008152600401611451906153a8565b60405180910390fd5b6114633361415a565b600081600c848154811061147a57611479615267565b5b90600052602060002090600302016001015461149691906153c8565b9050600082600c85815481106114af576114ae615267565b5b9060005260206000209060030201600201546114cb91906153c8565b90506000601354826012546114e091906153c8565b6114ea9190615439565b905081601360008282546114fe9190615296565b9250508190555080601260008282546115179190615296565b9250508190555082601060008282546115309190615296565b92505081905550611541338261428b565b83600d60003373ffffffffffffffffffffffffffffffffffffffff1673ffffffffffffffffffffffffffffffffffffffff168152602001908152602001600020600087815260200190815260200160002060008282546115a19190615296565b9250508190555082601560003373ffffffffffffffffffffffffffffffffffffffff1673ffffffffffffffffffffffffffffffffffffffff16815260200190815260200160002060008282546115f79190615296565b925050819055505050505050565b60135481565b60045481565b6000806011546012546116249190615233565b601154620f424061163591906153c8565b61163f9190615439565b905060006011546012546116539190615233565b601254620f424061166491906153c8565b61166e9190615439565b9050620f4240601054601560008773ffffffffffffffffffffffffffffffffffffffff1673ffffffffffffffffffffffffffffffffffffffff16815260200190815260200160002054836116c291906153c8565b6116cc9190615439565b600f54601460008873ffffffffffffffffffffffffffffffffffffffff1673ffffffffffffffffffffffffffffffffffffffff168152602001908152602001600020548561171a91906153c8565b6117249190615439565b61172e9190615233565b601d5461173b91906153c8565b6117459190615439565b92505050919050565b6117566140d3565b80600660006101000a81548160ff02191690831515021790555050565b6000602560003373ffffffffffffffffffffffffffffffffffffffff1673ffffffffffffffffffffffffffffffffffffffff1681526020019081526020016000205490506000602560003373ffffffffffffffffffffffffffffffffffffffff1673ffffffffffffffffffffffffffffffffffffffff16815260200190815260200160002081905550611806338261428b565b80602760003373ffffffffffffffffffffffffffffffffffffffff1673ffffffffffffffffffffffffffffffffffffffff16815260200190815260200160002060008282546118559190615233565b925050819055506000602660003373ffffffffffffffffffffffffffffffffffffffff1673ffffffffffffffffffffffffffffffffffffffff1681526020019081526020016000205490506000602660003373ffffffffffffffffffffffffffffffffffffffff1673ffffffffffffffffffffffffffffffffffffffff1681526020019081526020016000208190555080602860003373ffffffffffffffffffffffffffffffffffffffff1673ffffffffffffffffffffffffffffffffffffffff16815260200190815260200160002060008282546119349190615233565b925050819055503373ffffffffffffffffffffffffffffffffffffffff166108fc829081150290604051600060405180830381858888f19350505050158015611981573d6000803e3d6000fd5b503373ffffffffffffffffffffffffffffffffffffffff167f454211b099b54298804b6b35092d2a4bcbf8e5ea525a50b79b542ba2d4bc6a2482846040516119ca929190614e50565b60405180910390a25050565b602a60009054906101000a900473ffffffffffffffffffffffffffffffffffffffff1681565b60125481565b611a0a6140d3565b60036000611a18919061489c565b60005b8151811015611ac35760036040518060400160405280848481518110611a4457611a43615267565b5b6020026020010151600001518152602001848481518110611a6857611a67615267565b5b6020026020010151602001518152509080600181540180825580915050600190039060005260206000209060020201600090919091909150600082015181600001556020820151816001015550508080600101915050611a1b565b5050565b60156020528060005260406000206000915090505481565b611ae76140d3565b80602a60006101000a81548173ffffffffffffffffffffffffffffffffffffffff021916908373ffffffffffffffffffffffffffffffffffffffff16021790555050565b600f5481565b600c8181548110611b4157600080fd5b9060005260206000209060030201600091509050806000018054611b6490615499565b80601f0160208091040260200160405190810160405280929190818152602001828054611b9090615499565b8015611bdd5780601f10611bb257610100808354040283529160200191611bdd565b820191906000526020600020905b815481529060010190602001808311611bc057829003601f168201915b5050505050908060010154908060020154905083565b60256020528060005260406000206000915090505481565b60096020528060005260406000206000915090505481565b60186020528060005260406000206000915090505481565b601e6020528060005260406000206000915090505481565b601f6020528060005260406000206000915090505481565b602960009054906101000a900460ff1681565b601a60009054906101000a900460ff1681565b60115481565b60216020528060005260406000206000915090505481565b611cb76140d3565b80602960016101000a81548173ffffffffffffffffffffffffffffffffffffffff021916908373ffffffffffffffffffffffffffffffffffffffff16021790555050565b601b5481565b601c5481565b600160009054906101000a900473ffffffffffffffffffffffffffffffffffffffff1681565b611d356140d3565b611d3d6126a3565b73ffffffffffffffffffffffffffffffffffffffff166108fc479081150290604051600060405180830381858888f19350505050158015611d82573d6000803e3d6000fd5b50565b60146020528060005260406000206000915090505481565b611da56140d3565b611daf60006144b2565b565b60038181548110611dc157600080fd5b90600052602060002090600202016000915090508060000154908060010154905082565b611ded6140d3565b8015611e4c5782600c8581548110611e0857611e07615267565b5b90600052602060002090600302016001018190555081600c8581548110611e3257611e31615267565b5b906000526020600020906003020160020181905550611ea1565b82600a8581548110611e6157611e60615267565b5b90600052602060002090600302016001018190555081600a8581548110611e8b57611e8a615267565b5b9060005260206000209060030201600201819055505b50505050565b60003411611eea576040517f08c379a0000000000000000000000000000000000000000000000000000000008152600401611ee190615516565b60405180910390fd5b600660009054906101000a900460ff161580611f9e5750602a60009054906101000a900473ffffffffffffffffffffffffffffffffffffffff1673ffffffffffffffffffffffffffffffffffffffff16633af32abf336040518263ffffffff1660e01b8152600401611f5c9190615107565b602060405180830381865afa158015611f79573d6000803e3d6000fd5b505050506040513d601f19601f82011682018060405250810190611f9d919061554b565b5b611fdd576040517f08c379a0000000000000000000000000000000000000000000000000000000008152600401611fd4906155c4565b60405180910390fd5b6004544211612021576040517f08c379a000000000000000000000000000000000000000000000000000000000815260040161201890615630565b60405180910390fd5b601a60009054906101000a900460ff1615612071576040517f08c379a0000000000000000000000000000000000000000000000000000000008152600401612068906153a8565b60405180910390fd5b600061207c34614576565b9050600081116120c1576040517f08c379a00000000000000000000000000000000000000000000000000000000081526004016120b89061569c565b60405180910390fd5b600073ffffffffffffffffffffffffffffffffffffffff168273ffffffffffffffffffffffffffffffffffffffff16036120f9573391505b600061210483612f43565b905081600560008282546121189190615233565b92505081905550600060023461212e9190615439565b90506000806000841561223c5760646024548761214b91906153c8565b6121559190615439565b925060646023548761216791906153c8565b6121719190615439565b905060646022543461218391906153c8565b61218d9190615439565b915081602660008973ffffffffffffffffffffffffffffffffffffffff1673ffffffffffffffffffffffffffffffffffffffff16815260200190815260200160002060008282546121de9190615233565b9250508190555080602560008973ffffffffffffffffffffffffffffffffffffffff1673ffffffffffffffffffffffffffffffffffffffff16815260200190815260200160002060008282546122349190615233565b925050819055505b6000838761224a9190615233565b9050612256338261428b565b3373ffffffffffffffffffffffffffffffffffffffff16600073ffffffffffffffffffffffffffffffffffffffff167fc29b8032387f267ddc010037627574acbf3b1a65a6022ca8ba6c25f0ba85ee75898686896040516122ba94939291906156bc565b60405180910390a3600083866122d09190615233565b346122db9190615296565b90506122e56126a3565b73ffffffffffffffffffffffffffffffffffffffff166108fc829081150290604051600060405180830381858888f1935050505015801561232a573d6000803e3d6000fd5b5034601660003373ffffffffffffffffffffffffffffffffffffffff1673ffffffffffffffffffffffffffffffffffffffff168152602001908152602001600020600082825461237a9190615233565b9250508190555085600e60008282546123939190615233565b92505081905550505050505050505050565b6123ad6140d3565b8060048190555050565b601d5481565b6123c56140d3565b801561244257600c6040518060600160405280868152602001858152602001848152509080600181540180825580915050600190039060005260206000209060030201600090919091909150600082015181600001908161242691906158a3565b50602082015181600101556040820151816002015550506124b5565b600a6040518060600160405280868152602001858152602001848152509080600181540180825580915050600190039060005260206000209060030201600090919091909150600082015181600001908161249d91906158a3565b50602082015181600101556040820151816002015550505b50505050565b60606000600c8054905067ffffffffffffffff8111156124de576124dd614b5b565b5b60405190808252806020026020018201604052801561250c5781602001602082028036833780820191505090505b50905060005b600c8054905081101561259c57600d60008573ffffffffffffffffffffffffffffffffffffffff1673ffffffffffffffffffffffffffffffffffffffff16815260200190815260200160002060008281526020019081526020016000205482828151811061258357612582615267565b5b6020026020010181815250508080600101915050612512565b5080915050919050565b60606000600a8054905067ffffffffffffffff8111156125c9576125c8614b5b565b5b6040519080825280602002602001820160405280156125f75781602001602082028036833780820191505090505b50905060005b600a8054905081101561268757600b60008573ffffffffffffffffffffffffffffffffffffffff1673ffffffffffffffffffffffffffffffffffffffff16815260200190815260200160002060008281526020019081526020016000205482828151811061266e5761266d615267565b5b60200260200101818152505080806001019150506125fd565b5080915050919050565b6126996140d3565b80601c8190555050565b60008060009054906101000a900473ffffffffffffffffffffffffffffffffffffffff16905090565b600660009054906101000a900460ff1681565b60166020528060005260406000206000915090505481565b600d602052816000526040600020602052806000526040600020600091509150505481565b60055481565b61272a6140d3565b80600160006101000a81548173ffffffffffffffffffffffffffffffffffffffff021916908373ffffffffffffffffffffffffffffffffffffffff16021790555050565b60266020528060005260406000206000915090505481565b61278e6140d3565b601a60009054906101000a900460ff16156127de576040517f08c379a00000000000000000000000000000000000000000000000000000000081526004016127d5906159c1565b60405180910390fd5b6001601a60006101000a81548160ff0219169083151502179055506000601b81905550600e54601d81905550565b600a818154811061281c57600080fd5b906000526020600020906003020160009150905080600001805461283f90615499565b80601f016020809104026020016040519081016040528092919081815260200182805461286b90615499565b80156128b85780601f1061288d576101008083540402835291602001916128b8565b820191906000526020600020905b81548152906001019060200180831161289b57829003601f168201915b5050505050908060010154908060020154905083565b600781815481106128de57600080fd5b906000526020600020016000915054906101000a900473ffffffffffffffffffffffffffffffffffffffff1681565b60276020528060005260406000206000915090505481565b602960019054906101000a900473ffffffffffffffffffffffffffffffffffffffff1681565b6129536140d3565b601a60009054906101000a900460ff166129a2576040517f08c379a000000000000000000000000000000000000000000000000000000000815260040161299990615a2d565b60405180910390fd5b6000600780549050601c54601b546129ba9190615233565b106129e75760078054905090506000601a60006101000a81548160ff0219169083151502179055506129fa565b601c54601b546129f79190615233565b90505b6000601b5490505b81811015612ad857600060078281548110612a2057612a1f615267565b5b9060005260206000200160009054906101000a900473ffffffffffffffffffffffffffffffffffffffff1690506000612a5882611611565b905080600e6000828254612a6c9190615296565b9250508190555080601860008473ffffffffffffffffffffffffffffffffffffffff1673ffffffffffffffffffffffffffffffffffffffff1681526020019081526020016000206000828254612ac29190615233565b9250508190555050508080600101915050612a02565b5080601b8190555050565b60245481565b612af16140d3565b60008310158015612b03575060148311155b612b42576040517f08c379a0000000000000000000000000000000000000000000000000000000008152600401612b3990615a99565b60405180910390fd5b8260228190555060008210158015612b5b575060148211155b612b9a576040517f08c379a0000000000000000000000000000000000000000000000000000000008152600401612b9190615a99565b60405180910390fd5b8160238190555060008110158015612bb3575060148111155b612bf2576040517f08c379a0000000000000000000000000000000000000000000000000000000008152600401612be990615a99565b60405180910390fd5b80602481905550505050565b60085481565b600b602052816000526040600020602052806000526040600020600091509150505481565b602080528060005260406000206000915090505481565b60105481565b612c4e6140d3565b600260009054906101000a900473ffffffffffffffffffffffffffffffffffffffff1673ffffffffffffffffffffffffffffffffffffffff166323b872dd612c946126a3565b84670de0b6b3a764000085612ca991906153c8565b6040518463ffffffff1660e01b8152600401612cc793929190615ab9565b6020604051808303816000875af1158015612ce6573d6000803e3d6000fd5b505050506040513d601f19601f82011682018060405250810190612d0a919061554b565b5080600960008473ffffffffffffffffffffffffffffffffffffffff1673ffffffffffffffffffffffffffffffffffffffff1681526020019081526020016000206000828254612d5a9190615233565b925050819055505050565b60286020528060005260406000206000915090505481565b60225481565b6000601860003373ffffffffffffffffffffffffffffffffffffffff1673ffffffffffffffffffffffffffffffffffffffff16815260200190815260200160002054905060008111612e0a576040517f08c379a0000000000000000000000000000000000000000000000000000000008152600401612e0190615b3c565b60405180910390fd5b6000601860003373ffffffffffffffffffffffffffffffffffffffff1673ffffffffffffffffffffffffffffffffffffffff1681526020019081526020016000208190555080601960003373ffffffffffffffffffffffffffffffffffffffff1673ffffffffffffffffffffffffffffffffffffffff1681526020019081526020016000206000828254612e9e9190615233565b925050819055503373ffffffffffffffffffffffffffffffffffffffff166108fc829081150290604051600060405180830381858888f19350505050158015612eeb573d6000803e3d6000fd5b503373ffffffffffffffffffffffffffffffffffffffff167f7bcfb0598e7cd0b03e8472440b7e292b4767743ddeb0579a65be466b40c8b0f382604051612f3291906149de565b60405180910390a250565b600e5481565b6000602960009054906101000a900460ff161561305857600073ffffffffffffffffffffffffffffffffffffffff16602960019054906101000a900473ffffffffffffffffffffffffffffffffffffffff1673ffffffffffffffffffffffffffffffffffffffff16141580156130515750602960019054906101000a900473ffffffffffffffffffffffffffffffffffffffff1673ffffffffffffffffffffffffffffffffffffffff16633af32abf836040518263ffffffff1660e01b815260040161300f9190615107565b602060405180830381865afa15801561302c573d6000803e3d6000fd5b505050506040513d601f19601f82011682018060405250810190613050919061554b565b5b90506131ed565b600073ffffffffffffffffffffffffffffffffffffffff16602a60009054906101000a900473ffffffffffffffffffffffffffffffffffffffff1673ffffffffffffffffffffffffffffffffffffffff161415801561314f5750602a60009054906101000a900473ffffffffffffffffffffffffffffffffffffffff1673ffffffffffffffffffffffffffffffffffffffff16633af32abf836040518263ffffffff1660e01b815260040161310d9190615107565b602060405180830381865afa15801561312a573d6000803e3d6000fd5b505050506040513d601f19601f8201168201806040525081019061314e919061554b565b5b806131ea57506000602160008473ffffffffffffffffffffffffffffffffffffffff1673ffffffffffffffffffffffffffffffffffffffff168152602001908152602001600020541180156131e957506131a76112a9565b602160008473ffffffffffffffffffffffffffffffffffffffff1673ffffffffffffffffffffffffffffffffffffffff16815260200190815260200160002054105b5b90505b919050565b6131fa6140d3565b80602960006101000a81548160ff02191690831515021790555050565b6000600a838154811061322d5761322c615267565b5b9060005260206000209060030201600101541161327f576040517f08c379a000000000000000000000000000000000000000000000000000000000815260040161327690615ba8565b60405180910390fd5b601a60009054906101000a900460ff16156132cf576040517f08c379a00000000000000000000000000000000000000000000000000000000081526004016132c6906153a8565b60405180910390fd5b600081600a84815481106132e6576132e5615267565b5b90600052602060002090600302016002015461330291906153c8565b9050600082600a858154811061331b5761331a615267565b5b90600052602060002090600302016001015461333791906153c8565b90506133423361415a565b81601160008282546133549190615233565b9250508190555080600f600082825461336d9190615233565b9250508190555061337e33836146fb565b82600b60003373ffffffffffffffffffffffffffffffffffffffff1673ffffffffffffffffffffffffffffffffffffffff168152602001908152602001600020600086815260200190815260200160002060008282546133de9190615233565b9250508190555080601460003373ffffffffffffffffffffffffffffffffffffffff1673ffffffffffffffffffffffffffffffffffffffff16815260200190815260200160002060008282546134349190615233565b9250508190555050505050565b60176020528060005260406000206000915090505481565b60196020528060005260406000206000915090505481565b6000600a838154811061348757613486615267565b5b906000526020600020906003020160010154116134a357600080fd5b80600b60003373ffffffffffffffffffffffffffffffffffffffff1673ffffffffffffffffffffffffffffffffffffffff1681526020019081526020016000206000848152602001908152602001600020541015613536576040517f08c379a000000000000000000000000000000000000000000000000000000000815260040161352d90615c14565b60405180910390fd5b601a60009054906101000a900460ff1615613586576040517f08c379a000000000000000000000000000000000000000000000000000000000815260040161357d906153a8565b60405180910390fd5b600081600a848154811061359d5761359c615267565b5b9060005260206000209060030201600201546135b991906153c8565b9050600082600a85815481106135d2576135d1615267565b5b9060005260206000209060030201600101546135ee91906153c8565b90506135f93361415a565b80600f600082825461360b9190615296565b9250508190555081601160008282546136249190615296565b92505081905550613635338361428b565b82600b60003373ffffffffffffffffffffffffffffffffffffffff1673ffffffffffffffffffffffffffffffffffffffff168152602001908152602001600020600086815260200190815260200160002060008282546136959190615296565b9250508190555080601460003373ffffffffffffffffffffffffffffffffffffffff1673ffffffffffffffffffffffffffffffffffffffff16815260200190815260200160002060008282546136eb9190615296565b9250508190555050505050565b6137006140d3565b600073ffffffffffffffffffffffffffffffffffffffff168173ffffffffffffffffffffffffffffffffffffffff16036137725760006040517f1e4fbdf70000000000000000000000000000000000000000000000000000000081526004016137699190615107565b60405180910390fd5b61377b816144b2565b50565b6000600c838154811061379457613793615267565b5b906000526020600020906003020160010154116137b057600080fd5b601a60009054906101000a900460ff1615613800576040517f08c379a00000000000000000000000000000000000000000000000000000000081526004016137f7906153a8565b60405180910390fd5b6138093361415a565b600081600c84815481106138205761381f615267565b5b90600052602060002090600302016001015461383c91906153c8565b9050600082600c858154811061385557613854615267565b5b90600052602060002090600302016002015461387191906153c8565b905060006013548260125461388691906153c8565b6138909190615439565b905081601360008282546138a49190615233565b9250508190555080601260008282546138bd9190615233565b9250508190555082601060008282546138d69190615233565b925050819055506138e733826146fb565b83600d60003373ffffffffffffffffffffffffffffffffffffffff1673ffffffffffffffffffffffffffffffffffffffff168152602001908152602001600020600087815260200190815260200160002060008282546139479190615233565b9250508190555082601560003373ffffffffffffffffffffffffffffffffffffffff1673ffffffffffffffffffffffffffffffffffffffff168152602001908152602001600020600082825461399d9190615233565b925050819055505050505050565b600260009054906101000a900473ffffffffffffffffffffffffffffffffffffffff1681565b60235481565b6000600160009054906101000a900473ffffffffffffffffffffffffffffffffffffffff1673ffffffffffffffffffffffffffffffffffffffff16633af32abf336040518263ffffffff1660e01b8152600401613a349190615107565b602060405180830381865afa158015613a51573d6000803e3d6000fd5b505050506040513d601f19601f82011682018060405250810190613a75919061554b565b80613ab25750613a836126a3565b73ffffffffffffffffffffffffffffffffffffffff163373ffffffffffffffffffffffffffffffffffffffff16145b613af1576040517f08c379a0000000000000000000000000000000000000000000000000000000008152600401613ae890615c80565b60405180910390fd5b601e60008373ffffffffffffffffffffffffffffffffffffffff1673ffffffffffffffffffffffffffffffffffffffff1681526020019081526020016000205442613b3c9190615296565b601560008473ffffffffffffffffffffffffffffffffffffffff1673ffffffffffffffffffffffffffffffffffffffff16815260200190815260200160002054613b8691906153c8565b601f60008473ffffffffffffffffffffffffffffffffffffffff1673ffffffffffffffffffffffffffffffffffffffff1681526020019081526020016000206000828254613bd49190615233565b9250508190555042601e60008473ffffffffffffffffffffffffffffffffffffffff1673ffffffffffffffffffffffffffffffffffffffff168152602001908152602001600020819055506000602060008473ffffffffffffffffffffffffffffffffffffffff1673ffffffffffffffffffffffffffffffffffffffff16815260200190815260200160002054601f60008573ffffffffffffffffffffffffffffffffffffffff1673ffffffffffffffffffffffffffffffffffffffff16815260200190815260200160002054613cab9190615296565b9050601f60008473ffffffffffffffffffffffffffffffffffffffff1673ffffffffffffffffffffffffffffffffffffffff16815260200190815260200160002054602060008573ffffffffffffffffffffffffffffffffffffffff1673ffffffffffffffffffffffffffffffffffffffff168152602001908152602001600020819055508273ffffffffffffffffffffffffffffffffffffffff167f1e6f5eaef61555b8bf4c1ef79dd15630c9612b652f0c442b66151f134650742c82604051613d7691906149de565b60405180910390a280915050919050565b600160009054906101000a900473ffffffffffffffffffffffffffffffffffffffff1673ffffffffffffffffffffffffffffffffffffffff16633af32abf336040518263ffffffff1660e01b8152600401613de29190615107565b602060405180830381865afa158015613dff573d6000803e3d6000fd5b505050506040513d601f19601f82011682018060405250810190613e23919061554b565b80613e605750613e316126a3565b73ffffffffffffffffffffffffffffffffffffffff163373ffffffffffffffffffffffffffffffffffffffff16145b613e9f576040517f08c379a0000000000000000000000000000000000000000000000000000000008152600401613e9690615c80565b60405180910390fd5b6000600c8381548110613eb557613eb4615267565b5b90600052602060002090600302016001015411613ed157600080fd5b601a60009054906101000a900460ff1615613f21576040517f08c379a0000000000000000000000000000000000000000000000000000000008152600401613f18906153a8565b60405180910390fd5b613f2a8361415a565b600081600c8481548110613f4157613f40615267565b5b906000526020600020906003020160010154613f5d91906153c8565b9050600082600c8581548110613f7657613f75615267565b5b906000526020600020906003020160020154613f9291906153c8565b90508060136000828254613fa69190615233565b925050819055508160106000828254613fbf9190615233565b9250508190555082600d60008773ffffffffffffffffffffffffffffffffffffffff1673ffffffffffffffffffffffffffffffffffffffff1681526020019081526020016000206000868152602001908152602001600020546140229190615233565b600d60008773ffffffffffffffffffffffffffffffffffffffff1673ffffffffffffffffffffffffffffffffffffffff16815260200190815260200160002060008681526020019081526020016000208190555081601560008773ffffffffffffffffffffffffffffffffffffffff1673ffffffffffffffffffffffffffffffffffffffff16815260200190815260200160002060008282546140c59190615233565b925050819055505050505050565b6140db614894565b73ffffffffffffffffffffffffffffffffffffffff166140f96126a3565b73ffffffffffffffffffffffffffffffffffffffff16146141585761411c614894565b6040517f118cdaa700000000000000000000000000000000000000000000000000000000815260040161414f9190615107565b60405180910390fd5b565b601e60008273ffffffffffffffffffffffffffffffffffffffff1673ffffffffffffffffffffffffffffffffffffffff16815260200190815260200160002054426141a59190615296565b601560008373ffffffffffffffffffffffffffffffffffffffff1673ffffffffffffffffffffffffffffffffffffffff168152602001908152602001600020546141ef91906153c8565b601f60008373ffffffffffffffffffffffffffffffffffffffff1673ffffffffffffffffffffffffffffffffffffffff168152602001908152602001600020600082825461423d9190615233565b9250508190555042601e60008373ffffffffffffffffffffffffffffffffffffffff1673ffffffffffffffffffffffffffffffffffffffff1681526020019081526020016000208190555050565b6000602160003373ffffffffffffffffffffffffffffffffffffffff1673ffffffffffffffffffffffffffffffffffffffff168152602001908152602001600020540361439b576007339080600181540180825580915050600190039060005260206000200160009091909190916101000a81548173ffffffffffffffffffffffffffffffffffffffff021916908373ffffffffffffffffffffffffffffffffffffffff1602179055506001600860008282546143489190615233565b925050819055506143576112a9565b602160003373ffffffffffffffffffffffffffffffffffffffff1673ffffffffffffffffffffffffffffffffffffffff168152602001908152602001600020819055505b600260009054906101000a900473ffffffffffffffffffffffffffffffffffffffff1673ffffffffffffffffffffffffffffffffffffffff166323b872dd6143e16126a3565b84670de0b6b3a7640000856143f691906153c8565b6040518463ffffffff1660e01b815260040161441493929190615ab9565b6020604051808303816000875af1158015614433573d6000803e3d6000fd5b505050506040513d601f19601f82011682018060405250810190614457919061554b565b5080600960008473ffffffffffffffffffffffffffffffffffffffff1673ffffffffffffffffffffffffffffffffffffffff16815260200190815260200160002060008282546144a79190615233565b925050819055505050565b60008060009054906101000a900473ffffffffffffffffffffffffffffffffffffffff169050816000806101000a81548173ffffffffffffffffffffffffffffffffffffffff021916908373ffffffffffffffffffffffffffffffffffffffff1602179055508173ffffffffffffffffffffffffffffffffffffffff168173ffffffffffffffffffffffffffffffffffffffff167f8be0079c531659141344cd1fd0a4f28419497f9722a3daafe3b4186f6b6457e060405160405180910390a35050565b6000806000905060008390506000600554905060005b600380549050811080156145a05750600083115b156146ef576000600382815481106145bb576145ba615267565b5b90600052602060002090600202016040518060400160405290816000820154815260200160018201548152505090506000805b83811161463b576003818154811061460957614608615267565b5b906000526020600020906002020160000154826146269190615233565b9150808061463390615ca0565b9150506145ee565b50600084821161464c576000614659565b84826146589190615296565b5b90506000810361466b575050506146dc565b600083602001518261467d91906153c8565b90508087106146b55781886146929190615233565b975080876146a09190615296565b965081866146ae9190615233565b95506146d7565b8360200151876146c59190615439565b886146d09190615233565b9750600096505b505050505b80806146e790615ca0565b91505061458c565b50829350505050919050565b600260009054906101000a900473ffffffffffffffffffffffffffffffffffffffff1673ffffffffffffffffffffffffffffffffffffffff166323b872dd836147426126a3565b670de0b6b3a76400008561475691906153c8565b6040518463ffffffff1660e01b815260040161477493929190615ab9565b6020604051808303816000875af1158015614793573d6000803e3d6000fd5b505050506040513d601f19601f820116820180604052508101906147b7919061554b565b5080600960008473ffffffffffffffffffffffffffffffffffffffff1673ffffffffffffffffffffffffffffffffffffffff16815260200190815260200160002054101561483a576040517f08c379a000000000000000000000000000000000000000000000000000000000815260040161483190615d34565b60405180910390fd5b80600960008473ffffffffffffffffffffffffffffffffffffffff1673ffffffffffffffffffffffffffffffffffffffff16815260200190815260200160002060008282546148899190615296565b925050819055505050565b600033905090565b50805460008255600202906000526020600020908101906148bd91906148c0565b50565b5b808211156148e3576000808201600090556001820160009055506002016148c1565b5090565b6000604051905090565b600080fd5b600080fd5b600073ffffffffffffffffffffffffffffffffffffffff82169050919050565b6000614926826148fb565b9050919050565b6149368161491b565b811461494157600080fd5b50565b6000813590506149538161492d565b92915050565b6000819050919050565b61496c81614959565b811461497757600080fd5b50565b60008135905061498981614963565b92915050565b600080604083850312156149a6576149a56148f1565b5b60006149b485828601614944565b92505060206149c58582860161497a565b9150509250929050565b6149d881614959565b82525050565b60006020820190506149f360008301846149cf565b92915050565b60008060408385031215614a1057614a0f6148f1565b5b6000614a1e8582860161497a565b9250506020614a2f8582860161497a565b9150509250929050565b600060208284031215614a4f57614a4e6148f1565b5b6000614a5d84828501614944565b91505092915050565b60008115159050919050565b614a7b81614a66565b8114614a8657600080fd5b50565b600081359050614a9881614a72565b92915050565b600060208284031215614ab457614ab36148f1565b5b6000614ac284828501614a89565b91505092915050565b6000819050919050565b6000614af0614aeb614ae6846148fb565b614acb565b6148fb565b9050919050565b6000614b0282614ad5565b9050919050565b6000614b1482614af7565b9050919050565b614b2481614b09565b82525050565b6000602082019050614b3f6000830184614b1b565b92915050565b600080fd5b6000601f19601f8301169050919050565b7f4e487b7100000000000000000000000000000000000000000000000000000000600052604160045260246000fd5b614b9382614b4a565b810181811067ffffffffffffffff82111715614bb257614bb1614b5b565b5b80604052505050565b6000614bc56148e7565b9050614bd18282614b8a565b919050565b600067ffffffffffffffff821115614bf157614bf0614b5b565b5b602082029050602081019050919050565b600080fd5b600080fd5b600060408284031215614c2257614c21614c07565b5b614c2c6040614bbb565b90506000614c3c8482850161497a565b6000830152506020614c508482850161497a565b60208301525092915050565b6000614c6f614c6a84614bd6565b614bbb565b90508083825260208201905060408402830185811115614c9257614c91614c02565b5b835b81811015614cbb5780614ca78882614c0c565b845260208401935050604081019050614c94565b5050509392505050565b600082601f830112614cda57614cd9614b45565b5b8135614cea848260208601614c5c565b91505092915050565b600060208284031215614d0957614d086148f1565b5b600082013567ffffffffffffffff811115614d2757614d266148f6565b5b614d3384828501614cc5565b91505092915050565b600060208284031215614d5257614d516148f1565b5b6000614d608482850161497a565b91505092915050565b600081519050919050565b600082825260208201905092915050565b60005b83811015614da3578082015181840152602081019050614d88565b60008484015250505050565b6000614dba82614d69565b614dc48185614d74565b9350614dd4818560208601614d85565b614ddd81614b4a565b840191505092915050565b60006060820190508181036000830152614e028186614daf565b9050614e1160208301856149cf565b614e1e60408301846149cf565b949350505050565b614e2f81614a66565b82525050565b6000602082019050614e4a6000830184614e26565b92915050565b6000604082019050614e6560008301856149cf565b614e7260208301846149cf565b9392505050565b60008060008060808587031215614e9357614e926148f1565b5b6000614ea18782880161497a565b9450506020614eb28782880161497a565b9350506040614ec38782880161497a565b9250506060614ed487828801614a89565b91505092959194509250565b600080fd5b600067ffffffffffffffff821115614f0057614eff614b5b565b5b614f0982614b4a565b9050602081019050919050565b82818337600083830152505050565b6000614f38614f3384614ee5565b614bbb565b905082815260208101848484011115614f5457614f53614ee0565b5b614f5f848285614f16565b509392505050565b600082601f830112614f7c57614f7b614b45565b5b8135614f8c848260208601614f25565b91505092915050565b60008060008060808587031215614faf57614fae6148f1565b5b600085013567ffffffffffffffff811115614fcd57614fcc6148f6565b5b614fd987828801614f67565b9450506020614fea8782880161497a565b9350506040614ffb8782880161497a565b925050606061500c87828801614a89565b91505092959194509250565b600081519050919050565b600082825260208201905092915050565b6000819050602082019050919050565b61504d81614959565b82525050565b600061505f8383615044565b60208301905092915050565b6000602082019050919050565b600061508382615018565b61508d8185615023565b935061509883615034565b8060005b838110156150c95781516150b08882615053565b97506150bb8361506b565b92505060018101905061509c565b5085935050505092915050565b600060208201905081810360008301526150f08184615078565b905092915050565b6151018161491b565b82525050565b600060208201905061511c60008301846150f8565b92915050565b60008060006060848603121561513b5761513a6148f1565b5b60006151498682870161497a565b935050602061515a8682870161497a565b925050604061516b8682870161497a565b9150509250925092565b600061518082614af7565b9050919050565b61519081615175565b82525050565b60006020820190506151ab6000830184615187565b92915050565b6000806000606084860312156151ca576151c96148f1565b5b60006151d886828701614944565b93505060206151e98682870161497a565b92505060406151fa8682870161497a565b9150509250925092565b7f4e487b7100000000000000000000000000000000000000000000000000000000600052601160045260246000fd5b600061523e82614959565b915061524983614959565b925082820190508082111561526157615260615204565b5b92915050565b7f4e487b7100000000000000000000000000000000000000000000000000000000600052603260045260246000fd5b60006152a182614959565b91506152ac83614959565b92508282039050818111156152c4576152c3615204565b5b92915050565b7f4e6f7420656e6f756768206372797374616c7320746f2073656c6c0000000000600082015250565b6000615300601b83614d74565b915061530b826152ca565b602082019050919050565b6000602082019050818103600083015261532f816152f3565b9050919050565b7f52657761726420646973747269627574696f6e20696e2070726f67726573732e60008201527f20506c656173652074727920616761696e206c617465722e0000000000000000602082015250565b6000615392603883614d74565b915061539d82615336565b604082019050919050565b600060208201905081810360008301526153c181615385565b9050919050565b60006153d382614959565b91506153de83614959565b92508282026153ec81614959565b9150828204841483151761540357615402615204565b5b5092915050565b7f4e487b7100000000000000000000000000000000000000000000000000000000600052601260045260246000fd5b600061544482614959565b915061544f83614959565b92508261545f5761545e61540a565b5b828204905092915050565b7f4e487b7100000000000000000000000000000000000000000000000000000000600052602260045260246000fd5b600060028204905060018216806154b157607f821691505b6020821081036154c4576154c361546a565b5b50919050565b7f4d7573742073656e642043524f20746f2062757920746f6b656e730000000000600082015250565b6000615500601b83614d74565b915061550b826154ca565b602082019050919050565b6000602082019050818103600083015261552f816154f3565b9050919050565b60008151905061554581614a72565b92915050565b600060208284031215615561576155606148f1565b5b600061556f84828501615536565b91505092915050565b7f4e6f74206f6e207468652077686974656c697374210000000000000000000000600082015250565b60006155ae601583614d74565b91506155b982615578565b602082019050919050565b600060208201905081810360008301526155dd816155a1565b9050919050565b7f53616c65206973206e6f7420796574206f70656e210000000000000000000000600082015250565b600061561a601583614d74565b9150615625826155e4565b602082019050919050565b600060208201905081810360008301526156498161560d565b9050919050565b7f4e6f7420656e6f7567682043524f20746f2062757920746f6b656e7300000000600082015250565b6000615686601c83614d74565b915061569182615650565b602082019050919050565b600060208201905081810360008301526156b581615679565b9050919050565b60006080820190506156d160008301876149cf565b6156de60208301866149cf565b6156eb60408301856149cf565b6156f860608301846149cf565b95945050505050565b60008190508160005260206000209050919050565b60006020601f8301049050919050565b600082821b905092915050565b6000600883026157637fffffffffffffffffffffffffffffffffffffffffffffffffffffffffffffffff82615726565b61576d8683615726565b95508019841693508086168417925050509392505050565b60006157a061579b61579684614959565b614acb565b614959565b9050919050565b6000819050919050565b6157ba83615785565b6157ce6157c6826157a7565b848454615733565b825550505050565b600090565b6157e36157d6565b6157ee8184846157b1565b505050565b5b81811015615812576158076000826157db565b6001810190506157f4565b5050565b601f8211156158575761582881615701565b61583184615716565b81016020851015615840578190505b61585461584c85615716565b8301826157f3565b50505b505050565b600082821c905092915050565b600061587a6000198460080261585c565b1980831691505092915050565b60006158938383615869565b9150826002028217905092915050565b6158ac82614d69565b67ffffffffffffffff8111156158c5576158c4614b5b565b5b6158cf8254615499565b6158da828285615816565b600060209050601f83116001811461590d57600084156158fb578287015190505b6159058582615887565b86555061596d565b601f19841661591b86615701565b60005b828110156159435784890151825560018201915060208501945060208101905061591e565b86831015615960578489015161595c601f891682615869565b8355505b6001600288020188555050505b505050505050565b7f446973747269627574696f6e206e6f7420636f6d706c65746564210000000000600082015250565b60006159ab601b83614d74565b91506159b682615975565b602082019050919050565b600060208201905081810360008301526159da8161599e565b9050919050565b7f446973747269627574696f6e206e6f7420696e697469616c697a656421000000600082015250565b6000615a17601d83614d74565b9150615a22826159e1565b602082019050919050565b60006020820190508181036000830152615a4681615a0a565b9050919050565b7f56616c7565206d757374206265206265747765656e203020616e642032300000600082015250565b6000615a83601e83614d74565b9150615a8e82615a4d565b602082019050919050565b60006020820190508181036000830152615ab281615a76565b9050919050565b6000606082019050615ace60008301866150f8565b615adb60208301856150f8565b615ae860408301846149cf565b949350505050565b7f4e6f2043524f206f776564000000000000000000000000000000000000000000600082015250565b6000615b26600b83614d74565b9150615b3182615af0565b602082019050919050565b60006020820190508181036000830152615b5581615b19565b9050919050565b7f47656d207479706520646f6573206e6f74206578697374000000000000000000600082015250565b6000615b92601783614d74565b9150615b9d82615b5c565b602082019050919050565b60006020820190508181036000830152615bc181615b85565b9050919050565b7f4e6f7420656e6f7567682067656d7320746f2073656c6c000000000000000000600082015250565b6000615bfe601783614d74565b9150615c0982615bc8565b602082019050919050565b60006020820190508181036000830152615c2d81615bf1565b9050919050565b7f43616c6c6572206973206e6f7420616e2061646d696e00000000000000000000600082015250565b6000615c6a601683614d74565b9150615c7582615c34565b602082019050919050565b60006020820190508181036000830152615c9981615c5d565b9050919050565b6000615cab82614959565b91507fffffffffffffffffffffffffffffffffffffffffffffffffffffffffffffffff8203615cdd57615cdc615204565b5b600182019050919050565b7f4e6f7420656e6f756768207370656e6461626c6520746f6b656e2e0000000000600082015250565b6000615d1e601b83614d74565b9150615d2982615ce8565b602082019050919050565b60006020820190508181036000830152615d4d81615d11565b905091905056fea264697066735822122017de65907a06356455f10b77cecad6cb836df9224375d5761476dffeaac69d1264736f6c634300081c0033",
  "linkReferences": {},
  "deployedLinkReferences": {}
}